:1035F100122A871234CE120026C292D28712369630
:0736010050FB120EFE80F6E3
:102A070052525252525252525252445252444152CC
:102A1700525252525252525252525252525252528F
:102A270052445152445252525252524E534E4E52A7
:102A37004E4E4E4E4E4E4E4E4E4E524452525244B3
:102A4700524141414141414141414141414141415E
:102A5700414141414141414141414152525252520A
:102A6700524141414141414141414141414141413E
:102A7700414141414141414141414141414141413F
:1034CE0090013F74F5F0D297E4900187F0A3F0904D
:1034DE000186F090013EF0900145F0900144F0C25B
:0A34EE0011C215C212D214C213223B
:03002300021A4876
:101A4800C0E0C0F0C083C082C0D075D000C000C064
:0D1A580001C002C003C004C005C006C007E5
:101A65003013061235A9021B63209803021B4F3061
:101A75009D2AE599B4900BD211C29D9001867401FF
:101A8500801190013FE065996003021B4AC29D9059
:101A9500018604F0900142E4F0021B4A90013CE506
:101AA50099F0900186E0FF6403703BD29D9001425E
:101AB500E0547FFE90013CE0FDC3EE9D9001846003
:101AC500057481F080037480F0900184E0FE90013C
:101AD5003CF020110D301504D2128045C2148E99A8
:101AE500803FC211803B90013CE0FD3395E0FC74E2
:101AF500072DF582742A3CF583E493FE90013DF0B1
:101B0500BE5109EF6403900186F08015900186E0CF
:101B15006402600D90013DE0B444069001867403B3
:101B2500F090013CE0FF900187E004F075F032840D
:101B3500AEF0EEF02452F582E43401F583EFF09037
:101B45000142E02FF0C298021A6E30991130120A44
:0E1B5500C212900184E0F5998002D214C29968
:101B6300D007D006D005D004D003D002D001D000D6
:0B1B7300D0D0D082D083D0F0D0E03280
:10369600900188E0FF900187E0C39F6002D322C3B8
:0136A6002201
:0F36A700D2153014FDC2148F993014FDC21522B4
:06268D009000001203653D
:10269300E4900006F0900004F09000071203713BF1
:1026A3009ACA00E4900005F0900007E0F8A3E0F96F
:1026B300A3E0FAA3E0FB900000E0FCA3E0FDA3E0AD
:1026C300FEA3E0FF120242E47B0AFAF9F812024287
:1026D300AF03AE07EE600690000674FFF0900006AD
:1026E300E07007900005E0B4090E74302EFEFF126F
:1026F30036A7900004E02FF0900007E0FCA3E0FD74
:10270300A3E0FEA3E0FFE47B0AFAF9F81202429089
:102713000007120365900005E004F0E0C3940A404B
:10272300877F3B1236A7900004E0243B547FFF02CF
:0227330036A7C7
:0B2FAA0090000AEBF0A3EAF0A3E9F0AE
:102FB5007E447F221236A790000AE0FBA3E0FAA325
:102FC500E0F912002EFF601A1236A790000AE0FB06
:102FD500A3E475F0011200F2A9F0FA12002E2EFEFC
:102FE50080D57F221236A77F3B1236A7EE243B54AD
:052FF5007FFF0236A77A
:100EFE00900188E004F075F03284AFF0EFF02452E8
:100F0E00F582E43401F583E090013EF0E0FF902A93
:100F1E000793900145F0900144E0B40900400302AC
:100F2E00119F900F37F8282873020F52020F940268
:100F3E000FE50210960210D402111302117902115C
:100F4E008C02119A900145E0FBB4412F900144E0D0
:100F5E0004F0900140EFF0E4900143F090014E1246
:100F6E0003710000000090014A120371000000009E
:100F7E009001461203710000000022EB64447003DE
:100F8E0002119F021172900145E024BC601524F6F7
:100F9E00601724FD60102410703A90013EE090011D
:100FAE0041F02202110202111F90013EE024D0FFF7
:100FBE00E434FFFEE4FCFDC004C005C006C007908B
:100FCE000143F03395E0FEE47802C333CE33CED83E
:100FDE00F9021157021172900145E024BC70030210
:100FEE00109124F1700302108A24056003021093FD
:100FFE00900143E0FF3395E0FEEF7802C333CE332A
:10100E00CED8F92446F58274013EF583E0FCA3E0C8
:10101E00FDA3E0FEA3E0FFE47B0AFAF9F81201B7A4
:10102E00A804A905AA06AB0790013EE0FFE4FCFD6B
:10103E00FEEB2FFFEE3AFEED39FDEC38FCEF24D03F
:10104E00FFEE34FFFEED34FFFDEC34FFFCC004C0B8
:10105E0005C006C007900143E0FF3395E0FEEF7830
:10106E0002C333CE33CED8F92446F58274013EF551
:10107E0083D007D006D005D00402036590014474D6
:10108E0005F022806F021172900145E0B4511A9062
:10109E000189E004FFF03395E0FE748A2FF5827427
:1010AE00013EF583E4F002119390013EE0FF9001C2
:1010BE0089E004F0FD3395E0FC748A2DF58274010D
:1010CE003CF583EFF022900145E024BC602624F12C
:1010DE00601F2402702D90013EE0FF900189E0FD1B
:1010EE003395E0FC748A2DF58274013CF583EF8014
:1010FE002502119390013EE0900185F09001447419
:10110E0006F022805F900145E024B2601124FD704C
:10111E005390018974FFF09001447403F022900102
:10112E003EE024D0FFE434FFFEE4FCFDC004C00525
:10113E00C006C007900143E004FFF03395E0FEEFD8
:10114E007802C333CE33CED8F92446F58274013EED
:10115E00F583D007D006D005D00412036590014464
:10116E007402F0229001447407F02290013EE0B424
:10117E00800A900140E0B455031221A0800E900128
:10118E0045E0B4440C900144E004F022E4900144A4
:02119E00F0223D
:0832F500E0FF1232FDA3E0FF2F
:1032FD00E4FEEEC39D501BD280EF30E704D28680F2
:10330D0002C286EF25E0FFC280A281E4334FFF0E9B
:02331D0080E04E
:01331F00228B
:102BF00090000FEFF0900012EBF0A3EAF0A3E9F0E1
:102C0000C297AF05900018ECF0A3EFF090000FE032
:102C1000FF7D081232FD9000181232F5E490001783
:102C2000F0900017E0FFD3900016E09F7480F890BA
:102C30000015E06480984021900012E0FBA3E47549
:102C4000F0011200F2A9F0FA12002EFF7D081232F4
:0B2C5000FD900017E004F080C8D29750
:012C5B002256
:0532300090000AEFF020
:1032350012002E90000EF0C297AF0590000CECF036
:10324500A3EFF090000AE0FF7D081232FD90000C1C
:0F3255001232F5A3E0FF1232FDEF120096D2976E
:013264002247
:042E4C00410214002B
:0836EF00E4900216F0A3F022A2
:10361E00C2ACE4900216F0A3F07F3C7823E4F608E7
:04362E00DFFCD2AC3F
:013632002275
:0836F7008F993099FDC2992260
:1035A900309814900216E02423F8A699C298E004F2
:0835B900F0E0B43202E4F0225C
:102D330090010BEBF0A3EAF0A3E9F0C2AC90021709
:102D4300E070057F311236F7D2AC7FFF7E7F120031
:102D530003900217E0FE900216E0B506083001F179
:102D6300C2CA7F0022C2CAC2AC74232EF8E6FF9007
:102D7300010BE0FBA3E0FAA3E0F9EF120096900247
:0F2D830017E004F0E0B43202E4F0D2AC7F01229A
:10000300E4F5C8C39FFFE49EF5CB8FCA74FFF5CD1B
:0F001300F5CCD2ADD2CA9002157432F0C20122E0
:0D36C4007FFF7E7F1200033001FDC2CA228D
:03002B0002358C0F
:10358C00C0E0C083C082C2CF900215E014F0E0709E
:0D359C0005D2017432F0D082D083D0E0322D
:052E5000420218000021
:102EA600AC07900218E07002A3E0700F90021BE0DE
:102EB6004480F0900218E4F0A304F0ECB40111EDA4
:102EC6005401C4333354C0FF90021BE054BF4FF08B
:102ED600ECB4020FED5401C454F0FF90021BE05411
:102EE600EF4FF0EC7013ED5401C43354E0FF900241
:0A2EF6001BE054DF4FF0E0F5A022CE
:0C36D100E4FDFF122EA60DE4FF022EA661
:0836DD00122D3390010AEFF0F9
:0136E50022C2
:1036080090021AE5A0F0E0C4131313540130E0034C
:063618007F01227F002269
:061DA30090012612036509
:101DA9007F007E3B7D587C08900126E0F8A3E0F98E
:101DB900A3E0FAA3E0FBC31202D4706190012612DA
:101DC9000371000F424090012A12037100000000C4
:101DD900900126E0FCA3E0FDA3E0FEA3E0FFA3E061
:101DE900F8A3E0F9A3E0FAA3E0FBC31202D440038D
:101DF900021EAF1236D190012AE0FCA3E0FDA3E058
:101E0900FEA3E0FFE4FAF9F8EF2401FFEA3EFEE958
:101E19003DFDE83CFC90012A12036580B3E47FE8AC
:101E29007E03FDFC900126E0F8A3E0F9A3E0FAA304
:101E3900E0FBC31202D4606EE47F0FFEFDFC90014B
:101E490026E0F8A3E0F9A3E0FAA3E0FBC31202D469
:101E5900605490012A12037100000000900126E0ED
:101E6900FCA3E0FDA3E0FEA3E0FFA3E0F8A3E0F9F3
:101E7900A3E0FAA3E0FBC31202D4502A1236D19090
:101E8900012AE0FCA3E0FDA3E0FEA3E0FFE4FAF9E8
:101E9900F8EF2401FFEA3EFEE93DFDE83CFC900134
:061EA9002A12036580B659
:011EAF002210
:102E550060480194FF36E6FF314BFF1EB0FF1C941E
:102E6500FF2FFAFF3648FF3648FF36B6FF2735FFF6
:102E75001FB6FF3648FF3648FF243AFF243AFF24A1
:102E85003AFF20ACFF20ACFF20ACFF3088FF29853E
:0C2E9500FF2985FF1B7EFF31C1FF227F5B
:102DF000E41200969000011200A89000021203A2B3
:102E000000000000900006E4F5F012018A90000B2B
:102E1000E41200A8900008E41200A89000097401D0
:102E20001200A890000A74011200A890001012036A
:102E3000A200000000900014E4F5F012018A900056
:0C2E40000C1203A200000000E4FEFF22C0
:0E351F009000E9E0FCA3E0FDA3E0FEA3E0FFC6
:10352D00EF2407FFE43EFEE43DFDE43CFCE47B08B4
:07353D00FAF9F812304422F4
:0435C1007F017E0008
:1035C500AD077F01122EA6E4FDFF122EA67D01E4B4
:0435D500FF022EA61D
:0D08DE00900105E0FBA3E0FAA3E0F97D0125
:0E08EB00900126EBF0A3EAF0A3E9F0A3EDF0F4
:1008F900E490012CF0A3F0ED704B7F01FE1235C599
:10090900E490012AF0A3F0E4FDFF122EA67D01E494
:10091900FF122EA690012BE004F0700690012AE048
:1009290004F0C390012BE0940590012AE0648094BF
:100939008040D4900126E0FBA3E0FAA3E0F9E41299
:100949000096020C25900126E0FBA3E0FAA3E0F94A
:1009590012002EFF900129E0FE6F601DEEB407041E
:10096900EFB40609EEB40E11EF640D600C90012C82
:10097900E4F0A37405F0020C25EE6F7011EEB406D5
:1009890003020A9B900129E0B40D03020B97900121
:1009990026E0FBA3E0FAA3E0F912002EFF9001295B
:1009A900E06F7003020C25EFB410004003020C0540
:1009B9009009C0F82828730209F00209F30209F620
:1009C900020A28020A58020A6B020A9B020AAE02AC
:1009D9000ADE020B0E020B24020B54020B67020BF8
:1009E90097020BA9020BD7020AE5020AFB9001291B
:1009F900E0C3940940131235C1900126E0FBA3E03E
:100A0900FAA3E0F97409020C1FE4FFFE1235C59040
:100A19000126E0FBA3E0FAA3E0F97403020C1F909E
:100A29000129E0B40416E4FFFE1235C5900126E061
:100A3900FBA3E0FAA3E0F97404020C1F1235C1907C
:100A49000126E0FBA3E0FAA3E0F97405020C1F12EA
:100A590035C1900126E0FBA3E0FAA3E0F974050291
:100A69000C1F900129E0B40616E4FFFE1235C5906B
:100A79000126E0FBA3E0FAA3E0F97406020C1F12B9
:100A890035C1900126E0FBA3E0FAA3E0F97408025E
:100A99000C1F1235C1900126E0FBA3E0FAA3E0F98F
:100AA9007407020C1F900129E0B40416E4FFFE123A
:100AB90035C5900126E0FBA3E0FAA3E0F97404022E
:100AC9000C1F1235C1900126E0FBA3E0FAA3E0F95F
:100AD9007408020C1F900129E0B40116E4FFFE120C
:100AE90035C5900126E0FBA3E0FAA3E0F974010201
:100AF9000C1F1235C1900126E0FBA3E0FAA3E0F92F
:100B09007402020C1FE4FFFE1235C5900126E0FBBA
:100B1900A3E0FAA3E0F9740A020C1F900129E0B4DA
:100B29000B16E4FFFE1235C5900126E0FBA3E0FA9F
:100B3900A3E0F9740B020C1F1235C1900126E0FBEA
:100B4900A3E0FAA3E0F9740C020C1F1235C190015D
:100B590026E0FBA3E0FAA3E0F9740C020C1F900154
:100B690029E0B40D16E4FFFE1235C5900126E0FB1D
:100B7900A3E0FAA3E0F9740D020C1F1235C190012C
:100B890026E0FBA3E0FAA3E0F9740F020C1F12356B
:100B9900C1900126E0FBA3E0FAA3E0F9740E807688
:100BA900900129E0B40B15E4FFFE1235C59001262A
:100BB900E0FBA3E0FAA3E0F9740B805A1235C19067
:100BC9000126E0FBA3E0FAA3E0F9740F8048900145
:100BD90029E0B40115E4FFFE1235C5900126E0FBBA
:100BE900A3E0FAA3E0F97401802C1235C190012623
:100BF900E0FBA3E0FAA3E0F97402801A90012CE467
:100C0900F0A37405F0900129E0FF900126E0FBA311
:100C1900E0FAA3E0F9EF12009602099790012CE09F
:040C2900FEA3E0FF47
:010C2D0022A4
:1018670090012612036590012AEBF0A3EAF0A3E9A1
:01187700F080
:10187800900135E4F0A3F0A3F090012DE0FBA3E084
:10188800FAA3E0F9EA494B605C90012AE0FBA3E087
:10189800FAA3E0F9120108FF90012DE0FBA3E0FA9A
:1018A800A3E0F9E5F08FF012016B90012DE0FBA3A6
:1018B800E0FAA3E02402F9E43AFAC003C002C00146
:1018C80090012AE0FBA3E0FAA3E0F9120108D00195
:1018D800D002D00329F9EA35F0FA900135EBF0A3EC
:1018E800EAF0A3E9F090012AE0FBA3E0FAA3E024E0
:1018F80002F9E43AFAC002C00190012AA3E0FAA36F
:10190800E0F9120108D001D00229F9EA35F0FA907D
:101918000132EBF0A3EAF0A3E9F0900126E0FCA382
:10192800E0FDA3E0FEA3E0FFEC4D4E4F7003021A6A
:1019380047900132E0FBA374FFF5F01200DCA9F038
:10194800FA12002E900138F0E4A3F0A3F0A3F0906F
:101958000126E0FCA3E0FDA3E0FEA3E0FFEC4D4E72
:101968004F7003021A1AC390013BE0940890013AA1
:10197800E0648094804003021A1AEF24FFFFEE34DB
:10198800FFFEED34FFFDEC34FFFC900126120365E9
:10199800900130E07002A3E0601B900126E0FCA3F8
:1019A800E0FDA3E0FEA3E0FFEC4D4E4F70077D0184
:1019B8007F01122EA6900138E05401FD7F02122EFD
:1019C800A6900138E0C313F0E4FDFF122EA69001A3
:1019D80035E0FBA3E0FAA3E0F9EA494B601C1236B4
:1019E80008900139E0FE90013BE0FDEFA805088072
:1019F80002C333D8FC4E900139F07D01E4FF122E6A
:101A0800A690013BE004F0700690013AE004F00271
:101A18001957900135E0FBA3E0FAA3E0F9EA494B36
:101A28007003021922900139E0FF900135A374FF79
:0F1A3800F5F01200DCA9F0FAEF12009602192265
:011A4700227C
:0E142D00900105EBF0A3EAF0A3E9F0A3EDF0C7
:10143B00E490011FF0A3F0A3F0A3F0A3F090011927
:10144B00E06D7E0060047F0180027F00900124EE3E
:10145B00F0A3EFF0900109E0FCA3E0FDA3E0FEA3F5
:10146B00E0FFEC4D4E4F702E90011AE0FCA3E0FD17
:10147B00A3E0FEA3E0FFEC4D4E4F700302164212A9
:10148B0008DE90011AE0FCA3E0FDA3E0FEA3E0FF61
:10149B00121DA3021642900105E0FBA3E0FAA3E0A4
:1014AB00F9A3E0FD1208EB900109E0FCA3E0FDA31A
:1014BB00E0FEA3E0FF900110E0F9A3E0FAA3E090B7
:1014CB00012DC9F0A3EAF0A3E9F0900124E0FBA3FE
:1014DB00E0900130CBF0A3EBF090010DE0FBA3E02B
:1014EB00FAA3E0F9121867900113E0FBA3E0FAA34B
:1014FB00E0F9EA494B6048900110E0F9A3E0FAA348
:10150B00E0900129C9F0A3EAF0A3E9F0900116E0FD
:10151B00F9A3E0FAA3E090012CC9F0A3EAF0A3E948
:10152B00F0900113A3E0FAA3E0F91225CEEF4E7071
:10153B00047F0180027F00900121E4F0A3EFF09083
:10154B000124E07002A3E07003021624900105E071
:10155B00FBA3E0FAA3E0F97401120074900121E0FF
:10156B007002A3E0607890011AE0FCA3E0FDA3E019
:10157B00FEA3E0FFEC4D4E4F6064A3E0FF90012310
:10158B00E0C39F5059900105E0FBA3E0FAA3E0F9FB
:10159B007D061208EB900105E0FBA3E0FAA3E0F94E
:1015AB007D041208EB90011AE0F8A3E0F9A3E0FA2E
:1015BB00A3E0FBC00090011AE0FCA3E0FDA3E0FE5A
:1015CB00A3E0FF78021202EAD000EB2FFFEA3EFE07
:1015DB00E93DFDE83CFC90011A1203658013900174
:1015EB0005E0FBA3E0FAA3E0F9900119E0FD120876
:1015FB00EB90011AE0FCA3E0FDA3E0FEA3E0FFECFF
:10160B004D4E4F60141208DE90011AE0FCA3E0FD72
:10161B00A3E0FEA3E0FF121DA3900121E07002A343
:10162B00E0601490011EE0FF900123E0FE04F0EE59
:10163B00C39F50030214A1900121E07002A3E0604C
:10164B002390011EE0FF6013900123E0D39F400B1A
:10165B0090011FE4F0A37403F0800990011FE4F0E4
:0C166B00A37402F090011FE0FEA3E0FF5A
:011677002250
:10235D009000EAEBF0A3EAF0A3E9F0A31203659075
:10236D0000F3E0FBA3E0FAA3E0F99000F1E0FCA399
:10237D00E0FD122F579000F9E0FBA3E0FAA3E0F97E
:10238D00EA494B600B9000F1E0FCA3E0FD122F57E2
:10239D009000EDE0FCA3E0FDA3E0FEA3E0FF9001C3
:1023AD00091203659000F3E0F9A3E0FAA3E09001B0
:1023BD000DC9F0A3EAF0A3E9F09000F6E0F9A3E06F
:1023CD00FAA3E0900110C9F0A3EAF0A3E9F09000A0
:1023DD00F9E0F9A3E0FAA3E0900113C9F0A3EAF044
:1023ED00A3E9F09000FCE0F9A3E0FAA3E090011658
:1023FD00C9F0A3EAF0A3E9F09000FFE0900119F015
:10240D00900100E0FCA3E0FDA3E0FEA3E0FF90013E
:10241D001A120365900104E090011EF09000EAE0AD
:0D242D00FBA3E0FAA3E0F97D0412142D22B8
:10364800900006E475F00412018A90000612013316
:04365800FFAEF022AF
:0936E6007401120096E4FEFF22BB
:10314B009000E6EBF0A3EAF0A3E9F09000E6E0FBD9
:10315B00A3E0FAA3E02482F9E43AFAC002C001909A
:10316B0000E6A3E0FAA3E0F9900014120133FDACE2
:0C317B00F0D001D002122F57E4FEFF221A
:0B1EB0009000E6EBF0A3EAF0A3E9F0DD
:101EBB007B017A0079E91236DD9000E9E0FFE4FC62
:101ECB00FDFE12352DD3EF9421EE64809480400CEF
:101EDB009000EAE4F0A37406F0021F969000E9E08C
:101EEB00FFE4FCFDFE12352DAC06AD079000E6E0DD
:101EFB00FBA3E0FAA3E02416F9E43AFA122F579069
:101F0B0000E6E0FBA3E0FAA3E02408F9E43AFAC008
:101F1B0003C002C001A3E0FFE4FCFDFE9001091227
:101F2B0003659000E6E0FBA3E0FAA3E02416F9E4D6
:101F3B003AFA90010DEBF0A3EAF0A3E9F0A3E4F079
:101F4B00A3F0A3F0F9A3C9F0A3F0A3E9F0A3E4F085
:101F5B00A3F0A3F09000E6A3E0FAA3E0F990000948
:101F6B00120047900119F090000C12031190011A06
:101F7B00120365E490011EF0D001D002D0037D0B5B
:101F8B0012142D9000EAEEF0A3EFF09000EAE0FEC1
:101F9B00A3E0FF4E60149000E6E0FBA3E0FAA3E0A1
:0A1FAB00F9900006EE8FF012018A93
:011FB5002209
:0B1B7E009000E6EBF0A3EAF0A3E9F012
:101B89002416F9E43AFA7D027C00122F579000E6F8
:101B9900E0FBA3E0FAA3E02416F9E43AFA12250CD3
:101BA9009000E912036512351FD3EF9421EE64808A
:101BB9009480400C9000EDE4F0A37406F0021C74CC
:101BC90012351FAC06AD079000E6E0FBA3E0FAA3CF
:101BD900E02416F9E43AFA122F579000E6E0FBA345
:101BE900E0FAA3E02408F9E43AFAC003C002C0010C
:101BF900A3E0FCA3E0FDA3E0FEA3E0FF900109122E
:101C090003659000E6E0FBA3E0FAA3E02416F9E4FB
:101C19003AFA90010DEBF0A3EAF0A3E9F0A3E4F09E
:101C2900A3F0A3F0F9A3C9F0A3F0A3E9F0A3E4F0AA
:101C3900A3F0A3F09000E6A3E0FAA3E0F99000096D
:101C4900120047900119F090000C12031190011A2B
:101C5900120365E490011EF0D001D002D0037D0B80
:101C690012142D9000EDEEF0A3EFF09000EDE0FEE0
:101C7900A3E0FF4E60149000E6E0FBA3E0FAA3E0C6
:0A1C8900F9900006EE8FF012018AB8
:011C9300222E
:0B1C94009000E6EBF0A3EAF0A3E9F0FB
:101C9F009000E6E0FBA3E0FAA3E02416F9E43AFA99
:101CAF00C002C0019000E6A3E0FAA3E0F99000148F
:101CBF00120133FDACF0D001D002122F579000E685
:101CCF00E0FBA3E0FAA3E02408F9E43AFAC003C06A
:101CDF0002C0019000E6A3E0FAA3E0F99000101211
:101CEF000311900109120365E92416F9E43AFA90F9
:101CFF00010DEBF0A3EAF0A3E9F09000E6E0FBA3FF
:101D0F00E0FAA3E0245EF9E43AFA900110EBF0A3B5
:101D1F00EAF0A3E9F09000E6A3E0FAA3E0243AF991
:101D2F00E43AFA900113EBF0A3EAF0A3E9F0900084
:101D3F00E6A3E0FAA3E02482F9E43AFA900116EB65
:101D4F00F0A3EAF0A3E9F09000E6A3E0FAA3E0F92C
:101D5F0090000A120047900119F090000C12031125
:101D6F0090011A12036590000B12004790011EF0AC
:101D7F00D001D002D0037D0412142DEF4E601490C9
:101D8F0000E6E0FBA3E0FAA3E0F9900006EE8FF087
:031D9F0012018AA4
:011DA200221E
:102FFA009000E6EBF0A3EAF0A3E9F09000E6E0FB2C
:10300A00A3E0FAA3E02416F9E43AFA7D047C00125C
:10301A002F579000E6E0FBA3E0FAA3E02416F9E4B8
:10302A003AFA12250C9000E6E0FBA3E0FAA3E0F9D5
:0A303A0090000C120341E4FEFF2297
:0E36B600E9240BF9E43AFA1236DDE4FEFF22B5
:0B2735009000E6EBF0A3EAF0A3E9F04F
:10274000E4A3F0A3F09000E6E0FBA3E0FAA3E0240A
:1027500016F9E43AFA7D047C00122F579000E6E067
:10276000FBA3E0FAA3E02416F9E43AFA12250C9050
:1027700000E6E0FBA3E0FAA3E0F9900010120341A9
:1027800090001012031112352D9000E6E0FBA3E03B
:10279000FAA3E0F9900014EE8FF012018A90001471
:1027A000120133D39421E5F064809480401E9000A0
:1027B000E9E4F0A37406F09000E6E0FBA3E0FAA3DE
:1027C000E0F9900006E475F00612018A9000E9E055
:0427D000FEA3E0FF85
:0127D40022E2
:0B1FB6009000E6EBF0A3EAF0A3E9F0D6
:101FC1009000E6E0FBA3E0FAA3E02408F9E43AFA82
:101FD100C003C002C0019000E6A3E0FAA3E0F990BB
:101FE1000010120311C004C005C006C00790001400
:101FF100120133FF9000F1E5F0F0A3EFF0E92416B0
:10200100F9E43AFAA3EBF0A3EAF0A3E9F09000E6D1
:10201100A3E0FAA3E0245EF9E43AFA9000F6EBF0CB
:10202100A3EAF0A3E9F09000E6A3E0FAA3E0243AE2
:10203100F9E43AFA9000F9EBF0A3EAF0A3E9F090A1
:1020410000E6A3E0FAA3E02482F9E43AFA9000FC66
:10205100EBF0A3EAF0A3E9F09000E6A3E0FAA3E035
:10206100F990000A1200479000FFF090000C120353
:102071001190010012036590000B120047900104BA
:10208100F0D007D006D005D004D001D002D0031281
:10209100235DEF4E60149000E6E0FBA3E0FAA3E0BD
:0A20A100F9900006EE8FF012018A9C
:0120AB002212
:0B243A009000E6EBF0A3EAF0A3E9F04D
:10244500900001120047B40E149000E6E0FBA3E0F3
:10245500FAA3E0F990000A120047FF80027F04907A
:1024650000E9EFF09000E6E0FBA3E0FAA3E0240822
:10247500F9E43AFAC003C002C0019000E6A3E0FA0D
:10248500A3E0F9900010120311C004C005C006C0F6
:1024950007900014120133FF9000F1E5F0F0A3EF6F
:1024A500F0E92416F9E43AFAA3EBF0A3EAF0A3E97C
:1024B500F0A3E4F0A3F0A3F0F9A3C9F0A3F0A3E916
:1024C500F0A3E4F0A3F0A3F09000E9E09000FFF0A2
:1024D500A312037100000000E4900104F0D007D0BE
:1024E50006D005D004D001D002D00312235DEF4EF3
:1024F50060149000E6E0FBA3E0FAA3E0F990000683
:06250500EE8FF012018AC6
:01250B0022AD
:0B20AC009000E6EBF0A3EAF0A3E9F0DF
:1020B700900001120047B411149000E6E0FBA3E082
:1020C700FAA3E0F990000A120047FF80027F04900C
:1020D70000E9EFF09000E6E0FBA3E0FAA3E02408B4
:1020E700F9E43AFAC003C002C0019000E6A3E0FA9F
:1020F700A3E0F9900010120311C004C005C006C088
:1021070007900014120133FF9000F1E5F0F0A3EF00
:10211700F0E92416F9E43AFAA3EBF0A3EAF0A3E90D
:10212700F09000E6A3E0FAA3E0245EF9E43AFA901F
:1021370000F6EBF0A3EAF0A3E9F09000E6A3E0FADB
:10214700A3E0243AF9E43AFA9000F9EBF0A3EAF0B5
:10215700A3E9F0A3E4F0A3F0A3F09000E9E0900076
:10216700FFF0A312037100000000E4900104F0D017
:1021770007D006D005D004D001D002D00312235DCA
:10218700EF4E60149000E6E0FBA3E0FAA3E0F990BD
:082197000006EE8FF012018A30
:01219F00221D
:0B3088009000E6EBF0A3EAF0A3E9F0F3
:103093007B017A0079E91236DD9000E6E0FBA3E0DC
:1030A300FAA3E02408F9E43AFAA3E0FD1208EBEFEF
:1030B3004E60149000E6E0FBA3E0FAA3E0F9900071
:0730C30006EE8FF012018AF6
:0130CA0022E3
:0B2985009000E6EBF0A3EAF0A3E9F0FD
:10299000E4A3F0A3F07B017A0079EB1236DD90001E
:1029A000EBE0600F6401600B9000E9E4F0A37405B4
:1029B000F080349000E6E0FBA3E0FAA3E0F9900099
:1029C00001120047B4130F9000EBE0900009700271
:1029D000800D740D800E9000EBE090000A700304EF
:1029E000800274061200A89000E9E0FEA3E0FF4E0A
:1029F00060149000E6E0FBA3E0FAA3E0F990000683
:062A0000EE8FF012018AC6
:012A060022AD
:0B31C1009000E6EBF0A3EAF0A3E9F0B9
:1031CC007B017A0079E91236DD9000E9E070F1902C
:1031DC0000E6E0FBA3E0FAA3E0F9900006E4F5F0CA
:0C31EC0012018A900006120133FFAEF0C1
:0131F80022B4
:0B227F009000E6EBF0A3EAF0A3E9F00A
:10228A009000E6E0FBA3E0FAA3E02416F9E43AFAA8
:10229A007D017C00122F579000E6E0FBA3E0FAA331
:1022AA00E0F99000181200479000E9F0E92416F9C5
:1022BA00E43AFA7D017C00122F579000E6E0FBA376
:1022CA00E0FAA3E0F99000181200479000EAF0E95A
:1022DA002416F9E43AFA7D047C00122F579000E69E
:1022EA00E0FBA3E0FAA3E02416F9E43AFA12250C7B
:1022FA009000EB1203659000E6E0FBA3E0FAA3E08E
:10230A00F9900008120047FF9000E9E0FD6F600AAB
:10231A00E92408F9E43AFA1208EB9000EBE0FCA38E
:10232A00E0FDA3E0FEA3E0FF121DA39000E6E0FBA0
:10233A00A3E0FAA3E0F9900008120047FF9000EA30
:10234A00E0FD6F600AE92408F9E43AFA1208EBE4BE
:02235A00FEFF84
:01235C00225E
:102B06009000E3EBF0A3EAF0A3E9F09000E3E0FB2A
:102B1600A3E0FAA3E0F9122DF09000E3E0FBA3E0B6
:102B2600FAA3E0F9900006EE8FF012018A900006F3
:102B360012013345F070299000E3E0FBA3E0FAA30D
:102B4600E02408F9E43AFAE4FD1208EB9000E3E029
:102B5600FBA3E0FAA3E0F9900006EE8FF012018ADB
:102B66009000E3E0FBA3E0FAA3E0F990000612016F
:052B760033FFAEF02268
:101678009000E3EBF0A3EAF0A3E9F09000E3E0FBCD
:10168800A3E0FAA3E0F990000612013345F06003E5
:1016980002185212002E60030218529000E3A3A30E
:1016A800E02401F9E43AFA1236DD9000E3E0FBA306
:1016B800E0FAA3E0F9900002120311E4FAF9F8EF56
:1016C8002401FFEA3EFEE93DFDE83CFC9000E3A36F
:1016D800E0FAA3E0F9900002120341900001120021
:1016E80047B4180040030218449016F8F8282873E5
:1016F8000217400217510217620217730217840279
:1017080018440218440217950217A60217B70217C1
:10171800C80217CA0217CC0217CE0217D00217E068
:101728000217E20217E40217F4021804021804026E
:1017380018140218240218349000E3E0FBA3E0FA1E
:10174800A3E0F91236E60218529000E3E0FBA3E0AA
:10175800FAA3E0F912314B0218529000E3E0FBA320
:10176800E0FAA3E0F9121EB00218529000E3E0FB81
:10177800A3E0FAA3E0F9121C940218529000E3E0E7
:10178800FBA3E0FAA3E0F9122FFA0218529000E343
:10179800E0FBA3E0FAA3E0F91236B6021852900073
:1017A800E3E0FBA3E0FAA3E0F91227350218529010
:1017B80000E3E0FBA3E0FAA3E0F9121FB602185217
:1017C800807A8078800280009000E3E0FBA3E0FA52
:1017D800A3E0F912243A8072800280009000E3E0CE
:1017E800FBA3E0FAA3E0F91220AC805E9000E3E0EE
:1017F800FBA3E0FAA3E0F9123088804E9000E3E002
:10180800FBA3E0FAA3E0F9122985803E9000E3E00B
:10181800FBA3E0FAA3E0F9121B7E802E9000E3E020
:10182800FBA3E0FAA3E0F91231C1801E9000E3E0C7
:10183800FBA3E0FAA3E0F912227F800E9000E3E018
:10184800FBA3E0FAA3E0F91236489000E3E0FBA31B
:0F185800E0FAA3E0F9900006120133FFAEF02290
:1032C8007B017A00793D122B06900043E07002A33F
:1032D800E0701190003DE0700B7B017A00793D129F
:0C32E800167880E5900043E0FEA3E0FFB4
:0132F40022B7
:0B250C009000EFEBF0A3EAF0A3E9F071
:10251700A312037100000000E49000F6F0A3F0900E
:1025270000EFE0FBA3E0FAA3E0F9120108FFC39074
:1025370000F7E09FE5F06480F89000F6E06480988B
:1025470050769000F2E0FCA3E0FDA3E0FEA3E0FFDD
:1025570078081202FE9000F21203659000F2E0F88C
:10256700A3E0F9A3E0FAA3E0FBC001C002C0039017
:1025770000EFE0FBA3E0FAA3E02402F9E43AFA90C3
:1025870000F6E0FEA3E029F9EA3EFA12002EFFD09A
:1025970003D002D001EB4FFFEAFEE9FDE8FC900013
:1025A700F21203659000F7E004F06003022526901D
:1025B70000F6E004F00225269000F2E0FCA3E0FD1F
:0625C700A3E0FEA3E0FF0B
:0125CD0022EB
:082F5700900105ECF0A3EDF080
:102F5F00EC8DF012016BE92402F9E43AFA900107C3
:102F6F00EBF0A3EAF0A3E9F0900105E07002A3E013
:102F7F006028900107E0FBA3E0FAA3E0F91236DD29
:102F8F00900106E024FFF0900105E034FFF090017E
:0A2F9F0008E475F0011200DC80CE9A
:012FA9002205
:0B25CE00900126EBF0A3EAF0A3E9F077
:1025D90090012FE4F0A304F0120108FDACF0900182
:1025E9002FE0FEA3E04E7003022684ED1DAE0470B9
:1025F900011C4E7003022684900126E0FBA3E0FA39
:10260900A3E02402F9E43AFAE92DF9EA3CFA1200C6
:102619002E900131F0900129E0FBA3E0FAA3E02418
:1026290002F9E43AFAE92DF9EA3CFA12002E90018E
:1026390032F090012CE0FBA3E0FAA3E0F9EA494B60
:10264900602090012CA3A3E02402F9E43AFAE92DD1
:10265900F9EA3CFA12002EFF900131E05FF0A3E0A5
:102669005FF0900132E0FF900131E06F70030225C5
:10267900E7E490012FF0A3F00225E790012FE0FE97
:03268900A3E0FFCC
:01268C00222B
:102A8700E4FFFE53D9BF75E10175E24075A4C37534
:102A9700A587F5A775F1F375F2FF75F4FF75D40CEB
:102AA700F5D5F5A675F3FFF5D675B1670FBF00012C
:102AB7000EEFF44E70F6E5B130E7FB75A90175B27C
:102AC700037598F0E4F587758E0CF58AF58C758B90
:102AD700B8758DB8758920758840F5CAF5CBF5CCE2
:102AE700F5CDF5C8F592F593F594759540F59143B5
:0E2AF700FF80F5EFD28EC298C299D2ACD2AF5A
:012B050022AD
:032CC80090000079
:102CCB001231F9900000E0FF122C5CEF60028032B1
:102CDB00900001E0FF122C5CEF60028025E4900075
:102CEB0006F0900005E0FFA3E0C39F502D9000027B
:102CFB00E0FBA3E0FAA3E0F912002EFF122C5CEF2D
:102D0B006006122B7B7F0122900003E475F0011209
:102D1B0000DC900006E004F080C8122B7B900000D2
:072D2B00E0FF1232987F0067
:012D3200227E
:05329800900007EFF0BB
:10329D00A37464F0900008E0FF14F0EF601A12328E
:1032AD0007900007E004FF122C5CEF70E77F01121E
:0A32BD002D92122B7B7F00227F016F
:0132C70022E4
:0328FF0090000046
:102902001231F9900000E0FF122C5CEF6002801C93
:10291200900001E0FF122C5CEF6002800F12320780
:10292200900000E004FF122C5CEF6006122B7B7F0C
:102932000122E4900006F0900005E014FFA3E0C33A
:102942009F5026E4FF122D92900002E0FBA3E0FAD2
:10295200A3E0F9EF120096900003E475F001120073
:10296200DC900006E004F080CE7F01122D929000F0
:1029720002E0FBA3E0FAA3E0F9EF120096122B7B30
:022982007F00D4
:012984002230
:1035690090021C740BF0A37454F090021C74FFF5C4
:10357900F01200F245F060082091EFD2917F00220D
:033589007F01229D
:030026007F002236
:0E31F900EFF0A3EDF0A3EBF0A3EAF0A3E9F0F2
:10320700D290D291000000000000000000000000F2
:1032170000000000C2900000000000000000000055
:09322700000000000000C2912229
:022C5C00AE07C1
:102C5E007D80E4FCED5E6004D2908002C290EDC3F4
:102C6E0013FD001235690000000000000000000096
:102C7E00000000000000C2910000000000000000F3
:102C8E0000000000000000000CECB408C7D2900059
:102C9E00D2910000000000000000000000000000C3
:102CAE000000A290E433C29100000000000000007A
:092CBE000000000000000000FF0E
:012CC70022EA
:022D9200AE078A
:102D9400E4FD7C80FB123569309003ED4CFDECC3FF
:102DA40013FCC291000000000000000000000000BD
:102DB400000000000BEBB408DCEE6004D29080024B
:102DC400C29000D29100000000000000000000004A
:102DD4000000000000C291D290000000000000003A
:0B2DE400000000000000000000AF0530
:012DEF0022C1
:102B7B0090021C740BF0A37454F090021C74FFF5BC
:102B8B00F01200F245F0605A209026D2910000001E
:102B9B0000000000000000000000000000C29100D7
:102BAB00000000000000000000000000000000809A
:102BBB00C9C29000123569EF60037F01220000004B
:102BCB0000000000000000000000000000D2900098
:102BDB000000000000000000000000000000007F6B
:052BEB0000227F012221
:100C2E003078256258005541554255435544554537
:100C3E005546554755485549554A554B554C554DB2
:100C4E0055505551555255545555555A554E554F5B
:100C5E0000000000000000040404040000040A0A5E
:100C6E000A000000000A0A1F0A1F0A0A040F140EC7
:100C7E00051E04181902040813030C121408151289
:100C8E000D0C040800000000020408080804020805
:100C9E000402020204080004150E150400000404E8
:100CAE001F040400000000000C04080000001F00D8
:100CBE00000000000000000C0C00010204081000EF
:100CCE000E11131519110E040C040404040E0E114A
:100CDE00010204081F1F02040201110E02060A126D
:100CEE001F02021F101E0101110E0608101E111107
:100CFE001E1F0102040808080E11110E11110E0E0E
:100D0E0011110F01020C000C0C000C0C00000C0C4D
:100D1E00000C04080204081008040200001F001F43
:100D2E000000080402010204080E1101020400046E
:100D3E000E11010D15150E0E1111111F11111E118F
:100D4E00111E11111E0E11101010110E1C12111168
:100D5E0011121C1F10101E10101F1F10101E10102D
:100D6E00100E11101711110F1111111F1111110E5B
:100D7E0004040404040E0702020202120C111214DF
:100D8E00181412111010101010101F111B15151120
:100D9E001111111119151311110E11111111110E2D
:100DAE001E11111E1010100E11111115120D1E1103
:100DBE00111E1412110F10100E01011E1F04040437
:100DCE000404041111111111110E11111111110A36
:100DDE00041111111515150A11110A040A11111118
:100DEE0011110A0404041F01020408101F0E080842
:100DFE000808080E110A1F041F04040E0202020244
:100E0E00020E040A11000000000000000000001F86
:100E1E000804020000000000000E010F110F101058
:100E2E00161911111E00000E1010110E01010D13D6
:100E3E0011110F00000E111F100E0609081C0808D4
:100E4E0008000F11110F010E1010161911111104B7
:100E5E00000C0404040E0200060202120C10101202
:100E6E00141814120C04040404040E00001A1515B0
:100E7E0011110000161911111100000E1111110E91
:100E8E0000001E111E101000001D131E0101000097
:100E9E00161910101000000E100E011E08081C0866
:100EAE000809060000111111130D00001111110A8D
:100EBE00040000111115150A0000110A040A110090
:100ECE000011110F010E00001F0204081F0204047E
:100EDE0008040402040404040404040804040204C0
:100EEE0004080004021F0204000004081F08040086
:042EA10041021000DA
:1021A000E4FFEF25E02435F582E4340CF583E49375
:1021B000FE900141E06E60050FEFB415E5EFB41538
:1021C00000400302227E9021CDF828287302220CC1
:1021D00002220F02221202221502221802221B02E0
:1021E000221E02222402222B022232022239022241
:1021F0004002224702224E02225502225C02226342
:1022000002226A02227102227802227B02354402F3
:1022100034A302318702365C023670023683E4FF53
:10222000FE0233207F017E0002334B7F027E0002DC
:1022300033767F037E0002310D7F077E0002326518
:102240007F097E000233A17F0A7E000233CC7F0B20
:102250007E000230CB7F0F7E000233F77F107E00BE
:102260000234227F137E0002344D7F147E0002343C
:0E227000787F007E100211A00227D5122F00E9
:01227E00223D
:102F0000900185E024C160242404704A90014CE0C3
:102F1000FEA3E0FDAC06900151E09001DCF09001D1
:102F200049E0FF7B017A0179DC12323090000D74A8
:102F3000FFF0A3740CF0A3742EF09001DCE090007D
:102F400010F07B017A0079001205DE7B017A0079AE
:062F500000122FAAB2924C
:012F56002258
:1027D500C2AC1236C41236C41236C4C298C299D2DB
:1027E50013758E08E4F58A758CFFF58B758DD0759C
:1027F5008920F588759810F587D28E1236EF75E128
:102805000175E24075A6FC75F3FCE4F5D61236EFCA
:10281500C29212361EC298C299D2ACD2AFE4FF0F53
:1028250012361E7B017A007900122D33EF60F41207
:10283500361EC2921232C8900000EFF0C292E060DC
:10284500047F2080027F1B1236F7C2921236C41213
:1028550036C4C298C299C2ACC2AF7BFF7A3C79003C
:0E286500900211EBF0A3EAF0A3E9F00203C623
:04332000AD07AC0643
:10332400900185E024C5701E90014DE0900000F0EE
:10333400900149E0FF7B017A007900900015E4F0E8
:06334400A304F0122BF0BF
:01334A002260
:04334B00AD07AC0618
:10334F00900185E024C5701E90014DE0900000F0C3
:10335F00900149E0FF7B017A007900900015E4F0BD
:06336F00A304F0122BF094
:013375002235
:04337600AD07AC06ED
:10337A00900185E024C5701E90014DE0900000F098
:10338A00900149E0FF7B017A007900900015E4F092
:06339A00A304F0122BF069
:0133A000220A
:04310D00AB07AA065C
:10311100900185E024C5703190014AE0FCA3E0FDF7
:10312100A3E0FEA3E0FF900000120365900149E0D7
:10313100FFAC02AD037B017A007901900015E4F048
:09314100A37403F0122BF0B2920A
:01314A002262
:04326500AD07AC06FF
:10326900900185E024C5702690014CE0FFA3E09011
:103279000000CFF0A3EFF0900149E0FF7B017A0055
:0E3289007900900015E4F0A37402F0122BF00F
:013297002214
:0433A100AD07AC06C2
:1033A500900185E024C5701E90014DE0900000F06D
:1033B500900149E0FF7B017A007900900015E4F067
:0633C500A304F0122BF03E
:0133CB0022DF
:0433CC00AD07AC0697
:1033D000900185E024C5701E90014DE0900000F042
:1033E000900149E0FF7B017A007900900015E4F03C
:0633F000A304F0122BF013
:0133F60022B4
:0811A000900000EEF0A3EFF057
:1011A800E490000CF0900149E0900002F0900210E9
:1011B800E075F011A424DDF9740135F0A801FC7D77
:1011C800017B017A01798A120498900210E004F0F8
:1011D800E06403600302142CE4900210F07B017AAF
:1011E8000179DD123633EF75F008A490000AF07B20
:1011F800017A0179DD1235D9EF600790000CE044DF
:1012080001F07B017A0179EE1235D9EF6007900081
:101218000CE04402F07B017A0179FF1235D9EF60C6
:101228000790000CE04404F090000CE0B408004083
:10123800030212E4901243F828287302125B021288
:101248007C0212880212950212970212A80212C892
:101258000212D5E4900003F0A3F0900002E0FF7BB7
:10126800017A007903900015E4F0A304F07D147C62
:1012780000022BF090000B7409F0E490000D801A26
:1012880090000B7409F090000D7401800D8020907F
:10129800000B7409F090000D7402F0A304F0803C78
:1012A80078EE7C017D017B017A0179FF1204989028
:1012B800000B7411F0E490000DF0A37402F0801C90
:1012C80090000B7411F090000D7401800A90000BCF
:1012D8007419F0E490000DF0A37403F0900002E09C
:1012E800FF7B017A00790A900015E4F0A304F07DF1
:1012F800117C00122BF0900002E0FF7B017A00794C
:101308000B900015E4F0A304F07D127C00122BF082
:10131800C297900002E0FF7D081232FD7D087F1021
:101328001232FD7D08E4FF1232FDE4900003F0A3C1
:10133800F07B017A0179DD123633C3900004E09F17
:10134800900003E09E50177D08E4FF1232FD9000E4
:1013580004E004F070DB900003E004F080D3900018
:101368000DE0FF900003E4F0A3EFF090000EE0FF23
:10137800C3900004E09F900003E09400400302142F
:101388002AE4900009F0900003E0FEA3E0FF7C004F
:101398007D111200CA74DD2FF974013EFAA374019D
:1013A800F0A3EAF0A3E9F0900005E0FBA3E0FAA3BC
:1013B800E0F912002E604B900009E0FF900005A3B1
:1013C800E475F0011200F2A9F0FA12002E75F00788
:1013D800A42FF582E435F0F583E582247EF582E5D5
:1013E80083340BF583E493900008F0E0FE25E0F0E9
:1013F800EFB40702E4F0900008E0FF7D081232FD28
:1014080080A5900009E004F0E0C39408500302139B
:101418008E900004E004F07006900003E004F002EF
:041428001373D297D1
:01142C00229D
:1035D90012002E6010642060037F0122740129F912
:0835E900E43AFA80EB7F0022B6
:0433F700AD07AC066C
:1033FB00900185E024C5701E90014DE0900000F017
:10340B00900149E0FF7B017A007900900015E4F010
:06341B00A304F0122BF0E7
:013421002288
:0430CB00AD07AC069B
:1030CF00900185E024C5703590014CE0FFA3E0909E
:1030DF000000CFF0A3EFF0900150E0FFA3E09000CD
:1030EF0002CFF0A3EFF0900149E0FF7B017A007966
:0D30FF0000900015E4F0A37404F0122BF013
:01310C0022A0
:04342200AD07AC0640
:10342600900185E024C5701E90014DE0900000F0EB
:10343600900149E0FF7B017A007900900015E4F0E5
:06344600A304F0122BF0BC
:01344C00225D
:04344D00AD07AC0615
:10345100900185E024C5701E90014DE0900000F0C0
:10346100900149E0FF7B017A007900900015E4F0BA
:06347100A304F0122BF091
:013477002232
:04347800AD07AC06EA
:10347C00900185E024C5701E90014DE0900000F095
:10348C00900149E0FF7B017A007900900015E4F08F
:06349C00A304F0122BF066
:0134A2002207
:1034A300900185E0B43B23900149E0FFC3940A50A7
:1034B30019EF75F00BA4240BFD7B017A01798A9037
:0B34C3000005740AF07FA0122CC82244
:10318700900185E0643F7031900149E0FFC3940AE4
:103197005027EF75F00BA4240BFD7B017A01798A88
:1031A700900005740AF07FA01228FFE4900194F0C4
:0A31B7007B017A01798A122FAA2207
:10365C00900185E024C1700B7F827E007D007C0090
:04366C0012268D2273
:10367000900185E0B43F0B7F007E007D007C00124E
:03368000268D2272
:10368300900185E0B43F0B7F0C7E007D007C00122F
:03369300268D225F
:10354400900185E024C1601024047018900149E0C2
:10355400FF90013FF00236A790013FE0FFE4FCFD3D
:05356400FE12268D227D
:0300000002287360
:0C287300787FE4F6D8FD75815E0228BA7B
:10002E00BB010689828A83E0225002E722BBFE02D0
:09003E00E32289828A83E4932203
:10004700BB010CE58229F582E5833AF583E022506E
:1000570006E92582F8E622BBFE06E92582F8E222B8
:0D006700E58229F582E5833AF583E49322D2
:10007400BB010989828A83F8E028F022500327F71C
:1000840022BBFE05F8E328F3228A838982F8E493ED
:02009400282220
:10009600BB010689828A83F0225002F722BBFE0149
:0200A600F32243
:1000A800F8BB010DE58229F582E5833AF583E8F08E
:1000B800225006E92582C8F622BBFE05E92582C83A
:0200C800F22222
:1000CA00EF8DF0A4A8F0CF8CF0A428CE8DF0A42E4A
:0200DA00FE2204
:1000DC00C5F0F8A3E028F0C5F0F8E58215827002AF
:0600EC001583E038F0224C
:1000F200A3F8E0C5F025F0F0E582158270021583C1
:06010200E0C838F0E8221D
:10010800BB010A89828A83E0F5F0A3E022500687C2
:10011800F009E71922BBFE07E3F5F009E319228984
:0B012800828A83E493F5F074019322B7
:10013300BB0110E58229F582E5833AF583E0F5F00A
:10014300A3E0225009E92582F886F008E622BBFEE7
:100153000AE92582F8E2F5F008E222E5832AF5832D
:08016300E993F5F0A3E99322F2
:10016B00BB010A89828A83F0E5F0A3F0225006F7DF
:0F017B0009A7F01922BBFE06F3E5F009F31922DC
:10018A00F8BB0111E58229F582E5833AF583E8F0A7
:10019A00E5F0A3F0225009E92582C8F608A6F02264
:0D01AA00BBFE09E92582C8F2E5F008F2224B
:1001B700E88FF0A4CC8BF0A42CFCE98EF0A42CFCE7
:1001C7008AF0EDA42CFCEA8EF0A4CDA8F08BF0A465
:1001D7002DCC3825F0FDE98FF0A42CCD35F0FCEBC4
:1001E7008EF0A4FEA9F0EB8FF0A4CFC5F02ECD3989
:0F01F700FEE43CFCEAA42DCE35F0FDE43CFC22F6
:1002060075F008758200EF2FFFEE33FECD33CDCCAF
:1002160033CCC58233C5829BED9AEC99E582984032
:100226000CF582EE9BFEED9AFDEC99FC0FD5F0D60F
:10023600E4CEFBE4CDFAE4CCF9A88222B800C1B939
:100246000059BA002DEC8BF084CFCECDFCE5F0CB77
:10025600F97818EF2FFFEE33FEED33FDEC33FCEBB0
:1002660033FB10D703994004EB99FB0FD8E5E4F96B
:10027600FA227818EF2FFFEE33FEED33FDEC33FC58
:10028600C933C910D7059BE99A4007EC9BFCE99A4C
:10029600F90FD8E0E4C9FAE4CCFB2275F010EF2F91
:1002A600FFEE33FEED33FDCC33CCC833C810D70791
:1002B6009BEC9AE899400AED9BFDEC9AFCE899F8CC
:0E02C6000FD5F0DAE4CDFBE4CCFAE4C8F9225F
:10304400C2D5E830E70FB2D5E4C39BFBE49AFAE4B7
:1030540099F9E498F8EC30E717B2D512307A1202F5
:1030640042E4C39BFBE49AFAE499F9E498F88003F8
:1030740012024230D50DE4C39FFFE49EFEE49DFDA1
:04308400E49CFC22AA
:1002D400EB9FF5F0EA9E42F0E99D42F0EC6480C8A1
:0602E40064809845F02241
:1002EA00E86010ECA2E713FCED13FDEE13FEEF132A
:0402FA00FFD8F02217
:1002FE00E8600FEFC333FFEE33FEED33FDEC33FC5E
:03030E00D8F12201
:10031100BB010DE58229F582E5833AF5830204C12B
:100321005007E92582F80204B5BBFE07E92582F8EA
:100331000204CDE58229F582E5833AF5830204D9E9
:10034100BB010DE58229F582E5833AF58302036558
:100351005007E92582F80204E9BBFE07E92582F886
:040361000204F5227B
:0C036500ECF0A3EDF0A3EEF0A3EFF0220B
:10037100A8828583F0D083D0821203881203881269
:100381000388120388E473E493A3C583C5F0C5838E
:10039100C8C582C8F0A3C583C5F0C583C8C582C8D6
:0103A1002239
:1003A200BB010DE58229F582E5833AF583020371EB
:1003B2005007E92582F8020501BBFE07E92582F80C
:0403C20002051A22F4
:0603C6008A838982E473C2
:10057900E508240DF582E43400F583E005082290AE
:10058900000A300F0390000DE475F00112053302E3
:10059900002E2008E97F2ED2088018EF540F2490EE
:1005A900D43440D4FF300C0BEF24BFB41A005003ED
:1005B9002461FFE50960021509050CE50C700205C7
:1005C9000B300F0E90000AE475F001120533EF02AB
:1005D90000960234F87403D20F8003E4C20FF508C1
:1005E90090000A12054AE4F509F50BF50CE50960D6
:1005F900077F201205BC80F5750AFFC209C208C22F
:100609000AC20BC20DC20EC210120588FF700D304E
:100619000F057F001205CDAF0CAE0B22B4255FC2CA
:10062900D5C20C120588FF24D0B40A00501A75F0FF
:100639000A780930D50508B6FF0106C6A426F620B2
:10064900D5047002D20B80D924CFB41A00EF50041C
:10065900C2E5D20C0207CED20980C6D20880C0D228
:100669000A80BCD2D580BAD20D80B47F201205BCD5
:10067900200A077401B5090040F1120579FF120536
:10068900BC0205F6D210D20E8095120579FB12052F
:1006990079FA120579F94A4B7006799F7A087BFF36
:1006A900200A2EE509602A7E008E827583001200D9
:1006B9004760060EEE650A70F0C2D5EBC0E0EAC0ED
:1006C900E0E9C0E0EE120815D0E0F9D0E0FAD0E098
:1006D900FB12002EFF60AAEBC0E0EAC0E0E9C0E02F
:1006E9001205BCD0E02401F9D0E03400FAD0E0FBD7
:1006F900E50A0460DCD50AD980877BFF7A0879117D
:10070900D20A809C791080027908C20EC210800832
:10071900D2D5790A8004790AC2D5E50A047002F5AE
:100729000AE4FAFDFEFF120579FC7B082009131281
:100739000579FD7B1030080A120579FE120579FF4B
:100749007B20EC3382D592D55013C3E43008069F41
:10075900FFE49EFEE42009039DFDE49CFCE4CBF844
:10076900C209EC700CCFCECDCCE824F8F870F38038
:1007790017C3EF33FFEE33FEED33FDEC33FCEB3300
:10078900FB994002FB0FD8E9EB300905F8D0E0C42A
:1007990048B209C0E00AEC4D4E4F78207B0070C288
:1007A900EAB50A0040BCC0E0120817D0F0D0E0203A
:1007B9000904C4C0E0C4B209C0F01205A5D0F0D53F
:1007C900F0EB0205F6120553069353070D5806641C
:1007D9004C06604207114F07194407194906794326
:0807E900071F55070346070333
:1007F1004507034708BF5006682D066C2E068F2B50
:10080100067023068D2008A82A06284800000687BE
:100811003F3F3F00790AA2D5200B14300D09B910D2
:10082100020404B9080104A2D5200E0250010420DB
:100831000A68920AB509005034C0E07F20300B19D4
:100841007F30A20A720E720D500F12086EC20AC2D8
:100851000EC20DC2107F30800F300D03E9C0E012CF
:1008610005BC300D03D0E0F9D0E0B509CC300D174F
:100871007F30B9100C1205BC7F58300C077F78808F
:1008810003B908031205BC300A057F2D0205BC7FA0
:10089100202010F87F2B200EF322920A80CF286EA1
:1008A100756C6C2900D2091205793009F8C20978F2
:1008B1000930D50108F60206282D50434958120582
:1008C100792403B405004001E49008BA931205AD00
:0D08D100743A1205ADD20B75090402070D33
:1003CC00E709F60870FA8046E709F20870FA803EF1
:1003DC0088828C83E709F0A370FA807EE309F60823
:1003EC0070FA8076E309F20870FA806E88828C834A
:1003FC00E309F0A370FA806289828A83E0A3F6088D
:10040C0070FA805689828A83E0A3F20870FA804AD7
:10041C0080D280FA80C680D4806580F280318010D2
:10042C0080A680EA809A80A880DA80E280CA803137
:10043C0089828A83ECFAE493A3C8C582C8CCC583AD
:10044C00CCF0A3C8C582C8CCC583CC70E9800D891B
:10045C00828A83E493A3F60870F9ECFAA9F0EDFB19
:10046C002289828A83ECFAE0A3C8C582C8CCC583F2
:10047C00CCF0A3C8C582C8CCC583CC70EA80DD891A
:10048C00828A83E493A3F20870F980CE88F0ED247D
:10049C0002B4040050C4F582EB2402B4040050BA38
:0904AC00232345822390041C73F4
:10363300E4FFFE12002E600C0FEF70010E09E9701B
:05364300F20A80EF22F5
:10287F000235F1E493A3F8E493A34003F68001F249
:10288F0008DFF48029E493A3F85407240CC8C3335A
:10289F00C4540F4420C8834004F456800146F6DF29
:1028AF00E4800B0102040810204080902E4CE47E3F
:1028BF00019360BCA3FF543F30E509541FFEE4931E
:1028CF00A360010ECF54C025E060A840B8E493A3E5
:1028DF00FAE493A3F8E493A3C8C582C8CAC583CA10
:1028EF00F0A3C8C582C8CAC583CADFE9DEE780BEC8
:012EA500002C
:0C04B500E6FC08E6FD08E6FE08E6FF2273
:0C04C100E0FCA3E0FDA3E0FEA3E0FF22AE
:0C04CD00E2FC08E2FD08E2FE08E2FF226B
:1004D900E493FC740193FD740293FE740393FF2269
:0C04E900ECF608EDF608EEF608EFF6223F
:0C04F500ECF208EDF208EEF208EFF22243
:10050100D083D082E493F608740193F608740293C1
:09051100F608740393F6740473F8
:10051A00D083D082E493F208740193F208740293B0
:09052A00F208740393F2740473E7
:10053300F8E0FBA3A3E0F925F0F0E5821582700251
:070543001583E0FA38F022F5
:09054A00EBF0A3EAF0A3E9F022B2
:10055300D083D082F8E4937012740193700DA3A337
:1005630093F8740193F5828883E47374029368604B
:06057300EFA3A3A380DF4B
:1034F800EFB40A07740D123503740A309811A899AD
:10350800B8130CC2983098FDA899C298B811F63033
:0735180099FDC299F599220B
:00000001FF
