:102979008F498D4A8B4BE5495403FF25E0F54912F0
:102989002BB4E54944A0FF122B69120052AF4A1239
:102999002B69120052AF4B122B691200521200160A
:0729A9007DFF7F57022C3572
:0428F3008F488D4934
:1028F700E4F54AE5485403FF25E0F548122BB4E513
:102907004844A0FF122B69120052AF49122B6912DB
:102917000052122BB47FA1122B69120052122AEC1B
:0E2927008F4A1200167DFF7F57122C35AF4AE3
:01293500227F
:1025B60025386C692000253033692C253033692095
:1025C60000253032692C2531692C25316900626F6E
:1025D6006F742E2E2E2020200073657475702E2E9B
:1025E6002E202000475053206661696C202000751C
:1025F6006E6C6F636B65642020006C6F636B696E35
:10260600672E2E2E006C6F636B65642020202000E1
:10261600475053206C6F7374202000666978656498
:08262600202020202000141BDD
:10271100013400C10AC10902270000013100022A67
:102721000000012D000129004B033B0000000000C7
:0D27310000000000000042030D0000C10B7D
:10285300C20B7B007A0079292290030DE0FEA3C30B
:10286300E0FF9428EE6480948022EF94D8EE648095
:10287300947F22120E82FFAE057401A8060822A3DC
:10288300E0F5528E518D508C4F227B017A037946AD
:10289300227533FF754CFF22754CFF754D26754E1F
:0C28A3000B22D3E528942CE52794012299
:0300030002007088
:03007000D20A327F
:03001300022C9824
:032C9800D209322C
:102936007548FF7E007F047D007B007A00792312B4
:102946001108E4FFE4FE74232FF8E6FD74382EF830
:10295600E6FCD39D400DEC95485008E6FD74232F08
:10296600F8A6050EBE10DF74232FF8E6F5480FBF54
:0229760004D289
:01297800223C
:10007600120026E4F530752C0190262CE4936534A5
:1000860060097F20122B828F3480EE7B007A007904
:100096002DE4FD1200067B007A00792D7D01300BE0
:1000A600051200068003122C55121FEB1226A0A281
:1000B6009092A530A603433201E53225E0F532B42D
:1000C600F0077D027F0B122C45301205121832C242
:1000D60012301005121B70C210052BE52BAE2A70CC
:1000E60002052A14FFBE0323BFFF20E4F52AF52BE1
:1000F6000535533507AF35E533A807088002C33306
:10010600D8FC30E704C2A08002D2A0200A03020273
:10011600317F24122B82EF7F00FEC006C0077F23AB
:10012600122B82EFFDD0E02DFED0E0340090030DBF
:10013600F0A3CEF0AD297F14122C00E52CB40541B6
:100146007F21122B828F2F7F22122B828F2EE53654
:10015600C4F854F0C868FEE537C4540F48FFC3E539
:10016600379FF537E5369EF536E52EC4F854F0C8C8
:1001760068FEE52FC4540F482537F537EE3536F5BA
:10018600361229B0121D920528E5287002052705AA
:100196003178027C037D0112288D7E007F0B120EC2
:1001A6003A754CFF754D25754EB69002C7E0FCA317
:1001B600E0FDA3E0FE1228827A0379301204D4759A
:1001C6004D25754EB6900001E0FCA3E0FDA3E0FED0
:1001D6001228827A03790F1204D4754D25754EBC08
:1001E6009002A0E0F54FA3E0F55090013FE0F551F5
:1001F600A3E0F5527B017A037925121532754CFF7F
:10020600754D25754EC7754F00852C50A290E43369
:10021600755100F552A20BE433755300F5547B017A
:100226007A03791A121532C2A1C20A30090D1204D4
:10023600DD122781122936D2A1C209E52C6530705C
:10024600030203ABE530B4090040030203A39002A6
:100256005BF82828730202760202F1020305020304
:100266001102032A02034B02036802037E02038C77
:10027600122894754D25754ED41204A1E4F52EF579
:100286002FF536F537D2A2F527F528E52824C8FD3F
:10029600E4FF1228F3743B2528F582E43403F58342
:1002A600EFF00528E52870020527C3940BE527948F
:1002B6000040D8122288E4FDFF1228F3EF5401F51E
:1002C60029AD2F7F15122C00AD2E7F16122C00752E
:1002D6002E47752F54852E36852F371228557D02C9
:1002E6001200061228557D030203A0E4F533754C6F
:1002F600FF754D25754EDF1204A1C2A20203A3129B
:100306002894754D25754EEA020384753333754C72
:10031600FF754D25754EF51204C0C20B1204AB7D58
:10032600040203A0753301754CFF754D26754E000A
:100336001204C01228537D02122C551228557D0333
:100346001200068013E4F53312289B1204CAD20B5E
:100356001228557D03122C551228557D04122C5552
:10036600803B753305754CFF754D26754E16120488
:10037600CA1204AB7D04802275331512289B1228FD
:100386008D1215328017122894754D26754E21123E
:10039600288D1215321228537D04120006E4F52723
:1003A600F52885302CE52CB40900400302049B9007
:1003B60003BCF82828730203D70203DD0204950262
:1003C60003F402040802043302045302046602041E
:1003D60089753001020091D3E5289405E52794003C
:1003E60050030200911221B4EF701A020495309066
:1003F60034D3E5289403E5279400500302009102C4
:10040600048F20900675300302009112285C501567
:1004160012286D4010D3E528941EE527940050035A
:100426000200918045E4F527F5280200912090020C
:10043600804190030DE0FEA3D31228635009C31236
:10044600286D40030200917530070200913090023A
:1004560080181228A55003020091753008020091F9
:1004660012285C500B12286D40067530050200916B
:100476002090067530060200911228A5500302004E
:100486009180062090030200917530040200917558
:1004960030020200917530020200917B017A0379E5
:1004A6004612153222AD377F15122C00AD367F1657
:1004B600122C007B007A007929227B017A03794687
:1004C600121532227B017A037946121532227B01FC
:0704D600121532754CFF22E4
:0D0006001228768002C333D8FC4F020EC8CA
:0E2C55001228768002C333D8FCF45F020EC84A
:102C2400122BEED292122BEEC29222122B690200C8
:012C3400524D
:102C35005388CF8D8A8F8C438810E58830E5FB2239
:102BEE005388CF758AE8758CFF438810E58830E5E9
:022BFE00FB22B8
:102BB400D292122BEEC291122BEEC292122BEED2B3
:042BC40091022BEE61
:0C001600C291D292122BEED291022BEE7E
:102B6900E4FEEF339291122C24EF25E0FF122BEEB5
:092B79000EBE08EED291022BEE13
:102AEC00E4FFFEEF25E0FFD292122BEEA291E4332D
:102AFC004207C292122BEE0EBE08E8D291122BEEB8
:012B0C0022A6
:10003E00AD07E4FC122BB47FF0122B69120052AF05
:04004E0005122B6903
:10005200E4FF7E01D291EE600CA291E433FE0FBF69
:0D006200FFF47F0022122C27122BEE7F01ED
:01006F00226E
:0A2C6300C292C291122C24022BEE43
:102B820012003E122BB47FF1122C2F122AECAC074A
:082B9200120052120016AF04FC
:012B9A002218
:102C0000AC07122BB47FF0122C2FAF041200470236
:022C10000016AC
:062A7C008B498A4A894BD8
:102A820012003EECC3954C5015AB49AA4AA94B8C97
:102A920082758300120E9BFF122C2F0C80E5020020
:012AA200161D
:02273E00C112C6
:03007300022C6DEF
:0A2C6D0053C17F43C18053917F32B1
:03003B0002234C51
:10234C00C0E0C0F0C083C082C0D075D000C000C057
:10235C0001C002C003C004C005C006C00720C27380
:10236C00E5C054F0603124F0605724D0606B24F049
:10237C00605524307055C2C5E5C254FEFFBFA4138E
:10238C00E5C230E0071220D08FC28003751C00D24A
:10239C00C18046C2C1804285C21EAF1C051C74514F
:1023AC002FF582E43403F583E51EF0E51CB4010D32
:1023BC00E51EC394644006751D0012253BD2C180F6
:1023CC0018D212C2C48012C2C4800E53C17F43C142
:1023DC00808000C2C5C2C4C2C1C2C0D007D006D062
:1023EC0005D004D003D002D001D000D0D0D082D000
:0623FC0083D0F0D0E032B6
:1020D000E51B249B700302219B1470030221A3249F
:1020E00066B40D0040030221B39020F0F828287355
:1020F0000221170221260221340221B30221B30258
:10210000214202214602214D022154022163022173
:102110007102217F02218DAE1D051D74D32EF58223
:10212000E434020221AFAF1D051D74E02FF582E4F7
:102130003402807BAF1D051D74022FF582E4340349
:10214000806DAF2D806D9002C6E0FF806690030029
:10215000E0FF805FE4FF300C010F300D5674102F4C
:10216000FF8050AF1D051D74302FF582E4340380CD
:102170003EAF1D051D740F2FF582E434038030AF90
:102180001D051D74252FF582E434038022AF1D0543
:102190001D741A2FF582E43403801490262DE493E5
:1021A000FF8010AF1D051D743B2FF582E43403F54D
:0321B00083E0FFCA
:0121B3002209
:102B2D00256320253032643A253032643A2530321F
:0E2B3D0064001F1C1F1E1F1E1F1F1E1F1E1FB9
:10274000C18E4102B7004102790041027E0041037F
:1027500001004102EE00C10CC10D4102C600410260
:10276000CB0044027A0000000044027F0000000019
:08277000410300004102A80032
:10092900EE3395E0FDFCE0F8A3E0F9A3E0FAA3E0DB
:100939002FFBEA3EFAE93DF9E83CF8AF50EF339571
:10094900E0FEFDFCEB2FF558EA3EF557E93DF5567B
:10095900E83CF5557B807A5179017800AF58AE575C
:10096900AD56FC121002E47B207A0AF9F8120F77CF
:100979008E4C8F4D7B807A5179017800AF58AE57F4
:10098900AD56AC551210027B807A5179017800126C
:100999000F77A804A905AA06C3E5589FF558E55796
:1009A9009AF557E55699F556E55598F555E47B10AE
:1009B9007A0EF9F8AF58AE57AD56AC55121002E49D
:1009C9007B6CFAF9F8120F77EF254DF54DEE354CA2
:1009D900F54CE47B107A0EF9F8AF58AE57AD56AC2A
:1009E90055121002E47B107A0EF9F8120F77A80459
:1009F900A905AA06C3E5589FF558E5579AF557E59D
:100A09005699F556E55598F555E47B3CFAF9F8AF52
:100A190058AE57AD56AC55121002E47B02FAF9F8FC
:100A2900120F77EF254DF54DEE354CF54CE47B581B
:100A39007A02F9F8AF58AE57AD56AC55121002E428
:100A49007B02FAF9F8120F77C3E54D9FF54DE54C96
:100A59009EF54CE47B3CFAF9F8AF58AE57AD56AC6D
:100A690055121002E47B3CFAF9F8120F77A804A991
:100A790005AA06C3E5589FF558E5579AF557E5566F
:100A890099F556E55598F5557402254DF54DE4351A
:100A99004CF54CFEAF4D3395E0FDFC7BE07AA57932
:100AA9000178001228AFEF254EF54EAE4CAF4DEE52
:100AB9003395E0FDFC7BE07AA5790178001228AF37
:100AC9007BE07AA579017800120F77C3E54D9FF590
:100AD9004DE54C9EF54CFEAF4D7C077D08120F414C
:100AE900EF254FF54F7C077D08120EDAC3E54D9FC0
:100AF900F54DE54C9EF54CFEAF4D7C007D1E120F69
:100B090041EF2550F5507C007D1E120EDAC3E54DEC
:100B19009FF54DE54C9EF54C229002A0E0FEA3E026
:100B2900FF7C007D8F120EECAE04AF05E4FCFD7B6B
:100B3900807A3A7909F8120F778F4B8E4A8D498C52
:100B4900489002C7E0FCA3E0FDA3E0FEA3E0227EFB
:100B5900007F077D007B011211087E0022AE14AFD1
:100B690015FCFD7B147A447902F8120F77E51A2FE8
:100B7900F51AE5193EF519E5183DF518E5173CF59F
:100B8900177F207EEE7DD97C08AB1AAA19A918A86F
:100B990017227D007E0078597C007B017A0279CC8E
:100BA9007F07020E3A7F077D007B010211087E0054
:100BB9007F047D007B01021108AF68EF3395E0FEE9
:100BC900743E2FF582742B3EF583E493229002CC78
:100BD900E0FEA3E0FF7C007D04120F41ED4C22E012
:100BE900FF3395E0F5508F51A3E0FF3395E0F552BF
:100BF9008F53A3E0FF3395E022FF121002AC00AD42
:100C090001AE02AF03227E007F0B7D007B01021142
:100C1900080550E51A2420F51AE51934EEF519E509
:100C29001834D9F518E5173408F51722E51A94345C
:100C3900F51AE5199432F519E51894DCF518E51754
:100C49009408F5171550227B017A0279C622FF1202
:100C59001002E47B3CFAF9F8121002C3E5509BF547
:100C690050900301E0222401FFE43EFEE43DFDE44F
:100C79003C22FF121002C3E54F9FF54FE47BE97A4E
:100C890003F9F8227560017561027562A9854E63E1
:100C9900854F6422254BF54BEE354AF54AED35492A
:100CA900F549EC3548F54822784E7C007D007B01FA
:100CB9007E007F03020E3AE4F54CF54DAF4FEF335A
:100CC90095E0FE7C007D3C020EDAE51AF0A3E519F9
:100CD900F0A3E518F0A3E517F0900301E0227F07E0
:100CE9007B01021108E0FCA3E0FDA3E0FEA3E0F50F
:100CF9001A8E198D188C17223395E0FCD3ED9F7449
:100D090080F86C98227F347E327DDC22754CFF7529
:100D19004D2B754E2D85484F227E007F037D007B2C
:100D29000102110874FFF51AF519F518F517229043
:100D390002ADE0FF9002EDE0229002AEE0FF9002EA
:100D4900F0E0227560017561027562B0229002B40B
:100D5900E0FF9002EFE0229002B5E0FF9002F1E09F
:010D69002267
:102C1200EF75F00A84AEF0EF75F00A84C454F04EFA
:012C2200FFB2
:012C2300228E
:10262E009002D2E004F0E0643C7066F09002D1E0DB
:10263E0004F0E0643C705AF09002D0E004F0E064E4
:10264E0018704EF09002CFE004F0120BD6700EA36D
:10265E00E0B40209A3E0641E701F0480159002CE40
:10266E00E0FF120BC5FF9002CFE0FD120D014009F5
:10267E007401F09002CEE004F09002CEE0B40D11A1
:10268E007401F09002CDE004F070069002CCE004EC
:02269E00F02228
:101ECF0078667C007D007B007A0079597E007F0761
:101EDF00120E3AE565256CF56CC364809480500A48
:101EEF00156B743C256CF56C8016D3E56C6480948F
:101EFF00BB400D056BE56C75F03C120E6085F06C08
:101F0F00E564256BF56BC364809480500A156A7481
:101F1F003C256BF56B8016D3E56B648094BB400D4D
:101F2F00056AE56B75F03C120E6085F06BE5632575
:101F3F006AF56AC364809480500A15697418256A1B
:101F4F00F56A8016D3E56A64809497400D0569E5BC
:101F5F006A75F018120E6085F06AC3E569648094A3
:101F6F0081502C1568120BD6700AE568B4020575FE
:101F7F00691D8005120BC2F569C3E5686480948101
:101F8F005033E56715677002156675680C80261269
:101F9F000BD67010E568B4020BD3E5696480949D8D
:101FAF004013800C120BC2FFAD69ED120D014005FD
:101FBF000568756901D3E5686480948C400B0567EB
:101FCF00E56770020566756801A862AC61AD607B5C
:0C1FDF00007A0079667E007F07020E3A4F
:1004DD00E4F54CF54DF554F553F552F551209003D7
:1004ED0030112C7B017A0279CC122B9B900001E00C
:1004FD00FCA3E0FDA3E0FEA3E0FF9002C71210A550
:10050D0090013FE0FFA3E09002A0CFF0A3EFF01227
:10051D00262E120B4A120C6FFC7B807A3A790978E1
:10052D0000120C039002C71210A590027A120B4D07
:10053D00120C6FFC90027A1210A590027F120B4DD7
:10054D00120C6FFC90027F1210A5E4FFFEFDFC90D3
:10055D0002C7E0F8A3E0F9A3E0FAA3E0FBC3121091
:10056D0094700E9002A1E004F070069002A0E004D9
:10057D00F0900005E0FCA3E0FDA3E0FEEC3390005D
:10058D00055014A3A3A3E02478FFEE34ECFEED3464
:10059D00FFFDEC34FF800C120B4D2488FFEE34135D
:1005AD00120C74FCE47B107A27F9F81228AF900234
:1005BD00B7EFF0120B22120C9DE54B5403F54BE4F3
:1005CD00F54AF549F548FFFEFDFCAB4BAA4AA94992
:1005DD00A848C3121094700CFB7A0079297D011282
:1005ED000006800B7B007A0079297D01122C5512B3
:1005FD000B22120C9DAF4BAE4AAD49FC120C85126D
:10060D000C038F4B8E4A8D498C488E148F157A02B0
:10061D0079A2120CB1300C02054E900301E0540387
:10062D006402703A900279F07B9C7AEAF9F8A31291
:10063D000B4D120C7B90027A120B4D120C5730E2BF
:10064D0024120CC090027A120929C3648094805040
:10065D0005E4F54CF54D900279E54DF08007E4F594
:10066D0050900279F0900298120CEE900298E0FCF6
:10067D00EC335003120C1A900301E0540364027022
:10068D0028120B66D31210944010120D0E120B90FF
:10069D001210945005120D2D800F120D0E120B908D
:1006AD00C31210944003120C35900279E004F0E06F
:1006BD00C3941E500B120B9B120C8D85506580122E
:1006CD00E4900279F0FDFE120B9F120C8DE55004A3
:1006DD00F565121ECF90028A120CD354036402707A
:1006ED00559002CBE0540F6401701A9002AFE07088
:1006FD0045120D386F703F120D426F7039FD1209A2
:10070D00197D01802E9002CBE0540F64027027906A
:10071D0002AFE07021120D38B5071B120D42B5075F
:10072D001590027A1210B1000000007B017A037956
:10073D0000E4FD1200069002ADE0FF122C129002B3
:10074D0071EFF09002AEE0FF122C12900272EFF0FA
:10075D009002AFE0FF122C12900273EFF09002792D
:10076D00E0FF122C12900274EFF07A0279A5120CB0
:10077D00B1300D02054E900301E054306420703A03
:10078D0090027EF07B9C7AEAF9F8A3120B4D120CC5
:10079D007B90027F120B4D120C5730E624120CC0C9
:1007AD0090027F120929C3648094805005E4F54CB2
:1007BD00F54D90027EE54DF08007E4F55090027EF8
:1007CD00F090029C120CEE90029CE0FCEC33500376
:1007DD00120C1A900301E0543064207028120B663D
:1007ED00D31210944010120D0E120B901210945043
:1007FD0005120D2D800F120D0E120B90C3121094B9
:10080D004003120C3590027EE004F0E0C3941E50BC
:10081D000E120B9B120D4C120C968550658021E427
:10082D0090027EF078597C00FD7B017A0279CCFE36
:10083D007F07120E3A120D4C120C96E55004F56519
:10084D00121ECF900292120CD35430642070569029
:10085D0002CBE054F06410701B9002B6E0704612AB
:10086D000D566F7040120D606F703A7D04120919AC
:10087D007D05802E9002CBE054F06420702790020D
:10088D00B6E07021120D56B5071B120D60B5071598
:10089D0090027F1210B1000000007B017A037900F5
:1008AD007D041200069002B4E0FF122C1290027526
:1008BD00EFF09002B5E0FF122C12900276EFF0905F
:1008CD0002B6E0FF122C12900277EFF090027EE05C
:1008DD00FF122C12900278EFF090013DE0B4072B3F
:1008ED00300E28E47B587A02F9F8120B4A120C02EA
:1008FD0090027A1210A5E47B587A02F9F8120B4A8D
:0B090D00120C0290027F1210A5C20E17
:10091800227B017A0379001200067B017A037900B1
:0109280022AC
:101D92009002AEE06003021E2AA3E06003021E2A44
:101DA2009002F4E0FF9002ABE06F70359002F5E034
:101DB200FF9002ACE06F70299002F6E0FF9002AD56
:101DC200E06F701D9002EEE0540324FE600A04707E
:101DD20057120C50E4FD803FD20C120C50E4FD80EF
:101DE200449002BAE0FF9002ABE06F703B9002BBFE
:101DF200E0FF9002ACE06F702F9002BCE0FF900217
:101E0200ADE06F70239002EEE0540324FE600F04F5
:101E12007016120C507D01121EC57D028007C20C85
:101E2200120C507D011200069002B5E06003021E02
:101E3200C4A3E06003021EC49002FBE0FF9002B262
:101E4200E06F70369002FCE0FF9002B3E06F702A00
:101E52009002FDE0FF9002B4E06F701E9002EEE08F
:101E6200543024E0600B24107058120C507D048012
:101E720040D20D120C507D0480459002C1E0FF90CB
:101E820002B2E06F703C9002C2E0FF9002B3E06FDA
:101E920070309002C3E0FF9002B4E06F70249002B1
:101EA200EEE0543024E0601024107016120C507DC5
:101EB20005121EC57D068007C20D120C507D05124B
:0D1EC2000006221200067B017A0279C6227A
:1026A0009002A8E0FD30E01A9002C6E0FE30E0049F
:1026B000D20C8006EE30E102C20CEE54F89002C655
:1026C000800E9002A8E0FD30E10E9002C6E054F8C2
:1026D000F0ED54FC9002A8F09002A8E0FD30E41A5E
:1026E0009002C6E0FE30E404D20D8006EE30E50232
:1026F000C20DEE548F9002C6800E9002A8E0FD300D
:10270000E50E9002C6E0548FF0ED54CF9002A8F091
:0127100022A6
:1029B000309005754820800375482A120D15900245
:1029C000AD120BE8F5548F557B017A0279D31215BD
:1029D00032120D159002B4120BE8F5548F557B019D
:0729E0007A0279E0021532D2
:102781009002B7E0900283F0A3E515F0A3E514F001
:10279100900271E0900286F0900272E0900287F060
:1027A100900273E0900288F0900274E0900289F048
:1027B100900275E090028EF0900276E090028FF028
:1027C100900277E0900290F0900278E0900291F010
:1027D100900301E0900296F0A3E529F07B017A02D3
:0A27E1007983754C15E4FF022A7C91
:10228800E49002B7F090027A1210B10000000090BA
:10229800027F1210B100000000E49002C6F0900323
:1022A80000F09002A8F0900301F0FEFD7A0279CCCC
:1022B800120CE77A0279A9120B587A0279B0120B3C
:1022C800AE7A027971120BB77A027975120BB77A66
:1022D8000279D3120C0F7A0279E0120C0FC20CC2E9
:1022E8000DE4900279F090027EF09002C71210B1CE
:1022F80000000000E49002A0F0A3F0FE7F07FD7B41
:10230800017A0279F21211087A0279B8120B587D13
:10231800007A0279F9120CE77E007A0279BF120B73
:10232800AE7A0279A2120D227A0279A5120D2290B4
:1023380002981210B10000000090029C1210B10027
:04234800000000226F
:1029E700E47B587A02F9F89002C7E0FCA3E0FDA364
:1029F700E0FEA3E0FF121002AC00AD01AE02AF0390
:102A070022E054F0FFF0900352E022900352E07B63
:062A1700017A0279A822F9
:10183200E4F548900351E01210E218C10018E907DC
:1018420018F20818FB0919040A190D0B194E0C1984
:10185200570D19600E19690F197210197B1119842D
:1018620012198E1319971419A01519AA1619B3175C
:1018720019BC1B19C51C19CE1D19D71E19E01F1A38
:1018820024201A36211A3F221A48231A51241A5A9E
:10189200251A6C261A76271A7F281A88291A922A5C
:1018A2001A9B2B1AA4321AB1331ABF341AC7351A2B
:1018B200D0361AEF371B0F381B2F3E00001B6590E6
:1018C2000352E07B007A007929B40507E4FD120097
:1018D200068005E4FD122C55AD297F14122C00ABB5
:1018E20029E4FDFF022979900352E090029BF02245
:1018F200900352E090029AF022900352E0900299F3
:10190200F022900352E0900298F022900301E054FA
:10191200F0F0900352E014601314601814601D1468
:10192200602224046003021B650219FE900301E099
:101932004401F022900301E04406F022900301E00A
:101942004402F022900301E04403F0229002CB1201
:101952002A08021A30900352E09002EDF02290031E
:1019620052E09002F0F022900352E09002A2F022A4
:10197200900352E09002A3F0229002EE122A080293
:101982001A66900352E0049002F4F022900352E0AF
:101992009002F5F022900352E09002F6F0229003BA
:1019A20052E0049002BAF022900352E09002BBF09F
:1019B20022900352E09002BCF022900352E0900287
:1019C2009FF022900352E090029EF022900352E098
:1019D20090029DF022900352E090029CF02290032C
:1019E20001E0540FF0900352E014601614601B14CF
:1019F200602014602524046003021B65900301E04B
:101A0200F022900301E04410F022900301E04460D0
:101A1200F022900301E04420F022900301E04430E0
:101A2200F0229002CBE0540F122A0BC454F04F90D4
:101A320002CBF022900352E09002EFF02290035288
:101A4200E09002F1F022900352E09002A5F0229081
:101A52000352E09002A6F0229002EEE0540F122A06
:101A62000BC454F04F9002EEF022900352E0049027
:101A720002FBF022900352E09002FCF0229003520B
:101A8200E09002FDF022900352E0049002C1F022A5
:101A9200900352E09002C2F022900352E09002C3FF
:101AA200F022122A126004E4FD800F7D01800B12E5
:101AB2002A1260047D0480027D050200061229E7D5
:101AC20090027A80061229E790027F0210A5900305
:101AD20052E0B401091229E790027A1210A57B01A3
:101AE2007A037900E4FD121B667D01801D9003528A
:101AF200E0B401091229E790027F1210A57B017A56
:101B02000379007D04121B667D05022C5590035259
:101B1200E0FF30E004D20C8006EF30E102C20CEFAD
:101B220030E403D20D22EF30E539C20D22783B7C3E
:101B3200037D017B017A0379527E007F0B120E3AFC
:101B4200E4F548E54824C8FD743B2548F582E434B1
:101B520003F583E0FBE4FF1229790548E548C394C5
:031B62000B40E055
:0B1B650022122C557B017A037900222C
:10253B00900351E02437606B14606C2466B40D007B
:10254B00506890255B75F003A4C58325F0C5837394
:10255B0002258202258602258A0225B50225B502AF
:10256B00258E02259202259602259A02259E02258A
:10257B00A20225A60225AAE4F51B22751B012275D2
:10258B001B0222751B0522751B0622751B07227564
:10259B001B0822751B0922751B0A22751B0B227542
:0B25AB001B0C22751B6522751B6622AD
:06277800016D00016E007E
:082C81008F993099FDC29922E0
:03002300022A4E60
:102A4E00C0E0C083C082C0D030981A7461256DF585
:102A5E0082E43403F583E599F0C298056DE56DB413
:0E2A6E000803756D00D0D0D082D083D0E03246
:102A1D00E4FFE56DB56E0A0FBFFFF7E4120EC8FFB8
:102A2D0022C2AC7461256EF582E43403F583E012A5
:102A3D000EC8056EE56EB40803E4F56ED2AC7F01E9
:012A4D002266
:10114400061D1C000100000000000000000000005B
:101154000000000010270000201C000090D00300B5
:10116400000000000000000000000000000000007B
:10117400000000000000000000000000000000006B
:10118400000000000000000000000000000000005B
:10119400000000000000000000000000000000004B
:1011A400000000000000000000000000000000003B
:1011B400000000000000000000000000000000002B
:1011C400000000000000000000000000000000001B
:1011D400000000000000000000000000000000000B
:1011E40000000000000000000000000000000000FB
:1011F40000000000000000000000000000000000EB
:1012040000000000000000000000000000000000DA
:1012140000000000000000000000000000000000CA
:1012240000000000000000000000000000000000BA
:1012340000000000000000000000000000000000AA
:10124400000000000000000000000000000000009A
:10125400000000000000000000000000000000008A
:10126400000000000000000000000000000000007A
:101274000600140001000000D008080080250000CA
:101284000700010000000000000000000000000052
:10129400000000000000000000000000000000004A
:1012A400000000000000000000000000000000003A
:1012B400000000000000000000000000000000002A
:1012C400000000000000000000000000000000001A
:1012D400000000000000000000000000000000000A
:1012E40000000000000000000000000000000000FA
:1012F40000000000000000000000000000000000EA
:1013040000000000000000000000000000000000D9
:1013140000000000000000000000000000000000C9
:1013240000000000000000000000000000000000B9
:1013340000000000000000000000000000000000A9
:101344000000000000000000000000000000000099
:101354000000000000000000000000000000000089
:101364000000000000000000000000000000000079
:101374000000000000000000000000000000000069
:101384000000000000000000000000000000000059
:101394000000000000000000000000000000000049
:1013A400061A2800010000000103100250C30000C7
:1013B4000F0A053C00010000FA00FA0064002C0149
:1013C4000000000000000000000000000000000019
:1013D4000000000000000000000000000000000009
:1013E40000000000000000000000000000000000F9
:1013F40000000000000000000000000000000000E9
:1014040000000000000000000000000000000000D8
:1014140000000000000000000000000000000000C8
:1014240000000000000000000000000000000000B8
:1014340000000000000000000000000000000000A8
:101444000000000000000000000000000000000098
:101454000000000000000000000000000000000088
:101464000000000000000000000000000000000078
:101474000000000000000000000000000000000068
:101484000000000000000000000000000000000058
:101494000000000000000000000000000000000048
:1014A4000000000000000000000000000000000038
:1014B4000000000000000000000000000000000028
:1014C4000000000000000000000000000000000018
:0214D400B562FF
:02277E00C11187
:1027EB00FFEA3EFEE93DFDE83CFC9000051210A51A
:1027FB00900005E0F8A3E0F9A3E0FAA3E0FB22AB1D
:10280B004BAA4CA94D120E9B250AF50A250BF50B6D
:10281B0022050C74102510F582E43400F583E022B8
:10282B00EFF0EDA3F0E4A3F0A322AB4BE54D2404B2
:10283B00F9E4354CFA22E0FCA3E0FDA3E0FEA3E0B3
:08284B0022FEE07C00240022C3
:101FEB00D3E510942C748094814007E4F50FF51021
:101FFB00F50C7E0074102510F9EE3400FA7B0112FB
:10200B002A1DEF70030220CFE50F703112281EFF3F
:10201B00E50C9014D493FEEFB50604050C8003E495
:10202B00F50C0510E50C640260030220CFF50CF5EE
:10203B0010750F01F50AF50BF508F50922E50F648C
:10204B0001702412281C122813E50CB404169000FE
:10205B0013E090001212284CF509EC3EF508750FB1
:10206B0002E4F50C051022E50FB4021512281C1220
:10207B002813E50CB50907E4B50803750F03051024
:10208B0022E50F6403703D050CE5092402FFE435DE
:10209B0008FEEF650C7001EE7028F50CF510F50FCE
:1020AB0074142509F58274003508F583E0B50A121E
:1020BB0074152509F58274003508F583E0B50B021C
:0520CB00D210051022F7
:101B70007B017A017941122B4B900141E0146045C1
:101B800024FC7003021CE424F87003021CF32403F9
:101B90006003021D8E900142E024F76003021D9154
:101BA000900156E090015512284CF50EEC3EF50DD3
:101BB000D3E50E9512E50D95115003021D91850D8B
:101BC00011850E1222900142E024DF7003021C777F
:101BD00024F17003021CC124106003021D919001C6
:101BE0004FE090013EF0900145E0900004F090013C
:101BF00046E0900003F0900147E0900002F0900171
:101C000048E0900001F012284124F4FFEE3401FE78
:101C1000E43DFDE43CFCE47BE87A03F9F8121002B1
:101C20009000011210A5900001122841FFC00790FA
:101C3000013EE0FB3395E0FAF9F8D007C3EF9BFFD4
:101C4000EE9AFEED99FDEC98FC9000011210A59023
:101C5000014DE0FF90013FE4F0A3EFF090014EE072
:101C6000FE900140E02400F090013FE03EF0900142
:101C700050E090013CF022900152E0FE900151E0D2
:101C80007C002400FFEC3E900009F0A3EFF09001EF
:101C900053E090000BF0900154E090000CF09001A4
:101CA00055E090000DF0900156E090000EF090018C
:101CB00057E090000FF0900158E090013DF0D211F4
:101CC00022754B0CE4FF7445254BF582E43401F595
:101CD00083E0FE74382FF8A606740C254BF54B0FE5
:101CE000BF10E322900142E06006147003D20F227D
:101CF000C20F22900142E024FC7003021D852403E0
:101D00006003021D9190014DE0FFE4FCFDFE1227EF
:101D1000F590014EE07F00FE3395E0FDFCEF2B12C5
:101D200027EBC000C001C002C00390014FE07E005D
:101D30007810C333CE33CED8F9FFEE3395E0FDFCF7
:101D4000D003D002D001D000EB2F1227EBC000C08F
:101D500001C002C003900150E07E007818C333CE6A
:101D600033CED8F9FFEE3395E0FDFCD003D002D09E
:101D700001D000EB2FFFEA3EFEE93DFDE83CFC9080
:101D800000050210A590015DE0900000F022E4F54E
:011D90004B07
:011D9100222F
:102C450090014112282BF07B017A0179410224027F
:102402008B4B8A4C894DE4F50AF50B900002120EB3
:102412009B750800F5097FB5122C817F62122C8111
:10242200AB4BAA4CA94D120E821224A4120E82F5B5
:102432000AF50B900001120E9BFF122C81900001F5
:1024420012280A900002120E9BFF122C81900002A9
:1024520012280A900003120E9B1224A49000031269
:102462002810E4F510AF107E00C3EF9509EE950831
:102472005026122835E92FF9EE3AFA120E82FF128F
:102482002C811228357E00E92510F9EE3AFA120E57
:1024920082122813051080CDAF0A122C81AF0B02D5
:0D24A2002C81FF122C81AB4BAA4CA94D22BE
:102B4B008B4C8A4D894EE5092404FFE43508FEA819
:0E2B5B0001AC02AD037B017A007910020E3A44
:1021B400E4F54A9000051210B100000000E490001C
:1021C40000F0A31210B100000000E490013FF0A35E
:1021D400F090013CF090013EF090013DF0F50AF5DD
:1021E4000BF510F50CF508F509C210C20F7E017F3E
:1021F4002CFD7B017A007910121108200F3AE54A70
:10220400C394055033E4F548F5497BFF7A12797499
:10221400122402201019E54964E87004E5486403B7
:10222400600D0549E54970020548121FEB80E4057D
:102234004A121B70C21080C3E54AB405037F002212
:10224400C20F7BFF7A1179441224027BFF7A13793F
:10225400A41224027B017D017F0D122ACA7B017D19
:10226400207F01122ACA7B017D217F01122ACA7BA9
:102274000B7D307F01122ACA7B0A7D047F0D122A4E
:03228400CA7F010D
:012287002234
:102ACA009001417406F0A37401F0740612282E12C4
:102ADA00282BEBF0E4A3F0A3F07B017A0179410201
:022AEA002402C4
:102B9B008B598A5A895BA801AC02AD037B017A0081
:092BAB0079097E007F07020E3A51
:072C890053D9BFE4F5D92285
:102BC800758845758920758D987591047592AF75CE
:032BD800933C2209
:042C90007598102201
:042C940075C189225B
:102BDB0075F1F375A5F975A6BF75D40C75E105757F
:032BEB00E24022A3
:102B0D00E4FFFE75B9800FBF00010EEF64144E7027
:0F2B1D00F543B9C0E5B930E5FB75A90275B28380
:012B2C002286
:0A2C770075E60175E47F75A895224B
:10002600122C89122BC8122C90122C94122BDB1234
:050036002B0D022C77E8
:030000000224AF28
:0C24AF00787FE4F6D8FD75816E0224F6FB
:100D6A00E709F608DFFA8046E709F208DFFA803E6B
:100D7A0088828C83E709F0A3DFFA8032E309F60858
:100D8A00DFFA8078E309F208DFFA807088828C83C0
:100D9A00E309F0A3DFFA806489828A83E0A3F60874
:100DAA00DFFA805889828A83E0A3F208DFFA804C4E
:100DBA0080D280FA80C680D4806980F28033801025
:100DCA0080A680EA809A80A880DA80E280CA80338E
:100DDA0089828A83ECFAE493A3C8C582C8CCC58306
:100DEA00CCF0A3C8C582C8CCC583CCDFE9DEE780D6
:100DFA000D89828A83E493A3F608DFF9ECFAA9F055
:100E0A00EDFB2289828A83ECFAE0A3C8C582C8CCAA
:100E1A00C583CCF0A3C8C582C8CCC583CCDFEADEC3
:100E2A00E880DB89828A83E493A3F208DFF980CC25
:100E3A0088F0EF60010E4E60C388F0ED2402B4041E
:100E4A000050B9F582EB2402B4040050AF232345C5
:060E5A008223900DBA7323
:100E6000C2D530F707B2D563F0FF05F030E70CB21A
:100E7000D5F4048463F0FF05F080018430D502F4DA
:020E800004224A
:100E8200BB010689828A83E0225002E722BBFE026E
:090E9200E32289828A83E49322A1
:100E9B00BB010CE58229F582E5833AF583E022500C
:100EAB0006E92582F8E622BBFE06E92582F8E22256
:0D0EBB00E58229F582E5833AF583E4932270
:100EC800BB010689828A83F0225002F722BBFE0109
:020ED800F32203
:100EDA00EF8DF0A4A8F0CF8CF0A428CE8DF0A42E2C
:020EEA00FE22E6
:100EEC00BC000BBE0029EF8DF084FFADF022E4CCEA
:100EFC00F875F008EF2FFFEE33FEEC33FCEE9DECB3
:100F0C00984005FCEE9DFE0FD5F0E9E4CEFD22EDF8
:100F1C00F8F5F0EE8420D21CFEADF075F008EF2F42
:100F2C00FFED33FD4007985006D5F0F222C398FD33
:050F3C000FD5F0EA22D0
:100F4100C2D5EC30E709B2D5E4C39DFDE49CFCEECB
:100F510030E715B2D5E4C39FFFE49EFE120EECC349
:100F6100E49DFDE49CFC8003120EEC30D507C3E444
:060F71009FFFE49EFE223A
:100F7700E88FF0A4CC8BF0A42CFCE98EF0A42CFC19
:100F87008AF0EDA42CFCEA8EF0A4CDA8F08BF0A497
:100F97002DCC3825F0FDE98FF0A42CCD35F0FCEBF6
:100FA7008EF0A4FEA9F0EB8FF0A4CFC5F02ECD39BB
:0F0FB700FEE43CFCEAA42DCE35F0FDE43CFC2228
:100FC60075F008758200EF2FFFEE33FECD33CDCCE2
:100FD60033CCC58233C5829BED9AEC99E582984065
:100FE6000CF582EE9BFEED9AFDEC99FC0FD5F0D642
:100FF600E4CEFBE4CDFAE4CCF9A88222B800C1B96C
:101006000059BA002DEC8BF084CFCECDFCE5F0CBA9
:10101600F97818EF2FFFEE33FEED33FDEC33FCEBE2
:1010260033FB10D703994004EB99FB0FD8E5E4F99D
:10103600FA227818EF2FFFEE33FEED33FDEC33FC8A
:10104600C933C910D7059BE99A4007EC9BFCE99A7E
:10105600F90FD8E0E4C9FAE4CCFB2275F010EF2FC3
:10106600FFEE33FEED33FDCC33CCC833C810D707C3
:101076009BEC9AE899400AED9BFDEC9AFCE899F8FE
:0E1086000FD5F0DAE4CDFBE4CCFAE4C8F92291
:1028AF00C2D5E830E70FB2D5E4C39BFBE49AFAE454
:1028BF0099F9E498F8EC30E717B2D51228E5121021
:1028CF0002E4C39BFBE49AFAE499F9E498F88003D5
:1028DF0012100230D50DE4C39FFFE49EFEE49DFD70
:0428EF00E49CFC2247
:10109400EB9FF5F0EA9E42F0E99D42F0E89C45F0B2
:0110A4002229
:0C10A500ECF0A3EDF0A3EEF0A3EFF022BE
:1010B100A8828583F0D083D0821210C81210C81282
:1010C10010C81210C8E473E493A3C583C5F0C583A7
:1010D100C8C582C8F0A3C583C5F0C583C8C582C889
:0110E10022EC
:1010E200D083D082F8E4937012740193700DA3A39D
:1010F20093F8740193F5828883E4737402936860B1
:06110200EFA3A3A380DFB0
:1014D600E558244CF8E60558227849300702784C3E
:1014E600E475F001121134020E822000EB7F2ED239
:1014F600008018EF540F2490D43440D4FF30040BEE
:10150600EF24BFB41A0050032461FFE559600215A9
:1015160059055CE55C7002055B30070D7849E4759A
:10152600F001121134EF020EC8022AA37403D20787
:101536008003E4C207F5588B498A4A894BE4F5597A
:10154600F55BF55CE55960077F2012151180F5758E
:101556005AFFC201C200C202C203C205C206C208C5
:101566001214DFFF700D3007057F00121522AF5CE5
:10157600AE5B22B4255FC2D5C2041214DFFF24D0AD
:10158600B40A00501A75F00A785930D50508B6FF26
:101596000106C6A426F620D5047002D20380D924FB
:1015A600CFB41A00EF5004C2E5D204021722D201CA
:1015B60080C6D20080C0D20280BCD2D580BAD20505
:1015C60080B47F201215112002077401B55900401E
:1015D600F11214D6FF12151102154AD208D206804E
:1015E600951214D6FB1214D6FA1214D6F94A4B7079
:1015F6000679F37A177BFF20022EE559602A7E00D2
:101606008E82758300120E9B60060EEE655A70F090
:10161600C2D5EBC0E0EAC0E0E9C0E0EE121769D03F
:10162600E0F9D0E0FAD0E0FB120E82FF60AAEBC030
:10163600E0EAC0E0E9C0E0121511D0E02401F9D0DB
:10164600E03400FAD0E0FBE55A0460DCD55AD980D4
:10165600877BFF7A177965D202809C7910800279A0
:1016660008C206C2088008D2D5790A8004790AC25F
:10167600D5E55A047002F55AE4FAFDFEFF1214D6B7
:10168600FC7B082001131214D6FD7B1030000A12D1
:1016960014D6FE1214D6FF7B20EC3382D592D55099
:1016A60013C3E43000069FFFE49EFEE42001039D81
:1016B600FDE49CFCE4CBF8C201EC700CCFCECDCCA3
:1016C600E824F8F870F38017C3EF33FFEE33FEED2E
:1016D60033FDEC33FCEB33FB994002FB0FD8E9EB0F
:1016E600300105F8D0E0C448B201C0E00AEC4D4E26
:1016F6004F78207B0070C2EAB55A0040BCC0E012A9
:10170600176BD0F0D0E0200104C4C0E0C4B201C021
:10171600F01214FAD0F0D5F0EB02154A1210E215C9
:10172600E75316615815B84C15B44216654F166D39
:0F17360044166D4915CD43167355165746165771
:101745004516574718135015BC2D15C02E15E32BFC
:1017550015C42315E12017FC2A157C48000015DB6C
:101765003F3F3F00790AA2D5200314300509B9107F
:10177500020404B9080104A2D52006025001042080
:1017850002689202B559005034C0E07F2030031939
:101795007F30A20272067205500F1217C2C202C232
:1017A50006C205C2087F30800F300503E9C0E0128C
:1017B5001511300503D0E0F9D0E0B559CC30051747
:1017C5007F30B9100C1215117F583004077F7880CF
:1017D50003B908031215113002057F2D0215117F7B
:1017E500202008F87F2B2006F322920280CF286E56
:1017F500756C6C2900D2011214D63001F8C201783B
:101805005930D50108F602157C2D5043495812145C
:10181500D62403B405004001E490180E9312150276
:0D182500743A121502D203755904021661BF
:10110800EF4E6012EF60010EEDBB010B89828A83FE
:10111800F0A3DFFCDEFA2289F05007F709DFFCA90B
:0C112800F022BBFEFCF309DFFCA9F02262
:1024BB00020076E493A3F8E493A34003F68001F2C1
:1024CB0008DFF48029E493A3F85407240CC8C33322
:1024DB00C4540F4420C8834004F456800146F6DFF1
:1024EB00E4800B0102040810204080902711E47E49
:1024FB00019360BCA3FF543F30E509541FFEE493E6
:10250B00A360010ECF54C025E060A840B8E493A3AC
:10251B00FAE493A3F8E493A3C8C582C8CAC583CAD7
:10252B00F0A3C8C582C8CAC583CADFE9DEE780BE8F
:012780000058
:10113400FAE6FB0808E6F925F0F618E6CA3AF622BC
:102AA300EFB40A07740D122AAE740A309811A8996C
:102AB300B8130CC2983098FDA899C298B811F63093
:072AC30099FDC299F599226B
:00000001FF
