:10276C008F4C8D4D8B4EE54C5403FF25E0F54C12F0
:10277C002999E54C44A0FF12294E120052AF4D127C
:10278C00294E120052AF4E12294E12005212001650
:07279C007DFF7F57022A1A9E
:0426E6008F4B8D4C3D
:1026EA00E4F54DE54B5403FF25E0F54B122999E536
:1026FA004B44A0FF12294E120052AF4C12294E121F
:10270A0000521229997FA112294E1200521228D47E
:0E271A008F4D1200167DFF7F57122A1AAF4D09
:01272800228E
:10233200253031306900253032692C253032692C44
:102342002530326900253032692C2531692C25313E
:102352006900626F6F742E2E2E2020200073657428
:1023620075702E2E2E202000475053206661696C16
:10237200202000756E6C6F636B65642020006C6FAB
:10238200636B696E672E2E2E006C6F636B65642023
:1023920020202000475053206C6F73742020006669
:0C23A200697865642020202020001117BD
:10242900013700C10AC10902270000013400022A4C
:1024390000000331000112012D000129004B026F38
:1024490000000000000000000000004202410000FE
:02245900C10BB5
:10265100C20B7B007A00792922900241E0FEA3C3DC
:10266100E0FF9428EE6480948022EF94D8EE648099
:10267100947F22120E89FFAE057401A80608227B01
:10268100017A02797A227536FF754EFF22754EFF67
:10269100754F2375508B22D3E528942CE52794019F
:0126A1002216
:0300030002007088
:03007000D20A327F
:03001300022A7D41
:032A7D00D2093249
:10272900754BFF7E007F047D007B007A00792312C0
:10273900110FE4FFE4FE74232FF8E6FD743B2EF835
:10274900E6FCD39D400DEC954B5008E6FD74232F14
:10275900F8A6050EBE10DF74232FF8E6F54B0FBF60
:0227690004D298
:01276B00224B
:10007600120026E4F530752C019023ACE493653725
:1000860060097F201229678F3780EE7B007A00791E
:100096002DE4FD1200067B007A00792D7D01300BE0
:1000A600051200068003122A3A121EDC12250EA241
:1000B6009092A530A603433501E53525E0F535B424
:1000C600F0077D027F0B122A2A3011051214A7C2EF
:1000D600113010051217E5C210052BE52BAE2A705C
:1000E60002052A14FFBE0323BFFF20E4F52AF52BE1
:1000F6000538533807AF38E536A807088002C333FA
:10010600D8FC30E704C2A08002D2A0200A03020273
:10011600237F24122967EF7F00FEC006C0077F23D6
:10012600122967EFFDD0E02DFED0E03400900241A9
:10013600F0A3CEF0AD297F141229E5E52CB40541D4
:100146007F211229678F2F7F221229678F2EE5398B
:10015600C4F854F0C868FEE53AC4540F48FFC3E536
:100166003A9FF53AE5399EF539E52EC4F854F0C8BC
:1001760068FEE52FC4540F48253AF53AEE3539F5B1
:1001860039122838121B9F0528E528700205270515
:100196003478367C027D011226807E007F0B120E9B
:1001A60041754EFF754F23755032900241E0F5516F
:1001B600A3E0F5527A0279641204F0754F23755064
:1001C600328527518528527A0279431204F0754FF9
:1001D6002375503875510085235275530085245474
:1001E6007555008525567B017A0279591211A77536
:1001F6004EFF754F23755047755100852C52A290BE
:10020600E433755300F554A20BE433755500F556E7
:100216007B017A02794E1211A7C2A1C20A30090DDA
:1002260012093712257F122729D2A1C209E52C65AA
:100236003070030203C7E530B4090040030203BF70
:1002460090024DF828287302026802030D0203216A
:1002560002032D02034602036702038402039A0285
:1002660003A8122687754F237550541204BDE4F572
:100276002EF52FF539F53AD2A2F527F528E52824EB
:10028600C8FDE4FF1226E6746F2528F582E43402E1
:10029600F583EFF00528E52870020527C3940BE5E2
:1002A60027940040D812207FE4FDFF1226E6EF5483
:1002B60001F5297B007A007931754F037F171228E3
:1002C60064AD2F7F151229E5AD2E7F161229E57D27
:1002D60001E4FF1226E68F2E7D02E4FF1226E68F4A
:1002E6002FE52FB4FF0BE52EB4FF06752E47752FAD
:1002F60054852E39852F3A1226537D021200061296
:1003060026537D030203BCE4F536754EFF754F2375
:1003160075505F1204BDC2A20203BF122687754F35
:100326002375506A0203A0753633754EFF754F2349
:100336007550751204DCC20B1204C77D040203BC9F
:10034600753601754EFF754F237550801204DC1209
:1003560026517D02122A3A1226537D031200068088
:1003660013E4F53612268E1204E6D20B1226537DBE
:1003760003122A3A1226537D04122A3A803B753616
:1003860005754EFF754F237550961204E61204C785
:100396007D04802275361512268E1226801211A72C
:1003A6008017122687754F237550A11226801211C9
:1003B600A71226517D04120006E4F527F52885309C
:1003C6002CE52CB4090040030204B79003D8F828A2
:1003D60028730203F30203F90204B10204100204B3
:1003E6002402044F02046F0204820204A575300140
:1003F600020091D3E5289405E527940050030200F6
:1004060091121FB5EF701A0204B1309034D3E5286B
:100416009403E527940050030200910204AB209058
:100426000675300302009112265A501512266B40AB
:1004360010D3E528941EE52794005003020091800E
:1004460045E4F527F52802009120900280419002AC
:1004560041E0FEA3D31226615009C312266B400366
:100466000200917530070200913090028018122622
:1004760098500302009175300802009112265A50D6
:100486000B12266B4006753005020091209006750A
:100496003006020091122698500302009180062031
:1004A600900302009175300402009175300202003B
:1004B600917530020200917B017A02797A1211A7B6
:1004C60022AD3A7F151229E5AD397F161229E57B53
:1004D600007A007929227B017A02797A1211A72201
:1004E6007B017A02797A1211A7227B011211A77574
:0304F6004EFF2294
:0D0006001226748002C333D8FC4F020ECFC7
:0E2A3A001226748002C333D8FCF45F020ECF64
:102A09001229D3D2921229D3C2922212294E02003C
:012A1900526A
:102A1A005388CF8D8A8F8C438810E58830E5FB2256
:1029D3005388CF758AE8758CFF438810E58830E506
:0229E300FB22D5
:10299900D2921229D3C2911229D3C2921229D3D227
:0429A900910229D39B
:0C001600C291D2921229D3D2910229D3B8
:10294E00E4FEEF339291122A09EF25E0FF1229D30C
:09295E000EBE08EED2910229D34D
:1028D400E4FFFEEF25E0FFD2921229D3A291E43364
:1028E4004207C2921229D30EBE08E8D2911229D30C
:0128F40022C1
:10003E00AD07E4FC1229997FF012294E120052AF3F
:04004E000512294E20
:10005200E4FF7E01D291EE600CA291E433FE0FBF69
:0D006200FFF47F0022122A0C1229D37F0127
:01006F00226E
:0A2A4800C292C291122A090229D39A
:1029670012003E1229997FF1122A141228D4AC07BB
:08297700120052120016AF0419
:01297F002235
:1029E500AC071229997FF0122A14AF04120047028E
:0229F5000016CA
:062864008B4C8A4D894EE9
:10286A0012003EECC3954F5015AB4CAA4DA94E8CA5
:10287A0082758300120EA2FF122A140C80E5020050
:01288A001637
:02245B00C111AD
:03007300022A520C
:0A2A520053C17F43C18053917F32CE
:03003B000221435C
:10214300C0E0C0F0C083C082C0D075D000C000C062
:1021530001C002C003C004C005C006C00720C2738B
:10216300E5C054F0603124F0605724D0606B24F054
:10217300605524307055C2C5E5C254FEFFBFA41399
:10218300E5C230E007121DF88FC28003751C00D230
:10219300C18046C2C1804285C21EAF1C051C748526
:1021A3002FF582E43402F583E51EF0E51CB4010D3E
:1021B300E51EC394644006751D001223AED2C18090
:1021C30018D211C2C48012C2C4800E53C17F43C14E
:1021D300808000C2C5C2C4C2C1C2C0D007D006D06D
:1021E30005D004D003D002D001D000D0D0D082D00B
:0621F30083D0F0D0E032C1
:101DF800E51B249B7003021EC3147003021ECB2430
:101E080066B40D004003021EDB901E18F8282873E4
:101E1800021E3F021E4E021E5C021EDB021EDB0279
:101E28001E6A021E6E021E75021E7C021E8B021E98
:101E380099021EA7021EB5AE1D051D740B2EF58254
:101E4800E43402021ED7AF1D051D74162FF582E477
:101E58003402807BAF1D051D74362FF582E43402F1
:101E6800806DAF2D806D9001FEE0FF80669002349A
:101E7800E0FF805FE4FF300C010F300D5674102F27
:101E8800FF8050AF1D051D74642FF582E434028075
:101E98003EAF1D051D74432FF582E434028030AF38
:101EA8001D051D74592FF582E434028022AF1D05EB
:101EB8001D744E2FF582E4340280149023ADE49310
:101EC800FF8010AF1D051D746F2FF582E43402F5F5
:031ED80083E0FFA5
:011EDB0022E4
:10293300253032643A253032643A25303264001F40
:0B2943001C1F1E1F1E1F1F1E1F1E1F3B
:10245D00C18E4101EF004101B1004101B6004102C1
:10246D00350041022200C10CC10D4101FE004102A7
:10247D0003004401B2000000004401B70000000059
:08248D00410234004101E000AE
:1004F900EE3395E0FDFCE0F8A3E0F9A3E0FAA3E010
:100509002FFBEA3EFAE93DF9E83CF8AF53EF3395A2
:10051900E0FEFDFCEB2FF55BEA3EF55AE93DF559A6
:10052900E83CF5587B807A5179017800AF5BAE5A87
:10053900AD59FC121009E47B207A0AF9F8120F7EF2
:100549008E4F8F507B807A5179017800AF5BAE5A1C
:10055900AD59AC581210097B807A51790178001293
:100569000F7EA804A905AA06C3E55B9FF55BE55ABA
:100579009AF55AE55999F559E55898F558E47B10D3
:100589007A0EF9F8AF5BAE5AAD59AC58121009E4BE
:100599007B6CFAF9F8120F7EEF2550F550EE354FC6
:1005A900F54FE47B107A0EF9F8AF5BAE5AAD59AC52
:1005B90058121009E47B107A0EF9F8120F7EA8047C
:1005C900A905AA06C3E55B9FF55BE55A9AF55AE5C5
:1005D9005999F559E55898F558E47B3CFAF9F8AF7B
:1005E9005BAE5AAD59AC58121009E47B02FAF9F81E
:1005F900120F7EEF2550F550EE354FF54FE47B583D
:100609007A02F9F8AF5BAE5AAD59AC58121009E449
:100619007B02FAF9F8120F7EC3E5509FF550E54FBA
:100629009EF54FE47B3CFAF9F8AF5BAE5AAD59AC95
:1006390058121009E47B3CFAF9F8120F7EA804A9B4
:1006490005AA06C3E55B9FF55BE55A9AF55AE55994
:1006590099F559E55898F55874022550F550E4353F
:100669004FF54FFEAF503395E0FDFC7BE07AA5795D
:100679000178001226A2EF2551F551AE4FAF50EE89
:100689003395E0FDFC7BE07AA5790178001226A27A
:100699007BE07AA579017800120F7EC3E5509FF5BA
:1006A90050E54F9EF54FFEAF507C077D08120F486D
:1006B900EF2552F5527C077D08120EE1C3E5509FE4
:1006C900F550E54F9EF54FFEAF507C007D1E120F91
:1006D90048EF2553F5537C007D1E120EE1C3E5500A
:1006E9009FF550E54F9EF54F229001D8E0FEA3E01B
:1006F900FF7C007D8F120EF3AE04AF05E4FCFD7B99
:10070900807A3A7909F8120F7E8F4E8E4D8D4C8C76
:100719004B9001FFE0FCA3E0FDA3E0FEA3E0227EF5
:10072900007F077D007B0112110F7E0022AE14AFFE
:1007390015FCFD7B147A447902F8120F7EE51A2F15
:10074900F51AE5193EF519E5183DF518E5173CF5D3
:10075900177F207EEE7DD97C08AB1AAA19A918A8A3
:1007690017227D007E00785C7C007B017A02790487
:100779007F07020E417F077D007B0102110F7E007A
:100789007F047D007B0102110FAF6BEF3395E0FE13
:1007990074412FF58274293EF583E4932290020473
:1007A900E0FEA3E0FF7C007D04120F48ED4C22E03F
:1007B900FF3395E0F5518F52A3E0FF3395E0F553F0
:1007C9008F54A3E0FF3395E022FF121009AC00AD6E
:1007D90001AE02AF03227E007F0B7D007B01021177
:1007E9000F0553E51A2420F51AE51934EEF519E534
:1007F9001834D9F518E5173408F51722E51A943491
:10080900F51AE5199432F519E51894DCF518E51788
:100819009408F5171553227B017A0179FE22FF12FC
:100829001009E47B3CFAF9F8121009C3E5539BF56A
:1008390053900235E0222401FFE43EFEE43DFDE44D
:100849003C22FF121009C3E5529FF552E47BE97A75
:1008590003F9F8227563017564017565E1855166CF
:1008690085526722254EF54EEE354DF54DED354C49
:10087900F54CEC354BF54B2278517C007D007B0122
:100889007E007F03020E41E4F54FF550AF52EF337E
:1008990095E0FE7C007D3C020EE1E51AF0A3E51926
:1008A900F0A3E518F0A3E517F0900235E0227F07E1
:1008B9007B0102110FE0FCA3E0FDA3E0FEA3E0F53C
:1008C9001A8E198D188C17223395E0FCD3ED9F747D
:1008D90080F86C98227F347E327DDC227E007F0393
:1008E9007D007B0102110F74FFF51AF519F518F552
:1008F90017229001E5E0FF900221E0229001E6E055
:10090900FF900224E0227563017564017565E82290
:100919009001ECE0FF900223E0229001EDE0FF90CE
:0E0929000225E022754EFF754F2975503322CE
:1029F700EF75F00A84AEF0EF75F00A84C454F04E18
:012A0700FFCF
:012A080022AB
:10249C0090020AE004F0E0643C7066F0900209E0FF
:1024AC0004F0E0643C705AF0900208E004F0E06440
:1024BC0018704EF0900207E004F01207A6700EA3FD
:1024CC00E0B40209A3E0641E701F0480159002069C
:1024DC00E0FF120795FF900207E0FD1208D14009BA
:1024EC007401F0900206E004F0900206E0B40D11C5
:1024FC007401F0900205E004F07006900204E00410
:02250C00F022BB
:101CDC0078697C007D007B007A00795C7E007F0750
:101CEC00120E41E568256FF56FC364809480500A2D
:101CFC00156E743C256FF56F8016D3E56F64809478
:101D0C00BB400D056EE56F75F03C120E6785F06FEC
:101D1C00E567256EF56EC364809480500A156D746A
:101D2C003C256EF56E8016D3E56E648094BB400D39
:101D3C00056DE56E75F03C120E6785F06EE5662557
:101D4C006DF56DC364809480500A156C7418256D04
:101D5C00F56D8016D3E56D64809497400D056CE5A8
:101D6C006D75F018120E6785F06DC3E56C64809488
:101D7C0081502C156B1207A6700AE56BB402057521
:101D8C006C1D8005120792F56CC3E56B6480948121
:101D9C005033E56A156A70021569756B0C80261252
:101DAC0007A67010E56BB4020BD3E56C6480949DB0
:101DBC004013800C120792FFAD6CED1208D1400558
:101DCC00056B756C01D3E56B6480948C400B056AD4
:101DDC00E56A70020569756B01A865AC64AD637B3F
:0C1DEC00007A0079697E007F07020E413A
:10093700E4F54FF550F557F556F555F55430901D3C
:100947007B017A027904122980900001E0FCA3E080
:10095700FDA3E0FEA3E0FF9001FF1210AC12249C60
:1009670012071A12083FFC7B807A3A79097800123D
:1009770007D39001FF1210AC9001B212071D1208A5
:100987003FFC9001B21210AC9001B712071D12087C
:100997003FFC9001B71210ACE4FFFEFDFC9001FF95
:1009A700E0F8A3E0F9A3E0FAA3E0FBC312109B7001
:1009B7000E9001D9E004F070069001D8E004F090A1
:1009C7000005E0FCA3E0FDA3E0FEEC33900005503A
:1009D70014A3A3A3E02478FFEE34ECFEED34FFFD6F
:1009E700EC34FF800C12071D2488FFEE3413120825
:1009F70044FCE47B107A27F9F81226A29001EFEF66
:100A0700F01206F212086DE54E5403F54EE4F54D6B
:100A1700F54CF54BFFFEFDFCAB4EAA4DA94CA84B80
:100A2700C312109B700CFB7A0079297D0112000616
:100A3700800B7B007A0079297D01122A3A1206F28F
:100A470012086DAF4EAE4DAD4CFC1208551207D3D0
:100A57008F4E8E4D8D4C8C4B8E148F157A0179DA13
:100A6700120881300C020551900235E054036402EC
:100A7700703A9001B1F07B9C7AEAF9F8A312071D4E
:100A870012084B9001B212071D12082730E22412F8
:100A970008909001B21204F9C3648094805005E471
:100AA700F54FF5509001B1E550F08007E4F553900C
:100AB70001B1F09001D01208BE9001D0E0FCEC33F8
:100AC70050031207EA900235E054036402702812BB
:100AD7000736D312109B40101208DE12076012105F
:100AE7009B50051208F0800F1208DE120760C31230
:100AF700109B40031208059001B1E004F0E0C39495
:100B07001E500B12076B12085D8553688012E49024
:100B170001B1F0FDFE12076F12085DE55304F56899
:100B2700121CDC9001C21208A35403640270559092
:100B37000203E0540F6401701A9001E7E070451258
:100B470008FB6F703F1209056F7039FD120D617D4B
:100B570001802E900203E0540F640270279001E792
:100B6700E070211208FBB5071B120905B5071590A0
:100B770001B21210B8000000007B017A027934E458
:100B8700FD1200069001E5E0FF1229F79001A9EF99
:100B9700F09001E6E0FF1229F79001AAEFF090012B
:100BA700E7E0FF1229F79001ABEFF09001B1E0FF0A
:100BB7001229F79001ACEFF07A0179DD1208813044
:100BC7000D020551900235E054306420703A9001CF
:100BD700B6F07B9C7AEAF9F8A312071D12084B902E
:100BE70001B712071D12082730E62412089090015A
:100BF700B71204F9C3648094805005E4F54FF550AB
:100C07009001B6E550F08007E4F5539001B6F090F7
:100C170001D41208BE9001D4E0FCEC335003120754
:100C2700EA900235E0543064207028120736D31258
:100C3700109B40101208DE12076012109B5005121D
:100C470008F0800F1208DE120760C312109B4003E2
:100C57001208059001B6E004F0E0C3941E500E128E
:100C6700076B12090F1208668553688021E490010B
:100C7700B6F0785C7C00FD7B017A027904FE7F0781
:100C8700120E4112090F120866E55304F568121C8B
:100C9700DC9001CA1208A3543064207056900203F6
:100CA700E054F06410701B9001EEE07046120919D1
:100CB7006F70401209236F703A7D04120D617D0534
:100CC700802E900203E054F0642070279001EEE03C
:100CD7007021120919B5071B120923B507159001D1
:100CE700B71210B8000000007B017A0279347D0446
:100CF7001200069001ECE0FF1229F79001ADEFF02A
:100D07009001EDE0FF1229F79001AEEFF09001EEB0
:100D1700E0FF1229F79001AFEFF09001B6E0FF1264
:100D270029F79001B0EFF09000D9E0B4072B300E0F
:100D370028E47B587A02F9F812071A1207D29001B1
:100D4700B21210ACE47B587A02F9F812071A1207AC
:090D5700D29001B71210ACC20EDB
:100D6000227B017A0279341200067B017A027934FF
:010D70002260
:101B9F009001E6E06003021C37A3E06003021C37EC
:101BAF00900228E0FF9001E3E06F7035900229E08A
:101BBF00FF9001E4E06F702990022AE0FF9001E5A9
:101BCF00E06F701D900222E0540324FE600A04703F
:101BDF0057120820E4FD803FD20C120820E4FD804C
:101BEF00449001F2E0FF9001E3E06F703B9001F34E
:101BFF00E0FF9001E4E06F702F9001F4E0FF90019F
:101C0F00E5E06F7023900222E0540324FE600F047E
:101C1F0070161208207D01121CD27D028007C20CA3
:101C2F001208207D011200069001EDE06003021CF6
:101C3F00D1A3E06003021CD190022FE0FF9001EAD4
:101C4F00E06F7036900230E0FF9001EBE06F702A8A
:101C5F00900231E0FF9001ECE06F701E900222E0E5
:101C6F00543024E0600B241070581208207D04803B
:101C7F0040D20D1208207D0480459001F9E0FF90BD
:101C8F0001EAE06F703C9001FAE0FF9001EBE06F2A
:101C9F0070309001FBE0FF9001ECE06F7024900238
:101CAF0022E0543024E06010241070161208207DBA
:101CBF0005121CD27D068007C20D1208207D051269
:0D1CCF000006221200067B017A0179FE2238
:10250E009001E0E0FD30E01A9001FEE0FE30E004C4
:10251E00D20C8006EE30E102C20CEE54F89001FEB1
:10252E00800E9001E0E0FD30E10E9001FEE054F8E7
:10253E00F0ED54FC9001E0F09001E0E0FD30E41A83
:10254E009001FEE0FE30E404D20D8006EE30E5028E
:10255E00C20DEE548F9001FE800E9001E0E0FD3032
:10256E00E50E9001FEE0548FF0ED54CF9001E0F0B7
:01257E00223A
:1028380012092D9001E51207B8F5558F567B017ADC
:1028480002790B1211A712092D9001EC1207B8F5A5
:0C285800558F567B017A0279160211A7F9
:10257F009001EFE09001BBF0A3E515F0A3E514F097
:10258F009001A9E09001BEF09001AAE09001BFF088
:10259F009001ABE09001C0F09001ACE09001C1F070
:1025AF009001ADE09001C6F09001AEE09001C7F050
:1025BF009001AFE09001C8F09001B0E09001C9F038
:1025CF00900235E09001CEF0A3E529F07B017A016E
:0A25DF0079BB754F15E4FF02286474
:10207F00E49001EFF09001B21210B8000000009050
:10208F0001B71210B800000000E49001FEF09002BA
:10209F0034F09001E0F0900235F0FEFD7A02790401
:1020AF001208B77A0179E11207287A0179E8120745
:1020BF007E7A0179A91207877A0179AD1207877A9B
:1020CF0002790B1207DF7A0279161207DFC20CC2F0
:1020DF000DE49001B1F09001B6F09001FF1210B82D
:1020EF0000000000E49001D8F0A3F0FE7F07FD7B15
:1020FF00017A02792612110F7A0179F01207287DE1
:10210F00007A02792D1208B77E007A0179F712074B
:10211F007E7A0179DA1208E57A0179DD1208E59005
:10212F0001D01210B8000000009001D41210B800B6
:04213F00000000227A
:1027A300E47B587A02F9F89001FFE0FCA3E0FDA373
:1027B300E0FEA3E0FF121009AC00AD01AE02AF03CF
:1027C30022E054F0FFF0900286E022900286E07B44
:0627D300017A0179E02209
:1014A700E4F54B900285E01210E9153600155E074A
:1014B70015670815700915790A15820B15C30C15E0
:1014C700CC0D15D50E15DE0F15E71015F01115F912
:1014D70012160313160C14161515161F16162817B1
:1014E70016311B163A1C16431D164C1E16551F1691
:1014F700992016AB2116B42216BD2316C62416CF83
:101507002516E12616EB2716F42816FD2917072AB4
:1015170017102B171932172633173434173C351782
:10152700453617643717843817A43E000017DA903A
:101537000286E07B007A007929B40507E4FD1200F2
:10154700068005E4FD122A3AAD297F141229E5AB7E
:1015570029E4FDFF02276C900286E09001D3F02278
:10156700900286E09001D2F022900286E09001D1AD
:10157700F022900286E09001D0F022900235E054EC
:10158700F0F0900286E014601314601814601D14C4
:101597006022240460030217DA021673900235E012
:1015A7004401F022900235E04406F022900235E033
:1015B7004402F022900235E04403F0229002031225
:1015C70027C40216A5900286E0900221F02290021D
:1015D70086E0900224F022900286E09001DAF02261
:1015E700900286E09001DBF0229002221227C402CB
:1015F70016DB900286E004900228F022900286E033
:10160700900229F022900286E090022AF0229002AE
:1016170086E0049001F2F022900286E09001F3F058
:1016270022900286E09001F4F022900286E0900179
:10163700D7F022900286E09001D6F022900286E051
:101647009001D5F022900286E09001D4F02290021A
:1016570035E0540FF0900286E014601614601B14F6
:101667006020146025240460030217DA900235E035
:10167700F022900235E04410F022900235E04460F9
:10168700F022900235E04420F022900235E0443009
:10169700F022900203E0540F1227C7C454F04F9072
:1016A7000203F022900286E0900223F02290028645
:1016B700E0900225F022900286E09001DDF0229072
:1016C7000286E09001DEF022900222E0540F1227FA
:1016D700C7C454F04F900222F022900286E0049093
:1016E700022FF022900286E0900230F022900286CC
:1016F700E0900231F022900286E0049001F9F02296
:10170700900286E09001FAF022900286E09001FBB9
:10171700F0221227CE6004E4FD800F7D01800B12BA
:1017270027CE60047D0480027D050200061227A3F0
:101737009001B280061227A39001B70210AC900265
:1017470086E0B401091227A39001B21210AC7B0105
:101757007A027934E4FD1217DB7D01801D90028641
:10176700E0B401091227A39001B71210AC7B017AEC
:101777000279347D041217DB7D05022A3A9002862E
:10178700E0FF30E004D20C8006EF30E102C20CEF3C
:1017970030E403D20D22EF30E539C20D22786F7C99
:1017A700027D017B017A0279867E007F0B120E4152
:1017B700E4F54BE54B24C8FD746F254BF582E43403
:1017C70002F583E0FBE4FF12276C054BE54BC3945E
:0317D7000B40E0E4
:0B17DA0022122A3A7B017A02793422A5
:1023AE00900285E02437606B14606C2466B40D00D7
:1023BE0050689023CE75F003A4C58325F0C58373B2
:1023CE000223F50223F90223FD0224280224280207
:1023DE00240102240502240902240D0224110224E0
:1023EE001502241902241DE4F51B22751B0122750A
:1023FE001B0222751B0522751B0622751B072275F3
:10240E001B0822751B0922751B0A22751B0B2275D0
:0B241E001B0C22751B6522751B66223B
:062495000170000171005E
:082A66008F993099FDC29922FD
:0300230002280AA6
:10280A00C0E0C083C082C0D030981A74952570F594
:10281A0082E43402F583E599F0C2980570E570B454
:0E282A000803757000D0D0D082D083D0E03289
:1027D900E4FFE570B5710A0FBFFFF7E4120ECFFFF2
:1027E90022C2AC74952571F582E43402F583E012B6
:1027F9000ECF0571E571B40803E4F571D2AC7F0120
:0128090022AC
:101A0500061D1C0001000000000000000000000091
:101A15000000000010270000201C000090D00300EB
:101A250000000000000000000000000000000000B1
:101A350000000000000000000000000000000000A1
:101A45000000000000000000000000000000000091
:101A55000000000000000000000000000000000081
:101A65000000000000000000000000000000000071
:101A75000000000000000000000000000000000061
:101A85000000000000000000000000000000000051
:101A95000000000000000000000000000000000041
:101AA5000000000000000000000000000000000031
:101AB5000000000000000000000000000000000021
:101AC50000000000000000000000000006001400F7
:101AD50001000000D0080800802500000700010073
:101AE50000000000000000000000000000000000F1
:101AF50000000000000000000000000000000000E1
:101B050000000000000000000000000000000000D0
:101B150000000000000000000000000000000000C0
:101B250000000000000000000000000000000000B0
:101B350000000000000000000000000000000000A0
:101B45000000000000000000000000000000000090
:101B55000000000000000000000000000000000080
:101B65000000000000000000000000000000000070
:101B75000000000000000000000000000000000060
:101B85000000000000000000000000000000000050
:0A1B95000000000000000000B5622F
:1025E900FFEA3EFEE93DFDE83CFC9000051210AC17
:1025F900900005E0F8A3E0F9A3E0FAA3E0FB22AB21
:102609004EAA4FA950120EA2250AF50A250BF50B61
:1026190022050C74102510F582E43400F583E022BC
:10262900EFF0EDA3F0E4A3F0A322AB4EE5502404B0
:10263900F9E4354FFA22E0FCA3E0FDA3E0FEA3E0B4
:0826490022FEE07C00240022C7
:101EDC0074102510F9E43400FA7B011227D9EF7045
:101EEC0003021FB4E50F702FE50C901B9D93FF129E
:101EFC00261CB50704050C8003E4F50C0510E50C55
:101F0C0064026003021FB4F50CF510750F01F50A9D
:101F1C00F50BF508F50922E50F6401702412261A59
:101F2C00122611E50CB40416900013E09000121266
:101F3C00264AF509EC3EF508750F02E4F50C051080
:101F4C0022E50F6402701D12261A122611E50CB43C
:101F5C00C803E4F50FE50CB50907E4B50803750FE4
:101F6C0003051022E50F6403703E050CE5092402FD
:101F7C00FFE43508FE7C00EFB50C2BECB50627E42E
:101F8C00F50CF510F50FAF0974142FF582E434003D
:101F9C00F583E0B50A1074152FF582E43400F5834F
:091FAC00E0B50B02D21005102271
:1017E5007B017A0079DD1229159000DDE014604552
:1017F50024FC700302195724F870030219662403A8
:101805006003021A019000DEE024F76003021A0467
:101815009000F2E09000F112264AF50EEC3EF50D2F
:10182500D3E50E9512E50D95115003021A04850DA9
:1018350011850E12229000DEE024DF70030218EC01
:1018450024F1700302193424106003021A04900075
:10185500EBE09000DAF09000E1E0900004F09000F9
:10186500E2E0900003F09000E3E0900002F09000C9
:10187500E4E0900001F012263F24F4FFEE3401FE6F
:10188500E43DFDE43CFCE47BE87A03F9F812100939
:101895009000011210AC90000112263FFFC0079086
:1018A50000DAE0FB3395E0FAF9F8D007C3EF9BFFC8
:1018B500EE9AFEED99FDEC98FC9000011210AC90AB
:1018C50000E9E0FF9000DBE4F0A3EFF09000EAE030
:1018D500FE9000DCE02400F09000DBE03EF090009C
:1018E500ECE09000D8F0229000EEE0FE9000EDE0F4
:1018F5007C002400FFEC3E900009F0A3EFF090007F
:10190500EFE090000BF09000F0E090000CF09000FC
:10191500F1E090000DF09000F2E090000EF09000E4
:10192500F3E090000FF09000F4E09000D9F02275FC
:101935004E0CE4FF74E1254EF582E43400F583E0B6
:10194500FE743B2FF8A606740C254EF54E0FBF10FE
:10195500E3229000DEE06006147003D20F22C20F6E
:10196500229000DEE024FC70030219F824036003D2
:10197500021A049000E9E0FFE4FCFDFE1225F39055
:1019850000EAE07F00FE3395E0FDFCEF2B1225E930
:10199500C000C001C002C0039000EBE07E007810DB
:1019A500C333CE33CED8F9FFEE3395E0FDFCD0033B
:1019B500D002D001D000EB2F1225E9C000C001C034
:1019C50002C0039000ECE07E007818C333CE33CE1E
:1019D500D8F9FFEE3395E0FDFCD003D002D001D05D
:1019E50000EB2FFFEA3EFEE93DFDE83CFC900005DB
:0F19F5000210AC9000F9E0900000F022E4F54EF3
:011A040022BF
:102A2A009000DD122629F07B017A0079DD0221F976
:1021F9008B4E8A4F8950E4F50AF50B900002120EB6
:10220900A2750800F5097FB5122A667F62122A664F
:10221900AB4EAA4FA950120E8912229B120E89F5B4
:102229000AF50B900001120EA2FF122A6690000116
:10223900122608900002120EA2FF122A66900002CE
:10224900122608900003120EA212229B900003127C
:10225900260EE4F510AF107E00C3EF9509EE950840
:102269005026122633E92FF9EE3AFA120E89FF1297
:102279002A661226337E00E92510F9EE3AFA120E83
:1022890089122611051080CDAF0A122A66AF0B02FA
:0D2299002A66FF122A66AB4EAA4FA95022FA
:102915008B4F8A508951E5092404FFE43508FEA848
:0E29250001AC02AD037B017A007910020E4175
:101FB500E4F54D9000051210B800000000E4900013
:101FC50000F0A31210B800000000E49000DBF0A3BD
:101FD500F09000D8F09000DAF09000D9F0F50AF50D
:101FE5000BF510F50CF508F509C210C20FFE7FC8F8
:101FF500FD7B017A00791012110F200F3AE54DC3D0
:1020050094055033E4F54BF54C7BFF7A1A79D112E0
:1020150021F9201019E54C64E87004E54B64036070
:102025000D054CE54C7002054B121EDC80E4054D98
:102035001217E5C21080C3E54DB405037F0022C227
:102045000F7BFF7A1A79051221F97B017D017F0D3E
:102055001228B27B017D207F011228B27B017D21F0
:102065007F011228B27B0B7D307F011228B27B0ADB
:092075007D047F0D1228B27F01E9
:01207E00223F
:1028B2009000DD7406F0A37401F0740612262C1247
:1028C2002629EBF0E4A3F0A3F07B017A0079DD0284
:0228D20021F9EA
:102980008B5C8A5D895EA801AC02AD037B017A0095
:0929900079097E007F07020E4167
:072A6E0053D9BFE4F5D922A2
:1029AD00758845758920758D987591047592AF75EB
:0329BD00933C2226
:042A7500759810221E
:042A790075C1892278
:1029C00075F1F375A5F975A6BF75D40C75E105759C
:0329D000E24022C0
:1028F500E4FFFE75B9800FBF00010EEF64144E7042
:0F290500F543B9C0E5B930E5FB75A90275B2839A
:0129140022A0
:0A2A5C0075E60175E47F75A8952268
:10002600122A6E1229AD122A75122A791229C012C5
:0500360028F5022A5C20
:030000000222A633
:0C22A600787FE4F6D8FD7581710222ED0E
:100D7100E709F608DFFA8046E709F208DFFA803E64
:100D810088828C83E709F0A3DFFA8032E309F60851
:100D9100DFFA8078E309F208DFFA807088828C83B9
:100DA100E309F0A3DFFA806489828A83E0A3F6086D
:100DB100DFFA805889828A83E0A3F208DFFA804C47
:100DC10080D280FA80C680D4806980F2803380101E
:100DD10080A680EA809A80A880DA80E280CA803387
:100DE10089828A83ECFAE493A3C8C582C8CCC583FF
:100DF100CCF0A3C8C582C8CCC583CCDFE9DEE780CF
:100E01000D89828A83E493A3F608DFF9ECFAA9F04D
:100E1100EDFB2289828A83ECFAE0A3C8C582C8CCA3
:100E2100C583CCF0A3C8C582C8CCC583CCDFEADEBC
:100E3100E880DB89828A83E493A3F208DFF980CC1E
:100E410088F0EF60010E4E60C388F0ED2402B40417
:100E51000050B9F582EB2402B4040050AF232345BE
:060E61008223900DC17315
:100E6700C2D530F707B2D563F0FF05F030E70CB213
:100E7700D5F4048463F0FF05F080018430D502F4D3
:020E8700042243
:100E8900BB010689828A83E0225002E722BBFE0267
:090E9900E32289828A83E493229A
:100EA200BB010CE58229F582E5833AF583E0225005
:100EB20006E92582F8E622BBFE06E92582F8E2224F
:0D0EC200E58229F582E5833AF583E4932269
:100ECF00BB010689828A83F0225002F722BBFE0102
:020EDF00F322FC
:100EE100EF8DF0A4A8F0CF8CF0A428CE8DF0A42E25
:020EF100FE22DF
:100EF300BC000BBE0029EF8DF084FFADF022E4CCE3
:100F0300F875F008EF2FFFEE33FEEC33FCEE9DECAB
:100F1300984005FCEE9DFE0FD5F0E9E4CEFD22EDF1
:100F2300F8F5F0EE8420D21CFEADF075F008EF2F3B
:100F3300FFED33FD4007985006D5F0F222C398FD2C
:050F43000FD5F0EA22C9
:100F4800C2D5EC30E709B2D5E4C39DFDE49CFCEEC4
:100F580030E715B2D5E4C39FFFE49EFE120EF3C33B
:100F6800E49DFDE49CFC8003120EF330D507C3E436
:060F78009FFFE49EFE2233
:100F7E00E88FF0A4CC8BF0A42CFCE98EF0A42CFC12
:100F8E008AF0EDA42CFCEA8EF0A4CDA8F08BF0A490
:100F9E002DCC3825F0FDE98FF0A42CCD35F0FCEBEF
:100FAE008EF0A4FEA9F0EB8FF0A4CFC5F02ECD39B4
:0F0FBE00FEE43CFCEAA42DCE35F0FDE43CFC2221
:100FCD0075F008758200EF2FFFEE33FECD33CDCCDB
:100FDD0033CCC58233C5829BED9AEC99E58298405E
:100FED000CF582EE9BFEED9AFDEC99FC0FD5F0D63B
:100FFD00E4CEFBE4CDFAE4CCF9A88222B800C1B965
:10100D000059BA002DEC8BF084CFCECDFCE5F0CBA2
:10101D00F97818EF2FFFEE33FEED33FDEC33FCEBDB
:10102D0033FB10D703994004EB99FB0FD8E5E4F996
:10103D00FA227818EF2FFFEE33FEED33FDEC33FC83
:10104D00C933C910D7059BE99A4007EC9BFCE99A77
:10105D00F90FD8E0E4C9FAE4CCFB2275F010EF2FBC
:10106D00FFEE33FEED33FDCC33CCC833C810D707BC
:10107D009BEC9AE899400AED9BFDEC9AFCE899F8F7
:0E108D000FD5F0DAE4CDFBE4CCFAE4C8F9228A
:1026A200C2D5E830E70FB2D5E4C39BFBE49AFAE463
:1026B20099F9E498F8EC30E717B2D51226D812103F
:1026C20009E4C39BFBE49AFAE499F9E498F88003DD
:1026D20012100930D50DE4C39FFFE49EFEE49DFD78
:0426E200E49CFC2256
:10109B00EB9FF5F0EA9E42F0E99D42F0E89C45F0AB
:0110AB002222
:0C10AC00ECF0A3EDF0A3EEF0A3EFF022B7
:1010B800A8828583F0D083D0821210CF1210CF126D
:1010C80010CF1210CFE473E493A3C583C5F0C58392
:1010D800C8C582C8F0A3C583C5F0C583C8C582C882
:0110E80022E5
:1010E900D083D082F8E4937012740193700DA3A396
:1010F90093F8740193F5828883E4737402936860AA
:06110900EFA3A3A380DFA9
:10114B00E55A244EF8E6055A22784B300702784EC2
:10115B00E475F00112113B020E892000EB7F2ED2B9
:10116B00008018EF540F2490D43440D4FF30040B7C
:10117B00EF24BFB41A0050032461FFE55B60021536
:10118B005B055EE55E7002055D30070D784BE4751F
:10119B00F00112113BEF020ECF02288B7403D20722
:1011AB008003E4C207F55A8B4B8A4C894DE4F55BFF
:1011BB00F55DF55EE55B60077F2012118680F575A6
:1011CB005CFFC201C200C202C203C205C206C20852
:1011DB00121154FF700D3007057F00121197AF5E8F
:1011EB00AE5D22B4255FC2D5C204121154FF24D0C8
:1011FB00B40A00501A75F00A785B30D50508B6FFB3
:10120B000106C6A426F620D5047002D20380D92489
:10121B00CFB41A00EF5004C2E5D204021397D201E7
:10122B0080C6D20080C0D20280BCD2D580BAD20593
:10123B0080B47F201211862002077401B55B004039
:10124B00F112114BFF1211860211BFD208D2068088
:10125B009512114BFB12114BFA12114BF94A4B70B1
:10126B000679687A147BFF20022EE55B602A7E00EC
:10127B008E82758300120EA260060EEE655C70F016
:10128B00C2D5EBC0E0EAC0E0E9C0E0EE1213DED05D
:10129B00E0F9D0E0FAD0E0FB120E89FF60AAEBC0B8
:1012AB00E0EAC0E0E9C0E0121186D0E02401F9D0F9
:1012BB00E03400FAD0E0FBE55C0460DCD55CD9805F
:1012CB00877BFF7A1379DAD202809C7910800279BE
:1012DB0008C206C2088008D2D5790A8004790AC2EE
:1012EB00D5E55C047002F55CE4FAFDFEFF12114BD0
:1012FB00FC7B0820011312114BFD7B1030000A12EE
:10130B00114BFE12114BFF7B20EC3382D592D55043
:10131B0013C3E43000069FFFE49EFEE42001039D0F
:10132B00FDE49CFCE4CBF8C201EC700CCFCECDCC31
:10133B00E824F8F870F38017C3EF33FFEE33FEEDBC
:10134B0033FDEC33FCEB33FB994002FB0FD8E9EB9D
:10135B00300105F8D0E0C448B201C0E00AEC4D4EB4
:10136B004F78207B0070C2EAB55C0040BCC0E01235
:10137B0013E0D0F0D0E0200104C4C0E0C4B201C03F
:10138B00F012116FD0F0D5F0EB0211BF1210E91271
:10139B005C5312D658122D4C12294212DA4F12E21C
:0F13AB004412E24912424312E85512CC4612CCCA
:1013BA004512CC4714885012312D12352E12582B53
:1013CA0012392312562014712A11F14800001250C2
:1013DA003F3F3F00790AA2D5200314300509B9100E
:1013EA00020404B9080104A2D5200602500104200F
:1013FA0002689202B55B005034C0E07F20300319C6
:10140A007F30A20272067205500F121437C202C24E
:10141A0006C205C2087F30800F300503E9C0E0121A
:10142A001186300503D0E0F9D0E0B55BCC30051762
:10143A007F30B9100C1211867F583004077F7880EC
:10144A0003B908031211863002057F2D0211867F27
:10145A00202008F87F2B2006F322920280CF286EE4
:10146A00756C6C2900D20112114B3001F8C2017857
:10147A005B30D50108F60211F12D5043495812117B
:10148A004B2403B405004001E490148393121177AE
:0D149A00743A121177D203755B040212D66A
:10110F00EF4E6012EF60010EEDBB010B89828A83F7
:10111F00F0A3DFFCDEFA2289F05007F709DFFCA904
:0C112F00F022BBFEFCF309DFFCA9F0225B
:1022B200020076E493A3F8E493A34003F68001F2CC
:1022C20008DFF48029E493A3F85407240CC8C3332D
:1022D200C4540F4420C8834004F456800146F6DFFC
:1022E200E4800B0102040810204080902429E47E3F
:1022F200019360BCA3FF543F30E509541FFEE493F1
:10230200A360010ECF54C025E060A840B8E493A3B7
:10231200FAE493A3F8E493A3C8C582C8CAC583CAE2
:10232200F0A3C8C582C8CAC583CADFE9DEE780BE9A
:01249B000040
:10113B00FAE6FB0808E6F925F0F618E6CA3AF622B5
:10288B00EFB40A07740D122896740A309811A899A0
:10289B00B8130CC2983098FDA899C298B811F630AD
:0728AB0099FDC299F5992285
:00000001FF
