:090ECE003132333400C880010008
:1009B70053D9BF120ED7120E417E017F009000401F
:1009C70074AAF0A3DFFCDEFA7E017F00120DDEC2FF
:1009D70000900147E4F0A3F0A3F0A374FFF0A37421
:1009E7000EF0A374CEF0900ED3E49390014DF090E7
:1009F7000ED4E49390014EF0900ED5E493FF74016A
:100A07009390014FCFF0A3EFF07B007A0079007D40
:100A1700617CEAE4FFFE1202AE120E76D2AFC2A2EA
:050A270012004680FBF7
:100E410075F1FFE4F5A475F2FF75A5FF75F3FF7564
:0C0E5100A63F75D5FF75E10175E2402257
:100E5D00E4F5F1F5F2F5F3F5F4120AA175F1FF756C
:090E6D00F2FF75F3FF75F4012298
:070ED70075B28375EF0422E0
:03008300020892DE
:10089200C0E0C0F0C083C082C0D075D000C000C02C
:0D08A20001C002C003C004C005C006C007AD
:1008AF00751800120073EF30E2617B017A00790056
:1008BF007D4012072C8F17900000E06401702E30DE
:1008CF00001CB2A37B017A007940120E8FAC06ADEB
:1008DF00077B017A007940120579C200802D7B00D9
:1008EF007A0079187D017C00120579801E7516003B
:1008FF00E516C39517501474002516F582E43400DD
:0B090F00F583E0FF120026051680E5CE
:10091A00D007D006D005D004D003D002D001D00031
:0B092A00D0D0D082D083D0F0D0E032DB
:040C80008E198F1A20
:100C8400120EC4400122120D61AE1B051BE51A2E83
:100C9400F582E43519F583EFF0E4B51B08E4B401FB
:100CA40004F51BC322E51B24FFFFE434FFFEE51A11
:100CB4002FF582E5193EF583E0B40D11E51A251BE5
:0E0CC400F582E43519F583E4F0F51BD322C365
:010CD20022FF
:100046007F4D1200267F531200267F3B1200267F2B
:10005600581200267F591200267F3B1200267F4D3C
:0D0066001200267F431200267F3B02002679
:100DDE00758920758E10758D96758B96D28EC298EC
:100DEE00C29975989843A810E4F513F515F514F506
:040DFE0010D20822E5
:10002600C2AC74422514F8A6070514E514B42003DF
:0D003600E4F514300804C208D299D2AC22BF
:03002300020CD3F9
:070CD300C0E0C0D075D0089D
:100CDA0030981574222513F8A699C2980513E513BE
:100CEA0064207027F5138023309920E5106514607D
:100CFA0016C29974422510F8E6F5990510E510B464
:0B0D0A0020097510008004C299D20877
:050D1500D0D0D0E03257
:0A0EC400E51365156002D322C32276
:060EDE00E4F513F51522F6
:100D61007511FF751205E513B5150CD511F875113F
:100D7100FFD512F27F0022C2AC74222515F8E6FFDE
:0C0D81000515E515B42003E4F515D2AC0F
:010D8D002243
:100B0F001201100100000040C41002000000010299
:100B1F0003010902200001010080320904000002D4
:100B2F000000000007050202400000070582024096
:100B3F000000040309041A03530069006C006900E4
:100B4F0063006F006E0020004C00610062007300B4
:100B5F00100355005300420020004100500049008F
:080B6F00040331000100000045
:1002AE00900140EEF0A3EFF0900144EBF0A3EAF0E2
:1002BE00A3E9F043B280E4F5B943B98043B9C090E5
:1002CE000791F000900791E004F0E0B496F5E5B9DF
:1002DE0030E5FB53A90FE59620E7FB759601759760
:1002EE0008E59620E7FB75960775970FE59620E7CC
:1002FE00FB75960975970EE59620E7FB75960B75BF
:10030E00970775D7E0E59620E7FB75960F759780F2
:10031E00E4900793F0900792F0900794F090078680
:10032E00F0900791F0900791E0FF900B0F93FE7401
:10033E00402FF582E43407F583EEF0900791E00448
:10034E00F0E0B412E0E4900791F0900791E0FF9096
:10035E000B2193FE74522FF582E43407F583EEF0F1
:10036E00900791E004F0E0B420E0900140E0FEA39D
:10037E00E04E6008E0900748F0EEA3F0ED4C600808
:10038E0090074AEDF0ECA3F090077274FFF0A3749F
:10039E000BF0A37441F0A374FFF0A3740BF0A374DD
:1003AE0045F0A374FFF0A3740BF0A3745FF0A37475
:1003BE00FFF0A3740BF0A3746FF0900144E0FBA365
:1003CE00E0FAA3E04A4B6012900144A3A3E0F99037
:1003DE000775EBF0A3EAF0A3E9F0900147E0FBA369
:1003EE00E0FAA3E04A4B6012900147A3A3E0F99014
:1003FE000778EBF0A3EAF0A3E9F090014AE0FBA343
:10040E00E0FAA3E04A4B601290014AA3A3E0F990F0
:10041E00077BEBF0A3EAF0A3E9F090014DE0600456
:10042E0090075AF090014EE06004900759F0900149
:10043E004FE0FEA3E04E6008E090074CF0EEA3F014
:10044E0043E602D2AFE59620E7FB7596017597015C
:01045E00227B
:0300430002045F55
:10045F00C0E0C0F0C083C082C0D075D000C000C063
:10046F0001C002C003C004C005C006C007E5962046
:10047F00E7FB759686E59620E7FB900799E597F0E1
:10048F00E030E30BE59620E7FB75960B7597079029
:10049F000799E030E203120D8E900799E030E014D7
:1004AF00900786E0FF64046004EFB406079007929C
:1004BF00E04480F0E59620E7FB759682E59620E70D
:1004CF00FB900799E597F0E030E003120086900764
:1004DF0099E030E22AE59620E7FB75960E759702B4
:1004EF00E59620E7FB759691E59620E7FB90079A36
:1004FF00E597F0E054037007900792E04402F0E5AF
:10050F009620E7FB759684E59620E7FB900799E523
:10051F0097F0E030E229E59620E7FB75960E759788
:10052F0002E59620E7FB759694E59620E7FB90078A
:10053F009AE597F0E030E007900792E04404F090DE
:10054F000794E030E009900792E06003120E02D0AA
:10055F0007D006D005D004D003D002D001D000D0F0
:0A056F00D0D082D083D0F0D0E0326B
:100D8E009007867402F0E59620E7FB75960175973D
:100D9E0001E490078EF0A37403F0A3F0A3F0E490A7
:090DAE000793F090079204F02273
:10008600E59620E7FB75960EE4F597E59620E7FBE7
:10009600759691E59620E7FB90079AE597F0E0FFC5
:1000A60030E210E59620E7FB759611E4F597900788
:1000B6008EF022EF30E410E59620E7FB7596117579
:1000C6009780E490078EF090078EE060030201AC03
:1000D60090079AE020E0030201AC7596204396C093
:1000E600E4900791F0E59620E7FB900791E0247EE7
:1000F600F582E43407F583E597F0900791E004F084
:10010600E0B407E1E59620E7FBE4F596900791E079
:10011600247EF582E43407F583E597F0900781E0C5
:10012600FE900780E07C002400FFEC3E900795F0EF
:10013600A3EFF0900785E0FE900784E02400FFEC33
:100146003E900797F0A3EFF090077FE01209910128
:100156007700017C01018102018603018B05019074
:1001660006019508019A09019F0A01A40B000001E6
:10017600A9120A2C8030120BD1802B12067780260A
:10018600120C298021120003801C1207E08017122E
:100196000D1A8012120B77800D120DB78008120E01
:1001A600A48003120E2490078EE06401600302020D
:1001B600AD90079A7402F0C390078DE094409007C3
:1001C6008CE094004061E59620E7FB759620E4906C
:1001D6000791F0900791E0FFC39440502290078763
:1001E600E0FBA3E0FAA3E0F98F8275830012094EC3
:1001F600F597E59620E7FB900791E004F080D49010
:100206000788E475F04012097B90078DE024C0F062
:1002160090078CE034FFF090078BE02440F09007C5
:100226008AE03400F08052E59620E7FB759620E4DC
:10023600900791F0900791E0FFD390078DE09F9093
:10024600078CE094004026900787E0FBA3E0FAA322
:10025600E0F9900791E0F58275830012094EF59753
:10026600E59620E7FB900791E004F080C790079A97
:10027600E04408F0E490078EF0900797E0FEA3E0D4
:10028600FF90078AE0B50611A3E0B5070C90079A20
:10029600E04408F0E490078EF0E59620E7FB7596BB
:0802A6001190079AE0F5972280
:100E2400E59620E7FB75960EE4F597E59620E7FB3B
:0D0E340075961175972090078E7404F022BA
:100A2C0090077EE0247F60071460082402704A80DF
:100A3C002F802D90078FE0B40309900782E0B40259
:100A4C0002800E900790E0B40316900782E0B48207
:100A5C000F90078774FFF0A3740BF0A37473800DD1
:100A6C0090078774FFF0A3740BF0A37475F09007D4
:100A7C008CE4F0A37402F08003120E2490078EE035
:100A8C0064046010120EA490078E7401F0E49007B9
:050A9C008AF0A3F02226
:100BD100900780E07041900782E0B4021DE5962005
:100BE100E7FB75960E759702E59620E7FB7596145F
:100BF100759780E490078FF08020E59620E7FB75DC
:100C0100960E759702E59620E7FB7596117597404C
:100C1100E4900790F08003120E24E59620E7FB751F
:080C2100960EE4F597020EA403
:10067700900796E030E077900794E030E00854FE6A
:10068700F04402F08007900794E054FDF0E59620CF
:10069700E7FB75960E759702E59620E7FB7596942E
:1006A700E59620E7FB90079AE597F0E030E02DE527
:1006B7009620E7FB759614759710E59620E7FB756E
:1006C7009694E59620E7FB90079AE597F0E030E0EF
:1006D7000BE59620E7FB759614759710900792E047
:1006E7004408F0900794E0FF30E1034401F09007DD
:1006F70095E0FCA3E0FD30E10D9007867406F090CD
:100707000792E04410F0ED30E20D9007867404F094
:10071700900792E04420F0E59620E7FB75960EE4FB
:05072700F597020EA48D
:100C2900900780E07040900782E0B4021BE59620AF
:100C3900E7FB75960E759702E59620E7FB75961406
:100C490075972090078F8019E59620E7FB75960E1A
:100C5900759702E59620E7FB759611759710900731
:100C6900907403F08003120E24E59620E7FB759635
:070C79000EE4F597020EA442
:10000300E59620E7FBE4F596900780E0FFF597EF90
:1000130090078660057403F080037402F0020EA457
:1007E000900781E024FE601B14603B240270699036
:1007F00007877401F0A37407F0A37440F0900740DA
:10080000E0804A9007877401F0A37407F0A3745244
:10081000F0900755E0FE900754E07C002400FFECC8
:100820003E90078C802C900780E075F003A4247222
:10083000F582E43407F583E0FBA3E0FAA3E0F99046
:100840000787EBF0A3EAF0A3E9F0120935FF900760
:100850008CE4F0A3EFF08003120E2490078CE0FEEE
:10086000A3E0FF900797E0FCA3E0FDC39FEC9E5040
:100870000890078CECF0A3EDF090078EE064046024
:1008800010120EA490078E7401F0E490078AF0A372
:02089000F02254
:100D1A00900786E0FFB40414A374FFF0A3740BF0E9
:100D2A00A37473F090078CE4F0A304F0EFB40316F5
:100D3A0090078774FFF0A3740BF0A37475F0900703
:100D4A008CE4F0A304F0120EA490078E7401F0E470
:070D5A0090078AF0A3F022CC
:100B7700900780E0D394004042900792E04440F011
:100B87009007867404F0E490078FF0A3F0E59620B1
:100B9700E7FB75960E759702E59620E7FB759612AB
:100BA700759784E59620E7FB759615759780E5960A
:100BB70020E7FB75960EE4F597800C900786740383
:0A0BC700F090078FF0A3F0020EA4D7
:100DB70090078774FFF0A3740BF0A37475F0900786
:100DC7008CE4F0A304F0120EA490078E7401F0E4F3
:070DD70090078AF0A3F0224F
:100EA40090078EE06404600BE59620E7FB759611CD
:040EB40075974022CC
:100AA10053D7BCE5A95403900791F043A91053A96A
:100AB100FDE4F5B943B22000F5B943B98000000067
:100AC1000000000000000000000000000000000025
:100AD1000000000000000000000000000000000015
:100AE1000000000000000000000000000000000005
:100AF1000000000043B9C0E5B930E5FB900791E083
:0E0B0100F5A953A90FE5D754FC4440F5D722BF
:0E007300900792E0CFE4F022900792E0FF2287
:10072C00900151EBF0A3EAF0A3E9F0900786E0B456
:10073C000606EDD3944040037F0022E59620E7FBAC
:10074C0075960E759702E59620E7FB759694E596DF
:10075C0020E7FB90079AE597F0E020E0030207DD25
:10076C00E59620E7FB759696E59620E7FB900793B8
:10077C00E597F0E0FFEDC39F5006AE05AF06800095
:10078C00900793EFF0E59620E7FB7596E2900793C0
:10079C00E06025FEEB600630E70F7F0022E5962037
:1007AC00E7FBA79709DEF6800F89828A83E59620FE
:1007BC00E7FBE597F0A3DEF5E59620E7FBE4F5967D
:1007CC00E59620E7FB759614E4F597900793E0FF08
:0407DC00227F002256
:10057900900154EBF0A3EAF0A3E9F0900786E0B408
:10058900060DED4C6009D3ED9400EC94104004E4A1
:10059900FEFF22E4FFFE90079AF089828A83C083D6
:1005A900C08290079AE030E003020672E59620E7E0
:1005B900FB75960E759702E59620E7FB759691E512
:1005C9009620E7FB90079AE597F0E030E020E59662
:1005D90020E7FB75960EE4F597E59620E7FB7596FF
:1005E90091E59620E7FB90079AE597F080B4C3ED73
:1005F9009440EC9400401874402FFFE43EFE74C010
:100609002DFD74FF3CFCE490079AF078408011EDD1
:100619002FFFEC3EFE90079A7401F0A805E4FCFD5B
:10062900E59620E7FB759622D082D083EB601130E6
:10063900E71AE59620E7FBE493F597A3D8F480172A
:10064900E59620E7FB879709D8F6800BE59620E722
:10065900FBE0F597A3D8F5C083C082E59620E7FBB8
:0E0669007596117597010205ABD082D08322E1
:100E7600900794E04401F0900792E0600BE596201D
:090E8600E7FB75960B75970F222E
:100E0200D007D007D007D006D005D004D003D00237
:100E1200D001D000D0D0D082D083D0F0D0E0020078
:020E2200832229
:03000000020EB835
:0C0EB800787FE4F6D8FD7581610209B76F
:10093500BB010689828A83E0225002E722BBFE02C0
:09094500E32289828A83E49322F3
:10094E00BB010CE58229F582E5833AF583E022505E
:10095E0006E92582F8E622BBFE06E92582F8E222A8
:0D096E00E58229F582E5833AF583E49322C2
:10097B00C5F0F8A3E028F0C5F0F8E5821582700207
:06098B001583E038F022A4
:10099100D083D082F8E4937012740193700DA3A3F5
:1009A10093F8740193F5828883E473740293686009
:0609B100EFA3A3A380DF09
:100E8F00E4FFFE120935600C0FEF70010E09E970D7
:050E9F00F20A80EF22C1
:00000001FF
