:020000040000FA
:2F000000FFFF627D16FFFFFFFFFFFFFFFFFFFFFFFFFFFFFFFFFFFFFFFFFFFFFFFFFFFFFFFFFFFFFFFFFFFFFFFFFFFFFFFFFFFF08
:2F002F0000000000000000000000000000000000000000000000000000000000000000000000000000000000000002000000BEE2
:2F005E00000000000000000000000000000000000000000000000000000000000000000000000000000000000000000000009ED5
:2F008D0000000000000000000000000000000000000000000000000000000000000000000000000000000000000002000000BE84
:2F00BC0000000240024002400240024002400240024002400240024002400240024002400240024002400240024000400000BEEF
:2F00EB00000002400240024002400240024002400240024002400240024002400240024002400240024002400240024000009EDE
:2F011A0000000000000000000000000000000000000000000000000000000000000000000000000000000000000002000000BEF6
:2F01490000000240024002400240024002400240024002400240024002400240024002400240024002400240024000400000BE61
:2F01780000000240024002400240024002400240024002400240024002400240024002400240024002400240024000400000BE32
:2F01A700000000000000000000000000000000000000000000000000000000000000000000000000000000000000000000009E8B
:2F01D600000000000000000000000000000000000000000000000000000000000000000000000000000000000000000000009E5C
:2F020500000000000000000000000000000000000000000000000000000000000000000000000000000000000000000000009E2C
:2F02340002000000000000000000000000000000000000000000000000000000000000000000000000000000000000000040FA5F
:2F02630002000000000000000000000000000000000000000000000000000000000000000000000000000000000000000040FA30
:2F029200000000000000000000000000000000000000000000000000000000000000000000000000000000000000000000009E9F
:2F02C10002000000000000000000000000000000000000000000000000000000000000000000000000000000000000000040FAD2
:2F02F00002000000000000000000000000000000000000000000000000000000000000000000000000000000000000000040FAA3
:2F031F00000000000000000000000000000000000000000000000000000000000000000000000000000000000000000000009E11
:2F034E00000000000000000000000000000000000000000000000000000000000000000000000000000000000000000000009EE2
:2F037D00000000000000000000000000000000000000000000000000000000000000000000000000000000000000000000009EB3
:2F03AC0002000000000000000000000000000000000000000000000000000000000000000000000000000000000000000040FAE6
:2F03DB0002000000000000000000000000000000000000000000000000000000000000000000000000000000000000000040FAB7
:2F040A00000000000000000000000000000000000000000000000000000000000000000000000000000000000000000000009E25
:2F04390002000000000000000000000000000000000000000000000000000000000000000000000000000000000000000040FA58
:2F04680002000000000000000000000000000000000000000000000000000000000000000000000000000000000000000040FA29
:2F049700000000000000000000000000000000000000000000000000000000000000000000000000000000000000000000009E98
:2F04C600000000000000000000000000000000000000000000000000000000000000000000000000000000000000000000009E69
:2F04F500000000000000000000000000000000000000000000000000000000000000000000000000000000000000000000009E3A
:2F05240002000000000000000000000000000000000000000000000000000000000000000000000000000000000000000040FA6C
:2F05530002000000000000000000000000000000000000000000000000000000000000000000000000000000000000000040FA3D
:2F058200000000000000000000000000000000000000000000000000000000000000000000000000000000000000000000009EAC
:2F05B10002000000000000000000000000000000000000000000000000000000000000000000000000000000000000000040FADF
:2F05E00002000000000000000000000000000000000000000000000000000000000000000000000000000000000000000040FAB0
:2F060F00000000000000000000000000000000000000000000000000000000000000000000000000000000000000000000009E1E
:2F063E00000000000000000000000000000000000000000000000000000000000000000000000000000000000000000000009EEF
:2F066D00000000000000000000000000000000000000000000000000000000000000000000000000000000000000000000009EC0
:2F069C0002000000000000000000000000000000000000000000000000000000000000000000000000000000000000000040FAF3
:2F06CB0002000000000000000000000000000000000000000000000000000000000000000000000000000000000000000040FAC4
:2F06FA00000000000000000000000000000000000000000000000000000000000000000000000000000000000000000000009E33
:2F07290002000000000000000000000000000000000000000000000000000000000000000000000000000000000000000040FA65
:2F07580002000000000000000000000000000000000000000000000000000000000000000000000000000000000000000040FA36
:2F078700000000000000000000000000000000000000000000000000000000000000000000000000000000000000000000009EA5
:2F07B600000000000000000000000000000000000000000000000000000000000000000000000000000000000000000000009E76
:2F07E500000000000000000000000000000000000000000000000000000000000000000000000000000000000000000000009E47
:2F08140002000000000000000000000000000000000000000000000000000000000000000000000000000000000000000040FA79
:2F08430002000000000000000000000000000000000000000000000000000000000000000000000000000000000000000040FA4A
:2F087200000000000000000000000000000000000000000000000000000000000000000000000000000000000000000000009EB9
:2F08A10002000000000000000000000000000000000000000000000000000000000000000000000000000000000000000040FAEC
:2F08D00002000000000000000000000000000000000000000000000000000000000000000000000000000000000000000040FABD
:2F08FF00000000000000000000000000000000000000000000000000000000000000000000000000000000000000000000009E2C
:2F092E00000000000000000000000000000000000000000000000000000000000000000000000000000000000000000000009EFC
:2F095D00000000000000000000000000000000000000000000000000000000000000000000000000000000000000000000009ECD
:2F098C0002000000000000000000000000000000000000000000000000000000000000000000000000000000000000000040FA00
:2F09BB0002000000000000000000000000000000000000000000000000000000000000000000000000000000000000000040FAD1
:2F09EA00000000000000000000000000000000000000000000000000000000000000000000000000000000000000000000009E40
:2F0A190002000000000000000000000000000000000000000000000000000000000000000000000000000000000000000040FA72
:2F0A480002000000000000000000000000000000000000000000000000000000000000000000000000000000000000000040FA43
:2F0A7700000000000000000000000000000000000000000000000000000000000000000000000000000000000000000000009EB2
:2F0AA600000000000000000000000000000000000000000000000000000000000000000000000000000000000000000000009E83
:2F0AD500000000000000000000000000000000000000000000000000000000000000000000000000000000000000000000009E54
:2F0B040002000000000000000000000000000000000000000000000000000000000000000000000000000000000000000040FA86
:2F0B330002000000000000000000000000000000000000000000000000000000000000000000000000000000000000000040FA57
:2F0B6200000000000000000000000000000000000000000000000000000000000000000000000000000000000000000000009EC6
:2F0B910002000000000000000000000000000000000000000000000000000000000000000000000000000000000000000040FAF9
:2F0BC00002000000000000000000000000000000000000000000000000000000000000000000000000000000000000000040FACA
:2F0BEF00000000000000000000000000000000000000000000000000000000000000000000000000000000000000000000009E39
:2F0C1E00000000000000000000000000000000000000000000000000000000000000000000000000000000000000000000009E09
:2F0C4D00000000000000000000000000000000000000000000000000000000000000000000000000000000000000000000009EDA
:2F0C7C0002000000000000000000000000000000000000000000000000000000000000000000000000000000000000000040FA0D
:2F0CAB0002000000000000000000000000000000000000000000000000000000000000000000000000000000000000000040FADE
:2F0CDA00000000000000000000000000000000000000000000000000000000000000000000000000000000000000000000009E4D
:2F0D090002000000000000000000000000000000000000000000000000000000000000000000000000000000000000000040FA7F
:2F0D380002000000000000000000000000000000000000000000000000000000000000000000000000000000000000000040FA50
:2F0D6700000000000000000000000000000000000000000000000000000000000000000000000000000000000000000000009EBF
:2F0D9600000000000000000000000000000000000000000000000000000000000000000000000000000000000000000000009E90
:2F0DC500000000000000000000000000000000000000000000000000000000000000000000000000000000000000000000009E61
:2F0DF40002000000000000000000000000000000000000000000000000000000000000000000000000000000000000000040FA94
:2F0E230002000000000000000000000000000000000000000000000000000000000000000000000000000000000000000040FA64
:2F0E5200000000000000000000000000000000000000000000000000000000000000000000000000000000000000000000009ED3
:2F0E810002000000000000000000000000000000000000000000000000000000000000000000000000000000000000000040FA06
:2F0EB00002000000000000000000000000000000000000000000000000000000000000000000000000000000000000000040FAD7
:2F0EDF00000000000000000000000000000000000000000000000000000000000000000000000000000000000000000000009E46
:2F0F0E00000000000000000000000000000000000000000000000000000000000000000000000000000000000000000000009E16
:2F0F3D00000000000000000000000000000000000000000000000000000000000000000000000000000000000000000000009EE7
:2F0F6C0002000000000000000000000000000000000000000000000000000000000000000000000000000000000000000040FA1A
:2F0F9B0002000000000000000000000000000000000000000000000000000000000000000000000000000000000000000040FAEB
:2F0FCA0000400040004000400040004000400040004000400040004000400040004000400040004000400040004000400000DE9A
:2F0FF90002000000000000000000000000000000000000000000000000000000000000000000000000000000000000000040FA8D
:2F10280002000000000000000000000000000000000000000000000000000000000000000000000000000000000000000040FA5D
:2F105700000000000000000000000000000000000000000000000000000000000000000000000000000000000000000000009ECC
:2F108600000000000000000000000000000000000000000000000000000000000000000000000000000000000000000000009E9D
:2F10B500000000000000000000000000000000000000000000000000000000000000000000000000000000000000000000009E6E
:2F10E400000000000000000000000000000000000000000000000000000000000000000000000000000000000000000000009E3F
:2F111300000000000000000000000000000000000000000000000000000000000000000000000000000000000000000000009E0F
:2F114200000000000000000000000000000000000000000000000000000000000000000000000000000000000000000000009EE0
:2F117100000000000000000000000000000000000000000000000000000000000000000000000000000000000000000000009EB1
:2F11A000000000000000000000000000000000000000000000000000000000000000000000000000000000000000000000009E82
:2F11CF00000000000000000000000000000000000000000000000000000000000000000000000000000000000000000000009E53
:2F11FE00000000000000000000000000000000000000000000000000000000000000000000000000000000000000000000009E24
:2F122D00000000000000000000000000000000000000000000000000000000000000000000000000000000000000000000009EF4
:2F125C00000000000000000000000000000000000000000000000000000000000000000000000000000000000000000000009EC5
:2F128B00000000000000000000000000000000000000000000000000000000000000000000000000000000000000000000009E96
:2F12BA00000000000000000000000000000000000000000000000000000000000000000000000000000000000000000000009E67
:2F12E900000000000000000000000000000000000000000000000000000000000000000000000000000000000000000000009E38
:2F131800000000000000000000000000000000000000000000000000000000000000000000000000000000000000000000009E08
:2F134700000000000000000000000000000000000000000000000000000000000000000000000000000000000000000000009ED9
:2F137600000000000000000000000000000000000000000000000000000000000000000000000000000000000000000000009EAA
:2F13A500000000000000000000000000000000000000000000000000000000000000000000000000000000000000000000009E7B
:2F13D400000000000000000000000000000000000000000000000000000000000000000000000000000000000000000000009E4C
:2F140300000000000000000000000000000000000000000000000000000000000000000000000000000000000000000000009E1C
:2F143200000000000000000000000000000000000000000000000000000000000000000000000000000000000000000000009EED
:2F146100000000000000000000000000000000000000000000000000000000000000000000000000000000000000000000009EBE
:2F149000000000000000000000000000000000000000000000000000000000000000000000000000000000000000000000009E8F
:2F14BF00000000000000000000000000000000000000000000000000000000000000000000000000000000000000000000009E60
:2F14EE00000000000000000000000000000000000000000000000000000000000000000000000000000000000000000000009E31
:2F151D00000000000000000000000000000000000000000000000000000000000000000000000000000000000000000000009E01
:2F154C00000000000000000000000000000000000000000000000000000000000000000000000000000000000000000000009ED2
:2F157B00000000000000000000000000000000000000000000000000000000000000000000000000000000000000000000009EA3
:2F15AA00000000000000000000000000000000000000000000000000000000000000000000000000000000000000000000009E74
:2F15D900000000000000000000000000000000000000000000000000000000000000000000000000000000000000000000009E45
:2F160800000000000000000000000000000000000000000000000000000000000000000000000000000000000000000000009E15
:2F163700000000000000000000000000000000000000000000000000000000000000000000000000000000000000000000009EE6
:2F166600000000000000000000000000000000000000000000000000000000000000000000000000000000000000000000009EB7
:2F169500000000000000000000000000000000000000000000000000000000000000000000000000000000000000000000009E88
:2F16C40002000000000000000000000000000000000000000000000000000000000000000000000000000000000000000040FABB
:2F16F30002000000000000000000000000000000000000000000000000000000000000000000000000000000000000000040FA8C
:2F172200000000000000000000000000000000000000000000000000000000000000000000000000000000000000000000009EFA
:2F17510002000000000000000000000000000000000000000000000000000000000000000000000000000000000000000040FA2D
:2F17800002000000000000000000000000000000000000000000000000000000000000000000000000000000000000000040FAFE
:2F17AF00000000000000000000000000000000000000000000000000000000000000000000000000000000000000000000009E6D
:2F17DE00000000000000000000000000000000000000000000000000000000000000000000000000000000000000000000009E3E
:2F180D00000000000000000000000000000000000000000000000000000000000000000000000000000000000000000000009E0E
:2F183C0002000000000000000000000000000000000000000000000000000000000000000000000000000000000000000040FA41
:2F186B0002000000000000000000000000000000000000000000000000000000000000000000000000000000000000000040FA12
:2F189A00000000000000000000000000000000000000000000000000000000000000000000000000000000000000000000009E81
:2F18C90002000000000000000000000000000000000000000000000000000000000000000000000000000000000000000040FAB4
:2F18F80002000000000000000000000000000000000000000000000000000000000000000000000000000000000000000040FA85
:2F192700000000000000000000000000000000000000000000000000000000000000000000000000000000000000000000009EF3
:2F195600000000000000000000000000000000000000000000000000000000000000000000000000000000000000000000009EC4
:2F198500000000000000000000000000000000000000000000000000000000000000000000000000000000000000000000009E95
:2F19B40002000000000000000000000000000000000000000000000000000000000000000000000000000000000000000040FAC8
:2F19E30002000000000000000000000000000000000000000000000000000000000000000000000000000000000000000040FA99
:2F1A1200000000000000000000000000000000000000000000000000000000000000000000000000000000000000000000009E07
:2F1A410002000000000000000000000000000000000000000000000000000000000000000000000000000000000000000040FA3A
:2F1A700002000000000000000000000000000000000000000000000000000000000000000000000000000000000000000040FA0B
:2F1A9F00000000000000000000000000000000000000000000000000000000000000000000000000000000000000000000009E7A
:2F1ACE00000000000000000000000000000000000000000000000000000000000000000000000000000000000000000000009E4B
:2F1AFD00000000000000000000000000000000000000000000000000000000000000000000000000000000000000000000009E1C
:2F1B2C0002000000000000000000000000000000000000000000000000000000000000000000000000000000000000000040FA4E
:2F1B5B0002000000000000000000000000000000000000000000000000000000000000000000000000000000000000000040FA1F
:2F1B8A00000000000000000000000000000000000000000000000000000000000000000000000000000000000000000000009E8E
:2F1BB90002000000000000000000000000000000000000000000000000000000000000000000000000000000000000000040FAC1
:2F1BE80002000000000000000000000000000000000000000000000000000000000000000000000000000000000000000040FA92
:2F1C1700000000000000000000000000000000000000000000000000000000000000000000000000000000000000000000009E00
:2F1C4600000000000000000000000000000000000000000000000000000000000000000000000000000000000000000000009ED1
:2F1C7500000000000000000000000000000000000000000000000000000000000000000000000000000000000000000000009EA2
:2F1CA40002000000000000000000000000000000000000000000000000000000000000000000000000000000000000000040FAD5
:2F1CD30002000000000000000000000000000000000000000000000000000000000000000000000000000000000000000040FAA6
:2F1D0200000000000000000000000000000000000000000000000000000000000000000000000000000000000000000000009E14
:2F1D310002000000000000000000000000000000000000000000000000000000000000000000000000000000000000000040FA47
:2F1D600002000000000000000000000000000000000000000000000000000000000000000000000000000000000000000040FA18
:2F1D8F00000000000000000000000000000000000000000000000000000000000000000000000000000000000000000000009E87
:2F1DBE00000000000000000000000000000000000000000000000000000000000000000000000000000000000000000000009E58
:2F1DED00000000000000000000000000000000000000000000000000000000000000000000000000000000000000000000009E29
:2F1E1C0002000000000000000000000000000000000000000000000000000000000000000000000000000000000000000040FA5B
:2F1E4B0002000000000000000000000000000000000000000000000000000000000000000000000000000000000000000040FA2C
:2F1E7A00000000000000000000000000000000000000000000000000000000000000000000000000000000000000000000009E9B
:2F1EA90002000000000000000000000000000000000000000000000000000000000000000000000000000000000000000040FACE
:2F1ED80002000000000000000000000000000000000000000000000000000000000000000000000000000000000000000040FA9F
:2F1F0700000000000000000000000000000000000000000000000000000000000000000000000000000000000000000000009E0D
:2F1F3600000000000000000000000000000000000000000000000000000000000000000000000000000000000000000000009EDE
:2F1F6500000000000000000000000000000000000000000000000000000000000000000000000000000000000000000000009EAF
:2F1F940002000000000000000000000000000000000000000000000000000000000000000000000000000000000000000040FAE2
:2F1FC30002000000000000000000000000000000000000000000000000000000000000000000000000000000000000000040FAB3
:2F1FF200000000000000000000000000000000000000000000000000000000000000000000000000000000000000000000009E22
:2F20210002000000000000000000000000000000000000000000000000000000000000000000000000000000000000000040FA54
:2F20500002000000000000000000000000000000000000000000000000000000000000000000000000000000000000000040FA25
:2F207F00000000000000000000000000000000000000000000000000000000000000000000000000000000000000000000009E94
:2F20AE00000000000000000000000000000000000000000000000000000000000000000000000000000000000000000000009E65
:2F20DD00000000000000000000000000000000000000000000000000000000000000000000000000000000000000000000009E36
:2F210C0002000000000000000000000000000000000000000000000000000000000000000000000000000000000000000040FA68
:2F213B0002000000000000000000000000000000000000000000000000000000000000000000000000000000000000000040FA39
:2F216A00000000000000000000000000000000000000000000000000000000000000000000000000000000000000000000009EA8
:2F21990002000000000000000000000000000000000000000000000000000000000000000000000000000000000000000040FADB
:2F21C80002000000000000000000000000000000000000000000000000000000000000000000000000000000000000000040FAAC
:2F21F700000000000000000000000000000000000000000000000000000000000000000000000000000000000000000000009E1B
:2F222600000000000000000000000000000000000000000000000000000000000000000000000000000000000000000000009EEB
:2F225500000000000000000000000000000000000000000000000000000000000000000000000000000000000000000000009EBC
:2F22840002000000000000000000000000000000000000000000000000000000000000000000000000000000000000000040FAEF
:2F22B30002000000000000000000000000000000000000000000000000000000000000000000000000000000000000000040FAC0
:2F22E200000000000000000000000000000000000000000000000000000000000000000000000000000000000000000000009E2F
:2F23110002000000000000000000000000000000000000000000000000000000000000000000000000000000000000000040FA61
:2F23400002000000000000000000000000000000000000000000000000000000000000000000000000000000000000000040FA32
:2F236F00000000000000000000000000000000000000000000000000000000000000000000000000000000000000000000009EA1
:2F239E00000000000000000000000000000000000000000000000000000000000000000000000000000000000000000000009E72
:2F23CD00000000000000000000000000000000000000000000000000000000000000000000000000000000000000000000009E43
:2F23FC0002000000000000000000000000000000000000000000000000000000000000000000000000000000000000000040FA76
:2F242B0002000000000000000000000000000000000000000000000000000000000000000000000000000000000000000040FA46
:2F245A00000000000000000000000000000000000000000000000000000000000000000000000000000000000000000000009EB5
:2F24890002000000000000000000000000000000000000000000000000000000000000000000000000000000000000000040FAE8
:2F24B80002000000000000000000000000000000000000000000000000000000000000000000000000000000000000000040FAB9
:2F24E700000000000000000000000000000000000000000000000000000000000000000000000000000000000000000000009E28
:2F251600000000000000000000000000000000000000000000000000000000000000000000000000000000000000000000009EF8
:2F254500000000000000000000000000000000000000000000000000000000000000000000000000000000000000000000009EC9
:2F257400000000000000000000000000000000000000000000000000000000000000000000000000000000000000000000009E9A
:2F25A300000000000000000000000000000000000000000000000000000000000000000000000000000000000000000000009E6B
:2F25D200000000000000000000000000000000000000000000000000000000000000000000000000000000000000000000009E3C
:2F260100000000000000000000000000000000000000000000000000000000000000000000000000000000000000000000009E0C
:2F263000000000000000000000000000000000000000000000000000000000000000000000000000000000000000000000009EDD
:2F265F00000000000000000000000000000000000000000000000000000000000000000000000000000000000000000000009EAE
:2F268E00000000000000000000000000000000000000000000000000000000000000000000000000000000000000000000009E7F
:2F26BD00000000000000000000000000000000000000000000000000000000000000000000000000000000000000000000009E50
:2F26EC00000000000000000000000000000000000000000000000000000000000000000000000000000000000000000000009E21
:2F271B00000000000000000000000000000000000000000000000000000000000000000000000000000000000000000000009EF1
:2F274A00000000000000000000000000000000000000000000000000000000000000000000000000000000000000000000009EC2
:2F277900000000000000000000000000000000000000000000000000000000000000000000000000000000000000000000009E93
:2F27A800000000000000000000000000000000000000000000000000000000000000000000000000000000000000000000009E64
:2F27D700000000000000000000000000000000000000000000000000000000000000000000000000000000000000000000009E35
:2F280600000000000000000000000000000000000000000000000000000000000000000000000000000000000000000000009E05
:2F283500000000000000000000000000000000000000000000000000000000000000000000000000000000000000000000009ED6
:2F286400000000000000000000000000000000000000000000000000000000000000000000000000000000000000000000009EA7
:2F289300000000000000000000000000000000000000000000000000000000000000000000000000000000000000000000009E78
:2F28C200000000000000000000000000000000000000000000000000000000000000000000000000000000000000000000009E49
:2F28F100000000000000000000000000000000000000000000000000000000000000000000000000000000000000000000009E1A
:2F292000000000000000000000000000000000000000000000000000000000000000000000000000000000000000000000009EEA
:2F294F00000000000000000000000000000000000000000000000000000000000000000000000000000000000000000000009EBB
:2F297E00000000000000000000000000000000000000000000000000000000000000000000000000000000000000000000009E8C
:2F29AD00000000000000000000000000000000000000000000000000000000000000000000000000000000000000000000009E5D
:2F29DC00000000000000000000000000000000000000000000000000000000000000000000000000000000000000000000009E2E
:2F2A0B00000000000000000000000000000000000000000000000000000000000000000000000000000000000000000000009EFE
:2F2A3A00000000000000000000000000000000000000000000000000000000000000000000000000000000000000000000009ECF
:2F2A6900000000000000000000000000000000000000000000000000000000000000000000000000000000000000000000009EA0
:2F2A9800000000000000000000000000000000000000000000000000000000000000000000000000000000000000000000009E71
:2F2AC700000000000000000000000000000000000000000000000000000000000000000000000000000000000000000000009E42
:2F2AF600000000000000000000000000000000000000000000000000000000000000000000000000000000000000000000009E13
:2F2B2500000000000000000000000000000000000000000000000000000000000000000000000000000000000000000000009EE3
:2F2B540002000000000000000000000000000000000000000000000000000000000000000000000000000000000000000040FA16
:2F2B830002000000000000000000000000000000000000000000000000000000000000000000000000000000000000000040FAE7
:2F2BB200000000000000000000000000000000000000000000000000000000000000000000000000000000000000000000009E56
:2F2BE10002000000000000000000000000000000000000000000000000000000000000000000000000000000000000000040FA89
:2F2C100002000000000000000000000000000000000000000000000000000000000000000000000000000000000000000040FA59
:2F2C3F00000000000000000000000000000000000000000000000000000000000000000000000000000000000000000000009EC8
:2F2C6E00000000000000000000000000000000000000000000000000000000000000000000000000000000000000000000009E99
:2F2C9D00000000000000000000000000000000000000000000000000000000000000000000000000000000000000000000009E6A
:2F2CCC0002000000000000000000000000000000000000000000000000000000000000000000000000000000000000000040FA9D
:2F2CFB0002000000000000000000000000000000000000000000000000000000000000000000000000000000000000000040FA6E
:2F2D2A00000000000000000000000000000000000000000000000000000000000000000000000000000000000000000000009EDC
:2F2D590002000000000000000000000000000000000000000000000000000000000000000000000000000000000000000040FA0F
:2F2D880002000000000000000000000000000000000000000000000000000000000000000000000000000000000000000040FAE0
:2F2DB700000000000000000000000000000000000000000000000000000000000000000000000000000000000000000000009E4F
:2F2DE600000000000000000000000000000000000000000000000000000000000000000000000000000000000000000000009E20
:2F2E1500000000000000000000000000000000000000000000000000000000000000000000000000000000000000000000009EF0
:2F2E440002000000000000000000000000000000000000000000000000000000000000000000000000000000000000000040FA23
:2F2E730002000000000000000000000000000000000000000000000000000000000000000000000000000000000000000040FAF4
:2F2EA200000000000000000000000000000000000000000000000000000000000000000000000000000000000000000000009E63
:2F2ED10002000000000000000000000000000000000000000000000000000000000000000000000000000000000000000040FA96
:2F2F000002000000000000000000000000000000000000000000000000000000000000000000000000000000000000000040FA66
:2F2F2F00000000000000000000000000000000000000000000000000000000000000000000000000000000000000000000009ED5
:2F2F5E00000000000000000000000000000000000000000000000000000000000000000000000000000000000000000000009EA6
:2F2F8D00000000000000000000000000000000000000000000000000000000000000000000000000000000000000000000009E77
:2F2FBC0002000000000000000000000000000000000000000000000000000000000000000000000000000000000000000040FAAA
:2F2FEB0002000000000000000000000000000000000000000000000000000000000000000000000000000000000000000040FA7B
:2F301A00000000000000000000000000000000000000000000000000000000000000000000000000000000000000000000009EE9
:2F30490002000000000000000000000000000000000000000000000000000000000000000000000000000000000000000040FA1C
:2F30780002000000000000000000000000000000000000000000000000000000000000000000000000000000000000000040FAED
:2F30A700000000000000000000000000000000000000000000000000000000000000000000000000000000000000000000009E5C
:2F30D600000000000000000000000000000000000000000000000000000000000000000000000000000000000000000000009E2D
:2F310500000000000000000000000000000000000000000000000000000000000000000000000000000000000000000000009EFD
:2F31340002000000000000000000000000000000000000000000000000000000000000000000000000000000000000000040FA30
:2F31630002000000000000000000000000000000000000000000000000000000000000000000000000000000000000000040FA01
:2F319200000000000000000000000000000000000000000000000000000000000000000000000000000000000000000000009E70
:2F31C10002000000000000000000000000000000000000000000000000000000000000000000000000000000000000000040FAA3
:2F31F00002000000000000000000000000000000000000000000000000000000000000000000000000000000000000000040FA74
:2F321F00000000000000000000000000000000000000000000000000000000000000000000000000000000000000000000009EE2
:2F324E00000000000000000000000000000000000000000000000000000000000000000000000000000000000000000000009EB3
:2F327D00000000000000000000000000000000000000000000000000000000000000000000000000000000000000000000009E84
:2F32AC0002000000000000000000000000000000000000000000000000000000000000000000000000000000000000000040FAB7
:2F32DB0002000000000000000000000000000000000000000000000000000000000000000000000000000000000000000040FA88
:2F330A00000000000000000000000000000000000000000000000000000000000000000000000000000000000000000000009EF6
:2F33390002000000000000000000000000000000000000000000000000000000000000000000000000000000000000000040FA29
:2F33680002000000000000000000000000000000000000000000000000000000000000000000000000000000000000000040FAFA
:2F339700000000000000000000000000000000000000000000000000000000000000000000000000000000000000000000009E69
:2F33C600000000000000000000000000000000000000000000000000000000000000000000000000000000000000000000009E3A
:2F33F500000000000000000000000000000000000000000000000000000000000000000000000000000000000000000000009E0B
:2F34240002000000000000000000000000000000000000000000000000000000000000000000000000000000000000000040FA3D
:2F34530002000000000000000000000000000000000000000000000000000000000000000000000000000000000000000040FA0E
:2F348200000000000000000000000000000000000000000000000000000000000000000000000000000000000000000000009E7D
:2F34B10002000000000000000000000000000000000000000000000000000000000000000000000000000000000000000040FAB0
:2F34E00002000000000000000000000000000000000000000000000000000000000000000000000000000000000000000040FA81
:2F350F00000000000000000000000000000000000000000000000000000000000000000000000000000000000000000000009EEF
:2F353E00000000000000000000000000000000000000000000000000000000000000000000000000000000000000000000009EC0
:2F356D00000000000000000000000000000000000000000000000000000000000000000000000000000000000000000000009E91
:2F359C0002000000000000000000000000000000000000000000000000000000000000000000000000000000000000000040FAC4
:2F35CB0002000000000000000000000000000000000000000000000000000000000000000000000000000000000000000040FA95
:2F35FA00000000000000000000000000000000000000000000000000000000000000000000000000000000000000000000009E04
:2F36290002000000000000000000000000000000000000000000000000000000000000000000000000000000000000000040FA36
:2F36580002000000000000000000000000000000000000000000000000000000000000000000000000000000000000000040FA07
:2F368700000000000000000000000000000000000000000000000000000000000000000000000000000000000000000000009E76
:2F36B600000000000000000000000000000000000000000000000000000000000000000000000000000000000000000000009E47
:2F36E500000000000000000000000000000000000000000000000000000000000000000000000000000000000000000000009E18
:2F37140002000000000000000000000000000000000000000000000000000000000000000000000000000000000000000040FA4A
:2F37430002000000000000000000000000000000000000000000000000000000000000000000000000000000000000000040FA1B
:2F377200000000000000000000000000000000000000000000000000000000000000000000000000000000000000000000009E8A
:2F37A10002000000000000000000000000000000000000000000000000000000000000000000000000000000000000000040FABD
:2F37D00002000000000000000000000000000000000000000000000000000000000000000000000000000000000000000040FA8E
:2F37FF0002000000000000000000000000000000000000000000000000000000000000000000000000000000000000000040FA5F
:2F382E00000000000000000000000000000000000000000000000000000000000000000000000000000000000000000000009ECD
:2F385D00000000000000000000000000000000000000000000000000000000000000000000000000000000000000000000009E9E
:2F388C00000000000000000000000000000000000000000000000000000000000000000000000000000000000000000000009E6F
:2F38BB00000000000000000000000000000000000000000000000000000000000000000000000000000000000000000000009E40
:2F38EA0000400040004000400040004000400040004000400040004000400040004000400040004000400040004000400000DE51
:2F391900000000000000000000000000000000000000000000000000000000000000000000000000000000000000000000009EE1
:2F394800000000000000000000000000000000000000000000000000000000000000000000000000000000000000000000009EB2
:2F397700000000000000000000000000000000000000000000000000000000000000000000000000000000000000000000009E83
:2F39A600000000000000000000000000000000000000000000000000000000000000000000000000000000000000000000009E54
:2F39D500000000000000000000000000000000000000000000000000000000000000000000000000000000000000000000009E25
:2F3A0400000000000000000000000000000000000000000000000000000000000000000000000000000000000000000000009EF5
:2F3A3300000000000000000000000000000000000000000000000000000000000000000000000000000000000000000000009EC6
:2F3A6200000000000000000000000000000000000000000000000000000000000000000000000000000000000000000000009E97
:2F3A9100000000000000000000000000000000000000000000000000000000000000000000000000000000000000000000009E68
:2F3AC000000000000000000000000000000000000000000000000000000000000000000000000000000000000000000000009E39
:2F3AEF00000000000000000000000000000000000000000000000000000000000000000000000000000000000000000000009E0A
:2F3B1E00000000000000000000000000000000000000000000000000000000000000000000000000000000000000000000009EDA
:2F3B4D00000000000000000000000000000000000000000000000000000000000000000000000000000000000000000000009EAB
:2F3B7C00000000000000000000000000000000000000000000000000000000000000000000000000000000000000000000009E7C
:2F3BAB00000000000000000000000000000000000000000000000000000000000000000000000000000000000000000000009E4D
:2F3BDA00000000000000000000000000000000000000000000000000000000000000000000000000000000000000000000009E1E
:2F3C0900000000000000000000000000000000000000000000000000000000000000000000000000000000000000000000009EEE
:2F3C3800000000000000000000000000000000000000000000000000000000000000000000000000000000000000000000009EBF
:2F3C6700000000000000000000000000000000000000000000000000000000000000000000000000000000000000000000009E90
:2F3C9600000000000000000000000000000000000000000000000000000000000000000000000000000000000000000000009E61
:2F3CC500000000000000000000000000000000000000000000000000000000000000000000000000000000000000000000009E32
:2F3CF400000000000000000000000000000000000000000000000000000000000000000000000000000000000000000000009E03
:2F3D2300000000000000000000000000000000000000000000000000000000000000000000000000000000000000000000009ED3
:2F3D5200000000000000000000000000000000000000000000000000000000000000000000000000000000000000000000009EA4
:2F3D8100000000000000000000000000000000000000000000000000000000000000000000000000000000000000000000009E75
:2F3DB000000000000000000000000000000000000000000000000000000000000000000000000000000000000000000000009E46
:2F3DDF00000000000000000000000000000000000000000000000000000000000000000000000000000000000000000000009E17
:2F3E0E00000000000000000000000000000000000000000000000000000000000000000000000000000000000000000000009EE7
:2F3E3D00000000000000000000000000000000000000000000000000000000000000000000000000000000000000000000009EB8
:2F3E6C00000000000000000000000000000000000000000000000000000000000000000000000000000000000000000000009E89
:2F3E9B00000000000000000000000000000000000000000000000000000000000000000000000000000000000000000000009E5A
:2F3ECA00000000000000000000000000000000000000000000000000000000000000000000000000000000000000000000009E2B
:2F3EF900000000000000000000000000000000000000000000000000000000000000000000000000000000000000000000009EFC
:2F3F2800000000000000000000000000000000000000000000000000000000000000000000000000000000000000000000009ECC
:2F3F570002000000000000000000000000000000000000000000000000000000000000000000000000000000002103000040D9FC
:2F3F860000000000000000000000000000000000000000000000000000000000000000000000000000000000000003000000AE5B
:2F3FB50000000000000000000000000000000000000000000000000000000000000000000000000000000000004003000000AAF0
:2F3FE40000000000000000000000000000000000000000000000000000000000000000000000000000000000004003000000AAC1
:2F401300000000000000000000000000000000000000000000000000000000000000000000000000000000000040000000009AA4
:2F404200000000000000000000000000000000000000000000000000000000000000000000000000000000000000000000009EB1
:2F407100000000000000000000000000000000000000000000000000000000000000000000000000000000000040000000009A46
:2F40A000000000000000000000000000000000000000000000000000000000000000000000000000000000000000000000009E53
:2F40CF00000000000000000000000000000000000000000000000000000000000000000000000000000000000000000000009E24
:2F40FE00000000000000000000000000000000000000000000000000000000000000000000000000000000000000000000009EF5
:2F412D00000000000000000000000000000000000000000000000000000000000000000000000000000000000000000000009EC5
:2F415C0002000000000000000000000000000000000000000000000000000000000000000000000000000000000000000040FAF8
:2F418B0002000000000000000000000000000000000000000000000000000000000000000000000000000000000000000040FAC9
:2F41BA00000000000000000000000000000000000000000000000000000000000000000000000000000000000000000000009E38
:2F41E90002000000000000000000000000000000000000000000000000000000000000000000000000000000008000000040F2F3
:2F42180002000000000000000000000000000000000000000000000000000000000000000000000000000000004000000040FEF7
:2F424700000000000000000000000000000000000000000000000000000000000000000000000000000000008040030000C0E6DF
:2F42760000000000000000000000000000000000000000000000000000000000000000000000000000000000000003000000AE68
:2F42A500000000000000000000000000000000000000000000000000000000000000000000000000000000000040010000008A1F
:2F42D400020000000000000000000000000000000000000000000000000000000000000000000000000000000050090400C0E3B9
:2F430300020000000000000000000000000000000000000000000000000000000000000000000000000000000040060000519F53
:2F43320000000000000000000000000000000000000000000000000000000000000000000000000000000000000001000040CA51
:2F43610002000000000000000000000000000000000000000000000000000000000000000000000000000000004000000040FEAD
:2F43900002000000000000000000000000000000000000000000000000000000000000000000000000000000000010000040EBC1
:2F43BF0000000000000000000000000000000000000000000000000000000000000000000000000000210300000003000000BCEC
:2F43EE00000000000000000000000000000000000000000000000000000000000000000000000000000003000000030000009DFD
:2F441D0000000000000000000000000000000000000000000000000000000000000000000000000000400100004000000000CB24
:2F444C0002000000000000000000000000000000000000000000000000000000000000000000000000400904004028000040C585
:2F447B0002000000000000000000000000000000000000000000000000000000000000000000000000400A000040000000C09C2A
:2F44AA00000000000000000000000000000000000000000000000000000000000000000000000000000001000000000000008F53
:2F44D900020000000000000000000000000000000000000000000000000000000000000000000000004000000040030000408E61
:2F45080002000000000000000000000000000000000000000000000000000000000000000000000000001000000003000040CB64
:2F4537000000000000000000000000000000000000000000000000000000000000000000000000000042030000440B00008097AA
:2F456600000000000000000000000000000000000000000000000000000000000000000000000000000003000000030000009D83
:2F45950000000000000000000000000000000000000000000000000000000000000000000000000000400300004000000000E98B
:2F45C40002000000000000000000000000000000000000000000000000000000000000000000000000600300005010000040BD06
:2F45F300020000000000000000000000000000000000000000000000000000000000000000000000004000000040020000409E37
:2F462200000000000000000000000000000000000000000000000000000000000000000000000000000000000000010000008EDA
:2F465100020000000000000000000000000000000000000000000000000000000000000000000000004000000040020000409ED8
:2F468000020000000000000000000000000000000000000000000000000000000000000000000000000000000000190000C0F33D
:2F46AF0000000000000000000000000000000000000000000000000000000000000000000000000000000000005403000000EF96
:2F46DE0000000000000000000000000000000000000000000000000000000000000000000000000000000000000003000000AEFC
:2F470D0000000000000000000000000000000000000000000000000000000000000000000000000000000000004003000000AA90
:2F473C00020000000000000000000000000000000000000000000000000000000000000000000000000000000040080400C0F24E
:2F476B00020000000000000000000000000000000000000000000000000000000000000000000000000000000048000000C0FE17
:2F479A0000000000000000000000000000000000000000000000000000000000000000000000000000000000000003000000AE3F
:2F47C90002000000000000000000000000000000000000000000000000000000000000000000000000000000004000000040FE41
:2F47F80002000000000000000000000000000000000000000000000000000000000000000000000000000000001000000040FB45
:2F482700000000000000000000000000000000000000000000000000000000008060030000000000000000004060070000C0D246
:2F485600000000000000000000000000000000000000000000000000000000000000030000000000000000000000030000009E8F
:2F48850000000000000000000000000000000000000000000000000000000000004003000000000000000000004000000000AED3
:2F48B400020000000000000000000000000000000000000000000000000000000040030000000000000000000040100000009FA1
:2F48E30002000000000000000000000000000000000000000000000000000000004000000000000000000000004002000040DA08
:2F49120000000000000000000000000000000000000000000000000000000000000000000000000000000000000001000040CA6B
:2F494100020000000000000000000000000000000000000000000000000000000040000000000000000000000040020000009E25
:2F49700002000000000000000000000000000000000000000000000000000000000000000000000000000000000019000080B7C6
:2F499F0002000000000000000000000000000000000000000000000000000000802003000000000040200B00004807000080A763
:2F49CE00000000000000000000000000000000000000000000000000000000000000030000000000000000000000030000009E16
:2F49FD0000000000000000000000000000000000000000000000000000000000004003000000000000400300004003000000EDD5
:2F4A2C0002000000000000000000000000000000000000000000000000000000004003000000000000401000006040000040CD19
:2F4A5B00060000000000000000000000000000000000000000000000000000000040000000000000004800000048000000C0F2A4
:2F4A8A00020000000000000000000000000000000000000000000000000000000000000000000000000000000000030000008E6A
:2F4AB900020000000000000000000000000000000000000000000000000000000040000000000000004003000040000000408940
:2F4AE800820000000000000000000000000000000000000000000000000000000000000000000000002003000010000000C0E842
:2F4B1700000000000000000000000000000000000000000000000000000000000021030080600300000803000048070000C0DB73
:2F4B460000000000000000000000000000000000000000000000000000000000000003000000030000000300000003000000AE86
:2F4B750000000000000000000000000000000000000000000000000000000000004003000040030000400200004002000000AB5C
:2F4BA40002000000000000000000000000000000000000000000000000000000004003000040030000601A00006002040080AC4E
:2F4BD30002000000000000000000000000000000000000000000000000000000004000000040000000400000004000000040FE73
:2F4C020000000000000000000000000000000000000000000000000000000000000000000000000000000000000000000040DA69
:2F4C31000200000000000000000000000000000000000000000000000000000000400000004000000040020000C002000000B01E
:2F4C600002000000000000000000000000000000000000000000000000000000000000000000000000000904004009040000F7D2
:2F4C8F000200000000000000000000000000000000000000000000000000000040000000000100000001000000020000004089E7
:2F4CBE00000000000000000000000000000000000000000000000000000000000000000000000000000000000000000000009E29
:2F4CED00000000000000000000000000000000000000000000000000000000000000000000000000000000000000000000009EFA
:2F4D1C0002000000000000000000000000000000000000000000000000000000002000000020000000200000001000000040FBBB
:2F4D4B0002000000000000000000000000000000000000000000000000000000400000000000000000020000400000000042D89B
:2F4D7A0002400040004000400040004000400040004000400040004000400040004000400040004000400040004000400040BA8E
:2F4DA90002000000000000000000000000000000000000000000000000000000000000800000000000000000000000800040FA9F
:2F4DD80046000000000000000000000000000000000000000000000000000000001000400000000000100000002000400060CF77
:2F4E0700000000000000000000000000000000000000000000000000000000000001000000000000000100000001000000009FDA
:2F4E3600000000000000000000000000000000000000000000000000000000000001000000010000000100000001000000008FBA
:2F4E6500000000000000000000000000000000000000000000000000000000000000100000000000000200000000000000008D7F
:2F4E9400000000000000000000000000000000000000000000000000000000000000000000000000000000000000000000009E51
:2F4EC300000000000000000000000000000000000000000000000000000000000800000000000000001000000010000000008711
:2F4EF200000000000000000000000000000000000000000000000000000000000000000000000000000000000000000000009EF3
:2F4F210000000000000000000000000000000000000000000000000000000000000000000000000000000000004040000000DE03
:2F4F5000000000000000000000000000000000000000000000000000000000000000000000000000000000000000000000009E94
:2F4F7F0000000000000000000000000000000000000000000000000000000000000000000000000010000010101010100006EEAF
:2F4FAE00000000000000000000000000000000000000000000000000000000000000000000000000000000000000000000009E36
:2F4FDD008000000000000000000000000000000000000000000000000000000000000000000800000018000000800000000086FF
:2F500C00000000000000000000000000000000000000000000000000000000000000000000000000000000000000000000009ED7
:2F503B00000000000000000000000000000000000000000000000000000000000000000000000000000000000000000000009EA8
:2F506A0000000000000000000000000000000000000000000000000000000000000000000000000000000000000408000080D2B9
:2F509900000000000000000000000000000000000000000000000000000000008000000080000000000000000000000000809ECA
:2F50C80000000000000000000000000000000000000000000000000000000000000110000000000000000000800000400080D692
:2F50F70010000000000000000000000000000000000000000000000000000000000000000001000000000000002000000004DD78
:2F512600000000000000000000000000000000000000000000000000000000000000000000000000000000000000000000009EBC
:2F515500000000000000000000000000000000000000000000000000000000000000000000000000000000000010000000018F8B
:2F518400000000000000000000000000000000000000000000000000000000000000000000000000000000000000000000009E5E
:2F51B300000000000000000000000000000000000000000000000000000000000002000000000000000000000002000000009E2B
:2F51E200000000000000000000000000000000000000000000000000000000000000000000000000000000000000000000009E00
:2F521100000000000000000000000000000000000000000000000000000000000000000000000000000000000000000000009ED0
:2F524000000000000000000000000000000000000000000000000000000000000000000000000000000000000000000000009EA1
:2F526F00000000000000000000000000000000000000000000000000000000000000000000000000000000000000000000009E72
:2F529E00000000000000000000000000000000000000000000000000000000000000000000000000000000000000000000009E43
:2F52CD00000000000000000000000000000000000000000000000000000000000000000000000000000000000000000000009E14
:2F52FC00000000000000000000000000000000000000000000000000000000000000000000000000000000000000000000009EE5
:2F532B00000000000000000000000000000000000000000000000000000000000000000000000000000000000000000000009EB5
:2F535A00000000000000000000000000000000000000000000000000000000001000000002000000000800001000000002009662
:2F538900000000000000000000000000000000000000000000000000000000000000000000000000000000000000000000009E57
:2F53B800000000000000000000000000000000000000000000000000000000000000000000000000000000000000000000009E28
:2F53E700000000000000000000000000000000000000000000000000000000000000000000000000000000000000000000009EF9
:2F541600000000000000000000000000000000000000000000000000000000000000000000000000000000000000000000009EC9
:2F544500000000000000000000000000000000000000000000000000000000000000000000000000000000000000000000009E9A
:2F54740002000000000000000000000000000000000000000000000000000000000000000000000000000000000000000040FACD
:2F54A30002000000000000000000000000000000000000000000000000000000000000000000000000000000000000000040FA9E
:2F54D200000000000000000000000000000000000000000000000000000000000000000000000000000000000000000000009E0D
:2F55010002000000000000000000000000000000000000000000000000000000000000000000000000000000000000000040FA3F
:2F55300002000000000000000000000000000000000000000000000000000000000000000000000000000000000000000040FA10
:2F555F00000000000000000000000000000000000000000000000000000000000000000000000000000000000000000000009E7F
:2F558E00000000000000000000000000000000000000000000000000000000000000000000000000000000000000000000009E50
:2F55BD00000000000000000000000000000000000000000000000000000000000000000000000000000000000000000000009E21
:2F55EC0002000000000000000000000000000000000000000000000000000000000000000000000000000000000000000040FA54
:2F561B0002000000000000000000000000000000000000000000000000000000000000000000000000000000000000000040FA24
:2F564A00000000000000000000000000000000000000000000000000000000000000000000000000000000000000000000009E93
:2F56790002000000000000000000000000000000000000000000000000000000000000000000000000000000000000000040FAC6
:2F56A80002000000000000000000000000000000000000000000000000000000000000000000000000000000000000000040FA97
:2F56D700000000000000000000000000000000000000000000000000000000000000000000000000000000000000000000009E06
:2F570600000000000000000000000000000000000000000000000000000000000000000000000000000000000000000000009ED6
:2F573500000000000000000000000000000000000000000000000000000000000000000000000000000000000000000000009EA7
:2F57640002000000000000000000000000000000000000000000000000000000000000000000000000000000000000000040FADA
:2F57930002000000000000000000000000000000000000000000000000000000000000000000000000000000000000000040FAAB
:2F57C200000000000000000000000000000000000000000000000000000000000000000000000000000000000000000000009E1A
:2F57F10002000000000000000000000000000000000000000000000000000000000000000000000000000000000000000040FA4D
:2F58200002000000000000000000000000000000000000000000000000000000000000000000000000000000000000000040FA1D
:2F584F00000000000000000000000000000000000000000000000000000000000000000000000000000000000000000000009E8C
:2F587E00000000000000000000000000000000000000000000000000000000000000000000000000000000000000000000009E5D
:2F58AD00000000000000000000000000000000000000000000000000000000000000000000000000000000000000000000009E2E
:2F58DC0002000000000000000000000000000000000000000000000000000000000000000000000000000000000000000040FA61
:2F590B0002000000000000000000000000000000000000000000000000000000000000000000000000000000000000000040FA31
:2F593A00000000000000000000000000000000000000000000000000000000000000000000000000000000000000000000009EA0
:2F59690002000000000000000000000000000000000000000000000000000000000000000000000000000000000000000040FAD3
:2F59980002000000000000000000000000000000000000000000000000000000000000000000000000000000000000000040FAA4
:2F59C700000000000000000000000000000000000000000000000000000000000000000000000000000000000000000000009E13
:2F59F600000000000000000000000000000000000000000000000000000000000000000000000000000000000000000000009EE4
:2F5A2500000000000000000000000000000000000000000000000000000000000000000000000000000000000000000000009EB4
:2F5A540002000000000000000000000000000000000000000000000000000000000000000000000000000000000000000040FAE7
:2F5A830002000000000000000000000000000000000000000000000000000000000000000000000000000000000000000040FAB8
:2F5AB200000000000000000000000000000000000000000000000000000000000000000000000000000000000000000000009E27
:2F5AE10002000000000000000000000000000000000000000000000000000000000000000000000000000000000000000040FA5A
:2F5B100002000000000000000000000000000000000000000000000000000000000000000000000000000000000000000040FA2A
:2F5B3F00000000000000000000000000000000000000000000000000000000000000000000000000000000000000000000009E99
:2F5B6E00000000000000000000000000000000000000000000000000000000000000000000000000000000000000000000009E6A
:2F5B9D00000000000000000000000000000000000000000000000000000000000000000000000000000000000000000000009E3B
:2F5BCC0002000000000000000000000000000000000000000000000000000000000000000000000000000000000000000040FA6E
:2F5BFB0002000000000000000000000000000000000000000000000000000000000000000000000000000000000000000040FA3F
:2F5C2A00000000000000000000000000000000000000000000000000000000000000000000000000000000000000000000009EAD
:2F5C590002000000000000000000000000000000000000000000000000000000000000000000000000000000000000000040FAE0
:2F5C880002000000000000000000000000000000000000000000000000000000000000000000000000000000000000000040FAB1
:2F5CB700000000000000000000000000000000000000000000000000000000000000000000000000000000000000000000009E20
:2F5CE600000000000000000000000000000000000000000000000000000000000000000000000000000000000000000000009EF1
:2F5D1500000000000000000000000000000000000000000000000000000000000000000000000000000000000000000000009EC1
:2F5D440002000000000000000000000000000000000000000000000000000000000000000000000000000000000000000040FAF4
:2F5D730002000000000000000000000000000000000000000000000000000000000000000000000000000000000000000040FAC5
:2F5DA200000000000000000000000000000000000000000000000000000000000000000000000000000000000000000000009E34
:2F5DD10002000000000000000000000000000000000000000000000000000000000000000000000000000000000000000040FA67
:2F5E000002000000000000000000000000000000000000000000000000000000000000000000000000000000000000000040FA37
:2F5E2F00000000000000000000000000000000000000000000000000000000000000000000000000000000000000000000009EA6
:2F5E5E00000000000000000000000000000000000000000000000000000000000000000000000000000000000000000000009E77
:2F5E8D00000000000000000000000000000000000000000000000000000000000000000000000000000000000000000000009E48
:2F5EBC0002000000000000000000000000000000000000000000000000000000000000000000000000000000000000000040FA7B
:2F5EEB0002000000000000000000000000000000000000000000000000000000000000000000000000000000000000000040FA4C
:2F5F1A00000000000000000000000000000000000000000000000000000000000000000000000000000000000000000000009EBA
:2F5F490002000000000000000000000000000000000000000000000000000000000000000000000000000000000000000040FAED
:2F5F780002000000000000000000000000000000000000000000000000000000000000000000000000000000000000000040FABE
:2F5FA700000000000000000000000000000000000000000000000000000000000000000000000000000000000000000000009E2D
:2F5FD600000000000000000000000000000000000000000000000000000000000000000000000000000000000000000000009EFE
:2F600500000000000000000000000000000000000000000000000000000000000000000000000000000000000000000000009ECE
:2F60340002000000000000000000000000000000000000000000000000000000000000000000000000000000000000000040FA01
:2F60630002000000000000000000000000000000000000000000000000000000000000000000000000000000000000000040FAD2
:2F609200000000000000000000000000000000000000000000000000000000000000000000000000000000000000000000009E41
:2F60C10002000000000000000000000000000000000000000000000000000000000000000000000000000000000000000040FA74
:2F60F00002000000000000000000000000000000000000000000000000000000000000000000000000000000000000000040FA45
:2F611F00000000000000000000000000000000000000000000000000000000000000000000000000000000000000000000009EB3
:2F614E00000000000000000000000000000000000000000000000000000000000000000000000000000000000000000000009E84
:2F617D00000000000000000000000000000000000000000000000000000000000000000000000000000000000000000000009E55
:2F61AC0002000000000000000000000000000000000000000000000000000000000000000000000000000000000000000040FA88
:2F61DB0002000000000000000000000000000000000000000000000000000000000000000000000000000000000000000040FA59
:2F620A00000000000000000000000000000000000000000000000000000000000000000000000000000000000000000000009EC7
:2F62390002000000000000000000000000000000000000000000000000000000000000000000000000000000000000000040FAFA
:2F62680002000000000000000000000000000000000000000000000000000000000000000000000000000000000000000040FACB
:2F629700000000000000000000000000000000000000000000000000000000000000000000000000000000000000000000009E3A
:2F62C600000000000000000000000000000000000000000000000000000000000000000000000000000000000000000000009E0B
:2F62F500000000000000000000000000000000000000000000000000000000000000000000000000000000000000000000009EDC
:2F632400000000000000000000000000000000000000000000000000000000000000000000000000000000000000000000009EAC
:2F635300000000000000000000000000000000000000000000000000000000000000000000000000000000000000000000009E7D
:2F638200000000000000000000000000000000000000000000000000000000000000000000000000000000000000000000009E4E
:2F63B100000000000000000000000000000000000000000000000000000000000000000000000000000000000000000000009E1F
:2F63E000000000000000000000000000000000000000000000000000000000000000000000000000000000000000000000009EF0
:2F640F00000000000000000000000000000000000000000000000000000000000000000000000000000000000000000000009EC0
:2F643E00000000000000000000000000000000000000000000000000000000000000000000000000000000000000000000009E91
:2F646D00000000000000000000000000000000000000000000000000000000000000000000000000000000000000000000009E62
:2F649C00000000000000000000000000000000000000000000000000000000000000000000000000000000000000000000009E33
:2F64CB00000000000000000000000000000000000000000000000000000000000000000000000000000000000000000000009E04
:2F64FA00000000000000000000000000000000000000000000000000000000000000000000000000000000000000000000009ED5
:2F652900000000000000000000000000000000000000000000000000000000000000000000000000000000000000000000009EA5
:2F655800000000000000000000000000000000000000000000000000000000000000000000000000000000000000000000009E76
:2F658700000000000000000000000000000000000000000000000000000000000000000000000000000000000000000000009E47
:2F65B600000000000000000000000000000000000000000000000000000000000000000000000000000000000000000000009E18
:2F65E500000000000000000000000000000000000000000000000000000000000000000000000000000000000000000000009EE9
:2F661400000000000000000000000000000000000000000000000000000000000000000000000000000000000000000000009EB9
:2F664300000000000000000000000000000000000000000000000000000000000000000000000000000000000000000000009E8A
:2F667200000000000000000000000000000000000000000000000000000000000000000000000000000000000000000000009E5B
:2F66A100000000000000000000000000000000000000000000000000000000000000000000000000000000000000000000009E2C
:2F66D000000000000000000000000000000000000000000000000000000000000000000000000000000000000000000000009EFD
:2F66FF00000000000000000000000000000000000000000000000000000000000000000000000000000000000000000000009ECE
:2F672E00000000000000000000000000000000000000000000000000000000000000000000000000000000000000000000009E9E
:2F675D00000000000000000000000000000000000000000000000000000000000000000000000000000000000000000000009E6F
:2F678C00000000000000000000000000000000000000000000000000000000000000000000000000000000000000000000009E40
:2F67BB00000000000000000000000000000000000000000000000000000000000000000000000000000000000000000000009E11
:2F67EA00000000000000000000000000000000000000000000000000000000000000000000000000000000000000000000009EE2
:2F681900000000000000000000000000000000000000000000000000000000000000000000000000000000000000000000009EB2
:2F684800000000000000000000000000000000000000000000000000000000000000000000000000000000000000000000009E83
:2F687700000000000000000000000000000000000000000000000000000000000000000000000000000020100300000000008E31
:2F68A600000000000000000000000000000000000000000000000000000000000000000000000000000000000300000000009D23
:2F68D50000000000000000000000000000000000000000000000000000000000000000000000000000000040030000000000D978
:2F69040002000000000000000000000000000000000000000000000000000000000000000000000000000040030000000040BD22
:2F69330002000000000000000000000000000000000000000000000000000000000000000000000000000040000000000040BEF5
:2F696200000000000000000000000000000000000000000000000000000000000000000000000000000000000000000000009E68
:2F69910002000000000000000000000000000000000000000000000000000000000000000000000000000040000000000040BE97
:2F69C00002000000000000000000000000000000000000000000000000000000000000000000000000000000000000000040FA6C
:2F69EF00000000000000000000000000000000000000000000000000000000000000000000000000000000000000000000009EDB
:2F6A1E00000000000000000000000000000000000000000000000000000000000000000000000000000000000000000000009EAB
:2F6A4D00000000000000000000000000000000000000000000000000000000000000000000000000000000000000000000009E7C
:2F6A7C0002000000000000000000000000000000000000000000000000000000000000000000000000000000000000000040FAAF
:2F6AAB0002000000000000000000000000000000000000000000000000000000000000000000000000000000000000000040FA80
:2F6ADA00000000000000000000000000000000000000000000000000000000000000000000000000000000000000000000009EEF
:2F6B090002000000000000000000000000000000000000000000000000000000000000000000000000000000008000000040F2A9
:2F6B380002000000000000000000000000000000000000000000000000000000000000000000000000000000004000000040FEAE
:2F6B6700000000000000000000000000000000000000000000000000000000000000000000000068030000000B0000410B409568
:2F6B9600000000000000000000000000000000000000000000000000000000000000000000000000030000000300000003009E29
:2F6BC500000000000000000000000000000000000000000000000000000000000000000000000040010000400000004001009F40
:2F6BF40002000000000000000000000000000000000000000000000000000000000000000000004009040040000400604180D3EB
:2F6C230002000000000000000000000000000000000000000000000000000000000000000000004006000040000000400640FC38
:2F6C520000000000000000000000000000000000000000000000000000000000000000000000000001000000000000000140DBF6
:2F6C810002000000000000000000000000000000000000000000000000000000000000000000004000000040030000400000BD62
:2F6CB00002000000000000000000000000000000000000000000000000000000000000000000000010000000030000001000ADE3
:2F6CDF00020000000000000000000000000000000000000000000000806003000000000403001040030000440700000203C088AF
:2F6D0E00000000000000000000000000000000000000000000000000000003000000000003000000030000000300000003009EA9
:2F6D3D00000000000000000000000000000000000000000000000000004003000000004000000040010000400000004003008E52
:2F6D6C00020000000000000000000000000000000000000000000000004003000000005018000050090400501000006003009398
:2F6D9B000A000000000000000000000000000000000000000000000000400000000000400A0000400A0000400A00004000C0F2AF
:2F6DCA0002000000000000000000000000000000000000000000000000000000000000000100000001000000010000000040FA5B
:2F6DF900020000000000000000000000000000000000000000000000004000000000004002000040000000400200004000009E87
:2F6E280002040000000000000000000000000000000000000000000000000000000000001100000010000000110000000000AA59
:2F6E57000000000000000000000000000000000000000000000000000000000000000040275043600B008040030000440380BB62
:2F6E860000000000000000000000000000000000000000000000000000000000000000000300030003000000030000000300AE20
