:1031A1008F4B8D4C8B4DE54B5403FF25E0F54B12B6
:1031B10033DCE54B44A0FF123391120052AF4C12A5
:1031C1003391120052AF4D12339112005212001678
:0731D1007DFF7F5702345D12
:04309D008F4A8D4B7E
:1030A100E4F54CE54A5403FF25E0F54A1233DCE52B
:1030B1004A44A0FF123391120052AF4B12339112C6
:1030C10000521233DC7FA1123391120052123314D9
:0E30D1008F4C1200167DFF7F5712345DAF4CFE
:0130DF0022CE
:102D3400426F6F742E2E2E20202000536574757000
:102D44002E2E2E202000475053206661696C2020CF
:102D540000556E6C6F636B65642020004C6F636B71
:102D6400696E672E2E2E004C6F636B6564202020E5
:102D74002000475053206C6F7374202000466978FC
:102D8400656420202020200025386C69200025302F
:102D940033692C253033692000253032692C2531E4
:0C2DA400692C2531692C25316900142AA6
:102F7F00013500C10FC10E02270000013200022BE4
:102F8F000000012E00012A004B033F00000000004B
:0D2F9F0000000000000042030D0000C11002
:1031230090030DE0FEA3C3E0FF9428EE6480948037
:10313300227B007A00792A22EF94D8EE6480947F70
:1031430022121967FFAE057401A8060822A3E0F551
:10315300548E538D528C5122D3E528942CE5279419
:02316300012247
:0300030002007088
:03007000D20F327A
:030013000234C7ED
:0334C700D20E32F0
:1030E000754AFF7E007F047D007B007A0079231201
:1030F0001BEDE4FFE4FE74232FF8E6FD74392EF88F
:10310000E6FCD39D400DEC954A5008E6FD74232F54
:10311000F8A6050EBE10DF74232FF8E6F54A0FBFA0
:0231200004D2D7
:01312200228A
:100B2A00E4F549120026E4F529C20CF531752D01C8
:100B3A00902DAEE493653560097F201233AA8F3574
:100B4A0080EEE52D65317003020CE1E531B4090050
:100B5A004003020CD9900B66F8282873020B810215
:100B6A000BFF020C13020C34020C5B020C79020C10
:100B7A0093020CBD020CC57534FF754EFF754F2DDF
:100B8A00755034120F91E4F52FF530F537F538D258
:100B9A00A2F527F528E52824C8FDE4FF12309D7444
:100BAA003F2528F582E43403F583EFF00528E5288C
:100BBA0070020527C3940BE527940040D8122A90A7
:100BCA00E4FDFF12309DEF5401F52AAD307F151276
:100BDA003428AD2F7F16123428752F477530548567
:100BEA002F378530381231347D0212000612313423
:100BFA007D03020CD6E4F534754EFF754F2D755002
:100C0A003F120F91C2A2020CD97534FF7BFF7A05FD
:100C1A007936122C0A754EFF754F2D75504A120FF0
:100C2A00ADE4F531752D01020CD9753433754EFFDB
:100C3A00754F2D755055120FADC210AD387F151274
:100C4A003428AD377F161234281231347D04020C51
:100C5A00D6753401754EFF754F2D755060120F9B76
:100C6A007D0212347D1231347D031200068010E4B5
:100C7A00F534120F7ED2101231347D0312347D12F4
:100C8A0031347D0412347D8046753405754EFF7506
:100C9A004F2D7550767B017A03794A121C85AD383F
:100CAA007F15123428AD377F161234281231347D5D
:100CBA00048019753415120F7E80147534FF754E31
:100CCA00FF754F2D755081120F9B7D04120006E4AB
:100CDA00F527F52885312DE52DB409004003020DCD
:100CEA00BC900CF2F8282873020D0D020D13020DA8
:100CFA00B7020D2A020D3E020D66020D82020D9107
:100D0A00020DAF753101020DBFD3E5289405E52721
:100D1A0094005003020DBF1228A7EF701A020DB7F4
:100D2A00309031D3E5289403E52794005003020D4F
:100D3A00BF020DB2209006753103020DBF12312396
:100D4A00501212313B400DD3E528941EE52794003A
:100D5A004063803DE4F527F528020DBF209002800C
:100D6A003890030DE0FEA3D312312A5006C3123184
:100D7A003B5042753107803D309002801412315B3E
:100D8A004033753108802E123123500A12313B400C
:100D9A0005753105801F20900575310680171231BF
:100DAA005B4012800330900D753104800875310262
:100DBA008003E4F5317B007A00792EE4FD12000607
:100DCA007B007A00792E7D0130100512000680031F
:100DDA0012347D1224E5122E9DA29092A530A6030C
:100DEA00433301E53325E0F533B4F0077D027F0B89
:100DFA0012346D301405121F85C214300B051222ED
:100E0A00C3C20B052CE52CAE2B7002052B14FFBEBA
:100E1A000323BFFF20E4F52BF52C0536533607AF25
:100E2A0036E534A807088002C333D8FC30E704C289
:100E3A00A08002D2A0200F03020F687F241233AAD7
:100E4A00EF7F00FEC006C0077F231233AAEFFDD052
:100E5A00E02DFED0E0340090030DF0A3CEF0AD2AD1
:100E6A007F14123428E52DB405417F211233AA8F4D
:100E7A00307F221233AA8F2FE537C4F854F0C8689E
:100E8A00FEE538C4540F48FFC3E5389FF538E53707
:100E9A009EF537E52FC4F854F0C868FEE530C4540F
:100EAA000F482538F538EE3537F5371231D812267E
:100EBA004E0528E52870020527053278027C037D55
:100ECA00017B017A03794A7E007F0B12191F754E46
:100EDA00FF754F2D75508C9002C7E0FCA3E0FDA36F
:100EEA00E0FE1231507A037934120FB7754F2D751F
:100EFA00508C900001E0FCA3E0FDA3E0FE1231500B
:100F0A007A03790F120FB7754F2D7550929002A080
:100F1A00E0F551A3E0F55290013FE0F553A3E0F567
:100F2A00547B017A037929121C85754EFF754F2D62
:100F3A0075509D755100852D52A290E4337553006A
:100F4A00F554A210E433755500F5567557008529F6
:100F5A00587B017A03791A121C85C2A1C20F200E8E
:100F6A0003020B4C120FC0122FEF1230E0D2A1C2B3
:040F7A000E020B4C0C
:100F7E00754EFF754F2D75506B7B017A03794A12B2
:100F8E001C85227B017A03794A121C85227B017A09
:100F9E0003794A121C85C2107B007A00792A227BC3
:100FAE00017A03794A121C85227B01121C85754E2B
:020FBE00FF2210
:0D0006001231448002C333D8FC4F0219AD03
:0E347D001231448002C333D8FCF45F0219AD53
:0734B100E4F531752D012245
:10344C00123416D292123416C29222123391020006
:01345C00521D
:10345D005388CF8D8A8F8C438810E58830E5FB2209
:103416005388CF758AE8758CFF438810E58830E5B8
:02342600FB2287
:1033DC00D292123416C291123416C292123416D2F0
:0433EC009102341600
:0C001600C291D292123416D2910234161C
:10339100E4FEEF33929112344CEF25E0FF12341624
:0933A1000EBE08EED291023416B2
:10331400E4FFFEEF25E0FFD292123416A291E433CB
:103324004207C2921234160EBE08E8D29112341625
:013334002276
:10003E00AD07E4FC1233DC7FF0123391120052AFA5
:04004E0005123391D3
:10005200E4FF7E01D291EE600CA291E433FE0FBF69
:0D006200FFF47F002212344F1234167F018C
:01006F00226E
:0A348B00C292C29112344C023416B2
:1033AA0012003E1233DC7FF1123457123314AC0789
:0833BA00120052120016AF04CC
:0133C20022E8
:10342800AC071233DC7FF0123457AF0412004702A6
:0234380000167C
:0632A4008B4B8A4C894DA2
:1032AA0012003EECC3954E5015AB4BAA4CA94D8C5F
:1032BA0082758300121980FF1234570C80E50200D0
:0132CA0016ED
:022FAC00C1144E
:03007300023495BF
:0A34950053C17F43C18053917F3281
:03003B00022B5441
:102B5400C0E0C0F0C083C082C0D075D000C000C047
:102B640001C002C003C004C005C006C00720C27370
:102B7400E5C054F0603124F0605724D0606B24F039
:102B8400605524307055C2C5E5C254FEFFBFA4137E
:102B9400E5C230E0071229AC8FC28003757000D201
:102BA400C18046C2C1804285C272AF70057074553F
:102BB4002FF582E43403F583E572F0E570B4010D7A
:102BC400E572C394644006757100122DB0D2C180C1
:102BD40018D214C2C48012C2C4800E53C17F43C130
:102BE400808000C2C5C2C4C2C1C2C0D007D006D052
:102BF40005D004D003D002D001D000D0D0D082D0F0
:062C040083D0F0D0E032A5
:1029AC00E56F249B7003022A77147003022A7F249C
:1029BC0066B40D004003022A8F9029CCF8282873A6
:1029CC000229F3022A02022A10022A8F022A8F02FB
:1029DC002A1E022A22022A29022A30022A3F022A0D
:1029EC004D022A5B022A69AE71057174D32EF582F1
:1029FC00E43402022A8BAF71057174E02FF582E486
:102A0C003402807BAF71057174022FF582E43403BC
:102A1C00806DAF2E806D9002C6E0FF806690030043
:102A2C00E0FF805FE4FF3011010F30125674102F5D
:102A3C00FF8050AF71057174342FF582E43403803C
:102A4C003EAF710571740F2FF582E434038030AF03
:102A5C0071057174292FF582E434038022AF71055E
:102A6C0071741A2FF582E434038014902DAFE49323
:102A7C00FF8010AF710571743F2FF582E43403F5BC
:032A8C0083E0FFE5
:012A8F002224
:10335500256320253032643A253032643A253032EF
:0E33650064001F1C1F1E1F1E1F1F1E1F1E1F89
:102FAE00C1934102B7004102790041027E00410304
:102FBE0001004102EE00C111C1124102C6004102E0
:102FCE00CB0044027A0000000044027F00000000A3
:082FDE00410300004102A800BC
:10140E00EE3395E0FDFCE0F8A3E0F9A3E0FAA3E0EB
:10141E002FFBEA3EFAE93DF9E83CF8AF52EF33957F
:10142E00E0FEFDFCEB2FF55AEA3EF559E93DF55885
:10143E00E83CF5577B807A5179017800AF5AAE5966
:10144E00AD58FC121AE7E47B207A0AF9F8121A5CFE
:10145E008E4E8F4F7B807A5179017800AF5AAE59FC
:10146E00AD58AC57121AE77B807A51790178001289
:10147E001A5CA804A905AA06C3E55A9FF55AE559B0
:10148E009AF559E55899F558E55798F557E47B10B4
:10149E007A0EF9F8AF5AAE59AD58AC57121AE7E4B6
:1014AE007B6CFAF9F8121A5CEF254FF54FEE354EBC
:1014BE00F54EE47B107A0EF9F8AF5AAE59AD58AC32
:1014CE0057121AE7E47B107A0EF9F8121A5CA80488
:1014DE00A905AA06C3E55A9FF55AE5599AF559E5A5
:1014EE005899F558E55798F557E47B3CFAF9F8AF5B
:1014FE005AAE59AD58AC57121AE7E47B02FAF9F816
:10150E00121A5CEF254FF54FEE354EF54EE47B5833
:10151E007A02F9F8AF5AAE59AD58AC57121AE7E441
:10152E007B02FAF9F8121A5CC3E54F9FF54FE54EB0
:10153E009EF54EE47B3CFAF9F8AF5AAE59AD58AC75
:10154E0057121AE7E47B3CFAF9F8121A5CA804A9C0
:10155E0005AA06C3E55A9FF55AE5599AF559E55875
:10156E0099F558E55798F5577402254FF54FE43520
:10157E004EF54EFEAF4F3395E0FDFC7BE07AA5793C
:10158E00017800123059EF2550F550AE4EAF4FEEA8
:10159E003395E0FDFC7BE07AA57901780012305995
:1015AE007BE07AA579017800121A5CC3E54F9FF5AE
:1015BE004FE54E9EF54EFEAF4F7C077D08121A2664
:1015CE00EF2551F5517C077D081219BFC3E54F9FDA
:1015DE00F54FE54E9EF54EFEAF4F7C007D1E121A66
:1015EE0026EF2552F5527C007D1E1219BFC3E54F22
:1015FE009FF54FE54E9EF54E229002A0E0FEA3E031
:10160E00FF7C007D8F1219D1AE04AF05E4FCFD7B8B
:10161E00807A3A7909F8121A5C8F4D8E4C8D4B8C6C
:10162E004A9002C7E0FCA3E0FDA3E0FEA3E0227E09
:10163E00007F077D007B01121BED7E0022AE16AFF0
:10164E0017FCFD7B147A447902F8121A5CE51C2F04
:10165E00F51CE51B3EF51BE51A3DF51AE5193CF5A3
:10166E00197F207EEE7DD97C08AB1CAA1BA91AA877
:10167E0019227D007E00785B7C007B017A0279CC9A
:10168E007F0702191F7F077D007B01021BED7E0085
:10169E007F047D007B01021BEDAF6AEF3395E0FE08
:1016AE0074662FF58274333EF583E493229002CC58
:1016BE00E0FEA3E0FF7C007D04121A26ED4C22E032
:1016CE00FF3395E0F5528F53A3E0FF3395E0F554C9
:1016DE008F55A3E0FF3395E022FF121AE7AC00AD61
:1016EE0001AE02AF03227E007F0B7D007B01021B49
:1016FE00ED0552E51C2420F51CE51B34EEF51BE52B
:10170E001A34D9F51AE5193408F51922E51C943462
:10171E00F51CE51B9432F51BE51A94DCF51AE51958
:10172E009408F5191552227B017A0279C622FF120E
:10173E001AE7E47B3CFAF9F8121AE7C3E5529BF577
:10174E0052900301E0222401FFE43EFEE43DFDE45D
:10175E003C22FF121AE7C3E5519FF551E47BE97A6B
:10176E0003F9F8227562017563027564A9855065E7
:10177E0085516622254DF54DEE354CF54CED354B2C
:10178E00F54BEC354AF54A2278507C007D007B0102
:10179E007E007F0302191FE4F54EF54FAF51EF3374
:1017AE0095E0FE7C007D3C0219BFE51CF0A3E51B15
:1017BE00F0A3E51AF0A3E519F0900301E0227F07EC
:1017CE007B01021BEDE0FCA3E0FDA3E0FEA3E0F530
:1017DE001C8E1B8D1A8C19223395E0FCD3ED9F7451
:1017EE0080F86C98227F347E327DDC22754EFF7538
:1017FE004F33755055854A51227E007F037D007B05
:10180E0001021BED74FFF51CF51BF51AF51922905C
:10181E0002ADE0FF9002EDE0229002AEE0FF9002FA
:10182E00F0E0227562017563027564B0229002B415
:10183E00E0FF9002EFE0229002B5E0FF9002F1E0AF
:01184E002277
:10343A00EF75F00A84AEF0EF75F00A84C454F04ECA
:01344A00FF82
:01344B00225E
:102E2B009002D2E004F0E0643C7066F09002D1E0D6
:102E3B0004F0E0643C705AF09002D0E004F0E064DF
:102E4B0018704EF09002CFE004F01216BB700EA378
:102E5B00E0B40209A3E0641E701F0480159002CE3B
:102E6B00E0FF1216AAFF9002CFE0FD1217E6400911
:102E7B007401F09002CEE004F09002CEE0B40D119C
:102E8B007401F09002CDE004F070069002CCE004E7
:022E9B00F02223
:10278B0078687C007D007B007A00795B7E007F0798
:10279B0012191FE567256EF56EC364809480500A8D
:1027AB00156D743C256EF56E8016D3E56E648094C2
:1027BB00BB400D056DE56E75F03C12194585F06E4D
:1027CB00E566256DF56DC364809480500A156C74B5
:1027DB003C256DF56D8016D3E56D648094BB400D83
:1027EB00056CE56D75F03C12194585F06DE56525B9
:1027FB006CF56CC364809480500A156B7418256C4F
:10280B00F56C8016D3E56C64809497400D056BE5F1
:10281B006C75F01812194585F06CC3E56B648094E8
:10282B0081502C156A1216BB700AE56AB402057545
:10283B006B1D80051216A7F56BC3E56A6480948146
:10284B005033E569156970021568756A0C8026129C
:10285B0016BB7010E56AB4020BD3E56B6480949DD4
:10286B004013800C1216A7FFAD6BED1217E6400557
:10287B00056A756B01D3E56A6480948C400B05691E
:10288B00E56970020568756A01A864AC63AD627B8B
:0C289B00007A0079687E007F0702191F98
:100FC000E4F54EF54FF556F555F554F553209003DD
:100FD000300D2E7B017A0279CC1233C3900001E0F0
:100FE000FCA3E0FDA3E0FEA3E0FF9002C7121B8A72
:100FF00090013FE0FFA3E09002A0CFF0A3EFF080CC
:101000003F12162F121754FC7B807A3A7909780028
:101010001216E89002C7121B8AE4FFFEFDFC900244
:10102000C7E0F8A3E0F9A3E0FAA3E0FBC3121B7941
:10103000700E9002A1E004F070069002A0E004F0AF
:1010400090027A121632121754FC90027A121B8AFE
:1010500090027F121632121754FC90027F121B8AE4
:10106000122E2B900005E0FCA3E0FDA3E0FEEC3384
:101070009000055014A3A3A3E02478FFEE34ECFE07
:10108000ED34FFFDEC34FF800C1216322488FFEEA5
:101090003413121759FCE47B107A27F9F8123059EF
:1010A0009002B7EFF0121607121782E54D5403F5C0
:1010B0004DE4F54CF54BF54AFFFEFDFCAB4DAA4C5B
:1010C000A94BA84AC3121B79700CFB7A00792A7DC0
:1010D00001120006800B7B007A00792A7D01123410
:1010E0007D121607121782AF4DAE4CAD4BFC121796
:1010F0006A1216E88F4D8E4C8D4B8C4A8E168F17C8
:101100007A0279A21217963011020550900301E07D
:1011100054036402703A900279F07B9C7AEAF9F801
:10112000A312163212176090027A12163212173C6E
:1011300030E2241217A590027A12140EC364809430
:10114000805005E4F54EF54F900279E54FF08007A9
:10115000E4F552900279F09002981217D390029819
:10116000E0FCEC3350031216FF900301E0540364DB
:1011700002702812164BD3121B7940101217F3126B
:101180001675121B795005121812800F1217F312E0
:101190001675C3121B79400312171A900279E004E6
:1011A000F0E0C3941E500B1216801217728552671E
:1011B0008012E4900279F0FDFE121684121772E597
:1011C0005204F56712278B90028A1217B8540364F1
:1011D0000270559002CBE0540F6401701A9002AF78
:1011E000E0704512181D6F703F1218276F7039FD9F
:1011F0001213FE7D01802E9002CBE0540F6402702A
:10120000279002AFE0702112181DB5071B12182796
:10121000B5071590027A121B96000000007B017A38
:10122000037900E4FD1200069002ADE0FF12343AAB
:10123000900271EFF09002AEE0FF12343A90027229
:10124000EFF09002AFE0FF12343A900273EFF090AB
:101250000279E0FF12343A900274EFF07A0279A535
:101260001217963012020550900301E054306420AA
:10127000703A90027EF07B9C7AEAF9F8A31216325B
:1012800012176090027F12163212173C30E62412B9
:1012900017A590027F12140EC3648094805005E459
:1012A000F54EF54F90027EE54FF08007E4F5529041
:1012B000027EF090029C1217D390029CE0FCEC336B
:1012C00050031216FF900301E0543064207028127E
:1012D000164BD3121B7940101217F3121675121BFE
:1012E000795005121812800F1217F3121675C312D7
:1012F0001B79400312171A90027EE004F0E0C394B9
:101300001E500E12168012183112177B85526780FC
:1013100021E490027EF0785B7C00FD7B017A02790B
:10132000CCFE7F0712191F12183112177BE55204E9
:10133000F56712278B9002921217B8543064207010
:10134000569002CBE054F06410701B9002B6E0702F
:101350004612183B6F70401218456F703A7D0412A8
:1013600013FE7D05802E9002CBE054F064207027A0
:101370009002B6E0702112183BB5071B121845B554
:10138000071590027F121B96000000007B017A0374
:1013900079007D041200069002B4E0FF12343A9006
:1013A0000275EFF09002B5E0FF12343A900276EF4A
:1013B000F09002B6E0FF12343A900277EFF090021C
:1013C0007EE0FF12343A900278EFF090013DE0B4F5
:1013D000072B301328E47B587A02F9F812162F12E3
:1013E00016E790027A121B8AE47B587A02F9F81207
:0D13F000162F1216E790027F121B8AC213FF
:1013FD00227B017A0379001200067B017A037900C2
:01140D0022BC
:10264E009002AEE060030226E6A3E060030226E6F7
:10265E009002F4E0FF9002ABE06F70359002F5E06F
:10266E00FF9002ACE06F70299002F6E0FF9002AD91
:10267E00E06F701D9002EEE0540324FE600A0470B9
:10268E0057121735E4FD803FD211121735E4FD8045
:10269E00449002BAE0FF9002ABE06F703B9002BB39
:1026AE00E0FF9002ACE06F702F9002BCE0FF900252
:1026BE00ADE06F70239002EEE0540324FE600F0431
:1026CE0070161217357D011227817D028007C21107
:1026DE001217357D011200069002B5E06003022745
:1026EE0080A3E060030227809002FBE0FF9002B21D
:1026FE00E06F70369002FCE0FF9002B3E06F702A3C
:10270E009002FDE0FF9002B4E06F701E9002EEE0CA
:10271E00543024E0600B241070581217357D04805D
:10272E0040D2121217357D0480459002C1E0FF9011
:10273E0002B2E06F703C9002C2E0FF9002B3E06F15
:10274E0070309002C3E0FF9002B4E06F70249002EC
:10275E00EEE0543024E06010241070161217357D10
:10276E00051227817D068007C2121217357D0512CC
:0D277E000006221200067B017A0279C622B5
:102E9D009002A8E0FD30E01A9002C6E0FE30E0049A
:102EAD00D2118006EE30E102C211EE54F89002C646
:102EBD00800E9002A8E0FD30E10E9002C6E054F8BD
:102ECD00F0ED54FC9002A8F09002A8E0FD30E41A59
:102EDD009002C6E0FE30E404D2128006EE30E50228
:102EED00C212EE548F9002C6800E9002A8E0FD3003
:102EFD00E50E9002C6E0548FF0ED54CF9002A8F08D
:012F0D0022A1
:1031D800309005754A208003754A2A1217FA900222
:1031E800AD1216CDF5568F577B017A0279D3121C92
:1031F800851217FA9002B41216CDF5568F577B0137
:073208007A0279E0021C8547
:102FEF009002B7E0900283F0A3E517F0A3E516F087
:102FFF00900271E0900286F0900272E0900287F0EA
:10300F00900273E0900288F0900274E0900289F0D1
:10301F00900275E090028EF0900276E090028FF0B1
:10302F00900277E0900290F0900278E0900291F099
:10303F00900301E0900296F0A3E52AF07B017A025B
:0A304F007983754E15E4FF0232A4E8
:102A9000E49002B7F090027A121B960000000090BA
:102AA000027F121B9600000000E49002C6F0900323
:102AB00000F09002A8F0900301F0FEFD7A0279CCBC
:102AC0001217CC7A0279A912163D7A0279B0121641
:102AD000937A02797112169C7A02797512169C7A91
:102AE0000279D31216F47A0279E01216F4C211C2F6
:102AF00012E4900279F090027EF09002C7121B96C9
:102B000000000000E49002A0F0A3F0FE7F07FD7B30
:102B1000017A0279F2121BED7A0279B812163D7D24
:102B2000007A0279F91217CC7E007A0279BF121668
:102B3000937A0279A21218077A0279A512180790DF
:102B40000298121B960000000090029C121B960037
:042B5000000000225F
:10320F00E47B587A02F9F89002C7E0FCA3E0FDA333
:10321F00E0FEA3E0FF121AE7AC00AD01AE02AF0370
:10322F0022E054F0FFF0900356E022900356E07B2B
:06323F00017A0279A822C9
:101F8500E4F54A900355E0121BC7201400203C07D6
:101F9500204508204E0920570A20600B20A10C205F
:101FA500AA0D20B30E20BC0F20C51020CE1120D7BE
:101FB5001220E11320EA1420F31520FD162106173F
:101FC500210F1B21181C21211D212A1E21331F2110
:101FD5007720218921219222219B2321A42421AD2F
:101FE5002521BF2621C92721D22821DB2921E52A40
:101FF50021EE2B21F732220433221234221A352204
:10200500233622423722623822823E000022B890CF
:102015000356E07B007A00792AB40507E4FD120037
:10202500068005E4FD12347DAD2A7F14123428ABF9
:102035002AE4FDFF0231A1900356E090029BF022B5
:10204500900356E090029AF022900356E090029990
:10205500F022900356E0900298F022900301E0549C
:10206500F0F0900356E014601314601814601D140A
:102075006022240460030222B8022151900301E08A
:102085004401F022900301E04406F022900301E0B0
:102095004402F022900301E04403F0229002CB12A7
:1020A5003230022183900356E09002EDF022900336
:1020B50056E09002F0F022900356E09002A2F02242
:1020C500900356E09002A3F0229002EE1232300205
:1020D50021B9900356E0049002F4F022900356E0F3
:1020E5009002F5F022900356E09002F6F02290035C
:1020F50056E0049002BAF022900356E09002BBF03D
:1021050022900356E09002BCF022900356E0900224
:102115009FF022900356E090029EF022900356E035
:1021250090029DF022900356E090029CF0229003CD
:1021350001E0540FF0900356E014601614601B1470
:102145006020146025240460030222B8900301E096
:10215500F022900301E04410F022900301E0446076
:10216500F022900301E04420F022900301E0443086
:10217500F0229002CBE0540F123233C454F04F904A
:1021850002CBF022900356E09002EFF02290035626
:10219500E09002F1F022900356E09002A5F0229023
:1021A5000356E09002A6F0229002EEE0540F1232A0
:1021B50033C454F04F9002EEF022900356E00490A1
:1021C50002FBF022900356E09002FCF022900356A9
:1021D500E09002FDF022900356E0049002C1F02247
:1021E500900356E09002C2F022900356E09002C39D
:1021F500F02212323A6004E4FD800F7D01800B125B
:10220500323A60047D0480027D0502000612320F19
:1022150090027A800612320F90027F021B8A900389
:1022250056E0B4010912320F90027A121B8A7B0123
:102235007A037900E4FD1222B97D01801D900356D1
:10224500E0B4010912320F90027F121B8A7B017ADA
:102255000379007D041222B97D0502347D90035671
:10226500E0FF30E004D2118006EF30E102C211EF49
:1022750030E403D21222EF30E539C21222783F7CD6
:10228500037D017B017A0379567E007F0B12191FAE
:10229500E4F54AE54A24C8FD743F254AF582E4344D
:1022A50003F583E0FBE4FF1231A1054AE54AC39437
:0322B5000B40E0FB
:0B22B8002212347D7B017A03790022A2
:102DB000900355E02437606B14606C2466B40D00FA
:102DC0005068902DD075F003A4C58325F0C583739A
:102DD000022DF7022DFB022DFF022E2A022E2A02BF
:102DE0002E03022E07022E0B022E0F022E13022E8E
:102DF00017022E1B022E1FE4F56F22756F0122753C
:102E00006F0222756F0522756F0622756F07227596
:102E10006F0822756F0922756F0A22756F0B227574
:0B2E20006F0C22756F6522756F662233
:062FE600011D00011E00A8
:0834A9008F993099FDC29922B0
:0300230002327630
:10327600C0E0C083C082C0D030981A7465251DF5A1
:1032860082E43403F583E599F0C298051DE51DB483
:0E3296000803751D00D0D0D082D083D0E03266
:10324500E4FFE51DB51E0A0FBFFFF7E41219ADFF38
:1032550022C2AC7465251EF582E43403F583E012C1
:1032650019AD051EE51EB40803E4F51ED2AC7F01B9
:013275002236
:10007600061D1C000100000000000000000000003A
:100086000000000010270000201C000090D0030094
:10009600000000000000000000000000000000005A
:1000A600000000000000000000000000000000004A
:1000B600000000000000000000000000000000003A
:1000C600000000000000000000000000000000002A
:1000D600000000000000000000000000000000001A
:1000E600000000000000000000000000000000000A
:1000F60000000000000000000000000000000000FA
:1001060000000000000000000000000000000000E9
:1001160000000000000000000000000000000000D9
:1001260000000000000000000000000000000000C9
:1001360000000000000000000000000000000000B9
:1001460000000000000000000000000000000000A9
:100156000000000000000000000000000000000099
:100166000000000000000000000000000000000089
:100176000000000000000000000000000000000079
:100186000000000000000000000000000000000069
:100196000000000000000000000000000000000059
:1001A6000600140001000000D008000080250000B1
:1001B6000100010000000000000000000000000037
:1001C6000000000000000000000000000000000029
:1001D6000000000000000000000000000000000019
:1001E6000000000000000000000000000000000009
:1001F60000000000000000000000000000000000F9
:1002060000000000000000000000000000000000E8
:1002160000000000000000000000000000000000D8
:1002260000000000000000000000000000000000C8
:1002360000000000000000000000000000000000B8
:1002460000000000000000000000000000000000A8
:100256000000000000000000000000000000000098
:100266000000000000000000000000000000000088
:100276000000000000000000000000000000000078
:100286000000000000000000000000000000000068
:100296000000000000000000000000000000000058
:1002A6000000000000000000000000000000000048
:1002B6000000000000000000000000000000000038
:1002C6000000000000000000000000000000000028
:1002D60006090D0000000000FFFF000000000000FE
:1002E6000300000000000000000000000000000005
:1002F60000000000000000000000000000000000F8
:1003060000000000000000000000000000000000E7
:1003160000000000000000000000000000000000D7
:1003260000000000000000000000000000000000C7
:1003360000000000000000000000000000000000B7
:1003460000000000000000000000000000000000A7
:100356000000000000000000000000000000000097
:100366000000000000000000000000000000000087
:100376000000000000000000000000000000000077
:100386000000000000000000000000000000000067
:100396000000000000000000000000000000000057
:1003A6000000000000000000000000000000000047
:1003B6000000000000000000000000000000000037
:1003C6000000000000000000000000000000000027
:1003D6000000000000000000000000000000000017
:1003E6000000000000000000000000000000000007
:1003F60000000000000000000000000000000000F7
:1004060006090D00FFFF000000000000FFFF0000CE
:10041600031B9A000000000000000000000000001E
:1004260000000000000000000000000000000000C6
:1004360000000000000000000000000000000000B6
:1004460000000000000000000000000000000000A6
:100456000000000000000000000000000000000096
:100466000000000000000000000000000000000086
:100476000000000000000000000000000000000076
:100486000000000000000000000000000000000066
:100496000000000000000000000000000000000056
:1004A6000000000000000000000000000000000046
:1004B6000000000000000000000000000000000036
:1004C6000000000000000000000000000000000026
:1004D6000000000000000000000000000000000016
:1004E6000000000000000000000000000000000006
:1004F60000000000000000000000000000000000F6
:1005060000000000000000000000000000000000E5
:1005160000000000000000000000000000000000D5
:1005260000000000000000000000000000000000C5
:1005360006040400000000000000000000000000A7
:1005460000000000000000000000000000000000A5
:100556000000000000000000000000000000000095
:100566000000000000000000000000000000000085
:100576000000000000000000000000000000000075
:100586000000000000000000000000000000000065
:100596000000000000000000000000000000000055
:1005A6000000000000000000000000000000000045
:1005B6000000000000000000000000000000000035
:1005C6000000000000000000000000000000000025
:1005D6000000000000000000000000000000000015
:1005E6000000000000000000000000000000000005
:1005F60000000000000000000000000000000000F5
:1006060000000000000000000000000000000000E4
:1006160000000000000000000000000000000000D4
:1006260000000000000000000000000000000000C4
:1006360000000000000000000000000000000000B4
:1006460000000000000000000000000000000000A4
:100656000000000000000000000000000000000094
:10066600061A2800010000000103100250C3000012
:100676000F0A053C00010000FA00FA0064002C0194
:100686000000000000000000000000000000000064
:100696000000000000000000000000000000000054
:1006A6000000000000000000000000000000000044
:1006B6000000000000000000000000000000000034
:1006C6000000000000000000000000000000000024
:1006D6000000000000000000000000000000000014
:1006E6000000000000000000000000000000000004
:1006F60000000000000000000000000000000000F4
:1007060000000000000000000000000000000000E3
:1007160000000000000000000000000000000000D3
:1007260000000000000000000000000000000000C3
:1007360000000000000000000000000000000000B3
:1007460000000000000000000000000000000000A3
:100756000000000000000000000000000000000093
:100766000000000000000000000000000000000083
:100776000000000000000000000000000000000073
:100786000000000000000000000000000000000063
:1007960006242400FFFF02030000000010270000CB
:1007A6000500FA00FA0064002C01003C00001F005E
:1007B6000000000000000000000000000000000033
:1007C6000000000000000000000000000000000023
:1007D6000000000000000000000000000000000013
:1007E6000000000000000000000000000000000003
:1007F60000000000000000000000000000000000F3
:1008060000000000000000000000000000000000E2
:1008160000000000000000000000000000000000D2
:1008260000000000000000000000000000000000C2
:1008360000000000000000000000000000000000B2
:1008460000000000000000000000000000000000A2
:100856000000000000000000000000000000000092
:100866000000000000000000000000000000000082
:100876000000000000000000000000000000000072
:100886000000000000000000000000000000000062
:100896000000000000000000000000000000000052
:1008A6000000000000000000000000000000000042
:1008B6000000000000000000000000000000000032
:1008C6000607140040420F00A08601000101000047
:1008D6003403000090FDFFFF000000000000000050
:1008E6000000000000000000000000000000000002
:1008F60000000000000000000000000000000000F2
:1009060000000000000000000000000000000000E1
:1009160000000000000000000000000000000000D1
:1009260000000000000000000000000000000000C1
:1009360000000000000000000000000000000000B1
:1009460000000000000000000000000000000000A1
:100956000000000000000000000000000000000091
:100966000000000000000000000000000000000081
:100976000000000000000000000000000000000071
:100986000000000000000000000000000000000061
:100996000000000000000000000000000000000051
:1009A6000000000000000000000000000000000041
:1009B6000000000000000000000000000000000031
:1009C6000000000000000000000000000000000021
:1009D6000000000000000000000000000000000011
:1009E6000000000000000000000000000000000001
:1009F6000631200000000000000000000100000099
:100A060001000000A08601000000000000001F0099
:100A16000000FB00000000000000000000000000D5
:100A260000000000000000000000000000000000C0
:100A360000000000000000000000000000000000B0
:100A460000000000000000000000000000000000A0
:100A56000000000000000000000000000000000090
:100A66000000000000000000000000000000000080
:100A76000000000000000000000000000000000070
:100A86000000000000000000000000000000000060
:100A96000000000000000000000000000000000050
:100AA6000000000000000000000000000000000040
:100AB6000000000000000000000000000000000030
:100AC6000000000000000000000000000000000020
:100AD6000000000000000000000000000000000010
:100AE6000000000000000000000000000000000000
:100AF60000000000000000000000000000000000F0
:100B060000000000000000000000000000000000DF
:100B160000000000000000000000000000000000CF
:040B2600B562244749
:022FEC00C10D15
:102F0E00FFEA3EFEE93DFDE83CFC900005121B8AFF
:102F1E00900005E0F8A3E0F9A3E0FAA3E0FB22ABF2
:102F2E004AAA4BA94C121980250AF50A250BF50B56
:102F3E002274102512F58274003511F583E022AB50
:102F4E004AE54C2404F9E4354BFAE92512F9EA3541
:102F5E0011FA021967EFF0EDA3F0E4A3F0A322E05B
:102F6E00FCA3E0FDA3E0FEA3E022FEE07C00240033
:012F7E002230
:1024E500D3E512942CE5119401400BE4F510F51198
:1024F500F512F50CF50D74102512F974003511FA65
:102505007B01123245EF700302264DE510706BAF6B
:102515000DEF900B2693FE122F3FFDB5060A050D14
:10252500E50D7022050C801EEF900B2893B5050F65
:10253500300C0C050DE50D7002050CD2098007E481
:10254500F50CF50DC2090512E51270020511E50D30
:102555006402450C600302264D3009090529F51072
:10256500C20C0234B1E4F50CF50DF511F512751038
:1025750001F50AF50BF508F50922E5106401703738
:10258500050DE50D7002050C122F3F122F36E50DD6
:102595006404450C7018900013E0900012122F7817
:1025A500F509EC3EF508751002E4F50CF50D05127C
:1025B500E5127002051122E51064027036050DE57D
:1025C5000D7002050C122F3F122F36E50DB50908C7
:1025D500E50CB508037510030512E5127002051127
:1025E500E50D642C7004E50C6401705CF510F511C3
:1025F500F51222E5106403704F050DE50D70020517
:102605000CE5092402FFE43508FEEF650D7003EEC5
:10261500650C702CF50CF50DF511F512F51074140B
:102625002509F58274003508F583E0B50A1274159D
:102635002509F58274003508F583E0B50B02D20B48
:082645000512E51270020511F7
:01264D00226A
:1022C3007B017A017941123373900141E014604537
:1022D30024FC700302243724F870030224462403E9
:1022E30060030224E1900142E024F760030224E446
:1022F300900156E0900155122F78F50FEC3EF50E44
:10230300D3E50F9514E50E951350030224E4850ECF
:1023130013850F1422900142E024DF70030223CAC5
:1023230024F17003022414241060030224E49001B6
:102333004FE090013EF0900145E0900004F09001E1
:1023430046E0900003F0900147E0900002F0900116
:1023530048E0900001F0122F6D24F4FFEE3401FEEB
:10236300E43DFDE43CFCE47BE87A03F9F8121AE768
:10237300900001121B8A900001122F6DFFC007907D
:10238300013EE0FB3395E0FAF9F8D007C3EF9BFF7A
:10239300EE9AFEED99FDEC98FC900001121B8A90D9
:1023A300014DE0FF90013FE4F0A3EFF090014EE018
:1023B300FE900140E02400F090013FE03EF09001E8
:1023C30050E090013CF022900152E0FE900151E078
:1023D3007C002400FFEC3E900009F0A3EFF0900195
:1023E30053E090000BF0900154E090000CF090014A
:1023F30055E090000DF0900156E090000EF0900132
:1024030057E090000FF0900158E090013DF0D20D9D
:1024130022754D0CE4FF7445254DF582E43401F536
:1024230083E0FE74392FF8A606740C254DF54D0F85
:10243300BF10E322900142E06006147003D20A2227
:10244300C20A22900142E024FC70030224D8240330
:1024530060030224E490014DE0FFE4FCFDFE122F33
:102463001890014EE07F00FE3395E0FDFCEF2B1248
:102473002F0EC000C001C002C00390014FE07E00D8
:102483007810C333CE33CED8F9FFEE3395E0FDFC9D
:10249300D003D002D001D000EB2F122F0EC000C00A
:1024A30001C002C003900150E07E007818C333CE10
:1024B30033CED8F9FFEE3395E0FDFCD003D002D044
:1024C30001D000EB2FFFEA3EFEE93DFDE83CFC9026
:1024D3000005021B8A90015DE0900000F022E4F504
:0124E3004DAB
:0124E40022D5
:10346D00900141122F63F07B017A017941022C0A00
:102C0A008B4A8A4B894CE4F50AF50B90000212199B
:102C1A0080750800F5097FB51234A97F621234A9BC
:102C2A00AB4AAA4BA94C121967122C9D121967F5C7
:102C3A000AF50B900001121980FF1234A9900001C5
:102C4A00122F2D900002121980FF1234A99000024F
:102C5A00122F2D900003121980122C9D900003123E
:102C6A002F33E4F511F512C3E5129509E51195081C
:102C7A005017122F4DFF1234A9122F4D122F36055D
:102C8A0012E5127002051180DEAF0A1234A9AF0BE9
:0E2C9A000234A9FF1234A9AB4AAA4BA94C225E
:103373008B4E8A4F8950E5092404FFE43508FEA8E3
:0E33830001AC02AD037B017A00791002191F24
:1032F2009001417406F0A37401F07406122F661255
:103302002F63EBF0E4A3F0A3F07B017A0179410291
:023312002C0A83
:1033C3008B5B8A5C895DA801AC02AD037B017A004B
:0933D30079097E007F0702191F31
:1028A700900005121B9600000000E4900000F0A3C2
:1028B700121B9600000000E490013FF0A3F0900186
:1028C7003CF090013EF090013DF0F50AF50BF51153
:1028D700F512F50CF50DF508F509C20B7E017F2CF5
:1028E700FD7B017A007910121BEDC20A7A0179A6E5
:1028F7001229827002FF22C20A7A0079761229828F
:102907007002FF22C20A7A0879C61229987002FF5C
:1029170022C20A7A0779961229987002FF22C20A00
:102927007B017D011229A27002FF22C20A7D2012BB
:10293700298C7002FF22C20A7D2112298C7002FFA6
:1029470022C20A7B0B7D307F011232F2123165EF12
:102957007002FF22C20A7B0A7D041229A27002FFBD
:1029670022C20A7BFF7A0279D6122C0A123165EF4E
:102977007002FF22C20AD20C7F01227BFF122C0AAF
:10298700123165EF227B017F011232F2123165EFBE
:10299700227BFF122C0A123165EF227F0D1232F2D1
:0529A700123165EF2272
:10316500E4F54AF54BF54C200A2CE54CC394055083
:1031750025200B19E54B64E87004E54A6403600DEE
:10318500054BE54B7002054A1224E580E41222C383
:0B319500C20B054C80D1A20AE433FFFE
:0131A000220C
:0734B80053D9BFE4F5D9224E
:1033F000758845758920758D987591047592AF759E
:03340000933C22D8
:0434BF0075981022CA
:0434C30075C1892224
:1034030075F1F375A5F975A6BF75D40C75E105754E
:03341300E2402272
:10333500E4FFFE75B9800FBF00010EEF64144E70F7
:0F334500F543B9C0E5B930E5FB75A90275B28350
:013354002256
:0A349F0075E60175E47F75A895221B
:100026001234B81233F01234BF1234C3123403122E
:05003600333502349F88
:03000000022CA827
:0C2CA800787FE4F6D8FD758172022CEFF5
:10184F00E709F608DFFA8046E709F208DFFA803E7B
:10185F0088828C83E709F0A3DFFA8032E309F60868
:10186F00DFFA8078E309F208DFFA807088828C83D0
:10187F00E309F0A3DFFA806489828A83E0A3F60884
:10188F00DFFA805889828A83E0A3F208DFFA804C5E
:10189F0080D280FA80C680D4806980F28033801035
:1018AF0080A680EA809A80A880DA80E280CA80339E
:1018BF0089828A83ECFAE493A3C8C582C8CCC58316
:1018CF00CCF0A3C8C582C8CCC583CCDFE9DEE780E6
:1018DF000D89828A83E493A3F608DFF9ECFAA9F065
:1018EF00EDFB2289828A83ECFAE0A3C8C582C8CCBB
:1018FF00C583CCF0A3C8C582C8CCC583CCDFEADED4
:10190F00E880DB89828A83E493A3F208DFF980CC35
:10191F0088F0EF60010E4E60C388F0ED2402B4042E
:10192F000050B9F582EB2402B4040050AF232345D5
:06193F00822390189F7343
:10194500C2D530F707B2D563F0FF05F030E70CB22A
:10195500D5F4048463F0FF05F080018430D502F4EA
:0219650004225A
:10196700BB010689828A83E0225002E722BBFE027E
:09197700E32289828A83E49322B1
:10198000BB010CE58229F582E5833AF583E022501C
:1019900006E92582F8E622BBFE06E92582F8E22266
:0D19A000E58229F582E5833AF583E4932280
:1019AD00BB010689828A83F0225002F722BBFE0119
:0219BD00F32213
:1019BF00EF8DF0A4A8F0CF8CF0A428CE8DF0A42E3C
:0219CF00FE22F6
:1019D100BC000BBE0029EF8DF084FFADF022E4CCFA
:1019E100F875F008EF2FFFEE33FEEC33FCEE9DECC3
:1019F100984005FCEE9DFE0FD5F0E9E4CEFD22ED09
:101A0100F8F5F0EE8420D21CFEADF075F008EF2F52
:101A1100FFED33FD4007985006D5F0F222C398FD43
:051A21000FD5F0EA22E0
:101A2600C2D5EC30E709B2D5E4C39DFDE49CFCEEDB
:101A360030E715B2D5E4C39FFFE49EFE1219D1C369
:101A4600E49DFDE49CFC80031219D130D507C3E464
:061A56009FFFE49EFE224A
:101A5C00E88FF0A4CC8BF0A42CFCE98EF0A42CFC29
:101A6C008AF0EDA42CFCEA8EF0A4CDA8F08BF0A4A7
:101A7C002DCC3825F0FDE98FF0A42CCD35F0FCEB06
:101A8C008EF0A4FEA9F0EB8FF0A4CFC5F02ECD39CB
:0F1A9C00FEE43CFCEAA42DCE35F0FDE43CFC2238
:101AAB0075F008758200EF2FFFEE33FECD33CDCCF2
:101ABB0033CCC58233C5829BED9AEC99E582984075
:101ACB000CF582EE9BFEED9AFDEC99FC0FD5F0D652
:101ADB00E4CEFBE4CDFAE4CCF9A88222B800C1B97C
:101AEB000059BA002DEC8BF084CFCECDFCE5F0CBBA
:101AFB00F97818EF2FFFEE33FEED33FDEC33FCEBF3
:101B0B0033FB10D703994004EB99FB0FD8E5E4F9AD
:101B1B00FA227818EF2FFFEE33FEED33FDEC33FC9A
:101B2B00C933C910D7059BE99A4007EC9BFCE99A8E
:101B3B00F90FD8E0E4C9FAE4CCFB2275F010EF2FD3
:101B4B00FFEE33FEED33FDCC33CCC833C810D707D3
:101B5B009BEC9AE899400AED9BFDEC9AFCE899F80E
:0E1B6B000FD5F0DAE4CDFBE4CCFAE4C8F922A1
:10305900C2D5E830E70FB2D5E4C39BFBE49AFAE4A2
:1030690099F9E498F8EC30E717B2D512308F121AB3
:10307900E7E4C39BFBE49AFAE499F9E498F880033E
:10308900121AE730D50DE4C39FFFE49EFEE49DFDCF
:04309900E49CFC2295
:101B7900EB9FF5F0EA9E42F0E99D42F0E89C45F0C2
:011B89002239
:0C1B8A00ECF0A3EDF0A3EEF0A3EFF022CE
:101B9600A8828583F0D083D082121BAD121BAD12B2
:101BA6001BAD121BADE473E493A3C583C5F0C583D7
:101BB600C8C582C8F0A3C583C5F0C583C8C582C899
:011BC60022FC
:101BC700D083D082F8E4937012740193700DA3A3AD
:101BD70093F8740193F5828883E4737402936860C1
:061BE700EFA3A3A380DFC1
:101C2900E55A244EF8E6055A22784B300702784ED9
:101C3900E475F001121C190219672000EB7F2ED2FE
:101C4900008018EF540F2490D43440D4FF30040B93
:101C5900EF24BFB41A0050032461FFE55B6002154D
:101C69005B055EE55E7002055D30070D784BE47536
:101C7900F001121C19EF0219AD0232CB7403D2071D
:101C89008003E4C207F55A8B4B8A4C894DE4F55B16
:101C9900F55DF55EE55B60077F20121C6480F575D4
:101CA9005CFFC201C200C202C203C205C206C20869
:101CB900121C32FF700D3007057F00121C75AF5ED4
:101CC900AE5D22B4255FC2D5C204121C32FF24D0F6
:101CD900B40A00501A75F00A785B30D50508B6FFCA
:101CE9000106C6A426F620D5047002D20380D924A1
:101CF900CFB41A00EF5004C2E5D204021E75D20116
:101D090080C6D20080C0D20280BCD2D580BAD205AA
:101D190080B47F20121C642002077401B55B004067
:101D2900F1121C29FF121C64021C9DD208D20680E4
:101D390095121C29FB121C29FA121C29F94A4B700D
:101D49000679467A1F7BFF20022EE55B602A7E001A
:101D59008E8275830012198060060EEE655C70F044
:101D6900C2D5EBC0E0EAC0E0E9C0E0EE121EBCD08B
:101D7900E0F9D0E0FAD0E0FB121967FF60AAEBC0E6
:101D8900E0EAC0E0E9C0E0121C64D0E02401F9D027
:101D9900E03400FAD0E0FBE55C0460DCD55CD98076
:101DA900877BFF7A1E79B8D202809C7910800279EC
:101DB90008C206C2088008D2D5790A8004790AC205
:101DC900D5E55C047002F55CE4FAFDFEFF121C29FE
:101DD900FC7B08200113121C29FD7B1030000A121C
:101DE9001C29FE121C29FF7B20EC3382D592D55089
:101DF90013C3E43000069FFFE49EFEE42001039D27
:101E0900FDE49CFCE4CBF8C201EC700CCFCECDCC48
:101E1900E824F8F870F38017C3EF33FFEE33FEEDD3
:101E290033FDEC33FCEB33FB994002FB0FD8E9EBB4
:101E3900300105F8D0E0C448B201C0E00AEC4D4ECB
:101E49004F78207B0070C2EAB55C0040BCC0E0124C
:101E59001EBED0F0D0E0200104C4C0E0C4B201C06D
:101E6900F0121C4DD0F0D5F0EB021C9D121BC71DC2
:101E79003A531DB4581D0B4C1D07421DB84F1DC0C8
:0F1E8900441DC0491D20431DC6551DAA461DAA54
:101E9800451DAA471F66501D0F2D1D132E1D362BDD
:101EA8001D17231D34201F4F2A1CCF4800001D2E4C
:101EB8003F3F3F00790AA2D5200314300509B91025
:101EC800020404B9080104A2D52006025001042026
:101ED80002689202B55B005034C0E07F20300319DD
:101EE8007F30A20272067205500F121F15C202C27D
:101EF80006C205C2087F30800F300503E9C0E01232
:101F08001C64300503D0E0F9D0E0B55BCC30051790
:101F18007F30B9100C121C647F583004077F78801A
:101F280003B90803121C643002057F2D021C647F6C
:101F3800202008F87F2B2006F322920280CF286EFB
:101F4800756C6C2900D201121C293001F8C2017885
:101F58005B30D50108F6021CCF2D50434958121C9E
:101F6800292403B405004001E4901F6193121C5515
:0D1F7800743A121C55D203755B04021DB4AF
:101BED00EF4E6012EF60010EEDBB010B89828A830F
:101BFD00F0A3DFFCDEFA2289F05007F709DFFCA91C
:0C1C0D00F022BBFEFCF309DFFCA9F02272
:102CB400020B2AE493A3F8E493A34003F68001F201
:102CC40008DFF48029E493A3F85407240CC8C33321
:102CD400C4540F4420C8834004F456800146F6DFF0
:102CE400E4800B0102040810204080902F7FE47ED2
:102CF400019360BCA3FF543F30E509541FFEE493E5
:102D0400A360010ECF54C025E060A840B8E493A3AB
:102D1400FAE493A3F8E493A3C8C582C8CAC583CAD6
:102D2400F0A3C8C582C8CAC583CADFE9DEE780BE8E
:012FEE0000E2
:101C1900FAE6FB0808E6F925F0F618E6CA3AF622CC
:1032CB00EFB40A07740D1232D6740A309811A8990C
:1032DB00B8130CC2983098FDA899C298B811F63063
:0732EB0099FDC299F599223B
:00000001FF
