:100A7600C2041208B7E4F55C120BA250031200265A
:100A86003004F5E54175F005A42442F8E6FF1204AA
:050A96002AC20480E308
:1008B70075FFDE75FFAD75B1677FE87E03EF1F70CB
:1008C700011EEF4E70F743A61043A63F75A5FFAF75
:1008D700B1530780EF60F843B20875E101E4F5A46E
:1008E70075A0FF7598F075C83075CBFF75CAF9D23A
:1008F700CA120B18C299C298120BB5D290C2A4D2D1
:03090700ACD2AFC0
:01090A0022CA
:1005FC0052525252525252525252445252444152FC
:10060C0052525252525252525252525252525252BE
:10061C0052445152445252525252524E534E4E52D6
:10062C004E4E4E4E4E4E4E4E4E4E524452525244E2
:10063C00524141414141414141414141414141418D
:10064C004141414141414141414141525252525239
:10065C00524141414141414141414141414141416D
:10066C00414141414141414141414141414141416E
:10067C005441FF0ABE5457FF0B315452FF0A9B548E
:10068C0049FF0B6B5448FF0B7A5454FF0B88544BA7
:08069C00FF0003544CFF0B4A60
:1009530075F005E5571202EFE55675F005A42583FA
:10096300F58322E52825E025E0242BF822E523243E
:10097300D0FFE434FFFEE4FCFD22EF75F00BA4246A
:100983000BFD7B7122E47B0AFAF9F8227E007D00DD
:030993007C0022C3
:100B18007524F4E4F53AF53BF539F523F52AF5297A
:090B2800C200C203C201D2022284
:10002600053BE53B75F01484AFF08F3B745D2FF80C
:10003600E6F5239005FC93F52AE529B4090040036B
:10004600020193900050F828287302006B02009D6D
:100056000200C402011502013002015302017902B5
:100066000188020190E52AB441210529852325E46A
:10007600F528F536F535F534F533F532F531F53045
:10008600F52FF52EF52DF52CF52B22E52A64447077
:1000960003020193020175E52A24BC601024F66070
:1000A6001224FD600B241070128523262202014AB9
:1000B60002015D120970F52802016B020175E52A3D
:1000C60024BC604724F1603F240570411209661282
:1000D60002C7120988120194A804A905AA06AB074B
:1000E600E4FCFDFEEB2523FFEE3AFEED39FDEC3890
:1000F600FCEF24D0FFEE34FFFEED34FFFDEC34FFC1
:10010600FC1209660202E37529052280378060E544
:100116002AB4510C053C7471253CF8E4F6052922F5
:10012600053C7471253CF8A62322E52A24BC6014FC
:1001360024F1600D240270137471253CF8A6238007
:1001460019052922852338752906228022E52A24C5
:10015600B2600B24FD7018753CFF75290322120945
:10016600700528E5281209681202E375290222752E
:10017600290722E523B48008E525B454031209961D
:0E0186008008E52AB44406052922E4F5292262
:10099600E4F556F55790067D120953E493B52611F2
:1009A60090067E120953740193FA740293F90202B7
:1009B600FB0557E55770020556C39408E5569400A3
:0209C60040D31C
:0109C800220C
:0F0B5C00D2033002FDC2028F993002FDC2032284
:0209FB00AE0745
:1009FD007D447F22120B5CA806E6FF6009120B5C9A
:100A0D000EE62DFD80F17F22120B5C7F3B120B5CFD
:090A1D00ED243B547FFF020B5C49
:0806A4008F0B8E0A8D098C08F2
:1006AC00E4F50EF50CF5127511CA75109A750F3B21
:1006BC00F50DAB12AA11A910A80FAF0BAE0AAD091C
:1006CC00AC0812021F12098812021FAF03AE07EE0C
:1006DC006003750EFFE50E7005E50DB4090C743062
:1006EC002EFEFF120B5C250CF50CAF12AE11AD10EB
:1006FC00AC0F12098812021F8F128E118D108C0FE5
:10070C00050DE50DC3940A40A97F3B120B5CE50C6B
:08071C00243B547FFF020B5C3B
:0B0BA200C3E53A953B6002D322C3225A
:100B3100E538B43B13AF2EEFC3940A500B12097D75
:090B410075160A7FA012090B22AF
:100A9B00E538643F701CAF2EEFC3940A5014120953
:100AAB007D751B0A7FA012085CE4787BF67F7112C0
:030ABB0009FB2212
:0F0B6B00E53824C170087F1412098F1206A422E6
:0E0B7A00E538B43F087F0012098F1206A4224E
:0E0B8800E538B43F087F0B12098F1206A42235
:10000300E53824C57019AF32AE31AD30AC2FAB2E0D
:10001300EB75F005A42443F81202E38B41D20422CA
:100B4A00E53824C5700BE52E75F005A42442F8A6F5
:020B5A00322245
:100ABE00E53824C1601124047016852E24AF24124B
:100ACE000B5CAF24020B5CAF24E4FCFDFE1206A40B
:010ADE0022F5
:0300230002051EB5
:10051E00C0E0C0F0C083C082C0D075D000C000C0A3
:03052E0006C007FD
:100531002098030205DA309D24E599B4900DD2008C
:10054100C29D7539017527000205D5E599652460BD
:10055100030205D5C29D753901F52780778599215B
:10056100E5396403702BD29DE527547FC395216043
:1005710005753781800375378085372120000E305E
:100581000304D2018036C202853799802FC20080D0
:100591002BAF21EF3395E0FE74FC2FF58274053EFD
:1005A100F583E493F522B45105633903800EE539EF
:1005B10064026008E522B44403753903053AE53A5B
:1005C10075F01484AFF08F3A745D2FF8A621E52100
:1005D1002527F527C29802053130990E300107C24F
:0A05E100018537998002D202C29909
:1005EB00D007D006D000D0D0D082D083D0F0D0E0CE
:0105FB0032CD
:100301000000000100000465000000000000C800BA
:10031100000465000000000000C800000465010041
:1003210003000000F00000046500000200000190DD
:100331000000046500010000000190000004650157
:100341000103000001E0000004650001020000015A
:1003510090000004650000000000019000000465A9
:10036100010003000001E00000046500000200003C
:1003710001F400000465000000000001F400000425
:10038100650100000000019000000465000100000B
:10039100000190000004650101030000014A000012
:1003A10002EE0000000000014A000002EE0100031D
:1003B1000000018C000002EE000002000002940027
:1003C1000002EE00000000000294000002EE0100B5
:1003D1000300000318000002EE00000200000339D0
:1003E100000002EE00000000000339000002EE01EF
:1003F1000000000001900000046500010000000100
:100401009000000465010103000001E000000465A3
:10041100000102000001F400000465000100000079
:0904210001F40000046501010072
:100AFD0075F00BE51DA42401F582E5F03403F583B3
:0B0B0D000202D3FB75F00BE51DA422D3
:0F09C900E51E4203AF037D081209D8AB1FAF0331
:1009D800E4FEEEC39D501BD2A0EF30E704D2A28004
:1009E80002C2A2EF25E0FFC2A0A2A1E43342070E93
:0209F80080E09D
:0109FA0022DA
:02042A008F1D24
:10042C00E54175F005A42443F81202C78F408E3FB6
:10043C008D3E8C3D120AFDE47B01FAF9F8C31202E1
:10044C00B17004D2A48002C2A4E54114600E146001
:10045C000F1460102403700EC2A3800AC2A580067C
:10046C00C2978002C2967D08AF3D1209D8AF3E12EA
:10047C0009D8AF3F1209D8AF401209D8120B11247A
:10048C000BF582E5F03403F583E493C454F0120BBE
:10049C00102409F582E5F03403F583E493600543F9
:1004AC00034080035303BF120AFD8E1E8F1FE51FEE
:1004BC00151F7002151E5303FC1209C9E4120B1010
:1004CC00240AF582E5F03403F583E49360047B1091
:1004DC0080035303EF120B112405F582E5F034036E
:1004EC00F5831202D38E1E8F1FE51F151F70021588
:1004FC001E5303F81209C9E54114600D14600D1464
:10050C00600D2403700BD2A322D2A522D29722D243
:01051C009648
:01051D0022BB
:06090B008F138D148B1503
:10091100120A26AF13120794EF6002801EAF141261
:100921000794EF60028014E4F517E517C39516509C
:1009310016A815E6FF120794EF60061207247F013F
:10094100220515051780E3120724AF13120A4F7F02
:0109510000A5
:010952002282
:020A4F008F58BE
:100A5100755964AF591559EF6018120A26E5580403
:100A6100FF120794EF70EC7F011207FF1207247F3A
:040A710000227F01DF
:010A7500225E
:06085C008F188D198B1AA4
:10086200120A26AF18120794EF60028017AF19120E
:100872000794EF6002800D120A26E51804FF1207A2
:1008820094EF60061207247F0122E4F51CE51B1495
:10089200FFE51CC39F500FE4FF1207FFA81AA6072B
:1008A200051A051C80E77F011207FFA81AA6071286
:0408B20007247F0098
:0108B600221F
:080BAD00209204D29280F9228B
:100ADF00755A0B755B54E55B155BAE5A7002155A70
:0E0AEF004E60082092F0D2927F00227F0122FA
:030BB5007F00229C
:100A2600D291D292000000000000000000000000F9
:100A360000000000C291000000000000000000005D
:090A4600000000000000C2922231
:02079400AD07AF
:100796007C80E4FBEC5D6004D2918002C291ECC3E4
:1007A60013FC00120ADF0000000000000000000039
:1007B600000000000000C2920000000000000000DF
:1007C60000000000000000000BBB08C8D29100D258
:1007D6009200000000000000000000000000000081
:1007E60000A291E433C29200000000000000000065
:0807F60000000000000000FFFC
:0107FE0022D8
:0207FF00AD0744
:10080100E4FC7B80FA120ADF309103EB4204EBC374
:1008110013FBC29200000000000000000000000075
:10082100000000000ABA08DDED6004D2918002C226
:100831009100D292000000000000000000000000C2
:1008410000000000C292D2910000000000000000F0
:0A0851000000000000000000AF04EA
:01085B00227A
:10072400755A0B755B54E55B155BAE5A7002155A2E
:100734004E605A209126D292000000000000000072
:100744000000000000000000C29200000000000051
:100754000000000000000000000080CAC2910012E6
:100764000ADFEF60037F01220000000000000000A8
:100774000000000000000000D29100000000000012
:10078400000000000000000000007F00227F012222
:03000000020B965A
:0C0B9600787FE4F6D8FD75817F020A76B6
:10019400E88FF0A4CC8BF0A42CFCE98EF0A42CFC0A
:1001A4008AF0EDA42CFCEA8EF0A4CDA8F08BF0A488
:1001B4002DCC3825F0FDE98FF0A42CCD35F0FCEBE7
:1001C4008EF0A4FEA9F0EB8FF0A4CFC5F02ECD39AC
:0F01D400FEE43CFCEAA42DCE35F0FDE43CFC2219
:1001E30075F008758200EF2FFFEE33FECD33CDCCD3
:1001F30033CCC58233C5829BED9AEC99E582984056
:100203000CF582EE9BFEED9AFDEC99FC0FD5F0D632
:10021300E4CEFBE4CDFAE4CCF9A88222B800C1B95C
:100223000059BA002DEC8BF084CFCECDFCE5F0CB9A
:10023300F97818EF2FFFEE33FEED33FDEC33FCEBD3
:1002430033FB10D703994004EB99FB0FD8E5E4F98E
:10025300FA227818EF2FFFEE33FEED33FDEC33FC7B
:10026300C933C910D7059BE99A4007EC9BFCE99A6F
:10027300F90FD8E0E4C9FAE4CCFB2275F010EF2FB4
:10028300FFEE33FEED33FDCC33CCC833C810D707B4
:100293009BEC9AE899400AED9BFDEC9AFCE899F8EF
:0E02A3000FD5F0DAE4CDFBE4CCFAE4C8F92282
:1002B100EB9FF5F0EA9E42F0E99D42F0EC6480C8C4
:0602C10064809845F02264
:0C02C700E6FC08E6FD08E6FE08E6FF2263
:1002D300E493FC740193FD740293FE740393FF2271
:0C02E300ECF608EDF608EEF608EFF62247
:0C02EF00A42582F582E5F03583F583221A
:0602FB008A838982E4738E
:00000001FF
