:020000040000FA
:2F000000FFFF627D16FFFFFFFFFFFFFFFFFFFFFFFFFFFFFFFFFFFFFFFFFFFFFFFFFFFFFFFFFFFFFFFFFFFFFFFFFFFFFFFFFFFF08
:2F002F00000000000000000000000000000000000000000000000000000000000000000000000000000000000000000000009E04
:2F005E0000000000000000000000000000000000000000000000000000000000000000000000000000000000000000400000DE55
:2F008D0000000000000000000000000000000000000000000000000000000000000000000000000000000000000000400000DE26
:2F00BC0000000240024002400240024002400240024002400240024002400240024002400240024002400240024002000000DE0D
:2F00EB00000002400240024002400240024002400240024002400240024002400240024002400240024002400240024000009EDE
:2F011A0000000000000000000000000000000000000000000000000000000000000000000000000000000000000000400000DE98
:2F01490000000240024002400240024002400240024002400240024002400240024002400240024002400240024002000000DE7F
:2F01780000000240024002400240024002400240024002400240024002400240024002400240024002400240024002000000DE50
:2F01A700000000000000000000000000000000000000000000000000000000000000000000000000000000000000000000009E8B
:2F01D600000000000000000000000000000000000000000000000000000000000000000000000000000000000000000000009E5C
:2F020500000000000000000000000000000000000000000000000000000000000000000000000000000000000000000000009E2C
:2F02340002000000000000000000000000000000000000000000000000000000000000000000000000000000000000000040FA5F
:2F02630002000000000000000000000000000000000000000000000000000000000000000000000000000000000000000040FA30
:2F029200000000000000000000000000000000000000000000000000000000000000000000000000000000000000000000009E9F
:2F02C10002000000000000000000000000000000000000000000000000000000000000000000000000000000000000000040FAD2
:2F02F00002000000000000000000000000000000000000000000000000000000000000000000000000000000000000000040FAA3
:2F031F00000000000000000000000000000000000000000000000000000000000000000000000000000000000000000000009E11
:2F034E00000000000000000000000000000000000000000000000000000000000000000000000000000000000000000000009EE2
:2F037D00000000000000000000000000000000000000000000000000000000000000000000000000000000000000000000009EB3
:2F03AC0002000000000000000000000000000000000000000000000000000000000000000000000000000000000000000040FAE6
:2F03DB0002000000000000000000000000000000000000000000000000000000000000000000000000000000000000000040FAB7
:2F040A00000000000000000000000000000000000000000000000000000000000000000000000000000000000000000000009E25
:2F04390002000000000000000000000000000000000000000000000000000000000000000000000000000000000000000040FA58
:2F04680002000000000000000000000000000000000000000000000000000000000000000000000000000000000000000040FA29
:2F049700000000000000000000000000000000000000000000000000000000000000000000000000000000000000000000009E98
:2F04C600000000000000000000000000000000000000000000000000000000000000000000000000000000000000000000009E69
:2F04F500000000000000000000000000000000000000000000000000000000000000000000000000000000000000000000009E3A
:2F05240002000000000000000000000000000000000000000000000000000000000000000000000000000000000000000040FA6C
:2F05530002000000000000000000000000000000000000000000000000000000000000000000000000000000000000000040FA3D
:2F058200000000000000000000000000000000000000000000000000000000000000000000000000000000000000000000009EAC
:2F05B10002000000000000000000000000000000000000000000000000000000000000000000000000000000000000000040FADF
:2F05E00002000000000000000000000000000000000000000000000000000000000000000000000000000000000000000040FAB0
:2F060F00000000000000000000000000000000000000000000000000000000000000000000000000000000000000000000009E1E
:2F063E00000000000000000000000000000000000000000000000000000000000000000000000000000000000000000000009EEF
:2F066D00000000000000000000000000000000000000000000000000000000000000000000000000000000000000000000009EC0
:2F069C0002000000000000000000000000000000000000000000000000000000000000000000000000000000000000000040FAF3
:2F06CB0002000000000000000000000000000000000000000000000000000000000000000000000000000000000000000040FAC4
:2F06FA00000000000000000000000000000000000000000000000000000000000000000000000000000000000000000000009E33
:2F07290002000000000000000000000000000000000000000000000000000000000000000000000000000000000000000040FA65
:2F07580002000000000000000000000000000000000000000000000000000000000000000000000000000000000000000040FA36
:2F078700000000000000000000000000000000000000000000000000000000000000000000000000000000000000000000009EA5
:2F07B600000000000000000000000000000000000000000000000000000000000000000000000000000000000000000000009E76
:2F07E500000000000000000000000000000000000000000000000000000000000000000000000000000000000000000000009E47
:2F08140002000000000000000000000000000000000000000000000000000000000000000000000000000000000000000040FA79
:2F08430002000000000000000000000000000000000000000000000000000000000000000000000000000000000000000040FA4A
:2F087200000000000000000000000000000000000000000000000000000000000000000000000000000000000000000000009EB9
:2F08A10002000000000000000000000000000000000000000000000000000000000000000000000000000000000000000040FAEC
:2F08D00002000000000000000000000000000000000000000000000000000000000000000000000000000000000000000040FABD
:2F08FF00000000000000000000000000000000000000000000000000000000000000000000000000000000000000000000009E2C
:2F092E00000000000000000000000000000000000000000000000000000000000000000000000000000000000000000000009EFC
:2F095D00000000000000000000000000000000000000000000000000000000000000000000000000000000000000000000009ECD
:2F098C0002000000000000000000000000000000000000000000000000000000000000000000000000000000000000000040FA00
:2F09BB0002000000000000000000000000000000000000000000000000000000000000000000000000000000000000000040FAD1
:2F09EA00000000000000000000000000000000000000000000000000000000000000000000000000000000000000000000009E40
:2F0A190002000000000000000000000000000000000000000000000000000000000000000000000000000000000000000040FA72
:2F0A480002000000000000000000000000000000000000000000000000000000000000000000000000000000000000000040FA43
:2F0A7700000000000000000000000000000000000000000000000000000000000000000000000000000000000000000000009EB2
:2F0AA600000000000000000000000000000000000000000000000000000000000000000000000000000000000000000000009E83
:2F0AD500000000000000000000000000000000000000000000000000000000000000000000000000000000000000000000009E54
:2F0B040002000000000000000000000000000000000000000000000000000000000000000000000000000000000000000040FA86
:2F0B330002000000000000000000000000000000000000000000000000000000000000000000000000000000000000000040FA57
:2F0B6200000000000000000000000000000000000000000000000000000000000000000000000000000000000000000000009EC6
:2F0B910002000000000000000000000000000000000000000000000000000000000000000000000000000000000000000040FAF9
:2F0BC00002000000000000000000000000000000000000000000000000000000000000000000000000000000000000000040FACA
:2F0BEF00000000000000000000000000000000000000000000000000000000000000000000000000000000000000000000009E39
:2F0C1E00000000000000000000000000000000000000000000000000000000000000000000000000000000000000000000009E09
:2F0C4D00000000000000000000000000000000000000000000000000000000000000000000000000000000000000000000009EDA
:2F0C7C0002000000000000000000000000000000000000000000000000000000000000000000000000000000000000000040FA0D
:2F0CAB0002000000000000000000000000000000000000000000000000000000000000000000000000000000000000000040FADE
:2F0CDA00000000000000000000000000000000000000000000000000000000000000000000000000000000000000000000009E4D
:2F0D090002000000000000000000000000000000000000000000000000000000000000000000000000000000000000000040FA7F
:2F0D380002000000000000000000000000000000000000000000000000000000000000000000000000000000000000000040FA50
:2F0D6700000000000000000000000000000000000000000000000000000000000000000000000000000000000000000000009EBF
:2F0D9600000000000000000000000000000000000000000000000000000000000000000000000000000000000000000000009E90
:2F0DC500000000000000000000000000000000000000000000000000000000000000000000000000000000000000000000009E61
:2F0DF40002000000000000000000000000000000000000000000000000000000000000000000000000000000000000000040FA94
:2F0E230002000000000000000000000000000000000000000000000000000000000000000000000000000000000000000040FA64
:2F0E5200000000000000000000000000000000000000000000000000000000000000000000000000000000000000000000009ED3
:2F0E810002000000000000000000000000000000000000000000000000000000000000000000000000000000000000000040FA06
:2F0EB00002000000000000000000000000000000000000000000000000000000000000000000000000000000000000000040FAD7
:2F0EDF00000000000000000000000000000000000000000000000000000000000000000000000000000000000000000000009E46
:2F0F0E00000000000000000000000000000000000000000000000000000000000000000000000000000000000000000000009E16
:2F0F3D00000000000000000000000000000000000000000000000000000000000000000000000000000000000000000000009EE7
:2F0F6C0002000000000000000000000000000000000000000000000000000000000000000000000000000000000000000040FA1A
:2F0F9B0002000000000000000000000000000000000000000000000000000000000000000000000000000000000000000040FAEB
:2F0FCA0000400040004000400040004000400040004000400040004000400040004000400040004000400040004000400000DE9A
:2F0FF90002000000000000000000000000000000000000000000000000000000000000000000000000000000000000000040FA8D
:2F10280002000000000000000000000000000000000000000000000000000000000000000000000000000000000000000040FA5D
:2F105700000000000000000000000000000000000000000000000000000000000000000000000000000000000000000000009ECC
:2F108600000000000000000000000000000000000000000000000000000000000000000000000000000000000000000000009E9D
:2F10B500000000000000000000000000000000000000000000000000000000000000000000000000000000000000000000009E6E
:2F10E400000000000000000000000000000000000000000000000000000000000000000000000000000000000000000000009E3F
:2F111300000000000000000000000000000000000000000000000000000000000000000000000000000000000000000000009E0F
:2F114200000000000000000000000000000000000000000000000000000000000000000000000000000000000000000000009EE0
:2F117100000000000000000000000000000000000000000000000000000000000000000000000000000000000000000000009EB1
:2F11A000000000000000000000000000000000000000000000000000000000000000000000000000000000000000000000009E82
:2F11CF00000000000000000000000000000000000000000000000000000000000000000000000000000000000000000000009E53
:2F11FE00000000000000000000000000000000000000000000000000000000000000000000000000000000000000000000009E24
:2F122D00000000000000000000000000000000000000000000000000000000000000000000000000000000000000000000009EF4
:2F125C00000000000000000000000000000000000000000000000000000000000000000000000000000000000000000000009EC5
:2F128B00000000000000000000000000000000000000000000000000000000000000000000000000000000000000000000009E96
:2F12BA00000000000000000000000000000000000000000000000000000000000000000000000000000000000000000000009E67
:2F12E900000000000000000000000000000000000000000000000000000000000000000000000000000000000000000000009E38
:2F131800000000000000000000000000000000000000000000000000000000000000000000000000000000000000000000009E08
:2F134700000000000000000000000000000000000000000000000000000000000000000000000000000000000000000000009ED9
:2F137600000000000000000000000000000000000000000000000000000000000000000000000000000000000000000000009EAA
:2F13A500000000000000000000000000000000000000000000000000000000000000000000000000000000000000000000009E7B
:2F13D400000000000000000000000000000000000000000000000000000000000000000000000000000000000000000000009E4C
:2F140300000000000000000000000000000000000000000000000000000000000000000000000000000000000000000000009E1C
:2F143200000000000000000000000000000000000000000000000000000000000000000000000000000000000000000000009EED
:2F146100000000000000000000000000000000000000000000000000000000000000000000000000000000000000000000009EBE
:2F149000000000000000000000000000000000000000000000000000000000000000000000000000000000000000000000009E8F
:2F14BF00000000000000000000000000000000000000000000000000000000000000000000000000000000000000000000009E60
:2F14EE00000000000000000000000000000000000000000000000000000000000000000000000000000000000000000000009E31
:2F151D00000000000000000000000000000000000000000000000000000000000000000000000000000000000000000000009E01
:2F154C00000000000000000000000000000000000000000000000000000000000000000000000000000000000000000000009ED2
:2F157B00000000000000000000000000000000000000000000000000000000000000000000000000000000000000000000009EA3
:2F15AA00000000000000000000000000000000000000000000000000000000000000000000000000000000000000000000009E74
:2F15D900000000000000000000000000000000000000000000000000000000000000000000000000000000000000000000009E45
:2F160800000000000000000000000000000000000000000000000000000000000000000000000000000000000000000000009E15
:2F163700000000000000000000000000000000000000000000000000000000000000000000000000000000000000000000009EE6
:2F166600000000000000000000000000000000000000000000000000000000000000000000000000000000000000000000009EB7
:2F169500000000000000000000000000000000000000000000000000000000000000000000000000000000000000000000009E88
:2F16C40002000000000000000000000000000000000000000000000000000000000000000000000000000000000000000040FABB
:2F16F30002000000000000000000000000000000000000000000000000000000000000000000000000000000000000000040FA8C
:2F172200000000000000000000000000000000000000000000000000000000000000000000000000000000000000000000009EFA
:2F17510002000000000000000000000000000000000000000000000000000000000000000000000000000000000000000040FA2D
:2F17800002000000000000000000000000000000000000000000000000000000000000000000000000000000000000000040FAFE
:2F17AF00000000000000000000000000000000000000000000000000000000000000000000000000000000000000000000009E6D
:2F17DE00000000000000000000000000000000000000000000000000000000000000000000000000000000000000000000009E3E
:2F180D00000000000000000000000000000000000000000000000000000000000000000000000000000000000000000000009E0E
:2F183C0002000000000000000000000000000000000000000000000000000000000000000000000000000000000000000040FA41
:2F186B0002000000000000000000000000000000000000000000000000000000000000000000000000000000000000000040FA12
:2F189A00000000000000000000000000000000000000000000000000000000000000000000000000000000000000000000009E81
:2F18C90002000000000000000000000000000000000000000000000000000000000000000000000000000000000000000040FAB4
:2F18F80002000000000000000000000000000000000000000000000000000000000000000000000000000000000000000040FA85
:2F192700000000000000000000000000000000000000000000000000000000000000000000000000000000000000000000009EF3
:2F195600000000000000000000000000000000000000000000000000000000000000000000000000000000000000000000009EC4
:2F198500000000000000000000000000000000000000000000000000000000000000000000000000000000000000000000009E95
:2F19B40002000000000000000000000000000000000000000000000000000000000000000000000000000000000000000040FAC8
:2F19E30002000000000000000000000000000000000000000000000000000000000000000000000000000000000000000040FA99
:2F1A1200000000000000000000000000000000000000000000000000000000000000000000000000000000000000000000009E07
:2F1A410002000000000000000000000000000000000000000000000000000000000000000000000000000000000000000040FA3A
:2F1A700002000000000000000000000000000000000000000000000000000000000000000000000000000000000000000040FA0B
:2F1A9F00000000000000000000000000000000000000000000000000000000000000000000000000000000000000000000009E7A
:2F1ACE00000000000000000000000000000000000000000000000000000000000000000000000000000000000000000000009E4B
:2F1AFD00000000000000000000000000000000000000000000000000000000000000000000000000000000000000000000009E1C
:2F1B2C0002000000000000000000000000000000000000000000000000000000000000000000000000000000000000000040FA4E
:2F1B5B0002000000000000000000000000000000000000000000000000000000000000000000000000000000000000000040FA1F
:2F1B8A00000000000000000000000000000000000000000000000000000000000000000000000000000000000000000000009E8E
:2F1BB90002000000000000000000000000000000000000000000000000000000000000000000000000000000000000000040FAC1
:2F1BE80002000000000000000000000000000000000000000000000000000000000000000000000000000000000000000040FA92
:2F1C1700000000000000000000000000000000000000000000000000000000000000000000000000000000000000000000009E00
:2F1C4600000000000000000000000000000000000000000000000000000000000000000000000000000000000000000000009ED1
:2F1C7500000000000000000000000000000000000000000000000000000000000000000000000000000000000000000000009EA2
:2F1CA40002000000000000000000000000000000000000000000000000000000000000000000000000000000000000000040FAD5
:2F1CD30002000000000000000000000000000000000000000000000000000000000000000000000000000000000000000040FAA6
:2F1D0200000000000000000000000000000000000000000000000000000000000000000000000000000000000000000000009E14
:2F1D310002000000000000000000000000000000000000000000000000000000000000000000000000000000000000000040FA47
:2F1D600002000000000000000000000000000000000000000000000000000000000000000000000000000000000000000040FA18
:2F1D8F00000000000000000000000000000000000000000000000000000000000000000000000000000000000000000000009E87
:2F1DBE00000000000000000000000000000000000000000000000000000000000000000000000000000000000000000000009E58
:2F1DED00000000000000000000000000000000000000000000000000000000000000000000000000000000000000000000009E29
:2F1E1C0002000000000000000000000000000000000000000000000000000000000000000000000000000000000000000040FA5B
:2F1E4B0002000000000000000000000000000000000000000000000000000000000000000000000000000000000000000040FA2C
:2F1E7A00000000000000000000000000000000000000000000000000000000000000000000000000000000000000000000009E9B
:2F1EA90002000000000000000000000000000000000000000000000000000000000000000000000000000000000000000040FACE
:2F1ED80002000000000000000000000000000000000000000000000000000000000000000000000000000000000000000040FA9F
:2F1F0700000000000000000000000000000000000000000000000000000000000000000000000000000000000000000000009E0D
:2F1F3600000000000000000000000000000000000000000000000000000000000000000000000000000000000000000000009EDE
:2F1F6500000000000000000000000000000000000000000000000000000000000000000000000000000000000000000000009EAF
:2F1F940002000000000000000000000000000000000000000000000000000000000000000000000000000000000000000040FAE2
:2F1FC30002000000000000000000000000000000000000000000000000000000000000000000000000000000000000000040FAB3
:2F1FF200000000000000000000000000000000000000000000000000000000000000000000000000000000000000000000009E22
:2F20210002000000000000000000000000000000000000000000000000000000000000000000000000000000000000000040FA54
:2F20500002000000000000000000000000000000000000000000000000000000000000000000000000000000000000000040FA25
:2F207F00000000000000000000000000000000000000000000000000000000000000000000000000000000000000000000009E94
:2F20AE00000000000000000000000000000000000000000000000000000000000000000000000000000000000000000000009E65
:2F20DD00000000000000000000000000000000000000000000000000000000000000000000000000000000000000000000009E36
:2F210C0002000000000000000000000000000000000000000000000000000000000000000000000000000000000000000040FA68
:2F213B0002000000000000000000000000000000000000000000000000000000000000000000000000000000000000000040FA39
:2F216A00000000000000000000000000000000000000000000000000000000000000000000000000000000000000000000009EA8
:2F21990002000000000000000000000000000000000000000000000000000000000000000000000000000000000000000040FADB
:2F21C80002000000000000000000000000000000000000000000000000000000000000000000000000000000000000000040FAAC
:2F21F700000000000000000000000000000000000000000000000000000000000000000000000000000000000000000000009E1B
:2F222600000000000000000000000000000000000000000000000000000000000000000000000000000000000000000000009EEB
:2F225500000000000000000000000000000000000000000000000000000000000000000000000000000000000000000000009EBC
:2F22840002000000000000000000000000000000000000000000000000000000000000000000000000000000000000000040FAEF
:2F22B30002000000000000000000000000000000000000000000000000000000000000000000000000000000000000000040FAC0
:2F22E200000000000000000000000000000000000000000000000000000000000000000000000000000000000000000000009E2F
:2F23110002000000000000000000000000000000000000000000000000000000000000000000000000000000000000000040FA61
:2F23400002000000000000000000000000000000000000000000000000000000000000000000000000000000000000000040FA32
:2F236F00000000000000000000000000000000000000000000000000000000000000000000000000000000000000000000009EA1
:2F239E00000000000000000000000000000000000000000000000000000000000000000000000000000000000000000000009E72
:2F23CD00000000000000000000000000000000000000000000000000000000000000000000000000000000000000000000009E43
:2F23FC0002000000000000000000000000000000000000000000000000000000000000000000000000000000000000000040FA76
:2F242B0002000000000000000000000000000000000000000000000000000000000000000000000000000000000000000040FA46
:2F245A0000400040004000400040004000400040004000400040004000400040004000400040004000400040004000400000DEF5
:2F24890002000000000000000000000000000000000000000000000000000000000000000000000000000000000000000040FAE8
:2F24B80002000000000000000000000000000000000000000000000000000000000000000000000000000000000000000040FAB9
:2F24E700000000000000000000000000000000000000000000000000000000000000000000000000000000000000000000009E28
:2F251600000000000000000000000000000000000000000000000000000000000000000000000000000000000000000000009EF8
:2F254500000000000000000000000000000000000000000000000000000000000000000000000000000000000000000000009EC9
:2F257400000000000000000000000000000000000000000000000000000000000000000000000000000000000000000000009E9A
:2F25A300000000000000000000000000000000000000000000000000000000000000000000000000000000000000000000009E6B
:2F25D200000000000000000000000000000000000000000000000000000000000000000000000000000000000000000000009E3C
:2F260100000000000000000000000000000000000000000000000000000000000000000000000000000000000000000000009E0C
:2F263000000000000000000000000000000000000000000000000000000000000000000000000000000000000000000000009EDD
:2F265F00000000000000000000000000000000000000000000000000000000000000000000000000000000000000000000009EAE
:2F268E00000000000000000000000000000000000000000000000000000000000000000000000000000000000000000000009E7F
:2F26BD00000000000000000000000000000000000000000000000000000000000000000000000000000000000000000000009E50
:2F26EC00000000000000000000000000000000000000000000000000000000000000000000000000000000000000000000009E21
:2F271B00000000000000000000000000000000000000000000000000000000000000000000000000000000000000000000009EF1
:2F274A00000000000000000000000000000000000000000000000000000000000000000000000000000000000000000000009EC2
:2F277900000000000000000000000000000000000000000000000000000000000000000000000000000000000000000000009E93
:2F27A800000000000000000000000000000000000000000000000000000000000000000000000000000000000000000000009E64
:2F27D700000000000000000000000000000000000000000000000000000000000000000000000000000000000000000000009E35
:2F280600000000000000000000000000000000000000000000000000000000000000000000000000000000000000000000009E05
:2F283500000000000000000000000000000000000000000000000000000000000000000000000000000000000000000000009ED6
:2F286400000000000000000000000000000000000000000000000000000000000000000000000000000000000000000000009EA7
:2F289300000000000000000000000000000000000000000000000000000000000000000000000000000000000000000000009E78
:2F28C200000000000000000000000000000000000000000000000000000000000000000000000000000000000000000000009E49
:2F28F100000000000000000000000000000000000000000000000000000000000000000000000000000000000000000000009E1A
:2F292000000000000000000000000000000000000000000000000000000000000000000000000000000000000000000000009EEA
:2F294F00000000000000000000000000000000000000000000000000000000000000000000000000000000000000000000009EBB
:2F297E00000000000000000000000000000000000000000000000000000000000000000000000000000000000000000000009E8C
:2F29AD00000000000000000000000000000000000000000000000000000000000000000000000000000000000000000000009E5D
:2F29DC00000000000000000000000000000000000000000000000000000000000000000000000000000000000000000000009E2E
:2F2A0B00000000000000000000000000000000000000000000000000000000000000000000000000000000000000000000009EFE
:2F2A3A00000000000000000000000000000000000000000000000000000000000000000000000000000000000000000000009ECF
:2F2A6900000000000000000000000000000000000000000000000000000000000000000000000000000000000000000000009EA0
:2F2A9800000000000000000000000000000000000000000000000000000000000000000000000000000000000000000000009E71
:2F2AC700000000000000000000000000000000000000000000000000000000000000000000000000000000000000000000009E42
:2F2AF600000000000000000000000000000000000000000000000000000000000000000000000000000000000000000000009E13
:2F2B2500000000000000000000000000000000000000000000000000000000000000000000000000000000000000000000009EE3
:2F2B540002000000000000000000000000000000000000000000000000000000000000000000000000000000000000000040FA16
:2F2B830002000000000000000000000000000000000000000000000000000000000000000000000000000000000000000040FAE7
:2F2BB200000000000000000000000000000000000000000000000000000000000000000000000000000000000000000000009E56
:2F2BE10002000000000000000000000000000000000000000000000000000000000000000000000000000000000000000040FA89
:2F2C100002000000000000000000000000000000000000000000000000000000000000000000000000000000000000000040FA59
:2F2C3F00000000000000000000000000000000000000000000000000000000000000000000000000000000000000000000009EC8
:2F2C6E00000000000000000000000000000000000000000000000000000000000000000000000000000000000000000000009E99
:2F2C9D00000000000000000000000000000000000000000000000000000000000000000000000000000000000000000000009E6A
:2F2CCC0002000000000000000000000000000000000000000000000000000000000000000000000000000000000000000040FA9D
:2F2CFB0002000000000000000000000000000000000000000000000000000000000000000000000000000000000000000040FA6E
:2F2D2A00000000000000000000000000000000000000000000000000000000000000000000000000000000000000000000009EDC
:2F2D590002000000000000000000000000000000000000000000000000000000000000000000000000000000000000000040FA0F
:2F2D880002000000000000000000000000000000000000000000000000000000000000000000000000000000000000000040FAE0
:2F2DB700000000000000000000000000000000000000000000000000000000000000000000000000000000000000000000009E4F
:2F2DE600000000000000000000000000000000000000000000000000000000000000000000000000000000000000000000009E20
:2F2E1500000000000000000000000000000000000000000000000000000000000000000000000000000000000000000000009EF0
:2F2E440002000000000000000000000000000000000000000000000000000000000000000000000000000000000000000040FA23
:2F2E730002000000000000000000000000000000000000000000000000000000000000000000000000000000000000000040FAF4
:2F2EA200000000000000000000000000000000000000000000000000000000000000000000000000000000000000000000009E63
:2F2ED10002000000000000000000000000000000000000000000000000000000000000000000000000000000000000000040FA96
:2F2F000002000000000000000000000000000000000000000000000000000000000000000000000000000000000000000040FA66
:2F2F2F00000000000000000000000000000000000000000000000000000000000000000000000000000000000000000000009ED5
:2F2F5E00000000000000000000000000000000000000000000000000000000000000000000000000000000000000000000009EA6
:2F2F8D00000000000000000000000000000000000000000000000000000000000000000000000000000000000000000000009E77
:2F2FBC0002000000000000000000000000000000000000000000000000000000000000000000000000000000000000000040FAAA
:2F2FEB0002000000000000000000000000000000000000000000000000000000000000000000000000000000000000000040FA7B
:2F301A00000000000000000000000000000000000000000000000000000000000000000000000000000000000000000000009EE9
:2F30490002000000000000000000000000000000000000000000000000000000000000000000000000000000000000000040FA1C
:2F30780002000000000000000000000000000000000000000000000000000000000000000000000000000000000000000040FAED
:2F30A700000000000000000000000000000000000000000000000000000000000000000000000000000000000000000000009E5C
:2F30D600000000000000000000000000000000000000000000000000000000000000000000000000000000000000000000009E2D
:2F310500000000000000000000000000000000000000000000000000000000000000000000000000000000000000000000009EFD
:2F31340002000000000000000000000000000000000000000000000000000000000000000000000000000000000000000040FA30
:2F31630002000000000000000000000000000000000000000000000000000000000000000000000000000000000000000040FA01
:2F319200000000000000000000000000000000000000000000000000000000000000000000000000000000000000000000009E70
:2F31C10002000000000000000000000000000000000000000000000000000000000000000000000000000000000000000040FAA3
:2F31F00002000000000000000000000000000000000000000000000000000000000000000000000000000000000000000040FA74
:2F321F00000000000000000000000000000000000000000000000000000000000000000000000000000000000000000000009EE2
:2F324E00000000000000000000000000000000000000000000000000000000000000000000000000000000000000000000009EB3
:2F327D00000000000000000000000000000000000000000000000000000000000000000000000000000000000000000000009E84
:2F32AC0002000000000000000000000000000000000000000000000000000000000000000000000000000000000000000040FAB7
:2F32DB0002000000000000000000000000000000000000000000000000000000000000000000000000000000000000000040FA88
:2F330A00000000000000000000000000000000000000000000000000000000000000000000000000000000000000000000009EF6
:2F33390002000000000000000000000000000000000000000000000000000000000000000000000000000000000000000040FA29
:2F33680002000000000000000000000000000000000000000000000000000000000000000000000000000000000000000040FAFA
:2F339700000000000000000000000000000000000000000000000000000000000000000000000000000000000000000000009E69
:2F33C600000000000000000000000000000000000000000000000000000000000000000000000000000000000000000000009E3A
:2F33F500000000000000000000000000000000000000000000000000000000000000000000000000000000000000000000009E0B
:2F34240002000000000000000000000000000000000000000000000000000000000000000000000000000000000000000040FA3D
:2F34530002000000000000000000000000000000000000000000000000000000000000000000000000000000000000000040FA0E
:2F348200000000000000000000000000000000000000000000000000000000000000000000000000000000000000000000009E7D
:2F34B10002000000000000000000000000000000000000000000000000000000000000000000000000000000000000000040FAB0
:2F34E00002000000000000000000000000000000000000000000000000000000000000000000000000000000000000000040FA81
:2F350F00000000000000000000000000000000000000000000000000000000000000000000000000000000000000000000009EEF
:2F353E00000000000000000000000000000000000000000000000000000000000000000000000000000000000000000000009EC0
:2F356D00000000000000000000000000000000000000000000000000000000000000000000000000000000000000000000009E91
:2F359C0002000000000000000000000000000000000000000000000000000000000000000000000000000000000000000040FAC4
:2F35CB0002000000000000000000000000000000000000000000000000000000000000000000000000000000000000000040FA95
:2F35FA00000000000000000000000000000000000000000000000000000000000000000000000000000000000000000000009E04
:2F36290002000000000000000000000000000000000000000000000000000000000000000000000000000000000000000040FA36
:2F36580002000000000000000000000000000000000000000000000000000000000000000000000000000000000000000040FA07
:2F368700000000000000000000000000000000000000000000000000000000000000000000000000000000000000000000009E76
:2F36B600000000000000000000000000000000000000000000000000000000000000000000000000000000000000000000009E47
:2F36E500000000000000000000000000000000000000000000000000000000000000000000000000000000000000000000009E18
:2F37140002000000000000000000000000000000000000000000000000000000000000000000000000000000000000000040FA4A
:2F37430002000000000000000000000000000000000000000000000000000000000000000000000000000000000000000040FA1B
:2F377200000000000000000000000000000000000000000000000000000000000000000000000000000000000000000000009E8A
:2F37A10002000000000000000000000000000000000000000000000000000000000000000000000000000000000000000040FABD
:2F37D00002000000000000000000000000000000000000000000000000000000000000000000000000000000000000000040FA8E
:2F37FF0002000000000000000000000000000000000000000000000000000000000000000000000000000000000000000040FA5F
:2F382E00000000000000000000000000000000000000000000000000000000000000000000000000000000000000000000009ECD
:2F385D00000000000000000000000000000000000000000000000000000000000000000000000000000000000000000000009E9E
:2F388C00000000000000000000000000000000000000000000000000000000000000000000000000000000000000000000009E6F
:2F38BB00000000000000000000000000000000000000000000000000000000000000000000000000000000000000000000009E40
:2F38EA0000400040004000400040004000400040004000400040004000400040004000400040004000400040004000400000DE51
:2F391900000000000000000000000000000000000000000000000000000000000000000000000000000000000000000000009EE1
:2F394800000000000000000000000000000000000000000000000000000000000000000000000000000000000000000000009EB2
:2F397700000000000000000000000000000000000000000000000000000000000000000000000000000000000000000000009E83
:2F39A600000000000000000000000000000000000000000000000000000000000000000000000000000000000000000000009E54
:2F39D500000000000000000000000000000000000000000000000000000000000000000000000000000000000000000000009E25
:2F3A0400000000000000000000000000000000000000000000000000000000000000000000000000000000000000000000009EF5
:2F3A3300000000000000000000000000000000000000000000000000000000000000000000000000000000000000000000009EC6
:2F3A6200000000000000000000000000000000000000000000000000000000000000000000000000000000000000000000009E97
:2F3A9100000000000000000000000000000000000000000000000000000000000000000000000000000000000000000000009E68
:2F3AC000000000000000000000000000000000000000000000000000000000000000000000000000000000000000000000009E39
:2F3AEF00000000000000000000000000000000000000000000000000000000000000000000000000000000000000000000009E0A
:2F3B1E00000000000000000000000000000000000000000000000000000000000000000000000000000000000000000000009EDA
:2F3B4D00000000000000000000000000000000000000000000000000000000000000000000000000000000000000000000009EAB
:2F3B7C00000000000000000000000000000000000000000000000000000000000000000000000000000000000000000000009E7C
:2F3BAB00000000000000000000000000000000000000000000000000000000000000000000000000000000000000000000009E4D
:2F3BDA00000000000000000000000000000000000000000000000000000000000000000000000000000000000000000000009E1E
:2F3C0900000000000000000000000000000000000000000000000000000000000000000000000000000000000000000000009EEE
:2F3C3800000000000000000000000000000000000000000000000000000000000000000000000000000000000000000000009EBF
:2F3C6700000000000000000000000000000000000000000000000000000000000000000000000000000000000000000000009E90
:2F3C9600000000000000000000000000000000000000000000000000000000000000000000000000000000000000000000009E61
:2F3CC500000000000000000000000000000000000000000000000000000000000000000000000000000000000000000000009E32
:2F3CF400000000000000000000000000000000000000000000000000000000000000000000000000000000000000000000009E03
:2F3D2300000000000000000000000000000000000000000000000000000000000000000000000000000000000000000000009ED3
:2F3D5200000000000000000000000000000000000000000000000000000000000000000000000000000000000000000000009EA4
:2F3D8100000000000000000000000000000000000000000000000000000000000000000000000000000000000000000000009E75
:2F3DB000000000000000000000000000000000000000000000000000000000000000000000000000000000000000000000009E46
:2F3DDF00000000000000000000000000000000000000000000000000000000000000000000000000000000000000000000009E17
:2F3E0E00000000000000000000000000000000000000000000000000000000000000000000000000000000000000000000009EE7
:2F3E3D00000000000000000000000000000000000000000000000000000000000000000000000000000000000000000000009EB8
:2F3E6C00000000000000000000000000000000000000000000000000000000000000000000000000000000000000000000009E89
:2F3E9B00000000000000000000000000000000000000000000000000000000000000000000000000000000000000000000009E5A
:2F3ECA00000000000000000000000000000000000000000000000000000000000000000000000000000000000000000000009E2B
:2F3EF900000000000000000000000000000000000000000000000000000000000000000000000000000000000000000000009EFC
:2F3F2800000000000000000000000000000000000000000000000000000000000000000000000000000000000000000000009ECC
:2F3F570002000000000000000000000000000000000000000000000000000000000000000000000000000000000000000040FAFF
:2F3F8600000000000000000000000000000000000000000000000000000000000000000000000000000000000000000000009E6E
:2F3FB500000000000000000000000000000000000000000000000000000000000000000000000000000000000000000000009E3F
:2F3FE400000000000000000000000000000000000000000000000000000000000000000000000000000000000000000000009E10
:2F401300000000000000000000000000000000000000000000000000000000000000000000000000000000000000000000009EE0
:2F404200000000000000000000000000000000000000000000000000000000000000000000000000000000000000000000009EB1
:2F40710000000000000000000000000000000000000000000000000000000000000000000000008000000000000000000000960A
:2F40A000000000000000000000000000000000000000000000000000000000000000000000000040000000000000000000009A17
:2F40CF00000000000000000000000000000000000000000000000000000000000000000080400000000000004040080000809E5C
:2F40FE00000000000000000000000000000000000000000000000000000000000000000000000000000000000000000000009EF5
:2F412D0000000000000000000000000000000000000000000000000000000000000000000040000000000000000000000000DA49
:2F415C0002000000000000000000000000000000000000000000000000000000000000000060080400000000006010000040C74F
:2F418B0002000000000000000000000000000000000000000000000000000000000000000048040000000000000108000040ABC3
:2F41BA00000000000000000000000000000000000000000000000000000000000000000000000100000000000000000000009F36
:2F41E90002000000000000000000000000000000000000000000000000000000000000800040000000000080004000000040B233
:2F42180002000000000000000000000000000000000000000000000000000000000000400020130000000040001022000040CC84
:2F42470000000000000000000000000000000000000000000000000000000000006404000068010000000000006100000080E4B2
:2F427600000000000000000000000000000000000000000000000000000000000000000000000100000000000000000000009F79
:2F42A500000000000000000000000000000000000000000000000000000000000000000000000000000000000040000000009A10
:2F42D400020000000000000000000000000000000000000000000000000000000040000400401800000000000040080200C0A86B
:2F430300020000000000000000000000000000000000000000000000000000008020050000000800000000000040040000C0ECEC
:2F433200000000000000000000000000000000000000000000000000000000000000000000000000000000000000000000009EBE
:2F436100020000000000000000000000000000000000000000000000000000000040000000400000000000000040020000409E8B
:2F43900002000000000000000000000000000000000000000000000000000000000000010000000100000000000041000040BEBB
:2F43BF0000000000000000000000000000000000000000000000000000000000004108000040050000000000005200000080E58A
:2F43EE00000000000000000000000000000000000000000000000000000000000000000000000100000000000000000000009F00
:2F441D0000000000000000000000000000000000000000000000000000000000000000000040000000000000000000000000DA56
:2F444C0002000000000000000000000000000000000000000000000000000000006000010040000100000000004000000040AC71
:2F447B00020000000000000000000000000000000000000000000000000000000000090000400400000000000011030000C0826D
:2F44AA0000000000000000000000000000000000000000000000000000000000000002000000000000000000000000000000BE23
:2F44D900020000000000000000000000000000000000000000000000000000000040000000400200000000000040030000408C21
:2F450800020000000000000000000000000000000000000000000000000000C0000040C00000410000000000000000000040F34E
:2F45370000000000000000000000000000000000004101000000000000000000004001000051040040600444004408000080E2E7
:2F456600000000000000000000000000000000000000000000000000000000000000010000000000000000000300000000008D95
:2F45950000000000000000000000000000000000000001000000000000000000004000000000020000400000000000000000C8AC
:2F45C40002000000000000000000000000000000005008020000000000000000004008020040020400400051286022000040D091
:2F45F30002000000000000000000000000000000000104000000000000000000004004000000040000400114001100000040FBA9
:2F46220000000000000000000000000000000000000000000000000000000000000000000000000000000200000000000000BCAB
:2F465100020000000000000000000000000000000040038000000000000000000040020000400000004000400040000000C0A6CD
:2F468000020000000000000000000000000000000020004100000000000000000000410000008000000008020000040100408414
:2F46AF0000000000000000000000000000000000000000000000000000000000005805000000000000000000006801000040993D
:2F46DE0000000000000000000000000000000000000000000000000000000000000003000000000000000000000000000000AEFC
:2F470D00000000000000000000000000000000000000000000000000000000000040000000000000000000000040000000009E5F
:2F473C0002000000000000000000000000000000000000000000000000000000004010000000000000000000004014000040BAAE
:2F476B00020000000000000000000000000000000000000000000000000000000042080000000000000000000062000000E492FB
:2F479A0000000000000000000000000000000000000000000000000000000000000000000000000000000000000000000040DAD6
:2F47C90002000000000000000000000000000000000000000000000000000000004002000000000000000000004000000040DA23
:2F47F80002000000000000000000000000000000000000000000000000000000002001040000000000000000000088000040E4BF
:2F48270000000000000000000000000000000000000000000000000000000000004408004040090000400600806004000040B370
:2F485600000000000000000000000000000000000000000000000000000000000000020000000000000002000000000000009C93
:2F48850000000000000000000000000000000000000000000000000000000000000000000000000000400000000000000000DEE6
:2F48B40002000000000000000000000000000000000000000000000000000000005010000060100000400001004010000040DD55
:2F48E30002000000000000000000000000000000000000000000000000000000000100000021080000400000200004000062F3C1
:2F49120000000000000000000000000000000000000000000000000000000000000000000000000000000000000000000040DA5C
:2F49410002000000000000000000000000000000000000000000000000000000004000000040000000400100004002000040CF33
:2F497000020000000000000000000000000000000000000000000000000000000010280000C0000100000A02001000C40040CB32
:2F499F00000000000000000000000000000000000000000000000000000000400164010000440800000000000058030000C0F4E8
:2F49CE00000000000000000000000000000000000000000000000000000000000100000000000200000000000000000000009D1A
:2F49FD0000000000000000000000000000000000000000000000000000000000000000000000000000000000000003000000AEDA
:2F4A2C00020000000000000000000000000000000000000000000000000000402840180000600004000000000040060100C0CC62
:2F4A5B0002000000000000000000000000000000000000000000000000000000802008000021000000000000000204008040A0FB
:2F4A8A0000000000000000000000000000000000000000000000000000000000000000000000000000000000000003000040EAD0
:2F4AB900020000000000000000000000000000000000000000000000000000400240008000400000000000000040000000C0F09A
:2F4AE8000200000000000000000000000000000000000000000000000000000005011040000008C100000000002003010060BB3F
:2F4B170000000000000000000000000000000000000000000000004040400500004108400244080080600000104003000040B8A8
:2F4B4600000000000000000000000000000000000000000000000000000000000000000002000000000000000000030000008CAF
:2F4B750000000000000000000000000000000000000000000000000001400000000000000000000000000000000000000000CE02
:2F4BA400020000000000000000000000000000000000000000000040095400010050104088500002004018000050180000009078
:2F4BD3000200000000000000000000000000000000000000000000004A6000000002040000240000000004002000000000C09267
:2F4C020000000000000000000000000000000000000000000000000001000000000000000000000000000000000000000040CA78
:2F4C310002000000000000000000000000000000000000000000004000400000004000400140010000400200004002800080A4E8
:2F4C600002000000000000000000000000000000000000000000000000040802002002012A00040200000104001088400000A73E
:2F4C8F0000000000000000000000000000000000005101000000000000000000006800000042040000580100806004000040BFBA
:2F4CBE00000000000000000000000000000000000000010000000000000000000000000000000000000000000000000000008E38
:2F4CED0000000000000000000000000000000000000000000000000000000000000001000040000000000100000000000000DB7B
:2F4D1C000200000000000000000000000000000000404400000000000000000000402800005000010040180000400004000095F8
:2F4D4B00020000000000000000000000000000000000000000000000000000000001040000400400000208000001040000C0B867
:2F4D7A00004000400040004000400040004000400040004000400040004000400040004000400040004000400040004000409AB0
:2F4DA90002000000000000000000000000000000000000000080000000000000000000000000028000000000000000800000BC9B
:2F4DD80002000000000000000000000000000000000018000040000000000000001000010000414000200102001001410080E7E4
:2F4E0700000000000000000000000000000000000000000000000000000000000000000000000000000000000000000000009EDE
:2F4E360000000000000000000000000000000000000000000000000000080000000800000008000000080000000800000080960F
:2F4E650000000000000000000000000000000000000000000000000000000000000000020002000000000004001000020040BB09
:2F4E9400000000000000000000000000000000000000000000000000000000000000000000000000000000000000000000009E51
:2F4EC30000000000000000000000000000000000000000000000000208020000000000000000000000220000000200000080B65A
:2F4EF200000000000000000000000000000000000000000000000000000000000000000000000000000000000000000000009EF3
:2F4F210000000000000000000000000000000000000000000000000000400000000008000000004200000040000000000080B463
:2F4F5000000000000000000000000000000000000000000000000000000000000000000000000000000000000000000000009E94
:2F4F7F00000000000000000000000000000000000000000000000000101000000002100000101000100000100000100000029CE3
:2F4FAE00000000000000000000000000000000000000000000000000000000000000000000000000000000000000000000009E36
:2F4FDD00000000000000000000000000000000000000000000000000000000000000000000000000000000000000000000009E07
:2F500C00000000000000000000000000000000000000000000000000000000000000000000000000000000000000000000009ED7
:2F503B00000000000000000000000000000000000000000000000000000000000000000000000000000000000000000000009EA8
:2F506A00000000000000000000000000000000000000000000000000000000000800080008000000100000000800000000008760
:2F509900000000000000000000000000000000000000000000000000000000800020000000000000000000000000000000809C2C
:2F50C8000000000000000000000000000000000000000000000000010000000000400000900000400000004000008040008082A6
:2F50F70000000000000000000000000000000000000000020000000000000000001000010020000000000000000800000008B691
:2F512600000000000000000000000000000000000000000000000000000000000000000000000000000000000000000000009EBC
:2F51550000000000000000000000000000000000000000000000000000000010800000040000800280000000800000000000A174
:2F51840000000000000000000000000000000000000000200000000000000000000000000000400000000000040000002000F880
:2F51B30000000000000000000000000000000000000110000000000000000002000000400000000200010002000200000000DF94
:2F51E200000000000000000000000000000000000000000000000000000000000000000000000000000000000000000000009E00
:2F521100000000000000000000000000000000000000000000000000000000000000000000000000000000000000000000009ED0
:2F52400000000000000000000000000000000000000200800000000000000000000000020002000000000000000200000080B483
:2F526F0000000000000000000000000000000000000000000000000000000000000000000000000000000000000004000000DE2E
:2F529E00000000000000000000000000000000000000000000000000000000100000001000100000000000100000001000008F02
:2F52CD00000000000000000000000000000000000000000000000000000000000000004010402000000000000000020020009947
:2F52FC00000000000000000000000000000000000000000000000000000000000000000000000000000000000000000000009EE5
:2F532B00000000000000000000000000000000000000000000000000000000100000000000000000000000000000000000019FA3
:2F535A0000000000000000000000000000000000000000000000000000000000000900002000002802080000100400000200D1E2
:2F538900000000000000000000000000000000000000000000000000000000000000000000000000000000000000000000009E57
:2F53B80000000000000000000000000000000000000900000000020000000000000900400000001100000010001100880080CD6B
:2F53E70000000000000000000000000000000000000000440500000000000000000000520300000000400A000000000000808CA3
:2F541600000000000000000000000000000000000000000001000000000000000000000002000000000002000000000000008FD3
:2F54450000000000000000000000000000000000000000400100000000000000000000400300000000000000000000000000BCF8
:2F54740002000000000000000000000000000000000000500101000000000000000000402500000000408000000000000040F45C
:2F54A300020000000000000000000000000000000000004000000000000000000000006804000000000000000000000000409656
:2F54D20000000000000000000000000000000000000000000000000000000000000000000300000000000000000000000000ADFB
:2F550100020000000000000000000000000000000000004003000000000000000000004000000080004001000000000000409065
:2F55300002000000000000000000000000000000000000008B000000000000000000000043000040000046000000000000C090A6
:2F555F00000000000000000000000000000000000000000000000000000000000000000000000000405000000000000000008A03
:2F558E00000000000000000000000000000000000000000000000000000000000000000000000000000000000000000000009E50
:2F55BD0000000000000000000000000000000000000000000000000000000000000000000000000000000200000000000000BC01
:2F55EC0002000000000000000000000000000000000000000000000000000000000000000000000000404400000000000040FAD0
:2F561B0002000000000000000000000000000000000000000000000000000000000000000000000000210000000000000040DB22
:2F564A00000000000000000000000000000000000000000000000000000000000000000000000000000000000000000000009E93
:2F567900020000000000000000000000000000000000000000000000000000000000000000000000004000800000000000C0BAC6
:2F56A800020000000000000000000000000000000000000000000000000000000000000000000000000008410000000000C0AE1A
:2F56D70000000000000000000000000000000000000000440700000000000040070000400500000000580900000000000080B23A
:2F57060000000000000000000000000000000000000000000300000000000000030000000100000000000000000000000000BFAE
:2F57350000000000000000000000000000000000000000400300000000000040000000000000000000000000000000000000A919
:2F576400020000000000000000000000000000000000006013000000000000402000004000040000004010000000000000408DE0
:2F579300020000000000000000000000000000000000004108000000000000400000000008000000802000000000000000C0DF15
:2F57C200000000000000000000000000000000000000000001000000000000000000000000000000000000000000000000008F28
:2F57F10002000000000000000000000000000000000000400200000000000040030000400200000000400000000000000040FD43
:2F5820000200000000000000000000000000000000000020000200000000000003000000010100C0000008010000000000C0E4C3
:2F584F0000000000000000000000000000000000000000000000000000008040070000520900000000420800000000000000D4EA
:2F587E0000000000000000000000000000000000000000000000000000000000010000000300000000000000000000000000AC4B
:2F58AD0000000000000000000000000000000000000000000000000000000000000000400300000000000000000000000000ED9C
:2F58DC00020000000000000000000000000000000000000000000000000000608000004011000000006000020000000000C084C4
:2F590B00020000000000000000000000000000000000000000000000000000040800004406000000000000000000000000409045
:2F593A00000000000000000000000000000000000000000000000000000000000000000001000000000000000000000000008FAE
:2F59690002000000000000000000000000000000000000000000000000000040000000400200000000400200000000000040BE4B
:2F59980002000000000000000000000000000000000000000000000000000020030100201100000000C045000000000000C0E3E1
:2F59C7000000000000000000000000000000000000000000000000540A000068070080500100000000420300000000000080AEA0
:2F59F600000000000000000000000000000000000000000000000000020000000000000001000000000003000000000000009CE0
:2F5A250000000000000000000000000000000000000000000000000000000000020000000000000000000300000000000000AF9E
:2F5A540002000000000000000000000000000000000000000000004040000040100000402400000000600702000000000040DF65
:2F5A8300020000000000000000000000000000000000000000000000020000220000000004000000000001000000000000408DFC
:2F5AB20000000000000000000000000000000000000000000000000001000000000000000000000000000200000000000000AC16
:2F5AE1000200000000000000000000000000000000000000000000400000004000000040000000000040030000000000004089C8
:2F5B1000020000000000000000000000000000000000000000000000040200C005C200004000000000002B00000000000040E24A
:2F5B3F000000000000000000000000000000000000000000000000000000404003000000000000000058000000000000000085D7
:2F5B6E0000000000000000000000000000000000000000000000000000000000000000000000000000000200000000000000BC4A
:2F5B9D0000000000000000000000000000000000000000000000000000000040010000000000000000000000000000000000DBBD
:2F5BCC00020000000000000000000000000000000000000000000000000000601800000000000000004088000000000000C0CCDC
:2F5BFB0002000000000000000000000000000000000000000000000000000064080000000000000000010000000000000040D5F7
:2F5C2A00000000000000000000000000000000000000000000000000000000000100000000000000000000000000000000009FAB
:2F5C590002000000000000000000000000000000000000000000000000000040000000000000000000400000000000000040FE5C
:2F5C8800020000000000000000000000000000000000000000000000000000001100000000000000002008040000000000C08B63
:2F5CB70000000000000000000000000000000000000000000000000000000068060000580B00000000610900000000000080ED16
:2F5CE60000000000000000000000000000000000000000000000000000000000020000000200000000000100000000000000AFDB
:2F5D150000000000000000000000000000000000000000000000000000000000020000400300000000000000000000000000EF2B
:2F5D440002000000000000000000000000000000000000000000000000000040120000400002000000400004000000000040CC4A
:2F5D730002000000000000000000000000000000000000000000000000008010040000480000000000000000000000000040AF34
:2F5DA20000000000000000000000000000000000000000000000000000000000020000000300000000000000000000000000AF1E
:2F5DD100020000000000000000000000000000000000000000000000000000400100004002000000004000000000000000409D01
:2F5E00000200000000000000000000000000000000000000000000000000000082C000201B00000000000402000000C000C0C2AC
:2F5E2F0002000000000000000000000000000000000000000000004802000040020000400100000080600300000000000000DEB4
:2F5E5E0000000000000000000000000000000000000000000000000000000000020000000100000000000200000000000000AF61
:2F5E8D0000000000000000000000000000000000000000000000004000000040000000000000000000000300000000000000ED76
:2F5EBC00000000000000000000000000000000000000000000000060040400404800004004010000004014000000000000408569
:2F5EEB00020000000000000000000000000000000000000000000061040000400400000008000000000400000000000000C0E928
:2F5F1A0002000000000000000000000000000000000000000000000000000000000000000000000000000000000000000000BE98
:2F5F4900000000000000000000000000000000000000000000000040000000400100004002000000004001000080008000C0A8BD
:2F5F78000000000000000000000000000000000000000000000000C00002000022000000010100C000E01A00004000400040F4A6
:2F5FA70002000000000000000000000000000000000000000000404001008050090000401150000080400B00406000410340B827
:2F5FD60000000000000000000000000000000000000000000000000000000000030000000100000000000200000000000000AEE8
:2F60050000000000000000000000000000000000000000000000000000000000010000000000000000000100004000000300B96E
:2F60340000000000000000000000000000000000000000000000005018000040400000404440000000501000004048600040FF0A
:2F606300020000000000000000000000000000000000000000004020000020000800000028000000000200000040432000C4A251
:2F60920002000000000000000000000000000000000000000000000000000000000000000000030000000000000003000040C9CE
:2F60C1000000000000000000000000000000000000000000000000400000004003000040024000000040010000C000C000C0AA80
:2F60F00000000000000000000000000000000000000000000000000088000010000400000121030000200A010040004000D0E065
:2F611F0000000000000000000000000000000000000000400100005408400A44030000580100000000480000000000000040A69C
:2F614E00000000000000000000000000000000000000000001000000000002000100000000000000000003000000000000009F7C
:2F617D00000000000000000000000000000000000000000000000000000000000100000000000000000000000000000000009F53
:2F61AC0002000000000000000000000000000000000000404400004080400054850000402400000000600402000000000040A4B7
:2F61DB0002000000000000000000000000000000000000000000000100000008040080100400000000210000000000000064F07D
:2F620A00004000400040004000400040004000400040004000400040004000400040004000400040004000400040004000409A0B
:2F62390002000000000000000000000000000000000000800280000001000100000000000000008000000000008000000040D11F
:2F62680002000000000000000000000000000000000000402540002008042A20400000004000004000000000004000C000C0A9C1
:2F629700000000000000000000000000000000000000000000000000000000000000000000000000000000000000000000009E3A
:2F62C60000000000000000000000000000000000000000080000000800000008000000080000000000000000000800000080966B
:2F62F500000000000000000000000000000000000000000000000000000020900000000000000000000200040000000000C08B79
:2F632400000000000000000000000000000000000000000000000000000000000000000000000000000000000000000000009EAC
:2F6353000000000000000000000000000000000000000000800008000000002008000020800000000000000000000800008094AF
:2F638200000000000000000000000000000000000000000000000000000000000000000000000000000000000000000000009E4E
:2F63B10000000000000000000000000000000000000000000000004000040000000000000000000200000044000000800080B083
:2F63E000000000000000000000000000000000000000000000000000000000000000000000000000000000000000000000009EF0
:2F640F0000000000000000000000000000000000000000100000100108000010020000000002000000000400100000000080E0AD
:2F643E00000000000000000000000000000000000000000000000000000000000000000000000000800040000000000000809A55
:2F646D00000000000000000000000000000000000000000000000010000000000000000000080000000000000080000000908E4A
:2F649C00000000000000000000000000000000000000000000000000000080000000000000000000000080000001000000008F41
:2F64CB00000000000000000000000000000000000000000800000000002000400040000004010000000000200000000100008153
:2F64FA00000000000000000000000000000000000000000000000000000008000000000000000000100008000000000000008FC4
:2F652900000000000000000000000000000000000000000000000200000002000000000000000000800000020000000000809E9F
:2F655800000000000000000000000000000000000000000080000000900020000000000000000000000080000000100000809C38
:2F65870000000000000000000000000000000000000000000000000000000004800000200000000000100000000000000080E6CB
:2F65B60000000000000000000000000000000000000000000000000000000000200010000000000000000000000000000000AFD7
:2F65E5000000000000000000000000000000000000000000000000000000000020020000000000000018000000000000000084C9
:2F661400000000000000000000000000000000000000000000000000000000000000000000000000000000000000000000009EB9
:2F66430000000000000000000000000000000000000000000000000000000000000000002000000400000000000020000000FAEA
:2F66720000000000000000000000000000000000000000000000000000000000080000000040000008002000000000002080DA0F
:2F66A1000000000000000000000000000000000000000000000100010000000000800000000000000000000000000000000097B1
:2F66D000000000000000000000000000000000000000000008000000800000000000800000000000000010000000000000809F64
:2F66FF0008000000000000000000000000000000000000000800000000000000000000000400000000000000000000000000D286
:2F672E00000000000000000000000000000000000000000000000000000000000000000000000000000000000000000000009E9E
:2F675D0000000000000000000000000000000000000000000010000000000040000000100010000000000000000000802080C0BD
:2F678C00000000000000000000000000000000000000000000000000000000000000000000000000000000000000000000009E40
:2F67BB0008000000000000000000000000000000000000004000000800000000000000004002000000080000000000080000B657
:2F67EA0000000000000000000000000000000000000000001200000000040000000800001000000002080000000002000080B016
:2F681900000000000000000000000000000000000000000000000000000000000000000000000000000000000000000000009EB2
:2F68480000000000000000000000000000000000000000000000000000000000000000000000000000400010000000000000CF02
:2F6877000000000000000000000000000000000000000000000000000000000000000000005103480300005807000062040090FE
:2F68A60000000000000000000000000000000000000000000000000000000000000000000000030003000000030000000000AE0C
:2F68D50000000000000000000000000000000000000000000000000000000000000000000000004003000040020000000000EC23
:2F690400020000000000000000000000000000000000000000000000000000000000000000408450270000401000004000C1E1F5
:2F69330002000000000000000000000000000000000000000000000000000000000000000000204004002060000080200840DA8D
:2F696200000000000000000000000000000000000000000000000000000000000000000000000000010000000100000000008F75
:2F699100020000000000000000000000000000000000000000000000000000000000000000400040020000400300004000409DF3
:2F69C00002000000000000000000000000000000000000000000000000000000000000000000002020000000270000001140ED01
:2F69EF00000000000000000000000000000000000000000000000000000000000000000000000000000000000000000000009EDB
:2F6A1E00000000000000000000000000000000000000000000000000000000000000000000000000000000000000000000009EAB
:2F6A4D00000000000000000000000000000000000000000000000000000000000000000000000000000000000000000000009E7C
:2F6A7C0002000000000000000000000000000000000000000000000000000000000000000000000000000000000000000040FAAF
:2F6AAB0002000000000000000000000000000000000000000000000000000000000000000000000000000000000000000040FA80
:2F6ADA00000000000000000000000000000000000000000000000000000000000000000000000000000000000000000000009EEF
:2F6B0900020000000000000000000000000000000000008000000000000000000000000000000000000000000000000000C0F229
:2F6B380002000000000000000000000000000000000000400000000000000000000000000000000000000000000000000040BAF2
:2F6B670000000000000000000000000000000000000000000000000000440B000000000000008060030020400300204003408740
:2F6B9600000000000000000000000000000000000000000000000000000000000000000000000000030000000300000003009E29
:2F6BC500000000000000000000000000000000000000000000000000000000000000000000000000000000000000000000009E03
:2F6BF40002000000000000000000000000000000000000000000000000500004000000000000004028000050280000508480E107
:2F6C2300020000000000000000000000000000000000000000000000802003000000000000000000000000000000000000C0E9F4
:2F6C520000000000000000000000000000000000000000000000000000000000000000000000000000000000000000000040DAF9
:2F6C810002000000000000000000000000000000000000000000000000400000000000000000004000000040000000400000FEE4
:2F6CB00002000000000000000000000000000000000000000000000000000000000000000000000000000000000000000000BEF5
:2F6CDF00000000000000000000000000000000000000000000000000005109000000000000000048030080600B0000410540DF91
:2F6D0E00000000000000000000000000000000000000000000000000000000000000000000000000000000000300000000009DB6
:2F6D3D00000000000000000000000000000000000000000000000000000000000000000000000000000000000300000000009D87
:2F6D6C0002000000000000000000000000000000000000000000000000400002000000000000006024000040030200600004FF88
:2F6D9B0002000000000000000000000000000000000000000000000080000800000000000000200000008000030000080040D97B
:2F6DCA0000000000000000000000000000000000000000000000000000000000000000000000000000000000030000000040D97E
:2F6DF90002000000000000000000000000000000000000000000000000400000000000000000004000000040020000400000FC6B
:2F6E280002000000000000000000000000000000000000000000000000102000000000C00000002000000010270000100482A4B8
:2F6E57000000000000000000000000000000000000000000206003000051030000000000000020600B00404000002050038084B3
:2F6E8600000000000000000000000000000000000000000000000200000001000000000000000000020000000100000003009F35
