:020000040000FA
:2F000000FFFF627D16FFFFFFFFFFFFFFFFFFFFFFFFFFFFFFFFFFFFFFFFFFFFFFFFFFFFFFFFFFFFFFFFFFFFFFFFFFFFFFFFFFFF08
:2F002F00000000000000000000000000000000000000000000000000000000000000000000000000000000000000000000009E04
:2F005E00000000000000000000000000000000000000000000000000000000000000000000000000000000000000000000009ED5
:2F008D00000000000000000000000000000000000000000000000000000000000000000000000000000000000000000000009EA6
:2F00BC00000002400240024002400240024002400240024002400240024002400240024002400240024002400240024000009E0D
:2F00EB00000002400240024002400240024002400240024002400240024002400240024002400240024002400240024000009EDE
:2F011A00000000000000000000000000000000000000000000000000000000000000000000000000000000000000000000009E18
:2F014900000002400240024002400240024002400240024002400240024002400240024002400240024002400240024000009E7F
:2F017800000002400240024002400240024002400240024002400240024002400240024002400240024002400240024000009E50
:2F01A700000000000000000000000000000000000000000000000000000000000000000000000000000000000000000000009E8B
:2F01D600000000000000000000000000000000000000000000000000000000000000000000000000000000000000000000009E5C
:2F020500000000000000000000000000000000000000000000000000000000000000000000000000000000000000000000009E2C
:2F02340002000000000000000000000000000000000000000000000000000000000000000000000000000000000000000040FA5F
:2F02630002000000000000000000000000000000000000000000000000000000000000000000000000000000000000000040FA30
:2F029200000000000000000000000000000000000000000000000000000000000000000000000000000000000000000000009E9F
:2F02C10002000000000000000000000000000000000000000000000000000000000000000000000000000000000000000040FAD2
:2F02F00002000000000000000000000000000000000000000000000000000000000000000000000000000000000000000040FAA3
:2F031F00000000000000000000000000000000000000000000000000000000000000000000000000000000000000000000009E11
:2F034E00000000000000000000000000000000000000000000000000000000000000000000000000000000000000000000009EE2
:2F037D00000000000000000000000000000000000000000000000000000000000000000000000000000000000000000000009EB3
:2F03AC0002000000000000000000000000000000000000000000000000000000000000000000000000000000000000000040FAE6
:2F03DB0002000000000000000000000000000000000000000000000000000000000000000000000000000000000000000040FAB7
:2F040A00000000000000000000000000000000000000000000000000000000000000000000000000000000000000000000009E25
:2F04390002000000000000000000000000000000000000000000000000000000000000000000000000000000000000000040FA58
:2F04680002000000000000000000000000000000000000000000000000000000000000000000000000000000000000000040FA29
:2F049700000000000000000000000000000000000000000000000000000000000000000000000000000000000000000000009E98
:2F04C600000000000000000000000000000000000000000000000000000000000000000000000000000000000000000000009E69
:2F04F500000000000000000000000000000000000000000000000000000000000000000000000000000000000000000000009E3A
:2F05240002000000000000000000000000000000000000000000000000000000000000000000000000000000000000000040FA6C
:2F05530002000000000000000000000000000000000000000000000000000000000000000000000000000000000000000040FA3D
:2F058200000000000000000000000000000000000000000000000000000000000000000000000000000000000000000000009EAC
:2F05B10002000000000000000000000000000000000000000000000000000000000000000000000000000000000000000040FADF
:2F05E00002000000000000000000000000000000000000000000000000000000000000000000000000000000000000000040FAB0
:2F060F00000000000000000000000000000000000000000000000000000000000000000000000000000000000000000000009E1E
:2F063E00000000000000000000000000000000000000000000000000000000000000000000000000000000000000000000009EEF
:2F066D00000000000000000000000000000000000000000000000000000000000000000000000000000000000000000000009EC0
:2F069C0002000000000000000000000000000000000000000000000000000000000000000000000000000000000000000040FAF3
:2F06CB0002000000000000000000000000000000000000000000000000000000000000000000000000000000000000000040FAC4
:2F06FA00000000000000000000000000000000000000000000000000000000000000000000000000000000000000000000009E33
:2F07290002000000000000000000000000000000000000000000000000000000000000000000000000000000000000000040FA65
:2F07580002000000000000000000000000000000000000000000000000000000000000000000000000000000000000000040FA36
:2F078700000000000000000000000000000000000000000000000000000000000000000000000000000000000000000000009EA5
:2F07B600000000000000000000000000000000000000000000000000000000000000000000000000000000000000000000009E76
:2F07E500000000000000000000000000000000000000000000000000000000000000000000000000000000000000000000009E47
:2F08140002000000000000000000000000000000000000000000000000000000000000000000000000000000000000000040FA79
:2F08430002000000000000000000000000000000000000000000000000000000000000000000000000000000000000000040FA4A
:2F087200000000000000000000000000000000000000000000000000000000000000000000000000000000000000000000009EB9
:2F08A10002000000000000000000000000000000000000000000000000000000000000000000000000000000000000000040FAEC
:2F08D00002000000000000000000000000000000000000000000000000000000000000000000000000000000000000000040FABD
:2F08FF00000000000000000000000000000000000000000000000000000000000000000000000000000000000000000000009E2C
:2F092E00000000000000000000000000000000000000000000000000000000000000000000000000000000000000000000009EFC
:2F095D00000000000000000000000000000000000000000000000000000000000000000000000000000000000000000000009ECD
:2F098C0002000000000000000000000000000000000000000000000000000000000000000000000000000000000000000040FA00
:2F09BB0002000000000000000000000000000000000000000000000000000000000000000000000000000000000000000040FAD1
:2F09EA00000000000000000000000000000000000000000000000000000000000000000000000000000000000000000000009E40
:2F0A190002000000000000000000000000000000000000000000000000000000000000000000000000000000000000000040FA72
:2F0A480002000000000000000000000000000000000000000000000000000000000000000000000000000000000000000040FA43
:2F0A7700000000000000000000000000000000000000000000000000000000000000000000000000000000000000000000009EB2
:2F0AA600000000000000000000000000000000000000000000000000000000000000000000000000000000000000000000009E83
:2F0AD500000000000000000000000000000000000000000000000000000000000000000000000000000000000000000000009E54
:2F0B040002000000000000000000000000000000000000000000000000000000000000000000000000000000000000000040FA86
:2F0B330002000000000000000000000000000000000000000000000000000000000000000000000000000000000000000040FA57
:2F0B6200000000000000000000000000000000000000000000000000000000000000000000000000000000000000000000009EC6
:2F0B910002000000000000000000000000000000000000000000000000000000000000000000000000000000000000000040FAF9
:2F0BC00002000000000000000000000000000000000000000000000000000000000000000000000000000000000000000040FACA
:2F0BEF00000000000000000000000000000000000000000000000000000000000000000000000000000000000000000000009E39
:2F0C1E00000000000000000000000000000000000000000000000000000000000000000000000000000000000000000000009E09
:2F0C4D00000000000000000000000000000000000000000000000000000000000000000000000000000000000000000000009EDA
:2F0C7C0002000000000000000000000000000000000000000000000000000000000000000000000000000000000000000040FA0D
:2F0CAB0002000000000000000000000000000000000000000000000000000000000000000000000000000000000000000040FADE
:2F0CDA00000000000000000000000000000000000000000000000000000000000000000000000000000000000000000000009E4D
:2F0D090002000000000000000000000000000000000000000000000000000000000000000000000000000000000000000040FA7F
:2F0D380002000000000000000000000000000000000000000000000000000000000000000000000000000000000000000040FA50
:2F0D6700000000000000000000000000000000000000000000000000000000000000000000000000000000000000000000009EBF
:2F0D9600000000000000000000000000000000000000000000000000000000000000000000000000000000000000000000009E90
:2F0DC500000000000000000000000000000000000000000000000000000000000000000000000000000000000000000000009E61
:2F0DF40002000000000000000000000000000000000000000000000000000000000000000000000000000000000000000040FA94
:2F0E230002000000000000000000000000000000000000000000000000000000000000000000000000000000000000000040FA64
:2F0E5200000000000000000000000000000000000000000000000000000000000000000000000000000000000000000000009ED3
:2F0E810002000000000000000000000000000000000000000000000000000000000000000000000000000000000000000040FA06
:2F0EB00002000000000000000000000000000000000000000000000000000000000000000000000000000000000000000040FAD7
:2F0EDF00000000000000000000000000000000000000000000000000000000000000000000000000000000000000000000009E46
:2F0F0E00000000000000000000000000000000000000000000000000000000000000000000000000000000000000000000009E16
:2F0F3D00000000000000000000000000000000000000000000000000000000000000000000000000000000000000000000009EE7
:2F0F6C0002000000000000000000000000000000000000000000000000000000000000000000000000000000000000000040FA1A
:2F0F9B0002000000000000000000000000000000000000000000000000000000000000000000000000000000000000000040FAEB
:2F0FCA0000400040004000400040004000400040004000400040004000400040004000400040004000400040004000400000DE9A
:2F0FF90002000000000000000000000000000000000000000000000000000000000000000000000000000000000000000040FA8D
:2F10280002000000000000000000000000000000000000000000000000000000000000000000000000000000000000000040FA5D
:2F105700000000000000000000000000000000000000000000000000000000000000000000000000000000000000000000009ECC
:2F108600000000000000000000000000000000000000000000000000000000000000000000000000000000000000000000009E9D
:2F10B500000000000000000000000000000000000000000000000000000000000000000000000000000000000000000000009E6E
:2F10E400000000000000000000000000000000000000000000000000000000000000000000000000000000000000000000009E3F
:2F111300000000000000000000000000000000000000000000000000000000000000000000000000000000000000000000009E0F
:2F114200000000000000000000000000000000000000000000000000000000000000000000000000000000000000000000009EE0
:2F117100000000000000000000000000000000000000000000000000000000000000000000000000000000000000000000009EB1
:2F11A000000000000000000000000000000000000000000000000000000000000000000000000000000000000000000000009E82
:2F11CF00000000000000000000000000000000000000000000000000000000000000000000000000000000000000000000009E53
:2F11FE00000000000000000000000000000000000000000000000000000000000000000000000000000000000000000000009E24
:2F122D00000000000000000000000000000000000000000000000000000000000000000000000000000000000000000000009EF4
:2F125C00000000000000000000000000000000000000000000000000000000000000000000000000000000000000000000009EC5
:2F128B00000000000000000000000000000000000000000000000000000000000000000000000000000000000000000000009E96
:2F12BA00000000000000000000000000000000000000000000000000000000000000000000000000000000000000000000009E67
:2F12E900000000000000000000000000000000000000000000000000000000000000000000000000000000000000000000009E38
:2F131800000000000000000000000000000000000000000000000000000000000000000000000000000000000000000000009E08
:2F134700000000000000000000000000000000000000000000000000000000000000000000000000000000000000000000009ED9
:2F137600000000000000000000000000000000000000000000000000000000000000000000000000000000000000000000009EAA
:2F13A500000000000000000000000000000000000000000000000000000000000000000000000000000000000000000000009E7B
:2F13D400000000000000000000000000000000000000000000000000000000000000000000000000000000000000000000009E4C
:2F140300000000000000000000000000000000000000000000000000000000000000000000000000000000000000000000009E1C
:2F143200000000000000000000000000000000000000000000000000000000000000000000000000000000000000000000009EED
:2F146100000000000000000000000000000000000000000000000000000000000000000000000000000000000000000000009EBE
:2F149000000000000000000000000000000000000000000000000000000000000000000000000000000000000000000000009E8F
:2F14BF00000000000000000000000000000000000000000000000000000000000000000000000000000000000000000000009E60
:2F14EE00000000000000000000000000000000000000000000000000000000000000000000000000000000000000000000009E31
:2F151D00000000000000000000000000000000000000000000000000000000000000000000000000000000000000000000009E01
:2F154C00000000000000000000000000000000000000000000000000000000000000000000000000000000000000000000009ED2
:2F157B00000000000000000000000000000000000000000000000000000000000000000000000000000000000000000000009EA3
:2F15AA00000000000000000000000000000000000000000000000000000000000000000000000000000000000000000000009E74
:2F15D900000000000000000000000000000000000000000000000000000000000000000000000000000000000000000000009E45
:2F160800000000000000000000000000000000000000000000000000000000000000000000000000000000000000000000009E15
:2F1637000000000000000000000000000000000000000000000000000000000000000000000000520300000000000000000089A6
:2F166600000000000000000000000000000000000000000000000000000000000000000000000000000000000000000000009EB7
:2F16950000000000000000000000000000000000000000000000000000000000000000000000000003000000000000000000AE75
:2F16C40002000000000000000000000000000000000000000000000000000000000000000000004014000000000000000040AFB2
:2F16F30002000000000000000000000000000000000000000000000000000000000000000000400004000000000000000040FA48
:2F172200000000000000000000000000000000000000000000000000000000000000000000000000000000000000000000009EFA
:2F17510002000000000000000000000000000000000000000000000000000000000000000000004000000000000000000040FEE9
:2F17800002000000000000000000000000000000000000000000000000000000000000000000002002040000000000000040DCF6
:2F17AF0000000000000000000000000000000000000000000000000000000000000000000000004203000000000000000000883E
:2F17DE0000000000000000000000000000000000000000000000000000000000000000000000000003000000000000000000AE2B
:2F180D0000000000000000000000000000000000000000000000000000000000000000000000000003000000000000000000AEFB
:2F183C00020000000000000000000000000000000000000000000000000000000000000000000060080400000000000000C0F05F
:2F186B0002000000000000000000000000000000000000000000000000000000000000000000002201000000000000000040CA1F
:2F189A0000000000000000000000000000000000000000000000000000000000000000000000000003000000000000000000AE6E
:2F18C90002000000000000000000000000000000000000000000000000000000000000000000004000000000000000000040FE70
:2F18F8000200000000000000000000000000000000000000000000C00000000000000000000000001B0000000000000000C0DF45
:2F192700000000000000000000000000000000000000000000000000000000000000000000000062020000000000000000009A93
:2F19560000000000000000000000000000000000000000000000000000000000000000000000000002000000000000000000BEA2
:2F19850000000000000000000000000000000000000000000000000000000000000000000000000002000000000000000000BE73
:2F19B4000200000000000000000000000000000000000000000000000000000000000000000000400A0400000000000000C0D222
:2F19E30002000000000000000000000000000000000000000000000000000000000000000000000004000000000000000040BAD5
:2F1A1200000000000000000000000000000000000000000000000000000000000000000000000000000000000000000000009E07
:2F1A410002000000000000000000000000000000000000000000000000000000000000000000004001000000000000000040EE05
:2F1A700002000000000000000000000000000000000000000000000000000000000000000000000002040000000000000040DE21
:2F1A9F00000000000000000000000000000000000000000000000000000000000000000000000048000000000000000000809AB6
:2F1ACE00000000000000000000000000000000000000000000000000000000000000000000000000000000000000000000009E4B
:2F1AFD00000000000000000000000000000000000000000000000000000000000000000000000000000000000000000000009E1C
:2F1B2C00020000000000000000000000000000000000000000000000000000000000000000000060080400000000000000C0F06C
:2F1B5B0002000000000000000000000000000000000000000000000000000000000000000000000202000000000000000040F81D
:2F1B8A0000000000000000000000000000000000000000000000000000000000000000000000000003000000000000000000AE7B
:2F1BB90002000000000000000000000000000000000000000000000000000000000000000000004003000000000000000040CEAA
:2F1BE800020000000000000000000000000000000000000000000000000000000000000000000020180000000000000000C0E1F3
:2F1C1700000000000000000000000000000000000000000000000000006204000000000000000048030000000000000000808CE1
:2F1C4600000000000000000000000000000000000000000000000000000000000000000000000000010000000000000000008EE0
:2F1C7500000000000000000000000000000000000000000000000000000000000000000000000040010000000000000000008A75
:2F1CA400020000000000000000000000000000000000000000000000004000040000000000000050190000000000000000C0F6AC
:2F1CD30002000000000000000000000000000000000000000000000000000300000000000000006808000000000000000040C766
:2F1D020000000000000000000000000000000000000000000000000000000300000000000000000000000000000000000000AD02
:2F1D310002000000000000000000000000000000000000000000000000400000000000000000004000000000000000000040BE03
:2F1D600002000000000000000000000000000000000000000000000000000000000000000000000003040000000000000040CE3D
:2F1D8F0000000000000000000000000000000000000000000000000000000000000000000000005803000000000000000080AB9F
:2F1DBE0000000000000000000000000000000000000000000000000000000000000000000000000003000000000000000000AE45
:2F1DED0000000000000000000000000000000000000000000000000000000000000000000000000003000000000000000000AE16
:2F1E1C000200000000000000000000000000000000000000000000000000000000000000000000400B0400000000000000C0C2C4
:2F1E4B00020000000000000000000000000000000000000000000000000000000000000000008000000000000000000000C0F234
:2F1E7A0000000000000000000000000000000000000000000000000000000000000000000000000002000000000000000000BE79
:2F1EA900020000000000000000000000000000000000000000000000000000000000008000000040000000000000000000C0F692
:2F1ED800020000000000000000000000000000000000000000000000000000000000004000000010180000000000000000C0A20F
:2F1F070000000000000000000000000000000000000000000000000020500100000000000000804000000000000000000080F109
:2F1F3600000000000000000000000000000000000000000000000000000001000000000000000000000000000000000000008FEC
:2F1F6500000000000000000000000000000000000000000000000000000000000000000000000000010000000000000000008EBE
:2F1F940002000000000000000000000000000000000000000000000000400804000000000000006009040000000000000040E043
:2F1FC30002000000000000000000000000000000000000000000000000000200000000000000000004000000000000000040980F
:2F1FF200000000000000000000000000000000000000000000000000000001000000000000000000000000000000000000008F30
:2F202100020000000000000000000000000000000000000000000000004002000000000000000040000000000000000000409C30
:2F205000020000000000000000000000000000000000000000000000000019000000000000000000000400000000000000C0EE94
:2F207F0000000000000000000000000000000000000000000000000000000000000000000000005207000000000000000000C910
:2F20AE00000000000000000000000000000000000000000000000000000000000000000000000000010000000000000000008E74
:2F20DD0000000000000000000000000000000000000000000000000000000000000000000000000003000000000000000000AE23
:2F210C0002000000000000000000000000000000000000000000000000000000000000000000004011000000000000000040FF12
:2F213B00020000000000000000000000000000000000000000000000000000000000000000004000020000000000000000409A57
:2F216A00000000000000000000000000000000000000000000000000000000000000000000000000010000000000000000008EB7
:2F21990002000000000000000000000000000000000000000000000000000000000000000000004002000000000000000040DEB5
:2F21C80002000000000000000000000000000000000000C0000000000000000000000000000000202B00000000C000000040A635
:2F21F70000000000000000000000000000000000000000000000000000000000000000000000004803000000000000000080AA44
:2F22260000000000000000000000000000000000000000000000000000000000000000000000000003000000000000000000AED8
:2F22550000000000000000000000000000000000000000000000000000000000000000000000004003000000000000000000AA6D
:2F228400020000000000000000000000000000000000000000000000000000000000000000000060250000000000000000408ED6
:2F22B30002000000000000000000000000000000000000000000000000000000000000000000004400000000000000000040BABC
:2F22E20000000000000000000000000000000000000000000000000000000000000000000000000003000000000000000000AE1C
:2F231100020000000000000000000000000000000000000000000000000000800000000000000040000000000000000000C0FE1D
:2F2340000200000000000000000000000000000000000000000000000000004000000000000000202B0000000000000000C0A67B
:2F236F0000000000000000000000000000000000000000000000000000000000000000000000005809000000000000000000835B
:2F239E00000000000000000000000000000000000000000000000000000000000000000000000000010000000000000000008E81
:2F23CD00000000000000000000000000000000000000000000000000000000000000000000000000010000000000000000008E52
:2F23FC0002000000000000000000000000000000000000000000000000000000000000000000004011000000000000000040FF20
:2F242B0002000000000000000000000000000000000000000000000000000000000000000000800008000000000000000040FABE
:2F245A0000400040004000400040004000400040004000400040004000400040004000400040004000400040004000400000DEF5
:2F24890002000000000000000000000000000000000000000000008000000000000000000000000000000000008000000040FAE8
:2F24B80002000000000000000000000000000000000000000000004000000000000000000000001001040000004000C000C0A737
:2F24E700000000000000000000000000000000000000000000000000000000000000000000000000000000000000000000009E28
:2F251600000000000000000000000000000000000000000000000000000000000000000000000008000000000000000000809E70
:2F254500000000000000000000000000000000000000000000000000000000000000000000000000000000000000000000009EC9
:2F257400000000000000000000000000000000000000000000000000000000000000000000000000000000000000000000009E9A
:2F25A30000000000000000000000000000000000000000000000000000200400000000000000000004000000000000000000BA27
:2F25D200000000000000000000000000000000000000000000000000000000000000000000000000000000000000000000009E3C
:2F26010000000000000000000000000000000000000000000000000000000080000000000000000000400000000000000080DE8C
:2F263000000000000000000000000000000000000000000000000000000000000000000000000000000000000000000000009EDD
:2F265F0000000000000000000000000000000000000000000000000000000010000000000000000200100000000000000000BD6D
:2F268E00000000000000000000000000000000000000000000000000000000000000000000000000000000000000000000009E7F
:2F26BD00000000000000000000000000000000000000000000000000000000000000000000000000000000000000000000009E50
:2F26EC00000000000000000000000000000000000000000000000000000000000000000000000000000000000000000000009E21
:2F271B00000000000000000000000000000000000000000000000000000000000000000000000000000000000000000000009EF1
:2F274A00000000000000000000000000000000000000000000000000000000000000000000000000000000000000000000009EC2
:2F27790000000000000000000000000000000000000000000000000000000000000000000000000800000000000000000280BCEB
:2F27A800000000000000000000000000000000000000000000000000000000000000000000000000000000000000000000009E64
:2F27D700000000000000000000000000000000000000000000000000000000000000000000000000000000000000000000009E35
:2F280600000000000000000000000000000000000000000000000000000000000000000000000000000000000000000000009E05
:2F283500000000000000000000000000000000000000000000000000000000000000000000000000000000000000000000009ED6
:2F286400000000000000000000000000000000000000000000000000000000000000000080000000080000000000000000809E9F
:2F289300000000000000000000000000000000000000000000000000000000000000000000000000000000000000000000009E78
:2F28C20000000000000000000000000000000000000000000000000000000040000000000000000000400000000020000000B88F
:2F28F100000000000000000000000000000000000000000000000000000000000000000000000000000000000000000000009E1A
:2F292000000000000000000000000000000000000000000020000000000800000000000000000008000000000000000000809444
:2F294F00000000000000000000000000000000000000000000000000000000000000000000000000000000000000000000009EBB
:2F297E00000000000000000000000000000000000000000000000000000000000000000000000000000000000000000000009E8C
:2F29AD0000000000000000000000000000000000000000000000008002000800000000000000500008000000000000000000EE2B
:2F29DC0000000000000000000000000000000000000000000000000400000000000000000000001000000000000000000000DBDD
:2F2A0B00000000000000000000000000000000000000000000000000000000000000000000000000000000000000000000009EFE
:2F2A3A00000000000000000000000000000000000000000000000000000000000000000000002000000000000000020000009EAD
:2F2A6900000000000000000000000000000000000000000000000000000000000000000000000000000000000000000000009EA0
:2F2A9800000000000000000000000000000000000000000000000000000000000000000000000000000000000000000000009E71
:2F2AC70000000000000000000000000000000000000000000000000000000000000000000000000000440300000000000040ADAC
:2F2AF60000000000000000000000000000000000000000000000000000000000000000000000000000000300000000000000AD01
:2F2B2500000000000000000000000000000000000000000000000000000000000000000000000000000000000000000000009EE3
:2F2B540002000000000000000000000000000000000000000000000000000000000000000000000000601800000000000080DF79
:2F2B830002000000000000000000000000000000000000000000000000000000000000000000000000000000000000000040FAE7
:2F2BB20000000000000000000000000000000000000000000000000000000000000000000000000000000000000000000040DADA
:2F2BE10002000000000000000000000000000000000000000000000000000000000000000000000000400000000000000000FE85
:2F2C100002000000000000000000000000000000000000000000000000000000000000000000000000000000000000000000BED5
:2F2C3F00000000000000000000000000000000000000000000000000000000000000000000000000005808000000000000C082C4
:2F2C6E0000000000000000000000000000000000000000000000000000000000000000000000000000000300000000000000AD87
:2F2C9D00000000000000000000000000000000000000000000000000000000000000000000000000000001000000000000008F78
:2F2CCC0002000000000000000000000000000000000000000000000000000000000000000000000000401000000000000000FF88
:2F2CFB00020000000000000000000000000000000000000000000000000000000000000000000000800000000000000000C0FA6E
:2F2D2A0000000000000000000000000000000000000000000000000000000000000000000000000000000000000000000040DA60
:2F2D590002000000000000000000000000000000000000000000000000000000000000000000000000400300000000000000CD39
:2F2D8800020000000000000000000000000000000000000000000000000000000000000000000000001009020000000000809FE0
:2F2DB70002000000000000000000000000000000000000000000000000000000000000000000000000440000000000000040BEA9
:2F2DE600000000000000000000000000000000000000000000000000000000000000000000000000000000000000000000009E20
:2F2E1500000000000000000000000000000000000000000000000000000000000000000000000000000001000000000000008FFE
:2F2E440002000000000000000000000000000000000000000000000000000000000000000000000000601900000000000080CE96
:2F2E730006000000000000000000000000000000000000000000000000000000000000000000000000000000000000000040BA30
:2F2EA20002000000000000000000000000000000000000000000000000000000000000000000000000000000000000000040FAC5
:2F2ED10002000000000000000000000000000000000000000000000000000000000000000000000000400200000000000000DCB2
:2F2F0000020100000000000000000000000000000000000000000000000000000000000000000000000009020000000000808E86
:2F2F2F0002000000000000000000000000000000000000000000000000000000000000000041070000400100000000000040F8B0
:2F2F5E00000000000000000000000000000000000000000000000000000000000000000000000300000001000000000000008CB4
:2F2F8D0000000000000000000000000000000000000000000000000000000000000000000000030000400000000000000000DDF5
:2F2FBC0002000000000000000000000000000000000000000000000000000000000000000050830000400401000000000080F458
:2F2FEB00020000000000000000000000000000000000000000000000000000000000000000210700004000000000000000408F7E
:2F301A0002000000000000000000000000000000000000000000000000000000000000000000030000000000000000000040F949
:2F304900020000000000000000000000000000000000000000000000000000000000000000400300004002000000000000009B36
:2F307800060200000000000000000000000000000000000000000000000000000000000000002100000015000000000000008962
:2F30A70002000000000000000000000000000000000000000000000000000000000000008040070000410100000000000040E1CE
:2F30D60000000000000000000000000000000000000000000000000000000000000000000000030000000300000000000000AE17
:2F31050000000000000000000000000000000000000000000000000000000000000000000000030000400100000000000000CC8B
:2F31340002000000000000000000000000000000000000000000000000000000000000000060430000601800000000000080FAD5
:2F316300020000000000000000000000000000000000000000000000000000000000000000240B00804004000000000000C097F1
:2F31920002000000000000000000000000000000000000000000000000000000000000000000020000000000000000000040F8D2
:2F31C10002000000000000000000000000000000000000000000000000000000000000000040030000400000000000000000B9A1
:2F31F000460000000000000000000000000000000000000000000000000000000000000000000302001010C0000000000080CE37
:2F321F0002000000000000000000000000000000000000000000000000000000000000000000000000000000000000000040FA44
:2F324E00000000000000000000000000000000000000000000000000000000000000000000000000000000000000000000009EB3
:2F327D00000000000000000000000000000000000000000000000000000000000000000000000000000000000000000000009E84
:2F32AC0002000000000000000000000000000000000000000000000000000000000000000000000000000000000000000000BE33
:2F32DB0006000000000000000000000000000000000000000000000000000000000000000000000000000000000000000040BAC4
:2F330A0002000000000000000000000000000000000000000000000000000000000000000000000000000000000000000040FA58
:2F33390002000000000000000000000000000000000000000000000000000000000000000000000000000000000000000000BEA5
:2F33680002020000000000000000000000000000000000000000000000000000000000000000000000000000000000000000BC76
:2F3397000200000000000000000000000000000000000000000000000000000000000000000000000048030000000000004081F9
:2F33C600000000000000000000000000000000000000000000000000000000000000000000000000000000000000000000009E3A
:2F33F500000000000000000000000000000000000000000000000000000000000000000000000000000000000000000000009E0B
:2F34240000000000000000000000000000000000000000000000000000000000000000000000000000601800000000000080FF82
:2F34530002000000000000000000000000000000000000000000000000000000000000000000000000040000000000000040FE06
:2F34820002000000000000000000000000000000000000000000000000000000000000000000000000000000000000000040FADF
:2F34B10000000000000000000000000000000000000000000000000000000000000000000000000000400000000000000000DECE
:2F34E00000000000000000000000000000000000000000000000000000000000000000000000000000200000000000000000BEDF
:2F350F0002000000000000000000000000000000000000000000000000000000000000000041070000480000000000000000A556
:2F353E0000000000000000000000000000000000000000000000000000000000000000000000010000000300000000000000ACAE
:2F356D00000000000000000000000000000000000000000000000000000000000000000000000300000001000000000000008C9F
:2F359C0000000000000000000000000000000000000000000000000000000000000000000050230000602700000000000040B90D
:2F35CB00020000000000000000000000000000000000000000000000000000000000000000210700800000000000000000C0CF98
:2F35FA0002000000000000000000000000000000000000000000000000000000000000000000030000000000000000000000BDE0
:2F36290000000000000000000000000000000000000000000000000000000000000000000040030000400000000000000040DDD2
:2F36580000000000000000000000000000000000000000000000000000000000000000000000830000100902000000000040F075
:2F368700020000000000000000000000000000000000000000000000000000000000000000440B0000680300000000000040AE6A
:2F36B60000000000000000000000000000000000000000000000000000000000000000000000030000000300000000000000AE31
:2F36E50000000000000000000000000000000000000000000000000000000000000000000000030000400000000000000000DD96
:2F37140000000000000000000000000000000000000000000000000000000000000000000060130000400401000000000000FFCF
:2F374300020000000000000000000000000000000000000000000000000000000000000000280000004000000000000000C0909D
:2F37720002000000000000000000000000000000000000000000000000000000000000000000020000000000000000000040F8EC
:2F37A100000000000000000000000000000000000000000000000000000000000080000000400200004000000000000000009067
:2F37D000000000000000000000000000000000000000000000000000000000000040000000000B0400000000000000000000D5A6
:2F37FF0002000000000000000000000000000000000000000000000000000000000000000051030000440000000000000040F8C9
:2F382E0000000000000000000000000000000000000000000000000000000000000000000000010000000300000000000000ACBB
:2F385D0000000000000000000000000000000000000000000000000000000000000000000000030000400000000000000000DD1C
:2F388C0000000000000000000000000000000000000000000000000000000000000000000040470000600401000000000000A978
:2F38BB0000000000000000000000000000000000000000000000000000000000000000000022030080400000000000000080DF9A
:2F38EA0000400040004000400040004000400040004000400040004000400040004000400040034000400040004000400000DD4F
:2F391900000000000000000000000000000000000000000000000000000000000000000000000300000000000000000000009DDF
:2F394800000000000000000000000000000000000000000000000000000000000000000000001B0000100902000000000080A4F6
:2F397700000000000000000000000000000000000000000000000000000000000000000000000000000000000000000000009E83
:2F39A600000000000000000000000000000000000000000000000000000000000000000000000000000800000000000000009654
:2F39D500000000000000000000000000000000000000000000000000000000000000000000010000000000000000000000109F13
:2F3A0400000000000000000000000000000000000000000000000000000000000000000000000000000000000000000000009EF5
:2F3A330000000000000000000000000000000000000000000000000000000000000000000002000000000000000000000044BA64
:2F3A6200000000000000000000000000000000000000000000000000000000000000000000000000000000000000000000009E97
:2F3A9100000000000000000000000000000000000000000000000000000000000000000000000000000000000000000000009E68
:2F3AC000000000000000000000000000000000000000000000000000000000000000000000000000000000000000000000009E39
:2F3AEF0000000000000000000000000000000000000000000000000000000000000000000000001000000000000000000006FF93
:2F3B1E00000000000000000000000000000000000000000000000000000000000000000000000000000000000000000000009EDA
:2F3B4D000000000000000000000000000000000000000000000000000000000000800000000000000008000800000000008096A3
:2F3B7C00000000000000000000000000000000000000000000000000000000000000000000000000000000000000000000009E7C
:2F3BAB00000000000000000000000000000000000000000000000000000000000000000000000000000000000000000000009E4D
:2F3BDA0000000000000000000000000000000000000000000000000000000000000000000000020000000000000000000004DCDA
:2F3C090000040000000000000000000000000000000000000000000000000000000000000000800000000400000000000080D6AE
:2F3C3800000000000000000000000000000000000000000000000000000000000000000000010000800000000000000000808ECE
:2F3C670004020000000000000000000000000000000000000000000000000000000000000004100000010000000000000020AF44
:2F3C9600000000000000000000000000000000000000000000000000000000000000000020000000000000000000000000009C43
:2F3CC500000000000000000000000000000000000000000000000000000000000000000000000000000000000000000000009E32
:2F3CF400000400000000000000000000000000000000000000000000000000000000000000400000000004000000000000009ABF
:2F3D230010000000000000000000000000000000000000000000000000000000000000000002200000010000000000000020AC72
:2F3D5200000000000000000000000000000000000000000000000000000000000000000000000000000000000000000000009EA4
:2F3D8100000000000000000000000000000000000000000000000000000000000000000000000000000000000000000000009E75
:2F3DB000000000000000000000000000000000000000000000000000000000000000000000000000000000000000000000009E46
:2F3DDF0004000000000000000000000000000000000000000000000000000000000000000000000000000000000000000000DED3
:2F3E0E00000000000000000000000000000000000000000000000000000000000000000000000000000000900000000000808FE6
:2F3E3D00080000000000000000000000000000000000000000000000000000000000000000000010000000000000000000809727
:2F3E6C00000000000000000000000000000000000000000000000000000000000000000000000000000000000000000000009E89
:2F3E9B00000000000000000000000000000000000000000000000000000000000000000000000000000000000000000000009E5A
:2F3ECA00000000000000000000000000000000000000000000000000000000000000000000000000000000000000000000009E2B
:2F3EF900000000000000000000000000000000000000000000000000000000000000000000000000000000000000000000009EFC
:2F3F280000000000000000000000000000000000000000000000000000000000000000000002000000000000000000000000BEAA
:2F3F570002000000000000000000000000000000000000000000000000000000000000480300004803000000005800000040B05B
:2F3F8600000000000000000000000000000000000000000000000000000000000000000003000000030000000000000000009D69
:2F3FB50000000000000000000000000000000000000000000000000000000000000000400300004003000000000000000000D97E
:2F3FE400000000000000000000000000000000000000000000000000000000000000005089000060270000000040880000808F77
:2F40130000000000000000000000000000000000000000000000000000000000000000610000006100000000801008000000E93B
:2F40420000000000000000000000000000000000000000000000000000000000000000000200000001000000000000000000ACA0
:2F40710000000000000000000000000000000000000000000000000000000000000000400300004000000000004000000000ED70
:2F40A00000000000000000000000000000000000000000000000000000000000000000002700000018000000000001040080E647
:2F40CF0000000000000000000000000000000000000000000000000000000000000000410300004403000000004803000080A8C4
:2F40FE0000000000000000000000000000000000000000000000000000000000000000000100000000000000000003000000BFD0
:2F412D00000000000000000000000000000000000000000000000000000000000000000001000000000000000000010000009FC2
:2F415C0002000000000000000000000000000000000000000000000000000000000000600904005024000000006018000040B3E6
:2F418B0002000000000000000000000000000000000000000000000000000000000040000000001804000000801004000040B61D
:2F41BA00000000000000000000000000000000000000000000000000000000000000000001000000000000000000010000009F35
:2F41E90002000000000000000000000000000000000000000000000000000000000000400200004002000000004000000040B8E9
:2F42180002000000000000000000000000000000000000000000000000000000000000204B000000110000000000110000C0ED3B
:2F424700000000000000000000000000000000000000000000000000000000540300804004002060030000000058000000009FB3
:2F42760000000000000000000000000000000000000000000000000000000000030000000000000003000000000000000000AD66
:2F42A500000000000000000000000000000000000000000000000000000000000000000001000000000000000000000000008F5A
:2F42D4000200000000000000000000000000000000000000000000000000004018000050010400400804000000401A0000409294
:2F43030002000000000000000000000000000000000000000000000000000000000000000700000000000000000200000040AF91
:2F43320000000000000000000000000000000000000000000000000000000000000000000300000000000000000000000000ADAC
:2F43610002000000000000000000000000000000000000000000000000000040000000400300004000000000004000000040CD1B
:2F439000020000000000000000000000000000000000000000000000000000000000000003020000000000000020080200C0E12C
:2F43BF000000000000000000000000000000000000000000000000000000000000000044070000680B00000000580B000000AE00
:2F43EE00000000000000000000000000000000000000000000000000000000000000000003000000000000000000020000008D0E
:2F441D0000000000000000000000000000000000000000000000000000000000000000000200000002000000000003000000ACBD
:2F444C00020000000000000000000000000000000000000000000000000000000000006010000040800000000040000100C09A74
:2F447B00020000000000000000000000000000000000000000000000000000000000002804008020040000000004040000C0D8A0
:2F44AA00000000000000000000000000000000000000000000000000000000000000000000000000000000000000000000009E45
:2F44D90002000000000000000000000000000000000000000000000000000000000000400000004000000000004000000040BAF8
:2F45080002000000000000000000000000000000000000000000000000000000000000000002000003020000002000020040E831
:2F45370000000000000000000000000000000000000000000000000000000040000000410300004407000000006803000080AEED
:2F45660000000000000000000000000000000000000000000000000000000000000000000300000000000000000001000000BD65
:2F459500000000000000000000000000000000000000000000000000000000000100000001000000030000000040030000008A25
:2F45C400020000000000000000000000000000000000000000000000000000400502006025000050100000000040180000C0A7DB
:2F45F30002000000000000000000000000000000000000000000000000000000060040000000001800000000806000000040B762
:2F462200000000000000000000000000000000000000000000000000000000000100000001000000000000000000000000008ED9
:2F46510002000000000000000000000000000000000000000000000000000040000000400300004003000000004002000040DD13
:2F46800002000000000000000000000000000000000000000000000000000000800000204B000000030000000000290000C0EF43
:2F46AF0000000000000000000000000000000000000000000000004207000000000000620100004400000000000000000000FBF1
:2F46DE0000000000000000000000000000000000000000000000000003000000000000000100000000000000000000000000BFEA
:2F470D0000000000000000000000000000000000000000000000000003000000000000000100000000000000000000000000BFBA
:2F473C0002000000000000000000000000000000000000000000006003040000000000401500005024000000000000000040BB21
:2F476B0002000000000000000000000000000000000000000000002200000000000000020600202003000000000000000040ACC4
:2F479A0000000000000000000000000000000000000000000000000003000000000000000300000003000000000000000000AD3A
:2F47C90002000000000000000000000000000000000000000000004000000000000000C003000040030000000000000000C0B108
:2F47F8000200000000000000000000000000000000000000000000000000000000000050130000000A040000000000C00040FC23
:2F4827000000000000000000000000000000000000000000000000000000000000000044000000540300000080400300008097ED
:2F485600000000000000000000000000000000000000000000000000000000000000000000000000030000000000030000009E8F
:2F488500000000000000000000000000000000000000000000000000000000000000000000000000000000000040010000008A39
:2F48B4000200000000000000000000000000000000000000000000000000000000000060080400400804000000502700004085DF
:2F48E3000200000000000000000000000000000000000000000000000000000000000008020000000000000000440A0000C0B8D4
:2F491200000000000000000000000000000000000000000000000000000000000000000001000000000000000000010000009FD5
:2F494100020000000000000000000000000000000000000000000000000000000000004000000040000000000040030000408AB8
:2F49700002000000000000000000000000000000000000000000000000000000000000201B0000C0000000000010130000C0C474
:2F499F0000000000000000000000000000000000000000000000000000000000000000480300004405000000004203000000E32D
:2F49CE00000000000000000000000000000000000000000000000000000000000000000000000000030000000000030000009E16
:2F49FD0000000000000000000000000000000000000000000000000000000000000000000300000001000000000000000000BDCA
:2F4A2C0002000000000000000000000000000000000000000000000000000000000000600A04005013000000006019000040D3FC
:2F4A5B00020000000000000000000000000000000000000000000000000000000000000201000018030000000001020000C0E960
:2F4A8A00000000000000000000000000000000000000000000000000000000000000000003000000030000000000000000009D5A
:2F4AB90002000000000000000000000000000000000000000000000000000000000000400300004002000000004002000040893C
:2F4AE80002000000000000000000000000000000000000C00000000000000000000000101B0000000902000000D0140000C0D62D
:2F4B17000000000000000000205003000044040000620800000000000000406004004040030040400300000000580B000080FEBF
:2F4B460000000000000000000000000000000000000000000000000000000000000000000300000003000000000003000000AD8A
:2F4B750000000000000000000000030000000000000000000000000000000000000000000300000003000000000003000000AE57
:2F4BA400020000000000000000400000005043000040000200000000000000408000006027000050270000000040010100C0C447
:2F4BD30002000000000000000021000080200000000200000000000000000000030000000200200008000000001203000040D09C
:2F4C0200000000000000000000000000000000000000030000000000000000000300000001000000000000000000030000008CED
:2F4C31000200000000000000004000000040000000400300000000000080004000000040030000C0020000000040030000C0EDDA
:2F4C600002000000000000000000000000000000001003000000000000400000000000004B0000501300000000000B020040A233
:2F4C8F0000000000000000000000000000000000000000000000000000000041000000580300004402000000006203000000D5DA
:2F4CBE00000000000000000000000000000000000000000000000000000000000200000003000000030000000000010000008F2F
:2F4CED0000000000000000000000000000000000000000000000000000000000020000400300000003000000000003000000EF5E
:2F4D1C00020000000000000000000000000000000000000000000000000000600A04004089000050270000000040050100C08929
:2F4D4B0002000000000000000000000000000000000000000000000000004000030080400A000014000000008020020000C0F0C4
:2F4D7A0000400040004000400040004000400040004000400040004000400040024000400140004000400040004001400000DDA9
:2F4DA90002000000000000000000000000000000000000000000008000000000010000000300000000000000000002000040E033
:2F4DD8000200000000000000000000000000000000000000000000400000002048000020130000000804000000002BC000C0D840
:2F4E0700000000000000000000000000000000000000000000000000000000000000000000000000000000000000000000009EDE
:2F4E360000000000000000000000000000000000000000000000000000000000000000080000000800000000000800000000969F
:2F4E6500000000000000000000000000000000000000000000000000000000000000000000000010000000000000000100009E6F
:2F4E9400000000000000000000000000000000000000000000000000000000000000000000000000000000000000000000009E51
:2F4EC300000000000000000000000000000000000000000000000000000000000400000000000000000000000000000000009A22
:2F4EF200000000000000000000000000000000000000000000000000000000000000000000000000000000000000000000009EF3
:2F4F210000000000000000000000000000000000000000000000000000800040000000000000000000000000000000400080924F
:2F4F5000000000000000000000010000000000000000000000000000000000000400100000000001000000000000000000008A92
:2F4F7F0000000000000000000000000000101000000000000000000000001000001000000010001000000000001004000000DEB1
:2F4FAE00000000000000000000000000000000000000000000000000000000000000000000000000000000000000000000009E36
:2F4FDD000000000000000000000000000000000000000000000000000000000800000008000000800000000000000000008096FF
:2F500C0000000000000000000000000000000000000000000000000000000000000000000000000040000000800000000080D263
:2F503B00000000000000000000000000000000000000000000000000000000000000000100000040000000000000000000009B6A
:2F506A00000000000000000000000000000000000010000010000000000000000000001000000000001000000000001000008E39
:2F509900000000000000000000000000000000000000000000000000000000000000000000000000000000000000000000009E4A
:2F50C800000000000000000000000000000000000001000000000000000000010000000080000000000000008000000800809798
:2F50F7000000000000000000000100000001000000000000000000100000000000000002000008004000000000040000000084A6
:2F512600000000000000000000000000000000000000000000000000000000000000000000000000000000000000000000009EBC
:2F515500000000000000000000000000000000000000000000000000000000000000000000000000000000000000000000009E8D
:2F518400000000000000000000000000000000000000000000000000000000000000000080000800000000000000080000809656
:2F51B300000000000000000002000000000000000000002000000000000000010000000000000001000000000020000000009FEA
:2F51E20000000000000000000000000000000000000000000000000000000000000000000400020000000000000000000000D8C0
:2F521100000000000000000000000000000000000000000000000000000000000000000000000000000000000000000000009ED0
:2F52400000000000000000000000000000000000000800000000000800000000000000080008000000080000000120080080ADC1
:2F526F00000000000000000000000000000000000000000000000000000000000000000000000000000000000000000000009E72
:2F529E00000000000000000000000000000000000000000000000000000000000000000000000000000000000000000000009E43
:2F52CD00000000000000000000000000000000000000000000000000004000000C0040000440000020000000000048000080F802
:2F52FC00000000000000000000000000000000000000000000000000000000000000000000000000000000000000000000009EE5
:2F532B00000000000000000000000000000000000000000000000020000000000000000000000000000000000000000000009C97
:2F535A00000000000000000000000000000000000000000000000008000010000008100100000000002000000008000082808544
:2F538900000000000000000000000000000000000000000000000000000000000000000000000000000000000000000000009E57
:2F53B80000000000000000000000000080000000000000000000000002000000800000000000800000000000800000000000B60E
:2F53E700000000000000000000000000000000000000000000000000000000000000000000000000000000000000000000009EF9
:2F541600000000000000000000000000000000000000000000000000000000000000000000000000000000000000000000009EC9
:2F544500000000000000000000000000000000000000000000000000000000000000000000000000000000000000000000009E9A
:2F54740002000000000000000000000000000000000000000000000000000000000000000000000000000000000000000040FACD
:2F54A30002000000000000000000000000000000000000000000000000000000000000000000000000000000000000000040FA9E
:2F54D200000000000000000000000000000000000000000000000000000000000000000000000000000000000000000000009E0D
:2F55010002000000000000000000000000000000000000000000000000000000000000000000000000000000000000000040FA3F
:2F55300002000000000000000000000000000000000000000000000000000000000000000000000000000000000000000040FA10
:2F555F00000000000000000000000000000000000000000000000000000000000000000000000000000000000000000000009E7F
:2F558E00000000000000000000000000000000000000000000000000000000000000000000000000000000000000000000009E50
:2F55BD00000000000000000000000000000000000000000000000000000000000000000000000000000000000000000000009E21
:2F55EC0002000000000000000000000000000000000000000000000000000000000000000000000000000000000000000040FA54
:2F561B0002000000000000000000000000000000000000000000000000000000000000000000000000000000000000000040FA24
:2F564A00000000000000000000000000000000000000000000000000000000000000000000000000000000000000000000009E93
:2F56790002000000000000000000000000000000000000000000000000000000000000000000000000000000000000000040FAC6
:2F56A80002000000000000000000000000000000000000000000000000000000000000000000000000000000000000000040FA97
:2F56D700000000000000000000000000000000000000000000000000000000000000000000000000000000000000000000009E06
:2F570600000000000000000000000000000000000000000000000000000000000000000000000000000000000000000000009ED6
:2F573500000000000000000000000000000000000000000000000000000000000000000000000000000000000000000000009EA7
:2F57640002000000000000000000000000000000000000000000000000000000000000000000000000000000000000000040FADA
:2F57930002000000000000000000000000000000000000000000000000000000000000000000000000000000000000000040FAAB
:2F57C200000000000000000000000000000000000000000000000000000000000000000000000000000000000000000000009E1A
:2F57F10002000000000000000000000000000000000000000000000000000000000000000000000000000000000000000040FA4D
:2F58200002000000000000000000000000000000000000000000000000000000000000000000000000000000000000000040FA1D
:2F584F00000000000000000000000000000000000000000000000000000000000000000000000000000000000000000000009E8C
:2F587E00000000000000000000000000000000000000000000000000000000000000000000000000000000000000000000009E5D
:2F58AD00000000000000000000000000000000000000000000000000000000000000000000000000000000000000000000009E2E
:2F58DC0002000000000000000000000000000000000000000000000000000000000000000000000000000000000000000040FA61
:2F590B0002000000000000000000000000000000000000000000000000000000000000000000000000000000000000000040FA31
:2F593A00000000000000000000000000000000000000000000000000000000000000000000000000000000000000000000009EA0
:2F59690002000000000000000000000000000000000000000000000000000000000000000000000000000000000000000040FAD3
:2F59980002000000000000000000000000000000000000000000000000000000000000000000000000000000000000000040FAA4
:2F59C700000000000000000000000000000000000000000000000000000000000000000000000000000000000000000000009E13
:2F59F600000000000000000000000000000000000000000000000000000000000000000000000000000000000000000000009EE4
:2F5A2500000000000000000000000000000000000000000000000000000000000000000000000000000000000000000000009EB4
:2F5A540002000000000000000000000000000000000000000000000000000000000000000000000000000000000000000040FAE7
:2F5A830002000000000000000000000000000000000000000000000000000000000000000000000000000000000000000040FAB8
:2F5AB200000000000000000000000000000000000000000000000000000000000000000000000000000000000000000000009E27
:2F5AE10002000000000000000000000000000000000000000000000000000000000000000000000000000000000000000040FA5A
:2F5B100002000000000000000000000000000000000000000000000000000000000000000000000000000000000000000040FA2A
:2F5B3F00000000000000000000000000000000000000000000000000000000000000000000000000000000000000000000009E99
:2F5B6E00000000000000000000000000000000000000000000000000000000000000000000000000000000000000000000009E6A
:2F5B9D00000000000000000000000000000000000000000000000000000000000000000000000000000000000000000000009E3B
:2F5BCC0002000000000000000000000000000000000000000000000000000000000000000000000000000000000000000040FA6E
:2F5BFB0002000000000000000000000000000000000000000000000000000000000000000000000000000000000000000040FA3F
:2F5C2A00000000000000000000000000000000000000000000000000000000000000000000000000000000000000000000009EAD
:2F5C590002000000000000000000000000000000000000000000000000000000000000000000000000000000000000000040FAE0
:2F5C880002000000000000000000000000000000000000000000000000000000000000000000000000000000000000000040FAB1
:2F5CB700000000000000000000000000000000000000000000000000000000000000000000000000000000000000000000009E20
:2F5CE600000000000000000000000000000000000000000000000000000000000000000000000000000000000000000000009EF1
:2F5D1500000000000000000000000000000000000000000000000000000000000000000000000000000000000000000000009EC1
:2F5D440002000000000000000000000000000000000000000000000000000000000000000000000000000000000000000040FAF4
:2F5D730002000000000000000000000000000000000000000000000000000000000000000000000000000000000000000040FAC5
:2F5DA200000000000000000000000000000000000000000000000000000000000000000000000000000000000000000000009E34
:2F5DD10002000000000000000000000000000000000000000000000000000000000000000000000000000000000000000040FA67
:2F5E000002000000000000000000000000000000000000000000000000000000000000000000000000000000000000000040FA37
:2F5E2F00000000000000000000000000000000000000000000000000000000000000000000000000000000000000000000009EA6
:2F5E5E00000000000000000000000000000000000000000000000000000000000000000000000000000000000000000000009E77
:2F5E8D00000000000000000000000000000000000000000000000000000000000000000000000000000000000000000000009E48
:2F5EBC0002000000000000000000000000000000000000000000000000000000000000000000000000000000000000000040FA7B
:2F5EEB0002000000000000000000000000000000000000000000000000000000000000000000000000000000000000000040FA4C
:2F5F1A00000000000000000000000000000000000000000000000000000000000000000000000000000000000000000000009EBA
:2F5F490002000000000000000000000000000000000000000000000000000000000000000000000000000000000000000040FAED
:2F5F780002000000000000000000000000000000000000000000000000000000000000000000000000000000000000000040FABE
:2F5FA700000000000000000000000000000000000000000000000000000000000000000000000000000000000000000000009E2D
:2F5FD600000000000000000000000000000000000000000000000000000000000000000000000000000000000000000000009EFE
:2F600500000000000000000000000000000000000000000000000000000000000000000000000000000000000000000000009ECE
:2F60340002000000000000000000000000000000000000000000000000000000000000000000000000000000000000000040FA01
:2F60630002000000000000000000000000000000000000000000000000000000000000000000000000000000000000000040FAD2
:2F609200000000000000000000000000000000000000000000000000000000000000000000000000000000000000000000009E41
:2F60C10002000000000000000000000000000000000000000000000000000000000000000000000000000000000000000040FA74
:2F60F00002000000000000000000000000000000000000000000000000000000000000000000000000000000000000000040FA45
:2F611F00000000000000000000000000000000000000000000000000000000000000000000000000000000000000000000009EB3
:2F614E00000000000000000000000000000000000000000000000000000000000000000000000000000000000000000000009E84
:2F617D00000000000000000000000000000000000000000000000000000000000000000000000000000000000000000000009E55
:2F61AC0002000000000000000000000000000000000000000000000000000000000000000000000000000000000000000040FA88
:2F61DB0002000000000000000000000000000000000000000000000000000000000000000000000000000000000000000040FA59
:2F620A0000400040004000400040004000400040004000400040004000400040004000400040004000400040004000400000DE07
:2F62390002000000000000000000000000000000000000000000000000000000000000000000000000000000000000000040FAFA
:2F62680002000000000000000000000000000000000000000000000000000000000000000000000000000000000000000040FACB
:2F629700000000000000000000000000000000000000000000000000000000000000000000000000000000000000000000009E3A
:2F62C600000000000000000000000000000000000000000000000000000000000000000000000000000000000000000000009E0B
:2F62F500000000000000000000000000000000000000000000000000000000000000000000000000000000000000000000009EDC
:2F632400000000000000000000000000000000000000000000000000000000000000000000000000000000000000000000009EAC
:2F635300000000000000000000000000000000000000000000000000000000000000000000000000000000000000000000009E7D
:2F638200000000000000000000000000000000000000000000000000000000000000000000000000000000000000000000009E4E
:2F63B100000000000000000000000000000000000000000000000000000000000000000000000000000000000000000000009E1F
:2F63E000000000000000000000000000000000000000000000000000000000000000000000000000000000000000000000009EF0
:2F640F00000000000000000000000000000000000000000000000000000000000000000000000000000000000000000000009EC0
:2F643E00000000000000000000000000000000000000000000000000000000000000000000000000000000000000000000009E91
:2F646D00000000000000000000000000000000000000000000000000000000000000000000000000000000000000000000009E62
:2F649C00000000000000000000000000000000000000000000000000000000000000000000000000000000000000000000009E33
:2F64CB00000000000000000000000000000000000000000000000000000000000000000000000000000000000000000000009E04
:2F64FA00000000000000000000000000000000000000000000000000000000000000000000000000000000000000000000009ED5
:2F652900000000000000000000000000000000000000000000000000000000000000000000000000000000000000000000009EA5
:2F655800000000000000000000000000000000000000000000000000000000000000000000000000000000000000000000009E76
:2F658700000000000000000000000000000000000000000000000000000000000000000000000000000000000000000000009E47
:2F65B600000000000000000000000000000000000000000000000000000000000000000000000000000000000000000000009E18
:2F65E500000000000000000000000000000000000000000000000000000000000000000000000000000000000000000000009EE9
:2F661400000000000000000000000000000000000000000000000000000000000000000000000000000000000000000000009EB9
:2F664300000000000000000000000000000000000000000000000000000000000000000000000000000000000000000000009E8A
:2F667200000000000000000000000000000000000000000000000000000000000000000000000000000000000000000000009E5B
:2F66A100000000000000000000000000000000000000000000000000000000000000000000000000000000000000000000009E2C
:2F66D000000000000000000000000000000000000000000000000000000000000000000000000000000000000000000000009EFD
:2F66FF00000000000000000000000000000000000000000000000000000000000000000000000000000000000000000000009ECE
:2F672E00000000000000000000000000000000000000000000000000000000000000000000000000000000000000000000009E9E
:2F675D00000000000000000000000000000000000000000000000000000000000000000000000000000000000000000000009E6F
:2F678C00000000000000000000000000000000000000000000000000000000000000000000000000000000000000000000009E40
:2F67BB00000000000000000000000000000000000000000000000000000000000000000000000000000000000000000000009E11
:2F67EA00000000000000000000000000000000000000000000000000000000000000000000000000000000000000000000009EE2
:2F681900000000000000000000000000000000000000000000000000000000000000000000000000000000000000000000009EB2
:2F684800000000000000000000000000000000000000000000000000000000000000000000000000000000000000000000009E83
:2F68770000000000000000000000000000000000000000000000000000000000000000000000000000000000000000680400B2D4
:2F68A600000000000000000000000000000000000000000000000000000000000000000000000000000000000000000000009E25
:2F68D50000000000000000000000000000000000000000000000000000000000000000000000000000000000000000000200BCD6
:2F69040002000000000000000000000000000000000000000000000000000000000000000000000000000000000000400242B826
:2F69330002000000000000000000000000000000000000000000000000000000000000000000000000000000000000000040FAF9
:2F696200000000000000000000000000000000000000000000000000000000000000000000000000000000000000000000009E68
:2F69910002000000000000000000000000000000000000000000000000000000000000000000000000000000000000400040BA9B
:2F69C000020000000000000000000000000000000000000000000000000000000000000000000000000000000000000008C2DA02
:2F69EF0000000000000000000000000000000000000000000000000000000000000000000064070000000000000000400700883F
:2F6A1E0000000000000000000000000000000000000000000000000000000000000000000000030000000000000000000300AE95
:2F6A4D0000000000000000000000000000000000000000000000000000000000000000000000030000000000000000400000DDFA
:2F6A7C0002000000000000000000000000000000000000000000000000000000000000000040010100000000000000401040EF28
:2F6AAB0002000000000000000000000000000000000000000000000000000000000000004000080000000000000000400040B63C
:2F6ADA00000000000000000000000000000000000000000000000000000000000000000000000000000000000000000000009EEF
:2F6B090002000000000000000000000000000000000000000000000000000000000000000040000000000000000000400340CDCB
:2F6B3800020000000000000000000000000000000000000000000000000000000000000000100004000000000000000003409C39
:2F6B670000000000000000000000000000000000000000000000000000000000000000400658070000000048030000540000F9C2
:2F6B960000000000000000000000000000000000000000000000000000000000000000000200000000000000010000000000BD10
:2F6BC50000000000000000000000000000000000000000000000000000000000000000000040010000000000030000400300AB6F
:2F6BF40002000000000000000000000000000000000000000000000000000000000000404040110000000060080400404740F27A
:2F6C23000200000000000000000000000000000000000000000000000000000000000000146000000000000108000040004081C2
:2F6C5200000000000000000000000000000000000000000000000000000000000000000000000000000000000000000000009E75
:2F6C810002000000000000000000000000000000000000000000000000000000000000400140020000000040020000400040EBB2
:2F6CB00002000000000000000000000000000000000000000000000000000000000000000204170000000020010100000040BD77
:2F6CDF00000000000000000000000000000000000000000000000000000000004060010000440B0000000058050000440B00E802
:2F6D0E0000000000000000000000000000000000000000000000000000000000000000000000010000000000010000000300ADA4
:2F6D3D0000000000000000000000000000000000000000000000000000000000004003000040000000000040010000400100FA28
:2F6D6C000200000000000000000000000000000000000000000000000000000000401B0000601000000000401100005001C1A523
:2F6D9B00020000000000000000000000000000000000000000000000000000002040080010600200000000610400004002C0A3E3
:2F6DCA00000000000000000000000000000000000000000000000000000000000000000000000100000000000000000001008E0A
:2F6DF900020000000000000000000000000000000000000000000000000000000040000000400000000000400200004002409E87
:2F6E280002000000000000000000000000000000000000000000000000C00000001011000000170000000000000400001940F1F3
:2F6E5700000000000000000000000000000000000000000000000042040000002040070000580400000000440300005203809354
:2F6E860000000000000000000000000000000000000000000000000003000000000003000000000000000000030000000300AE23
