:020000040000FA
:3C000000FFFF627D15FFFFFFFFFFFFFFFFFFFFFFFFFFFFFFFFFFFFFFFFFFFFFFFFFFFFFFFFFFFFFFFFFFFFFFFFFFFFFFFFFFFFFFFFFFFFFFFFFFFFFFFFFFFFFF09
:3C003C00000000000000000000000000000000000000000000000000000000000000000000000000000000000000000000000000000000000000000000001EFE6C
:3C0078000000000000000000000000000000000000000000000000000000000000000000000000000000000000000000000000000000008000000000000096FE38
:3C00B4000000000000000000000000000000000000000000000000000000000000000000000000000000000000000000000000000000008000000000000096FEFC
:3C00F0000000048004800480048004800480048004800480048004800480048004800480048004800480048004800480048004800480040004800480000096FED4
:3C012C00000004800480048004800480048004800480048004800480048004800480048004800480048004800480048004800480048004800480048000001EFE8F
:3C0168000000000000000000000000000000000000000000000000000000000000000000000000000000000000000000000000000000008000000000000096FE47
:3C01A4000000048004800480048004800480048004800480048004800480048004800480048004800480048004800480048004800480040004800480000096FE1F
:3C01E0000000048004800480048004800480048004800480048004800480048004800480048004800480048004800480048004800480040004800480000096FEE3
:3C021C00000000000000000000000000000000000000000000000000000000000000000000000000000000000000000000000000000000000000000000001EFE8A
:3C025800000000000000000000000000000000000000000000000000000000000000000000000000000000000000000000000000000000000000000000001EFE4E
:3C029400000000000000000000000000000000000000000000000000000000000000000000000000000000000000000000000000000000000000000000001EFE12
:3C02D000020000000000000000000000000000000000000000000000000000000000000000000000000000000000000000000000000000000000000000002FFFC2
:3C030C00020000000000000000000000000000000000000000000000000000000000000000000000000000000000000000000000000000000000000000002FFF85
:3C034800000000000000000000000000000000000000000000000000000000000000000000000000000000000000000000000000000000000000000000001EFE5D
:3C038400020000000000000000000000000000000000000000000000000000000000000000000000000000000000000000000000000000000000000000002FFF0D
:3C03C000020000000000000000000000000000000000000000000000000000000000000000000000000000000000000000000000000000000000000000002FFFD1
:3C03FC00000000000000000000000000000000000000000000000000000000000000000000000000000000000000000000000000000000000000000000001EFEA9
:3C043800000000000000000000000000000000000000000000000000000000000000000000000000000000000000000000000000000000000000000000001EFE6C
:3C047400000000000000000000000000000000000000000000000000000000000000000000000000000000000000000000000000000000000000000000001EFE30
:3C04B000020000000000000000000000000000000000000000000000000000000000000000000000000000000000000000000000000000000000000000002FFFE0
:3C04EC00020000000000000000000000000000000000000000000000000000000000000000000000000000000000000000000000000000000000000000002FFFA4
:3C052800000000000000000000000000000000000000000000000000000000000000000000000000000000000000000000000000000000000000000000001EFE7B
:3C056400020000000000000000000000000000000000000000000000000000000000000000000000000000000000000000000000000000000000000000002FFF2B
:3C05A000020000000000000000000000000000000000000000000000000000000000000000000000000000000000000000000000000000000000000000002FFFEF
:3C05DC00000000000000000000000000000000000000000000000000000000000000000000000000000000000000000000000000000000000000000000001EFEC7
:3C061800000000000000000000000000000000000000000000000000000000000000000000000000000000000000000000000000000000000000000000001EFE8A
:3C065400000000000000000000000000000000000000000000000000000000000000000000000000000000000000000000000000000000000000000000001EFE4E
:3C069000020000000000000000000000000000000000000000000000000000000000000000000000000000000000000000000000000000000000000000002FFFFE
:3C06CC00020000000000000000000000000000000000000000000000000000000000000000000000000000000000000000000000000000000000000000002FFFC2
:3C070800000000000000000000000000000000000000000000000000000000000000000000000000000000000000000000000000000000000000000000001EFE99
:3C074400020000000000000000000000000000000000000000000000000000000000000000000000000000000000000000000000000000000000000000002FFF49
:3C078000020000000000000000000000000000000000000000000000000000000000000000000000000000000000000000000000000000000000000000002FFF0D
:3C07BC00000000000000000000000000000000000000000000000000000000000000000000000000000000000000000000000000000000000000000000001EFEE5
:3C07F800000000000000000000000000000000000000000000000000000000000000000000000000000000000000000000000000000000000000000000001EFEA9
:3C083400000000000000000000000000000000000000000000000000000000000000000000000000000000000000000000000000000000000000000000001EFE6C
:3C087000020000000000000000000000000000000000000000000000000000000000000000000000000000000000000000000000000000000000000000002FFF1C
:3C08AC00020000000000000000000000000000000000000000000000000000000000000000000000000000000000000000000000000000000000000000002FFFE0
:3C08E800000000000000000000000000000000000000000000000000000000000000000000000000000000000000000000000000000000000000000000001EFEB8
:3C092400020000000000000000000000000000000000000000000000000000000000000000000000000000000000000000000000000000000000000000002FFF67
:3C096000020000000000000000000000000000000000000000000000000000000000000000000000000000000000000000000000000000000000000000002FFF2B
:3C099C00000000000000000000000000000000000000000000000000000000000000000000000000000000000000000000000000000000000000000000001EFE03
:3C09D800000000000000000000000000000000000000000000000000000000000000000000000000000000000000000000000000000000000000000000001EFEC7
:3C0A1400000000000000000000000000000000000000000000000000000000000000000000000000000000000000000000000000000000000000000000001EFE8A
:3C0A5000020000000000000000000000000000000000000000000000000000000000000000000000000000000000000000000000000000000000000000002FFF3A
:3C0A8C00020000000000000000000000000000000000000000000000000000000000000000000000000000000000000000000000000000000000000000002FFFFE
:3C0AC800000000000000000000000000000000000000000000000000000000000000000000000000000000000000000000000000000000000000000000001EFED6
:3C0B0400020000000000000000000000000000000000000000000000000000000000000000000000000000000000000000000000000000000000000000002FFF85
:3C0B4000020000000000000000000000000000000000000000000000000000000000000000000000000000000000000000000000000000000000000000002FFF49
:3C0B7C00000000000000000000000000000000000000000000000000000000000000000000000000000000000000000000000000000000000000000000001EFE21
:3C0BB800000000000000000000000000000000000000000000000000000000000000000000000000000000000000000000000000000000000000000000001EFEE5
:3C0BF400000000000000000000000000000000000000000000000000000000000000000000000000000000000000000000000000000000000000000000001EFEA9
:3C0C3000020000000000000000000000000000000000000000000000000000000000000000000000000000000000000000000000000000000000000000002FFF58
:3C0C6C00020000000000000000000000000000000000000000000000000000000000000000000000000000000000000000000000000000000000000000002FFF1C
:3C0CA800000000000000000000000000000000000000000000000000000000000000000000000000000000000000000000000000000000000000000000001EFEF4
:3C0CE400020000000000000000000000000000000000000000000000000000000000000000000000000000000000000000000000000000000000000000002FFFA4
:3C0D2000020000000000000000000000000000000000000000000000000000000000000000000000000000000000000000000000000000000000000000002FFF67
:3C0D5C00000000000000000000000000000000000000000000000000000000000000000000000000000000000000000000000000000000000000000000001EFE3F
:3C0D9800000000000000000000000000000000000000000000000000000000000000000000000000000000000000000000000000000000000000000000001EFE03
:3C0DD400000000000000000000000000000000000000000000000000000000000000000000000000000000000000000000000000000000000000000000001EFEC7
:3C0E1000020000000000000000000000000000000000000000000000000000000000000000000000000000000000000000000000000000000000000000002FFF76
:3C0E4C00020000000000000000000000000000000000000000000000000000000000000000000000000000000000000000000000000000000000000000002FFF3A
:3C0E8800000000000000000000000000000000000000000000000000000000000000000000000000000000000000000000000000000000000000000000001EFE12
:3C0EC400020000000000000000000000000000000000000000000000000000000000000000000000000000000000000000000000000000000000000000002FFFC2
:3C0F0000020000000000000000000000000000000000000000000000000000000000000000000000000000000000000000000000000000000000000000002FFF85
:3C0F3C00000000000000000000000000000000000000000000000000000000000000000000000000000000000000000000000000000000000000000000001EFE5D
:3C0F7800000000000000000000000000000000000000000000000000000000000000000000000000000000000000000000000000000000000000000000001EFE21
:3C0FB400000000000000000000000000000000000000000000000000000000000000000000000000000000000000000000000000000000000000000000001EFEE5
:3C0FF000020000000000000000000000000000000000000000000000000000000000000000000000000000000000000000000000000000000000000000002FFF95
:3C102C00020000000000000000000000000000000000000000000000000000000000000000000000000000000000000000000000000000000000000000002FFF58
:3C106800000000000000000000000000000000000000000000000000000000000000000000000000000000000000000000000000000000000000000000001EFE30
:3C10A400020000000000000000000000000000000000000000000000000000000000000000000000000000000000000000000000000000000000000000002FFFE0
:3C10E000020000000000000000000000000000000000000000000000000000000000000000000000000000000000000000000000000000000000000000002FFFA4
:3C111C00000000000000000000000000000000000000000000000000000000000000000000000000000000000000000000000000000000000000000000001EFE7B
:3C115800000000000000000000000000000000000000000000000000000000000000000000000000000000000000000000000000000000000000000000001EFE3F
:3C119400000000000000000000000000000000000000000000000000000000000000000000000000000000000000000000000000000000000000000000001EFE03
:3C11D000020000000000000000000000000000000000000000000000000000000000000000000000000000000000000000000000000000000000000000002FFFB3
:3C120C00020000000000000000000000000000000000000000000000000000000000000000000000000000000000000000000000000000000000000000002FFF76
:3C124800000000000000000000000000000000000000000000000000000000000000000000000000000000000000000000000000000000000000000000001EFE4E
:3C128400020000000000000000000000000000000000000000000000000000000000000000000000000000000000000000000000000000000000000000002FFFFE
:3C12C000020000000000000000000000000000000000000000000000000000000000000000000000000000000000000000000000000000000000000000002FFFC2
:3C12FC00000000000000000000000000000000000000000000000000000000000000000000000000000000000000000000000000000000000000000000001EFE9A
:3C133800000000000000000000000000000000000000000000000000000000000000000000000000000000000000000000000000000000000000000000001EFE5D
:3C137400000000000000000000000000000000000000000000000000000000000000000000000000000000000000000000000000000000000000000000001EFE21
:3C13B000020000000000000000000000000000000000000000000000000000000000000000000000000000000000000000000000000000000000000000002FFFD1
:3C13EC00020000000000000000000000000000000000000000000000000000000000000000000000000000000000000000000000000000000000000000002FFF95
:3C142800008000800080008000800080008000800080008000800080008000800080008000800080008000800080008000800080008000800080008000009EFEEC
:3C146400020000000000000000000000000000000000000000000000000000000000000000000000000000000000000000000000000000000000000000002FFF1C
:3C14A000020000000000000000000000000000000000000000000000000000000000000000000000000000000000000000000000000000000000000000002FFFE0
:3C14DC00000000000000000000000000000000000000000000000000000000000000000000000000000000000000000000000000000000000000000000001EFEB8
:3C151800000000000000000000000000000000000000000000000000000000000000000000000000000000000000000000000000000000000000000000001EFE7B
:3C155400000000000000000000000000000000000000000000000000000000000000000000000000000000000000000000000000000000000000000000001EFE3F
:3C159000000000000000000000000000000000000000000000000000000000000000000000000000000000000000000000000000000000000000000000001EFE03
:3C15CC00000000000000000000000000000000000000000000000000000000000000000000000000000000000000000000000000000000000000000000001EFEC7
:3C160800000000000000000000000000000000000000000000000000000000000000000000000000000000000000000000000000000000000000000000001EFE8A
:3C164400000000000000000000000000000000000000000000000000000000000000000000000000000000000000000000000000000000000000000000001EFE4E
:3C168000000000000000000000000000000000000000000000000000000000000000000000000000000000000000000000000000000000000000000000001EFE12
:3C16BC00000000000000000000000000000000000000000000000000000000000000000000000000000000000000000000000000000000000000000000001EFED6
:3C16F800000000000000000000000000000000000000000000000000000000000000000000000000000000000000000000000000000000000000000000001EFE9A
:3C173400000000000000000000000000000000000000000000000000000000000000000000000000000000000000000000000000000000000000000000001EFE5D
:3C177000000000000000000000000000000000000000000000000000000000000000000000000000000000000000000000000000000000000000000000001EFE21
:3C17AC00000000000000000000000000000000000000000000000000000000000000000000000000000000000000000000000000000000000000000000001EFEE5
:3C17E800000000000000000000000000000000000000000000000000000000000000000000000000000000000000000000000000000000000000000000001EFEA9
:3C182400000000000000000000000000000000000000000000000000000000000000000000000000000000000000000000000000000000000000000000001EFE6C
:3C186000000000000000000000000000000000000000000000000000000000000000000000000000000000000000000000000000000000000000000000001EFE30
:3C189C00000000000000000000000000000000000000000000000000000000000000000000000000000000000000000000000000000000000000000000001EFEF4
:3C18D800000000000000000000000000000000000000000000000000000000000000000000000000000000000000000000000000000000000000000000001EFEB8
:3C191400000000000000000000000000000000000000000000000000000000000000000000000000000000000000000000000000000000000000000000001EFE7B
:3C195000000000000000000000000000000000000000000000000000000000000000000000000000000000000000000000000000000000000000000000001EFE3F
:3C198C00000000000000000000000000000000000000000000000000000000000000000000000000000000000000000000000000000000000000000000001EFE03
:3C19C800000000000000000000000000000000000000000000000000000000000000000000000000000000000000000000000000000000000000000000001EFEC7
:3C1A0400000000000000000000000000000000000000000000000000000000000000000000000000000000000000000000000000000000000000000000001EFE8A
:3C1A4000000000000000000000000000000000000000000000000000000000000000000000000000000000000000000000000000000000000000000000001EFE4E
:3C1A7C00000000000000000000000000000000000000000000000000000000000000000000000000000000000000000000000000000000000000000000001EFE12
:3C1AB800000000000000000000000000000000000000000000000000000000000000000000000000000000000000000000000000000000000000000000001EFED6
:3C1AF400000000000000000000000000000000000000000000000000000000000000000000000000000000000000000000000000000000000000000000001EFE9A
:3C1B3000000000000000000000000000000000000000000000000000000000000000000000000000000000000000000000000000000000000000000000001EFE5D
:3C1B6C00000000000000000000000000000000000000000000000000000000000000000000000000000000000000000000000000000000000000000000001EFE21
:3C1BA800000000000000000000000000000000000000000000000000000000000000000000000000000000000000000000000000000000000000000000001EFEE5
:3C1BE400000000000000000000000000000000000000000000000000000000000000000000000000000000000000000000000000000000000000000000001EFEA9
:3C1C2000000000000000000000000000000000000000000000000000000000000000000000000000000000000000000000000000000000000000000000001EFE6C
:3C1C5C00000000000000000000000000000000000000000000000000000000000000000000000000000000000000000000000000000000000000000000001EFE30
:3C1C9800000000000000000000000000000000000000000000000000000000000000000000000000000000000000000000000000000000000000000000001EFEF4
:3C1CD400000000000000000000000000000000000000000000000000000000000000000000000000000000000000000000000000000000000000000000001EFEB8
:3C1D1000000000000000000000000000000000000000000000000000000000000000000000000000000000000000000000000000000000000000000000001EFE7B
:3C1D4C00000000000000000000000000000000000000000000000000000000000000000000000000000000000000000000000000000000000000000000001EFE3F
:3C1D8800000000000000000000000000000000000000000000000000000000000000000000000000000000000000000000000000000000000000000000001EFE03
:3C1DC400000000000000000000000000000000000000000000000000000000000000000000000000000000000000000000000000000000000000000000001EFEC7
:3C1E0000020000000000000000000000000000000000000000000000000000000000000000000000000000000000000000000000000000000000000000002FFF76
:3C1E3C00020000000000000000000000000000000000000000000000000000000000000000000000000000000000000000000000000000000000000000002FFF3A
:3C1E7800000000000000000000000000000000000000000000000000000000000000000000000000000000000000000000000000000000000000000000001EFE12
:3C1EB400020000000000000000000000000000000000000000000000000000000000000000000000000000000000000000000000000000000000000000002FFFC2
:3C1EF000020000000000000000000000000000000000000000000000000000000000000000000000000000000000000000000000000000000000000000002FFF86
:3C1F2C00000000000000000000000000000000000000000000000000000000000000000000000000000000000000000000000000000000000000000000001EFE5D
:3C1F6800000000000000000000000000000000000000000000000000000000000000000000000000000000000000000000000000000000000000000000001EFE21
:3C1FA400000000000000000000000000000000000000000000000000000000000000000000000000000000000000000000000000000000000000000000001EFEE5
:3C1FE000020000000000000000000000000000000000000000000000000000000000000000000000000000000000000000000000000000000000000000002FFF95
:3C201C00020000000000000000000000000000000000000000000000000000000000000000000000000000000000000000000000000000000000000000002FFF58
:3C205800000000000000000000000000000000000000000000000000000000000000000000000000000000000000000000000000000000000000000000001EFE30
:3C209400020000000000000000000000000000000000000000000000000000000000000000000000000000000000000000000000000000000000000000002FFFE0
:3C20D000020000000000000000000000000000000000000000000000000000000000000000000000000000000000000000000000000000000000000000002FFFA4
:3C210C00000000000000000000000000000000000000000000000000000000000000000000000000000000000000000000000000000000000000000000001EFE7B
:3C214800000000000000000000000000000000000000000000000000000000000000000000000000000000000000000000000000000000000000000000001EFE3F
:3C218400000000000000000000000000000000000000000000000000000000000000000000000000000000000000000000000000000000000000000000001EFE03
:3C21C000020000000000000000000000000000000000000000000000000000000000000000000000000000000000000000000000000000000000000000002FFFB3
:3C21FC00020000000000000000000000000000000000000000000000000000000000000000000000000000000000000000000000000000000000000000002FFF77
:3C223800000000000000000000000000000000000000000000000000000000000000000000000000000000000000000000000000000000000000000000001EFE4E
:3C227400020000000000000000000000000000000000000000000000000000000000000000000000000000000000000000000000000000000000000000002FFFFE
:3C22B000020000000000000000000000000000000000000000000000000000000000000000000000000000000000000000000000000000000000000000002FFFC2
:3C22EC00000000000000000000000000000000000000000000000000000000000000000000000000000000000000000000000000000000000000000000001EFE9A
:3C232800000000000000000000000000000000000000000000000000000000000000000000000000000000000000000000000000000000000000000000001EFE5D
:3C236400000000000000000000000000000000000000000000000000000000000000000000000000000000000000000000000000000000000000000000001EFE21
:3C23A000020000000000000000000000000000000000000000000000000000000000000000000000000000000000000000000000000000000000000000002FFFD1
:3C23DC00020000000000000000000000000000000000000000000000000000000000000000000000000000000000000000000000000000000000000000002FFF95
:3C241800000000000000000000000000000000000000000000000000000000000000000000000000000000000000000000000000000000000000000000001EFE6C
:3C245400020000000000000000000000000000000000000000000000000000000000000000000000000000000000000000000000000000000000000000002FFF1C
:3C249000020000000000000000000000000000000000000000000000000000000000000000000000000000000000000000000000000000000000000000002FFFE0
:3C24CC00000000000000000000000000000000000000000000000000000000000000000000000000000000000000000000000000000000000000000000001EFEB8
:3C250800000000000000000000000000000000000000000000000000000000000000000000000000000000000000000000000000000000000000000000001EFE7B
:3C254400000000000000000000000000000000000000000000000000000000000000000000000000000000000000000000000000000000000000000000001EFE3F
:3C258000020000000000000000000000000000000000000000000000000000000000000000000000000000000000000000000000000000000000000000002FFFEF
:3C25BC00020000000000000000000000000000000000000000000000000000000000000000000000000000000000000000000000000000000000000000002FFFB3
:3C25F800000000000000000000000000000000000000000000000000000000000000000000000000000000000000000000000000000000000000000000001EFE8B
:3C263400020000000000000000000000000000000000000000000000000000000000000000000000000000000000000000000000000000000000000000002FFF3A
:3C267000020000000000000000000000000000000000000000000000000000000000000000000000000000000000000000000000000000000000000000002FFFFE
:3C26AC00000000000000000000000000000000000000000000000000000000000000000000000000000000000000000000000000000000000000000000001EFED6
:3C26E800000000000000000000000000000000000000000000000000000000000000000000000000000000000000000000000000000000000000000000001EFE9A
:3C272400000000000000000000000000000000000000000000000000000000000000000000000000000000000000000000000000000000000000000000001EFE5D
:3C276000020000000000000000000000000000000000000000000000000000000000000000000000000000000000000000000000000000000000000000002FFF0D
:3C279C00020000000000000000000000000000000000000000000000000000000000000000000000000000000000000000000000000000000000000000002FFFD1
:3C27D800000000000000000000000000000000000000000000000000000000000000000000000000000000000000000000000000000000000000000000001EFEA9
:3C281400020000000000000000000000000000000000000000000000000000000000000000000000000000000000000000000000000000000000000000002FFF58
:3C285000020000000000000000000000000000000000000000000000000000000000000000000000000000000000000000000000000000000000000000002FFF1C
:3C288C00000000000000000000000000000000000000000000000000000000000000000000000000000000000000000000000000000000000000000000001EFEF4
:3C28C800000000000000000000000000000000000000000000000000000000000000000000000000000000000000000000000000000000000000000000001EFEB8
:3C290400000000000000000000000000000000000000000000000000000000000000000000000000000000000000000000000000000000000000000000001EFE7B
:3C294000020000000000000000000000000000000000000000000000000000000000000000000000000000000000000000000000000000000000000000002FFF2B
:3C297C00020000000000000000000000000000000000000000000000000000000000000000000000000000000000000000000000000000000000000000002FFFEF
:3C29B800000000000000000000000000000000000000000000000000000000000000000000000000000000000000000000000000000000000000000000001EFEC7
:3C29F400020000000000000000000000000000000000000000000000000000000000000000000000000000000000000000000000000000000000000000002FFF77
:3C2A3000020000000000000000000000000000000000000000000000000000000000000000000000000000000000000000000000000000000000000000002FFF3A
:3C2A6C00000000000000000000000000000000000000000000000000000000000000000000000000000000000000000000000000000000000000000000001EFE12
:3C2AA800000000000000000000000000000000000000000000000000000000000000000000000000000000000000000000000000000000000000000000001EFED6
:3C2AE400000000000000000000000000000000000000000000000000000000000000000000000000000000000000000000000000000000000000000000001EFE9A
:3C2B2000020000000000000000000000000000000000000000000000000000000000000000000000000000000000000000000000000000000000000000002FFF49
:3C2B5C00020000000000000000000000000000000000000000000000000000000000000000000000000000000000000000000000000000000000000000002FFF0D
:3C2B9800000000000000000000000000000000000000000000000000000000000000000000000000000000000000000000000000000000000000000000001EFEE5
:3C2BD400020000000000000000000000000000000000000000000000000000000000000000000000000000000000000000000000000000000000000000002FFF95
:3C2C1000020000000000000000000000000000000000000000000000000000000000000000000000000000000000000000000000000000000000000000002FFF58
:3C2C4C00000000000000000000000000000000000000000000000000000000000000000000000000000000000000000000000000000000000000000000001EFE30
:3C2C8800000000000000000000000000000000000000000000000000000000000000000000000000000000000000000000000000000000000000000000001EFEF4
:3C2CC400000000000000000000000000000000000000000000000000000000000000000000000000000000000000000000000000000000000000000000001EFEB8
:3C2D0000020000000000000000000000000000000000000000000000000000000000000000000000000000000000000000000000000000000000000000002FFF67
:3C2D3C00020000000000000000000000000000000000000000000000000000000000000000000000000000000000000000000000000000000000000000002FFF2B
:3C2D7800000000000000000000000000000000000000000000000000000000000000000000000000000000000000000000000000000000000000000000001EFE03
:3C2DB400020000000000000000000000000000000000000000000000000000000000000000000000000000000000000000000000000000000000000000002FFFB3
:3C2DF000020000000000000000000000000000000000000000000000000000000000000000000000000000000000000000000000000000000000000000002FFF77
:3C2E2C00000000000000000000000000000000000000000000000000000000000000000000000000000000000000000000000000000000000000000000001EFE4E
:3C2E6800000000000000000000000000000000000000000000000000000000000000000000000000000000000000000000000000000000000000000000001EFE12
:3C2EA400000000000000000000000000000000000000000000000000000000000000000000000000000000000000000000000000000000000000000000001EFED6
:3C2EE000020000000000000000000000000000000000000000000000000000000000000000000000000000000000000000000000000000000000000000002FFF86
:3C2F1C00020000000000000000000000000000000000000000000000000000000000000000000000000000000000000000000000000000000000000000002FFF49
:3C2F5800008000800080008000800080008000800080008000800080008000800080008000800080008000800080008000800080008000800080008000009EFEA1
:3C2F9400020000000000000000000000000000000000000000000000000000000000000000000000000000000000000000000000000000000000000000002FFFD1
:3C2FD000020000000000000000000000000000000000000000000000000000000000000000000000000000000000000000000000000000000000000000002FFF95
:3C300C00000000000000000000000000000000000000000000000000000000000000000000000000000000000000000000000000000000000000000000001EFE6C
:3C304800000000000000000000000000000000000000000000000000000000000000000000000000000000000000000000000000000000000000000000001EFE30
:3C308400000000000000000000000000000000000000000000000000000000000000000000000000000000000000000000000000000000000000000000001EFEF4
:3C30C000000000000000000000000000000000000000000000000000000000000000000000000000000000000000000000000000000000000000000000001EFEB8
:3C30FC00000000000000000000000000000000000000000000000000000000000000000000000000000000000000000000000000000000000000000000001EFE7C
:3C313800000000000000000000000000000000000000000000000000000000000000000000000000000000000000000000000000000000000000000000001EFE3F
:3C317400000000000000000000000000000000000000000000000000000000000000000000000000000000000000000000000000000000000000000000001EFE03
:3C31B000000000000000000000000000000000000000000000000000000000000000000000000000000000000000000000000000000000000000000000001EFEC7
:3C31EC00000000000000000000000000000000000000000000000000000000000000000000000000000000000000000000000000000000000000000000001EFE8B
:3C322800000000000000000000000000000000000000000000000000000000000000000000000000000000000000000000000000000000000000000000001EFE4E
:3C326400000000000000000000000000000000000000000000000000000000000000000000000000000000000000000000000000000000000000000000001EFE12
:3C32A000000000000000000000000000000000000000000000000000000000000000000000000000000000000000000000000000000000000000000000001EFED6
:3C32DC00000000000000000000000000000000000000000000000000000000000000000000000000000000000000000000000000000000000000000000001EFE9A
:3C331800000000000000000000000000000000000000000000000000000000000000000000000000000000000000000000000000000000000000000000001EFE5D
:3C335400000000000000000000000000000000000000000000000000000000000000000000000000000000000000000000000000000000000000000000001EFE21
:3C339000000000000000000000000000000000000000000000000000000000000000000000000000000000000000000000000000000000000000000000001EFEE5
:3C33CC00000000000000000000000000000000000000000000000000000000000000000000000000000000000000000000000000000000000000000000001EFEA9
:3C340800000000000000000000000000000000000000000000000000000000000000000000000000000000000000000000000000000000000000000000001EFE6C
:3C344400000000000000000000000000000000000000000000000000000000000000000000000000000000000000000000000000000000000000000000001EFE30
:3C348000000000000000000000000000000000000000000000000000000000000000000000000000000000000000000000000000000000000000000000001EFEF4
:3C34BC00000000000000000000000000000000000000000000000000000000000000000000000000000000000000000000000000000000000000000000001EFEB8
:3C34F800000000000000000000000000000000000000000000000000000000000000000000000000000000000000000000000000000000000000000000001EFE7C
:3C353400000000000000000000000000000000000000000000000000000000000000000000000000000000000000000000000000000000000000000000001EFE3F
:3C357000000000000000000000000000000000000000000000000000000000000000000000000000000000000000000000000000000000000000000000001EFE03
:3C35AC00000000000000000000000000000000000000000000000000000000000000000000000000000000000000000000000000000000000000000000001EFEC7
:3C35E800000000000000000000000000000000000000000000000000000000000000000000000000000000000000000000000000000000000000000000001EFE8B
:3C362400000000000000000000000000000000000000000000000000000000000000000000000000000000000000000000000000000000000000000000001EFE4E
:3C366000000000000000000000000000000000000000000000000000000000000000000000000000000000000000000000000000000000000000000000001EFE12
:3C369C00000000000000000000000000000000000000000000000000000000000000000000000000000000000000000000000000000000000000000000001EFED6
:3C36D800000000000000000000000000000000000000000000000000000000000000000000000000000000000000000000000000000000000000000000001EFE9A
:3C371400000000000000000000000000000000000000000000000000000000000000000000000000000000000000000000000000000000000000000000001EFE5D
:3C375000000000000000000000000000000000000000000000000000000000000000000000000000000000000000000000000000000000000000000000001EFE21
:3C378C00000000000000000000000000000000000000000000000000000000000000000000000000000000000000000000000000000000000000000000001EFEE5
:3C37C800000000000000000000000000000000000000000000000000000000000000000000000000000000000000000000000000000000000000000000001EFEA9
:3C380400000000000000000000000000000000000000000000000000000000000000000000000000000000000000000000000000000000000000000000001EFE6C
:3C384000000000000000000000000000000000000000000000000000000000000000000000000000000000000000000000000000000000000000000000001EFE30
:3C387C00000000000000000000000000000000000000000000000000000000000000000000000000000000000000000000000000000000000000000000001EFEF4
:3C38B800000000000000000000000000000000000000000000000000000000000000000000000000000000000000000000000000000000000000000000001EFEB8
:3C38F400000000000000000000000000000000000000000000000000000000000000000000000000000000000000000000000000000000000000000000001EFE7C
:3C393000020000000000000000000000000000000000000000000000000000000000000000000000000000000000000000000000000000000000000000002FFF2B
:3C396C00020000000000000000000000000000000000000000000000000000000000000000000000000000000000000000000000000000000000000000002FFFEF
:3C39A800000000000000000000000000000000000000000000000000000000000000000000000000000000000000000000000000000000000000000000001EFEC7
:3C39E400020000000000000000000000000000000000000000000000000000000000000000000000000000000000000000000000000000000000000000002FFF77
:3C3A2000020000000000000000000000000000000000000000000000000000000000000000000000000000000000000000000000000000000000000000002FFF3A
:3C3A5C00000000000000000000000000000000000000000000000000000000000000000000000000000000000000000000000000000000000000000000001EFE12
:3C3A9800000000000000000000000000000000000000000000000000000000000000000000000000000000000000000000000000000000000000000000001EFED6
:3C3AD400000000000000000000000000000000000000000000000000000000000000000000000000000000000000000000000000000000000000000000001EFE9A
:3C3B1000020000000000000000000000000000000000000000000000000000000000000000000000000000000000000000000000000000000000000000002FFF49
:3C3B4C00020000000000000000000000000000000000000000000000000000000000000000000000000000000000000000000000000000000000000000002FFF0D
:3C3B8800000000000000000000000000000000000000000000000000000000000000000000000000000000000000000000000000000000000000000000001EFEE5
:3C3BC400020000000000000000000000000000000000000000000000000000000000000000000000000000000000000000000000000000000000000000002FFF95
:3C3C0000020000000000000000000000000000000000000000000000000000000000000000000000000000000000000000000000000000000000000000002FFF58
:3C3C3C00000000000000000000000000000000000000000000000000000000000000000000000000000000000000000000000000000000000000000000001EFE30
:3C3C7800000000000000000000000000000000000000000000000000000000000000000000000000000000000000000000000000000000000000000000001EFEF4
:3C3CB400000000000000000000000000000000000000000000000000000000000000000000000000000000000000000000000000000000000000000000001EFEB8
:3C3CF000020000000000000000000000000000000000000000000000000000000000000000000000000000000000000000000000000000000000000000002FFF68
:3C3D2C00020000000000000000000000000000000000000000000000000000000000000000000000000000000000000000000000000000000000000000002FFF2B
:3C3D6800000000000000000000000000000000000000000000000000000000000000000000000000000000000000000000000000000000000000000000001EFE03
:3C3DA400020000000000000000000000000000000000000000000000000000000000000000000000000000000000000000000000000000000000000000002FFFB3
:3C3DE000020000000000000000000000000000000000000000000000000000000000000000000000000000000000000000000000000000000000000000002FFF77
:3C3E1C00000000000000000000000000000000000000000000000000000000000000000000000000000000000000000000000000000000000000000000001EFE4E
:3C3E5800000000000000000000000000000000000000000000000000000000000000000000000000000000000000000000000000000000000000000000001EFE12
:3C3E9400000000000000000000000000000000000000000000000000000000000000000000000000000000000000000000000000000000000000000000001EFED6
:3C3ED000020000000000000000000000000000000000000000000000000000000000000000000000000000000000000000000000000000000000000000002FFF86
:3C3F0C00020000000000000000000000000000000000000000000000000000000000000000000000000000000000000000000000000000000000000000002FFF49
:3C3F4800000000000000000000000000000000000000000000000000000000000000000000000000000000000000000000000000000000000000000000001EFE21
:3C3F8400020000000000000000000000000000000000000000000000000000000000000000000000000000000000000000000000000000000000000000002FFFD1
:3C3FC000020000000000000000000000000000000000000000000000000000000000000000000000000000000000000000000000000000000000000000002FFF95
:3C3FFC00000000000000000000000000000000000000000000000000000000000000000000000000000000000000000000000000000000000000000000001EFE6D
:3C403800000000000000000000000000000000000000000000000000000000000000000000000000000000000000000000000000000000000000000000001EFE30
:3C407400000000000000000000000000000000000000000000000000000000000000000000000000000000000000000000000000000000000000000000001EFEF4
:3C40B000020000000000000000000000000000000000000000000000000000000000000000000000000000000000000000000000000000000000000000002FFFA4
:3C40EC00020000000000000000000000000000000000000000000000000000000000000000000000000000000000000000000000000000000000000000002FFF68
:3C412800000000000000000000000000000000000000000000000000000000000000000000000000000000000000000000000000000000000000000000001EFE3F
:3C416400020000000000000000000000000000000000000000000000000000000000000000000000000000000000000000000000000000000000000000002FFFEF
:3C41A000020000000000000000000000000000000000000000000000000000000000000000000000000000000000000000000000000000000000000000002FFFB3
:3C41DC00000000000000000000000000000000000000000000000000000000000000000000000000000000000000000000000000000000000000000000001EFE8B
:3C421800000000000000000000000000000000000000000000000000000000000000000000000000000000000000000000000000000000000000000000001EFE4E
:3C425400000000000000000000000000000000000000000000000000000000000000000000000000000000000000000000000000000000000000000000001EFE12
:3C429000020000000000000000000000000000000000000000000000000000000000000000000000000000000000000000000000000000000000000000002FFFC2
:3C42CC00020000000000000000000000000000000000000000000000000000000000000000000000000000000000000000000000000000000000000000002FFF86
:3C430800000000000000000000000000000000000000000000000000000000000000000000000000000000000000000000000000000000000000000000001EFE5D
:3C434400020000000000000000000000000000000000000000000000000000000000000000000000000000000000000000000000000000000000000000002FFF0D
:3C438000020000000000000000000000000000000000000000000000000000000000000000000000000000000000000000000000000000000000000000002FFFD1
:3C43BC00000000000000000000000000000000000000000000000000000000000000000000000000000000000000000000000000000000000000000000001EFEA9
:3C43F800000000000000000000000000000000000000000000000000000000000000000000000000000000000000000000000000000000000000000000001EFE6D
:3C443400000000000000000000000000000000000000000000000000000000000000000000000000000000000000000000000000000000000000000000001EFE30
:3C447000020000000000000000000000000000000000000000000000000000000000000000000000000000000000000000000000000000000000000000002FFFE0
:3C44AC00020000000000000000000000000000000000000000000000000000000000000000000000000000000000000000000000000000000000000000002FFFA4
:3C44E800000000000000000000000000000000000000000000000000000000000000000000000000000000000000000000000000000000000000000000001EFE7C
:3C452400020000000000000000000000000000000000000000000000000000000000000000000000000000000000000000000000000000000000000000002FFF2B
:3C456000020000000000000000000000000000000000000000000000000000000000000000000000000000000000000000000000000000000000000000002FFFEF
:3C459C00000000000000000000000000000000000000000000000000000000000000000000000000000000000000000000000000000000000000000000001EFEC7
:3C45D800000000000000000000000000000000000000000000000000000000000000000000000000000000000000000000000000000000000000000000001EFE8B
:3C461400000000000000000000000000000000000000000000000000000000000000000000000000000000000000000000000000000000000000000000001EFE4E
:3C465000020000000000000000000000000000000000000000000000000000000000000000000000000000000000000000000000000000000000000000002FFFFE
:3C468C00020000000000000000000000000000000000000000000000000000000000000000000000000000000000000000000000000000000000000000002FFFC2
:3C46C800000000000000000000000000000000000000000000000000000000000000000000000000000000000000000000000000000000000000000000001EFE9A
:3C470400020000000000000000000000000000000000000000000000000000000000000000000000000000000000000000000000000000000000000000002FFF49
:3C474000020000000000000000000000000000000000000000000000000000000000000000000000000000000000000000000000000000000000000000002FFF0D
:3C477C00000000000000000000000000000000000000000000000000000000000000000000000000000000000000000000000000000000000000000000001EFEE5
:3C47B800000000000000000000000000000000000000000000000000000000000000000000000000000000000000000000000000000000000000000000001EFEA9
:3C47F400000000000000000000000000000000000000000000000000000000000000000000000000000000000000000000000000000000000000000000001EFE6D
:3C483000020000000000000000000000000000000000000000000000000000000000000000000000000000000000000000000000000000000000000000002FFF1C
:3C486C00020000000000000000000000000000000000000000000000000000000000000000000000000000000000000000000000000000000000000000002FFFE0
:3C48A800000000000000000000000000000000000000000000000000000000000000000000000000000000000000000000000000000000000000000000001EFEB8
:3C48E400020000000000000000000000000000000000000000000000000000000000000000000000000000000000000000000000000000000000000000002FFF68
:3C492000020000000000000000000000000000000000000000000000000000000000000000000000000000000000000000000000000000000000000000002FFF2B
:3C495C00020000000000000000000000000000000000000000000000000000000000000000000000000000000000000000000000000000000000000000002FFFEF
:3C499800000000000000000000000000000000000000000000000000000000000000000000000000000000000000000000000000000000000000000000001EFEC7
:3C49D400000000000000000000000000000000000000000000000000000000000000000000000000000000000000000000000000000000000000000000001EFE8B
:3C4A1000000000000000000000000000000000000000000000000000000000000000000000000000000000000000000000000000000000000000000000001EFE4E
:3C4A4C00000000000000000000000000000000000000000000000000000000000000000000000000000000000000000000000000000000000000000000001EFE12
:3C4A8800008000800080008000800080008000800080008000800080008000800080008000800080008000800080008000800080008000800080008000009EFE56
:3C4AC400000000000000000000000000000000000000000000000000000000000000000000000000000000000000000000000000000000000000000000001EFE9A
:3C4B0000000000000000000000000000000000000000000000000000000000000000000000000000000000000000000000000000000000000000000000001EFE5D
:3C4B3C00000000000000000000000000000000000000000000000000000000000000000000000000000000000000000000000000000000000000000000001EFE21
:3C4B7800000000000000000000000000000000000000000000000000000000000000000000000000000000000000000000000000000000000000000000001EFEE5
:3C4BB400000000000000000000000000000000000000000000000000000000000000000000000000000000000000000000000000000000000000000000001EFEA9
:3C4BF000000000000000000000000000000000000000000000000000000000000000000000000000000000000000000000000000000000000000000000001EFE6D
:3C4C2C00000000000000000000000000000000000000000000000000000000000000000000000000000000000000000000000000000000000000000000001EFE30
:3C4C6800000000000000000000000000000000000000000000000000000000000000000000000000000000000000000000000000000000000000000000001EFEF4
:3C4CA400000000000000000000000000000000000000000000000000000000000000000000000000000000000000000000000000000000000000000000001EFEB8
:3C4CE000000000000000000000000000000000000000000000000000000000000000000000000000000000000000000000000000000000000000000000001EFE7C
:3C4D1C00000000000000000000000000000000000000000000000000000000000000000000000000000000000000000000000000000000000000000000001EFE3F
:3C4D5800000000000000000000000000000000000000000000000000000000000000000000000000000000000000000000000000000000000000000000001EFE03
:3C4D9400000000000000000000000000000000000000000000000000000000000000000000000000000000000000000000000000000000000000000000001EFEC7
:3C4DD000000000000000000000000000000000000000000000000000000000000000000000000000000000000000000000000000000000000000000000001EFE8B
:3C4E0C00000000000000000000000000000000000000000000000000000000000000000000000000000000000000000000000000000000000000000000001EFE4E
:3C4E4800000000000000000000000000000000000000000000000000000000000000000000000000000000000000000000000000000000000000000000001EFE12
:3C4E8400000000000000000000000000000000000000000000000000000000000000000000000000000000000000000000000000000000000000000000001EFED6
:3C4EC000000000000000000000000000000000000000000000000000000000000000000000000000000000000000000000000000000000000000000000001EFE9A
:3C4EFC00000000000000000000000000000000000000000000000000000000000000000000000000000000000000000000000000000000000000000000001EFE5E
:3C4F3800000000000000000000000000000000000000000000000000000000000000000000000000000000000000000000000000000000000000000000001EFE21
:3C4F7400000000000000000000000000000000000000000000000000000000000000000000000000000000000000000000000000000000000000000000001EFEE5
:3C4FB000000000000000000000000000000000000000000000000000000000000000000000000000000000000000000000000000000000000000000000001EFEA9
:3C4FEC00000000000000000000000000000000000000000000000000000000000000000000000000000000000000000000000000000000000000000000001EFE6D
:3C502800000000000000000000000000000000000000000000000000000000000000000000000000000000000000000000000000000000000000000000001EFE30
:3C506400000000000000000000000000000000000000000000000000000000000000000000000000000000000000000000000000000000000000000000001EFEF4
:3C50A000000000000000000000000000000000000000000000000000000000000000000000000000000000000000000000000000000000000000000000001EFEB8
:3C50DC00000000000000000000000000000000000000000000000000000000000000000000000000000000000000000000000000000000000000000000001EFE7C
:3C511800000000000000000000000000000000000000000000000000000000000000000000000000000000000000000000000000000000000000000000001EFE3F
:3C515400000000000000000000000000000000000000000000000000000000000000000000000000000000000000000000000000000000000000000000001EFE03
:3C519000000000000000000000000000000000000000000000000000000000000000000000000000000000000000000000000000000000000000000000001EFEC7
:3C51CC00000000000000000000000000000000000000000000000000000000000000000000000000000000000000000000000000000000000000000000001EFE8B
:3C520800000000000000000000000000000000000000000000000000000000000000000000000000000000000000000000000000000000000000000000001EFE4E
:3C524400000000000000000000000000000000000000000000000000000000000000000000000000000000000000000000000000000000000000000000001EFE12
:3C528000000000000000000000000000000000000000000000000000000000000000000000000000000000000000000000000000000000000000000000001EFED6
:3C52BC00000000000000000000000000000000000000000000000000000000000000000000000000000000000000000000000000000000000000000000001EFE9A
:3C52F800000000000000000000000000000000000000000000000000000000000000000000000000000000000000000000000000000000000000000000001EFE5E
:3C533400000000000000000000000000000000000000000000000000000000000000000000000000000000000000000000000000000000000000000000001EFE21
:3C537000000000000000000000000000000000000000000000000000000000000000000000000000000000000000000000000000000000000000000000001EFEE5
:3C53AC00000000000000000000000000000000000000000000000000000000000000000000000000000000000000000000000000000000000000000000001EFEA9
:3C53E800000000000000000000000000000000000000000000000000000000000000000000000000000000000000000000000000000000000000000000001EFE6D
:3C542400000000000000000000000000000000000000000000000000000000000000000000000000000000000000000000000000000000000000000000001EFE30
:3C546000020000000000000000000000000000000000000000000000000000000000000000000000000000000000000000000000000000000000000000002FFFE0
:3C549C00020000000000000000000000000000000000000000000000000000000000000000000000000000000000000000000000000000000000000000002FFFA4
:3C54D800000000000000000000000000000000000000000000000000000000000000000000000000000000000000000000000000000000000000000000001EFE7C
:3C551400020000000000000000000000000000000000000000000000000000000000000000000000000000000000000000000000000000000000000000002FFF2B
:3C555000020000000000000000000000000000000000000000000000000000000000000000000000000000000000000000000000000000000000000000002FFFEF
:3C558C00000000000000000000000000000000000000000000000000000000000000000000000000000000000000000000000000000000000000000000001EFEC7
:3C55C800000000000000000000000000000000000000000000000000000000000000000000000000000000000000000000000000000000000000000000001EFE8B
:3C560400000000000000000000000000000000000000000000000000000000000000000000000000000000000000000000000000000000000000000000001EFE4E
:3C564000020000000000000000000000000000000000000000000000000000000000000000000000000000000000000000000000000000000000000000002FFFFE
:3C567C00020000000000000000000000000000000000000000000000000000000000000000000000000000000000000000000000000000000000000000002FFFC2
:3C56B800000000000000000000000000000000000000000000000000000000000000000000000000000000000000000000000000000000000000000000001EFE9A
:3C56F400020000000000000000000000000000000000000000000000000000000000000000000000000000000000000000000000000000000000000000002FFF4A
:3C573000020000000000000000000000000000000000000000000000000000000000000000000000000000000000000000000000000000000000000000002FFF0D
:3C576C00000000000000000000000000000000000000000000000000000000000000000000000000000000000000000000000000000000000000000000001EFEE5
:3C57A800000000000000000000000000000000000000000000000000000000000000000000000000000000000000000000000000000000000000000000001EFEA9
:3C57E400000000000000000000000000000000000000000000000000000000000000000000000000000000000000000000000000000000000000000000001EFE6D
:3C582000020000000000000000000000000000000000000000000000000000000000000000000000000000000000000000000000000000000000000000002FFF1C
:3C585C00020000000000000000000000000000000000000000000000000000000000000000000000000000000000000000000000000000000000000000002FFFE0
:3C589800000000000000000000000000000000000000000000000000000000000000000000000000000000000000000000000000000000000000000000001EFEB8
:3C58D400020000000000000000000000000000000000000000000000000000000000000000000000000000000000000000000000000000000000000000002FFF68
:3C591000020000000000000000000000000000000000000000000000000000000000000000000000000000000000000000000000000000000000000000002FFF2B
:3C594C00000000000000000000000000000000000000000000000000000000000000000000000000000000000000000000000000000000000000000000001EFE03
:3C598800000000000000000000000000000000000000000000000000000000000000000000000000000000000000000000000000000000000000000000001EFEC7
:3C59C400000000000000000000000000000000000000000000000000000000000000000000000000000000000000000000000000000000000000000000001EFE8B
:3C5A0000020000000000000000000000000000000000000000000000000000000000000000000000000000000000000000000000000000000000000000002FFF3A
:3C5A3C00020000000000000000000000000000000000000000000000000000000000000000000000000000000000000000000000000000000000000000002FFFFE
:3C5A7800000000000000000000000000000000000000000000000000000000000000000000000000000000000000000000000000000000000000000000001EFED6
:3C5AB400020000000000000000000000000000000000000000000000000000000000000000000000000000000000000000000000000000000000000000002FFF86
:3C5AF000020000000000000000000000000000000000000000000000000000000000000000000000000000000000000000000000000000000000000000002FFF4A
:3C5B2C00000000000000000000000000000000000000000000000000000000000000000000000000000000000000000000000000000000000000000000001EFE21
:3C5B68000000000000000000000000000000000000000000000000000000008000000000000000000000000000000000000000000000000000000000000096FEED
:3C5BA400000000000000000000000000000000000000000000000000000000000000000000000000000000000000000000000000000000000000000000001EFEA9
:3C5BE000020000000000000000000000000000000000000000000000000000000000000000000000000000000000000000000000000000000000000000002FFF59
:3C5C1C00020000000000000000000000000000000000000000000000000000000000000000000000000000000000000000000000000000000000000000002FFF1C
:3C5C5800000000000000000000000000000000000000000000000000000000000000000000000000000000000000000000000000000000000000000000001EFEF4
:3C5C9400020000000000000000000000000000000000000000000000000000000000000000000000000000000000000000000000000000000000000000002FFFA4
:3C5CD00002000000000000000000000000000000000000000000000000000080000000000000000000000000000000000000000000000000000000000000A7FF70
:3C5D0C00000000000000000000000000000000000000000000000000000000000000000000000000000000000000000000000000000000000000000000001EFE3F
:3C5D4800000000000000000000000000000000000000000000000000000000000000000000000000000000000000000000000000000000000000000000001EFE03
:3C5D8400000000000000000000000000000000000000000000000000000000000000000000000000000000000000000000000000000000000000000000001EFEC7
:3C5DC000020000000000000000000000000000000000000000000000000000000000000000000000000000000000000000000000000000000000000000002FFF77
:3C5DFC00020000000000000000000000000000000000000000000000000000000000000000000000000000000000000000000000000000000000000000002FFF3B
:3C5E3800000000000000000000000000000000000000000000000000000000000000000000000000000000000000000000000000000000000000000000001EFE12
:3C5E7400020000000000000000000000000000000000000000000000000000000000000000000000000000000000000000000000000000000000000000002FFFC2
:3C5EB000020000000000000000000000000000000000000000000000000000000000000000000000000000000000000000000000000000000000000000002FFF86
:3C5EEC00000000000000000000000000000000000000000000000000000000000000000000000000000000000000000000000000000000000000000000001EFE5E
:3C5F2800000000000000000000000000000000000000000000000000000000000000000000000000000000000000000000000000000000000000000000001EFE21
:3C5F6400000000000000000000000000000000000000000000000000000000000000000000000000000000000000000000000000000000000000000000001EFEE5
:3C5FA000020000000000000000000000000000000000000000000000000000000000000000000000000000000000000000000000000000000000000000002FFF95
:3C5FDC00020000000000000000000000000000000000000000000000000000000000000000000000000000000000000000000000000000000000000000002FFF59
:3C601800000000000000000000000000000000000000000000000000000000000000000000000000000000000000000000000000000000000000000000001EFE30
:3C605400020000000000000000000000000000000000000000000000000000000000000000000000000000000000000000000000000000000000000000002FFFE0
:3C609000020000000000000000000000000000000000000000000000000000000000000000000000000000000000000000000000000000000000000000002FFFA4
:3C60CC00000000000000000000000000000000000000000000000000000000000000000000000000000000000000000000000000000000000000000000001EFE7C
:3C610800000000000000000000000000000000000000000000000000000000000000000000000000000000000000000000000000000000000000000000001EFE3F
:3C614400000000000000000000000000000000000000000000000000000000000000000000000000000000000000000000000000000000000000000000001EFE03
:3C618000020000000000000000000000000000000000000000000000000000000000000000000000000000000000000000000000000000000000000000002FFFB3
:3C61BC00020000000000000000000000000000000000000000000000000000000000000000000000000000000000000000000000000000000000000000002FFF77
:3C61F800000000000000000000000000000000000000000000000000000000000000000000000000000000000000000000000000000000000000000000001EFE4F
:3C623400020000000000000000000000000000000000000000000000000000000000000000000000000000000000000000000000000000000000000000002FFFFE
:3C627000020000000000000000000000000000000000000000000000000000000000000000000000000000000000000000000000000000000000000000002FFFC2
:3C62AC00020000000000000000000000000000000000000000000000000000000000000000000000000000000000000000000000000000000000000000003EFE78
:3C62E800000000000000000000000000000000000000000000000000000000000000000000000000000000000000000000000000000000000000000000001EFE5E
:3C632400000000000000000000000000000000000000000000000000000000000000000000000000000000000000000000000000000000000000000000001EFE21
:3C636000020000000000000000000000000000000000000000000000000000000000000000000000000000000000000000000000000000000000000000002FFFD1
:3C639C00120000000000000000000000000000000000000000000000000000000000000000000000000000000000000000000000000000000000000000002FFE86
:3C63D800020000000000000000000000000000000000000000000000000000000000000000000000000000000000000000000000000000000000000000003EFE4B
:3C641400020000000000000000000000000000000000000000000000000000000000000000000000000000000000000000000000000000000000000000002FFF1C
:3C645000020400000000000000000000000000000000000000000000000000000000000000000000000000000000000000000000000000000000000000002BFFE0
:3C648C00000000000000000000000000000000000000000000000000000000000000000000000000000000000000000000000000000000000000000000001EFEB8
:3C64C800000000000000000000000000000000000000000000000000000000000000000000000000000000000000000000000000000000000000000000001EFE7C
:3C650400000000000000000000000000000000000000000000000000000000000000000000000000000000000000000000000000000000000000000000001EFE3F
:3C654000020000000000000000000000000000000000000000000000000000000000000000000000000000000000000000000000000000000000000000002FFFEF
:3C657C00020000000000000000000000000000000000000000000000000000000000000000000000000000000000000000000000000000000000000000002FFFB3
:3C65B800008000800080008000800080008000800080008000800080008000800080008000800080008000800080008000800080008000800080008000009EFE0B
:3C65F400020000000000000000000000000000000000000000000000000000000000000000000000000000000000000000000000000000000000000000002FFF3B
:3C663000020000000000000000000000000000000000000000000000000000000000000000000000000000000000000000000000000000000000000000002FFFFE
:3C666C00000000000000000000000000000000000000000000000000000000000000000000000000000000000000000000000000000000000000000000001EFED6
:3C66A800000000000000000000000000000000000000000000000000000000000000000000000000000000000000000000000000000000000000000000001EFE9A
:3C66E400000000000000000000000000000000000000000000000000000000000000000000000000000000000000000000000000000000000000000000001EFE5E
:3C672000000000000000000000000000000000000000000000000000000000000000000000000000000000000000000000000000000000000000000000001EFE21
:3C675C00000000000000000000000000000000000000000000000000000000000000000000000000000000000000000000000000000000000000000000001EFEE5
:3C679800000000000000000000000000000000000000000000000000000000000000000000000000000000000000000000000000000000000000000000001EFEA9
:3C67D400000000000000000000000000000000000000000000000000000000000000000000000000000000000000000000000000000000000000000000001EFE6D
:3C681000000000000000000000000000000000000000000000000000000000000000000000000000000000000000000000000000000000000000000000001EFE30
:3C684C00000000000000000000000000000000000000000000000000000000000000000000000000000000000000000000000000000000000000000000001EFEF4
:3C688800000000000000000000000000000000000000000000000000000000000000000000000000000000000000000000000000000000000000000000001EFEB8
:3C68C400000000000000000000000000000000000000000000000000000000000000000000000000000000000000000000000000000000000000000000001EFE7C
:3C69000000200000000000000000000000000000000000000000000000000080000000000000000000000000000000000000000000000000000000000000B6FE07
:3C693C00000000000000000000000000000000000000000000000000000000000000000000000000000000000000000000000000000000000000000000001EFE03
:3C697800000000000000000000000000000000000000000000000000000000000000000000000000000000000000000000000000000000000000000000001EFEC7
:3C69B400000000000000000000000000000000000000000000000000000000000000000000000000000000000000000000000000000000000000000000001EFE8B
:3C69F000000000000000000000000000000000000000000000000000000000000000000000000000000000000000000000000000000000000000000000001EFE4F
:3C6A2C00000000000000000000000000000000000000000000000000000000000000000000000000000000000000000000000000000000000000000000001EFE12
:3C6A6800000000000000000000000000000000000000000000000000000000000000000000000000000000000000000000000000000000000000000000001EFED6
:3C6AA400000000000000000000000000000000000000000000000000000000000000000000000000000000000000000000000000000000000000000000001EFE9A
:3C6AE000000000000000000000000000000000000000000000000000000000000000000000000000000000000000000000000000000000000000000000001EFE5E
:3C6B1C00000000000000000000000000000000000000000000000000000000000000000000000000000000000000000000000000000000000000000000001EFE21
:3C6B5800000000000000000000000000000000000000000000000000000000000000000000000000000000000000000000000000000000000000000000001EFEE5
:3C6B9400000000000000000000000000000000000000000000000000000000000000000000000000000000000000000000000000000000000000000000001EFEA9
:3C6BD000000000000000000000000000000000000000000000000000000000000000000000000000000000000000000000000000000000000000000000001EFE6D
:3C6C0C00000000000000000000000000000000000000000000000000000000000000000000000000000000000000000000000000000000000000000000001EFE30
:3C6C4800000000000000000000000000000000000000000000000000000000000000000000000000000000000000000000000000000000000000000000001EFEF4
:3C6C8400000000000000000000000000000000000000000000000000000000000000000000000000000000000000000000000000000000000000000000001EFEB8
:3C6CC000000000000000000000000000000000000000000000000000000000000000000000000000000000000000000000000000000000000000000000001EFE7C
:3C6CFC00000000000000000000000000000000000000000000000000000000000000000000000000000000000000000000000000000000000000000000001EFE40
:3C6D3800000000000000000000000000000000000000000000000000000000000000000000000000000000000000000000000000000000000000000000001EFE03
:3C6D7400000000000000000000000000000000000000000000000000000000000000000000000000000000000000000000000000000000000000000000001EFEC7
:3C6DB000000000000000000000000000000000000000000000000000000000000000000000000000000000000000000000000000000000000000000000001EFE8B
:3C6DEC00000000000000000000000000000000000000000000000000000000000000000000000000000000000000000000000000000000000000000000001EFE4F
:3C6E2800000000000000000000000000000000000000000000000000000000000000000000000000000000000000000000000000000000000000000000001EFE12
:3C6E6400000000000000000000000000000000000000000000000000000000000000000000000000000000000000000000000000000000000000000000001EFED6
:3C6EA000000000000000000000000000000000000000000000000000000000000000000000000000000000000000000000000000000000000000000000001EFE9A
:3C6EDC00020000000000000000000000000000000000000000000000000000000000000000000000000000000000000000000000000000000000000000002FFF4A
:3C6F1800000000000000000000000000000000000000000000000000000000000000000000000000000000000000000000000000000000000000000000001EFE21
:3C6F5400000000000000000000000000000000000000000000000000000000000000000000000000000000000000000000000000000000000000000000001EFEE5
:3C6F9000000000000000000000000000000000000000000000000000000000000000000000000000000000000000000000000000000000000000000000001EFEA9
:3C6FCC00000000000000000000000000000000000000000000000000000000000000000000000000000000000000000000000000000000000000000000001EFE6D
:3C700800000000000000000000000000000000000000000000000000000000000000000000000000000000000000000000000000000000000000000000001EFE30
:3C704400000000000000000000000000000000000000000000000000000000000000000000000000000000000000000000000000000000000000000000001EFEF4
:3C708000000000000000000000000000000000000000000000000000000000000000000000000000000000000000000000000000000000000000000000001EFEB8
:3C70BC00000000000000000000000000000000000000000000000000000000000000000000000000000000000000000000000000000000000000000000001EFE7C
:3C70F800000000000000000000000000000000000000000000000000000000000000000000000000000000000000000000000000000000000000000000001EFE40
:3C713400000000000000000000000000000000000000000000000000000000000000000000000000000000000000000000000000000000000000000000001EFE03
