:020000040000FA
:2F000000FFFF627D14FFFFFFFFFFFFFFFFFFFFFFFFFFFFFFFFFFFFFFFFFFFFFFFFFFFFFFFFFFFFFFFFFFFFFFFFFFFFFFFFFFFF0A
:2F002F00000000000000000000000000000000000000000000000000000000000000000000000000000000000000000000009E04
:2F005E00000000000000000000000000000000000000000000000000000000000000000000000000000000000000000000009ED5
:2F008D00000000000000000000000000000000000000000000000000000000000000000000000000000000000000000000009EA6
:2F00BC00000002400240024002400240024002400240024002400240024002400240024002400240024002400240024000009E0D
:2F00EB00000002400240024002400240024002400240024002400240024002400240024002400240024002400240024000009EDE
:2F011A00000000000000000000000000000000000000000000000000000000000000000000000000000000000000000000009E18
:2F014900000002400240024002400240024002400240024002400240024002400240024002400240024002400240024000009E7F
:2F017800000002400240024002400240024002400240024002400240024002400240024002400240024002400240024000009E50
:2F01A700000000000000000000000000000000000000000000000000000000000000000000000000000000000000000000009E8B
:2F01D600000000000000000000000000000000000000000000000000000000000000000000000000000000000000000000009E5C
:2F020500000000000000000000000000000000000000000000000000000000000000000000000000000000000000000000009E2C
:2F02340002000000000000000000000000000000000000000000000000000000000000000000000000000000000000000040FA5F
:2F02630002000000000000000000000000000000000000000000000000000000000000000000000000000000000000000040FA30
:2F029200000000000000000000000000000000000000000000000000000000000000000000000000000000000000000000009E9F
:2F02C10002000000000000000000000000000000000000000000000000000000000000000000000000000000000000000040FAD2
:2F02F00002000000000000000000000000000000000000000000000000000000000000000000000000000000000000000040FAA3
:2F031F00000000000000000000000000000000000000000000000000000000000000000000000000000000000000000000009E11
:2F034E00000000000000000000000000000000000000000000000000000000000000000000000000000000000000000000009EE2
:2F037D00000000000000000000000000000000000000000000000000000000000000000000000000000000000000000000009EB3
:2F03AC0002000000000000000000000000000000000000000000000000000000000000000000000000000000000000000040FAE6
:2F03DB0002000000000000000000000000000000000000000000000000000000000000000000000000000000000000000040FAB7
:2F040A00000000000000000000000000000000000000000000000000000000000000000000000000000000000000000000009E25
:2F04390002000000000000000000000000000000000000000000000000000000000000000000000000000000000000000040FA58
:2F04680002000000000000000000000000000000000000000000000000000000000000000000000000000000000000000040FA29
:2F049700000000000000000000000000000000000000000000000000000000000000000000000000000000000000000000009E98
:2F04C600000000000000000000000000000000000000000000000000000000000000000000000000000000000000000000009E69
:2F04F500000000000000000000000000000000000000000000000000000000000000000000000000000000000000000000009E3A
:2F05240002000000000000000000000000000000000000000000000000000000000000000000000000000000000000000040FA6C
:2F05530002000000000000000000000000000000000000000000000000000000000000000000000000000000000000000040FA3D
:2F058200000000000000000000000000000000000000000000000000000000000000000000000000000000000000000000009EAC
:2F05B10002000000000000000000000000000000000000000000000000000000000000000000000000000000000000000040FADF
:2F05E00002000000000000000000000000000000000000000000000000000000000000000000000000000000000000000040FAB0
:2F060F00000000000000000000000000000000000000000000000000000000000000000000000000000000000000000000009E1E
:2F063E00000000000000000000000000000000000000000000000000000000000000000000000000000000000000000000009EEF
:2F066D00000000000000000000000000000000000000000000000000000000000000000000000000000000000000000000009EC0
:2F069C0002000000000000000000000000000000000000000000000000000000000000000000000000000000000000000040FAF3
:2F06CB0002000000000000000000000000000000000000000000000000000000000000000000000000000000000000000040FAC4
:2F06FA00000000000000000000000000000000000000000000000000000000000000000000000000000000000000000000009E33
:2F07290002000000000000000000000000000000000000000000000000000000000000000000000000000000000000000040FA65
:2F07580002000000000000000000000000000000000000000000000000000000000000000000000000000000000000000040FA36
:2F078700000000000000000000000000000000000000000000000000000000000000000000000000000000000000000000009EA5
:2F07B600000000000000000000000000000000000000000000000000000000000000000000000000000000000000000000009E76
:2F07E500000000000000000000000000000000000000000000000000000000000000000000000000000000000000000000009E47
:2F08140002000000000000000000000000000000000000000000000000000000000000000000000000000000000000000040FA79
:2F08430002000000000000000000000000000000000000000000000000000000000000000000000000000000000000000040FA4A
:2F087200000000000000000000000000000000000000000000000000000000000000000000000000000000000000000000009EB9
:2F08A10002000000000000000000000000000000000000000000000000000000000000000000000000000000000000000040FAEC
:2F08D00002000000000000000000000000000000000000000000000000000000000000000000000000000000000000000040FABD
:2F08FF00000000000000000000000000000000000000000000000000000000000000000000000000000000000000000000009E2C
:2F092E00000000000000000000000000000000000000000000000000000000000000000000000000000000000000000000009EFC
:2F095D00000000000000000000000000000000000000000000000000000000000000000000000000000000000000000000009ECD
:2F098C0002000000000000000000000000000000000000000000000000000000000000000000000000000000000000000040FA00
:2F09BB0002000000000000000000000000000000000000000000000000000000000000000000000000000000000000000040FAD1
:2F09EA00000000000000000000000000000000000000000000000000000000000000000000000000000000000000000000009E40
:2F0A190002000000000000000000000000000000000000000000000000000000000000000000000000000000000000000040FA72
:2F0A480002000000000000000000000000000000000000000000000000000000000000000000000000000000000000000040FA43
:2F0A7700000000000000000000000000000000000000000000000000000000000000000000000000000000000000000000009EB2
:2F0AA600000000000000000000000000000000000000000000000000000000000000000000000000000000000000000000009E83
:2F0AD500000000000000000000000000000000000000000000000000000000000000000000000000000000000000000000009E54
:2F0B040002000000000000000000000000000000000000000000000000000000000000000000000000000000000000000040FA86
:2F0B330002000000000000000000000000000000000000000000000000000000000000000000000000000000000000000040FA57
:2F0B6200000000000000000000000000000000000000000000000000000000000000000000000000000000000000000000009EC6
:2F0B910002000000000000000000000000000000000000000000000000000000000000000000000000000000000000000040FAF9
:2F0BC00002000000000000000000000000000000000000000000000000000000000000000000000000000000000000000040FACA
:2F0BEF00000000000000000000000000000000000000000000000000000000000000000000000000000000000000000000009E39
:2F0C1E00000000000000000000000000000000000000000000000000000000000000000000000000000000000000000000009E09
:2F0C4D00000000000000000000000000000000000000000000000000000000000000000000000000000000000000000000009EDA
:2F0C7C0002000000000000000000000000000000000000000000000000000000000000000000000000000000000000000040FA0D
:2F0CAB0002000000000000000000000000000000000000000000000000000000000000000000000000000000000000000040FADE
:2F0CDA00000000000000000000000000000000000000000000000000000000000000000000000000000000000000000000009E4D
:2F0D090002000000000000000000000000000000000000000000000000000000000000000000000000000000000000000040FA7F
:2F0D380002000000000000000000000000000000000000000000000000000000000000000000000000000000000000000040FA50
:2F0D6700000000000000000000000000000000000000000000000000000000000000000000000000000000000000000000009EBF
:2F0D9600000000000000000000000000000000000000000000000000000000000000000000000000000000000000000000009E90
:2F0DC500000000000000000000000000000000000000000000000000000000000000000000000000000000000000000000009E61
:2F0DF40002000000000000000000000000000000000000000000000000000000000000000000000000000000000000000040FA94
:2F0E230002000000000000000000000000000000000000000000000000000000000000000000000000000000000000000040FA64
:2F0E5200000000000000000000000000000000000000000000000000000000000000000000000000000000000000000000009ED3
:2F0E810002000000000000000000000000000000000000000000000000000000000000000000000000000000000000000040FA06
:2F0EB00002000000000000000000000000000000000000000000000000000000000000000000000000000000000000000040FAD7
:2F0EDF00000000000000000000000000000000000000000000000000000000000000000000000000000000000000000000009E46
:2F0F0E00000000000000000000000000000000000000000000000000000000000000000000000000000000000000000000009E16
:2F0F3D00000000000000000000000000000000000000000000000000000000000000000000000000000000000000000000009EE7
:2F0F6C0002000000000000000000000000000000000000000000000000000000000000000000000000000000000000000040FA1A
:2F0F9B0002000000000000000000000000000000000000000000000000000000000000000000000000000000000000000040FAEB
:2F0FCA0000400040004000400040004000400040004000400040004000400040004000400040004000400040004000400000DE9A
:2F0FF90002000000000000000000000000000000000000000000000000000000000000000000000000000000000000000040FA8D
:2F10280002000000000000000000000000000000000000000000000000000000000000000000000000000000000000000040FA5D
:2F105700000000000000000000000000000000000000000000000000000000000000000000000000000000000000000000009ECC
:2F10860000000000000000000000000000000000000000000000000000000000000000000000000000000000000000000040DA21
:2F10B500000000000000000000000000000000000000000000000000000000000000000000000000000000000000000000009E6E
:2F10E400000000000000000000000000000000000000000000000000000000000000000000000000000000000000000000009E3F
:2F111300000000000000000000000000000000000000000000000000000000000000000000000000000000000000000000009E0F
:2F114200000000000000000000000000000000000000000000000000000000000000000000000000000000000000000000009EE0
:2F117100000000000000000000000000000000000000000000000000000000000000000000000000000000000000000000009EB1
:2F11A000000000000000000000000000000000000000000000000000000000000000000000000000000000000000000000009E82
:2F11CF00000000000000000000000000000000000000000000000000000000000000000000000000000000000000000000009E53
:2F11FE00000000000000000000000000000000000000000000000000000000000000000000000000000000000000000000009E24
:2F122D00000000000000000000000000000000000000000000000000000000000000000000000000000000000000000000009EF4
:2F125C00000000000000000000000000000000000000000000000000000000000000000000000000000000000000000000009EC5
:2F128B00000000000000000000000000000000000000000000000000000000000000000000000000000000000000000000009E96
:2F12BA00000000000000000000000000000000000000000000000000000000000000000000000000000000000000000000009E67
:2F12E900000000000000000000000000000000000000000000000000000000000000000000000000000000000000000000009E38
:2F131800000000000000000000000000000000000000000000000000000000000000000000000000000000000000000000009E08
:2F134700000000000000000000000000000000000000000000000000000000000000000000000000000000000000000000009ED9
:2F137600000000000000000000000000000000000000000000000000000000000000000000000000000000000000000000009EAA
:2F13A500000000000000000000000000000000000000000000000000000000000000000000000000000000000000000000009E7B
:2F13D400000000000000000000000000000000000000000000000000000000000000000000000000000000000000000000009E4C
:2F140300000000000000000000000000000000000000000000000000000000000000000000000000000000000000000000009E1C
:2F143200000000000000000000000000000000000000000000000000000000000000000000000000000000000000000000009EED
:2F146100000000000000000000000000000000000000000000000000000000000000000000000000000000000000000000009EBE
:2F149000000000000000000000000000000000000000000000000000000000000000000000000000000000000000000000009E8F
:2F14BF00000000000000000000000000000000000000000000000000000000000000000000000000000000000000000000009E60
:2F14EE00000000000000000000000000000000000000000000000000000000000000000000000000000000000000000000009E31
:2F151D00000000000000000000000000000000000000000000000000000000000000000000000000000000000000000000009E01
:2F154C00000000000000000000000000000000000000000000000000000000000000000000000000000000000000000000009ED2
:2F157B00000000000000000000000000000000000000000000000000000000000000000000000000000000000000000000009EA3
:2F15AA00000000000000000000000000000000000000000000000000000000000000000000000000000000000000000000009E74
:2F15D900000000000000000000000000000000000000000000000000000000000000000000000000000000000000000000009E45
:2F160800000000000000000000000000000000000000000000000000000000000000000000000000000000000000000000009E15
:2F163700000000000000000000000000000000000000000000000000000000000000000000000000000000000000000000009EE6
:2F166600000000000000000000000000000000000000000000000000000000000000000000000000000000000000000000009EB7
:2F169500000000000000000000000000000000000000000000000000000000000000000000000000000000000000000000009E88
:2F16C40002000000000000000000000000000000000000000000000000000000000000000000000000000000000000000040FABB
:2F16F30002000000000000000000000000000000000000000000000000000000000000000000000000000000000000000040FA8C
:2F172200000000000000000000000000000000000000000000000000000000000000000000000000000000000000000000009EFA
:2F17510002000000000000000000000000000000000000000000000000000000000000000000000000000000000000000040FA2D
:2F17800002000000000000000000000000000000000000000000000000000000000000000000000000000000000000000040FAFE
:2F17AF00000000000000000000000000000000000000000000000000000000000000000000000000000000000000000000009E6D
:2F17DE00000000000000000000000000000000000000000000000000000000000000000000000000000000000000000000009E3E
:2F180D00000000000000000000000000000000000000000000000000000000000000000000000000000000000000000000009E0E
:2F183C0002000000000000000000000000000000000000000000000000000000000000000000000000000000000000000040FA41
:2F186B0002000000000000000000000000000000000000000000000000000000000000000000000000000000000000000040FA12
:2F189A00000000000000000000000000000000000000000000000000000000000000000000000000000000000000000000009E81
:2F18C90002000000000000000000000000000000000000000000000000000000000000000000000000000000000000000040FAB4
:2F18F80002000000000000000000000000000000000000000000000000000000000000000000000000000000000000000040FA85
:2F192700000000000000000000000000000000000000000000000000000000000000000000000000000000000000000000009EF3
:2F195600000000000000000000000000000000000000000000000000000000000000000000000000000000000000000000009EC4
:2F198500000000000000000000000000000000000000000000000000000000000000000000000000000000000000000000009E95
:2F19B40002000000000000000000000000000000000000000000000000000000000000000000000000000000000000000040FAC8
:2F19E30002000000000000000000000000000000000000000000000000000000000000000000000000000000000000000040FA99
:2F1A1200000000000000000000000000000000000000000000000000000000000000000000000000000000000000000000009E07
:2F1A410002000000000000000000000000000000000000000000000000000000000000000000000000000000000000000040FA3A
:2F1A700002000000000000000000000000000000000000000000000000000000000000000000000000000000000000000040FA0B
:2F1A9F00000000000000000000000000000000000000000000000000000000000000000000000000000000000000000000009E7A
:2F1ACE00000000000000000000000000000000000000000000000000000000000000000000000000000000000000000000009E4B
:2F1AFD00000000000000000000000000000000000000000000000000000000000000000000000000000000000000000000009E1C
:2F1B2C0002000000000000000000000000000000000000000000000000000000000000000000000000000000000000000040FA4E
:2F1B5B0002000000000000000000000000000000000000000000000000000000000000000000000000000000000000000040FA1F
:2F1B8A00000000000000000000000000000000000000000000000000000000000000000000000000000000000000000000009E8E
:2F1BB90002000000000000000000000000000000000000000000000000000000000000000000000000000000000000000040FAC1
:2F1BE80002000000000000000000000000000000000000000000000000000000000000000000000000000000000000000040FA92
:2F1C1700000000000000000000000000000000000000000000000000000000000000000000000000000000000000000000009E00
:2F1C4600000000000000000000000000000000000000000000000000000000000000000000000000000000000000000000009ED1
:2F1C7500000000000000000000000000000000000000000000000000000000000000000000000000000000000000000000009EA2
:2F1CA40002000000000000000000000000000000000000000000000000000000000000000000000000000000000000000040FAD5
:2F1CD30002000000000000000000000000000000000000000000000000000000000000000000000000000000000000000040FAA6
:2F1D0200000000000000000000000000000000000000000000000000000000000000000000000000000000000000000000009E14
:2F1D310002000000000000000000000000000000000000000000000000000000000000000000000000000000000000000040FA47
:2F1D600002000000000000000000000000000000000000000000000000000000000000000000000000000000000000000040FA18
:2F1D8F00000000000000000000000000000000000000000000000000000000000000000000000000000000000000000000009E87
:2F1DBE00000000000000000000000000000000000000000000000000000000000000000000000000000000000000000000009E58
:2F1DED00000000000000000000000000000000000000000000000000000000000000000000000000000000000000000000009E29
:2F1E1C0002000000000000000000000000000000000000000000000000000000000000000000000000000000000000000040FA5B
:2F1E4B0002000000000000000000000000000000000000000000000000000000000000000000000000000000000000000040FA2C
:2F1E7A00000000000000000000000000000000000000000000000000000000000000000000000000000000000000000000009E9B
:2F1EA90002000000000000000000000000000000000000000000000000000000000000000000000000000000000000000040FACE
:2F1ED80002000000000000000000000000000000000000000000000000000000000000000000000000000000000000000040FA9F
:2F1F0700000000000000000000000000000000000000000000000000000000000000000000000000000000000000000000009E0D
:2F1F3600000000000000000000000000000000000000000000000000000000000000000000000000000000000000000000009EDE
:2F1F6500000000000000000000000000000000000000000000000000000000000000000000000000000000000000000000009EAF
:2F1F940002000000000000000000000000000000000000000000000000000000000000000000000000000000000000000040FAE2
:2F1FC30002000000000000000000000000000000000000000000000000000000000000000000000000000000000000000040FAB3
:2F1FF200000000000000000000000000000000000000000000000000000000000000000000000000000000000000000000009E22
:2F20210002000000000000000000000000000000000000000000000000000000000000000000000000000000000000000040FA54
:2F20500002000000000000000000000000000000000000000000000000000000000000000000000000000000000000000040FA25
:2F207F00000000000000000000000000000000000000000000000000000000000000000000000000000000000000000000009E94
:2F20AE00000000000000000000000000000000000000000000000000000000000000000000000000000000000000000000009E65
:2F20DD00000000000000000000000000000000000000000000000000000000000000000000000000000000000000000000009E36
:2F210C0002000000000000000000000000000000000000000000000000000000000000000000000000000000000000000040FA68
:2F213B0002000000000000000000000000000000000000000000000000000000000000000000000000000000000000000040FA39
:2F216A00000000000000000000000000000000000000000000000000000000000000000000000000000000000000000000009EA8
:2F21990002000000000000000000000000000000000000000000000000000000000000000000000000000000000000000040FADB
:2F21C80002000000000000000000000000000000000000000000000000000000000000000000000000000000000000000040FAAC
:2F21F700000000000000000000000000000000000000000000000000000000000000000000000000000000000000000000009E1B
:2F222600000000000000000000000000000000000000000000000000000000000000000000000000000000000000000000009EEB
:2F225500000000000000000000000000000000000000000000000000000000000000000000000000000000000000000000009EBC
:2F22840002000000000000000000000000000000000000000000000000000000000000000000000000000000000000000040FAEF
:2F22B30002000000000000000000000000000000000000000000000000000000000000000000000000000000000000000040FAC0
:2F22E200000000000000000000000000000000000000000000000000000000000000000000000000000000000000000000009E2F
:2F23110002000000000000000000000000000000000000000000000000000000000000000000000000000000000000000040FA61
:2F23400002000000000000000000000000000000000000000000000000000000000000000000000000000000000000000040FA32
:2F236F00000000000000000000000000000000000000000000000000000000000000000000000000000000000000000000009EA1
:2F239E00000000000000000000000000000000000000000000000000000000000000000000000000000000000000000000009E72
:2F23CD00000000000000000000000000000000000000000000000000000000000000000000000000000000000000000000009E43
:2F23FC0002000000000000000000000000000000000000000000000000000000000000000000000000000000000000000040FA76
:2F242B0002000000000000000000000000000000000000000000000000000000000000000000000000000000000000000040FA46
:2F245A0000400040004000400040004000400040004000400040004000400040004000400040004000400040004000400000DEF5
:2F24890002000000000000000000000000000000000000000000000000000000000000000000000000000000000000000040FAE8
:2F24B80002000000000000000000000000000000000000000000000000000000000000000000000000000000000000000040FAB9
:2F24E700000000000000000000000000000000000000000000000000000000000000000000000000000000000000000000009E28
:2F25160000000000000000000000000000000000000000000000000000000000000000000000000000000000000000000040DA7C
:2F254500000000000000000000000000000000000000000000000000000000000000000000000000000000000000000000009EC9
:2F257400000000000000000000000000000000000000000000000000000000000000000000000000000000000000000000009E9A
:2F25A300000000000000000000000000000000000000000000000000000000000000000000000000000000000000000000009E6B
:2F25D200000000000000000000000000000000000000000000000000000000000000000000000000000000000000000000009E3C
:2F260100000000000000000000000000000000000000000000000000000000000000000000000000000000000000000000009E0C
:2F263000000000000000000000000000000000000000000000000000000000000000000000000000000000000000000000009EDD
:2F265F00000000000000000000000000000000000000000000000000000000000000000000000000000000000000000000009EAE
:2F268E00000000000000000000000000000000000000000000000000000000000000000000000000000000000000000000009E7F
:2F26BD00000000000000000000000000000000000000000000000000000000000000000000000000000000000000000000009E50
:2F26EC00000000000000000000000000000000000000000000000000000000000000000000000000000000000000000000009E21
:2F271B00000000000000000000000000000000000000000000000000000000000000000000000000000000000000000000009EF1
:2F274A00000000000000000000000000000000000000000000000000000000000000000000000000000000000000000000009EC2
:2F277900000000000000000000000000000000000000000000000000000000000000000000000000000000000000000000009E93
:2F27A800000000000000000000000000000000000000000000000000000000000000000000000000000000000000000000009E64
:2F27D700000000000000000000000000000000000000000000000000000000000000000000000000000000000000000000009E35
:2F280600000000000000000000000000000000000000000000000000000000000000000000000000000000000000000000009E05
:2F283500000000000000000000000000000000000000000000000000000000000000000000000000000000000000000000009ED6
:2F286400000000000000000000000000000000000000000000000000000000000000000000000000000000000000000000009EA7
:2F289300000000000000000000000000000000000000000000000000000000000000000000000000000000000000000000009E78
:2F28C200000000000000000000000000000000000000000000000000000000000000000000000000000000000000000000009E49
:2F28F100000000000000000000000000000000000000000000000000000000000000000000000000000000000000000000009E1A
:2F292000000000000000000000000000000000000000000000000000000000000000000000000000000000000000000000009EEA
:2F294F00000000000000000000000000000000000000000000000000000000000000000000000000000000000000000000009EBB
:2F297E00000000000000000000000000000000000000000000000000000000000000000000000000000000000000000000009E8C
:2F29AD00000000000000000000000000000000000000000000000000000000000000000000000000000000000000000000009E5D
:2F29DC00000000000000000000000000000000000000000000000000000000000000000000000000000000000000000000009E2E
:2F2A0B00000000000000000000000000000000000000000000000000000000000000000000000000000000000000000000009EFE
:2F2A3A00000000000000000000000000000000000000000000000000000000000000000000000000000000000000000000009ECF
:2F2A6900000000000000000000000000000000000000000000000000000000000000000000000000000000000000000000009EA0
:2F2A9800000000000000000000000000000000000000000000000000000000000000000000000000000000000000000000009E71
:2F2AC70000000000000000000000000000000000000000000000000000000000000000000000405003000000000000000040AF5E
:2F2AF60000000000000000000000000000000000000000000000000000000000000000000000000003000000000000000000AE00
:2F2B250000000000000000000000000000000000000000000000000000000000000000000000000003000000000000000000AED0
:2F2B540002000000000000000000000000000000000000000000000000000000000000000000004047000000000000000040CABF
:2F2B830002000000000000000000000000000000000000000000000000000000000000000000000001000000000000002050F9B7
:2F2BB20000000000000000000000000000000000000000000000000000000000000000000000000002000000000000000040FAB8
:2F2BE10002000000000000000000000000000000000000000000000000000000000000000000004000000000000000000040FE45
:2F2C1000020000000000000000000000000000000000000000000000000000000000000000000000480000000000000000C0B6D5
:2F2C3F00000000000000000000000000000000000000000000000000000000000000000000000048080000480500000000C09F6A
:2F2C6E00000000000000000000000000000000000000000000000000000000000000000000000000000000000000000000009E99
:2F2C9D00000000000000000000000000000000000000000000000000000000000000000000000000010000000000000000008E79
:2F2CCC00020000000000000000000000000000000000000000000000000000000000000000000050000400601000000000408D46
:2F2CFB0002000000000000000000000000000000000000000000000000000000000000000000800004000028080000000064F29E
:2F2D2A0000000000000000000000000000000000000000000000000000000000000000000000000000000000000000000040DA60
:2F2D590002000000000000000000000000000000000000000000000000000000000000000000004000000040000000000040BACF
:2F2D880002000000000000000000000000000000000000000000000000000000000000000000002010000000000400000040ADF9
:2F2DB70000000000000000000000000000000000000000000000000000000000000000000000004005000051090000000040C24C
:2F2DE600000000000000000000000000000000000000000000000000000000000000000000000000010000000000000000008E2F
:2F2E1500000000000000000000000000000000000000000000000000000000000000000000000000000000000000000000009EF0
:2F2E44000200000000000000000000000000000000000000000000000000000000000000000000402000004010000000004088E5
:2F2E730002000000000000000000000000000000000000000000000000000000000000000000000004008000000000008040BA30
:2F2EA20000000000000000000000000000000000000000000000000000000000000000000000000000000000000000000040DAE7
:2F2ED100020000000000000000000000000000000000000000000000000000000000000000000040020000400000000000409A74
:2F2F000002000000000000000000000000000000000000000000000000000000000000000000000041000020040100000060BB1F
:2F2F2F00000000000000000000000000000000000044030000680800000000000000000000000044030040400000000000C0FC39
:2F2F5E0000000000000000000000000000000000000003000000000000000000000000000000000000000000000000000000AE93
:2F2F8D0000000000000000000000000000000000000000000040020000000000000000000000000003000000030000000000EBE2
:2F2FBC00020000000000000000000000000000000060040200400202000000000000000000000050480000501B00000000C0DD9A
:2F2FEB00020000000000000000000000000000000000000000400A00000000000000000000000018040040100300000040C0E715
:2F301A0000000000000000000000000000000000000000000000010000000000000000000000000003000000030000000040E858
:2F30490002000000000000000000000000000000004000000040000000000000000000000000004002000040000000000040DA3A
:2F307800020000000000000000000000000000000000000000001000000000000000000000000000130000004A0000000060A3B7
:2F30A700000000000000000000000000005408000052000000580864030000000000406001000048030000620300000000C0CAAA
:2F30D60000000000000000000000000000000000000000000000000003000000000000000000000001000000030000000000BD07
:2F31050000000000000000000000000000400200004000000040024003000000000000000000000001000040000000000000DE75
:2F313400020000000000000000000000004001020040180000400142180000000000004004020060090400401800000000C08EDB
:2F316300020000000000000000000000004202000042080000440252000000000000400004000028080020400200000080C0D32C
:2F31920000000000000000000000000000000100000001000000010000000000000000000000000000000000000000000040DAF1
:2F31C10002000000000000000000000000400000004003000040004003000000000000400000004000000040010000000040FFD7
:2F31F000020000000000000000000000002018000010120000201800000000000000001020000000130000101700000000D0F5ED
:2F321F00000000000000000000000000000000000000000000000000000000000000000000000044010000000000000000408A71
:2F324E00000000000000000000000000000000000000000000000000000000000000000000000000000000000000000000009EB3
:2F327D00000000000000000000000000000000000000000000000000000000000000000000000000000000000000000000009E84
:2F32AC0002000000000000000000000000000000000000000000000000000000000000000000005024000000000000000000D9A4
:2F32DB0002000000000000000000000000000000000000000000000000000000000000000000400000000000000000000040BA88
:2F330A0000000000000000000000000000000000000000000000000000000000000000000000000000000000000000000040DA7A
:2F33390002000000000000000000000000000000000000000000000000000000000000000000004001000000000000000000AA78
:2F33680002000000000000000000000000000000000000000000000000000000000000000000001004020000000000000000FD21
:2F339700020000000000000000000000000000000000000000680B00000000000000000000004060020000000000000000C0F937
:2F33C60000000000000000000000000000000000000000000000030000000000000000000000000002000000000000000000BD16
:2F33F500000000000000000000000000000000000000000000000000000000000000000000000000000000000000000000009E0B
:2F34240002000000000000000000000000000000000000000040100000000000000000000000004044000000000000000000EAB9
:2F34530002000000000000000000000000000000000000000000000000000000000000000000000000000000000000000040FA0E
:2F34820002000000000000000000000000000000000000000000000000000000000000000000000000000000000000000040FADF
:2F34B10002000000000000000000000000000000000000000040000000000000000000000000004000000000000000000000FE6C
:2F34E0000A020000000000000000000000000000000000000000000000000000000000000000000048000000000000000000F871
:2F350F0002000000000000000000000000000000000000004060070000008040000000000000005401000042040000000000A6E3
:2F353E00000000000000000000000000000000000000000000000000000000000000000000000000000000000000000000009EC0
:2F356D00000000000000000000000000000000000000000000000000000000000000000000000000000000000000000000009E91
:2F359C00020000000000000000000000000000000000000000400002000000600501000000000040480000602000000000C0E0AE
:2F35CB000A000000000000000000000000000000000000002000000000000022000000000000400008000000050000000040BF39
:2F35FA0002000000000000000000000000000000000000000000000000000000000000000000000000000000020000000000BCE2
:2F362900020000000000000000000000000000000000008000400000000000400000000000000040000000400000000000C0B27E
:2F3658000204000000000000000000000000000000000040001000000000000008C200000000001000040000400000000040CCC3
:2F36870002000000000000002060000000000000004401000044010020600400000000440300804008008040000000000040F283
:2F36B600000000000000000000000300000000000000000000000000000000000000000001000000000000000000000000008C55
:2F36E50000000000000000000000000000000000000000000000000000000000000000400300000000000000000000000000ED86
:2F37140002000000000000000040080400000000006018000060180000402000000000600501006001040050000000000080F756
:2F37430002000000000000004020000000000000000200000028080040200100000080400200400000000002030000000040A873
:2F37720002000000000000000000030000000000000000000000000000000000000000000100000000000000000000000040E8FA
:2F37A10002000000000000000040000000000000004000800040000000400000000000400200004000000040030000000080D35F
:2F37D000060100000000000000000000000000C0001004420000100000000402000000208B000010040200100000000000008541
:2F37FF00020000000000000000000000000000000052000000440852070000000000004203004050030000480000006103C09CC2
:2F382E0000000000000000000000000000000000000000000000000003000000000000000300000000000000000000000300AEB4
:2F385D00000000000000000000000000000000000040000000400240000000000000000003000040000000000000004003009C58
:2F388C0000000000000000000000000000000000004004020060034280000000000000501900004014000060060100400404BB7B
:2F38BB0000000000000000000000000000000000004400000068084400000000000020200800005100000011080000520004F5E9
:2F38EA0000400040004000400040004000400040004003400040014003400040004000400040004001400040004000400000CF58
:2F391900000000000000000000000000000000800000030000000000000000000000000000000000000000000000000003809DDC
:2F39480000000000000000000000000000000040002000C0000010200300000000000000000400001B000000000400000020BDFD
:2F397700000000000000000000000000000000000000000000000000000000000000000000000000000000000000000000009E83
:2F39A600000000000000000000000000000800000008000000080008000000000000000800000008000000080000000800C0D220
:2F39D500000000000000000000000000000000000000000000000000000000000000000000000000000000000000000000009E25
:2F3A0400000000000000000000000000000000000000000000000000000000000000000000000000000000000000000000009EF5
:2F3A330000000000000000000000000000000000000200000000000000020000000000000000000008000000080000000084FECE
:2F3A6200000000000000000000000000000000000000000000000000000000000000000000000000000000000000000000009E97
:2F3A9100000000000000000000000000000000000000000000000000000000000000000000000000000000000000000000009E68
:2F3AC000000000000000000000000000000000000000000000000000000000000000000000000000000000000000000000009E39
:2F3AEF0000000000000000000000001000000000000000000000000000000000000000000000001100100001000000000006EF81
:2F3B1E00000000000000000000000000000000000000000000000000000000000000000000000000000000000000000000009EDA
:2F3B4D0000000000000000000000000000000000000000000000080000000004000000000004000000040004000000000040965B
:2F3B7C00000000000000000000000000000000000000000000000000000000000000000000000000000000000000000000009E7C
:2F3BAB00000000000000000000000000000000000000000000000000000100000000000000000040000000000000000000009B0F
:2F3BDA00000000000000000000000000000000000000000000000000000000000000000000000000000000000000000000009E1E
:2F3C0900000000000000000000000000000000000000000000000000800000000000000000000000000000000000000000809EEE
:2F3C380000000000000000000000000000000000000000000000000000002000000030010000000000000000000000008000A6E6
:2F3C670000000000000000000001000000080000000000080001000000000000000000000000200000000000000000000000BE3E
:2F3C960000200000000000000000000000000400002000000000000004000000002000200000080000000820000000000080B017
:2F3CC50000000000000000000200000000000000000000000001000002000010000000000200000202000000020000001000BEE5
:2F3CF40000080000000000000000000000000000000004000000044000000200000802000008200000002000000800002080FC59
:2F3D2300004000000000000000000000004000200021000000000020000000000000000000400001004000000040002200009E0F
:2F3D5200000000000000000000000000000000000000000000000000000000000000000000000000000000000000000000009EA4
:2F3D8100000000000000000000000000000000000000000000000000000000000000000000000000000000000000000000009E75
:2F3DB000000000000000000000000000000000000000000020000008000000080000000000000000000000080000000000809C90
:2F3DDF00000000000000000000000000000000000000000000000000000000000000000000000000000000000000000000009E17
:2F3E0E00000000000000000000000000000000000000000000000000000000000000000000000000000000000000000000009EE7
:2F3E3D0000000000000000000000000000000000000000000000000200000000000000004000000010000402080000000200E70D
:2F3E6C00000000000000000000000000000000000000000000000000000000000000000000000000000000000000000000009E89
:2F3E9B00000000000000000000000000000000000000000000000000000000000000000000000000000000000000000000009E5A
:2F3ECA00000000000000000000000000000000000000000000000000000000000000000000000000000000000000000000009E2B
:2F3EF90000000000000000000000000000000080000000000000000000000000000000000000000000000002000000000080BEDA
:2F3F280000000000000000001000000000000000020000801A00000010000000000014000000040010004800100000000080F7B7
:2F3F570002000000000000000000000000000000000000000000000000000000000000000000000040600000205000000040FBEE
:2F3F8600000000000000000000000000000000000000000000000000000000000000000000000000000000000000000000009E6E
:2F3FB50000000000000000000000000000000000000000000000000000000000000000000000000000000300004001000000B9E0
:2F3FE40000000000000000000000000000000000000000000000000000000000000000000000000000404400004049000080C65B
:2F40130000000000000000000000000000000000000000000000000000000000000000000000000000220000004808000000B05C
:2F40420000000000000000000000000000000000000000000000000000000000000000000000000000000000000003000000AE9E
:2F40710000000000000000000000000000000000000000000000000000000000000000000000000000400000004000000000DAC6
:2F40A000000000000000000000000000000000000000000000000000000000000000000000000000000000000010100000008E43
:2F40CF0000000000000000000000000000000000000000000000000000000000005400000000000000580B0000440700008084BC
:2F40FE00000000000000000000000000000000000000000000000000000000000000030000000000000001000000030000008FFD
:2F412D00000000000000000000000000000000000000000000000000000000000040000000000000000001000000000000008B97
:2F415C0002000000000000000000000000000000000000000000000000000000004014000000000000401100006000010040F8F4
:2F418B00020000000000000000000000000000000000000000000000000000000042080000000000800000000018000000C0D58C
:2F41BA00000000000000000000000000000000000000000000000000000000000000010000000000000000000000000000008E47
:2F41E900020000000000000000000000000000000000000000000000000000000040030000000000004000000040000000408A18
:2F421800020000000000000000000000000000000000000000000000000000000020120000000000001027000000030000409C2D
:2F42470000000000000000000000000000000000000000000000000000000000005404000000000000620300005204000000A98C
:2F42760000000000000000000000000000000000000000000000000000000000000003000000000000000100000000000000BF56
:2F42A50000000000000000000000000000000000000000000000000000000000004000000000000000000300000000000000A9FE
:2F42D400020000000000000000000000000000000000000000000000000000000040100000000000004018000040200000C08869
:2F43030002000000000000000000000000000000000000000000000000000000004200000000000000040400000002000040BC41
:2F43320000000000000000000000000000000000000000000000000000000000000001000000000000000300000001000000ADAA
:2F436100020000000000000000000000000000000000000000000000000000000040030000000000004000000040000000408A9E
:2F4390000200000000000000000000000000000000000000000000000000000000201A000000000000200304000028000040B87B
:2F43BF0000000000000000000000000000000000000000000000000000420800004805000000000000610800804008000080ED9A
:2F43EE00000000000000000000000000000000000000000000000000000000000000010000000000000000000000000000008E11
:2F441D0000000000000000000000000000000000000000000000000000400200000000000000000000000000000001000000EC41
:2F444C00020000000000000000000000000000000000000000000000006001040050100000000000004000040050800000C0DACC
:2F447B0002000000000000000000000000000000000000000000000000440A000000000000000000201008000022000000408E9A
:2F44AA00000000000000000000000000000000000000000000000000000001000000000000000000000000000000000000008F53
:2F44D900020000000000000000000000000000000000000000000000004002000040000000800000004001000040000000C0C9A6
:2F450800020000000000000000000000000000000000000000000000002011000000180000400000000000010000180000409E02
:2F4537000000000000000000000000000000000000000000000000002060010000410100004208002060020000520600000083EB
:2F45660000000000000000000000000000000000000000000000000000000000000000000000000000000000000002000000BE66
:2F45950000000000000000000000000000000000000000000000000000000000000000000040020000000000000000000000D8DD
:2F45C400020000000000000000000000000000000000000000000000004004080050440000600104004044000040200000C0F2EB
:2F45F300020000000000000000000000000000000000000000000000802008004000080000510200000800000000000000C0DDAF
:2F462200000000000000000000000000000000000000000000000000000000000000000000000100000000000000000000009FC9
:2F46510002000000000000000000000000000000000000000000000000400000004000000040020000400000004000000040BCFA
:2F46800002000000000000000000000000000000000000000000000000001000001000020000190000202800000028000040E935
:2F46AF0000000000000000000000000000000000000000000000005100000000004400000000000000000000005209000080F577
:2F46DE0000000000000000000000000000000000000000000000000000000000000002000000000000000000000001000000AEFC
:2F470D0000000000000000000000000000000000000000000000000000000000004003000000000000000000000001000000BA7F
:2F473C000200000000000000000000000000000000000000000000400B0400000060040200000000000000000040810000409204
:2F476B000200000000000000000000000000000000000000000000010000000000480800000000000000000040200200004085A5
:2F479A0000000000000000000000000000000000000000000000000000000000000003000000000000000000000001000000BE2E
:2F47C900020000000000000000000000000000000000000000000040000000000040000000800000000000000040020000C0DEDF
:2F47F80002000000000000000000000000000000000000000000001000000000001002040040000000000000000017000040FBD8
:2F48270000000000000000000000000000000000000000000000000000000000000000000000000000610000004104000000AA12
:2F485600000000000000000000000000000000000000000000000000000000000000000000000000000000000000000000009E95
:2F488500000000000000000000000000000000000000000000000000000000000000000000000000000001000000000000008F74
:2F48B40002000000000000000000000000000000000000000000000000000000000000000000000000400401005010000040FAF4
:2F48E30002000000000000000000000000000000000000000000000000000000000000000000000020100400000004000040CC60
:2F491200000000000000000000000000000000000000000000000000000000000000000000000000000000000000000000009ED8
:2F494100020000000000000000000000000000000000000000000000000000000000000000800000004000000040010000C0AED6
:2F49700002000000000000000000000000000000000000000000000000000000000000000040000000000004000002040040DAB2
:2F499F0000000000000000000000000000000000000000000000000000420800004805000000000080500000205000000080FD95
:2F49CE00000000000000000000000000000000000000000000000000000000000000000000000000000000000000000000009E1C
:2F49FD0000000000000000000000000000000000000000000000000000400200000000000000000000000000004000000000F811
:2F4A2C00020000000000000000000000000000000000000000000000006001040050100000000000004044000040480000C09731
:2F4A5B0002000000000000000000000000000000000000000000000000680000000200000000000000080800005804000040FD17
:2F4A8A00000000000000000000000000000000000000000000000000000003000000000000000000000002000000010000009F58
:2F4AB90002000000000000000000000000000000000000000000000000400000004000000000000000400000004000000040FA92
:2F4AE80002000000000000000000000000000000000000000000000000001B000010140000C0000000200001000000010040ED4F
:2F4B170000000000000000440300404003000000000000000000000000000054080010400000000040600000206008000080DB76
:2F4B4600000000000000000000000000000000000000000000000000000000000300000000000000000000000000000000009DA0
:2F4B750000000000000000000300000003000000000000000000000000000040000000000000000000000000004001000000CDBD
:2F4BA400020000000000005000000060000000000000000000000000000000402000006044000000004004010040810000C0E87E
:2F4BD300020000000000000100008020000000000000000000000000000000420400002400000000000003000040040000C0C2DD
:2F4C020000000000000000000000000000000000000000000000000000000000010000000000000000000300000000000000ACD3
:2F4C3100020000000000004000000040000000000000000000000000000000400300004002800000004000000040000000C0DFAE
:2F4C6000020000000000001000000000000000000000000000000000000000200208000004410000000000000000100000C0CB09
:2F4C8F0000000000000000000000000000000000000000000000000020600300004005000000000020600000004401000000A9C0
:2F4CBE00000000000000000000000000000000000000000000000000000000000000010000000000000000000000000000008E38
:2F4CED00000000000000000000000000000000000000000000000000000000000000000000000000000000000000000000009EFA
:2F4D1C0002000000000000000000000000000000000000000000000000400408004010000000000000400401005018000040EBF2
:2F4D4B00020000000000000000000000000000000000000000000000802000000000000000000000400000000001040000C0CFC3
:2F4D7A0000400040004000400040004000400040004000400040004000400040004000400040004000400040004000400000DEAC
:2F4DA900020000000000000000000000000000000000000000000000000000800000020000000000000000000000000000C0DABD
:2F4DD800020000000000000000000000000000000000000000000000000000400000190000C0000000102500001000040040B157
:2F4E0700000000000000000000000000000000000000000000000000000000000000000000000000000000000000000000009EDE
:2F4E360000000000000000000000000000000000000000000000000000080008000800000008000000000000000800000040D213
:2F4E650000000000000000000000000000000000000000000000000100200000001000000000000000020001000004000000FCEA
:2F4E9400000000000000000000000000000000000000000000000000000000000000000000000000000000000000000000009E51
:2F4EC30000000000000000000000000000000000000000000000000000000000000000000000000000000000000280000080BC02
:2F4EF200000000000000000000000000000000000000000000000000000000000000000000000000000000000000000000009EF3
:2F4F2100000000000000000000000000000000000000000000000000000000000000000000000000000000000000000000009EC3
:2F4F5000000000000000000000000000000000000000000000000000000000000000000000000000000000000000000000009E94
:2F4F7F00000000000000001000000000000000000000000000000000001000000000000000000000000000000010000000009F34
:2F4FAE00000000000000000000000000000000000000000000000000000000000000000000000000000000000000000000009E36
:2F4FDD0000000000000000000000800000000000000000000000000080000800001004000008000040000008000040000080D7A2
:2F500C00000000000000000000000000000000000000000000000000000000000000000000000000000000000000000000009ED7
:2F503B00000000000000000000000000000000000000000000000000000000400040004000000040000000000001000000008BBA
:2F506A00000000000000000000000000000000000000000000000000000000000000000000000000000000000000000000009E79
:2F509900000000000000000000000000000000000000000000000000000000000000000000000000000000000000000000009E4A
:2F50C80000000000000000000000000000000000000000000000000000000000000000410000100080000040800000400000C325
:2F50F70000000000000000010000100000000000000000000000001000000001020000000000000002040040020400000000BA60
:2F512600000000000000000000000000000000000000000000000000000000000000000000000000000000000000000000009EBC
:2F51550000000000000000000000000000000000000000000000000000000000000400000000000020000000000000000000F80F
:2F518400000000000000000000000000000000000000000000000000000000000000000000008000000048000200080000809812
:2F51B30000000000000000000000000000000000000000000000000000000000000000000000000000140000200000020000A8EF
:2F51E20000000000000000000000000000000000000000000000000002000000000000000000040002000000000002000000BADA
:2F521100000000000000000000000000000000000000000000000000000000000000000000000000000000000000000000009ED0
:2F524000000000000000000000000000000000000000000000000000000000000000000000000000000000000000000000009EA1
:2F526F00000000000000000000000000000000000000000000000000000000000000000000000000000000000010000000009F61
:2F529E00000000000000000000000000000000000000000000000000000000000000000000000000000000000000000000009E43
:2F52CD0000000000000000000000000000000000000000000000000000000000042008000000200004000000000000000080F0F2
:2F52FC00000000000000000000000000000000000000000000000000000000000000000000000000000000000000000000009EE5
:2F532B00000000000000000000000000000000000000000000000000000000000000000000000000000000000000000000009EB5
:2F535A00000000000000000000000000000000000000000000000000000800080208100810880000000010000000000000008DBD
:2F53890000000000000000000000008000000000000000000000000000000000000000000002000000000000000000000000B6BD
:2F53B80000000000000000010000000000000000000000000000000100000000000100100040020000000000001100000000D987
:2F53E70000000000000000000000000000000000000000000000004200000068000000000000000000000000000000000080D697
:2F541600000000000000000000000000000000000000000000000000000000000000000000000000000000000000000000009EC9
:2F54450000000000000000000000000000000000000000000000004000000040020000000000000000000000000000000000DCDA
:2F54740002000000000000000000000000000000000000000000005024000040190000000000000000000000000000000040C03A
:2F54A30002000000000000000000000000000000000000000000804000000048020000000000000000000000000000000040B8D6
:2F54D200000000000000000000000000000000000000000000000000010000000100000000000000000000000000000000008F1A
:2F550100020000000000000000000000000000000000000000000040030000400000000000000000000000000000000000408A2C
:2F5530000200000000000000000000000000000000000000000000201A0000202400000000000000000000000000000000C0C745
:2F555F0000000000000000000000000000000000000000000000804000008050000000000000000000000000000000000080CF3E
:2F558E00000000000000000000000000000000000000000000000000000000000000000000000000000000000000000000009E50
:2F55BD0000000000000000000000000000000000000000000000004002000040020000000000000000000000000000000000FC3F
:2F55EC000200000000000000000000000000000000000000000000600A0200401A00000000000000000000000000000000C08880
:2F561B00020000000000000000000000000000000000000000000040020000400200000000000000000000000000000000409802
:2F564A00000000000000000000000000000000000000000000000000010000000100000000000000000000000000000000008FA0
:2F56790002000000000000000000000000000000000000000000004000000040000000000000000000000000000000000040BA86
:2F56A800020000000000000000000000000000000000000000000000180000001400000000000000000000000000000000C0F7EE
:2F56D70000000000000000000000000000000000000000000000005800000068010000000000000000000000000000000000F4EF
:2F570600000000000000000000000000000000000000000000000000000000000000000000000000000000000000000000009ED6
:2F57350000000000000000000000000000000000000000000000004002000000000000000000000000000000000000000000BA49
:2F5764000200000000000000000000000000000000000000000000400A0200402400000000000000000000000000000000C0B4F0
:2F579300020000000000000000000000000000000000000000000040060080100000000000000000000000000000000000408748
:2F57C200000000000000000000000000000000000000000000000000010000000000000000000000000000000000000000008E29
:2F57F10002000000000000000000000000000000000000000000004000000040000000000000000000000000000000000040BA0D
:2F58200002000000000000000000000000000000000000000000000010000000140000000000000000000000000000000040FFF4
:2F584F0000000000000000000000000000000000000000000000004800000058000000000000000000000000000000000000C7C3
:2F587E00000000000000000000000000000000000000000000000000000000000000000000000000000000000000000000009E5D
:2F58AD0000000000000000000000000000000000000000000000004002000040020000000000000000000000000000000000FC4C
:2F58DC00020000000000000000000000000000000000000000000050090200401900000000000000000000000000000000C0B86F
:2F590B000200000000000000000000000000000000000000000000640A0000410A00000000000000000000000000000000C0CE24
:2F593A00000000000000000000000000000000000000000000000000010000000100000000000000000000000000000000008FAD
:2F59690002000000000000000000000000000000000000000000004000000040000000000000000000000000000000000040BA93
:2F59980002000000000000000000000000000000000000000000000010000010100000000000000000000000000000000040EA84
:2F59C70000000000000000000000000000000044000000000000004805000044040000000000004200000000000000000080E82E
:2F59F600000000000000000000000000000000000000000000000000000000000100000000000000000000000000000000009FE2
:2F5A25000000000000000000000000000000004002000000000000000000004000000000000000400000000000000000000098F8
:2F5A5400020000000000000000000000000000602900000000000050100000604000000000000050180000000000000000C09BD5
:2F5A8300020000000000000000000000000020600200000000000024080000640800000000000040030000000000000000C0C80D
:2F5AB20000000000000000000000000000000000010000000000000000000000000000000000000003000000000000000000AF12
:2F5AE10002000000000000000000000000000040000000000000004000000040000000000000004000000000000000000040FA5A
:2F5B100002000000000000000000000000000000180000000000000010000000000400000000000000000000000000000040B741
:2F5B3F00000000000000000000000000000000000000000000000048000000000000000000000000000000000000000000809AD5
:2F5B6E00000000000000000000000000000000000000000000000000000000000000000000000000000000000000000000009E6A
:2F5B9D00000000000000000000000000000000000000000000000040000000000000000000000000000000000000000000009AFF
:2F5BCC000200000000000000000000000000000000000000000000500B0200000000000000000000000000000000000000C0C5C6
:2F5BFB0002000000000000000000000000000000000000000000006400000000000000000000000000000000000000000040B81D
:2F5C2A0000000000000000000000000000000000000000000000000003000000000000000000000000000000000000000000AE9A
:2F5C590002000000000000000000000000000000000000000000004000000000000000000000000000000000000000000040FE9C
:2F5C880002000000000000000000000000000000000000000000000000000000000000000000000000000000000000000040FAB1
:2F5CB7000000000000000000000000000000000000000000000000480B000058000000000000000000000000000000000080FF94
:2F5CE600000000000000000000000000000000000000000000000000000000000000000000000000000000000000000000009EF1
:2F5D150000000000000000000000000000000000000000000000000000000040020000000000000000000000000000000000D845
:2F5D4400020000000000000000000000000000000000000000000050100000401A0000000000000000000000000000000040B084
:2F5D730002000000000000000000000000000000000000000000002400000040060000000000000000000000000000000040FE57
:2F5DA200000000000000000000000000000000000000000000000000000000000100000000000000000000000000000000009F32
:2F5DD10002000000000000000000000000000000000000000000004000000040000000000000000000000000000000000040BA27
:2F5E000002000000000000000000000000000000000000000000000000000000100000000000000000000000000000000040EA37
:2F5E2F0000000000000000000000000000000000000000000000804001000068000000000000000000000000000000000000EC2F
:2F5E5E00000000000000000000000000000000000000000000000000010000000000000000000000000000000000000000008E86
:2F5E8D0000000000000000000000000000000000000000000000000000000040020000000000000000000000000000000000D8CC
:2F5EBC00020000000000000000000000000000000000000000000060240000401B0000000000000000000000000000000040C1D5
:2F5EEB0002000000000000000000000000000000000000000000000000008050000000000000000000000000000000000040A7CF
:2F5F1A00000000000000000000000000000000000000000000000000000000000100000000000000000000000000000000009FB8
:2F5F490002000000000000000000000000000000000000000000004000000040000000000000000000000000000000000040BAAD
:2F5F78000200000000000000000000000000000000C0000000000000180000001400000000000000000000000000000000C0FB51
:2F5FA70002000000000000000000000000000000000000000000004408008050034203000000000000000000000000000080BE27
:2F5FD600000000000000000000000000000000000000000000000000000000000300000000000000000000000000000000009DFC
:2F600500000000000000000000000000000000000000000000000000020000000000030000000000000000000000000000008ED9
:2F60340002000000000000000000000000000000000000000000005012000040146000000000000000000000000000000040984D
:2F60630002000000000000000000000000000000000000000000000004000000400000000000000000000000000000000040FA8E
:2F60920002000000000000000000000000000000000000000000000000000000000000000000000000000000000000000000BE1F
:2F60C100020000000000000000000000000000000000000000000040020000400040000000000000000000000000000000409E0E
:2F60F00046000000000000000000000000000000000000000000000011000000002000000000000000000000000000000040FDCD
:2F611F00000000000000000000000000000000440000000000008040010000580000000000000000000000000000000000409F15
:2F614E00000000000000000000000000000000000000000000000000000000000000000000000000000000000000000000009E84
:2F617D0000000000000000000000000000000040000000000000000000000000020000000000000000000000000000000000D8D9
:2F61AC00020000000000000000000000000000602B0000000000006004010040240000000000000000000000000000000040909E
:2F61DB0002000000000000000000000000002060000000000000000800000028000000000000000000000000000000000042940D
:2F620A00004000400040004000400040004000400340004000400040004000400040004000400040004000400040004000409909
:2F62390002000000000000000000000000000000000000000000000000000000000000000000000000000000000000000040FAFA
:2F6268000200000000000000000000000000000000000000000000102400000014000000000000C000000000000000000060A3FA
:2F629700000000000000000000000000000000000000000000000000000000000000000000000000000000000000000000009E3A
:2F62C60000000000000000000000000000000008000000000000000800000008000000000000000800000000000000000040DA6F
:2F62F500000000000000000000000000000000000000000000000000000000000000000000000000000000000000000000009EDC
:2F632400000000000000000000000000000000000000000000000000000000000000000000000000000000000000000000009EAC
:2F63530000000000000000000000000000000001000000000000000000000000000200000000000000000000000000000000AC6C
:2F63820000000000000000000000000000000000000000000000000000000001080000000000000000000000000000000000865D
:2F63B100000000000000000000000000000000000000000000000000000000000000000000000000000000000000000000009E1F
:2F63E000000000000000000000000000000000000000000000000000000000000000000000000000000000000000000000009EF0
:2F640F00000000000000000000000000000000000400000000000010000000000400000000000000000000000000000000009FA7
:2F643E00000000000000000000000000000000000000000000000000000000000000000000000000000000000000000000009E91
:2F646D00000000000000000000000000000000000000000000000010000840000800000000000000000000000000000000009B05
:2F649C00000000000000000000000000000000000000000000000000000000000000000000000000000000000000000000009E33
:2F64CB00000000000000000000000000000000000000000000000001000000000040000000000000000000000000000000008BD6
:2F64FA00000000000000000000000000000000000000000000000000000000000000000000000000000000000000000000009ED5
:2F652900000000000000000000000000000000000000000000000000000000000000000000000000000000000000000000009EA5
:2F655800000000000000000000000000000000000000000000000000000000000000000000000000000000000000000000009E76
:2F658700000000000000000000000000000000000000000000000000000000000000000000000000000000000000000000009E47
:2F65B600000000000000000000000000000000000000000000000000000000000000000000000000000000000000000000009E18
:2F65E500000000000000000000000000000000000000000000000000000000000000000000000000000000000000000000009EE9
:2F66140000000000000000000000000000000000040000000000000000000000000400000000000000000000000000000088D6F1
:2F66430010000000000000000000000000000001000000000000000100000000300000000000000000000000000000000000BE28
:2F667200000000000000000000000000000002000000200000000000000000000000000000000000000000000000000000009E39
:2F66A100000000000000000000000000000000000000000000000000000000000000000000000000000000000000000000009E2C
:2F66D000000000000000000000000000000000000000000000000000000000000000000000000000000000000000000000009EFD
:2F66FF00000000000000000000000000000000000000000000000000000000000000000000000000000000000000000000009ECE
:2F672E00000000000000000000000000000000000000000000000000000000000000000000000000000000000000000000009E9E
:2F675D0000000000000000000000000000000000000000000000006000200040080000000000002008000000000000000080FE9F
:2F678C00000000000000000000000000000000000000000000000000000000000000000000000000000000000000000000009E40
:2F67BB00000000000000000000000000000000000000000000000000000000000000000000000000000000000000000000009E11
:2F67EA0000000000000000000000000000000000000000000000200040000000000000000000000000000000000000000000FA26
:2F681900000000000000000000000000000000000000000000000000000000000000000000000000000000000000000000009EB2
:2F68480000000000000000000000000000000000080000000000000000000000000000000000000002000000000000000000B661
:2F68770000000000000000000000000000000000000000000000000000000000000000000000000000000000000000480000D6D4
:2F68A60000000000000000000000000000000000000000000000000000000000000000000000000000000000000000000300AD13
:2F68D50000000000000000000000000000000000000000000000000000000000000000000000000000000000000000000300ADE4
:2F69040002000000000000000000000000000000000000000000000000000000000000000000000000000000000000600BC289AC
:2F69330002000000000000000000000000000000000000000000000000000000000000000000000000000000000000180040E2F9
:2F69620000000000000000000000000000000000000000000000000000000000000000000000000000000000000000000300AD56
:2F69910002000000000000000000000000000000000000000000000000000000000000000000000000000000000000400040BA9B
:2F69C00002000000000000000000000000000000000000000000000000000000000000000000000000000000000000000040FA6C
:2F69EF0000000000000000000000000000000000000000000000000000000000000000000064000000000000000000420300C907
:2F6A1E0000000000000000000000000000000000000000000000000000000000000000000000030000000000000000000300AE95
:2F6A4D0000000000000000000000000000000000000000000000000000000000000000000040000000000000000000400300A9EE
:2F6A7C0002000000000000000000000000000000000000000000000000000000000000000040140000000000000000600340F9F9
:2F6AAB0002000000000000000000000000000000000000000000000000000000000000000042080000000000000000400040D61A
:2F6ADA00000000000000000000000000000000000000000000000000000000000000000000000100000000000000000000009FED
:2F6B090002000000000000000000000000000000000000000000000000000000000000000040030000000000008000400040F523
:2F6B380002000000000000000000000000000000000000000000000000000000000000000020120000000000004000000040CEAC
:2F6B67000000000000000000000000000000000000000000000000000000000000000000004204000000000000000058030095C9
:2F6B960000000000000000000000000000000000000000000000000000000000000000000000000000000000000000000300AD20
:2F6BC50000000000000000000000000000000000000000000000000000000000000000000040020000000000000000400200BA63
:2F6BF40002000000000000000000000000000000000000000000000000000000000000000060020400000000000000401640FD77
:2F6C230002000000000000000000000000000000000000000000000000000000000000000040060000000000000000400040F882
:2F6C5200000000000000000000000000000000000000000000000000000000000000000000000100000000000000000000009F73
:2F6C810002000000000000000000000000000000000000000000000000000000000000000040020000000000000000400240DE40
:2F6CB000020000000000000000000000000000000000000000000000000000000000000000001100000000000000000009C4BA1B
:2F6CDF0000000000000000000000000000000000000020400800000000000000000000000048070000000000000000580340989C
:2F6D0E0000000000000000000000000000000000000000000000000000000000000000000000030000000000000000000300AEA2
:2F6D3D00000000000000000000000000000000000000004000000000000000000000000000000000000000000000004001008F17
:2F6D6C0002000000000000000000000000000000000000501000000000000000000000000060100000000000000000401540C9C8
:2F6D9B0002000000000000000000000000000000000000400300000000000000000000000000000000000000000000401050D90B
:2F6DCA0000000000000000000000000000000000000000000300000000000000000000000000000000000000000000000040E96E
:2F6DF90002000000000000000000000000000000000000400000000000000000000000000040000000000000000000400140AFB9
:2F6E280002000000000000000000000000000000000000000000000000000000000000000000000000000000000000000AC498D3
:2F6E570000000000000000000000000000000000000020400800000000000000000000000042040000410300000000580780C17A
:2F6E8600000000000000000000000000000000000000000000000000000000000000000000000000000003000000000003009E39
