:0324000002B51012
:0FB5100075D900787FE4F6D8FD75812F02B55A02
:10C8EC00AF8475840F75A40175A54175A6FF75A756
:10C8FC000F759CDF759DFF759EFF759FFF75E1277A
:08C90C0075E21475E3448F8409
:01C914002200
:10CCB000AF84E4F58475A3FB75A1FF75A2208F8472
:01CCC0002251
:10C54D00E4FFFEAD8475840F758A8353A1DFF584F6
:10C55D0075B7B075840F43A120438901758D0175A1
:10C56D008F01758E040FBF00010EEF640F4E70F535
:0FC57D00438902E58930E4FB759702AF058F848F
:01C58C00228C
:10C6EA00AF84E4F584758844758921758E02758D49
:10C6FA0096F58475C80475C90275CA8F75CB5E75BF
:10C70A00840275C80475C90875CA8275CBFD8F8401
:01C71A0022FC
:10CC6200AF84E4F58475985075910F7584017598B9
:03CC7200508F845C
:01CC7500229C
:0D24160075A8B075E60275B80475F60222CF
:0FCCD200E4F58475C04075CFB4901AD5E0F584B1
:01CCE1002230
:10CC0E0012C8EC12C54D12CCB012C6EA12CC62128A
:05CC1E00CCD202241637
:1096BA00C11450170A00000000000000000000005A
:1096CA0000000000005016FA000000000000000030
:1096DA000000000000000000602016D92020202091
:1096EA002020202020202020202020202020202070
:1096FA0020202020202020202020202041171AFD71
:05970A004216D700002B
:10715200E49019ECF0A3F074FFA3F0A3F0A3F0A362
:10716200F075FFDE75FFAD752F0112CC0E75840F21
:10717200C2CD12CCF2D2CD20CD1F9019EDE004F099
:1071820070069019ECE004F0C39019EDE09464905D
:1071920019ECE06480948040DE12BC2112CD7B1297
:1071A200BE6DE490119FF0E5EF5403600312CD2011
:1071B200E4F5E71275FAC3EE6480948040F512C7D5
:1071C2001B9019EC741CF0A3E4F0FF7E1C12CD118D
:1071D200EF64026003129D719019EC741CF0A374A9
:1071E20001F0E49019EBF09019ECE0FEA3E0FF123D
:1071F200CD119019EBE024D9F582E43416F583EF32
:10720200F09019EDE004F070069019ECE004F090B3
:1072120019EBE004F0E0C3942040CC75E7409019EC
:10722200EC741CF0A3744EF0FF7E1C12CD11EF9093
:10723200117DF0A3E4F09019EDE02401FF9019EC28
:10724200E03400FE12CD1190117DE0F0A3E04FF08A
:10725200D2AA7F507E1C12CD11901646EFF0700814
:1072620090115A7407F08005E490115AF07F417E24
:107272001C12CD119015BBEFF060037401F0901554
:10728200BBE060030273257F427E1C12CD11900089
:1072920010EFF07F437E1C12CD11900011EFF07FB2
:1072A200447E1C12CD11900012EFF07F457E1C121D
:1072B200CD11900013EFF07F467E1C12CD1190008D
:1072C2001AEFF07F477E1C12CD1190001BEFF07F6A
:1072D200487E1C12CD1190001CEFF07F497E1C12DB
:1072E200CD1190001DEFF07F4A7E1C12CD1190004F
:1072F20024EFF07F4B7E1C12CD11900025EFF07F22
:107302004C7E1C12CD11900026EFF07F4D7E1C1298
:10731200CD11900027EFF0900DAB7401F0900DAA03
:10732200F080347B007A0079007FA07E8C7D007C27
:107332000012C77DD3EF9400EE64809480501890C1
:107342000DAB7401F0900DAA7409F0E4900010F0F6
:10735200A3F0A3F0A304F012CD2E12C3139019F0E0
:10736200EEF0A3EFF012C35E9019EEEEF0A3EFF091
:10737200C3EE648094804029A3E06480948040211D
:10738200D2B29016F97409F01273AA9019ECEEF0C9
:10739200A3EFF02014030271B2C2141290600271C2
:0873A200B2D2A5D2A60271B21D
:10C71B00E4FBFD7F0212C83D901ACFEEF0A3EFF0C1
:10C72B00BEFF0EBFAB0B7F1212B8CA200C03300A30
:10C73B00FAC3901ACFE06480948040D47E007F01CE
:01C74B0022CB
:03242B0002990A09
:10990A00C0E0C0F0C083C082C0D075D000C000C023
:0D991A0001C002C003C004C005C006C007A4
:10992700901AD6E584F0C2CF9016D7E0FEA3E0FFE9
:10993700E4FCFD7B82FAF9F8D3122838500C901614
:10994700D7E4F0A3F012C02B800E9016D8E004F0F5
:1099570070069016D7E004F09014FCE0FCA3E0FD3D
:10996700A3E0FEA3E02401FFE43EFEE43DFDE43C6A
:10997700FC9014FC1228ADE47FCCFEFDFC9014FC97
:10998700E0F8A3E0F9A3E0FAA3E0FBC312284E40F6
:10999700299014F8E0FCA3E0FDA3E0FEA3E0240176
:1099A700FFE43EFEE43DFDE43CFC9014F81228ADD4
:1099B7009014FC1228B900000004128C24301506FC
:1099C700901500E004F0901500E0C39402400FE406
:1099D700F0C2159014F7E0FF12AB7412C35E300E9D
:1099E700069015BAE004F09015BAE0C39405400F4D
:1099F700E4F0C20E9015B7E0FF12AB7412C31390D8
:059A07001AD6E0F58411
:109A0C00D007D006D005D004D003D002D001D000AE
:0B9A1C00D0D0D082D083D0F0D0E03258
:0ACD7000AF8475840F53C8DF8F8471
:01CD7A002296
:0FCCE200AF8475840F43C820E5C830E5FB8F840D
:01CCF1002220
:0324130002AAB862
:10AAB800C0E0C0F0C083C082C0D075D000C000C064
:10AAC80001C002C003C004C005C006C0079016F943
:10AAD800E0FF700974FFF0C2B2D2A4800ED3EF6415
:10AAE80080948040069016F9E014F09011A4E0706C
:10AAF8000AA3E07006A3E07002C2B29014FC122808
:10AB0800B9000000029015B2E0FCA3E0FDA3E0FE4E
:10AB1800A3E0FF9014F81228AD12C02B30B30990AF
:10AB28001501E4F0D2A6801C20B30E901501E0C3F5
:10AB3800943C5005E004F0800B901501E0C3943C70
:10AB48004002C2A690171AE064016003E004F0B264
:10AB5800A7D007D006D005D004D003D002D001D0AA
:0CAB680000D0D0D082D083D0F0D0E032FA
:0BCD58008E158F168F828E83E493FFF0
:01CD630022AD
:10BC2100A2AF9213C2AFD2CD901AD17420F0A374F7
:10BC310068F0901AD1E0FEA3E0F5828E8374FAF0E9
:10BC4100901AD17420F0A37469F0901AD1E0FEA388
:10BC5100E0F5828E83741FF0901AD104F0A374056D
:10BC6100F012CACDE4FF901AD1E0FCA3E0F5828C7A
:10BC710083E0FE741E2FF582E43400F583EEF00FAD
:08BC8100EFB406E2A21392AF3A
:01BC89002298
:03CD9F007F0122EF
:10B59F00901A8AEBF0A3EAF0A3E9F03014037F9A34
:10B5AF002230100675878075EF10129E77D3901694
:10B5BF00D4E094009016D3E09400400CA3E024FF55
:10B5CF00F09016D3E034FFF0300D037F9A22900DE8
:10B5DF00AAE04401F0602D900DA2E0FCA3E0FDA3D2
:10B5EF00E0FEA3E0FF900D9EE0F8A3E0F9A3E0FAE0
:10B5FF00A3E0FBD312284E500B7FA07E8C7D007CE6
:10B60F000012A9FB901A8AE0F9A3E0FAA3E0901ABE
:0CB61F008AC9F0A3EAF0A3E9F07F002242
:03CDA2007F0022ED
:10BA4600901A8DEBF0A3EAF0A3E9F0901A8DE0FBD3
:10BA5600A3E0FAA3E0F990001C1225B5FF9015B6F5
:10BA6600E0B4000AA3E0B507051242C8804B901A5D
:10BA76008DE0FBA3E0FAA3E0F990001C1225B5FFC8
:10BA86009014F6E0B40011A3E0B5070C90171AE085
:10BA9600B40105127A758021901A8DE0FBA3E0FAB5
:10BAA600A3E0F990001C1225B5FF90117BE0B400CD
:0CBAB60008A3E0B507031231487F00220E
:10CC2300EF3395E0FE90117BE0B50608A3E0B5076E
:05CC33000312CD0222F6
:01240A0022AF
:10CA470007000405EA05EA006400051770060258A6
:10CA570004000300008CA040010020020000140C19
:03CA6700013EB0DD
:10970F00440D75FFFFFFFF440010000000014600ED
:10971F001E000B3C000000460014FFFFFFFFFFFF81
:0E972F00440024FFFFFFFF44001AFFFFFF006D
:10C7AE005054353330300048442D53442056617276
:10C7BE006974696D652053796E632047656E657285
:10C7CE0061746F7200557074696D65005554430045
:10973D004215B6FFFFC10EC10F4115BB01411646C3
:0A974D00014215B800004115BA00F2
:10C31300E49018DCF0A3F0A37402F0A37411F0E42A
:10C32300A3F07B01A304F0A37415F0A374BCF0A3E2
:10C33300E4F0A37480F07A0C79207DE07C0B12B3D7
:10C34300E1EF3395E0FEC3648094805001229015A1
:0AC35300B6EEF0A3EFF07E007F01CC
:01C35D0022BD
:1042C8009019B97401F0A37415F0A374BCF090159B
:1042D800B6E0FEA3E0FF7C007D3D1225F474242F98
:1042E800F9740C3EFA7B019019B6EBF0A3EAF0A33F
:1042F800E9F0900013122913C003C002C0019019FD
:10430800B9E0FBA3E0FAA3E0F9D082D083D0E06B58
:104318007008E965827003EA658360109015B7E05C
:10432800FF12AB7412C3137EFF7FFF229019B6E011
:10433800FBA3E0FAA3E0F990001912269C64044557
:10434800F060030245549015BCE0600302455490A8
:1043580015B8E0FCA3E0FDECFF9015BEE0FBEFB55F
:104368000318AF05A3E0FDEFB5050FE49015B7E01E
:10437800FF12AB7412C31302471A9015BEE07F00F8
:10438800FE9015B8F0A3EFF09015BFE0FDEDFF909B
:1043980015B8EEF0A3EFF09015BC7401F0900DABDA
:1043A800E0B401089015BD7401F08005E49015BDD6
:1043B800F0E49015C0F0A3F0A3F0A3F0A3F0A3F0ED
:1043C800A3F0A3F0A3F0A3F090001EE09015CAF0AC
:1043D80090001FE09015CBF0900020E09015CCF0F5
:1043E800900021E09015CDF0900022E09015CEF0DD
:1043F800900023E09015CFF0900010E09015D0F0D9
:10440800900011E09015D1F0900012E09015D2F0D4
:10441800900013E09015D3F090001AE09015D4F0B6
:1044280090001BE09015D5F090001CE09015D6F098
:1044380090001DE09015D7F0900024E09015D8F07A
:10444800900025E09015D9F0900026E09015DAF05C
:10445800900027E09015DBF090115AE09015DCF001
:10446800E4A3F0A3F0A3F0A3F09019BD741CF0A38B
:104478007441F0FF7E1C12CD119015E1EFF09019F8
:10448800BD741CF0A3744EF0FF7E1C12CD11901564
:10449800E2EFF09019BEE02401FF9019BDE034006E
:1044A800FE12CD119015E3EFF0E4A3F0A3F0A3F012
:1044B800A3F0A3F078E97C157D017BFF7AC779AE7C
:1044C800122C0D78F07C157D017BFF7AC779B51227
:1044D8002C0D9019BD741CF0A37401F0E49019BC64
:1044E800F09019BDE0FEA3E0FF12CD119019BCE0D9
:1044F800240EF582E43416F583EFF09019BEE0043B
:10450800F070069019BDE004F09019BCE004F0E0EA
:10451800C3942040CC7B017A1579BCC003C002C08B
:10452800019019B6E0FBA3E0FAA3E0F990000E129F
:1045380029439019B6E0FBA3E0FAA3E0F990001133
:10454800E475F0801226D4D20E02471A9019B6E00C
:10455800FBA3E0FAA3E0F990001912269C647945C0
:10456800F0600302470A9015BCE06430600302471C
:104578000A12BD52EF640160030246CB90115AE063
:10458800FF64026013EF6403600EEF64046009EFD8
:1045980064056004EFB406099015C67403F002467A
:1045A800D012BAC2EF640160030246C3901606E057
:1045B80070359019BCF09019BCE0FFC394105027D7
:1045C800EF2421FFE4341CFEA3F0A3EFF012CD1179
:1045D8009019BCE02406F582E43416F583EFF090D8
:1045E80019BCE004F080CF901616E070359019BC25
:1045F800F09019BCE0FFC394105030EF2431FFE471
:10460800341CFEA3F0A3EFF012CD119019BCE024E6
:1046180016F582E43416F583EFF09019BCE004F047
:1046280080CF901616E0B40102E4F09019BD741C16
:10463800F0A3E4F0FF7E1C12C9DB200BFD9019BD2E
:10464800741CF0A37401F0E49019BCF09019BCE05C
:10465800FDC3944F502EA3E0FEA3E0FF74E62DF5B2
:1046680082E43415F583E0FD12C965200BFD90192D
:10467800BEE004F070069019BDE004F09019BCE0AB
:1046880004F080C89019BD741CF0A37450F0901603
:1046980046E0FD7F507E1C12C965200BFD9019BDB8
:1046A800741CF0A3E4F07D02FF7E1C12C965200B88
:1046B800FD9015C67401F0D210800D9015C67402D5
:1046C800F08005E49015C6F09015BC7431F07B01BC
:1046D8007A1579BCC003C002C0019019B6E0FBA3EB
:1046E800E0FAA3E0F990000E1229439019B6E0FB16
:1046F800A3E0FAA3E0F9900011E475F00B1226D4B8
:1047080080109015B7E0FF12AB7412C3137EFF7FC1
:06471800FC227E007F017F
:01471E002278
:10C02B00901640E004F0E0C3943C402AE4F09016F4
:10C03B003FE004F0E0943C401DE4F090163EE00439
:10C04B00F0E094184010E4F090163DE004F0700618
:10C05B0090163CE004F0E4901641F0A3F09011A48C
:10C06B00E0901643F09011A5E0901644F09011A6C5
:06C07B00E0901645F022E2
:0ECD2000E490163CF0A3F0A3F0A3F0A3F022E1
:0ECD2E00E4901641F0A3F0A3F0A3F0A3F022CE
:109D7100E4901A90F0901A90E0FFC3947950147413
:109D8100BC2FF582E43415F583E4F0901A90E004D9
:109D9100F080E29015BC7455F0A3746EF0A3F0A3AB
:109DA1007461F0A3746DF0A37465F0A314F0A3744F
:109DB1002EF09015DC7441F0A37464F0A3746DF07F
:109DC100A37469F0A3746EF0E4A3F09015EC7432FF
:109DD100F0A37437F0A37433F0A37430F09015FC42
:109DE1007401F0A374FFF0A3F0A3F0A3F0A3F0A318
:109DF100F0A3F0A3F0A3F0A3F0A3F0A3F0E4A3F089
:109E0100A37417F0A37401F0901A91741CF0A3E4E9
:109E1100F0FF7E1C12C9DB200BFD901A91741CF01F
:109E2100A37401F0E4901A90F0901A90E0FDC394AD
:109E310050502EA3E0FEA3E0FF74BC2DF582E43464
:109E410015F583E0FD12C965200BFD901A92E0041F
:109E5100F07006901A91E004F0901A90E004F080FE
:109E6100C8901A91741CF0A3E4F07D02FF7E1C12CD
:059E7100C965200BFD96
:019E760022C9
:10BD5200901AD77401F09015B8E0FCA3E0FDECFF57
:10BD62009015BEE0FBEFB50318AF05A3E0FDEFB5FC
:10BD7200050FE49015B7E0FF12AB7412C3137F00F6
:10BD820022E4FF741E2FF582E43400F583E0FE7492
:10BD9200C02FF582E43415F583E0FDEE6D6005E415
:0EBDA200901AD7F00FEFB406DA901AD7E0FF30
:01BDB0002270
:10BAC200901A6D7401F09015B8E0FCA3E0FDECFF54
:10BAD2009015BEE0FBEFB50318AF05A3E0FDEFB58F
:10BAE200050FE49015B7E0FF12AB7412C3137F0089
:10BAF20022901A6A741CF0A37421F0E4A3F0901A45
:10BB02006CE0FFC39420502E901A6BE02FFF901A26
:10BB12006AE03400FE12CD11901A6CE024C6F58260
:10BB2200E43415F583E06F6005E4901A6DF0901A25
:0BBB32006CE004F080C8901A6DE0FF8A
:01BB3D0022E5
:10906000E4901A93F0901A93E0FFC3947F502AA3E0
:10907000741CF0A37401F0EF2401FFE4341CFE1211
:10908000CD11901A93E024BCF582E43415F583EFFA
:10909000F0901A93E004F080CC300F30C20F90159E
:1090A000DC7441F0A37464F0A3746DF0A37469F0F0
:1090B000A3746EF0E4A3F09015EC7432F0A374374F
:1090C000F0A37433F0A37430F0E4A3F09015BBE088
:1090D0009015FCF0900010E09015FDF0900011E06C
:1090E0009015FEF0900012E09015FFF0900013E054
:1090F000901600F090001AE0901601F090001BE02E
:10910000901602F090001CE0901603F090001DE015
:10911000901604F0900024E0901605F0900025E0F1
:10912000901606F0900026E0901607F0900027E0D9
:10913000901608F090117DE0901609F090117EE0F5
:1091400090160AF0901646E090160BF0200BFD905A
:109150001A94741CF0A3E4F0FF7E1C12C9DB200BF0
:10916000FD901A94741CF0A37401F0E4901A93F02B
:10917000901A93E0FDC39450502EA3E0FEA3E0FFAD
:1091800074BC2DF582E43415F583E0FD12C9652029
:109190000BFD901A95E004F07006901A94E004F02C
:1091A000901A93E004F080C8901A94741CF0A3E421
:0C91B000F07D02FF7E1C12C965200BFD43
:0191BC002290
:109757004214F6FFFF41150000C1154414F800003C
:1097670000004415B2000000004414FC0000000093
:049777004115010097
:10C35E00E49018DCF0A3F0A37402F0A37411F0E4DF
:10C36E00A3F07B01A304F0A37415F0A37402F0A351
:10C37E00E4F0A37480F07A0C79207D7B7C0012B3FC
:10C38E00E1EF3395E0FEC364809480500122901457
:0AC39E00F6EEF0A3EFF07E007F0141
:01C3A8002272
:107A7500901A0A7401F0A37415F0A37402F090141F
:107A8500F6E0FEA3E0FF7C007D3D1225F474242F73
:107A9500F9740C3EFA7B01901A07EBF0A3EAF0A308
:107AA500E9F0900013122913C003C002C001901A17
:107AB5000AE0FBA3E0FAA3E0F9D082D083D0E06B23
:107AC5007008E965827003EA658360109014F7E039
:107AD500FF12AB7412C35E7EFF7FFF22901A07E090
:107AE500FBA3E0FAA3E0F990001912269C64304547
:107AF500F06003027C7F90001912269CFFAEF0789F
:107B0500827C157D017B017A157902122576901408
:107B1500F8E0FCA3E0FDA3E0FEA3E0FF9015A212B0
:107B250028AD7F157EAE7D477C019014FCE0F8A35F
:107B3500E0F9A3E0FAA3E0FB12270E9015A61228A0
:107B4500AD9015861228B90000000090158A1228FC
:107B5500B90000000090158574ECF09015A2E0FCCA
:107B6500A3E0FDA3E0FEA3E0FF9015921228AD90DF
:107B750015A6E0FCA3E0FDA3E0FEA3E0FF901596AB
:107B85001228AD9015827424F0901501E0C3943C41
:107B95004009901582E044C0F0802490119FE0FDDB
:107BA500C394014009901582E04440F08011EDD363
:107BB50094FF7480947F5007901582E04480F09084
:107BC50015837401F09015AAE0FCA3E0FDA3E0FE87
:107BD500A3E0FF90159A1228AD9015AEE0FCA3E046
:107BE500FDA3E0FEA3E0FF90159E1228AD90158E33
:107BF5007447F0A37450F0A37453F0E4A3F0901409
:107C0500F8E0FCA3E0FDA3E0FEA3E0FF9015AA12B7
:107C150028AD7F157EAE7D477C019014FCE0F8A36E
:107C2500E0F9A3E0FAA3E0FB12270E9015AE1228A7
:107C3500AD78027C157D017B017A1579827E007F06
:107C4500301225767B017A157902C003C002C00186
:107C5500901A07E0FBA3E0FAA3E0F990000E1229C1
:107C650043901A07E0FBA3E0FAA3E0F9900011E4C2
:107C750075F0301226D4D21580109014F7E0FF125B
:0E7C8500AB7412C35E7EFF7FFC227E007F0187
:017C930022CE
:08977B0041129000411291001F
:10CCC100AE847584018F993099FDC299AF068F8426
:01CCD1002240
:0324A30002C6B8B6
:10C6B800C0E0C083C082C0D030981EC2989012904B
:10C6C800E02484F582E43412F583E599F090129021
:10C6D800E004F0E0B40802E4F0D0D0D082D083D0F7
:02C6E800E0323E
:10C3A90090135A7412F0A37492F0E4FF90135AE0B8
:10C3B900FCA3E0F5828C8374FFF090135BE004F03A
:10C3C900700690135AE004F00FEFB4C8DF7E127FB5
:10C3D9009290128EEEF0A3EFF090135AEEF0A3EFC5
:0AC3E900F0E490128CF0A3F0D216DD
:01C3F3002227
:10C2280090128EE0FEA3E0F5828E83E0FF90128EDE
:10C23800E0B41311A3E0B4590C90128E7412F0A359
:10C248007492F0800E90128FE004F0700690128EB7
:10C25800E004F090128DE024FFF090128CE034FF9F
:0EC26800F0E07002A3E06003D38001C39216E1
:01C2760022A5
:10C5CD00E4FF901291E0FE901290E0B5060B0FEF94
:10C5DD00B4FFEFE41225E2FF2275E74074842EF5D7
:10C5ED0082E43412F583E01225E2901291E004F01A
:0BC5FD00E0B40802E4F075E7407F01A5
:01C60800220F
:10BE6D007E167F8F90164DEEF0A3EFF09016D1EE6B
:10BE7D00F0A3EFF07E167F4F90164BEEF0A3EFF090
:10BE8D009016CFEEF0A3EFF0E4901649F0A3F090EA
:10BE9D001647F0A3F09016D5F0A3F09016D3F0A3AB
:10BEAD0004F0E4FF7E4090164FE4F0A3DEFCE4FFC7
:0ABEBD007E4090168FE4F0A3DEFC37
:01BEC7002258
:10C50B0090164BE0FEA3E0F5828E83E0FF90164B76
:10C51B00E0B41611A3E0B48E0C90164B7416F0A376
:10C52B00744FF0800E90164CE004F0700690164B92
:10C53B00E004F0901648E024FFF0901647E034FF3B
:01C54B00F0FF
:01C54C0022CC
:10BEC8009016D1E0FCA3E0FDF5828C83EFF0EDB491
:10BED800CE10ECB4160C9016D17416F0A3748FF033
:10BEE800800E9016D2E004F070069016D1E004F0AF
:10BEF80090164AE004F07006901649E004F0901697
:10BF080049E07004A3E064407E0060047F01800281
:0BBF18007F009016D5EEF0A3EFF022A2
:10C12D00D39016D0E0948E9016CFE09416400774FD
:10C13D0016F0A3744FF09016CFE0FCA3E0F5828CBF
:10C14D0083EFF09016D0E004F070069016CFE00467
:10C15D00F0901648E004F07006901647E004F09059
:10C16D0016D37413F0A37488F0EFB40A07E4901695
:05C17D00D3F0A3F02245
:10BF230090164DE0FEA3E0F5828E83E0FF90164D60
:10BF3300E0B41611A3E0B4CE0C90164D7416F0A322
:10BF4300748FF0800E90164EE004F0700690164D3C
:10BF5300E004F090164AE024FFF0901649E034FF25
:10BF6300F0E07002A3E07C0060047D0180027D00AC
:08BF73009016D5ECF0A3EDF0EF
:01BF7B0022A3
:06CD9500E4F584D29922AE
:0EBC8A00901A0DEBF0A3EAF0A3E9F0A3EDF0A1
:10BC98007014901A0DE0FBA3E0FAA3E0F912CC4D62
:10BCA800901A11EE8007901A10E0FFA3E4F0A3EFBA
:10BCB800F0901A11E07002A3E0602C901A0DE0FBDE
:10BCC800A3E0FAA3E0F912259CFF12BEC8901A0E51
:10BCD800E475F00112265B901A12E024FFF0901A26
:07BCE80011E034FFF080CAF7
:01BCEF002232
:0324230002C18271
:10C18200C0E0C083C082C0D075D000C003C004C06C
:05C1920005C006C00716
:10C19700AB84758400309807C298AF9912C12D30CF
:10C1A7009916C299D390164AE09400901649E094E4
:0CC1B70000400512BF238F99AF038F8456
:10C1C300D007D006D005D004D003D0D0D082D083FE
:03C1D300D0E03287
:1085C900061D1C0001000000000000000000000062
:1085D9000000000010270000201C000090D00300BC
:1085E9000000000000000000000000000000000082
:1085F9000000000000000000000000000000000072
:108609000000000000000000000000000000000061
:108619000000000000000000000000000000000051
:108629000000000000000000000000000000000041
:108639000000000000000000000000000000000031
:108649000000000000000000000000000000000021
:108659000000000000000000000000000000000011
:108669000000000000000000000000000000000001
:1086790000000000000000000000000000000000F1
:1086890000000000000000000000000006001400C7
:1086990001000000D0080800802500000700010043
:1086A90000000000000000000000000000000000C1
:1086B90000000000000000000000000000000000B1
:1086C90000000000000000000000000000000000A1
:1086D9000000000000000000000000000000000091
:1086E9000000000000000000000000000000000081
:1086F9000000000000000000000000000000000071
:108709000000000000000000000000000000000060
:108719000000000000000000000000000000000050
:108729000000000000000000000000000000000040
:108739000000000000000000000000000000000030
:108749000000000000000000000000000000000020
:0A8759000000000000000000B562FF
:04978300411184000C
:108C240090118FE024A7F9E43411FA7B0112C5CD29
:108C3400EF7003028D92901184E0FF704E901183C7
:108C4400E090876193FE90118FE024A7F582E434CD
:108C540011F583E0B50608901183E004F08005E483
:108C6400901183F090118FE004F0901183E0B4022E
:108C7400AFE4F090118FF090118404F0E49011812E
:108C8400F0A3F090117FF0A3F08095EF6401704B96
:108C9400901183E004F090118FE024A7F582E4346E
:108CA40011F583E0FF901181E02FF0E0FFA3E02FA6
:108CB400F0A3E0B404229011AAE0FE9011A9E07C94
:108CC400002400FFEC3E90117FF0A3EFF09011849C
:108CD4007402F0E4901183F0028D89901184E0FF16
:108CE40064027040901183E004F090118FE024A797
:108CF400F582E43411F583E0FE901181E02EF0E07A
:108D0400FEA3E02EF0A3E0FEB4C803E4A3F0EEFD5E
:108D140090117FE0B4000BA3E0B5050690118474B4
:108D240003F08061EF64036003028C24901183E0FC
:108D340004F0901180E02402FF90117FE03400FEE3
:108D4400901183E06F7001EE7035F090118FF09008
:108D54001184F0901180E0FF24ABF582E43411F526
:108D640083E0FE901181E0B5061574AC2FF582E422
:108D74003411F583E0FF901182E0B50702D212307E
:0F8D8400120312471F90118FE004F0028C24227B
:10471F007B017A13795E12C74C90135EE024FB7015
:10472F00030248D724FA70030249C824FE7003021B
:10473F0048E6240C6003024B7290135FE024DF7095
:10474F000302480824F17003024898241060030202
:10475F004B7290136CE0901281F0901362E0901105
:10476F0089F0901363E0901188F0901364E090113A
:10477F0087F0901365E0901186F0E0FCA3E0FDA3B5
:10478F00E0FEA3E024F4FFEE3401FEE43DFDE43C43
:10479F00FCE47BE87A03F9F8122799901186122826
:1047AF00AD901186E0FCA3E0FDA3E0FEA3E0FFC007
:1047BF0007901281E0FB3395E0FAF9F8D007C3EFC9
:1047CF009BFFEE9AFEED99FDEC98FC901186122856
:1047DF00AD90136AE0FF901282E4F0A3EFF0901314
:1047EF006BE0FE901283E02400F0901282E03EF026
:1047FF0090136DE090126FF02290136FE0FE901304
:10480F006EE07C002400FFEC3E9011A0F0A3EFF0CF
:10481F00901370E09011A2F0901371E09011A3F03B
:10482F00901372E09011A4F0901373E09011A5F023
:10483F00901374E0F99011A6F0901375E090128028
:10484F00F09011A2E0FDA3E0FB3395E0FAA3E0FEA8
:10485F003395E0901877F0A3CEF09011A5E0FE33DA
:10486F0095E0901879F0A3CEF0E9FE3395E0A3F030
:10487F00A3CEF0E4A3F0A3F09011A0E0FEA3E0FF1D
:10488F0012B6B59015B20249BC7F0BE4FE74622FCD
:10489F00F582E43413F583E0FD740A2EF582E434D7
:1048AF0017F583EDF00F74622FF582E43413F5835F
:1048BF00E0FD74FA2EF582E43416F583EDF0740BF7
:1048CF002FFF0EEEB410C62290135FE06006147037
:1048DF0003D21122C2112290135FE024FC70030255
:1048EF0049BF24036003024B7290136AE0FFE4FC9C
:1048FF00FDFE9011901228AD901190E0F8A3E0F911
:10490F00A3E0FAA3E0FB90136BE07F00FE3395E08A
:10491F00FDFCEF2BFFEA3EFEE93DFDE83CFC90116C
:10492F00901228AD901190E0F8A3E0F9A3E0FAA35C
:10493F00E0FBC000C001C002C00390136CE07E001A
:10494F007810C333CE33CED8F9FFEE3395E0FDFCAC
:10495F00D003D002D001D000EB2FFFEA3EFEE93D9D
:10496F00FDE83CFC9011901228AD901190E0F8A357
:10497F00E0F9A3E0FAA3E0FBC000C001C002C0034E
:10498F0090136DE07E007818C333CE33CED8F9FF85
:10499F00EE3395E0FDFCD003D002D001D000EB2F19
:1049AF00FFEA3EFEE93DFDE83CFC9011900228AD88
:1049BF0090137AE0901185F022D2B290135FE02429
:1049CF00FE6003024B72901376E090118DF09013FE
:1049DF0077E090118CF0901378E090118BF090139A
:1049EF0079E090118AF090137BE0FE90137AE07CCF
:1049FF00002400FFEC3E901194F0A3EFF090137D94
:104A0F00E0FE90137CE02400FFEC3E901196F0A3A3
:104A1F00EFF090137FE0FE90137EE02400FFEC3E5A
:104A2F00901198F0A3EFF0901381E0FE901380E0C7
:104A3F002400FFEC3E90119AF0A3EFF0901383E067
:104A4F00FE901382E02400FFEC3E90119CF0A3EF48
:104A5F00F07F007EE97D0790118AE0F8A3E0F9A3CB
:104A6F00E0FAA3E0FBC312284E400990119E740791
:104A7F00F0024B3B7F807E977D067C0090118AE091
:104A8F00F8A3E0F9A3E0FAA3E0FBC312284E400914
:104A9F0090119E7406F0024B3B7F007E467D057C95
:104AAF000090118AE0F8A3E0F9A3E0FAA3E0FBC3BA
:104ABF0012284E400890119E7405F0806F7FB87ECB
:104ACF00F37D037C0090118AE0F8A3E0F9A3E0FAEC
:104ADF00A3E0FBC312284E400890119E7404F0808F
:104AEF004B7F007EA37D027C0090118AE0F8A3E04B
:104AFF00F9A3E0FAA3E0FBC312284E400890119EE1
:104B0F007403F080277F807E517D017C0090118A95
:104B1F00E0F8A3E0F9A3E0FAA3E0FBC312284E905C
:104B2F00119E40057402F080037401F0901194E01F
:104B3F00FEA3E0FF901198E0B50623A3E0B5071E92
:104B4F0090119EE0FF90119AE0B40012A3E0B50718
:104B5F000D901197E0FF90119DE0C39F8001E490AD
:034B6F00119FF0A3
:014B72002220
:1091BD00901A96EBF0A3EAF0A3E9F0E4901181F098
:1091CD00A3F0901A96E0FBA3E0FAA3E0F990000259
:1091DD001225B5FF90117FE4F0A3EFF07FB512CC0F
:1091ED00C17F6212CCC1901A96E0FBA3E0FAA3E016
:1091FD00F912259CFF12CCC1901A96E0FBA3E0FA60
:10920D00A3E0F912259C901181F0A3F090000112BA
:10921D0025B5FF12CCC1901A96E0FBA3E0FAA3E0AE
:10922D00F99000011225B5FF901181E02FF0E0FFBC
:10923D00A3E02FF09000021225B5FF12CCC1901AB9
:10924D0096E0FBA3E0FAA3E0F99000021225B5FF2A
:10925D00901181E02FF0E0FFA3E02FF090000312BA
:10926D0025B5FF12CCC1901A96E0FBA3E0FAA3E05E
:10927D00F99000031225B5FF901181E02FF0E0FF6A
:10928D00A3E02FF0E490118FF090118FE0FF7E009E
:10929D00D3901180E09F90117FE09E4050901A96E0
:1092AD00E0FBA3E0FAA3E02404F9E43AFAE92FF98C
:1092BD00EE3AFA12259CFF12CCC1901A96E0FBA350
:1092CD00E0FAA3E02404F9E43AFA90118FE07E006D
:1092DD0029F9EE3AFA12259CFF901181E02FF0E06A
:1092ED00FFA3E02FF090118FE004F0809C9011818E
:0D92FD00E0FF12CCC1901182E0FF02CCC155
:10C74C00901A99EBF0A3EAF0A3E9F0901180E024A1
:10C75C0004FF90117FE03400FE901A99E0FBA3E0F7
:10C76C00FAA3E0F8AC02AD037B017A1179A702259C
:01C77C007646
:10A51700E4901A9EF09011901228B900000000E410
:10A52700901185F0A31228B900000000E490128270
:10A53700F0A3F090126FF0901281F0901280F090DB
:10A547001181F0A3F090118FF0901183F090117F9B
:10A55700F0A3F0C212C211FE7FC8FD7B017A117908
:10A56700A7122C2A20114A901A9EE0C39405504145
:10A57700E4901A9CF0A3F07BFF7A8679951291BD3F
:10A58700201221901A9CE064037004A3E064E86041
:10A5970013901A9DE004F07006901A9CE004F012E4
:10A5A7008C2480DC901A9EE004F012471FC21280B0
:10A5B700B3901A9EE0B405037F0022C2117BFF7A95
:10A5C7008579C91291BD7B017D017F0D12C8967BEC
:10A5D700017D207F0112C8967B017D217F0112C872
:0CA5E700967B0A7D047F0D12C8967F0150
:01A5F3002245
:10C8960090142A7406F0A37401F0A37406F0E4A3BE
:10C8A600F0A3EFF0A3EDF0E4A3F0A3EBF0E4A3F024
:0BC8B600A3F07B017A14792A0291BDE7
:10C98D00901A9FEBF0A3EAF0A3E9F0901A9FE0FB59
:10C99D00A3E0FAA3E0F8AC02AD037B017A1179A014
:07C9AD007E007F07022576E2
:0ECD3C001F1C1F1E1F1E1F1F1E1F1E1F955C8B
:10C91500AB07AA06EB5403701CFC7D64122606EDDA
:10C925004C700FAE02AF037C017D90122606ED4CD4
:08C9350070037F01227F002244
:0EAE3500901A6EEEF0A3EFF0A3EAF0A3EBF09C
:10AE4300E4FFED14FEEFC39E5016EF90CD3C93FB51
:10AE5300901A71E02BF0901A70E03400F00F80E24A
:10AE6300901A6FE024FFF0901A6EE034FFF0E0FADE
:10AE7300A3E0FB7C017D6DFFAE021225F4AC06ADB1
:10AE830007EBAE027802CEC313CE13D8F92DFBEC39
:10AE93003EFA901A6EE0FEA3E0FF7C007D6412266A
:10AEA30006C3EB9FFBEA9EFA901A6EE0FEA3E0FF57
:10AEB3007C017D90122606EF2BFFEE3AFE901A716D
:10AEC300E02FFF901A70E03EFE90CD48E493FC74AF
:0AAED3000193FDC3EF9DFFEE9CFE0E
:01AEDD002252
:08B346009018F7ECF0A3EDF004
:10B34E00EF3395E0FEFDFCA31228AD9018F7E0FE5A
:10B35E00A3E0FFEE3395E0FDFC9018FD1228ADAE94
:10B36E0002AF03EE3395E0FDFC9019011228ADE417
:10B37E007F3CFEFDFC9018FDE0F8A3E0F9A3E0FA97
:10B38E00A3E0FB12270EC004C005C006C007E47F71
:10B39E00107E0EFDFC9018F9E0F8A3E0F9A3E0FA98
:10B3AE00A3E0FB12270ED003D002D001D000EF2B6A
:10B3BE00FFEE3AFEED39FDEC38FC901901E0F8A3F2
:10B3CE00E0F9A3E0FAA3E02FFFEA3EFEE93DFDE837
:02B3DE003CFC35
:01B3E000224A
:10B6B50012AE35E4FCFD7B807A517901F812270E34
:10B6C50090187F1228AD90187FE0F8A3E0F9A3E069
:10B6D500FAA3E0FBC000C001C002C003901878E0E7
:10B6E500FFA3E0FCA3E0FDA3E0FAA3E0FB12B34651
:10B6F500D003D002D001D000EB2FFFEA3EFEE93D9A
:10B70500FDE83CFC90187F1228AD90187FE0FCA363
:10B71500E0FDA3E0FEA3E02401FFE43EFEE43DFDE1
:10B72500E43CFC90187F1228AD90187FE0FCA3E064
:07B73500FDA3E0FEA3E0FF0D
:01B73C0022EA
:105D63004C6F67696E3A200050617373776F72648A
:105D73003A20256325632563256325632563002571
:105D830063256325632563256325630A0D57656CC6
:105D9300636F6D6520746F207468652050543533CC
:105DA30030302054656C6E657420696E746572665C
:105DB3006163652E0A0D556E6974204E616D652E03
:105DC3003A20004041542B2B2B004F4B0A0D00402F
:105DD30041542D2D2D005354415455530025642E09
:105DE30025642E25642C25642E25642E25642C25FC
:105DF3003032582D253032582D253032582D25304C
:105E030032582D253032582D253032582C25640A2E
:105E13000D00475053535441545553000A0D4750F6
:105E230053204368616E6E656C204E756D626572BA
:105E33003A2030312C30322C30332C30342C303566
:105E43002C30362C30372C30382C30392C31302C48
:105E530031312C31322C31332C31342C31352C313E
:105E6300360A0D5369676E616C205175616C6974F4
:105E730079202020203A20253032692C25303269C0
:105E83002C253032692C253032692C253032692C8F
:105E9300253032692C253032692C253032692C2586
:105EA3003032692C253032692C253032692C25306B
:105EB30032692C253032692C253032692C25303259
:105EC300692C253032690A0D005369676E616C20B5
:105ED300537472656E6774682020203A202530322F
:105EE300752C253032752C253032752C25303275C2
:105EF3002C253032752C253032752C253032752CFB
:105F0300253032752C253032752C253032752C25F1
:105F13003032752C253032752C253032752C2530D6
:105F230032752C253032752C253032750A0D00441C
:105F3300484350000A0D44484350204C6561736543
:105F4300203A20256C750A0D0044484350204578BB
:105F5300706972653A20256C750A0D0044484350F8
:105F6300205431202020203A20256C750A0D00444E
:105F7300484350205432202020203A20256C750AB3
:105F83000D0044484350205374617465203A202522
:105F9300750A0D0044484350205365727665723A82
:105FA3002025752E25752E25752E25750A0D00477E
:105FB30050534C4F434B000A0D475053204C6F63D3
:105FC3006B205468726573686F6C64203A20257582
:105FD3000A0D00475053204C6F636B20436F756E5F
:105FE3007420202020203A2025750A0D0048454CB6
:105FF300500068656C70000A0D436F6D6D616E64CF
:10600300732E0A0D535441545553202020203A2017
:1060130053686F7720736F66747761726520766556
:106023007273696F6E732E0A0D4750535354415464
:106033005553203A2053686F772047505320496EB9
:10604300666F726D6174696F6E2E0A0D444843501A
:106053002020202020203A2053686F772044484393
:1060630050207374617475732E0A0D4750534C4F4F
:10607300434B2020203A2053686F7720475053200A
:106083004C6F636B207374617475732E0A0D004536
:0D609300584954004E6F74204F4B0A0D0009
:1097870042117D001742117BFFFF41115A00C1179B
:05979700420FD70000A5
:10BCF000E4FF7E80900FD9E4F0A3DEFC90117DE09C
:10BD0000FCA3E0FDE49018DCF0A3F0A37402F0A320
:10BD10007406F0E4A3F07B01A304F0A3740FF0A376
:10BD200074D9F0A3E4F0A37480F07A0C792012B3F4
:10BD3000E1EF3395E0FEC3648094805006E49011F7
:10BD40005AF02290117BEEF0A3EFF090115A74019B
:01BD5000F002
:01BD510022CF
:10314800E490185FF090117BE0FEA3E0FF7C007D27
:103158003D1225F474242FF9740C3EFA90185C740F
:1031680001F0A3EAF0A3E9F090115AE06401705C61
:10317800901059F090115A7403F0E4901850F0A38D
:10318800F0901851E0245BF582E43411F583E4F003
:10319800901851E004F07006901850E004F0901870
:1031A80050E07004A3E0642070D790175474FFF0C7
:1031B800A3745DF0A37463F07B017A10795A1257F7
:1031C8000A900FD5EEF0A3EFF0D2172290115AE033
:1031D800640360030232E390184EF0A3F090185C89
:1031E800E0FBA3E0FAA3E0F990001912269CFFC3C4
:1031F80090184FE09F90184EE095F04003023BE98D
:10320800A3E024D9F582E4340FF583E0FFB4FF0985
:1032180090185F7402F00232D290185FE0D39400E5
:103228004002803AEFC39420401A90184FE024D906
:10323800F582E4340FF583E0FFD3947E500612CA7A
:103248008D0232D290184FE024D9F582E4340FF57C
:1032580083E0B4080E901059E0D394004005E014C0
:10326800F0806790184FE024D9F582E4340FF58395
:10327800E0640D70459010597410F090115A740460
:10328800F090175474FFF0A3745DF0A3746BF0A36F
:1032980074FFF0A374FBF0A37401F0A374FFF0A310
:1032A80014F0A37401F0FB7A10795A12570A900FA0
:1032B800D5EEF0A3EFF0D217801090115AE0B403C6
:1032C80009901059E0B41002E4F090184FE004F0AF
:1032D800700690184EE004F00231E590115AE0644F
:1032E8000460030234B290184EF0A3F090185CE02A
:1032F800FBA3E0FAA3E0F990001912269CFFC39003
:10330800184FE09F90184EE095F04003023BE9907B
:103318001059E0942040037410F090184FE024D91D
:10332800F582E4340FF583E0FFC39420400CEFD31B
:10333800947E500612CA8D0234A190184FE024D909
:10334800F582E4340FF583E0B4080F901059E0D308
:1033580094004006E014F00234A190184FE024D9FC
:10336800F582E4340FF583E0640D60030234A19024
:103378001850F0A3F0901850E0FEA3E0FFC3941F8C
:10338800EE648094805034EF2421FFEE341CFE124A
:10339800CD11901851E0245BF582E43411F583E0F7
:1033A8006F600890117CE0FF02AB74901851E00444
:1033B800F070C2901850E004F080BAE4901059F010
:1033C80090115A7402F090175474FFF0A3745DF0D2
:1033D800A37482F0A374FFF0A374FCF0A37401F04B
:1033E800A37440F0A3F0A3F07B017A10795A125726
:1033F8000A900FD5EEF0A3EFF0E4901850F0A3F088
:10340800901850E0FEA3E0FFC39420EE64809480FF
:103418005054EF2401FFEE341CFE12CD11900FD64C
:10342800E0FE901851E02EFE245AF582E43410F59F
:1034380083EFF0745A2EF582E43410F583E07016A9
:10344800901850E0FEA3E0FF900FD6E02FF0900F09
:10345800D5E03EF08010901851E004F070A290186A
:1034680050E004F0809A900FD6E0FF245AF582E4E9
:103478003410F583740AF0745B2FF582E43410F588
:1034880083740DF0900FD6E02402F0900FD5E0344D
:1034980000F0D2177F2812B8CA90184FE004F070D5
:1034A8000690184EE004F00232F490115AE06402DB
:1034B800600302358090184EF0A3F090185CE0FB92
:1034C800A3E0FAA3E0F990001912269CFFC3901814
:1034D8004FE09F90184EE095F0400302357AA3E044
:1034E80024D9F582E4340FF583E0FFC39420400B20
:1034F800EFD3947E500512CA8D805490184FE02463
:10350800D9F582E4340FF583E0640D7042FF12CAE6
:103518008DE4901059F0785B7C117D017BFF7A5D1A
:1035280079C6122B24EF702790115A7405F0901762
:103538005474FFF0A3745DF0A374CDF07B017A108E
:10354800795A12570A900FD5EEF0A3EFF0D21790E0
:10355800184FE024D9F582E4340FF583E0FF12BE5A
:10356800C890184FE004F0700690184EE004F0027E
:1035780034C312CD95B2A52290115AE064056003B8
:10358800023BE990184EF0A3F090185CE0FBA3E032
:10359800FAA3E0F990001912269CFFC390184FE097
:1035A8009F90184EE095F04003023BE9A3E024D930
:1035B800F582E4340FF583E0FFC39420400CEFD389
:1035C800947E500612CA8D023BD890184FE024D939
:1035D800F582E4340FF583E0640D6003023BBFFF1E
:1035E80012CA8DE4901059F0785B7C117D017BFF45
:1035F8007A5D79D2122B24EF701690115A7402F06A
:1036080090175474FFF0A3745DF0A374CD023B755A
:10361800785B7C117D017BFF7A5D79D9122B24EFD1
:10362800600302373D7FFD7E2312CD58901852E487
:10363800F0A3EFF07FFE7E2312CD58901854E4F0EB
:10364800A3EFF07FFF7E2312CD58901856E4F0A325
:10365800EFF07FFD7EFF12CD58901858E4F0A3EFED
:10366800F07FFE7EFF12CD5890185AE4F0A3EFF0D9
:1036780074FFFFFE12CD587E0090175474FFF0A31C
:10368800745DF0A374E0F0901852E0FDA3E0901789
:1036980057CDF0A3EDF0901854E0FDA3E090175932
:1036A800CDF0A3EDF0901856E0FDA3E090175BCDA8
:1036B800F0A3EDF0901858E0FDA3E090175DCDF071
:1036C800A3EDF090185AE0FDA3E090175FCDF0A3AA
:1036D800EDF0A3EEF0A3EFF090001EE0FF9017636B
:1036E800EEF0A3EFF090001FE0FF901765EEF0A357
:1036F800EFF0900020E0FF901767EEF0A3EFF09056
:103708000021E0FF901769EEF0A3EFF0900022E0AF
:10371800FF90176BEEF0A3EFF0900023E0FF9017F7
:103728006DEEF0A3EFF090171AE0FF90176FEEF030
:10373800A3EF023B75785B7C117D017BFF7A5E7994
:1037480015122B24EF600302395890175474FFF0B8
:10375800A3745EF0A3741FF090170AE0FE3395E09F
:10376800901757F0A3CEF090170BE0FE3395E0903A
:103778001759F0A3CEF090170CE0FE3395E09017A0
:103788005BF0A3CEF090170DE0FE3395E090175D47
:10379800F0A3CEF090170EE0FE3395E090175FF09F
:1037A800A3CEF090170FE0FE3395E0901761F0A3D9
:1037B800CEF0901710E0FE3395E0901763F0A3CE9B
:1037C800F0901711E0FE3395E0901765F0A3CEF066
:1037D800901712E0FE3395E0901767F0A3CEF090B3
:1037E8001713E0FE3395E0901769F0A3CEF0901719
:1037F80014E0FE3395E090176BF0A3CEF090171508
:10380800E0FE3395E090176DF0A3CEF0901716E028
:10381800FE3395E090176FF0A3CEF0901717E0FEF7
:103828003395E0901771F0A3CEF0901718E0FE33AF
:1038380095E0901773F0A3CEF0901719E0FE33953A
:10384800E0901775F0A3CEF07B017A10795A1257E1
:103858000A900FD5EEF0A3EFF0E0245AF9E4341003
:10386800FA7B01C003C002C00190175474FFF0A393
:10387800745EF0A374CCF09016FAE0FF901757E44A
:10388800F0A3EFF09016FBE0FF901759E4F0A3EFD8
:10389800F09016FCE0FF90175BE4F0A3EFF09016B1
:1038A800FDE0FF90175DE4F0A3EFF09016FEE0FF57
:1038B80090175FE4F0A3EFF09016FFE0FF90176118
:1038C800E4F0A3EFF0901700E0FF901763E4F0A393
:1038D800EFF0901701E0FF901765E4F0A3EFF09088
:1038E8001702E0FF901767E4F0A3EFF0901703E0EA
:1038F800FF901769E4F0A3EFF0901704E0FF90172A
:103908006BE4F0A3EFF0901705E0FF90176DE4F07B
:10391800A3EFF0901706E0FF90176FE4F0A3EFF025
:10392800901707E0FF901771E4F0A3EFF0901708E5
:10393800E0FF901773E4F0A3EFF0901709E0FF9011
:103948001775E4F0A3EFF0D001D002D003023B34A6
:10395800785B7C117D017BFF7A5F7932122B24EF33
:103968006003023AD790175474FFF0A3745FF0A372
:103978007437F0900D9AE0FCA3E0FDA3E0FEA3E00D
:10398800FF9017571228AD7B017A10795A12570AFF
:10399800900FD5EEF0A3EFF0E0245AF9E43410FAD2
:1039A8007B0190175474FFF0A3745FF0A3744CF07C
:1039B800900D9EE0FCA3E0FDA3E0FEA3E0FF9017BE
:1039C800571228AD12570A900FD6E02FF0900FD556
:1039D800E03EF0A3E0245AF9E43410FA7B01901792
:1039E8005474FFF0A3745FF0A3745FF0900DA2E02D
:1039F800FCA3E0FDA3E0FEA3E0FF9017571228AD5B
:103A080012570A900FD6E02FF0900FD5E03EF0A3A2
:103A1800E0245AF9E43410FA7B0190175474FFF04B
:103A2800A3745FF0A37472F0900DA6E0FCA3E0FD10
:103A3800A3E0FEA3E0FF9017571228AD12570A9093
:103A48000FD6E02FF0900FD5E03EF0A3E0245AF90E
:103A5800E43410FA7B0190175474FFF0A3745FF0FC
:103A6800A37485F0900DAAE0FF901757E4F0A3EF38
:103A7800F012570A900FD6E02FF0900FD5E03EF0E5
:103A8800A3E0245AF9E43410FA7B0190175474FF28
:103A9800F0A3745FF0A37497F0900DACE0FF90175B
:103AA80057E4F0A3EFF0900DADE0FF901759E4F064
:103AB800A3EFF0900DAEE0FF90175BE4F0A3EFF0FA
:103AC800900DAFE0FF90175DE4F0A3EFF0805D7814
:103AD8005B7C117D017BFF7A5F79B2122B24EF703A
:103AE8005B90175474FFF0A3745FF0A374BAF0A34B
:103AF800E4F0A3743CF07B017A10795A12570A90CB
:103B08000FD5EEF0A3EFF0E0245AF9E43410FA7B75
:103B18000190175474FFF0A3745FF0A374D6F0906B
:103B28001501E0FF901757E4F0A3EFF012570A9041
:103B38000FD6E02FF0900FD5E03E8076785B7C11B1
:103B48007D017BFF7A5F79F0122B24EF6012785B9E
:103B58007C117D017BFF7A5F79F5122B24EF7020B1
:103B680090175474FFF0A3745FF0A374FAF07B010C
:103B78007A10795A12570A900FD5EEF0A3EF8032D7
:103B8800785B7C117D017BFF7A607992122B24EFA0
:103B98007002803490175474FFF0A37460F0A3741B
:103BA80097F07B017A10795A12570A900FD5EEF0E8
:103BB800A3EFF0D217801990184FE024D9F582E4CA
:103BC800340FF583E0B4180890117CE0FF12AB7451
:103BD80090184FE004F0700690184EE004F002359B
:013BE800914B
:013BE90022B9
:109E7700E4901A3EF090117BE0FEA3E0FF7C007DAA
:109E87003D1225F474242FF9740C3EFA901A3F748E
:109E970001F0A3EAF0A3E9F09016D3E07002A3E083
:109EA700704C901647E0FEA3E0FFD39400EE9400B9
:109EB700403C900FD5EEF0A3EFF0E4901A3DF09000
:109EC7001A3DE0FFD3900FD6E09F900FD5E09400A6
:109ED700401A12C50B901A3DE0245AF582E434105B
:109EE700F583EFF0901A3DE004F080D3D21790117C
:109EF7005AE0FF6402600EEF64036009EF640460D8
:109F070004EFB40546301743C2177B017A10795A1C
:109F1700C003C002C001901A3FE0FBA3E0FAA3E030
:109F2700F990000E122943900FD5E0FEA3E0FF90B1
:109F37001A3FE0FBA3E0FAA3E0F9900011EE8FF0DF
:109F47001226D4901A3E748EF0800990115AE07050
:109F57000312BCF090115AE0B4070890117CE0FF9F
:089F670012AB74901A3EE0FFFA
:019F6F0022CF
:0FCD020090115AE064076002E4F07F0502B8CA9E
:10CA8D00901059E0C394204002E4F0901059E02436
:10CA9D005BF582E43411F583EFF0901059E004F06A
:01CAAD002266
:08B0D000901A42EEF0A3EFF02C
:10B0D80090117BE0FEA3E0FF7C007D3D1225F47417
:10B0E800242FF9740C3EFA7B01901A44EBF0A3EA82
:10B0F800F0A3E9F0901A42E0FFA3E0900011CF8F8F
:10B10800F01226D47A16794FC003C002C001901AF3
:10B1180044E0FBA3E0FAA3E0F990000E122943E40F
:10B12800901647F0A3F090117CE0FF901A44E0FBE2
:10B13800A3E0FAA3E0F990000E122913C003C0029D
:10B14800C001901A44E0FBA3E0FAA3E0F9900011D3
:10B1580012269CFD901932E5F0F0A3EDF0D001D055
:06B1680002D0031288FD75
:01B16E0022BE
:10CACD00E4FFFEE4FDFC000DBD00010CBC08F7BD4C
:0DCADD0098F40FBF00010EEF64284E70E6C4
:01CAEA002229
:0FCCF200E4FFFE000FBF00010EBE01F7BF22F4EA
:01CD0100220F
:10CC7600D2B112CCF2C2B012CCF2C2B112CCF2D204
:04CC8600B002CCF23A
:0CCD6400C2B0D2B112CCF2D2B002CCF2BC
:02CA6A00AD0716
:10CA6C00E4FBED3392B012CCF2D2B112CCF2C2B1E3
:10CA7C00ED25E0FD12CCF20BEBB408E6D2B002CC03
:01CA8C00F2B7
:05C93D00E0FF12CA6AD0
:10C94200E4FF7E01D2B0EE600DA2B0E433FE0FEF41
:10C95200B4FFF37F0022D2B112CCF2C2B112CCF2F8
:02C962007F0153
:01C9640022B0
:05B8CA00901AA2EFF04E
:10B8CF00E4A3F0A3F0EF24FB601424DD60182468D8
:10B8DF00601C24AE701E901AA37407F08016901A85
:10B8EF00A37402F0800E901AA37401F08006901AD0
:10B8FF00A37404F012CC767F6812CA6A12C9429000
:10B90F001AA4EFF07002FF227FC012CA6A12C94256
:10B91F00901AA4EFF07002FF22901AA312C93DA350
:10B92F00EFF07002FF22901AA212C93D901AA4EFF5
:09B93F00F012CD6412CACDE0FF44
:01B9480022DC
:07CD8E002575202020200084
:10979C0041174F006020172B202020202020202054
:1097AC0020202020202020202020202020202020AD
:1097BC0020202020202020204117500044174B004F
:0397CC000000009A
:0ACD7B00E4F58475C3A643C004224A
:03243B0002B20DDD
:10B20D00C0E0C0F0C083C082C0D075D000C000C007
:10B21D0001C002C003C004C005C006C007AFC1EF26
:10B22D002480601724E0605424F8603A24F06036DE
:10B23D002458704B90174FE4F0804490174FE0FF67
:10B24D0004F0741B2FF582E43417F583E5C2F090FA
:10B25D00174FE064017028E5C230E723E5C2543F83
:10B26D00FF1297E48019901750E0FF04F0742B2F14
:10B27D00F582E43417F583E0F5C2800312A6CF53AF
:10B28D00C0F7D007D006D005D004D003D002D0012E
:0DB29D00D000D0D0D082D083D0F0D0E032ED
:10A6CF0090171BE0B40700400302A7A390A6E2F87F
:10A6DF0028287302A6F702A71902A73A02A75B025E
:10A6EF00A77C02A79402A79F90171FE0900010F07D
:10A6FF0090171EE0900011F090171DE0900012F0DF
:10A70F0090171CE090001302A79B90171FE090007A
:10A71F001AF090171EE090001BF090171DE09000AC
:10A72F001CF090171CE090001D806190171FE090A7
:10A73F000024F090171EE0900025F090171DE09078
:10A74F000026F090171CE0900027804090171FE024
:10A75F0090174BF090171EE090174CF090171DE0DC
:10A76F0090174DF090171CE090174EF02290171C89
:10A77F00E09015BBF0700B900010F0A3F0A3F0A3C6
:10A78F0004F0D2142290171CE0901646F0D2142237
:05A79F00D20FD21422CC
:1097E400E4901750F0EFB40A0040030298EA90970F
:1097F400F9F828287302981702983D02986E029887
:109804008B0298A80298C90298D50298DA0298EABD
:109814000298E390175474FFF0A374CDF0A3748EF0
:10982400F090117DE0FFA3E0901757CFF0A3EFF085
:109834007B017A17792B02570A90001EE090172BB0
:10984400F090001FE090172CF0900020E090172D6E
:10985400F0900021E090172EF0900022E090172F56
:10986400F0900023E0901730F022900013E090175E
:109874002BF0900012E090172CF0900011E090175C
:109884002DF0900010803890001DE090172BF09080
:10989400001CE090172CF090001BE090172DF09026
:1098A400001A801B900027E090172BF0900026E010
:1098B40090172CF0900025E090172DF0900024E0F4
:1098C40090172EF022E490172BF0A3F0A3F0A3F04E
:1098D400229015BB8003901646E090172BF022903F
:1098E400172B740AF022E4FF74D92FF582E434169E
:1098F400F583E0FE742B2FF582E43417F583EEF044
:059904000FEFB420E3A9
:01990900223B
:01FFFA000105
:02FFFB0042DAE8
:03FFFD00010102FD
:0597CF00420D980000AE
:10AEDE00900DABE0600302AF84900DAAE0C394091D
:10AEEE00500302AF84900D98E475F00112265B902A
:10AEFE000D98E07004A3E064647022900D98F0A3A6
:10AF0E00F0900D9E122885EF24FFFFEE34FFFEED2C
:10AF1E0034FFFDEC34FFFC900D9E1228AD900DA277
:10AF2E00122885900D9E1228A1D312284E5047E468
:10AF3E00FFFEFDFC900D9E1228A1C312284E700537
:10AF4E00900DAAF022900DA6122885900D9E122823
:10AF5E00A1D312284E5007900DAA740BF022900D1B
:10AF6E00A2122885900D9E1228A1D312284E5006AB
:06AF7E00900DAA740AF018
:01AF840022AA
:0C4FA20090179C12290A90179F1228AD4E
:104FAE00E49017A3F0A3F0A3F0A3F09017B2F0A330
:104FBE00F0900DAAE07003025323E064076004E052
:104FCE00B40A087B017A0D79AC80067B017A1879D8
:104FDE002F9017B412290A901865E4F0A37443F0C9
:104FEE00A37411F0E4A3F07B017A0D79B1A3122919
:104FFE000A90186C7402F0A37424F09017B412285F
:10500E00EA7D447C00126C659017A7EFF0C36480B4
:10501E0094805003025314E0FF3395E0FE7C007D34
:10502E003D1225F474242FF9740C3EFA7B0190176F
:10503E00A912290A9017A3E07002A3E0600302539D
:10504E00049017A8F090CA59E493FF9017A8E0C3F4
:10505E009F40030252E790179C1228EA90179F1266
:10506E002885125A0A9017AC1228AD9017B2E0900C
:10507E000DB9F09017B3E0900DBAF09017B4122856
:10508E00EA740190182F6B7008E965827003EA6567
:10509E00837007900DB004F08005E4900DB0F07BA6
:1050AE00017A0D79B1C003C002C0019017A9122870
:1050BE00EA90000E1229439017A91228EA900011C7
:1050CE00740275F0241226D41287639017A5EEF0A1
:1050DE00A3EFF0900DAAE0B4070B9017A3E4F0A392
:1050EE0004F00252E79017A8E02401FFE433FEEF2C
:1050FE007802C333CE33CED8F9FF9017B0EEF0A3BB
:10510E00EFF0C39017A5E06480948050159017B00F
:10511E00E0FEA3E0FF7C007D641225F412CB620258
:10512E0052DE900DB07401F07B017A0D79B19018BA
:10513E00027402F0A37424F09017B0E0FEA3E0FF17
:10514E007C007D641225F4901804EEF0A3EFF0902D
:10515E0017A7E0FF1284069017A5EEF0A3EFF0D389
:10516E009400EE6480948050030252C5900DB8E016
:10517E00FFE4FCFDFE7808122872A804A905AA0611
:10518E00AB07900DB7E0FFE4FCFDFE12282B78086C
:10519E00122872A804A905AA06AB07900DB6E0FF67
:1051AE00E4FCFDFE12282B7808122872A804A9052B
:1051BE00AA06AB07900DB5E0FFE4FCFDFE12282B0E
:1051CE009017AC1228A1C312284E60030252C5904C
:1051DE000DB1E0640260030252C5900DAAE024FDF9
:1051EE00602624F9602214601F240A60030252B95B
:1051FE0012CC38BF020F900DAA7403F012CAEB1234
:10520E00CB270252D40252B912CC38EF6405600398
:10521E000252AC78107C007D017B017A0D79C1FEC3
:10522E007F0412257612CB0912CB4512CB2712A280
:10523E004D900D9E1228AD900D9E122885900D9AC0
:10524E001228AD12CAEB74FFFFFEFDFC900D9E12EC
:10525E0028A1C312284E7007900DAB04F0802FE4E6
:10526E007B02FAF9F8900D9E122885122799900D5F
:10527E00A21228ADE47B08FAF9F8900D9E1228854B
:10528E00122799900DA61228ADE4900DABF0900D5B
:10529E00AA7409F09017A3E4F0A304F0802812CCAE
:1052AE0038EF6402700302513680009017A374FF2A
:1052BE00F0A3749CF0800F9017B0E0FEA3E0FFA364
:1052CE00EE8FF012265B9017A3E07002A3E0700938
:1052DE009017A8E004F00250539017A5E0FEA3E04B
:1052EE00FFD39400EE6480948040030250429017E6
:1052FE00A3EEF0A3EFF0900DB074FFF09017A7E0BF
:10530E00FF12B02C800F9017A7E0FE3395E0901798
:0D531E00A3F0A3CEF09017A3E0FEA3E0FFE4
:01532B00225F
:0C5A0A0090190512290A9019081228AD05
:105A1600900DAAE024FD7003025AB224FC601424FF
:105A2600FD7003025AB2147003025AB2240A6003CC
:105A3600025B3212242EEF2401FFE43EFEE433FD26
:105A4600E433FC7810122872C004C005C006C007F3
:105A560012242EEF2401FFE43EFEE4FCFDD003D029
:105A660002D001D00012282B90190C1228AD9019E3
:105A76000C122885900DB5EFF090190C1228857838
:105A86000812285F900DB6EFF090190C1228857851
:105A96001012285F900DB7EFF090190C1228857838
:105AA6001812285F900DB8EFF0025B3C900DB8E03D
:105AB600FFE4FCFDFE90190C1228AD90190C12287B
:105AC600857808122872A804A905AA06AB07900DC6
:105AD600B7E0FFE4FCFDFE12282B90190C1228AD4E
:105AE60090190C1228857808122872A804A905AA0C
:105AF60006AB07900DB6E0FFE4FCFDFE12282B90E6
:105B0600190C1228AD90190C1228857808122872E3
:105B1600A804A905AA06AB07900DB5E0FFE4FCFDB5
:105B2600FE12282B90190C1228AD800A90190C121F
:105B360028B900000000900DB17401F0A3F0A37421
:105B460006F07E007F047D007B017A0D79C5122C5C
:105B56002A7E007F047D007B017A0D79C9122C2AEA
:105B660078CD7C0D7D017B017A00791E7E007F0653
:105B76001225769019051228EAE94A6011781D7CEB
:105B86000E7D019019051228EA122C0D8005E4906D
:105B96000E1DF07B017A0E799D90191012290A903C
:105BA6001910E475F0011228F374631225E29019B6
:105BB60010E475F0011228F374821225E290191090
:105BC600E475F0011228F374531225E2901910E4DB
:105BD60075F0011228F374631225E2901910E4752A
:105BE600F0011228F374351225E2901910E475F0CD
:105BF600011228F374011225E2900DAAE024FD603B
:105C06004E24FC7003025D2724FD7003025CE5143C
:105C16007003025CE5240A6003025D51900DBB74BB
:105C260080F07E007F047D007B017A0D79C1122C05
:105C36002A7E007F047D007B017A0D79BD122C2A15
:105C4600901910E475F0011228F37401025D1690A4
:105C56000DBB7480F07E007F047D007B017A0D7998
:105C6600BD122C2A901910E475F0011228F3740362
:105C760012243E12C1D690191012290A901910E466
:105C860075F0011228F374321225E2901910E475AA
:105C9600F0011228F374041225E2E4FF74C12FF513
:105CA60082E4340DF583E0FE901910E475F00112DC
:105CB60028F3EE1225E20FEFB404E1901910122832
:105CC600EA12AC2B12BDB190191012290A7E007F80
:105CD600047D007B017A0D79C1122C2A025D51E404
:105CE600900DBBF0FE7F04FD7B017A0D79C1122C6D
:105CF6002A78BD7C0D7D017B017A0079107E007FBC
:105D060004122576901910E475F0011228F3740335
:105D160012243E90191012290A12AC2B12BDB18022
:105D260024E4900DBBF0FE7F04FD7B017A0D79C162
:105D3600122C2A901910E475F0011228F374071238
:105D4600243E12C1D690191012290A901910122851
:0C5D5600EA74FF1225E290190C12288557
:015D6200221E
:10B2AA007B017A0E79A1901A1312290AE92437F937
:10B2BA00EA3401FA901A1612290A901A131228EA85
:10B2CA0012259CFE6F606EEEF46021901A16122809
:10B2DA00EAC003C002C001901A131228EAD3D0822E
:10B2EA00D083D0E0E99582EA9583400E7B007A000C
:10B2FA007900901A1312290A803BEE7017901A14DB
:10B30A00E475F00112265B901A131228EA12259CA2
:10B31A0060EB80A6901A14E475F00112265B901A6D
:10B32A00131228EA12259C04FEFD901A14E48DF0EB
:0BB33A0012265B8085901A131228EA8F
:01B3450022E5
:10CC3800E4FC7F3512B2AAE94A6007900002122587
:04CC4800B5FCAF0484
:01CC4C0022C5
:10A24D009019F21228B9000000007F3312B2AA90C3
:10A25D0019F612290AE94A700302A3379019F7E497
:10A26D0075F00212265B9019F61228EA12259CFF52
:10A27D00E4FCFDFE78181228729019F21228AD90A8
:10A28D0019F7E475F00112265B9019F21228A1C09E
:10A29D0000C001C002C0039019F61228EA12259CD5
:10A2AD00FFE4FCFDFE7810122872D003D002D0011D
:10A2BD00D0001227019019F21228AD9019F7E4750C
:10A2CD00F00112265B9019F21228A1C000C001C046
:10A2DD0002C0039019F61228EA12259CFFE4FCFD3A
:10A2ED00FE7808122872D003D002D001D0001227B8
:10A2FD00019019F21228AD9019F7E475F0011226AC
:10A30D005B9019F21228A1C001C002C0039019F68A
:10A31D001228EA12259CFFE4FCFDFED003D002D0EA
:10A32D00011227019019F21228AD9019F212288509
:01A33D0022FD
:10CAEB007F3612B2AAE94A6014740229F9E43AFAC1
:0DCAFB0078AC7C0D7D017E007F0412257655
:01CB0800220A
:09243E001225E29019101228EA9F
:06244700901AA512290AFB
:10244D00901AA5E475F0011228F3743D1225E2905F
:10245D001AA5E475F0011228F374071225E2901AFB
:10246D00A5E475F0011228F374011225E2E4FF745E
:10247D001E2FF582E43400F583E0FE901AA5E47575
:10248D00F0011228F3EE1225E20FEFB406E1901AD7
:04249D00A51228EA72
:0124A1002218
:06C1D60090191012290A65
:06C1DC00901AA812290AC6
:10C1E200901AA8E475F0011228F374361225E29031
:10C1F2001AA8E475F0011228F374041225E2E4FF90
:10C2020074AC2FF582E4340DF583E0FE901AA8E4B5
:10C2120075F0011228F3EE1225E20FEFB404E1905B
:05C222001AA81228EA31
:01C2270022F4
:06AC2B00901908122885B3
:10AC31009019F912290A9019FC1228ADE4FFFEFDC2
:10AC4100FC9019FC1228A1C312284E700C90CA5A0C
:10AC51001228919019FC1228AD9019F9E475F001B0
:10AC61001228F374331225E29019F9E475F00112F8
:10AC710028F374041225E29019FC12288578181221
:10AC8100285F9019F9E475F0011228F3EF1225E21B
:10AC91009019FC122885781012285F9019F9E47533
:10ACA100F0011228F3EF1225E29019FC12288578A1
:10ACB1000812285F9019F9E475F0011228F3EF12D8
:10ACC10025E29019FFE0FF9019F9E475F0011228CF
:0CACD100F3EF1225E29019F91228EA2294
:06BDB10090191012290A8E
:10BDB700901AAB12290A901AABE475F0011228F316
:10BDC70074371225E2901AABE475F0011228F37468
:10BDD700031225E2901AABE475F0011228F37401FF
:10BDE7001225E2901AABE475F0011228F3740312DE
:10BDF70025E2901AABE475F0011228F374061225B8
:08BE0700E2901AAB1228EA22B6
:10CB09007F0112B2AAE94A6014740229F9E43AFAD7
:0DCB1900781A7C007D017E007F04122576D5
:01CB260022EC
:10CB45007F0312B2AAE94A6013740229F9E43AFA9A
:0CCB550078247C007D017E000F12257604
:01CB610022B1
:10CB27007F0612B2AAE94A6014740229F9E43AFAB4
:0DCB370078727C1A7D017E007F0412257645
:01CB440022CE
:06A9FB00901A191228ADAC
:10AA0100900DABE0600302AAA7900DAAE0C39409E0
:10AA1100500302AAA77B007A007900901A19122824
:10AA210085124FA2901A1DEEF0A3EFF064014E6063
:10AA31006D900DAAE0B40A2FE47B02FAF9F8900DAB
:10AA41009A122885122799900DA21228A1C31228C3
:10AA51004E7014900DA2122885E47B02FAF9F812C7
:10AA61002799900DA28034900DAAE0B40B30E47BBD
:10AA710008FAF9F8900D9A122885122799900DA6D7
:10AA81001228A1C312284E7015900DA6122885E434
:10AA91007B02FAF9F8122799900DA61228AD900DB4
:10AAA100AA7409F08008901A1DE4F0A304F0901A2A
:06AAB1001DE0FEA3E0FF22
:01AAB700227C
:0CC77D00901A0012290A901A031228AD2D
:10C789007E007F047D007B017A007910122C2A90AB
:10C799000DAA7401F0901A001228EA901A031228BF
:04C7A90085124FA204
:01C7AD002269
:068763009018C712290A5C
:10876900E94A70057EFF7F85229018C71228EA1210
:10877900C9FF9018CAEEF0A3EFF04E7003FEFF2276
:108789009018C71228EA90000E1229139018CE12D9
:10879900290A9018CBE02408FF9018CAE03400FE9B
:1087A9009018CCF0FCA3EFF0FD9018C71228EA123C
:1087B9002671FBAAF0C002C0039018C71228EA90DC
:1087C900000212269CFF9018AAE5F0F0A3EFF07BB7
:1087D900017A007910A312290A9018C71228EAE928
:1087E9002404F9E43AFA9018AF12290AD003D00206
:1087F9007F11128F009018D11228AD9018CE12282F
:10880900EA9018CAE0FFA3E090195CCFF0A3EFF05B
:108819009018D112288512A9369018D11228AD9036
:1088290018D112288512C2779018D11228AD901844
:10883900D3E0FFA3E0A3CFF0A3EFF09018C712286D
:10884900EA90001B1225B5FD9018CCE0FFA3E0903B
:108859001887CFF0A3EFF09018C71228EA127C947A
:10886900EF6401600280779018C71228EA12267116
:10887900E5F0FF12C6099018C71228EA122671FFFF
:1088890012C6099018C71228EA90000212269CE520
:10889900F0FF12C6099018C71228EA9000021226A2
:1088A9009CFF12C6099018CCE0FF12C6099018CD9A
:1088B900E0FF12C6099018D5E0FF12C6099018D634
:1088C900E0FF12C6099018C71228EA9018CAE0FCFE
:1088D900A3E0FD12C2C6D3EF648094805006EF3343
:1088E90095E0FE229018C71228EA90001112269CE2
:0388F900FFAEF0DF
:0188FC002259
:10C83D00901AAEEFF0A3EDF0A3EBF0129C5CEF4E6F
:10C84D0070057EFF7F8B22C2AF12CD4AD2AF901AF8
:0DC85D00AEE0FFA3E0FDA3E0FB12958F22EB
:0597D40042182800000E
:10BB3E00129C5CEF4E70057EFF7FFF22E490182A68
:10BB4E00F0A3F0FBFAF9A312290A7E007F047D0010
:10BB5E000B7A187937122C2A7E007F047D007B0128
:10BB6E007A187933122C2A7E007F047D007B017AAD
:10BB7E000C7920122C2A90CA607401932409FFE4D8
:10BB8E00933400FE7D007B017A0D7918122C2A90D9
:10BB9E00183274FFF0901831F0901830F090182F82
:06BBAE00F07E007F012281
:10C8C100129B42901AD8EFF030E210128A97C3EF10
:10C8D10064809480400F129F70800A901AD8E030D3
:0AC8E100E60312A86E901AD8E0FFDB
:01C8EB00222A
:109B4200E490182AF0A3F012CC9ED3EF9400EE64B6
:109B520080948050037F002212BE0FEF901A20F0F3
:109B6200A3E4F012BE0F901A20EE8FF012265B9043
:109B72001A20E0FEA3E0FFD394EEEE94055004EF2A
:109B82004E700612CC8A7F00229018BF1228EA90EB
:109B92001A20E0FEA3E029F9EA3EFAA312290A906C
:109BA200CA4CE493FE740193FF2411F974063EFA41
:109BB2007B01C003C002C001901A221228EAD3D04E
:109BC20082D083D0E0E99582EA95835008901A22E8
:109BD2001228EA802E9018BF1228EA74112FF582FB
:109BE20074063EFEC3E58299FFEE9AFEC3901A21E7
:109BF200E09FFF901A20E09EFE7B0174112FF97402
:109C0200063EFA90182C12290A12B62BEF1460099C
:109C12000470037F20227F0022126EF2901A1FEF3F
:109C2200F06004E030E30512A86E802890CA58E480
:109C3200936021901A1FE0FF20E00620E10330E24A
:109C4200137B017A0079149019C212290A7A1879C1
:099C52003712A7B4901A1FE0FFBD
:019C5B0022E6
:0B7C9400901886EDF090188312290A6A
:107C9F00E94A70037F8522900DB0E0FEF4601290E8
:107CAF0018831228EA122671644445F060037FA4FA
:107CBF0022EE6401601D78107C007D017B017A0C3F
:107CCF0079207E007F04122ED5EF3395E04F70039D
:107CDF007F8522901887E475F01412265B90182880
:107CEF00E475F00112265B901828E0FFA3E09018CE
:107CFF008FCFF0A3EFF09018831228EA90001D1297
:107D0F0025B530E40590CA5F800390CA5EE493FE08
:107D1F00901886E0FDEDFF901891EEF0A3EFF09034
:107D2F001887E0FCA3E0FDE49017BDF0A3F09018D6
:107D3F0091E0FFA3E09017BFCFF0A3EFF07B017AA4
:107D4F00007910A312290A9018831228EAE9240453
:107D5F00F9E43AFA9017C412290AE49017C7F09081
:107D6F00188FE0FAA3E0FB7F007E45128241901846
:107D7F00891228AD901889122885780812285F90EB
:107D8F00188DEFF090188912288590188EEFF090CB
:107D9F001886E0B40107E4901893F08012900DB0AC
:107DAF00E0B401047F0180027F00901893EFF09000
:107DBF0018831228EA901893E0901993F07D007CB5
:107DCF0008129453EF64016001227F4512C609E443
:107DDF00FF12C609901887E0FF12C609901888E0B5
:107DEF00FF12C60990188FE0FF12C609901890E095
:107DFF00FF12C609E4FF12C609E4FF12C609901864
:107E0F00831228EA90001D1225B530E40590CA5F51
:107E1F00800390CA5EE493FF12C609901886E0FFB4
:107E2F0012C60990188DE0FF12C60990188EE0FF58
:107E3F0012C609900010E0FF12C609900011E0FF72
:107E4F0012C609900012E0FF12C609900013E0FF5E
:107E5F0012C6099018831228EA9000041225B5FF64
:107E6F0012C6099018831228EA9000051225B5FF53
:107E7F0012C6099018831228EA9000061225B5FF42
:107E8F0012C6099018831228EA9000071225B5FF31
:057E9F0012C6097F017D
:017EA40022BB
:10A86E0090182C1228EAC003C002C0019018BF1223
:10A87E0028EAD082D083D0E06B7008E9658270033D
:10A88E00EA6583700302A93590182C1228EAC003DA
:10A89E00C002C0019018BF1228EAC3D082D083D064
:10A8AE00E0E99582EA958350179018BF1228EAAE18
:10A8BE0002AF0190182C1228EAC3E99FFFEA80220A
:10A8CE0090182C1228EAAE02AF019018BF1228EA97
:10A8DE00C3E99FFFEA9EFEC390CA4C7401939FFF8B
:10A8EE00E4939E901AD3F0A3EFF09018C4E0FEA369
:10A8FE00E0FFD3901AD4E09F901AD3E09E4003025B
:10A90E00CC8AC2AF901AD3E0FEA3E0FFC39018C565
:10A91E00E09FF09018C4E09EF090182C1228EA9058
:07A92E0018BF12290AD2AF85
:01A9350022FF
:106EF200E490189CF012BE0F901899EFF0E0FE5447
:106F02000FA3F0EEC4540F6404600302714FE0FF5C
:106F1200C39405500302714FEF25E025E0F024EC05
:106F2200A3F012BE0F901894EFF012BE0FEF90185C
:106F32002AF0A3E4F012BE0F90182AEE8FF0122668
:106F42005BC390182BE0941490182AE0940050032D
:106F52007F002212BE0FEF90189DF0A3E4F012BE44
:106F62000F90189DEE8FF012265B12BE0FEF901855
:106F72009FF0A3E4F012BE0F90189FEE8FF012263E
:106F82005B9018A0E030E50790189CE04410F012E6
:106F9200BE0F901895EFF012BE0F901896EFF014F6
:106FA200601D14602324F1600D240B702490189C42
:106FB200E04401F0802290189CE04402F080199095
:106FC200189CE04404F0801090189CE04440F0804B
:106FD2000790189CE04408F012BE0F901897EFF04B
:106FE20012BE0F901898EFF012BE0F901837EFF004
:106FF20012BE0F901838EFF012BE0F901839EFF052
:1070020012BE0F90183AEFF0901837E0FFC394E0E9
:107012004009EFD394EF50037F002212BE0F901865
:1070220033EFF012BE0F901834EFF012BE0F90182B
:1070320035EFF012BE0F901836EFF0900010E070AE
:107042001A90189CE030E21378107C007D017B01DD
:107052007A1879337E007F0412257612CDA5EF705F
:1070620047900010E0FF901833E0FE6F6004EEF4EA
:107072007033900011E0FF901834E0FE6F6004EE70
:10708200B4FF22900012E0FF901835E0FE6F60041A
:10709200EEB4FF11900013E0FF901836E0FE6F602F
:1070A20007EEF460037F0022901899E0FE90189496
:1070B200E0FDEDFFC006C00790182AE0FCA3E0FD4A
:1070C20090189FE0FFA3E09017BDCFF0A3EFF090E0
:1070D2001895E0FEA3E0FBEBFF9017BFEEF0A3EFE5
:1070E200F07B017A187933A312290A7A187937903A
:1070F20017C412290A90189BE09017C7F090189DA8
:10710200E0FAA3E0FBD007D0061282419018A11248
:1071120028AD9018A1122885780812285F90189738
:10712200E0B5070D9018A1122885901898E06F60BD
:10713200037F002290189AE0FFC390182BE09FF083
:0F71420090182AE09400F090189CE0FF227F0044
:01715100221B
:02CDA500E4FFA9
:01CDA7002269
:0E8241009017B9ECF0A3EDF0A3EAF0A3EBF078
:10824F00E4FCFD9017C81228AD9017C81228A1C0E2
:10825F0000C001C002C0039017C11228EA900001AC
:10826F001225B5FD12259CFEEDFFE4FCFDD003D0D9
:10827F0002D001D0001227019017C81228AD901715
:10828F00C81228A1C000C001C002C0039017C112BC
:10829F0028EA9000021225B5FE9000031225B5FDC5
:1082AF00EDFFE4FCFDD003D002D001D00012270176
:1082BF009017C81228AD9017C81228A19017B9E0CF
:1082CF00FEA3E0FFE4FCFD1227019017C81228ADB2
:1082DF009017C81228A19017BBE0FEA3E0FFE4FCA3
:1082EF00FD1227019017C81228AD9017C81228A1A8
:1082FF009017BDE0FEA3E0FFE4FCFD1227019017ED
:10830F00C81228AD9017C81228A19017BFE0FEA37E
:10831F00E0FFE4FCFD1227019017C81228AD90175B
:10832F00C81228A1C000C001C002C0039017C41218
:10833F0028EA9000011225B5FD12259CFEEDFFE401
:10834F00FCFDD003D002D001D0001227019017C836
:10835F001228AD9017C81228A1C000C001C002C0DA
:10836F00039017C41228EA9000021225B5FE900060
:10837F00031225B5FDEDFFE4FCFDD003D002D001C3
:10838F00D0001227019017C81228AD9017C7E0FF31
:10839F00604F20E04CE49017CEF09017C7E0FF90AD
:1083AF0017CEE0C39F503A12BE0FEF9017CCF0A339
:1083BF00E4F012BE0F9017CCEE8FF012265B9017E1
:1083CF00C81228A19017CCE0FEA3E0FFE4FCFD1239
:1083DF0027019017C81228AD9017CEE02402F08025
:1083EF00B99017C812288512C2779017C81228ADF6
:0683FF009017C81228854A
:018405002254
:108A970090198574FFF012BE0F901984EFF06408E7
:108AA7006003028C1B90CA6004932408FFE493348C
:108AB70000FE90182AE0FCA3E0FDD39FEC9E400344
:108AC700028C1BC3ED9404EC94005003028C1BE44E
:108AD700901865F0A3F0A304F0E4A3F0FBFAF9A360
:108AE70012290AE490186CF0A3F00B7A187937FD75
:108AF700FC126C65901985EFF0C364809480500375
:108B0700028C1B12BE0F901984EFF090182BE024F3
:108B1700FEFE90182AE034FF901987F0A3CEF0905C
:108B27001985E0900D18F0901987E0900D19F090D5
:108B37001988E0900D1AF090198774FF75F0FE12EE
:108B4700265B12BE0F901986EFF012BE0F901986A2
:108B5700E02408F0C3940850010F901986E0900DA7
:108B67001BF0A3EFF07B017A0D791D90198912296B
:108B77000A9018BF1228EA90CA4CE493FC74019338
:108B87002411F58274063CFCC3E58299FFEC9ACF69
:108B97002401CF340090198CF0FCA3EFF0FD90195D
:108BA70087E0FEA3E0FFD39DEE9C5012A31228EAB4
:108BB700A801AC02AD039018BF1228EA80539019A0
:108BC7008CE0FEA3E0FF9019891228EAA801AC0205
:108BD700AD039018BF1228EA12257690198CE0FE93
:108BE700A3E0FFC3901988E09FF0901987E09EF0FB
:108BF700E0FCA3E0FDC004C005A31228EAE92FF9B1
:108C0700EA3EA801FCAD037B017A067912D007D0B2
:0C8C17000612257612A86E901985E0FF69
:018C2300222E
:109F7000900D18E0901A27F0C3648094805003027B
:109F8000A065E0FFFD3395E0FC900C4275F03DEDDF
:109F9000122CEDEC75F03DA42583F583E020E00361
:109FA00002A065EF3395E0FE7C007D3D1225F47440
:109FB000242FF9740C3EFA7B01901A2812290A907A
:109FC000001B1225B56401600302A065900D19E025
:109FD000901A25F0A3E4F0900D1AE0FF901A25E402
:109FE0008FF012265B90CA607401932406FFE493FD
:109FF0003400FED3901A26E09F901A25E09E505D13
:10A000007A0D791BC003C002C001901A281228EAF9
:10A0100090000E122943901A25E0FEA3E0FF901A4B
:10A02000281228EA900011EE8FF01226D4EF2402B5
:10A03000FFE43E901887F0A3EFF07D01127C94EFCF
:10A04000601BE4FF12C609E4FF12C609901A281229
:10A0500028EA901A25E0FCA3E0FD12C2C6901A2758
:05A06000E0FF12B02C2E
:01A0650022D8
:10CC8A00C2AF12CB7C7B017A06791290182C12293A
:04CC9A000AD2AF22E9
:108F00009018A5EFF0A3ECF0A3EDF0A3EAF0A3EB2B
:018F1000F070
:108F11009018AC1228EA9000011225B5FD12259C8B
:108F2100FEEDFFE4FCFD9018B21228AD9018B212CC
:108F310028A1C000C001C002C0039018AC1228EAE9
:108F41009000021225B5FE9000031225B5FDEDFF3C
:108F5100E4FCFDD003D002D001D00012270190180B
:108F6100B21228AD9018B21228A1C000C001C002EF
:108F7100C0039018AF1228EA9000011225B5FD1226
:108F8100259CFEEDFFE4FCFDD003D002D001D00012
:108F91001227019018B21228AD9018B21228A1C060
:108FA10000C001C002C0039018AF1228EA9000026D
:108FB1001225B5FE9000031225B5FDEDFFE4FCFD81
:108FC100D003D002D001D0001227019018B212288C
:108FD100AD9018B21228A19018A5E0FFE4FCFDFEA7
:108FE1001227019018B21228AD9018B21228A19040
:108FF10018A6E0FEA3E0FFE4FCFD1227019018B2E1
:109001001228AD9018B21228A19018A8E0FEA3E092
:10901100FFE4FCFD1227019018B21228AD9018B29E
:109021001228A19018AAE0FEA3E0FFE4FCFD12279C
:10903100019018B21228AD9018A5E0B4111A901839
:10904100B21228A19018A6E0FEA3E0FFE4FCFD12F5
:0E90510027019018B21228AD9018B21228858F
:01905F0022EE
:0CA936009019551228AD90195912290AE9
:10A9420090195CE0FCA3E0FD4C700302A9F4E05412
:10A9520001901960F0ECC313FFED1390195CCFF076
:10A96200A3EFF090195C74FFF5F0122CAB45F06088
:10A9720046901959E475F0011228F312259C90199A
:10A982005EF0A3E4F090195975F0011228F3122534
:10A992009CFF90195EE48FF012265B9019551228E5
:10A9A200A190195EE0FEA3E0FFE4FCFD12270190F6
:10A9B20019551228AD80AC901960E0603590195994
:10A9C2001228EA12259C7F00FE90195EF0A3EFF098
:10A9D20090195EEEF0A3EFF09019551228A190198C
:10A9E2005EE0FEA3E0FFE4FCFD1227019019551280
:08A9F20028AD901955122885CB
:01A9FA00223A
:10C277008038901A76122885781012285FEC4D4E78
:10C287004F602F901A76122885E4FDFCC004C00584
:10C29700C006C007901A76122885781012285FD03A
:10C2A70003D002D001D000122701901A761228ADD0
:0FC2B70080C0901A76122885122CE0E4FDFC223C
:0C242E00C2AF9018C2E0FEA3E0FFD2AFE6
:01243A00227F
:10CB62007B017A1A7947AD07AC0612B7C57B017A09
:09CB72001A794712C081EF60F44A
:01CB7B002297
:1073AA007B017A0C792490192212290AE490192572
:1073BA00F0A3F0A3F0A3F0A3F0A3F090CA49937549
:1073CA00F03DA42424F9740C35F0FA90192B1229F3
:1073DA000A900DAAE0FF70057EFF7F9D22EF640AE6
:1073EA006004EFB40B09900D9A12288512A9FB12BA
:1073FA00C8C1901921EFF030E0030274C990192135
:10740A00E030E1030274C990192CE475F03D1226AC
:10741A005B90CA49E49375F03DA42424F9740C35B1
:10742A00F0FA7B01C003C002C00190192B1228EAAE
:10743A00C3D082D083D0E0E99582EA9583400C7B61
:10744A00017A0C792490192B12290A90192B1228E7
:10745A00EA90001B1225B564067031E92438F9E474
:10746A003AFA12C081EF602490192B1228EA900090
:10747A001112269C45F0700B90001F1225B5C3947B
:10748A0005400990192212290A0275707B017A199E
:10749A007922122406EF3395E0FE901929F0A3EF22
:1074AA00F0648E7002EEF47003027570901929E090
:1074BA00F47004A3E0649A60030273DB0275F69029
:1074CA001921E030E0117B017A197922123BEA9006
:1074DA001927EEF0A3EFF0901921E030E1117B01BA
:1074EA007A1979221263CE901927EEF0A3EFF09061
:1074FA0019221228EAE94A70030273DB901921E083
:10750A0030E03D901927E0FEA3E0FFC3EE648094CB
:10751A0080500FEF64897002EEF46006BEFF21BF4F
:10752A00FA1E90001F1225B5701690001C1225B580
:10753A00FF12B02C7B007A00790090192212290AD6
:10754A009019221228EAE94A70030273DBC39019E0
:10755A0027E06480948050030273DB122426EF64D0
:10756A009A70030275F69019221228EAE94A700302
:10757A000273DB90001B1225B564067047127EA5C4
:10758A00901925EEF0A3EFF0648F7002EEF46034E8
:10759A00901925E0FEA3E0FFC3EE648094805006B4
:1075AA00BEFF11BFFA0E9019221228EA90001F128C
:1075BA0025B570109019221228EA90001C1225B5E0
:1075CA00FF12B02C9019221228EAE94A70030273BA
:1075DA00DB90001B1225B5641160030273DB12876E
:0F75EA0063901925EEF0A3EFF00273DBE4FEFFD0
:0175F900226F
:10C6090090CA48E493600FA2AFE433901AD9F0C2FC
:10C61900AFAE854385409018B61228EAEF1225E29D
:10C629009018B7E475F00112265B90CA48E493604C
:0BC639000A8E85901AD9E024FF92AF12
:01C6440022D3
:05B02C00901A7AEFF01C
:10B03100C364809480401990CA49E493FF901A7ABE
:10B04100E0FD3395E0FCC3ED9F7480F86C984005FA
:10B051007EFF7F8522900C4275F03DED122CEDECC8
:10B0610075F03DA42583F583E020E0057EFF7F8612
:10B0710022901A7AE0FF3395E0FE7C007D3D122597
:10B08100F474242FF9740C3EFA7B01A312290A905F
:10B09100001B1225B5B40609901A7B1228EA12BFCB
:10B0A1007C901A7AE0FF3395E0FE900C4275F03DFA
:10B0B100EF122CEDEE75F03DA42583F583E4F090BD
:0EB0C1001A7B1228EAE4F5F0122CC1E4FEFF1F
:01B0CF00225E
:05AB7400901A7EEFF0D5
:10AB7900C364809480401990CA49E493FF901A7E77
:10AB8900E0FD3395E0FCC3ED9F7480F86C984005B7
:10AB99007EFF7F8522900C4275F03DED122CEDEC85
:10ABA90075F03DA42583F583E020E0057EFF7F86CF
:10ABB90022900DAAE0700D901A7EE0FF12B02C7E53
:10ABC900FF7F9D22901A7EE0FF3395E0FE7C007D99
:10ABD9003D1225F474242FF9740C3EFA7B01A3125B
:10ABE900290A90001B1225B5B40609901A7F12286C
:10ABF900EA12AD89901A7EE0FF3395E0FE900C428F
:10AC090075F03DEF122CEDEE75F03DA42583F5832B
:10AC1900E4F0901A7F1228EAE4F5F0122CC1E4FE60
:01AC2900FF2B
:01AC2A002207
:1075FA00901A4CE4F0A304F0A2AFE433FCC2AF90BB
:10760A00CA47E493FE64077043901A4FE584F0E496
:10761A00F584E5B264046017E5B264066011E5B268
:10762A00640A600BE5B2640C6005E5B2B40E109012
:10763A001A50E5B2F075B2FFE065B2600C800090B6
:10764A001A4C74FFF0A374A7F0027753EE64037028
:10765A0045901A50E5EFF0E4901A4EF0901A50E077
:10766A00FE600D14FDEE5DF0901A4EE004F080EC21
:10767A00901A4EE06401600A901A4C74FFF0A374E9
:10768A00A7F0901A50E5EFF075EF8DE065EF700303
:10769A0002776502775B90CA47E493FF640F7037FD
:1076AA00901A4FE5BFF075BF01E5D364026005E5A6
:1076BA00D3B40610901A50E5D3F075D3FFE065D322
:1076CA00600C8000901A4C74FFF0A374A7F0901A13
:1076DA004FE0F5BF027765EF64057036901A4FE503
:1076EA0084F0E4F584E5B2641C600BE5B2641E60C4
:1076FA0005E5B2B41A10901A50E5B2F075B2FFE07F
:10770A0065B2600C8000901A4C74FFF0A374A7F065
:10771A00803790CA47E49364067036901A4FE5841E
:10772A00F0E4F584E5B264146005E5B2B420109083
:10773A001A50E5B2F075B2FFE065B2600C800090B5
:10774A001A4C74FFF0A374A7F0901A4FE0F58480E6
:10775A000A901A4C74FFF0A374A7F0AF04EC24FF4C
:10776A0092AF901A4CE0B4FF07A3E0B4A702801EC0
:10777A0090CA49E49375F03DA4FFAEF07D007B0109
:10778A007A0C7924122C2A12BB3EEF4E70057EFF2A
:10779A007FA62212B9C812CA2390CA67E49375F069
:1077AA001FA4FFAEF07D007B017A0D7979122C2A95
