:0324000002B166C0
:0FB1660075D900787FE4F6D8FD75812F02B1B05E
:10C50C00AF8475840F75A40175A54175A6FF75A739
:10C51C000F759CDF759DFF759EFF759FFF75E1275D
:08C52C0075E21475E3448F84ED
:01C5340022E4
:10C8D000AF84E4F58475A3FB75A1FF75A2208F8456
:01C8E0002235
:10C16D00E4FFFEAD8475840F758A8353A1DFF584DA
:10C17D0075B7B075840F43A120438901758D017585
:10C18D008F01758E040FBF00010EEF640F4E70F519
:0FC19D00438902E58930E4FB759702AF058F8473
:01C1AC002270
:10C30A00AF84E4F584758844758921758E02758D2C
:10C31A0096F58475C80475C90275CA8F75CB5E75A2
:10C32A00840275C80475C90875CA8275CBFD8F84E5
:01C33A0022E0
:10C88200AF84E4F58475985075910F75840175989D
:03C89200508F8440
:01C895002280
:0D24160075A8B075E60275B80475F60222CF
:0FC8F200E4F58475C04075CFB4901AB7E0F584B3
:01C901002213
:10C82E0012C50C12C16D12C8D012C30A12C88212E0
:05C83E00C8F2022416FF
:1098C100C114501748000000000000000000000013
:1098D10000000000005017380000000000000000E8
:1098E1000000000000000000411758FD421735003C
:0198F1000076
:1074EE00E49019E0F0A3F074FFA3F0A3F0A3F0A3CF
:1074FE00F075FFDE75FFAD752F0112C82E75840F66
:10750E00C2CD12C912D2CD20CD1F9019E1E004F0E8
:10751E0070069019E0E004F0C39019E1E0946490D5
:10752E0019E0E06480948040DE12B7EB12C99B1222
:10753E00BA37E490119FF0E5EF5403600312C9408F
:10754E00E4F5E7126E54C3EE6480948040F512C3E6
:10755E003B9019E0741CF0A3E4F0FF7E1C12C931BD
:10756E00EF640260031299C775E7409019E0741C2E
:10757E00F0A3744EF0FF7E1C12C931EF90117DF016
:10758E00A3E4F09019E1E02401FF9019E0E034004B
:10759E00FE12C93190117DE0F0A3E04FF0D2AA7F28
:1075AE00507E1C12C931901646EFF0700890115A99
:1075BE007407F08005E490115AF07F417E1C12C9C9
:1075CE00319015BBEFF060037401F09015BBE060D5
:1075DE000302767E7F427E1C12C931900010EFF0BE
:1075EE007F437E1C12C931900011EFF07F447E1C48
:1075FE0012C931900012EFF07F457E1C12C93190F6
:10760E000013EFF07F467E1C12C93190001AEFF086
:10761E007F477E1C12C93190001BEFF07F487E1C05
:10762E0012C93190001CEFF07F497E1C12C93190B7
:10763E00001DEFF07F4A7E1C12C931900024EFF03E
:10764E007F4B7E1C12C931900025EFF07F4C7E1CC3
:10765E0012C931900026EFF07F4D7E1C12C9319079
:10766E000027EFF0900DAB7401F0900DAAF080346E
:10767E007B007A0079007FA07E8C7D007C0012C397
:10768E009DD3EF9400EE648094805018900DAB74EF
:10769E0001F0900DAA7409F0E4900010F0A3F0A38D
:1076AE00F0A304F012C94E12BF339019E4EEF0A30A
:1076BE00EFF012BF7E9019E2EEF0A3EFF0C3EE648E
:1076CE008094804029A3E0648094804021D2B290BF
:1076DE0017377409F0126C049019E0EEF0A3EFF076
:1076EE0020140302754EC214128CC502754ED2A51B
:0576FE00D2A602754E4A
:10C33B00E4FBFD7F0212C45D901AB1EEF0A3EFF0A7
:10C34B00BEFF0EBFAB0B7F1212B494200C03300A4E
:10C35B00FAC3901AB1E06480948040D47E007F01D0
:01C36B0022AF
:03242B0002945ABE
:10945A00C0E0C0F0C083C082C0D075D000C000C0D8
:0D946A0001C002C003C004C005C006C00759
:10947700901AB8E584F0C2CF901735E0FEA3E0FF5D
:10948700E4FCFD7B82FAF9F8D3122838500C9017C8
:1094970035E4F0A3F012BC4B800E901736E004F0D1
:1094A7007006901735E004F09014FCE0FCA3E0FD93
:1094B700A3E0FEA3E02401FFE43EFEE43DFDE43C1F
:1094C700FC9014FC1228ADE47FCCFEFDFC9014FC4C
:1094D700E0F8A3E0F9A3E0FAA3E0FBC312284E40AB
:1094E700299014F8E0FCA3E0FDA3E0FEA3E024012B
:1094F700FFE43EFEE43DFDE43CFC9014F81228AD89
:109507009014FC1228B9000000041288893015064F
:10951700901500E004F0901500E0C39402400FE4BA
:10952700F0C2159014F7E0FF12A7CA12BF7E300EE3
:10953700069015BAE004F09015BAE0C39405400F01
:10954700E4F0C20E9015B7E0FF12A7CA12BF33901E
:059557001AB8E0F584E4
:10955C00D007D006D005D004D003D002D001D00063
:0B956C00D0D0D082D083D0F0D0E0320D
:0AC99000AF8475840F53C8DF8F8455
:01C99A00227A
:0FC90200AF8475840F43C820E5C830E5FB8F84F0
:01C911002203
:0324130002A70E0F
:10A70E00C0E0C0F0C083C082C0D075D000C000C011
:10A71E0001C002C003C004C005C006C007901737B1
:10A72E00E0FF700974FFF0C2B2D2A4800ED3EF64C2
:10A73E008094804006901737E014F09011A4E070DA
:10A74E000AA3E07006A3E07002C2B29014FC1228B5
:10A75E00B9000000029015B2E0FCA3E0FDA3E0FEFC
:10A76E00A3E0FF9014F81228AD12BC4B30B3099041
:10A77E001501E4F0D2A6801C20B30E901501E0C3A3
:10A78E00943C5005E004F0800B901501E0C3943C1E
:10A79E004002C2A6901758E064016003E004F0B2D4
:10A7AE00A7D007D006D005D004D003D002D001D058
:0CA7BE0000D0D0D082D083D0F0D0E032A8
:0BC978008E158F168F828E83E493FFD4
:01C983002291
:10B7EB00A2AF9213C2AFD2CD901AB37420F0A37450
:10B7FB0068F0901AB3E0FEA3E0F5828E8374FAF042
:10B80B00901AB37420F0A37469F0901AB3E0FEA3FE
:10B81B00E0F5828E83741FF0901AB304F0A37405C5
:10B82B00F012C6EDE4FF901AB3E0FCA3E0F5828CB6
:10B83B0083E0FE741E2FF582E43400F583EEF00FE7
:08B84B00EFB406E2A21392AF74
:01B8530022D2
:03C9BF007F0122D3
:10BBF500901A69EBF0A3EAF0A3E9F03014037F9AF9
:10BC05002230100675878075EF10129ACDD39016E5
:10BC1500D4E094009016D3E09400400CA3E024FFF8
:10BC2500F09016D3E034FFF0300D037F9A22901A7E
:10BC350069E0F9A3E0FAA3E0901A69C9F0A3EAF074
:06BC4500A3E9F07F0022DC
:03C9C2007F0022D1
:10B61000901A6CEBF0A3EAF0A3E9F0901A6CE0FB4F
:10B62000A3E0FAA3E0F990001C1225B5FF9015B62F
:10B63000E0B4000AA3E0B507051240B7804B901AAA
:10B640006CE0FBA3E0FAA3E0F990001C1225B5FF23
:10B650009014F6E0B40011A3E0B5070C901758E081
:10B66000B401051272CF8021901A6CE0FBA3E0FABE
:10B67000A3E0F990001C1225B5FF90117BE0B40007
:0CB6800008A3E0B507031231487F002248
:10C84300EF3395E0FE90117BE0B50608A3E0B50752
:05C853000312C92222BE
:01240A0022AF
:10C6670007000405EA05EA0064000517700602588A
:10C6770004000300008CA040010020020000140CFD
:03C68700013EB0C1
:1098F200440D75FFFFFFFF44001000000001460009
:109902001E000B3C000000460014FFFFFFFFFFFF9C
:0E991200440024FFFFFFFF44001AFFFFFF0088
:10C3CE005054353330300048442D5344205661725A
:10C3DE006974696D652053796E632047656E657269
:10C3EE0061746F7200557074696D65005554430029
:109920004215B6FFFFC10EC10F4115BB01411646DE
:0A993000014215B800004115BA000D
:10BF3300E49018BCF0A3F0A37402F0A37411F0E42E
:10BF4300A3F07B01A304F0A37415F0A374BCF0A3C6
:10BF5300E4F0A37480F07A0C79207DE07C0B12B0BE
:10BF630037EF3395E0FEC36480948050012290152F
:0ABF7300B6EEF0A3EFF07E007F01B0
:01BF7D0022A1
:1040B7009019997401F0A37415F0A374BCF09015CE
:1040C700B6E0FEA3E0FF7C007D3D1225F474242FAB
:1040D700F9740C3EFA7B01901996EBF0A3EAF0A372
:1040E700E9F0900013122913C003C002C001901910
:1040F70099E0FBA3E0FAA3E0F9D082D083D0E06B8C
:104107007008E965827003EA658360109015B7E06F
:10411700FF12A7CA12BF337EFF7FFF22901996E0D6
:10412700FBA3E0FAA3E0F990001912269C6404456A
:10413700F060030243439015BCE0600302434390E1
:1041470015B8E0FCA3E0FDECFF9015BEE0FBEFB572
:104157000318AF05A3E0FDEFB5050FE49015B7E031
:10416700FF12A7CA12BF330245099015BEE07F00B0
:10417700FE9015B8F0A3EFF09015BFE0FDEDFF90AE
:1041870015B8EEF0A3EFF09015BC7401F0900DABED
:10419700E0B401089015BD7401F08005E49015BDE9
:1041A700F0E49015C0F0A3F0A3F0A3F0A3F0A3F000
:1041B700A3F0A3F0A3F0A3F090001EE09015CAF0BF
:1041C70090001FE09015CBF0900020E09015CCF008
:1041D700900021E09015CDF0900022E09015CEF0F0
:1041E700900023E09015CFF0900010E09015D0F0EC
:1041F700900011E09015D1F0900012E09015D2F0E8
:10420700900013E09015D3F090001AE09015D4F0C9
:1042170090001BE09015D5F090001CE09015D6F0AB
:1042270090001DE09015D7F0900024E09015D8F08D
:10423700900025E09015D9F0900026E09015DAF06F
:10424700900027E09015DBF090115AE09015DCF014
:10425700E4A3F0A3F0A3F0A3F090199D741CF0A3BE
:104267007441F0FF7E1C12C9319015E1EFF09019EF
:104277009D741CF0A3744EF0FF7E1C12C93190157B
:10428700E2EFF090199EE02401FF90199DE03400C1
:10429700FE12C9319015E3EFF0E4A3F0A3F0A3F009
:1042A700A3F0A3F078E97C157D017BFF7AC379CE73
:1042B700122C0D78F07C157D017BFF7AC379D5121E
:1042C7002C0D90199D741CF0A37401F0E490199CB7
:1042D700F090199DE0FEA3E0FF12C93190199CE010
:1042E700240EF582E43416F583EFF090199EE0046E
:1042F700F0700690199DE004F090199CE004F0E03E
:10430700C3942040CC7B017A1579BCC003C002C09E
:1043170001901996E0FBA3E0FAA3E0F990000E12D2
:104327002943901996E0FBA3E0FAA3E0F990001166
:10433700E475F0801226D4D20E024509901996E052
:10434700FBA3E0FAA3E0F990001912269C647945D3
:10435700F060030244F99015BCE064306003024446
:10436700F912B91CEF640160030244BA90115AE0D4
:10437700FF64026013EF6403600EEF64046009EFEB
:1043870064056004EFB406099015C67403F002448F
:10439700BF12B68CEF640160030244B2901606E0C8
:1043A700703590199CF090199CE0FFC3941050272A
:1043B700EF2421FFE4341CFEA3F0A3EFF012C93170
:1043C70090199CE02406F582E43416F583EFF0900B
:1043D700199CE004F080CF901616E0703590199C78
:1043E700F090199CE0FFC394105030EF2431FFE4A4
:1043F700341CFEA3F0A3EFF012C93190199CE024FE
:1044070016F582E43416F583EFF090199CE004F07A
:1044170080CF901616E0B40102E4F090199D741C49
:10442700F0A3E4F0FF7E1C12C5FB200BFD90199D45
:10443700741CF0A37401F0E490199CF090199CE0AF
:10444700FDC3944F502EA3E0FEA3E0FF74E62DF5C5
:1044570082E43415F583E0FD12C585200BFD901924
:104467009EE004F0700690199DE004F090199CE01E
:1044770004F080C890199D741CF0A37450F0901636
:1044870046E0FD7F507E1C12C585200BFD90199DCF
:10449700741CF0A3E4F07D02FF7E1C12C585200B7F
:1044A700FD9015C67401F0D210800D9015C67402E8
:1044B700F08005E49015C6F09015BC7431F07B01CF
:1044C7007A1579BCC003C002C001901996E0FBA31E
:1044D700E0FAA3E0F990000E122943901996E0FB49
:1044E700A3E0FAA3E0F9900011E475F00B1226D4CB
:1044F70080109015B7E0FF12A7CA12BF337EFF7F67
:06450700FC227E007F0192
:01450D00228B
:10BC4B00901640E004F0E0C3943C402AE4F09016D8
:10BC5B003FE004F0E0943C401DE4F090163EE0041D
:10BC6B00F0E094184010E4F090163DE004F07006FC
:10BC7B0090163CE004F0E4901641F0A3F09011A470
:10BC8B00E0901643F09011A5E0901644F09011A6A9
:06BC9B00E0901645F022C6
:0EC94000E490163CF0A3F0A3F0A3F0A3F022C5
:0EC94E00E4901641F0A3F0A3F0A3F0A3F022B2
:1099C700E4901A6FF0901A6FE0FFC3947950147403
:1099D700BC2FF582E43415F583E4F0901A6FE004A8
:1099E700F080E29015BC7455F0A3746EF0A3F0A359
:1099F7007461F0A3746DF0A37465F0A314F0A374FD
:109A07002EF09015DC7441F0A37464F0A3746DF02C
:109A1700A37469F0A3746EF0E4A3F09015EC7432AC
:109A2700F0A37437F0A37433F0A37430F09015FCEF
:109A37007401F0A374FFF0A3F0A3F0A3F0A3F0A3C5
:109A4700F0A3F0A3F0A3F0A3F0A3F0A3F0E4A3F036
:109A5700A37417F0A37401F0901A70741CF0A3E4B8
:109A6700F0FF7E1C12C5FB200BFD901A70741CF0D2
:109A7700A37401F0E4901A6FF0901A6FE0FDC3949D
:109A870050502EA3E0FEA3E0FF74BC2DF582E43412
:109A970015F583E0FD12C585200BFD901A71E004D2
:109AA700F07006901A70E004F0901A6FE004F080EE
:109AB700C8901A70741CF0A3E4F07D02FF7E1C129C
:059AC700C585200BFD28
:019ACC002277
:10B91C00901AB97401F09015B8E0FCA3E0FDECFFAF
:10B92C009015BEE0FBEFB50318AF05A3E0FDEFB536
:10B93C00050FE49015B7E0FF12A7CA12BF337F00C2
:10B94C0022E4FF741E2FF582E43400F583E0FE74CC
:10B95C00C02FF582E43415F583E0FDEE6D6005E44F
:0EB96C00901AB9F00FEFB406DA901AB9E0FFA6
:01B97A0022AA
:10B68C00901A4C7401F09015B8E0FCA3E0FDECFFAF
:10B69C009015BEE0FBEFB50318AF05A3E0FDEFB5C9
:10B6AC00050FE49015B7E0FF12A7CA12BF337F0055
:10B6BC0022901A49741CF0A37421F0E4A3F0901AA0
:10B6CC004BE0FFC39420502E901A4AE02FFF901AA3
:10B6DC0049E03400FE12C931901A4BE024C6F582C1
:10B6EC00E43415F583E06F6005E4901A4CF0901A81
:0BB6FC004BE004F080C8901A4CE0FF07
:01B70700221F
:108CC500E4901A72F0901A72E0FFC3947F502AA3C1
:108CD500741CF0A37401F0EF2401FFE4341CFE12B0
:108CE500C931901A72E024BCF582E43415F583EF9E
:108CF500F0901A72E004F080CC300F30C20F90155E
:108D0500DC7441F0A37464F0A3746DF0A37469F08E
:108D1500A3746EF0E4A3F09015EC7432F0A37437ED
:108D2500F0A37433F0A37430F0E4A3F09015BBE026
:108D35009015FCF0900010E09015FDF0900011E00A
:108D45009015FEF0900012E09015FFF0900013E0F2
:108D5500901600F090001AE0901601F090001BE0CC
:108D6500901602F090001CE0901603F090001DE0B4
:108D7500901604F0900024E0901605F0900025E090
:108D8500901606F0900026E0901607F0900027E078
:108D9500901608F090117DE0901609F090117EE094
:108DA50090160AF0901646E090160BF0200BFD90F9
:108DB5001A73741CF0A3E4F0FF7E1C12C5FB200B94
:108DC500FD901A73741CF0A37401F0E4901A72F00C
:108DD500901A72E0FDC39450502EA3E0FEA3E0FF6D
:108DE50074BC2DF582E43415F583E0FD12C58520AC
:108DF5000BFD901A74E004F07006901A73E004F00D
:108E0500901A72E004F080C8901A73741CF0A3E401
:0C8E1500F07D02FF7E1C12C585200BFDC5
:018E2100222E
:10993A004214F6FFFF41150000C1154414F8000057
:10994A0000004415B2000000004414FC00000000AE
:04995A0041150100B2
:10BF7E00E49018BCF0A3F0A37402F0A37411F0E4E3
:10BF8E00A3F07B01A304F0A37415F0A37402F0A335
:10BF9E00E4F0A37480F07A0C79207D7B7C0012B0E3
:10BFAE0037EF3395E0FEC3648094805001229014E5
:0ABFBE00F6EEF0A3EFF07E007F0125
:01BFC8002256
:1072CF009019E97401F0A37415F0A37402F09014EF
:1072DF00F6E0FEA3E0FF7C007D3D1225F474242F21
:1072EF00F9740C3EFA7B019019E6EBF0A3EAF0A3D8
:1072FF00E9F0900013122913C003C002C0019019C6
:10730F00E9E0FBA3E0FAA3E0F9D082D083D0E06BF1
:10731F007008E965827003EA658360109014F7E0E6
:10732F00FF12A7CA12BF7E7EFF7FFF229019E6E0F1
:10733F00FBA3E0FAA3E0F990001912269C643045F4
:10734F00F060030274D990001912269CFFAEF078FA
:10735F00827C157D017B017A1579021225769014B6
:10736F00F8E0FCA3E0FDA3E0FEA3E0FF9015A2125E
:10737F0028AD7F157EAE7D477C019014FCE0F8A30D
:10738F00E0F9A3E0FAA3E0FB12270E9015A612284E
:10739F00AD9015861228B90000000090158A1228AA
:1073AF00B90000000090158574ECF09015A2E0FC78
:1073BF00A3E0FDA3E0FEA3E0FF9015921228AD908D
:1073CF0015A6E0FCA3E0FDA3E0FEA3E0FF90159659
:1073DF001228AD9015827424F0901501E0C3943CEF
:1073EF004009901582E044C0F0802490119FE0FD89
:1073FF00C394014009901582E04440F08011EDD311
:10740F0094FF7480947F5007901582E04480F09031
:10741F0015837401F09015AAE0FCA3E0FDA3E0FE34
:10742F00A3E0FF90159A1228AD9015AEE0FCA3E0F3
:10743F00FDA3E0FEA3E0FF90159E1228AD90158EE0
:10744F007447F0A37450F0A37453F0E4A3F09014B6
:10745F00F8E0FCA3E0FDA3E0FEA3E0FF9015AA1265
:10746F0028AD7F157EAE7D477C019014FCE0F8A31C
:10747F00E0F9A3E0FAA3E0FB12270E9015AE122855
:10748F00AD78027C157D017B017A1579827E007FB4
:10749F00301225767B017A157902C003C002C00134
:1074AF009019E6E0FBA3E0FAA3E0F990000E122991
:1074BF00439019E6E0FBA3E0FAA3E0F9900011E492
:1074CF0075F0301226D4D21580109014F7E0FF1209
:0E74DF00A7CA12BF7E7EFF7FFC227E007F01C7
:0174ED00227C
:08995E0041129000411291003A
:10C8E100AE847584018F993099FDC299AF068F840A
:01C8F1002224
:0324A30002C2D89A
:10C2D800C0E0C083C082C0D030981EC2989012902F
:10C2E800E02484F582E43412F583E599F090129005
:10C2F800E004F0E0B40802E4F0D0D0D082D083D0DB
:02C30800E03221
:10BFC90090135A7412F0A37492F0E4FF90135AE09C
:10BFD900FCA3E0F5828C8374FFF090135BE004F01E
:10BFE900700690135AE004F00FEFB4C8DF7E127F99
:10BFF9009290128EEEF0A3EFF090135AEEF0A3EFA9
:0AC00900F0E490128CF0A3F0D216C0
:01C01300220A
:10BE480090128EE0FEA3E0F5828E83E0FF90128EC2
:10BE5800E0B41311A3E0B4590C90128E7412F0A33D
:10BE68007492F0800E90128FE004F0700690128E9B
:10BE7800E004F090128DE024FFF090128CE034FF83
:0EBE8800F0E07002A3E06003D38001C39216C5
:01BE96002289
:10C1ED00E4FF901291E0FE901290E0B5060B0FEF78
:10C1FD00B4FFEFE41225E2FF2275E74074842EF5BB
:10C20D0082E43412F583E01225E2901291E004F0FD
:0BC21D00E0B40802E4F075E7407F0188
:01C2280022F3
:10BA37007E167F8F90164DEEF0A3EFF09016D1EEA5
:10BA4700F0A3EFF07E167F4F90164BEEF0A3EFF0CA
:10BA57009016CFEEF0A3EFF0E4901649F0A3F09024
:10BA67001647F0A3F09016D5F0A3F09016D3F0A3E5
:10BA770004F0E4FF7E4090164FE4F0A3DEFCE4FF01
:0ABA87007E4090168FE4F0A3DEFC71
:01BA91002292
:10C12B0090164BE0FEA3E0F5828E83E0FF90164B5A
:10C13B00E0B41611A3E0B48E0C90164B7416F0A35A
:10C14B00744FF0800E90164CE004F0700690164B76
:10C15B00E004F0901648E024FFF0901647E034FF1F
:01C16B00F0E3
:01C16C0022B0
:10BA92009016D1E0FCA3E0FDF5828C83EFF0EDB4CB
:10BAA200CE10ECB4160C9016D17416F0A3748FF06D
:10BAB200800E9016D2E004F070069016D1E004F0E9
:10BAC20090164AE004F07006901649E004F09016D1
:10BAD20049E07004A3E064407E0060047F018002BC
:0BBAE2007F009016D5EEF0A3EFF022DD
:10BD4D00D39016D0E0948E9016CFE09416400774E1
:10BD5D0016F0A3744FF09016CFE0FCA3E0F5828CA3
:10BD6D0083EFF09016D0E004F070069016CFE0044B
:10BD7D00F0901648E004F07006901647E004F0903D
:10BD8D0016D37413F0A37488F0EFB40A07E4901679
:05BD9D00D3F0A3F02229
:10BAED0090164DE0FEA3E0F5828E83E0FF90164D9B
:10BAFD00E0B41611A3E0B4CE0C90164D7416F0A35D
:10BB0D00748FF0800E90164EE004F0700690164D76
:10BB1D00E004F090164AE024FFF0901649E034FF5F
:10BB2D00F0E07002A3E07C0060047D0180027D00E6
:08BB3D009016D5ECF0A3EDF029
:01BB450022DD
:06C9B500E4F584D2992292
:0EB854009019ECEBF0A3EAF0A3E9F0A3EDF0FD
:10B8620070149019ECE0FBA3E0FAA3E0F912C86DA2
:10B872009019F0EE80079019EFE0FFA3E4F0A3EF38
:10B88200F09019F0E07002A3E0602C9019ECE0FB5C
:10B89200A3E0FAA3E0F912259CFF12BA929019EDE7
:10B8A200E475F00112265B9019F1E024FFF0901983
:07B8B200F0E034FFF080CA52
:01B8B900226C
:0324230002BDA255
:10BDA200C0E0C083C082C0D075D000C003C004C050
:05BDB20005C006C007FA
:10BDB700AB84758400309807C298AF9912BD4D3097
:10BDC7009916C299D390164AE09400901649E094C8
:0CBDD70000400512BAED8F99AF038F8475
:10BDE300D007D006D005D004D003D0D0D082D083E2
:03BDF300D0E0326B
:10822E00061D1C0001000000000000000000000000
:10823E000000000010270000201C000090D003005A
:10824E000000000000000000000000000000000020
:10825E000000000000000000000000000000000010
:10826E000000000000000000000000000000000000
:10827E0000000000000000000000000000000000F0
:10828E0000000000000000000000000000000000E0
:10829E0000000000000000000000000000000000D0
:1082AE0000000000000000000000000000000000C0
:1082BE0000000000000000000000000000000000B0
:1082CE0000000000000000000000000000000000A0
:1082DE000000000000000000000000000000000090
:1082EE000000000000000000000000000600140066
:1082FE0001000000D00808008025000007000100E2
:10830E00000000000000000000000000000000005F
:10831E00000000000000000000000000000000004F
:10832E00000000000000000000000000000000003F
:10833E00000000000000000000000000000000002F
:10834E00000000000000000000000000000000001F
:10835E00000000000000000000000000000000000F
:10836E0000000000000000000000000000000000FF
:10837E0000000000000000000000000000000000EF
:10838E0000000000000000000000000000000000DF
:10839E0000000000000000000000000000000000CF
:1083AE0000000000000000000000000000000000BF
:0A83BE000000000000000000B5629E
:049966004111840027
:1088890090118FE024A7F9E43411FA7B0112C1EDAC
:10889900EF70030289F7901184E0FF704E90118305
:1088A900E09083C693FE90118FE024A7F582E4340B
:1088B90011F583E0B50608901183E004F08005E422
:1088C900901183F090118FE004F0901183E0B402CD
:1088D900AFE4F090118FF090118404F0E4901181CD
:1088E900F0A3F090117FF0A3F08095EF6401704B35
:1088F900901183E004F090118FE024A7F582E4340D
:1089090011F583E0FF901181E02FF0E0FFA3E02F44
:10891900F0A3E0B404229011AAE0FE9011A9E07C32
:10892900002400FFEC3E90117FF0A3EFF09011843A
:108939007402F0E4901183F00289EE901184E0FF53
:1089490064027040901183E004F090118FE024A735
:10895900F582E43411F583E0FE901181E02EF0E018
:10896900FEA3E02EF0A3E0FEB4C803E4A3F0EEFDFD
:1089790090117FE0B4000BA3E0B505069011847453
:1089890003F08061EF64036003028889901183E03A
:1089990004F0901180E02402FF90117FE03400FE82
:1089A900901183E06F7001EE7035F090118FF090A7
:1089B9001184F0901180E0FF24ABF582E43411F5C5
:1089C90083E0FE901181E0B5061574AC2FF582E4C1
:1089D9003411F583E0FF901182E0B50702D212301D
:0F89E900120312450E90118FE004F002888922CC
:10450E007B017A13795E12C36C90135EE024FB700C
:10451E00030246C624FA70030247B724FE70030254
:10452E0046D5240C600302496190135FE024DF70CE
:10453E00030245F724F1700302468724106003023C
:10454E00496190136CE0901281F0901362E090112B
:10455E0089F0901363E0901188F0901364E090114D
:10456E0087F0901365E0901186F0E0FCA3E0FDA3C8
:10457E00E0FEA3E024F4FFEE3401FEE43DFDE43C56
:10458E00FCE47BE87A03F9F8122799901186122839
:10459E00AD901186E0FCA3E0FDA3E0FEA3E0FFC01A
:1045AE0007901281E0FB3395E0FAF9F8D007C3EFDC
:1045BE009BFFEE9AFEED99FDEC98FC901186122869
:1045CE00AD90136AE0FF901282E4F0A3EFF0901327
:1045DE006BE0FE901283E02400F0901282E03EF039
:1045EE0090136DE090126FF02290136FE0FE901317
:1045FE006EE07C002400FFEC3E9011A0F0A3EFF0E3
:10460E00901370E09011A2F0901371E09011A3F04E
:10461E00901372E09011A4F0901373E09011A5F036
:10462E00901374E0F99011A6F0901375E09012803B
:10463E00F09011A2E0FDA3E0FB3395E0FAA3E0FEBB
:10464E003395E0901857F0A3CEF09011A5E0FE330D
:10465E0095E0901859F0A3CEF0E9FE3395E0A3F063
:10466E00A3CEF0E4A3F0A3F09011A0E0FEA3E0FF30
:10467E0012B27F9015B20247AB7F0BE4FE74622F2D
:10468E00F582E43413F583E0FD74482EF582E434AC
:10469E0017F583EDF00F74622FF582E43413F58372
:1046AE00E0FD74382EF582E43417F583EDF0740BCB
:1046BE002FFF0EEEB410C62290135FE0600614704A
:1046CE0003D21122C2112290135FE024FC70030268
:1046DE0047AE2403600302496190136AE0FFE4FCD5
:1046EE00FDFE9011901228AD901190E0F8A3E0F924
:1046FE00A3E0FAA3E0FB90136BE07F00FE3395E09E
:10470E00FDFCEF2BFFEA3EFEE93DFDE83CFC90117F
:10471E00901228AD901190E0F8A3E0F9A3E0FAA36F
:10472E00E0FBC000C001C002C00390136CE07E002D
:10473E007810C333CE33CED8F9FFEE3395E0FDFCBF
:10474E00D003D002D001D000EB2FFFEA3EFEE93DB0
:10475E00FDE83CFC9011901228AD901190E0F8A36A
:10476E00E0F9A3E0FAA3E0FBC000C001C002C00361
:10477E0090136DE07E007818C333CE33CED8F9FF98
:10478E00EE3395E0FDFCD003D002D001D000EB2F2C
:10479E00FFEA3EFEE93DFDE83CFC9011900228AD9B
:1047AE0090137AE0901185F022D2B290135FE0243C
:1047BE00FE6003024961901376E090118DF0901324
:1047CE0077E090118CF0901378E090118BF09013AD
:1047DE0079E090118AF090137BE0FE90137AE07CE2
:1047EE00002400FFEC3E901194F0A3EFF090137DA7
:1047FE00E0FE90137CE02400FFEC3E901196F0A3B7
:10480E00EFF090137FE0FE90137EE02400FFEC3E6D
:10481E00901198F0A3EFF0901381E0FE901380E0DA
:10482E002400FFEC3E90119AF0A3EFF0901383E07A
:10483E00FE901382E02400FFEC3E90119CF0A3EF5B
:10484E00F07F007EE97D0790118AE0F8A3E0F9A3DE
:10485E00E0FAA3E0FBC312284E400990119E7407A4
:10486E00F002492A7F807E977D067C0090118AE0B7
:10487E00F8A3E0F9A3E0FAA3E0FBC312284E400927
:10488E0090119E7406F002492A7F007E467D057CBB
:10489E000090118AE0F8A3E0F9A3E0FAA3E0FBC3CD
:1048AE0012284E400890119E7405F0806F7FB87EDE
:1048BE00F37D037C0090118AE0F8A3E0F9A3E0FAFF
:1048CE00A3E0FBC312284E400890119E7404F080A2
:1048DE004B7F007EA37D027C0090118AE0F8A3E05E
:1048EE00F9A3E0FAA3E0FBC312284E400890119EF4
:1048FE007403F080277F807E517D017C0090118AA9
:10490E00E0F8A3E0F9A3E0FAA3E0FBC312284E906F
:10491E00119E40057402F080037401F0901194E032
:10492E00FEA3E0FF901198E0B50623A3E0B5071EA5
:10493E0090119EE0FF90119AE0B40012A3E0B5072B
:10494E000D901197E0FF90119DE0C39F8001E490C0
:03495E00119FF0B6
:014961002233
:108E2200901A75EBF0A3EAF0A3E9F0E4901181F057
:108E3200A3F0901A75E0FBA3E0FAA3E0F990000218
:108E42001225B5FF90117FE4F0A3EFF07FB512C8B1
:108E5200E17F6212C8E1901A75E0FBA3E0FAA3E099
:108E6200F912259CFF12C8E1901A75E0FBA3E0FA03
:108E7200A3E0F912259C901181F0A3F09000011259
:108E820025B5FF12C8E1901A75E0FBA3E0FAA3E052
:108E9200F99000011225B5FF901181E02FF0E0FF5B
:108EA200A3E02FF09000021225B5FF12C8E1901A3C
:108EB20075E0FBA3E0FAA3E0F99000021225B5FFEA
:108EC200901181E02FF0E0FFA3E02FF09000031259
:108ED20025B5FF12C8E1901A75E0FBA3E0FAA3E002
:108EE200F99000031225B5FF901181E02FF0E0FF09
:108EF200A3E02FF0E490118FF090118FE0FF7E003D
:108F0200D3901180E09F90117FE09E4050901A759F
:108F1200E0FBA3E0FAA3E02404F9E43AFAE92FF92A
:108F2200EE3AFA12259CFF12C8E1901A75E0FBA3F3
:108F3200E0FAA3E02404F9E43AFA90118FE07E000B
:108F420029F9EE3AFA12259CFF901181E02FF0E008
:108F5200FFA3E02FF090118FE004F0809C9011812C
:0D8F6200E0FF12C8E1901182E0FF02C8E1BB
:10C36C00901A78EBF0A3EAF0A3E9F0901180E024A6
:10C37C0004FF90117FE03400FE901A78E0FBA3E0FC
:10C38C00FAA3E0F8AC02AD037B017A1179A7022580
:01C39C00762A
:10A16D00E4901A7DF09011901228B900000000E4DF
:10A17D00901185F0A31228B900000000E49012821E
:10A18D00F0A3F090126FF0901281F0901280F09089
:10A19D001181F0A3F090118FF0901183F090117F49
:10A1AD00F0A3F0C212C211FE7FC8FD7B017A1179B6
:10A1BD00A7122C2A20114A901A7DE0C39405504114
:10A1CD00E4901A7BF0A3F07BFF7A8279FA128E224B
:10A1DD00201221901A7BE064037004A3E064E86010
:10A1ED0013901A7CE004F07006901A7BE004F012D4
:10A1FD00888980DC901A7DE004F012450EC2128031
:10A20D00B3901A7DE0B405037F0022C2117BFF7A63
:10A21D0082792E128E227B017D017F0D12C4B67BB9
:10A22D00017D207F0112C4B67B017D217F0112C407
:0CA23D00B67B0A7D047F0D12C4B67F01C1
:01A2490022F2
:10C4B60090142A7406F0A37401F0A37406F0E4A3A2
:10C4C600F0A3EFF0A3EDF0E4A3F0A3EBF0E4A3F008
:0BC4D600A3F07B017A14792A028E2269
:10C5AD00901A7EEBF0A3EAF0A3E9F0901A7EE0FB7F
:10C5BD00A3E0FAA3E0F8AC02AD037B017A1179A0F8
:07C5CD007E007F07022576C6
:0EC95C001F1C1F1E1F1E1F1F1E1F1E1F955C6F
:10C53500AB07AA06EB5403701CFC7D64122606EDBE
:10C545004C700FAE02AF037C017D90122606ED4CB8
:08C5550070037F01227F002228
:0EAA8B00901A4DEEF0A3EFF0A3EAF0A3EBF06B
:10AA9900E4FFED14FEEFC39E5016EF90C95C93FBE3
:10AAA900901A50E02BF0901A4FE03400F00F80E23A
:10AAB900901A4EE024FFF0901A4DE034FFF0E0FACE
:10AAC900A3E0FB7C017D6DFFAE021225F4AC06AD5F
:10AAD90007EBAE027802CEC313CE13D8F92DFBECE7
:10AAE9003EFA901A4DE0FEA3E0FF7C007D64122639
:10AAF90006C3EB9FFBEA9EFA901A4DE0FEA3E0FF26
:10AB09007C017D90122606EF2BFFEE3AFE901A503B
:10AB1900E02FFF901A4FE03EFE90C968E493FC7461
:0AAB29000193FDC3EF9DFFEE9CFEBB
:01AB330022FF
:08AF9C009018D7ECF0A3EDF0D2
:10AFA400EF3395E0FEFDFCA31228AD9018D7E0FE28
:10AFB400A3E0FFEE3395E0FDFC9018DD1228ADAE62
:10AFC40002AF03EE3395E0FDFC9018E11228ADE4E6
:10AFD4007F3CFEFDFC9018DDE0F8A3E0F9A3E0FA65
:10AFE400A3E0FB12270EC004C005C006C007E47F1F
:10AFF400107E0EFDFC9018D9E0F8A3E0F9A3E0FA66
:10B00400A3E0FB12270ED003D002D001D000EF2B17
:10B01400FFEE3AFEED39FDEC38FC9018E1E0F8A3C0
:10B02400E0F9A3E0FAA3E02FFFEA3EFEE93DFDE8E4
:02B034003CFCE2
:01B0360022F7
:10B27F0012AA8BE4FCFD7B807A517901F812270E1C
:10B28F0090185F1228AD90185FE0F8A3E0F9A3E0E3
:10B29F00FAA3E0FBC000C001C002C003901858E041
:10B2AF00FFA3E0FCA3E0FDA3E0FAA3E0FB12AF9C39
:10B2BF00D003D002D001D000EB2FFFEA3EFEE93DD4
:10B2CF00FDE83CFC90185F1228AD90185FE0FCA3DE
:10B2DF00E0FDA3E0FEA3E02401FFE43EFEE43DFD1C
:10B2EF00E43CFC90185F1228AD90185FE0FCA3E0DF
:07B2FF00FDA3E0FEA3E0FF48
:01B306002224
:107914004C6F67696E3A200050617373776F7264BD
:107924003A202563256325632563256325630025A4
:1079340063256325632563256325630A0D57656CF9
:10794400636F6D6520746F207468652050543533FF
:1079540030302054656C6E657420696E746572668F
:107964006163652E0A0D556E6974204E616D652E36
:107974003A20004041542B2B2B004F4B0A0D004062
:1079840041542D2D2D005354415455530025642E3C
:1079940025642E25642C25642E25642E25642C252F
:1079A4003032582D253032582D253032582D25307F
:1079B40032582D253032582D253032582C25640A62
:1079C4000D00475053535441545553000A0D47502A
:1079D40053204368616E6E656C204E756D626572EE
:1079E4003A2030312C30322C30332C30342C30359A
:1079F4002C30362C30372C30382C30392C31302C7C
:107A040031312C31322C31332C31342C31352C3171
:107A1400360A0D5369676E616C205175616C697427
:107A240079202020203A20253032692C25303269F3
:107A34002C253032692C253032692C253032692CC2
:107A4400253032692C253032692C253032692C25B9
:107A54003032692C253032692C253032692C25309E
:107A640032692C253032692C253032692C2530328C
:107A7400692C253032690A0D005369676E616C20E8
:107A8400537472656E6774682020203A2025303262
:107A9400752C253032752C253032752C25303275F5
:107AA4002C253032752C253032752C253032752C2E
:107AB400253032752C253032752C253032752C2525
:107AC4003032752C253032752C253032752C25300A
:107AD40032752C253032752C253032750A0D00484C
:107AE400454C5000536F727279206E6F2068656C3C
:107AF4007020617661696C61626C652E2E2E0A0DB0
:067B040000455849540041
:10996A0042117D001742117BFFFF41115A00C117B6
:05997A00420FD70000C0
:10B8BA00E4FF7E80900FD9E4F0A3DEFC90117DE0D6
:10B8CA00FCA3E0FDE49018BCF0A3F0A37402F0A37B
:10B8DA007406F0E4A3F07B01A304F0A3740FF0A3B1
:10B8EA0074D9F0A3E4F0A37480F07A0C792012B032
:10B8FA0037EF3395E0FEC3648094805006E49011DC
:10B90A005AF02290117BEEF0A3EFF090115A7401D5
:01B91A00F03C
:01B91B002209
:10314800E490183FF090117BE0FEA3E0FF7C007D47
:103158003D1225F474242FF9740C3EFA90183C742F
:1031680001F0A3EAF0A3E9F090115AE06401705C61
:10317800901059F090115A7403F0E4901830F0A3AD
:10318800F0901831E0245BF582E43411F583E4F023
:10319800901831E004F07006901830E004F09018B0
:1031A80030E07004A3E0642070D790171074FFF02B
:1031B800A37479F0A37414F07B017A10795A12542D
:1031C800F9900FD5EEF0A3EFF0D2172290115AE044
:1031D800640360030232E390182EF0A3F090183CC9
:1031E800E0FBA3E0FAA3E0F990001912269CFFC3C4
:1031F80090182FE09F90182EE095F040030239D8E0
:10320800A3E024D9F582E4340FF583E0FFB4FF0985
:1032180090183F7402F00232D290183FE0D3940025
:103228004002803AEFC39420401A90182FE024D926
:10323800F582E4340FF583E0FFD3947E500612C67E
:10324800AD0232D290182FE024D9F582E4340FF57C
:1032580083E0B4080E901059E0D394004005E014C0
:10326800F0806790182FE024D9F582E4340FF583B5
:10327800E0640D70459010597410F090115A740460
:10328800F090171074FFF0A37479F0A3741CF0A3E6
:1032980074FFF0A374FBF0A37401F0A374FFF0A310
:1032A80014F0A37401F0FB7A10795A1254F9900FB4
:1032B800D5EEF0A3EFF0D217801090115AE0B403C6
:1032C80009901059E0B41002E4F090182FE004F0CF
:1032D800700690182EE004F00231E590115AE0646F
:1032E8000460030234B290182EF0A3F090183CE06A
:1032F800FBA3E0FAA3E0F990001912269CFFC39003
:10330800182FE09F90182EE095F040030239D890CE
:103318001059E0942040037410F090182FE024D93D
:10332800F582E4340FF583E0FFC39420400CEFD31B
:10333800947E500612C6AD0234A190182FE024D90D
:10334800F582E4340FF583E0B4080F901059E0D308
:1033580094004006E014F00234A190182FE024D91C
:10336800F582E4340FF583E0640D60030234A19024
:103378001830F0A3F0901830E0FEA3E0FFC3941FCC
:10338800EE648094805034EF2421FFEE341CFE124A
:10339800C931901831E0245BF582E43411F583E0FB
:1033A8006F600890117CE0FF02A7CA901831E00412
:1033B800F070C2901830E004F080BAE4901059F030
:1033C80090115A7402F090171074FFF0A37479F0FA
:1033D800A37433F0A374FFF0A374FCF0A37401F09A
:1033E800A37440F0A3F0A3F07B017A10795A125429
:1033F800F9900FD5EEF0A3EFF0E4901830F0A3F0B9
:10340800901830E0FEA3E0FFC39420EE648094801F
:103418005054EF2401FFEE341CFE12C931900FD630
:10342800E0FE901831E02EFE245AF582E43410F5BF
:1034380083EFF0745A2EF582E43410F583E07016A9
:10344800901830E0FEA3E0FF900FD6E02FF0900F29
:10345800D5E03EF08010901831E004F070A290188A
:1034680030E004F0809A900FD6E0FF245AF582E409
:103478003410F583740AF0745B2FF582E43410F588
:1034880083740DF0900FD6E02402F0900FD5E0344D
:1034980000F0D2177F2812B49490182FE004F0702F
:1034A8000690182EE004F00232F490115AE06402FB
:1034B800600302358090182EF0A3F090183CE0FBD2
:1034C800A3E0FAA3E0F990001912269CFFC3901814
:1034D8002FE09F90182EE095F0400302357AA3E084
:1034E80024D9F582E4340FF583E0FFC39420400B20
:1034F800EFD3947E500512C6AD805490182FE02467
:10350800D9F582E4340FF583E0640D7042FF12C6EA
:10351800ADE4901059F0785B7C117D017BFF7A79DE
:103528007977122B24EF702790115A7405F09017B1
:103538001074FFF0A37479F0A3747EF07B017A1005
:10354800795A1254F9900FD5EEF0A3EFF0D21790F4
:10355800182FE024D9F582E4340FF583E0FF12BA7E
:103568009290182FE004F0700690182EE004F002F4
:1035780034C312C9B5B2A52290115AE0640560039C
:103588000239D890182EF0A3F090183CE0FBA3E085
:10359800FAA3E0F990001912269CFFC390182FE0B7
:1035A8009F90182EE095F040030239D8A3E024D963
:1035B800F582E4340FF583E0FFC39420400CEFD389
:1035C800947E500612C6AD0239C790182FE024D950
:1035D800F582E4340FF583E0640D60030239AEFF31
:1035E80012C6ADE4901059F0785B7C117D017BFF29
:1035F8007A797983122B24EF701690115A7402F09D
:1036080090171074FFF0A37479F0A3747E023984C4
:10361800785B7C117D017BFF7A79798A122B24EF04
:10362800600302373D7FFD7E2312C978901832E48B
:10363800F0A3EFF07FFE7E2312C978901834E4F0EF
:10364800A3EFF07FFF7E2312C978901836E4F0A329
:10365800EFF07FFD7EFF12C978901838E4F0A3EFF1
:10366800F07FFE7EFF12C97890183AE4F0A3EFF0DD
:1036780074FFFFFE12C9787E0090171074FFF0A344
:103688007479F0A37491F0901832E0FDA3E09017DC
:1036980013CDF0A3EDF0901834E0FDA3E0901715DA
:1036A800CDF0A3EDF0901836E0FDA3E0901717CD0C
:1036B800F0A3EDF0901838E0FDA3E0901719CDF0D5
:1036C800A3EDF090183AE0FDA3E090171BCDF0A30E
:1036D800EDF0A3EEF0A3EFF090001EE0FF90171FAF
:1036E800EEF0A3EFF090001FE0FF901721EEF0A39B
:1036F800EFF0900020E0FF901723EEF0A3EFF0909A
:103708000021E0FF901725EEF0A3EFF0900022E0F3
:10371800FF901727EEF0A3EFF0900023E0FF90173B
:1037280029EEF0A3EFF0901758E0FF90172BEEF07A
:10373800A3EF023984785B7C117D017BFF7A79796C
:10374800C6122B24EF600302396590171074FFF03E
:10375800A37479F0A374D0F0901748E0FE3395E095
:10376800901713F0A3CEF0901749E0FE3395E09040
:103778001715F0A3CEF090174AE0FE3395E09017A6
:1037880017F0A3CEF090174BE0FE3395E090171991
:10379800F0A3CEF090174CE0FE3395E090171BF0A5
:1037A800A3CEF090174DE0FE3395E090171DF0A3DF
:1037B800CEF090174EE0FE3395E090171FF0A3CEA1
:1037C800F090174FE0FE3395E0901721F0A3CEF06C
:1037D800901750E0FE3395E0901723F0A3CEF090B9
:1037E8001751E0FE3395E0901725F0A3CEF090171F
:1037F80052E0FE3395E0901727F0A3CEF0901753D0
:10380800E0FE3395E0901729F0A3CEF0901754E02E
:10381800FE3395E090172BF0A3CEF0901755E0FEFD
:103828003395E090172DF0A3CEF0901756E0FE33B5
:1038380095E090172FF0A3CEF0901757E0FE339540
:10384800E0901731F0A3CEF07B017A10795A125428
:10385800F9900FD5EEF0A3EFF0E0245AF9E4341014
:10386800FA7B01C003C002C00190171074FFF0A3D7
:10387800747AF0A3747DF0901738E0FF901713E482
:10388800F0A3EFF0901739E0FF901715E4F0A3EFDD
:10389800F090173AE0FF901717E4F0A3EFF09017B5
:1038A8003BE0FF901719E4F0A3EFF090173CE0FF1E
:1038B80090171BE4F0A3EFF090173DE0FF90171D61
:1038C800E4F0A3EFF090173EE0FF90171FE4F0A399
:1038D800EFF090173FE0FF901721E4F0A3EFF0908E
:1038E8001740E0FF901723E4F0A3EFF0901741E0B2
:1038F800FF901725E4F0A3EFF0901742E0FF901730
:1039080027E4F0A3EFF0901743E0FF901729E4F0C5
:10391800A3EFF0901744E0FF90172BE4F0A3EFF02B
:10392800901745E0FF90172DE4F0A3EFF0901746AD
:10393800E0FF90172FE4F0A3EFF0901747E0FF9017
:103948001731E4F0A3EFF0D001D002D0031254F9FC
:10395800900FD6E02FF0900FD5E03E8030785B7C5A
:10396800117D017BFF7A7A79E3122B24EF70239083
:10397800171074FFF0A3747AF0A374E8F07B017A4F
:1039880010795A1254F9900FD5EEF0A3EFF0D21730
:10399800802D785B7C117D017BFF7A7B7905122B6A
:1039A80024EF701B801190182FE024D9F582E4349D
:1039B8000FF583E0B4180890117CE0FF12A7CA90B5
:1039C800182FE004F0700690182EE004F0023591EC
:0139D80022CC
:109ACD00E4901A1DF090117BE0FEA3E0FF7C007D79
:109ADD003D1225F474242FF9740C3EFA901A1E745D
:109AED0001F0A3EAF0A3E9F09016D3E07002A3E031
:109AFD00704C901647E0FEA3E0FFD39400EE940067
:109B0D00403C900FD5EEF0A3EFF0E4901A1CF090CE
:109B1D001A1CE0FFD3900FD6E09F900FD5E0940074
:109B2D00401A12C12B901A1CE0245AF582E434100D
:109B3D00F583EFF0901A1CE004F080D3D21790114A
:109B4D005AE0FF6402600EEF64036009EF64046085
:109B5D0004EFB40546301743C2177B017A10795ACA
:109B6D00C003C002C001901A1EE0FBA3E0FAA3E0FF
:109B7D00F990000E122943900FD5E0FEA3E0FF905F
:109B8D001A1EE0FBA3E0FAA3E0F9900011EE8FF0AE
:109B9D001226D4901A1D748EF0800990115AE0701F
:109BAD000312B8BA90115AE0B4070890117CE0FF87
:089BBD0012A7CA901A1DE0FF77
:019BC500227D
:0FC9220090115AE064076002E4F07F0502B494BC
:10C6AD00901059E0C394204002E4F0901059E0241A
:10C6BD005BF582E43411F583EFF0901059E004F04E
:01C6CD00224A
:08AD2600901A21EEF0A3EFF0FA
:10AD2E0090117BE0FEA3E0FF7C007D3D1225F474C4
:10AD3E00242FF9740C3EFA7B01901A23EBF0A3EA50
:10AD4E00F0A3E9F0901A21E0FFA3E0900011CF8F5D
:10AD5E00F01226D47A16794FC003C002C001901AA1
:10AD6E0023E0FBA3E0FAA3E0F990000E122943E4DE
:10AD7E00901647F0A3F090117CE0FF901A23E0FBB1
:10AD8E00A3E0FAA3E0F990000E122913C003C0024B
:10AD9E00C001901A23E0FBA3E0FAA3E0F9900011A2
:10ADAE0012269CFD901912E5F0F0A3EDF0D001D023
:06ADBE0002D003128562C1
:01ADC400226C
:10C6ED00E4FFFEE4FDFC000DBD00010CBC08F7BD30
:0DC6FD0098F40FBF00010EEF64284E70E6A8
:01C70A00220C
:0FC91200E4FFFE000FBF00010EBE01F7BF22F4CD
:01C9210022F3
:10C89600D2B112C912C2B012C912C2B112C912D291
:04C8A600B002C91201
:0CC98400C2B0D2B112C912D2B002C91266
:02C68A00AD07FA
:10C68C00E4FBED3392B012C912D2B112C912C2B18D
:10C69C00ED25E0FD12C9120BEBB408E6D2B002C9CD
:01C6AC00127B
:05C55D00E0FF12C68A98
:10C56200E4FF7E01D2B0EE600DA2B0E433FE0FEF25
:10C57200B4FFF37F0022D2B112C912C2B112C912A2
:02C582007F0137
:01C584002294
:05B49400901A81EFF0A9
:10B49900E4A3F0A3F0EF24FB601424DD6018246812
:10B4A900601C24AE701E901A827407F08016901AE0
:10B4B900827402F0800E901A827401F08006901A4C
:10B4C900827404F012C8967F6812C68A12C5629007
:10B4D9001A83EFF07002FF227FC012C68A12C5627A
:10B4E900901A83EFF07002FF22901A8212C55DA3B1
:10B4F900EFF07002FF22901A8112C55D901A83EF56
:09B50900F012C98412C6EDE0FF46
:01B512002216
:07C9AE002575202020200068
:10997F0041170B00602016E72020202020202020F8
:10998F0020202020202020202020202020202020C8
:10999F00202020202020202041170C0044170700F2
:0399AF00000000B5
:0AC99B00E4F58475C3A643C004222E
:03243B0002AE638B
:10AE6300C0E0C0F0C083C082C0D075D000C000C0B5
:10AE730001C002C003C004C005C006C007AFC1EFD4
:10AE83002480601724E0605424F8603A24F060368C
:10AE93002458704B90170BE4F0804490170BE0FF9D
:10AEA30004F074D72FF582E43416F583E5C2F090ED
:10AEB300170BE064017028E5C230E723E5C2543F75
:10AEC300FF1291F4801990170CE0FF04F074E72F40
:10AED300F582E43416F583E0F5C2800312A325530B
:10AEE300C0F7D007D006D005D004D003D002D001DC
:0DAEF300D000D0D0D082D083D0F0D0E0329B
:10A325009016D7E0B40700400302A3F990A338F8CC
:10A3350028287302A34D02A36F02A39002A3B102C2
:10A34500A3D202A3EA02A3F59016DBE0900010F079
:10A355009016DAE0900011F09016D9E0900012F016
:10A365009016D8E090001302A3F19016DBE0900060
:10A375001AF09016DAE090001BF09016D9E09000E4
:10A385001CF09016D8E090001D80619016DBE090DF
:10A395000024F09016DAE0900025F09016D9E090B0
:10A3A5000026F09016D8E090002780409016DBE05C
:10A3B500901707F09016DAE0901708F09016D9E09C
:10A3C500901709F09016D8E090170AF0229016D849
:10A3D500E09015BBF0700B900010F0A3F0A3F0A374
:10A3E50004F0D214229016D8E0901646F0D214222A
:05A3F500D20FD214227A
:1091F400E490170CF0EFB4080040030292ED909253
:1092040009F8282873029221029247029278029266
:10921400950292B20292D30292DF0292E490171066
:1092240074FFF0A374C9F0A374AEF090117DE0FF55
:10923400A3E0901713CFF0A3EFF07B017A1679E740
:109244000254F990001EE09016E7F090001FE090A1
:1092540016E8F0900020E09016E9F0900021E090EC
:1092640016EAF0900022E09016EBF0900023E090D4
:1092740016ECF022900013E09016E7F0900012E054
:109284009016E8F0900011E09016E9F0900010803C
:109294003890001DE09016E7F090001CE09016E86E
:1092A400F090001BE09016E9F090001A801B9000EB
:1092B40027E09016E7F0900026E09016E8F0900082
:1092C40025E09016E9F0900024E09016EAF022E4FC
:1092D4009016E7F0A3F0A3F0A3F0229015BB80034F
:1092E400901646E09016E7F022901A84741CF0A3BE
:1092F4007401F0E4A3F0901A84E0FEA3E0FF12C925
:1093040031901A86E024E7F582E43416F583EFF011
:10931400901A85E004F07006901A84E004F0901A24
:0A93240086E004F0E0C3942040CC82
:01932E00221C
:01FFFA000105
:02FFFB00419E25
:03FFFD00000802F7
:0599B200420D980000C9
:10AB3400900DABE0600302ABDA900DAAE0C3940978
:10AB4400500302ABDA900D98E475F00112265B9085
:10AB54000D98E07004A3E064647022900D98F0A353
:10AB6400F0900D9E122885EF24FFFFEE34FFFEEDDA
:10AB740034FFFDEC34FFFC900D9E1228AD900DA225
:10AB8400122885900D9E1228A1D312284E5047E416
:10AB9400FFFEFDFC900D9E1228A1C312284E7005E5
:10ABA400900DAAF022900DA6122885900D9E1228D1
:10ABB400A1D312284E5007900DAA740BF022900DC9
:10ABC400A2122885900D9E1228A1D312284E500659
:06ABD400900DAA740AF0C6
:01ABDA002258
:0C4D910090177C12290A90177F1228ADA1
:104D9D00E4901783F0A3F0A3F0A3F0901792F0A383
:104DAD00F0900DAAE07003025112E064076004E078
:104DBD00B40A087B017A0D79AC80067B017A1879EB
:104DCD000F90179412290A901845E4F0A37443F03C
:104DDD00A37411F0E4A3F07B017A0D79B1A312292C
:104DED000A90184C7402F0A37424F09017941228B2
:104DFD00EA7D447C00126717901787EFF0C364803B
:104E0D0094805003025103E0FF3395E0FE7C007D5A
:104E1D003D1225F474242FF9740C3EFA7B01901782
:104E2D008912290A901783E07002A3E060030250F3
:104E3D00F3901788F090C679E493FF901788E0C33C
:104E4D009F40030250D690177C1228EA90177F12CC
:104E5D0028851257F990178C1228AD901792E09073
:104E6D000DB9F0901793E0900DBAF09017941228A9
:104E7D00EA740190180F6B7008E965827003EA659A
:104E8D00837007900DB004F08005E4900DB0F07BB9
:104E9D00017A0D79B1C003C002C0019017891228A3
:104EAD00EA90000E1229439017891228EA900011FA
:104EBD00740275F0241226D41283C8901785EEF073
:104ECD00A3EFF0900DAAE0B4070B901783E4F0A3C5
:104EDD0004F00250D6901788E02401FFE433FEEF72
:104EED007802C333CE33CED8F9FF901790EEF0A3EE
:104EFD00EFF0C3901785E064809480501590179063
:104F0D00E0FEA3E0FF7C007D641225F412C782024F
:104F1D0050CD900DB07401F07B017A0D79B19017E1
:104F2D00E27402F0A37424F0901790E0FEA3E0FF6A
:104F3D007C007D641225F49017E4EEF0A3EFF09061
:104F4D001787E0FF12806B901785EEF0A3EFF0D37B
:104F5D009400EE6480948050030250B4900DB8E03C
:104F6D00FFE4FCFDFE7808122872A804A905AA0624
:104F7D00AB07900DB7E0FFE4FCFDFE12282B78087F
:104F8D00122872A804A905AA06AB07900DB6E0FF7A
:104F9D00E4FCFDFE12282B7808122872A804A9053E
:104FAD00AA06AB07900DB5E0FFE4FCFDFE12282B21
:104FBD0090178C1228A1C312284E60030250B49092
:104FCD000DB1E0640260030250B4900DAAE024FD1F
:104FDD00602624F9602214601F240A60030250A881
:104FED0012C858BF020F900DAA7403F012C70B120E
:104FFD00C7470250C30250A812C858EF640560039A
:10500D0002509B78107C007D017B017A0D79C1FEE9
:10501D007F0412257612C72912C76512C747129E43
:10502D00A3900D9E1228AD900D9E122885900D9A7D
:10503D001228AD12C70B74FFFFFEFDFC900D9E12E2
:10504D0028A1C312284E7007900DAB04F0802FE4F9
:10505D007B02FAF9F8900D9E122885122799900D72
:10506D00A21228ADE47B08FAF9F8900D9E1228855E
:10507D00122799900DA61228ADE4900DABF0900D6E
:10508D00AA7409F0901783E4F0A304F0802812C8E5
:10509D0058EF64027003024F25800090178374FF50
:1050AD00F0A3749CF0800F901790E0FEA3E0FFA397
:1050BD00EE8FF012265B901783E07002A3E070096B
:1050CD00901788E004F0024E42901785E0FEA3E0B1
:1050DD00FFD39400EE648094804003024E3190170C
:1050ED0083EEF0A3EFF0900DB074FFF0901787E012
:1050FD00FF12AC82800F901787E0FE3395E090177A
:0D510D0083F0A3CEF0901783E0FEA3E0FF37
:01511A002272
:0C57F9009018E512290A9018E81228AD5B
:10580500900DAAE024FD70030258A124FC60142425
:10581500FD70030258A11470030258A1240A600305
:1058250002592112242EEF2401FFE43EFEE433FD4C
:10583500E433FC7810122872C004C005C006C00706
:1058450012242EEF2401FFE43EFEE4FCFDD003D03C
:1058550002D001D00012282B9018EC1228AD901818
:10586500EC122885900DB5EFF09018EC122885788C
:105875000812285F900DB6EFF09018EC1228857885
:105885001012285F900DB7EFF09018EC122885786C
:105895001812285F900DB8EFF002592B900DB8E063
:1058A500FFE4FCFDFE9018EC1228AD9018EC1228D0
:1058B500857808122872A804A905AA06AB07900DD9
:1058C500B7E0FFE4FCFDFE12282B9018EC1228AD82
:1058D5009018EC1228857808122872A804A905AA40
:1058E50006AB07900DB6E0FFE4FCFDFE12282B90F9
:1058F50018EC1228AD9018EC122885780812287239
:10590500A804A905AA06AB07900DB5E0FFE4FCFDC8
:10591500FE12282B9018EC1228AD800A9018EC1274
:1059250028B900000000900DB17401F0A3F0A37434
:1059350006F07E007F047D007B017A0D79C5122C6F
:105945002A7E007F047D007B017A0D79C9122C2AFD
:1059550078CD7C0D7D017B017A00791E7E007F0666
:105965001225769018E51228EAE94A6011781D7C1F
:105975000E7D019018E51228EA122C0D8005E490A1
:105985000E1DF07B017A0E799D9018F012290A9070
:1059950018F0E475F0011228F374631225E29018EB
:1059A500F0E475F0011228F374821225E29018F0E4
:1059B500E475F0011228F374531225E29018F0E40F
:1059C50075F0011228F374631225E29018F0E4755E
:1059D500F0011228F374351225E29018F0E475F001
:1059E500011228F374011225E2900DAAE024FD604E
:1059F5004E24FC7003025B1624FD7003025AD41476
:105A05007003025AD4240A6003025B40900DBB74F4
:105A150080F07E007F047D007B017A0D79C1122C18
:105A25002A7E007F047D007B017A0D79BD122C2A28
:105A35009018F0E475F0011228F37401025B0590EB
:105A45000DBB7480F07E007F047D007B017A0D79AB
:105A5500BD122C2A9018F0E475F0011228F3740396
:105A650012243E12BDF69018F012290A9018F0E49F
:105A750075F0011228F374321225E29018F0E475DE
:105A8500F0011228F374041225E2E4FF74C12FF526
:105A950082E4340DF583E0FE9018F0E475F0011210
:105AA50028F3EE1225E20FEFB404E19018F0122866
:105AB500EA12A88112B97B9018F012290A7E007F9C
:105AC500047D007B017A0D79C1122C2A025B40E42A
:105AD500900DBBF0FE7F04FD7B017A0D79C1122C80
:105AE5002A78BD7C0D7D017B017A0079107E007FCF
:105AF500041225769018F0E475F0011228F374036A
:105B050012243E9018F012290A12A88112B97B803E
:105B150024E4900DBBF0FE7F04FD7B017A0D79C175
:105B2500122C2A9018F0E475F0011228F37407126C
:105B3500243E12BDF69018F012290A9018F012288A
:0C5B4500EA74FF1225E29018EC1228858B
:015B51002231
:10AF00007B017A0E79A19019F212290AE92437F906
:10AF1000EA3401FA9019F512290A9019F21228EA76
:10AF200012259CFE6F606EEEF460219019F51228D8
:10AF3000EAC003C002C0019019F21228EAD3D082FD
:10AF4000D083D0E0E99582EA9583400E7B007A00B9
:10AF500079009019F212290A803BEE70179019F3CC
:10AF6000E475F00112265B9019F21228EA12259C72
:10AF700060EB80A69019F3E475F00112265B90193E
:10AF8000F21228EA12259C04FEFD9019F3E48DF0DC
:0BAF900012265B80859019F21228EA5F
:01AF9B002293
:10C85800E4FC7F3512AF00E94A6007900002122518
:04C86800B5FCAF0468
:01C86C0022A9
:109EA3009019CB1228B9000000007F3312AF009045
:109EB30019CF12290AE94A7003029F8D9019D0E441
:109EC30075F00212265B9019CF1228EA12259CFF27
:109ED300E4FCFDFE78181228729019CB1228AD907D
:109EE30019D0E475F00112265B9019CB1228A1C09A
:109EF30000C001C002C0039019CF1228EA12259CAA
:109F0300FFE4FCFDFE7810122872D003D002D001CA
:109F1300D0001227019019CB1228AD9019D0E47507
:109F2300F00112265B9019CB1228A1C000C001C01A
:109F330002C0039019CF1228EA12259CFFE4FCFD0E
:109F4300FE7808122872D003D002D001D000122765
:109F5300019019CB1228AD9019D0E475F0011226A7
:109F63005B9019CB1228A1C001C002C0039019CF86
:109F73001228EA12259CFFE4FCFDFED003D002D098
:109F8300011227019019CB1228AD9019CB12288505
:019F930022AB
:10C70B007F3612AF00E94A6014740229F9E43AFA51
:0DC71B0078AC7C0D7D017E007F0412257638
:01C7280022EE
:09243E001225E29018F01228EAC0
:06244700901A8712290A19
:10244D00901A87E475F0011228F3743D1225E2907D
:10245D001A87E475F0011228F374071225E2901A19
:10246D0087E475F0011228F374011225E2E4FF747C
:10247D001E2FF582E43400F583E0FE901A87E47593
:10248D00F0011228F3EE1225E20FEFB406E1901AD7
:04249D00871228EA90
:0124A1002218
:06BDF6009018F012290A6A
:06BDFC00901A8A12290AC8
:10BE0200901A8AE475F0011228F374361225E29032
:10BE12001A8AE475F0011228F374041225E2E4FF91
:10BE220074AC2FF582E4340DF583E0FE901A8AE4B7
:10BE320075F0011228F3EE1225E20FEFB404E1903F
:05BE42001A8A1228EA33
:01BE470022D8
:06A881009018E812288582
:10A887009019D212290A9019D51228ADE4FFFEFDBE
:10A89700FC9019D51228A1C312284E700C90C67AC5
:10A8A7001228919019D51228AD9019D2E475F001AC
:10A8B7001228F374331225E29019D2E475F00112CD
:10A8C70028F374041225E29019D5122885781812F6
:10A8D700285F9019D2E475F0011228F3EF1225E2F0
:10A8E7009019D5122885781012285F9019D2E4752F
:10A8F700F0011228F3EF1225E29019D51228857876
:10A907000812285F9019D2E475F0011228F3EF12AC
:10A9170025E29019D8E0FF9019D2E475F0011228CA
:0CA92700F3EF1225E29019D21228EA2268
:06B97B009018F012290AE9
:10B98100901A8D12290A901A8DE475F0011228F38C
:10B9910074371225E2901A8DE475F0011228F374C0
:10B9A100031225E2901A8DE475F0011228F3740157
:10B9B1001225E2901A8DE475F0011228F374031236
:10B9C10025E2901A8DE475F0011228F37406122510
:08B9D100E2901A8D1228EA220F
:10C729007F0112AF00E94A6014740229F9E43AFA68
:0DC73900781A7C007D017E007F04122576B9
:01C7460022D0
:10C765007F0312AF00E94A6013740229F9E43AFA2B
:0CC7750078247C007D017E000F122576E8
:01C781002295
:10C747007F0612AF00E94A6014740229F9E43AFA45
:0DC7570078517C1A7D017E007F041225764A
:01C7640022B2
:0CC39D009019D912290A9019DC1228AD61
:10C3A9007E007F047D007B017A007910122C2A908F
:10C3B9000DAA7401F09019D91228EA9019DC1228F3
:04C3C90085124D91FB
:01C3CD00224D
:0683C8009018A712290A1B
:1083CE00E94A70057EFF7F85229018A71228EA12CF
:1083DE00C61F9018AAEEF0A3EFF04E7003FEFF2218
:1083EE009018A71228EA90000E1229139018AE12B8
:1083FE00290A9018ABE02408FF9018AAE03400FE7A
:10840E009018ACF0FCA3EFF0FD9018A71228EA121A
:10841E002671FBAAF0C002C0039018A71228EA909A
:10842E00000212269CFF90188AE5F0F0A3EFF07B75
:10843E00017A007910A312290A9018A71228EAE9E6
:10844E002404F9E43AFA90188F12290AD003D002C4
:10845E007F11128B659018B11228AD9018AE1228AC
:10846E00EA9018AAE0FFA3E090193CCFF0A3EFF03A
:10847E009018B112288512A58C9018B11228AD90C3
:10848E0018B112288512BE979018B11228AD901807
:10849E00B3E0FFA3E0A3CFF0A3EFF09018A712284C
:1084AE00EA90001B1225B5FD9018ACE0FFA3E090FA
:1084BE001867CFF0A3EFF09018A71228EA127703EF
:1084CE00EF6401600280779018A71228EA122671D5
:1084DE00E5F0FF12C2299018A71228EA122671FFA2
:1084EE0012C2299018A71228EA90000212269CE5C3
:1084FE00F0FF12C2299018A71228EA900002122645
:10850E009CFF12C2299018ACE0FF12C2299018AD40
:10851E00E0FF12C2299018B5E0FF12C2299018B6DA
:10852E00E0FF12C2299018A71228EA9018AAE0FCC0
:10853E00A3E0FD12BEE6D3EF648094805006EF33C5
:10854E0095E0FE229018A71228EA90001112269CA0
:03855E00FFAEF07D
:0185610022F7
:10C45D00901A90EFF0A3EDF0A3EBF01297ACEF4E26
:10C46D0070057EFF7F8B22C2AF12C96AD2AF901AC0
:0DC47D0090E0FFA3E0FDA3E0FB12932F224F
:0599B700421808000049
:10B708001297ACEF4E70057EFF7FFF22E490180A77
:10B71800F0A3F0FBFAF9A312290A7E007F047D004A
:10B728000B7A187917122C2A7E007F047D007B0182
:10B738007A187913122C2A7E007F047D007B017A07
:10B748000C7920122C2A90C6807401932409FFE4F6
:10B75800933400FE7D007B017A0D7918122C2A9013
:10B76800181274FFF0901811F0901810F090180F3C
:06B77800F07E007F0122BB
:10C4E100129692901ABAEFF030E2101286FCC3EF66
:10C4F10064809480400F129BC6800A901ABAE03083
:0AC50100E60312A4C4901ABAE0FF8A
:01C50B00220D
:10969200E490180AF0A3F012C8BED3EF9400EE646F
:1096A20080948050037F002212B9D9EF9019F9F00B
:1096B200A3E4F012B9D99019F9EE8FF012265B905B
:1096C20019F9E0FEA3E0FFD394EEEE94055004EF07
:1096D2004E700612C8AA7F002290189F1228EA90A4
:1096E20019F9E0FEA3E029F9EA3EFAA312290A9049
:1096F200C66CE493FE740193FF2411F974063EFADA
:109702007B01C003C002C0019019FB1228EAD3D02A
:1097120082D083D0E0E99582EA958350089019FBC4
:109722001228EA802E90189F1228EA74112FF582CF
:1097320074063EFEC3E58299FFEE9AFEC39019FAC3
:10974200E09FFF9019F9E09EFE7B0174112FF974DE
:10975200063EFA90180C12290A12B1F5EF146009AC
:109762000470037F20227F00221269A49019F8EF6F
:10977200F06004E030E30512A4C4802890C678E4C7
:109782009360219019F8E0FF20E00620E10330E227
:10979200137B017A0079149019A212290A7A187996
:0997A2001712A40A9019F8E0FF67
:0197AB00229B
:0B770300901866EDF090186312290A40
:10770E00E94A70037F8522900DB0E0FEF46012907E
:10771E0018631228EA122671644445F060037FA4B0
:10772E0022EE6401601D78107C007D017B017A0CD5
:10773E0079207E007F04122ED5EF3395E04F700333
:10774E007F8522901867E475F01412265B90180856
:10775E00E475F00112265B901808E0FFA3E0901884
:10776E006FCFF0A3EFF09018631228EA90001D126D
:10777E0025B530E40590C67F800390C67EE493FE67
:10778E00901866E0FDEDFF901871EEF0A3EFF0900B
:10779E001867E0FCA3E0FDE490179DF0A3F09018AD
:1077AE0071E0FFA3E090179FCFF0A3EFF07B017A7B
:1077BE00007910A312290A9018631228EAE924040A
:1077CE00F9E43AFA9017A412290AE49017A7F09058
:1077DE00186FE0FAA3E0FB7F007E45127EA690189C
:1077EE00691228AD901869122885780812285F90C2
:1077FE00186DEFF090186912288590186EEFF090C2
:10780E001866E0B40107E4901873F08012900DB082
:10781E00E0B401047F0180027F00901873EFF090B6
:10782E0018631228EA901873E0901973F07D007CAB
:10783E00081290B8EF64016001227F4512C229E45C
:10784E00FF12C229901867E0FF12C229901868E053
:10785E00FF12C22990186FE0FF12C229901870E033
:10786E00FF12C229E4FF12C229E4FF12C2299018A6
:10787E00631228EA90001D1225B530E40590C67FEC
:10788E00800390C67EE493FF12C229901866E0FF33
:10789E0012C22990186DE0FF12C22990186EE0FFF7
:1078AE0012C229900010E0FF12C229900011E0FFD1
:1078BE0012C229900012E0FF12C229900013E0FFBD
:1078CE0012C2299018631228EA9000041225B5FFFF
:1078DE0012C2299018631228EA9000051225B5FFEE
:1078EE0012C2299018631228EA9000061225B5FFDD
:1078FE0012C2299018631228EA9000071225B5FFCC
:05790E0012C2297F01F7
:017913002251
:10A4C40090180C1228EAC003C002C00190189F1211
:10A4D40028EAD082D083D0E06B7008E965827003EB
:10A4E400EA6583700302A58B90180C1228EAC00356
:10A4F400C002C00190189F1228EAC3D082D083D032
:10A50400E0E99582EA9583501790189F1228EAAEE5
:10A5140002AF0190180C1228EAC3E99FFFEA8022D7
:10A5240090180C1228EAAE02AF0190189F1228EA84
:10A53400C3E99FFFEA9EFEC390C66C7401939FFF1C
:10A54400E4939E901AB5F0A3EFF09018A4E0FEA354
:10A55400E0FFD3901AB6E09F901AB5E09E40030244
:10A56400C8AAC2AF901AB5E0FEA3E0FFC39018A535
:10A57400E09FF09018A4E09EF090180C1228EA9046
:07A58400189F12290AD2AF53
:01A58B0022AD
:1069A400E490187CF012B9D9901879EFF0E0FE5415
:1069B4000FA3F0EEC4540F64046003026C01E0FF03
:1069C400C394055003026C01EF25E025E0F024ECAC
:1069D400A3F012B9D9901874EFF012B9D9EF901846
:1069E4000AF0A3E4F012B9D990180AEE8FF0122637
:1069F4005BC390180BE0941490180AE094005003C1
:106A04007F002212B9D9EF90187DF0A3E4F012B9F7
:106A1400D990187DEE8FF012265B12B9D9EF901839
:106A24007FF0A3E4F012B9D990187FEE8FF012260C
:106A34005B901880E030E50790187CE04410F01279
:106A4400B9D9901875EFF012B9D9901876EFF014FF
:106A5400601D14602324F1600D240B702490187CB5
:106A6400E04401F0802290187CE04402F080199008
:106A7400187CE04404F0801090187CE04440F080DE
:106A84000790187CE04408F012B9D9901877EFF019
:106A940012B9D9901878EFF012B9D9901817EFF00D
:106AA40012B9D9901818EFF012B9D9901819EFF05B
:106AB40012B9D990181AEFF0901817E0FFC394E0B8
:106AC4004009EFD394EF50037F002212B9D99018F4
:106AD40013EFF012B9D9901814EFF012B9D9901835
:106AE40015EFF012B9D9901816EFF0900010E0707D
:106AF4001A90187CE030E21378107C007D017B0151
:106B04007A1879137E007F0412257612C9C5EF70B6
:106B140047900010E0FF901813E0FE6F6004EEF45D
:106B24007033900011E0FF901814E0FE6F6004EEE3
:106B3400B4FF22900012E0FF901815E0FE6F60048D
:106B4400EEB4FF11900013E0FF901816E0FE6F60A2
:106B540007EEF460037F0022901879E0FE90187429
:106B6400E0FDEDFFC006C00790180AE0FCA3E0FDBD
:106B740090187FE0FFA3E090179DCFF0A3EFF09073
:106B84001875E0FEA3E0FBEBFF90179FEEF0A3EF78
:106B9400F07B017A187913A312290A7A18791790CD
:106BA40017A412290A90187BE09017A7F090187D7B
:106BB400E0FAA3E0FBD007D006127EA6901881125B
:106BC40028AD901881122885780812285F901877CC
:106BD400E0B5070D901881122885901878E06F6051
:106BE400037F002290187AE0FFC390180BE09FF017
:0F6BF40090180AE09400F090187CE0FF227F00D8
:016C0300226E
:02C9C500E4FF8D
:01C9C700224D
:0E7EA600901799ECF0A3EDF0A3EAF0A3EBF037
:107EB400E4FCFD9017A81228AD9017A81228A1C0C1
:107EC40000C001C002C0039017A11228EA9000016B
:107ED4001225B5FD12259CFEEDFFE4FCFDD003D078
:107EE40002D001D0001227019017A81228AD9017D4
:107EF400A81228A1C000C001C002C0039017A1129B
:107F040028EA9000021225B5FE9000031225B5FD63
:107F1400EDFFE4FCFDD003D002D001D00012270114
:107F24009017A81228AD9017A81228A1901799E0CD
:107F3400FEA3E0FFE4FCFD1227019017A81228AD70
:107F44009017A81228A190179BE0FEA3E0FFE4FC81
:107F5400FD1227019017A81228AD9017A81228A186
:107F640090179DE0FEA3E0FFE4FCFD1227019017AB
:107F7400A81228AD9017A81228A190179FE0FEA37D
:107F8400E0FFE4FCFD1227019017A81228AD90171A
:107F9400A81228A1C000C001C002C0039017A412F7
:107FA40028EA9000011225B5FD12259CFEEDFFE4A0
:107FB400FCFDD003D002D001D0001227019017A8F5
:107FC4001228AD9017A81228A1C000C001C002C099
:107FD400039017A41228EA9000021225B5FE90001F
:107FE400031225B5FDEDFFE4FCFDD003D002D00162
:107FF400D0001227019017A81228AD9017A7E0FF10
:10800400604F20E04CE49017AEF09017A7E0FF908B
:1080140017AEE0C39F503A12B9D9EF9017ACF0A352
:10802400E4F012B9D99017ACEE8FF012265B9017DA
:10803400A81228A19017ACE0FEA3E0FFE4FCFD1217
:1080440027019017A81228AD9017AEE02402F08003
:10805400B99017A812288512BE979017A81228ADB8
:068064009017A812288508
:01806A0022F3
:1086FC0090196574FFF012B9D9901964EFF0640801
:10870C00600302888090C68004932408FFE49334AD
:10871C0000FE90180AE0FCA3E0FDD39FEC9E400302
:10872C00028880C3ED9404EC94005003028880E42A
:10873C00901845F0A3F0A304F0E4A3F0FBFAF9A31E
:10874C0012290AE490184CF0A3F00B7A187917FD53
:10875C00FC126717901965EFF0C364809480500386
:10876C0002888012B9D9901964EFF090180BE024AC
:10877C00FEFE90180AE034FF901967F0A3CEF0903B
:10878C001965E0900D18F0901967E0900D19F090B4
:10879C001968E0900D1AF090196774FF75F0FE12CD
:1087AC00265B12B9D9901966EFF012B9D9901966F7
:1087BC00E02408F0C3940850010F901966E0900D66
:1087CC001BF0A3EFF07B017A0D791D90196912292A
:1087DC000A90189F1228EA90C66CE493FC740193DB
:1087EC002411F58274063CFCC3E58299FFEC9ACF08
:1087FC002401CF340090196CF0FCA3EFF0FD90191C
:10880C0067E0FEA3E0FFD39DEE9C5012A31228EA72
:10881C00A801AC02AD0390189F1228EA805390195E
:10882C006CE0FEA3E0FF9019691228EAA801AC02E3
:10883C00AD0390189F1228EA12257690196CE0FE71
:10884C00A3E0FFC3901968E09FF0901967E09EF0D9
:10885C00E0FCA3E0FDC004C005A31228EAE92FF94F
:10886C00EA3EA801FCAD037B017A067912D007D051
:0C887C000612257612A4C4901965E0FFD6
:0188880022CD
:109BC600900D18E0901A00F0C36480948050030250
:109BD6009CBBE0FFFD3395E0FC900C4275F03DED3B
:109BE600122CEDEC75F03DA42583F583E020E0030F
:109BF600029CBBEF3395E0FE7C007D3D1225F4749C
:109C0600242FF9740C3EFA7B01901A0112290A904E
:109C1600001B1225B564016003029CBB900D19E080
:109C26009019FEF0A3E4F0900D1AE0FF9019FEE4FF
:109C36008FF012265B90C6807401932406FFE4938E
:109C46003400FED39019FFE09F9019FEE09E505D10
:109C56007A0D791BC003C002C001901A011228EACE
:109C660090000E1229439019FEE0FEA3E0FF901A21
:109C7600011228EA900011EE8FF01226D4EF24028A
:109C8600FFE43E901867F0A3EFF07D01127703EF33
:109C9600601BE4FF12C229E4FF12C229901A0112C6
:109CA60028EA9019FEE0FCA3E0FD12BEE6901A0039
:059CB600E0FF12AC828A
:019CBB002286
:10C8AA00C2AF12C79C7B017A06791290180C122922
:04C8BA000AD2AF22CD
:108B6500901885EFF0A3ECF0A3EDF0A3EAF0A3EBEA
:018B7500F00F
:108B760090188C1228EA9000011225B5FD12259C4A
:108B8600FEEDFFE4FCFD9018921228AD90189212AB
:108B960028A1C000C001C002C00390188C1228EAA8
:108BA6009000021225B5FE9000031225B5FDEDFFDB
:108BB600E4FCFDD003D002D001D0001227019018AA
:108BC600921228AD9018921228A1C000C001C002CE
:108BD600C00390188F1228EA9000011225B5FD12E5
:108BE600259CFEEDFFE4FCFDD003D002D001D000B1
:108BF6001227019018921228AD9018921228A1C03F
:108C060000C001C002C00390188F1228EA9000022B
:108C16001225B5FE9000031225B5FDEDFFE4FCFD1F
:108C2600D003D002D001D00012270190189212284A
:108C3600AD9018921228A1901885E0FFE4FCFDFE85
:108C46001227019018921228AD9018921228A1901E
:108C56001886E0FEA3E0FFE4FCFD122701901892BF
:108C66001228AD9018921228A1901888E0FEA3E071
:108C7600FFE4FCFD1227019018921228AD9018927D
:108C86001228A190188AE0FEA3E0FFE4FCFD12275B
:108C9600019018921228AD901885E0B4111A901818
:108CA600921228A1901886E0FEA3E0FFE4FCFD12D4
:0E8CB60027019018921228AD9018921228856E
:018CC400228D
:0CA58C009019351228AD90193912290AD7
:10A5980090193CE0FCA3E0FD4C700302A64AE0548D
:10A5A80001901940F0ECC313FFED1390193CCFF064
:10A5B800A3EFF090193C74FFF5F0122CAB45F06056
:10A5C80046901939E475F0011228F312259C901968
:10A5D8003EF0A3E4F090193975F0011228F3122522
:10A5E8009CFF90193EE48FF012265B9019351228D3
:10A5F800A190193EE0FEA3E0FFE4FCFD12270190C4
:10A6080019351228AD80AC901940E06035901939A1
:10A618001228EA12259C7F00FE90193EF0A3EFF065
:10A6280090193EEEF0A3EFF09019351228A1901979
:10A638003EE0FEA3E0FFE4FCFD122701901935126D
:08A6480028AD90193512288598
:01A6500022E7
:10BE97008038901A55122885781012285FEC4D4E7D
:10BEA7004F602F901A55122885E4FDFCC004C00589
:10BEB700C006C007901A55122885781012285FD03F
:10BEC70003D002D001D000122701901A551228ADD5
:0FBED70080C0901A55122885122CE0E4FDFC2241
:0C242E00C2AF9018A2E0FEA3E0FFD2AF06
:01243A00227F
:10C782007B017A1A7926AD07AC0612B38F7B017A48
:09C792001A792612BCA1EF60F433
:01C79B00227B
:106C04007B017A0C792490190212290AE49019055F
:106C1400F0A3F0A3F0A3F0A3F0A3F090C6699375DA
:106C2400F03DA42424F9740C35F0FA90190B1229C0
:106C34000A900DAAE0FF70057EFF7F9D22EF640A93
:106C44006004EFB40B09900D9A12288512A6511214
:106C5400C4E1901901EFF030E003026D23901901B3
:106C6400E030E103026D2390190CE475F03D122627
:106C74005B90C669E49375F03DA42424F9740C3543
:106C8400F0FA7B01C003C002C00190190B1228EA7C
:106C9400C3D082D083D0E0E99582EA9583400C7B0F
:106CA400017A0C792490190B12290A90190B1228D5
:106CB400EA90001B1225B564067031E92438F9E422
:106CC4003AFA12BCA1EF602490190B1228EA900042
:106CD4001112269C45F0700B90001F1225B5C39429
:106CE40005400990190212290A026DCA7B017A191A
:106CF4007902122406EF3395E0FE901909F0A3EF10
:106D0400F0648E7002EEF47003026DCA901909E00B
:106D1400F47004A3E0649A6003026C35026E509030
:106D24001901E030E0117B017A1979021239D99006
:106D34001907EEF0A3EFF0901901E030E1117B01A7
:106D44007A197902125E80901907EEF0A3EFF090A1
:106D540019021228EAE94A7003026C35901901E01D
:106D640030E03D901907E0FEA3E0FFC3EE64809499
:106D740080500FEF64897002EEF46006BEFF21BFFD
:106D8400FA1E90001F1225B5701690001C1225B52E
:106D9400FF12AC827B007A00790090190212290A52
:106DA4009019021228EAE94A7003026C35C390195B
:106DB40007E0648094805003026C35122426EF644B
:106DC4009A7003026E509019021228EAE94A70037D
:106DD400026C3590001B1225B564067047127B0ABD
:106DE400901905EEF0A3EFF0648F7002EEF46034B6
:106DF400901905E0FEA3E0FFC3EE64809480500682
:106E0400BEFF11BFFA0E9019021228EA90001F1259
:106E140025B570109019021228EA90001C1225B5AD
:106E2400FF12AC829019021228EAE94A7003026C3C
:106E34003590001B1225B564116003026C35128372
:0F6E4400C8901905EEF0A3EFF0026C35E4FEFFE5
:016E5300221C
:10C2290090C668E493600FA2AFE433901ABBF0C2E2
:10C23900AFAE854385409018961228EAEF1225E2A1
:10C24900901897E475F00112265B90C668E4936034
:0BC259000A8E85901ABBE024FF92AF14
:01C2640022B7
:05AC8200901A59EFF0EB
:10AC8700C364809480401990C669E493FF901A5971
:10AC9700E0FD3395E0FCC3ED9F7480F86C984005A8
:10ACA7007EFF7F8522900C4275F03DED122CEDEC76
:10ACB70075F03DA42583F583E020E0057EFF7F86C0
:10ACC70022901A59E0FF3395E0FE7C007D3D122566
:10ACD700F474242FF9740C3EFA7B01A312290A900D
:10ACE700001B1225B5B40609901A5A1228EA12BB9E
:10ACF70046901A59E0FF3395E0FE900C4275F03DFF
:10AD0700EF122CEDEE75F03DA42583F583E4F0906A
:0EAD17001A5A1228EAE4F5F0122CC1E4FEFFED
:01AD2500220B
:05A7CA00901A5DEFF0A4
:10A7CF00C364809480401990C669E493FF901A5D2A
:10A7DF00E0FD3395E0FCC3ED9F7480F86C98400565
:10A7EF007EFF7F8522900C4275F03DED122CEDEC33
:10A7FF0075F03DA42583F583E020E0057EFF7F867D
:10A80F0022900DAAE0700D901A5DE0FF12AC827ECF
:10A81F00FF7F9D22901A5DE0FF3395E0FE7C007D67
:10A82F003D1225F474242FF9740C3EFA7B01A31208
:10A83F00290A90001B1225B5B40609901A5E12283A
:10A84F00EA12A9DF901A5DE0FF3395E0FE900C420B
:10A85F0075F03DEF122CEDEE75F03DA42583F583D9
:10A86F00E4F0901A5E1228EAE4F5F0122CC1E4FE2F
:01A87F00FFD9
:01A8800022B5
:106E5400901A2BE4F0A304F0A2AFE433FCC2AF9089
:106E6400C667E493FE64077043901A2EE584F0E449
:106E7400F584E5B264046017E5B264066011E5B216
:106E8400640A600BE5B2640C6005E5B2B40E1090C0
:106E94001A2FE5B2F075B2FFE065B2600C80009085
:106EA4001A2B74FFF0A374A7F0026FADEE640370A5
:106EB40045901A2FE5EFF0E4901A2DF0901A2FE088
:106EC400FE600D14FDEE5DF0901A2DE004F080ECF0
:106ED400901A2DE06401600A901A2B74FFF0A374D9
:106EE400A7F0901A2FE5EFF075EF8DE065EF7003D2
:106EF400026FBF026FB590C667E493FF640F7037EB
:106F0400901A2EE5BFF075BF01E5D364026005E574
:106F1400D3B40610901A2FE5D3F075D3FFE065D3F0
:106F2400600C8000901A2B74FFF0A374A7F0901AE1
:106F34002EE0F5BF026FBFEF64057036901A2EE5A0
:106F440084F0E4F584E5B2641C600BE5B2641E6071
:106F540005E5B2B41A10901A2FE5B2F075B2FFE04D
:106F640065B2600C8000901A2B74FFF0A374A7F034
:106F7400803790C667E49364067036901A2EE584D1
:106F8400F0E4F584E5B264146005E5B2B420109031
:106F94001A2FE5B2F075B2FFE065B2600C80009084
:106FA4001A2B74FFF0A374A7F0901A2EE0F58480D6
:106FB4000A901A2B74FFF0A374A7F0AF04EC24FF1B
:106FC40092AF901A2BE0B4FF07A3E0B4A702801E8F
:106FD40090C669E49375F03DA4FFAEF07D007B019B
:106FE4007A0C7924122C2A12B708EF4E70057EFF12
:106FF4007FA62212B59212C64390C687E49375F019
:107004001FA4FFAEF07D007B017A0D7979122C2A42
:10701400E4901A2DF090C687E493FF901A2DE0FEB9
:10702400C39F501875F01FEE900D91122CED742033
:10703400F0A3E4F0901A2DE004F080D990C669E43E
:107044009375F009A4FFAEF07D007B017A0B79FC07
:10705400122C2AE4901A2DF090C669E493FF901A3A
:107064002DE0FEC39F501875F009EE900BFE122C14
:10707400ED7420F0A3E4F0901A2DE004F080D9120E
:10708400C801901A2BE4F0A304F0901A2BE0FEA39D
:02709400E0FF1B
:0170960022D7
:10B03700C003C002C0019018BCE0FFA3E090184510
:10B04700CFF0A3EFF09018BFE0901847F09018C02A
:10B05700E0901848F09018C11228EA901849122970
:10B067000A9018C4E0FFA3E090184CCFF0A3EFF0CC
:10B07700D001D002D0031267179018C6EFF09018CE
:10B08700BFE06406703D9018C6E0FFC364809480FB
:10B097004031EF3395E0FE7C007D3D1225F47424AA
:10B0A7002FF9740C3EFA7B019018BEE0FF129DB198
:10B0B700D3EF64809480500B9018C6E0FF12AC82E7
:08B0C7007F84229018C6E0FF0F
:01B0CF00225E
:0B806B009017DF12290A9017DEEFF0DB
:10807600E49017E6F0A3F0C3EF6480948040199073
:10808600C669E493FF9017DEE0FD3395E0FCC3ED8F
:108096009F7480F86C984003028155900C4275F0ED
:1080A6003DED122CEDEC75F03DA42583F583E02023
:1080B600E0057EFF7F8622900DAAE070057EFF7F99
:1080C6009D229017DEE0FF3395E0FE7C007D3D1299
:1080D60025F474242FF9740C3EFA7B019017E812EC
:1080E600290A9017DF1228EAEA494B60499017E2FD
:1080F600E0FEA3E0FF4E603E9017DF1228EAC003C1
:10810600C002C0019017E81228EA90001312294312
:108116009017DF1228EAE92FF9EA3EFAE924FFF977
:10812600EA34FFFAC003C002C0019017E81228EA39
:108136009000161229439017E81228EA90001B12A5
:1081460025B5B4110F900013122913E94A70057E64
:10815600FF7F85229017E81228EA9017EB12290A6A
:108166009017E4E0FCA3E0FD4C60097B017A1779E7
:10817600EE12B38F300D057EFF7FAB2212C4E19065
:1081860017F3EFF0540770269017E4E07002A3E0AF
:10819600600C7B017A1779EE12BCA1EF60057EFFB9
:1081A6007F872212240EBF9ACB7EFF7F9A229017DA
:1081B600F3E0FF20E2BEEF30E0197B017A1779E8A1
:1081C6001239D99017E6EEF0A3EFF0BEFF1DBFFA05
:1081D6001A804C9017F3E030E1117B017A1779E8A9
:1081E600125E809017E6EEF0A3EFF09017EB1228E0
:1081F600EAC003C002C0019017E81228EAD082D074
:1082060083D0E06B7008E965827003EA6583600FCE
:108216009017EB1228EA9017E812290A02817A9041
:0782260017E6E0FEA3E0FFF4
:01822D00222E
:0B85620090190F12290A90190EEFF07B
:10856D0090191774FFF0A37489F0E4A3F0A3F0C37E
:10857D00EF64809480401990C669E493FF90190EC2
:10858D00E0FD3395E0FCC3ED9F7480F86C984005D9
:10859D007EFF7F8522900C4275F03DED122CEDECA7
:1085AD0075F03DA42583F583E020E0057EFF7F86F1
:1085BD0022900DAAE0FF70057EFF7F9D22900DB0E9
:1085CD00E0B4FF12EF640A6004EFB40B09900D9A4A
:1085DD0012288512A65190190EE0FF3395E0FE7C0E
:1085ED00007D3D1225F474242FF9740C3EFA7B01A5
:1085FD0090191412290A90190F1228EAEA494B60B2
:10860D0032901912E0FEA3E0FF4E602790190F1271
:10861D0028EAC003C002C0019019141228EA900084
:10862D000E1229439019141228EA900011EE8FF0C2
:10863D001226D49019141228EA90001B1225B56445
:10864D000660030286E69019141228EA127B0A903E
:10865D001919EEF0A3EFF0D39400EE6480948040EE
:10866D006F901917E0B4FF34A3E0B4892F90190E61
:10867D00E0FF7B007A007900E49017E2F0A3F09020
:10868D00C66E93FD7401939017E4CDF0A3EDF01237
:10869D00806B901917EEF0A3EFF080C5901917E0DD
:1086AD00FEA3E0FFC3EE648094805011EF648770E9
:1086BD0002EEF46008A3EEF0A3EFF080139019140E
:1086CD001228EA90002412269C45F060030286537E
:1086DD00901919E0FEA3E0FF229019141228EA90D8
:0E86ED00001B1225B5B411030283C8E4FEFF82
:0186FB00225C
:10BEE600900DAAE06044E94A601390001B1225B544
