:0324000002B847D8
:0FB8470075D900787FE4F6D8FD75812F02B8918E
:10CAD600AF8475840F75A40175A54175A6FF75A76A
:10CAE6000F759CDF759DFF759EFF759FFF75E1278E
:08CAF60075E21475E3448F841E
:01CAFE002215
:10CEBE00AF84E4F58475A3FB75A1FF75A2208F8462
:01CECE002241
:10C79A00E4FFFEAD8475840F758A8353A1DFF584A7
:10C7AA0075B7B075840F43A120438901758D017552
:10C7BA008F01758E040FBF00010EEF640F4E70F5E6
:0FC7CA00438902E58930E4FB759702AF058F8440
:01C7D900223D
:10C90500AF84E4F584758844758921758E02758D2B
:10C9150096F58475C80475C90875CA8275CBFD7509
:10C92500840275C80475C90275CA4075CB5E8F84CB
:01C9350022DF
:10CE7000AF84E4F5847598507591057584017598B3
:03CE8000508F844C
:01CE8300228C
:0D24160075A89075B82075E60275E70422E0
:0FCEE000E4F58475C04075CFB4901B4AE0F5842B
:01CEEF002220
:10CE310012CAD612C79A12CEBE12C90512CE7012EC
:05CE4100CEE002241602
:1098D50042172C00CCC11450173F000000000000B7
:1098E5000000000000000000000050172F000000DD
:1098F50000000000000000000000000000602017CC
:109905000920202020202020202020202020202069
:109915002020202020202020202020202020202042
:0E9925002041174FFD421729000141172EFF68
:106A4200E4901A2AF0A3F074FFA3F0A3F0A3F0A33A
:106A5200F075FFDE75FFADE4F5A8F5B8F5E6F5E7EC
:106A6200F584F588F589F58E12CE31752F0112C1A4
:106A72009DE4901772F0A3F0A3F0A3F0A3F0A3F0AB
:106A8200A3F0C2A4C2A5901A30F0A3F012CCD99000
:106A92001A31E004F07006901A30E004F0C3901A44
:106AA20031E09464901A30E0940040E075840FC2A3
:106AB200CD12CF00D2CD20CD1F901A2BE004F07062
:106AC20006901A2AE004F0C3901A2BE09464901AFC
:106AD2002AE06480948040DE12BFB512CF5FE4905A
:106AE2001771F053E7BF12795CC3EE648094804063
:106AF200F512CC77901A2AEEF0A3EFF0901A2A74CE
:106B02001CF0A3E4F0FF7E1C12CF1FEF64026003AF
:106B120012A0CF901A2A741CF0A37401F0E4901A08
:106B220029F0901A2AE0FEA3E0FF12CF1F901A2943
:106B3200E02409F582E43417F583EFF0901A2BE094
:106B420004F07006901A2AE004F0901A29E004F08A
:106B5200E0C3942040CC43E740901A2A741CF0A36F
:106B6200744EF0FF7E1C12CF1FEF9011C5F0A3E40C
:106B7200F0901A2BE02401FF901A2AE03400FE1252
:106B8200CF1F9011C5E0F0A3E04FF0D2AA7F507E54
:106B92001C12CF1F901708EFF070089011A2740713
:106BA200F08005E49011A2F07F417E1C12CF1F906D
:106BB2001687EFF060037401F0901687E06003021D
:106BC2006C667F427E1C12CF1F900010EFF07F4355
:106BD2007E1C12CF1F900011EFF07F447E1C12CF5B
:106BE2001F900012EFF07F457E1C12CF1F90001302
:106BF200EFF07F467E1C12CF1F90001AEFF07F4706
:106C02007E1C12CF1F90001BEFF07F487E1C12CF1C
:106C12001F90001CEFF07F497E1C12CF1F90001DB9
:106C2200EFF07F4A7E1C12CF1F900024EFF07F4BC3
:106C32007E1C12CF1F900025EFF07F4C7E1C12CFDE
:106C42001F900026EFF07F4D7E1C12CF1F90002771
:106C5200EFF0901729E4F0A304F0900DF1F0900DFD
:106C6200F0F0803A7B007A0079007FA07E8C7D0074
:106C72007C0012C967D3EF9400EE64809480501EAA
:106C8200901729E4F0A304F0900DF1F0900DF07448
:106C920009F0E4900010F0A3F0A3F0A304F012C5F1
:106CA200ED901A2EEEF0A3EFF012C638901A2CEEE9
:106CB200F0A3EFF0901708E0B4010B12BED7901AC0
:106CC2002AEEF0A3EFF0C3901A2CE0648094804087
:106CD20031901A2EE0648094804027D2B290172B14
:106CE2007409F012770C901A2AEEF0A3EFF09017C5
:106CF2002E74FFF0201403026AE5C2141293A60256
:096D02006AE5D2A5D2A6026AE5F9
:10CC7700E4FB7D017F0212CA27BEFF09BFAB062076
:10CC87000C03300AFAC3EE6480948040E37E007F91
:01CC9700019B
:01CC98002279
:03242B0002CF9845
:03CF9800C2CF32D3
:032483000292477B
:10924700C0E0C0F0C083C082C0D075D000C000C0ED
:0D92570001C002C003C004C005C006C0076E
:10926400901B4BE584F0758402C2CFC2AA9015C846
:10927400E0FCA3E0FDA3E0FEA3E02401FFE43EFE46
:10928400E43DFDE43CFC9015C812289790172CE0AF
:10929400FEA3E0FFEE3395E0FDFC9015C8E0F8A3D3
:1092A400E0F9A3E0FAA3E0FBC312283840299015A3
:1092B400C4E0FCA3E0FDA3E0FEA3E02401FFE43E40
:1092C400FEE43DFDE43CFC9015C41228979015C8BB
:1092D4001228A300000004D2AA9011A2E0FFD394A4
:1092E40001405CEF94075057E4FFFEFDFC90109D95
:1092F400E0F8A3E0F9A3E0FAA3E0FB122838403F2A
:1093040090109DE0FCA3E0FDA3E0FEA3E09401FF28
:10931400EE9400FEED9400FDEC9400FC90109D1280
:109324002897E4FFFEFDFC90109DE0F8A3E0F9A36C
:10933400E0FAA3E0FBC312283870049011A2F030C5
:1093440015069015CCE004F09015CCE0C3940240CF
:109354000FE4F0C2159015C3E0FF12AE9A12C6389E
:10936400300E06901686E004F0901686E0C394054D
:10937400400FE4F0C20E901683E0FF12AE9A12C5BD
:07938400ED901B4BE0F584A6
:10938B00D007D006D005D004D003D002D001D00036
:0B939B00D0D0D082D083D0F0D0E032E0
:0ACF5400AF8475840F53C8DF8F848B
:01CF5E0022B0
:0FCEF000AF8475840F43C820E5C830E5FB8F84FD
:01CEFF002210
:0324130002AF51C4
:10AF5100C0E0C0F0C083C082C0D075D000C000C0C6
:10AF610004C005C006C00790172BE0FF700974FFED
:10AF7100F0C2B2D2A4800ED3EF64809480400690D8
:10AF8100172BE014F0901776E0700AA3E07006A387
:10AF9100E07002C2B253E7FB9015C81228A300006B
:10AFA100000290167EE0FCA3E0FDA3E0FEA3E0FF1B
:10AFB1009015C412289743E70430B3099015CDE4E6
:10AFC100F0D2A6801C20B30E9015CDE0C3943C5066
:10AFD10005E004F0800B9015CDE0C3943C4002C223
:10AFE100A690174FE064016003E004F0B2A7D00718
:10AFF100D006D005D004D000D0D0D082D083D0F0FC
:03B00100D0E0326A
:0BCF3C008E158F168F828E83E493FF0A
:01CF470022C7
:10BFB500A2AF9213C2AFD2CD901B467420F0A374EA
:10BFC50068F0901B46E0FEA3E0F5828E8374FAF0DC
:10BFD500901B467420F0A37469F0901B46E0FEA305
:10BFE500E0F5828E83741FF0901B4604F0A3740560
:10BFF500F012CCD9E4FF901B46E0FCA3E0F5828C5F
:10C0050083E0FE741E2FF582E43400F583EEF00F15
:08C01500EFB406E2A21392AFA2
:01C01D002200
:04993300411B4C0088
:08CF7200E490172EF07F01226C
:10B35C00901B01EBF0A3EAF0A3E9F0E490172EF0B8
:10B36C00900DF0E06401603B900DE8E0FCA3E0FD83
:10B37C00A3E0FEA3E0FF900DE4E0F8A3E0F9A3E066
:10B38C00FAA3E0FBD312283850197FA07E8C7D00E5
:10B39C007C0012AD23901729EEF0A3EFF0901B4C1C
:10B3AC00E004F03014037F9A223010067587807504
:10B3BC00EF10129B39D39014F4E094009014F3E046
:10B3CC009400400CA3E024FFF09014F3E034FFF061
:10B3DC00300D08E490172EF07F9A22128C5F901B90
:10B3EC0001E0F9A3E0FAA3E0901B01C9F0A3EAF095
:06B3FC00A3E9F07F00222E
:07CF7A00E490172EF0FF22E6
:10BB7500901B04EBF0A3EAF0A3E9F0E490172EF094
:10BB8500901B04E0FBA3E0FAA3E0F990001C12254A
:10BB9500B5FF901682E0B4000AA3E0B5070512438D
:10BBA5002B804B901B04E0FBA3E0FAA3E0F9900087
:10BBB5001C1225B5FF9015C2E0B40011A3E0B5072E
:10BBC5000C90174FE0B40105127DD78021901B041E
:10BBD500E0FBA3E0FAA3E0F990001C1225B5FF9065
:10BBE50011C3E0B40008A3E0B507031231327F00AA
:01BBF500222D
:10CD5100E490172EF0EF3395E0FE9011C3E0B50695
:0ACD610008A3E0B5070312CF10226B
:06CF8800E490172EF022D8
:10CC310007000505EA05EA006400051770060258B9
:10CC410004000300008CA040010020020000640CDD
:03CC5100013EB0F1
:10993700440DBBFFFFFFFF4400100000000146007D
:109947001E000B3C000000460014FFFFFFFFFFFF57
:0E995700440024FFFFFFFF44001AFFFFFF0043
:10C998005054353330300048442D5344205661728A
:10C9A8006974696D652053796E632047656E657299
:10C9B80061746F7200557074696D65005554430059
:10996500421682FFFFC10EC10F411687014117083C
:0A997500014216840000411686002E
:10C5ED00E490194FF0A3F0A37402F0A37411F0E4DA
:10C5FD00A3F07B01A304F0A37416F0A37488F0A339
:10C60D00E4F0A37480F07A0C79297DE07C0B12B7ED
:10C61D0018EF3395E0FEC36480948050012290168C
:0AC62D0082EEF0A3EFF07E007F0123
:01C6370022E0
:10432B00901A357401F0A37416F0A37488F09016EC
:10433B0082E0FEA3E0FF7C007D3D1225F4742D2F5F
:10434B00F9740C3EFA7B01901A32EBF0A3EAF0A35E
:10435B00E9F09000131228FDC003C002C001901AAF
:10436B0035E0FBA3E0FAA3E0F9D082D083D0E06B79
:10437B007008E965827003EA65836010901683E02C
:10438B00FF12AE9A12C5ED7EFF7FFF22901A32E02C
:10439B00FBA3E0FAA3E0F990001912269C640445F4
:1043AB00F060030245B7901688E060030245B790B2
:1043BB001684E0FCA3E0FDECFF90168AE0FBEFB562
:1043CB000318AF05A3E0FDEFB5050FE4901683E0EE
:1043DB00FF12AE9A12C5ED02477D90168AE07F0060
:1043EB00FE901684F0A3EFF090168BE0FDEDFF909E
:1043FB001684EEF0A3EFF09016887401F0900DF197
:10440B00E0B401089016897401F08005E4901689D8
:10441B00F0E490168CF0A3F0A3F0A3F0A3F0A3F0BC
:10442B00A3F0A3F0A3F0A3F090001EE0901696F07B
:10443B0090001FE0901697F0900020E0901698F0F7
:10444B00900021E0901699F0900022E090169AF0DF
:10445B00900023E090169BF0900010E090169CF0DB
:10446B00900011E090169DF0900012E090169EF0D7
:10447B00900013E090169FF090001AE09016A0F0B9
:10448B0090001BE09016A1F090001CE09016A2F09B
:10449B0090001DE09016A3F0900024E09016A4F07D
:1044AB00900025E09016A5F0900026E09016A6F05F
:1044BB00900027E09016A7F09011A2E09016A8F0BC
:1044CB00E4A3F0A3F0A3F0A3F0901A39741CF0A3AB
:1044DB007441F0FF7E1C12CF1F9016ADEFF0901AB7
:1044EB0039741CF0A3744EF0FF7E1C12CF1F901674
:1044FB00AEEFF0901A3AE02401FF901A39E0340045
:10450B00FE12CF1F9016AFEFF0E4A3F0A3F0A3F0D1
:10451B00A3F0A3F078B57C167D017BFF7AC979985F
:10452B00122BF778BC7C167D017BFF7AC9799F1221
:10453B002BF7901A39741CF0A37401F0E4901A381D
:10454B00F0901A39E0FEA3E0FF12CF1F901A38E06B
:10455B0024DAF582E43416F583EFF0901A3AE0048E
:10456B00F07006901A39E004F0901A38E004F0E08D
:10457B00C3942040CC7B017A167988C003C002C05B
:10458B0001901A32E0FBA3E0FAA3E0F990000E12BF
:10459B00292D901A32E0FBA3E0FAA3E0F990001169
:1045AB00E475F0801226D4D20E02477D901A32E0C9
:1045BB00FBA3E0FAA3E0F990001912269C6479455D
:1045CB00F0600302476D901688E064306003024789
:1045DB006D12C082EF6401600302472E9011A2E0BE
:1045EB00FF64026013EF6403600EEF64046009EF75
:1045FB0064056004EFB406099016927403F0024749
:10460B003312BD72EF640160030247269016D2E0AD
:10461B007035901A38F0901A38E0FFC39410502779
:10462B00EF2421FFE4341CFEA3F0A3EFF012CF1F05
:10463B00901A38E024D2F582E43416F583EFF0902B
:10464B001A38E004F080CF9016E2E07035901A38FB
:10465B00F0901A38E0FFC394105030EF2431FFE490
:10466B00341CFEA3F0A3EFF012CF1F901A38E024F6
:10467B00E2F582E43416F583EFF0901A38E004F09B
:10468B0080CF9016E2E0B40102E4F0901A39741C6A
:10469B00F0A3E4F0FF7E1C12CBC5200BFD901A3962
:1046AB00741CF0A37401F0E4901A38F0901A38E0FF
:1046BB00FDC3944F502EA3E0FEA3E0FF74B22DF583
:1046CB0082E43416F583E0FD12CB4F200BFD901ADC
:1046DB003AE004F07006901A39E004F0901A38E0D2
:1046EB0004F080C8901A39741CF0A37450F0901722
:1046FB0008E0FD7F507E1C12CB4F200BFD901A392A
:10470B00741CF0A3E4F07D02FF7E1C12CB4F200B38
:10471B00FD9016927401F0D210800D9016927402D7
:10472B00F08005E4901692F09016887431F07B01BE
:10473B007A167988C003C002C001901A32E0FBA33D
:10474B00E0FAA3E0F990000E12292D901A32E0FB4B
:10475B00A3E0FAA3E0F9900011E475F00B1226D454
:10476B008010901683E0FF12AE9A12C5ED7EFF7F8C
:06477B00FC227E007F011C
:014781002215
:10A0CF00E4901B07F0901B07E0FFC39479501474C2
:10A0DF00882FF582E43416F583E4F0901B07E00433
:10A0EF00F080E29016887455F0A3746EF0A3F0A37D
:10A0FF007461F0A3746DF0A37465F0A314F0A374EE
:10A10F002EF09016A87441F0A37464F0A3746DF050
:10A11F00A37469F0A3746EF0E4A3F09016B87432D0
:10A12F00F0A37437F0A37433F0A37430F09016C813
:10A13F007401F0A374FFF0A3F0A3F0A3F0A3F0A3B6
:10A14F00F0A3F0A3F0A3F0A3F0A3F0A3F0E4A3F027
:10A15F00A37417F0A37401F0901B08741CF0A3E410
:10A16F00F0FF7E1C12CBC5200BFD901B08741CF05A
:10A17F00A37401F0E4901B07F0901B07E0FDC3945C
:10A18F0050502EA3E0FEA3E0FF74882DF582E43437
:10A19F0016F583E0FD12CB4F200BFD901B09E00459
:10A1AF00F07006901B08E004F0901B07E004F080AD
:10A1BF00C8901B08741CF0A3E4F07D02FF7E1C12F4
:05A1CF00CB4F200BFD49
:01A1D4002268
:10C08200901B4D7401F0901684E0FCA3E0FDECFFE0
:10C0920090168AE0FBEFB50318AF05A3E0FDEFB5FC
:10C0A200050FE4901683E0FF12AE9A12C5ED7F00F1
:10C0B20022E4FF741E2FF582E43400F583E0FE745F
:10C0C2008C2FF582E43416F583E0FDEE6D6005E415
:0EC0D200901B4DF00FEFB406DA901B4DE0FF0F
:01C0E000223D
:10BD7200901AE87401F0901684E0FCA3E0FDECFF59
:10BD820090168AE0FBEFB50318AF05A3E0FDEFB50F
:10BD9200050FE4901683E0FF12AE9A12C5ED7F0004
:10BDA20022901AE5741CF0A37421F0E4A3F0901A17
:10BDB200E7E0FFC39420502E901AE6E02FFF901A7E
:10BDC200E5E03400FE12CF1F901AE7E02492F582DC
:10BDD200E43416F583E06F6005E4901AE8F0901AF7
:0BBDE200E7E004F080C8901AE8E0FFE2
:01BDED002233
:1093A600E4901B0AF0901B0AE0FFC3947F502AA3A7
:1093B600741CF0A37401F0EF2401FFE4341CFE12C8
:1093C600CF1F901B0AE02488F582E43416F583EF5C
:1093D600F0901B0AE004F080CC300F30C20F9016DC
:1093E600A87441F0A37464F0A3746DF0A37469F0DB
:1093F600A3746EF0E4A3F09016B87432F0A3743739
:10940600F0A37433F0A37430F0E4A3F0901687E071
:109416009016C8F0900010E09016C9F0900011E088
:109426009016CAF0900012E09016CBF0900013E070
:109436009016CCF090001AE09016CDF090001BE04C
:109446009016CEF090001CE09016CFF090001DE034
:109456009016D0F0900024E09016D1F0900025E010
:109466009016D2F0900026E09016D3F0900027E0F8
:109476009016D4F09011C5E09016D5F09011C6E084
:109486009016D6F0901708E09016D7F0200BFD90B6
:109496001B0B741CF0A3E4F0FF7E1C12CBC5200B43
:1094A600FD901B0B741CF0A37401F0E4901B0AF0F2
:1094B600901B0AE0FDC39450502EA3E0FEA3E0FFEC
:1094C60074882DF582E43416F583E0FD12CB4F2027
:1094D6000BFD901B0CE004F07006901B0BE004F0F3
:1094E600901B0AE004F080C8901B0B741CF0A3E4E8
:0C94F600F07D02FF7E1C12CB4F200BFD0E
:019502002246
:10997F004215C2FFFF4115CC00C1154415C40000AC
:10998F00000044167E000000004415C800000000CF
:04999F004115CD00A1
:10C63800E490194FF0A3F0A37402F0A37411F0E48E
:10C64800A3F07B01A304F0A37415F0A374CEF0A3A8
:10C65800E4F0A37480F07A0C79297D7B7C0012B712
:10C6680018EF3395E0FEC364809480500122901542
:0AC67800C2EEF0A3EFF07E007F0198
:01C682002295
:107DD700901A7F7401F0A37415F0A374CEF0901578
:107DE700C2E0FEA3E0FF7C007D3D1225F4742D2F39
:107DF700F9740C3EFA7B01901A7CEBF0A3EAF0A32E
:107E0700E9F09000131228FDC003C002C001901AC8
:107E17007FE0FBA3E0FAA3E0F9D082D083D0E06B48
:107E27007008E965827003EA658360109015C3E006
:107E3700FF12AE9A12C6387EFF7FFF22901A7CE0AF
:107E4700FBA3E0FAA3E0F990001912269C643045E1
:107E5700F06003027FE190001912269CFFAEF078D4
:107E67004E7C167D017B017A1579CE122576901509
:107E7700C4E0FCA3E0FDA3E0FEA3E0FF90166E12B2
:107E870028977F157EAE7D477C019015C8E0F8A343
:107E9700E0F9A3E0FAA3E0FB12270E90167212286E
:107EA700979016521228A300000000901656122829
:107EB700A30000000090165174ECF090166EE0FCE1
:107EC700A3E0FDA3E0FEA3E0FF90165E12289790C3
:107ED7001672E0FCA3E0FDA3E0FEA3E0FF901662AC
:107EE70012289790164E7424F09015CDE0C3943C59
:107EF700400990164EE044C0F08024901771E0FDD1
:107F0700C39401400990164EE04440F08011EDD330
:107F170094FF7480947F500790164EE04480F09051
:107F2700164F7401F0901676E0FCA3E0FDA3E0FE87
:107F3700A3E0FF90166612289790167AE0FCA3E05C
:107F4700FDA3E0FEA3E0FF90166A12289790165A49
:107F57007447F0A37450F0A37453F0E4A3F09015A2
:107F6700C4E0FCA3E0FDA3E0FEA3E0FF90167612B9
:107F770028977F157EAE7D477C019015C8E0F8A352
:107F8700E0F9A3E0FAA3E0FB12270E90167A122875
:107F97009778CE7C157D017B017A16794E7E007F1E
:107FA700301225767B017A1579CEC003C002C00155
:107FB700901A7CE0FBA3E0FAA3E0F990000E1229E7
:107FC7002D901A7CE0FBA3E0FAA3E0F9900011E4FE
:107FD70075F0301226D4D21580109015C3E0FF1229
:0E7FE700AE9A12C6387EFF7FFC227E007F011C
:017FF5002269
:0899A3004115BF004115C00091
:10CECF00AE847584018F993099FDC299AF068F8416
:01CEDF002230
:0324A30002C81A52
:0BC81A00C0E0C083C082C0D075D00811
:10C82500AF8475840130981EC2989015BFE024F737
:10C83500F582E43414F583E599F09015BFE004F032
:08C84500E0B4C802E4F08F84A6
:09C84D00D0D0D082D083D0E032BB
:10243E00E4FF901755E0B4FF08E49015BFF0A3F049
:10244E00229015C0E0FE9015BFE0B5060B0FEFB45D
:10245E00FFEFE41225E2FF2274F72EF582E4341426
:10246E00F583E01225E29015C0E004F0E0B4C80256
:04247E00E4F07F0106
:012482002237
:10C19D007E147F6F90142DEEF0A3EFF09014F1EE5E
:10C1AD00F0A3EFF07E147F2F90142BEEF0A3EFF0A1
:10C1BD009014EFEEF0A3EFF0E4901429F0A3F090BB
:10C1CD001427F0A3F09014F5F0A3F09014F3F0A35E
:10C1DD0004F0E4FF7E4090142FE4F0A3DEFCE4FFB6
:0AC1ED007E8090146FE4F0A3DEFCE6
:01C1F7002225
:10C5020090142BE0FEA3E0F5828E83E0FF90142BC3
:10C51200E0B41411A3E0B46E0C90142B7414F0A3C5
:10C52200742FF0800E90142CE004F0700690142BFF
:10C53200E004F0D3901428E09400901427E09400D3
:0EC54200400CA3E024FFF0901427E034FFF03B
:01C5500022C8
:10C1F8009014F1E0FCA3E0FDF5828C83EFF0EDB440
:10C20800EE10ECB4140C9014F17414F0A3746FF0E5
:10C21800800E9014F2E004F070069014F1E004F03F
:10C2280090142AE004F07006901429E004F09014A9
:10C2380029E07004A3E064807E0060047F0180022E
:0BC248007F009014F5EEF0A3EFF02251
:10C40700D39014F0E0946E9014EFE0941440077406
:10C4170014F0A3742FF09014EFE0FCA3E0F5828CE6
:10C4270083EFF09014F0E004F070069014EFE0044E
:10C43700F0901428E004F07006901427E004F090C0
:10C4470014F37413F0A37488F0EFB40A07E490149C
:05C45700F3F0A3F02248
:10C2530090142DE0FEA3E0F5828E83E0FF90142D71
:10C26300E0B41411A3E0B4EE0C90142D7414F0A3F5
:10C27300746FF0800E90142EE004F0700690142D6D
:10C28300E004F090142AE024FFF0901429E034FF36
:10C29300F0E07002A3E07C0060047D0180027D0079
:08C2A3009014F5ECF0A3EDF09E
:01C2AB002270
:06CF8E00E4F584D29922B3
:0EBE6400901A82EBF0A3EAF0A3E9F0A3EDF050
:10BE72007014901A82E0FBA3E0FAA3E0F912CE5B01
:10BE8200901A86EE8007901A85E0FFA3E4F0A3EFF4
:10BE9200F0901A86E07002A3E0602C901A82E0FB18
:10BEA200A3E0FAA3E0F912259CFF12C1F8901A83CD
:10BEB200E475F00112265B901A87E024FFF0901AD5
:10BEC20086E034FFF080CA12CF8E901429E070020F
:04BED200A3E070F683
:01BED6002249
:0324230002C45C94
:10C45C00C0E0C083C082C0D075D000C003C004C08F
:05C46C0005C006C00739
:10C47100AB84758400309807C298AF9912C4073015
:10C481009916C299D390142AE09400901429E0944B
:0CC4910000400512C2538F99AF038F8446
:10C49D00D007D006D005D004D003D0D0D082D08321
:03C4AD00D0E032AA
:10724A00061D1C00010000000000000000000000F4
:10725A000000000010270000201C000090D003004E
:10726A000000000000000000000000000000000014
:10727A000000000000000000000000000000000004
:10728A0000000000000000000000000000000000F4
:10729A0000000000000000000000000000000000E4
:1072AA0000000000000000000000000000000000D4
:1072BA0000000000000000000000000000000000C4
:1072CA0000000000000000000000000000000000B4
:1072DA0000000000000000000000000000000000A4
:1072EA000000000000000000000000000000000094
:1072FA000000000000000000000000000000000084
:10730A000000000000000000000000000000000073
:10731A000000000000000000000000000000000063
:10732A000000000000000000000000000000000053
:10733A000000000000000000000000000000000043
:10734A000000000000000000000000000000000033
:10735A000000000000000000000000000000000023
:10736A000000000000000000000000000000000013
:10737A000600140001000000D00808008025000063
:10738A0007000100000000000000000000000000EB
:10739A0000000000000000000000000000000000E3
:1073AA0000000000000000000000000000000000D3
:1073BA0000000000000000000000000000000000C3
:1073CA0000000000000000000000000000000000B3
:1073DA0000000000000000000000000000000000A3
:1073EA000000000000000000000000000000000093
:1073FA000000000000000000000000000000000083
:10740A000000000000000000000000000000000072
:10741A000000000000000000000000000000000062
:10742A000000000000000000000000000000000052
:10743A000000000000000000000000000000000042
:10744A000000000000000000000000000000000032
:10745A000000000000000000000000000000000022
:10746A000000000000000000000000000000000012
:10747A000000000000000000000000000000000002
:10748A0000000000000000000000000000000000F2
:10749A0000000000000000000000000000000000E2
:0274AA00B562C9
:0499AB00411756000A
:108C5F00901761E0D3942C74809481400DE49017A9
:108C6F0056F0901761F0901754F0E4901755F0906C
:108C7F001761E07E002400F9EE341CFA7B01122408
:108C8F003EEF7003028DEC901755E004F0A3E0FF68
:108C9F007050901761E02400F582E4341CF583E0F6
:108CAF00FE901754E09074AA93FDEEB50508901747
:108CBF0054E004F08005E4901754F0901761E0043D
:108CCF00F0901754E0B402A7E4F0901761F09017FA
:108CDF005604F0E4901752F0A3F0901750F0A3F061
:108CEF00808DEF6401704B901754E004F090176182
:108CFF00E02400F582E4341CF583E0FF901752E086
:108D0F002FF0E0FFA3E02FF0A3E0B40422901C03A8
:108D1F00E0FE901C02E07C002400FFEC3E90175018
:108D2F00F0A3EFF09017567402F0E4901754F0028E
:108D3F008DE3901756E0FF64027038901754E004EB
:108D4F00F0901761E02400F582E4341CF583E0FE17
:108D5F00901752E02EF0E0FEA3E02EF0A3E0FD907E
:108D6F001750E0B4000BA3E0B50506901756740337
:108D7F00F08061EF64036003028C7E901754E0046F
:108D8F00F0901750E0FEA3E0FF2402FDE43EFC90BC
:108D9F001754E06D7001EC7035F0901761F090177B
:108DAF0056F074042FF582741C3EF583E0FF901784
:108DBF0052E0B50719901750A3E02405F582741CF3
:108DCF003EF583E0FF901753E0B50702D212301241
:0E8DDF0003124782901761E004F0028C7E229E
:104782007B017A1179C712C9369011C7E024FB70F8
:104792000302493A24FA7003024A2B24FE700302F0
:1047A2004949240C6003024BD59011C8E024DF7004
:1047B2000302486B24F170030248FB2410600302D9
:1047C2004BD59011D5E090178BF09011CBE090175C
:1047D2005BF09011CCE090175AF09011CDE0901759
:1047E20059F09011CEE0901758F0E0FCA3E0FDA341
:1047F200E0FEA3E024F4FFEE3401FEE43DFDE43CE0
:10480200FCE47BE87A03F9F81227999017581228EA
:1048120097901758E0FCA3E0FDA3E0FEA3E0FFC0E1
:104822000790178BE0FB3395E0FAF9F8D007C3EF56
:104832009BFFEE9AFEED99FDEC98FC90175812281A
:10484200979011D3E0FF90178CE4F0A3EFF0901152
:10485200D4E0FE90178DE02400F090178CE03EF03B
:104862009011D6E0901779F0229011D8E0FE9011C5
:10487200D7E07C002400FFEC3E901772F0A3EFF02B
:104882009011D9E0901774F09011DAE0901775F05A
:104892009011DBE0901776F09011DCE0901777F042
:1048A2009011DDE0F9901778F09011DEE090178A10
:1048B200F0901774E0FDA3E0FB3395E0FAA3E0FE6D
:1048C2003395E09018EAF0A3CEF0901777E0FE332C
:1048D20095E09018ECF0A3CEF0E9FE3395E0A3F05A
:1048E200A3CEF0E4A3F0A3F0901772E0FEA3E0FFE2
:1048F20012B96090167E024A1F7F0BE4FE74CB2F22
:10490200F582E43411F583E0FD743F2EF582E43440
:1049120017F583EDF00F74CB2FF582E43411F58394
:10492200E0FD742F2EF582E43417F583EDF0740B5D
:104932002FFF0EEEB410C6229011C8E0600614706C
:1049420003D21122C211229011C8E024FC7003028A
:104952004A2224036003024BD59011D3E0FFE4FC0A
:10496200FDFE901762122897901762E0F8A3E0F913
:10497200A3E0FAA3E0FB9011D4E07F00FE3395E0C0
:10498200FDFCEF2BFFEA3EFEE93DFDE83CFC901703
:1049920062122897901762E0F8A3E0F9A3E0FAA365
:1049A200E0FBC000C001C002C0039011D5E07E0050
:1049B2007810C333CE33CED8F9FFEE3395E0FDFC49
:1049C200D003D002D001D000EB2FFFEA3EFEE93D3A
:1049D200FDE83CFC901762122897901762E0F8A35A
:1049E200E0F9A3E0FAA3E0FBC000C001C002C003EB
:1049F2009011D6E07E007818C333CE33CED8F9FFBB
:104A0200EE3395E0FDFCD003D002D001D000EB2FB5
:104A1200FFEA3EFEE93DFDE83CFC90176202289762
:104A22009011E3E0901757F022D2B29011C8E0241F
:104A3200FE6003024BD59011DFE090175FF09011FA
:104A4200E0E090175EF09011E1E090175DF09011B8
:104A5200E2E090175CF09011E4E0FE9011E3E07C5C
:104A6200002400FFEC3E901766F0A3EFF09011E6F1
:104A7200E0FE9011E5E02400FFEC3E901768F0A301
:104A8200EFF09011E8E0FE9011E7E02400FFEC3E29
:104A920090176AF0A3EFF09011EAE0FE9011E9E0BE
:104AA2002400FFEC3E90176CF0A3EFF09011ECE0C5
:104AB200FE9011EBE02400FFEC3E90176EF0A3EFA6
:104AC200F07F007EE97D0790175CE0F8A3E0F9A390
:104AD200E0FAA3E0FBC3122838400990177074076C
:104AE200F0024B9E7F807E977D067C0090175CE0F3
:104AF200F8A3E0F9A3E0FAA3E0FBC31228384009C7
:104B02009017707406F0024B9E7F007E467D057CF6
:104B12000090175CE0F8A3E0F9A3E0FAA3E0FBC37E
:104B220012283840089017707405F0806F7FB87EA5
:104B3200F37D037C0090175CE0F8A3E0F9A3E0FAB0
:104B4200A3E0FBC312283840089017707404F08069
:104B52004B7F007EA37D027C0090175CE0F8A3E00F
:104B6200F9A3E0FAA3E0FBC31228384008901770BB
:104B72007403F080277F807E517D017C0090175C5A
:104B8200E0F8A3E0F9A3E0FAA3E0FBC3122838900F
:104B9200177040057402F080037401F0901766E00C
:104BA200FEA3E0FF90176AE0B50623A3E0B5071E57
:104BB200901770E0FF90176CE0B40012A3E0B50705
:104BC2000D901769E0FF90176FE0C39F8001E4909A
:034BD2001771F068
:014BD50022BD
:10950300901B0DEBF0A3EAF0A3E9F0E4901752F0FF
:10951300A3F0901B0DE0FBA3E0FAA3E0F990000297
:109523001225B5FF901750E4F0A3EFF07FB512CEEC
:10953300CF7F6212CECF901B0DE0FBA3E0FAA3E036
:10954300F912259CFF12CECF901B0DE0FBA3E0FA8E
:10955300A3E0F912259C901752F0A3F0900001129A
:1095630025B5FF12CECF901B0DE0FBA3E0FAA3E0DD
:10957300F99000011225B5FF901752E02FF0E0FF9C
:10958300A3E02FF09000021225B5FF12CECF901B5F
:109593000DE0FBA3E0FAA3E0F99000021225B5FF6A
:1095A300901752E02FF0E0FFA3E02FF0900003129A
:1095B30025B5FF12CECF901B0DE0FBA3E0FAA3E08D
:1095C300F99000031225B5FF901752E02FF0E0FF4A
:1095D300A3E02FF0E4901761F0901761E0FF7E00A5
:1095E300D3901751E09F901750E09E4050901B0D71
:1095F300E0FBA3E0FAA3E02404F9E43AFAE92FF943
:10960300EE3AFA12259CFF12CECF901B0DE0FBA37E
:10961300E0FAA3E02404F9E43AFA901761E07E004B
:1096230029F9EE3AFA12259CFF901752E02FF0E049
:10963300FFA3E02FF0901761E004F0809C90175295
:0D964300E0FF12CECF901753E0FF02CECF14
:10C93600901B10EBF0A3EAF0A3E9F0901751E02466
:10C9460004FF901750E03400FE901B10E0FBA3E0BC
:10C95600FAA3E0F8AC02AD037B017A1C790002254C
:01C96600765A
:10A77C00E4901B15F09017621228A300000000E46F
:10A78C00901757F0A31228A300000000E490178C38
:10A79C00F0A3F0901779F090178BF090178AF09047
:10A7AC001752F0A3F0901761F0901754F0901750D7
:10A7BC00F0A3F0C212C2117E017F2CFD7B017A1C2A
:10A7CC007900122C1420114A901B15E0C3940550EB
:10A7DC0041E4901B13F0A3F07BFF7A73797A129506
:10A7EC0003201221901B13E064037004A3E064E8BF
:10A7FC006013901B14E004F07006901B13E004F03F
:10A80C00128C5F80DC901B15E004F0124782C212A0
:10A81C0080B3901B15E0B405037F0022C2117BFFAF
:10A82C007A72794A1295037B017D017F0D12CA80E1
:10A83C007B017D207F0112CA807B017D217F01126B
:0DA84C00CA807B0A7D047F0D12CA807F0147
:01A8590022DC
:10CA80009012F77406F0A37401F0A37406F0E4A307
:10CA9000F0A3EFF0A3EDF0E4A3F0A3EBF0E4A3F038
:0BCAA000A3F07B017A1279F7029503E6
:10CB7700901B16EBF0A3EAF0A3E9F0901B16E0FB7D
:10CB8700A3E0FAA3E0F8AC02AD037B017A17797250
:07CB97007E007F07022576F6
:10CD6B001F1C1F1E1F1E1F1F1E1F1E1F1F1D1F1ED2
:0ACD7B001F1E1F1F1E1F1E1F955CC8
:10CAFF00AB07AA06EB5403701CFC7D64122606EDEF
:10CB0F004C700FAE02AF037C017D90122606ED4CE8
:08CB1F0070037F01227F002258
:10AC6100901AB8EEF0A3EFF0A3EDF0A3EAF0A3EB96
:01AC7100F0F2
:10AC7200E4F9901ABAE014FFE9C39F5029901AB878
:10AC8200E0FEA3E0FF12CAFFE9BF010590CD778085
:10AC92000390CD6B93FF901ABCE02FF0901ABBE0AB
:10ACA2003400F00980CC901AB9E024FFF0901AB871
:10ACB200E034FFF0E0FAA3E0FB7C017D6DFFAE0221
:10ACC2001225F4AC06AD07EBAE027802CEC313CE6A
:10ACD20013D8F92DFBEC3EFA901AB8E0FEA3E0FF80
:10ACE2007C007D64122606C3EB9FFBEA9EFA901A53
:10ACF200B8E0FEA3E0FF7C017D90122606EF2BFF59
:10AD0200EE3AFE901ABCE02FFF901ABBE03EFE9096
:10AD1200CD83E493FC740193FDC3EF9DFFEE9CFE93
:01AD2200220E
:08B67D0090196AECF0A3EDF056
:10B68500EF3395E0FEFDFCA312289790196AE0FEC2
:10B69500A3E0FFEE3395E0FDFC901970122897AEFC
:10B6A50002AF03EE3395E0FDFC901974122897E480
:10B6B5007F3CFEFDFC901970E0F8A3E0F9A3E0FAE9
:10B6C500A3E0FB12270EC004C005C006C007E47F37
:10B6D500107E0EFDFC90196CE0F8A3E0F9A3E0FAEA
:10B6E500A3E0FB12270ED003D002D001D000EF2B30
:10B6F500FFEE3AFEED39FDEC38FC901974E0F8A345
:10B70500E0F9A3E0FAA3E02FFFEA3EFEE93DFDE8FC
:02B715003CFCFA
:01B71700220F
:10B9600012AC61E4FCFD7B807A517901F812270E5C
:10B970009018F21228979018F2E0F8A3E0F9A3E0EB
:10B98000FAA3E0FBC000C001C002C0039018EBE0C6
:10B99000FFA3E0FCA3E0FDA3E0FAA3E0FB12B67D69
:10B9A000D003D002D001D000EB2FFFEA3EFEE93DEC
:10B9B000FDE83CFC9018F21228979018F2E0FCA3E6
:10B9C000E0FDA3E0FEA3E02401FFE43EFEE43DFD34
:10B9D000E43CFC9018F21228979018F2E0FCA3E0E7
:07B9E000FDA3E0FEA3E0FF60
:01B9E700223D
:105708004C6F67696E3A200050617373776F7264EB
:105718003A202563256325632563256325630025D2
:1057280063256325632563256325630A0D57656C27
:10573800636F6D6520746F2074686520505435332D
:1057480030302054656C6E657420696E74657266BD
:105758006163652E0A0D556E6974204E616D652E64
:105768003A20004041542B2B2B004F4B0A0D004090
:1057780041542D2D2D005354415455530025642E6A
:1057880025642E25642C25642E25642E25642C255D
:105798003032582D253032582D253032582D2530AD
:1057A80032582D253032582D253032582C25640A90
:1057B8000D00475053535441545553000A0D475058
:1057C80053204368616E6E656C204E756D6265721C
:1057D8003A2030312C30322C30332C30342C3035C8
:1057E8002C30362C30372C30382C30392C31302CAA
:1057F80031312C31322C31332C31342C31352C31A0
:10580800360A0D5369676E616C205175616C697455
:1058180079202020203A20253032692C2530326921
:105828002C253032692C253032692C253032692CF0
:10583800253032692C253032692C253032692C25E7
:105848003032692C253032692C253032692C2530CC
:1058580032692C253032692C253032692C253032BA
:10586800692C253032690A0D005369676E616C2016
:10587800537472656E6774682020203A2025303290
:10588800752C253032752C253032752C2530327523
:105898002C253032752C253032752C253032752C5C
:1058A800253032752C253032752C253032752C2553
:1058B8003032752C253032752C253032752C253038
:1058C80032752C253032752C253032750A0D00447E
:1058D800484350000A0D44484350204C65617365A5
:1058E80020203A20256C750A0D0044484350204575
:1058F8007870697265203A20256C750A0D00444855
:10590800435020543120202020203A20256C750A4D
:105918000D004448435020543220202020203A20B3
:10592800256C750A0D004448435020537461746512
:1059380020203A2025750A0D00444843502053651D
:1059480072766572203A2025752E25752E25752EBE
:1059580025750A0D00444843502052656E6577202E
:10596800203A2025690A0D004448435020436F75AA
:105978006E7420203A2025750A0D004750534C4F6D
:10598800434B000A0D475053204C6F636B205468FB
:10599800726573686F6C64203A2025750A0D00479C
:1059A8005053204C6F636B20436F756E742020201A
:1059B80020203A2025750A0D0048454C500068659E
:1059C8006C70000A0D436F6D6D616E64732E0A0D65
:1059D800535441545553202020203A2053686F7760
:1059E80020736F6674776172652076657273696F6C
:1059F8006E732E0A0D475053535441545553203A51
:105A08002053686F772047505320496E666F726D38
:105A18006174696F6E2E0A0D4750534C4F434B20EB
:105A280020203A2053686F7720475053204C6F63EB
:105A38006B207374617475732E0A0D4448435020AB
:105A480020202020203A2053686F77204448435074
:105A5800207374617475732E0A0D004558495400FB
:095A68004E6F74204F4B0A0D0033
:1099AF004211C500174211C3FFFF4111A200C1169A
:0799BF0044109D00000000B0
:10BED700E4FF7E8090101DE4F0A3DEFC90109D121D
:10BEE70028A300005DC09011C5E0FCA3E0FDE4902D
:10BEF700194FF0A3F0A37402F0A37406F0E4A3F0C3
:10BF07007B01A304F0A37410F0A3741DF0A3E4F065
:10BF1700A37480F07A0C792912B718EF3395E0FEF5
:10BF2700C3648094805008E49011A2F0FEFF229031
:10BF370011C3EEF0A3EFF09011A27401F07E00FFA1
:01BF470022D7
:10313200E49018D2F09011C3E0FEA3E0FF7C007D82
:103142003D1225F4742D2FF9740C3EFA9018CF74A9
:1031520001F0A3EAF0A3E9F053E7FB90109D1228D7
:10316200A300005DC043E7049011A2E06401705C1B
:103172009010A1F09011A27403F0E49018C3F0A390
:10318200F09018C4E024A3F582E43411F583E4F04E
:103192009018C4E004F070069018C3E004F0901890
:1031A200C3E07004A3E0642070D79017C774FFF0E7
:1031B200A37457F0A37408F07B017A1079A2125A13
:1031C200D690101BEEF0A3EFF0D216229011A2E0DF
:1031D200640360030232DD9018C1F0A3F09018CFAF
:1031E200E0FBA3E0FAA3E0F990001912269CFFC3CA
:1031F2009018C2E09F9018C1E095F04003023C4C49
:10320200A3E0241DF582E43410F583E0FFB4FF0946
:103212009018D27402F00232CC9018D2E0D394000B
:103222004002803AEFC39420401A9018C2E0241D55
:10323200F582E43410F583E0FFD3947E500612CC7D
:10324200990232CC9018C2E0241DF582E43410F5C4
:1032520083E0B4080E9010A1E0D394004005E0147E
:10326200F080679018C2E0241DF582E43410F583E3
:10327200E0640D70459010A17410F09011A27404D6
:10328200F09017C774FFF0A37457F0A37410F0A363
:1032920074FFF0A374FBF0A37401F0A374FFF0A316
:1032A20014F0A37401F0FB7A1079A2125AD690108E
:1032B2001BEEF0A3EFF0D21680109011A2E0B4033F
:1032C200099010A1E0B41002E4F09018C2E004F0FA
:1032D20070069018C1E004F00231DF9011A2E064A0
:1032E2000460030234AC9018C1F0A3F09018CFE050
:1032F200FBA3E0FAA3E0F990001912269CFFC39009
:1033020018C2E09F9018C1E095F04003023C4C9037
:1033120010A1E0942040037410F09018C2E0241D24
:10332200F582E43410F583E0FFC39420400CEFD320
:10333200947E500612CC9902349B9018C2E0241D50
:10334200F582E43410F583E0B4080F9010A1E0D3C5
:1033520094004006E014F002349B9018C2E0241D51
:10336200F582E43410F583E0640D600302349B902F
:1033720018C3F0A3F09018C3E0FEA3E0FFC3941FAC
:10338200EE648094805034EF2421FFEE341CFE1250
:10339200CF1F9018C4E024A3F582E43411F583E032
:1033A2006F60089011C4E0FF02AE9A9018C4E00466
:1033B200F070C29018C3E004F080BAE49010A1F05B
:1033C2009011A27402F09017C774FFF0A37457F023
:1033D200A37427F0A374FFF0A374FCF0A37401F0AC
:1033E200A37440F0A3F0A3F07B017A1079A2125AE1
:1033F200D690101BEEF0A3EFF0E49018C3F0A3F008
:103402009018C3E0FEA3E0FFC39420EE6480948092
:103412005054EF2401FFEE341CFE12CF1F90101CFB
:10342200E0FE9018C4E02EFE24A2F582E43410F5EA
:1034320083EFF074A22EF582E43410F583E0701667
:103442009018C3E0FEA3E0FF90101CE02FF0901054
:103452001BE03EF080109018C4E004F070A29018B7
:10346200C3E004F0809A90101CE0FF24A2F582E4ED
:103472003410F583740AF074A32FF582E43410F546
:1034820083740DF090101CE02402F090101BE034C5
:1034920000F0D2167F2812BBF69018C2E004F0703A
:1034A200069018C1E004F00232EE9011A2E064022C
:1034B200600302357A9018C1F0A3F09018CFE0FBB8
:1034C200A3E0FAA3E0F990001912269CFFC390181A
:1034D200C2E09F9018C1E095F04003023574A3E06A
:1034E200241DF582E43410F583E0FFC39420400BE1
:1034F200EFD3947E500512CC9980549018C2E024E8
:103502001DF582E43410F583E0640D7042FF12CCA5
:1035120099E49010A1F078A37C117D017BFF7A578A
:10352200796B122B0EEF70279011A27405F0901791
:10353200C774FFF0A37457F0A37472F07B017A1082
:1035420079A2125AD690101BEEF0A3EFF0D2169089
:1035520018C2E0241DF582E43410F583E0FF12C1A5
:10356200F89018C2E004F070069018C1E004F0026E
:1035720034BD12CF8EB2A5229011A2E06405600381
:10358200023C4C9018C1F0A3F09018CFE0FBA3E0EE
:10359200FAA3E0F990001912269CFFC39018C2E02A
:1035A2009F9018C1E095F04003023C4CA3E0241D1B
:1035B200F582E43410F583E0FFC39420400CEFD38E
:1035C200947E500612CC99023C3B9018C2E0241D16
:1035D200F582E43410F583E0640D6003023C25FFBC
:1035E20012CC99E49010A1F078A37C117D017BFFAD
:1035F2007A577977122B0EEF70169011A27402F09F
:103602009017C774FFF0A37457F0A37472023BDBE8
:1036120078A37C117D017BFF7A57797E122B0EEF06
:1036220060030237377FFD7E2312CF3C9018C5E43A
:10363200F0A3EFF07FFE7E2312CF3C9018C7E4F098
:10364200A3EFF07FFF7E2312CF3C9018C9E4F0A3D2
:10365200EFF07FFD7EFF12CF3C9018CBE4F0A3EF9A
:10366200F07FFE7EFF12CF3C9018CDE4F0A3EFF086
:1036720074FFFFFE12CF3C7E009017C774FFF0A3C9
:103682007457F0A37485F09018C5E0FDA3E090177D
:10369200CACDF0A3EDF09018C7E0FDA3E09017CCDF
:1036A200CDF0A3EDF09018C9E0FDA3E09017CECDC8
:1036B200F0A3EDF09018CBE0FDA3E09017D0CDF091
:1036C200A3EDF09018CDE0FDA3E09017D2CDF0A3CA
:1036D200EDF0A3EEF0A3EFF090001EE0FF9017D6FE
:1036E200EEF0A3EFF090001FE0FF9017D8EEF0A3EA
:1036F200EFF0900020E0FF9017DAEEF0A3EFF090E9
:103702000021E0FF9017DCEEF0A3EFF0900022E042
:10371200FF9017DEEEF0A3EFF0900023E0FF90178A
:10372200E0EEF0A3EFF090174FE0FF9017E2EEF01B
:10373200A3EF023BDB78A37C117D017BFF7A5779F3
:10374200BA122B0EEF60030239529017C774FFF0C2
:10375200A37457F0A374C4F090173FE0FE3395E0D2
:103762009017CAF0A3CEF0901740E0FE3395E09098
:1037720017CCF0A3CEF0901741E0FE3395E09017FE
:10378200CEF0A3CEF0901742E0FE3395E09017D032
:10379200F0A3CEF0901743E0FE3395E09017D2F0FD
:1037A200A3CEF0901744E0FE3395E09017D4F0A337
:1037B200CEF0901745E0FE3395E09017D6F0A3CEF9
:1037C200F0901746E0FE3395E09017D8F0A3CEF0C4
:1037D200901747E0FE3395E09017DAF0A3CEF09011
:1037E2001748E0FE3395E09017DCF0A3CEF0901777
:1037F20049E0FE3395E09017DEF0A3CEF090174A31
:10380200E0FE3395E09017E0F0A3CEF090174BE086
:10381200FE3395E09017E2F0A3CEF090174CE0FE55
:103822003395E09017E4F0A3CEF090174DE0FE330D
:1038320095E09017E6F0A3CEF090174EE0FE339598
:10384200E09017E8F0A3CEF07B017A1079A2125A29
:10385200D690101BEEF0A3EFF0E024A2F9E43410AE
:10386200FA7B01C003C002C0019017C774FFF0A326
:103872007458F0A37471F090172FE0FF9017CAE408
:10388200F0A3EFF0901730E0FF9017CCE4F0A3EF35
:10389200F0901731E0FF9017CEE4F0A3EFF090170D
:1038A20032E0FF9017D0E4F0A3EFF0901733E0FF7F
:1038B2009017D2E4F0A3EFF0901734E0FF9017D402
:1038C200E4F0A3EFF0901735E0FF9017D6E4F0A3F1
:1038D200EFF0901736E0FF9017D8E4F0A3EFF090E6
:1038E2001737E0FF9017DAE4F0A3EFF0901738E013
:1038F200FF9017DCE4F0A3EFF0901739E0FF901788
:10390200DEE4F0A3EFF090173AE0FF9017E0E4F066
:10391200A3EFF090173BE0FF9017E2E4F0A3EFF083
:1039220090173CE0FF9017E4E4F0A3EFF090173D0E
:10393200E0FF9017E6E4F0A3EFF090173EE0FF906F
:1039420017E8E4F0A3EFF0D001D002D003023B9AD3
:1039520078A37C117D017BFF7A5879D7122B0EEF69
:103962006003023B3D9017C774FFF0A37458F0A3A5
:1039720074DCF0900DE0E0FCA3E0FDA3E0FEA3E028
:10398200FF9017CA1228977B017A1079A2125AD691
:1039920090101BEEF0A3EFF0E024A2F9E43410FA49
:1039A2007B019017C774FFF0A37458F0A374F2F070
:1039B200900DE4E0FCA3E0FDA3E0FEA3E0FF90177E
:1039C200CA122897125AD690101CE02FF090101BA2
:1039D200E03EF0A3E024A2F9E43410FA7B01901750
:1039E200C774FFF0A37459F0A37406F0900DE8E0D9
:1039F200FCA3E0FDA3E0FEA3E0FF9017CA12289704
:103A0200125AD690101CE02FF090101BE03EF0A34B
:103A1200E024A2F9E43410FA7B019017C774FFF096
:103A2200A37459F0A3741AF0900DECE0FCA3E0FD2E
:103A3200A3E0FEA3E0FF9017CA122897125AD6906D
:103A4200101CE02FF090101BE03EF0A3E024A2F93E
:103A5200E43410FA7B019017C774FFF0A37459F095
:103A6200A3742EF0900DF0E0FF9017CAE4F0A3EFDC
:103A7200F0125AD690101CE02FF090101BE03EF08E
:103A8200A3E024A2F9E43410FA7B019017C774FF73
:103A9200F0A37459F0A37441F0900DF2E0FF901777
:103AA200CAE4F0A3EFF0900DF3E0FF9017CCE4F03E
:103AB200A3EFF0900DF4E0FF9017CEE4F0A3EFF047
:103AC200900DF5E0FF9017D0E4F0A3EFF0125AD674
:103AD20090101CE02FF090101BE03EF0A3E024A217
:103AE200F9E43410FA7B019017C774FFF0A37459FC
:103AF200F0A3745DF0901729E0FFA3E09017CACFFE
:103B0200F0A3EFF0125AD690101CE02FF090101B89
:103B1200E03EF0A3E024A2F9E43410FA7B0190170E
:103B2200C774FFF0A37459F0A37470F0901B4CE0BB
:103B3200FF9017CAE4F0A3EFF0805D78A37C117DBB
:103B4200017BFF7A597983122B0EEF705B9017C7B6
:103B520074FFF0A37459F0A3748BF0A3E4F0A37480
:103B62003CF07B017A1079A2125AD690101BEEF02B
:103B7200A3EFF0E024A2F9E43410FA7B019017C716
:103B820074FFF0A37459F0A374A7F09015CDE0FF71
:103B92009017CAE4F0A3EFF0125AD690101CE02F4F
:103BA200F090101BE03E807678A37C117D017BFFB4
:103BB2007A5979C1122B0EEF601278A37C117D0124
:103BC2007BFF7A5979C6122B0EEF70209017C774BB
:103BD200FFF0A37459F0A374CBF07B017A1079A2A1
:103BE200125AD690101BEEF0A3EF803278A37C110C
:103BF2007D017BFF7A5A7963122B0EEF70028035BA
:103C02009017C774FFF0A3745AF0A37468F07B0195
:103C12007A1079A2125AD690101BEEF0A3EFF0D2CE
:103C22001680169018C2E0241DF582E43410F58344
:103C3200E0B41805E49011A2F09018C2E004F0700C
:0A3C4200069018C1E004F002358B73
:013C4C002255
:109B3900E4901A8AF09011C3E0FEA3E0FF7C007D57
:109B49003D1225F4742D2FF9740C3EFA901A8B747A
:109B590001F0A3EAF0A3E9F09011A2E064027071A8
:109B69009014F3E0FEA3E0FF4E7066901427E0FC2A
:109B7900A3E0FDD39400EC94004056EF4E7052D30D
:109B8900ED9400EC94004049E4901A88F0A3F0D3D6
:109B9900901428E09400901427E09400402212C504
:109BA90002901A89E024A2F582E43410F583EFF0DB
:109BB900901A89E004F070D7901A88E004F080CFF9
:109BC900901A88E0FFA3E090101BCFF0A3EFF0D22A
:109BD900169011A2E0FF6402600EEF64036009EFC2
:109BE90064046004EFB40546301643C2167B017A5B
:109BF9001079A2C003C002C001901A8BE0FBA3E058
:109C0900FAA3E0F990000E12292D90101BE0FEA393
:109C1900E0FF901A8BE0FBA3E0FAA3E0F9900011B2
:109C2900EE8FF01226D4901A8A748EF0801190115A
:109C3900A2E0700B9011C4E0FF12AE9A12BED79049
:109C490011A2E0B407089011C4E0FF12AE9AB2A5C0
:059C5900901A8AE0FFF3
:019C5E0022E3
:0FCF10009011A2E064076002E4F07F0502BBF617
:10CC99009010A1E0C394204002E4F09010A1E02498
:10CCA900A3F582E43411F583EFF09010A1E004F0CC
:01CCB9002258
:08ADE000901ABDEEF0A3EFF0A4
:10ADE8009011C3E0FEA3E0FF7C007D3D1225F474C2
:10ADF8002D2FF9740C3EFA901ABF7401F0A3EAF0F3
:10AE0800A3E9F053E7FB90109D1228A300005DC052
:10AE180043E704901ABDE0FEA3E0FFA3E0FBA3E034
:10AE2800FAA3E0F9900011EE8FF01226D47B017A94
:10AE380014792FC003C002C001901ABFE0FBA3E041
:10AE4800FAA3E0F990000E12292DE4901427F0A33C
:10AE5800F09011C4E0FF901ABFE0FBA3E0FAA3E072
:10AE6800F990000E1228FDC003C002C001901ABF5D
:10AE7800E0FBA3E0FAA3E0F990001112269CFD90F4
:10AE880019A5E5F0F0A3EDF0D001D002D003128AA5
:01AE9800C5F4
:01AE99002296
:10CCD900E4FFFEE4FDFC000DBD00010CBC08F7BD3E
:0DCCE90098F40FBF00010EEF64284E70E6B6
:01CCF600221B
:0FCF0000E4FFFE000FBF00010EBE01F7BF22F4D9
:01CF0F0022FF
:10CE8400D2B112CF00C2B012CF00C2B112CF00D2C1
:04CE9400B002CF0019
:0CCF4800C2B0D2B112CF00D2B002CF00B4
:02CC5400AD072A
:10CC5600E4FBED3392B012CF00D2B112CF00C2B1D5
:10CC6600ED25E0FD12CF000BEBB408E6D2B002CF03
:01CC760000BD
:05CB2700E0FF12CC54F8
:10CB2C00E4FF7E01D2B0EE600DA2B0E433FE0FEF55
:10CB3C00B4FFF37F0022D2B112CF00C2B112CF00EA
:02CB4C007F0167
:01CB4E0022C4
:05BBF600901B19EFF0A7
:10BBFB00E4A3F0A3F0EF24FB601424DD60182468A9
:10BC0B00601C24AE701E901B1A7407F08016901BDC
:10BC1B001A7402F0800E901B1A7401F08006901BB0
:10BC2B001A7404F012CE847F6812CC5412CB2C9071
:10BC3B001B1BEFF07002FF227FC012CC5412CB2CD7
:10BC4B00901B1BEFF07002FF22901B1A12CB27A345
:10BC5B00EFF07002FF22901B1912CB27901B1BEFEA
:09BC6B00F012CF4812CCD9E0FF21
:01BC740022AD
:07CF8100257520202020008F
:1099C6004117C2006020179E202020202020202042
:1099D6002020202020202020202020202020202081
:1099E60020202020202020204117C3004417BE003D
:0399F6000000006E
:0ACF5F00E4F58475C3A643C0042264
:03243B0002B544A3
:10B54400C0E0C0F0C083C082C0D075D000C000C0CD
:10B5540001C002C003C004C005C006C007AFC1EFEC
:10B564002480601724E0605424F8603A24F06036A4
:10B574002458704B9017C2E4F080449017C2E0FF47
:10B5840004F0748E2FF582E43417F583E5C2F0904D
:10B5940017C2E064017028E5C230E723E5C2543FD6
:10B5A400FF129C5F80199017C3E0FF04F0749E2F74
:10B5B400F582E43417F583E0F5C2800312A935530C
:10B5C400C0F7D007D006D005D004D003D002D001F4
:0DB5D400D000D0D0D082D083D0F0D0E032B3
:10A9350090178EE0B40700400302AA0990A948F8D1
:10A9450028287302A95D02A97F02A9A002A9C10254
:10A95500A9E202A9FA02AA05901792E0900010F068
:10A96500901791E0900011F0901790E0900012F090
:10A9750090178FE090001302AA01901792E09000C3
:10A985001AF0901791E090001BF0901790E090005E
:10A995001CF090178FE090001D8061901792E09059
:10A9A5000024F0901791E0900025F0901790E0902A
:10A9B5000026F090178FE09000278040901792E0D6
:10A9C5009017BEF0901791E09017BFF0901790E0A8
:10A9D5009017C0F090178FE09017C1F02290178F55
:10A9E500E0901687F0700B900010F0A3F0A3F0A391
:10A9F50004F0D2142290178FE0901708F0D2142299
:05AA0500D20FD2142263
:109C5F00E49017C3F0EFB40A004003029D65909C97
:109C6F0074F8282873029C92029CB8029CE9029D0A
:109C7F0006029D23029D44029D50029D55029D6543
:109C8F00029D5E9017C774FFF0A374CFF0A3748189
:109C9F00F09011C5E0FFA3E09017CACFF0A3EFF04B
:109CAF007B017A17799E025AD690001EE090179E7C
:109CBF00F090001FE090179FF0900020E09017A009
:109CCF00F0900021E09017A1F0900022E09017A2F1
:109CDF00F0900023E09017A3F022900013E090176C
:109CEF009EF0900012E090179FF0900011E09017F7
:109CFF00A0F0900010803890001DE090179EF0901B
:109D0F00001CE090179FF090001BE09017A0F090C0
:109D1F00001A801B900027E090179EF0900026E01D
:109D2F0090179FF0900025E09017A0F0900024E08E
:109D3F009017A1F022E490179EF0A3F0A3F0A3F0E8
:109D4F00229016878003901708E090179EF02290BC
:109D5F00179E746EF022E4FF74092FF582E4341716
:109D6F00F583E0FE749E2FF582E43417F583EEF051
:059D7F000FEFB420E32A
:019D840022BC
:01FFFA000105
:02FFFB00E21D05
:03FFFD00010A02F4
:0599F900420DDE00003C
:10B20E00900DF1E0600302B2B4900DF0E0C394092A
:10B21E00500302B2B4900DDEE475F00112265B907D
:10B22E000DDEE07004A3E064647022900DDEF0A3E6
:10B23E00F0900DE412286FEF24FFFFEE34FFFEEDC9
:10B24E0034FFFDEC34FFFC900DE4122897900DE8CE
:10B25E0012286F900DE412288BD31228385047E431
:10B26E00FFFEFDFC900DE412288BC31228387005EA
:10B27E00900DF0F022900DEC12286F900DE4122834
:10B28E008BD31228385007900DF0740BF022900DCE
:10B29E00E812286F900DE412288BD312283850062E
:06B2AE00900DF0740AF09F
:01B2B4002277
:0C50050090180F1228F49018121228972F
:10501100E4901816F0A3F0A3F0A3F0901825F0A3E4
:10502100F0900DF0E07003025386E064076004E045
:10503100B40A087B017A0D79F280067B017A18792E
:10504100A29018271228F49018D8E4F0A37443F022
:10505100A37411F0E4A3F07B017A0D79F7A3122870
:10506100F49018DF7402F0A37424F090182712282A
:10507100D47D447C00126FBD90181AEFF0C3648098
:1050810094805003025377E0FF3395E0FE7C007D6E
:105091003D1225F4742D2FF9740C3EFA7B01901802
:1050A1001C1228F4901816E07002A3E0600302536A
:1050B1006790181BF090CC43E493FF90181BE0C35A
:1050C1009F400302534A90180F1228D490181212CD
:1050D100286F125DD690181F122897901825E0901E
:1050E1000DFFF0901826E0900E00F090182712287E
:1050F100D474019018A26B7008E965827003EA65A7
:10510100837007900DF604F08005E4900DF6F07BB6
:10511100017A0D79F7C003C002C00190181C122852
:10512100D490000E12292D90181C1228D490001131
:10513100740275F0241226D412892B901818EEF0FF
:10514100A3EFF0900DF0E0B4070B901816E4F0A374
:1051510004F002534A90181BE02401FFE433FEEFF0
:105161007802C333CE33CED8F9FF901823EEF0A3E3
:10517100EFF0C3901818E0648094805015901823C4
:10518100E0FEA3E0FF7C007D641225F412CD8502D0
:105191005341900DF67401F07B017A0D79F7901867
:1051A100757402F0A37424F0901823E0FEA3E0FFCD
:1051B1007C007D641225F4901877EEF0A3EFF09057
:1051C100181AE0FF128768901818EEF0A3EFF0D3D9
:1051D1009400EE648094805003025328900DFEE009
:1051E100FFE4FCFDFE780812285CA804A905AA06C4
:1051F100AB07900DFDE0FFE4FCFDFE12282B7808C3
:1052010012285CA804A905AA06AB07900DFCE0FFD3
:10521100E4FCFDFE12282B780812285CA804A905DD
:10522100AA06AB07900DFBE0FFE4FCFDFE12282B64
:1052310090181F12288BC31228386003025328903C
:105241000DF7E064026003025328900DF0E024FDA5
:10525100602624F9602214601F240A600302531C93
:1052610012CE46BF020F900DF07403F012CCF7126C
:10527100CD3302533702531C12CE46EF640560034F
:1052810002530F78107C007D017B017A0E7907FEB5
:105291007F0412257612CD1512248612CD3312A465
:1052A100B2900DE4122897900DE412286F900DE052
:1052B10012289712CCF774FFFFFEFDFC900DE4124B
:1052C100288BC31228387007900DF104F0802FE469
:1052D1007B02FAF9F8900DE412286F122799900DCC
:1052E100E8122897E47B08FAF9F8900DE412286F88
:1052F100122799900DEC122897E4900DF1F0900D82
:10530100F07409F0901816E4F0A304F0802812CE8E
:1053110046EF64027003025199800090181674FFE1
:10532100F0A3749CF0800F901823E0FEA3E0FFA38C
:10533100EE8FF012265B901816E07002A3E0700960
:1053410090181BE004F00250B6901818E0FEA3E09C
:10535100FFD39400EE6480948040030250A590181E
:1053610016EEF0A3EFF0900DF674FFF090181AE02E
:10537100FF12B402800F90181AE0FE3395E09018E6
:0D53810016F0A3CEF0901816E0FEA3E0FF9A
:01538E0022FC
:0C5DD6009019781228F490197B1228977D
:105DE200900DF0E024FD7003025E7E24FC6014241A
:105DF200FD7003025E7E147003025E7E240A60035D
:105E0200025EFE12242EEF2401FFE43EFEE433FD87
:105E1200E433FC781012285CC004C005C006C00739
:105E220012242EEF2401FFE43EFEE4FCFDD003D059
:105E320002D001D00012282B90197F1228979019B6
:105E42007F12286F900DFBEFF090197F12286F7868
:105E520008122849900DFCEFF090197F12286F78F4
:105E620010122849900DFDEFF090197F12286F78DB
:105E720018122849900DFEEFF0025F08900DFEE027
:105E8200FFE4FCFDFE90197F12289790197F1228DB
:105E92006F780812285CA804A905AA06AB07900D22
:105EA200FDE0FFE4FCFDFE12282B90197F122897DB
:105EB20090197F12286F780812285CA804A905AAF5
:105EC20006AB07900DFCE0FFE4FCFDFE12282B90D0
:105ED200197F12289790197F12286F780812285C70
:105EE200A804A905AA06AB07900DFBE0FFE4FCFDA0
:105EF200FE12282B90197F122897800A90197F1280
:105F020028A300000000900DF77401F0A3F0A37421
:105F120006F07E007F047D007B017A0E790B122C45
:105F2200147E007F047D007B017A0E790F122C14FF
:105F320078137C0E7D017B017A00791E7E007F063C
:105F42001225769019781228D4E94A601178637C78
:105F52000E7D019019781228D4122BF78005E49057
:105F62000E63F07B017A0E79E39019831228F49084
:105F72001983E475F0011228DD74631225E2901989
:105F820083E475F0011228DD74821225E2901983F0
:105F9200E475F0011228DD74531225E2901983E4AE
:105FA20075F0011228DD74631225E2901983E475FD
:105FB200F0011228DD74351225E2901983E475F0A0
:105FC200011228DD74011225E2900DF0E024FD603B
:105FD2004E24FC70030260F324FD70030260B114CE
:105FE20070030260B1240A600302611D900E017405
:105FF20080F07E007F047D007B017A0E7907122CEF
:10600200147E007F047D007B017A0E7903122C142A
:10601200901983E475F0011228DD74010260E290A8
:106022000E017480F07E007F047D007B017A0E7980
:1060320003122C14901983E475F0011228DD740305
:1060420012C01E12C4B09019831228F4901983E46E
:1060520075F0011228DD74321225E2901983E4757D
:10606200F0011228DD74041225E2E4FF74072FF513
:1060720082E4340EF583E0FE901983E475F0011298
:1060820028DDEE1225E20FEFB404E1901983122805
:10609200D412B00412C0E19019831228F47E007F5A
:1060A200047D007B017A0E7907122C1402611DE433
:1060B200900E01F0FE7F04FD7B017A0E7907122C0F
:1060C2001478037C0E7D017B017A0079107E007FBB
:1060D20004122576901983E475F0011228DD740309
:1060E20012C01E9019831228F412B00412C0E1806B
:1060F20024E4900E01F0FE7F04FD7B017A0E790705
:10610200122C14901983E475F0011228DD74071221
:10611200C01E12C4B09019831228F4901983122859
:0C612200D474FF1225E290197F12286F40
:01612E00224E
:10B5E1007B017A0E79E7901A8E1228F4E92437F953
:10B5F100EA3401FA901A911228F4901A8E1228D482
:10B6010012259CFE6F606EEEF46021901A91122853
:10B61100D4C003C002C001901A8E1228D4D3D082A4
:10B62100D083D0E0E99582EA9583400E7B007A00D1
:10B631007900901A8E1228F4803BEE7017901A8FC1
:10B64100E475F00112265B901A8E1228D412259C03
:10B6510060EB80A6901A8FE475F00112265B901AB8
:10B661008E1228D412259C04FEFD901A8FE48DF0D1
:0BB6710012265B8085901A8E1228D4F0
:01B67C0022AB
:10CE4600E4FC7F3512B5E1E94A600790000212253D
:04CE5600B5FCAF0474
:01CE5A0022B5
:10A4B200901A671228A3000000007F3312B5E190C2
:10A4C2001A6B1228F4E94A700302A59C901A6CE4F4
:10A4D20075F00212265B901A6B1228D412259CFF8B
:10A4E200E4FCFDFE781812285C901A6712289790F7
:10A4F2001A6CE475F00112265B901A6712288BC061
:10A5020000C001C002C003901A6B1228D412259C0D
:10A51200FFE4FCFDFE781012285CD003D002D001CB
:10A52200D000122701901A67122897901A6CE475CE
:10A53200F00112265B901A6712288BC000C001C07E
:10A5420002C003901A6B1228D412259CFFE4FCFD72
:10A55200FE780812285CD003D002D001D000122766
:10A5620001901A67122897901A6CE475F00112266E
:10A572005B901A6712288BC001C002C003901A6B4D
:10A582001228D412259CFFE4FCFDFED003D002D099
:10A5920001122701901A67122897901A6712286FE2
:01A5A2002296
:10CCF7007F3612B5E1E94A6014740229F9E43AFA79
:0DCD070078F27C0D7D017E007F0412257600
:01CD140022FC
:09C01E001225E29019831228D4C6
:06C02700901B1C1228F41E
:10C02D00901B1CE475F0011228DD743D1225E29081
:10C03D001B1CE475F0011228DD74071225E2901B1C
:10C04D001CE475F0011228DD74011225E2E4FF7481
:10C05D001E2FF582E43400F583E0FE901B1CE47581
:10C06D00F0011228DDEE1225E20FEFB406E1901B70
:04C07D001C1228D495
:01C08100229C
:06C4B0009019831228F42C
:06C4B600901B1F1228F488
:10C4BC00901B1FE475F0011228DD74361225E290F2
:10C4CC001B1FE475F0011228DD74041225E2E4FF51
:10C4DC0074F22FF582E4340DF583E0FE901B1FE41B
:10C4EC0075F0011228DDEE1225E20FEFB404E19095
:05C4FC001B1F1228D4F3
:01C501002217
:06B0040090197B12286F79
:10B00A00901A6E1228F4901A71122897E4FFFEFD26
:10B01A00FC901A7112288BC3122838700C90CC44F9
:10B02A0012287B901A71122897901A6EE475F00113
:10B03A001228DD74331225E2901A6EE475F00112BB
:10B04A0028DD74041225E2901A7112286F781812FA
:10B05A002849901A6EE475F0011228DDEF1225E2F4
:10B06A00901A7112286F7810122849901A6EE47596
:10B07A00F0011228DDEF1225E2901A7112286F787A
:10B08A0008122849901A6EE475F0011228DDEF12B1
:10B09A0025E2901A74E0FF901A6EE475F001122806
:0CB0AA00DDEF1225E2901A6E1228D4226D
:06C0E1009019831228F4FF
:10C0E700901B221228F4901B22E475F0011228DD20
:10C0F70074371225E2901B22E475F0011228DD74D3
:10C10700031225E2901B22E475F0011228DD740169
:10C117001225E2901B22E475F0011228DD74031248
:10C1270025E2901B22E475F0011228DD7406122522
:08C13700E2901B221228D42221
:10CD15007F0112B5E1E94A6014740229F9E43AFA8F
:0DCD2500781A7C007D017E007F04122576C7
:01CD320022DE
:102486007F0312B5E1E94A6013740229F9E43AFAC6
:0C24960078247C007D017E000F1225766A
:0124A2002217
:10CD33007F0612B5E1E94A6014740229F9E43AFA6C
:0DCD430078E97C1A7D017E007F04122576C0
:01CD500022C0
:06AD2300901A941228971B
:10AD2900900DF1E0600302ADCF900DF0E0C39409FE
:10AD3900500302ADCF7B007A007900901A94122853
:10AD49006F125005901A98EEF0A3EFF064014E606F
:10AD59006D900DF0E0B40A2FE47B02FAF9F8900D3A
:10AD6900E012286F122799900DE812288BC3122838
:10AD7900387014900DE812286FE47B02FAF9F81282
:10AD89002799900DE88034900DF0E0B40B30E47B06
:10AD990008FAF9F8900DE012286F122799900DEC36
:10ADA90012288BC31228387015900DEC12286FE405
:10ADB9007B02FAF9F8122799900DEC122897900D59
:10ADC900F07409F08008901A98E4F0A304F0901A3E
:06ADD90098E0FEA3E0FF7C
:01ADDF002251
:0CC96700901A751228F4901A7812289784
:10C973007E007F047D007B017A007910122C1490D5
:10C983000DF07401F0901A751228D4901A781228B9
:04C993006F125005CA
:01C99700227D
:06892B0090193A1228F435
:10893100E94A70057EFF7F852290193A1228D412E8
:10894100CBE990193DEEF0A3EFF04E7003FEFF224C
:1089510090193A1228D490000E1228FD9019411254
:1089610028F490193EE02408FF90193DE03400FE00
:1089710090193FF0FCA3EFF0FD90193A1228D412A0
:108981002671FBAAF0C002C00390193A1228D490B4
:10899100000212269CFF90191DE5F0F0A3EFF07B79
:1089A100017A007910A31228F490193A1228D4E917
:1089B1002404F9E43AFA9019221228F4D003D002DF
:1089C1007F111290E79019441228979019411228AB
:1089D100D490193DE0FFA3E09019CFCFF0A3EFF0C1
:1089E10090194412286F12AB9C9019441228979049
:1089F100194412286F12C5519019441228979019E1
:108A010046E0FFA3E0A3CFF0A3EFF090193A1228BC
:108A1100D490001B1225B5FD90193FE0FFA3E09013
:108A210018FACFF0A3EFF090193A1228D4127FF67A
:108A3100EF64016002807790193A1228D4122671EE
:108A4100E5F0FF12C85690193A1228D4122671FF88
:108A510012C85690193A1228D490000212269CE5A9
:108A6100F0FF12C85690193A1228D490000212262B
:108A71009CFF12C85690193FE0FF12C8569019404A
:108A8100E0FF12C856901948E0FF12C856901949E4
:108A9100E0FF12C85690193A1228D490193DE0FC13
:108AA100A3E0FD12C5A0D3EF648094805006EF339C
:108AB10095E0FE2290193A1228D490001112269CBA
:038AC100FFAEF015
:018AC400228F
:10CA2700901B25EFF0A3EDF0A3EBF0129FBAEF4EAA
:10CA370070057EFF7F8B22C2AF12CF2ED2AF901B25
:0DCA470025E0FFA3E0FDA3E0FB129A0E2204
:0599FE0042189B00006F
:10BDEE00129FBAEF4E70057EFF7FFF22E490189DE2
:10BDFE00F0A3F0FBFAF9A31228F47E007F047D0075
:10BE0E000B7A1879AA122C147E007F047D007B0118
:10BE1E007A1879A6122C147E007F047D007B017A9D
:10BE2E000C7929122C1490CC4A7401932409FFE446
:10BE3E00933400FE7D007B017A0D795E122C1490F6
:10BE4E0018A574FFF09018A4F09018A3F09018A203
:06BE5E00F07E007F0122CE
:10CAAB00129EA0901B4EEFF030E210128DEDC3EFF3
:10CABB0064809480400F12A1D5800A901B4EE03009
:0ACACB00E60312AAD4901B4EE0FF10
:01CAD500223E
:109EA000E490189DF0A3F012CEACD3EF9400EE64D2
:109EB00080948050037F002212C13FEF901A9BF0E4
:109EC000A3E4F012C13F901A9BEE8FF012265B9034
:109ED0001A9BE0FEA3E0FFD394EEEE94055004EF4E
:109EE0004E700612CE987F00229019321228D4901C
:109EF0001A9BE0FEA3E029F9EA3EFAA31228F490A7
:109F0000CC36E493FE740193FF2411F974063EFAF3
:109F10007B01C003C002C001901A9D1228D4D3D087
:109F200082D083D0E0E99582EA95835008901A9D0B
:109F30001228D4802E9019321228D474112FF58251
:109F400074063EFEC3E58299FFEE9AFEC3901A9C0A
:109F5000E09FFF901A9BE09EFE7B0174112FF97425
:109F6000063EFA90189F1228F412B8D6EF14600932
:109F70000470037F20227F00221274AC901A9AEFA3
:109F8000F06004E030E30512AAD4802890CC42E4CB
:109F9000936021901A9AE0FF20E00620E10330E26E
:109FA000137B017A007914901A3E1228F47A1879FA
:099FB000AA12AA1A901A9AE0FF05
:019FB9002285
:0B7FF6009018F9EDF09018F61228F436
:10800100E94A70037F8522900DF6E0FEF46012903C
:1080110018F61228D4122671644445F060037FA437
:1080210022EE6401601D78107C007D017B017A0CD9
:1080310079297E007F04122EBFEF3395E04F700344
:108041007F85229018FAE475F01412265B90189B34
:10805100E475F00112265B90189BE0FFA3E09019F4
:1080610002CFF0A3EFF09018F61228D490001D1261
:1080710025B530E40590CC49800390CC48E493FECB
:108081009018F9E0FDEDFF901904EEF0A3EFF090E8
:1080910018FAE0FCA3E0FDE4901830F0A3F0901989
:1080A10004E0FFA3E0901832CFF0A3EFF07B017A58
:1080B100007910A31228F49018F61228D4E92404A8
:1080C100F9E43AFA9018371228F4E490183AF0904B
:1080D1001902E0FAA3E0FB7F007E451285A3901808
:1080E100FC1228979018FC12286F780812284990E2
:1080F1001900EFF09018FC12286F901901EFF09021
:1081010018F9E0B40107E4901906F08012900DF619
:10811100E0B401047F0180027F00901906EFF09026
:1081210018F61228D4901906E0901A06F07D007C0A
:1081310008129799EF64016001227F4512C856E445
:10814100FF12C8569018FAE0FF12C8569018FBE0CB
:10815100FF12C856901902E0FF12C856901903E0A9
:10816100FF12C856E4FF12C856E4FF12C856901811
:10817100F61228D490001D1225B530E40590CC49A3
:10818100800390CC48E493FF12C8569018F9E0FFA1
:1081910012C856901900E0FF12C856901901E0FF6D
:1081A10012C856900010E0FF12C856900011E0FF6F
:1081B10012C856900012E0FF12C856900013E0FF5B
:1081C10012C8569018F61228D49000041225B5FF53
:1081D10012C8569018F61228D49000051225B5FF42
:1081E10012C8569018F61228D49000061225B5FF31
:1081F10012C8569018F61228D49000071225B5FF20
:0582010012C8567F01C8
:018206002255
:10AAD40090189F1228D4C003C002C00190193212EA
:10AAE40028D4D082D083D0E06B7008E965827003EB
:10AAF400EA6583700302AB9B90189F1228D4C003AD
:10AB0400C002C0019019321228D4C3D082D083D09D
:10AB1400E0E99582EA958350179019321228D4AE51
:10AB240002AF0190189F1228D4C3E99FFFEA802244
:10AB340090189F1228D4AE02AF019019321228D473
:10AB4400C3E99FFFEA9EFEC390CC367401939FFF36
:10AB5400E4939E901B48F0A3EFF0901937E0FEA316
:10AB6400E0FFD3901B49E09F901B48E09E40030206
:10AB7400CE98C2AF901B48E0FEA3E0FFC390193803
:10AB8400E09FF0901937E09EF090189F1228D4901F
:07AB940019321228F4D2AFC0
:01AB9B002297
:1074AC00E490190FF012C13F90190CEFF0E0FE546C
:1074BC000FA3F0EEC4540F64046003027709E0FFDD
:1074CC00C394055003027709EF25E025E0F024EC86
:1074DC00A3F012C13F901907EFF012C13FEF9018C3
:1074EC009DF0A3E4F012C13F90189DEE8FF0122690
:1074FC005BC390189EE0941490189DE09400500388
:10750C007F002212C13FEF901910F0A3E4F012C1DA
:10751C003F901910EE8FF012265B12C13FEF9019BD
:10752C0012F0A3E4F012C13F901912EE8FF0122664
:10753C005B901913E030E50790190FE04410F0123E
:10754C00C13F901908EFF012C13F901909EFF014E8
:10755C00601D14602324F1600D240B702490190F0E
:10756C00E04401F0802290190FE04402F080199061
:10757C00190FE04404F0801090190FE04440F080A3
:10758C000790190FE04408F012C13F90190AEFF070
:10759C0012C13F90190BEFF012C13F9018AAEFF0F7
:1075AC0012C13F9018ABEFF012C13F9018ACEFF046
:1075BC0012C13F9018ADEFF09018AAE0FFC394E011
:1075CC004009EFD394EF50037F002212C13F901873
:1075DC00A6EFF012C13F9018A7EFF012C13F901820
:1075EC00A8EFF012C13F9018A9EFF0900010E070D6
:1075FC001A90190FE030E21378107C007D017B01AA
:10760C007A1879A67E007F0412257612CF9BEF7034
:10761C0047900010E0FF9018A6E0FE6F6004EEF4B7
:10762C007033900011E0FF9018A7E0FE6F6004EE3D
:10763C00B4FF22900012E0FF9018A8E0FE6F6004E7
:10764C00EEB4FF11900013E0FF9018A9E0FE6F60FC
:10765C0007EEF460037F002290190CE0FE901907EE
:10766C00E0FDEDFFC006C00790189DE0FCA3E0FD17
:10767C00901912E0FFA3E0901830CFF0A3EFF09038
:10768C001908E0FEA3E0FBEBFF901832EEF0A3EF3D
:10769C00F07B017A1879A6A31228F47A1879AA90AB
:1076AC0018371228F490190EE090183AF09019102F
:1076BC00E0FAA3E0FBD007D0061285A390191412B0
:1076CC00289790191412286F780812284990190AD3
:1076DC00E0B5070D90191412286F90190BE06F602C
:1076EC00037F002290190DE0FFC390189EE09FF0DD
:0F76FC0090189DE09400F090190FE0FF227F009E
:01770B00225B
:02CF9B00E4FFB1
:01CF9D002271
:0E85A30090182CECF0A3EDF0A3EAF0A3EBF09F
:1085B100E4FCFD90183B12289790183B12288BC0C1
:1085C10000C001C002C0039018341228D4900001E9
:1085D1001225B5FD12259CFEEDFFE4FCFDD003D074
:1085E10002D001D00012270190183B122897901851
:1085F1003B12288BC000C001C002C0039018341286
:1086010028D49000021225B5FE9000031225B5FD75
:10861100EDFFE4FCFDD003D002D001D00012270110
:1086210090183B12289790183B12288B90182CE039
:10863100FEA3E0FFE4FCFD12270190183B122897EE
:1086410090183B12288B90182EE0FEA3E0FFE4FC6B
:10865100FD12270190183B12289790183B12288B86
:10866100901830E0FEA3E0FFE4FCFD122701901812
:108671003B12289790183B12288B901832E0FEA3EA
:10868100E0FFE4FCFD12270190183B122897901897
:108691003B12288BC000C001C002C00390183712E2
:1086A10028D49000011225B5FD12259CFEEDFFE4B2
:1086B100FCFDD003D002D001D00012270190183B5D
:1086C10012289790183B12288BC000C001C002C02D
:1086D100039018371228D49000021225B5FE90009D
:1086E100031225B5FDEDFFE4FCFDD003D002D0015E
:1086F100D00012270190183B12289790183AE0FFFA
:10870100604F20E04CE4901841F090183AE0FF905F
:108711001841E0C39F503A12C13FEF90183FF0A3B8
:10872100E4F012C13F90183FEE8FF012265B9018D3
:108731003B12288B90183FE0FEA3E0FFE4FCFD1202
:10874100270190183B122897901841E02402F080ED
:10875100B990183B12286F12C55190183B122897F7
:0687610090183B12286F86
:0187670022EF
:108DED009019F874FFF012C13F9019F7EFF0640875
:108DFD006003028F7190CC4A04932408FFE49334EE
:108E0D0000FE90189DE0FCA3E0FDD39FEC9E400377
:108E1D00028F71C3ED9404EC94005003028F71E442
:108E2D009018D8F0A3F0A304F0E4A3F0FBFAF9A393
:108E3D001228F4E49018DFF0A3F00B7A1879AAFD4C
:108E4D00FC126FBD9019F8EFF0C36480948050034D
:108E5D00028F7112C13F9019F7EFF090189EE02428
:108E6D00FEFE90189DE034FF9019FAF0A3CEF0901D
:108E7D0019F8E0900D5EF09019FAE0900D5FF0900A
:108E8D0019FBE0900D60F09019FA74FF75F0FE1269
:108E9D00265B12C13F9019F9EFF012C13F9019F9FD
:108EAD00E02408F0C3940850010F9019F9E0900DDB
:108EBD0061F0A3EFF07B017A0D79639019FC122814
:108ECD00F49019321228D490CC36E493FC740193AB
:108EDD002411F58274063CFCC3E58299FFEC9ACF10
:108EED002401CF34009019FFF0FCA3EFF0FD901991
:108EFD00FAE0FEA3E0FFD39DEE9C5012A31228D4FE
:108F0D00A801AC02AD039019321228D480539019E8
:108F1D00FFE0FEA3E0FF9019FC1228D4A801AC02DB
:108F2D00AD039019321228D41225769019FFE0FE68
:108F3D00A3E0FFC39019FBE09FF09019FAE09EF0BB
:108F4D00E0FCA3E0FDC004C005A31228D4E92FF96D
:108F5D00EA3EA801FCAD037B017A067912D007D059
:0C8F6D000612257612AAD49019F8E0FF35
:018F790022D5
:10A1D500900D5EE0901AA2F0C36480948050030253
:10A1E500A2CAE0FFFD3395E0FC900C4B75F03DED08
:10A1F500122CD7EC75F03DA42583F583E020E00310
:10A2050002A2CAEF3395E0FE7C007D3D1225F47471
:10A215002D2FF9740C3EFA7B01901AA31228F490A5
:10A22500001B1225B56401600302A2CA900D5FE010
:10A23500901AA0F0A3E4F0900D60E0FF901AA0E45E
:10A245008FF012265B90CC4A7401932406FFE493A9
:10A255003400FED3901AA1E09F901AA0E09E505DB5
:10A265007A0D7961C003C002C001901AA31228D4E7
:10A2750090000E12292D901AA0E0FEA3E0FF901A7F
:10A28500A31228D4900011EE8FF01226D4EF2402E9
:10A29500FFE43E9018FAF0A3EFF07D01127FF6EF90
:10A2A500601BE4FF12C856E4FF12C856901AA312A9
:10A2B50028D4901AA0E0FCA3E0FD12C5A0901AA234
:05A2C500E0FF12B402ED
:01A2CA002271
:10CE9800C2AF12CD9F7B017A06791290189F122893
:04CEA800F4D2AF22EF
:1090E700901918EFF0A3ECF0A3EDF0A3EAF0A3EBCF
:0190F700F088
:1090F80090191F1228D49000011225B5FD12259C45
:10910800FEEDFFE4FCFD9019251228979019251211
:10911800288BC000C001C002C00390191F1228D4B8
:109128009000021225B5FE9000031225B5FDEDFF53
:10913800E4FCFDD003D002D001D000122701901921
:109148002512289790192512288BC000C001C0024B
:10915800C0039019221228D49000011225B5FD12DF
:10916800259CFEEDFFE4FCFDD003D002D001D00029
:1091780012270190192512289790192512288BC0BB
:1091880000C001C002C0039019221228D490000226
:109198001225B5FE9000031225B5FDEDFFE4FCFD98
:1091A800D003D002D001D00012270190192512282F
:1091B8009790192512288B901918E0FFE4FCFDFE02
:1091C80012270190192512289790192512288B909B
:1091D8001919E0FEA3E0FFE4FCFD12270190192510
:1091E80012289790192512288B90191BE0FEA3E0EE
:1091F800FFE4FCFD122701901925122897901925E4
:1092080012288B90191DE0FEA3E0FFE4FCFD122755
:1092180001901925122897901918E0B4111A90197D
:109228002512288B901919E0FEA3E0FFE4FCFD123B
:0E923800270190192512289790192512286FEA
:019246002205
:0CAB9C009019C81228979019CC1228F4C8
:10ABA8009019CFE0FCA3E0FD4C700302AC5AE054CE
:10ABB800019019D3F0ECC313FFED139019CFCFF028
:10ABC800A3EFF09019CF74FFF5F0122C9545F060C3
:10ABD800469019CCE475F0011228DD12259C9019D5
:10ABE800D1F0A3E4F09019CC75F0011228DD1225FC
:10ABF8009CFF9019D1E48FF012265B9019C8122897
:10AC08008B9019D1E0FEA3E0FFE4FCFD1227019030
:10AC180019C812289780AC9019D3E060359019CCE8
:10AC28001228D412259C7F00FE9019D1F0A3EFF0D2
:10AC38009019D1EEF0A3EFF09019C812288B901953
:10AC4800D1E0FEA3E0FFE4FCFD1227019019C81231
:08AC580028979019C812286F1B
:01AC600022D1
:10C551008038901AED12286F7810122849EC4D4E50
:10C561004F602F901AED12286FE4FDFCC004C00546
:10C57100C006C007901AED12286F7810122849D012
:10C5810003D002D001D000122701901AED12289792
:0FC5910080C0901AED12286F122CCAE4FDFC2214
:0C242E00C2AF901935E0FEA3E0FFD2AF72
:01243A00227F
:10CD85007B017A1A79C2AD07AC0612BA707B017ABB
:09CD95001A79C212C35BEF60F4CD
:01CD9E002272
:10770C007B017A0C792D9019951228F4E490199834
:10771C00F0A3F0A3F0A3F0A3F0A3F090CC339375F7
:10772C00F03DA4242DF9740C35F0FA90199E122812
:10773C00F4900DF0E0FF70057EFF7F9D22EF640A50
:10774C006004EFB40B09900DE012286F12AD2312F8
:10775C00CAAB901994EFF030E00302782B90199497
:10776C00E030E10302782B90199FE475F03D12266E
:10777C005B90CC33E49375F03DA4242DF9740C3557
:10778C00F0FA7B01C003C002C00190199E1228D4EC
:10779C00C3D082D083D0E0E99582EA9583400C7BFC
:1077AC00017A0C792D90199E1228F490199E1228AA
:1077BC00D490001B1225B564067031E92438F9E425
:1077CC003AFA12C35BEF602490199E1228D49000F1
:1077DC001112269C45F0700B90001F1225B5C39416
:1077EC000540099019951228F40278D27B017A1978
:1077FC007995122406EF3395E0FE90199CF0A3EFD7
:10780C00F0648E7002EEF470030278D290199CE052
:10781C00F47004A3E0649A600302773D02795890F7
:10782C001994E030E0117B017A197995123C4D9056
:10783C00199AEEF0A3EFF0901994E030E1117B016E
:10784C007A19799512645D90199AEEF0A3EFF09085
:10785C0019951228D4E94A700302773D901994E0E7
:10786C0030E03D90199AE0FEA3E0FFC3EE648094F3
:10787C0080500FEF64897002EEF46006BEFF21BFEA
:10788C00FA1E90001F1225B5701690001C1225B51B
:10789C00FF12B4027B007A0079009019951228F43B
:1078AC009019951228D4E94A700302773DC39019B8
:1078BC009AE064809480500302773D122426EF6492
:1078CC009A70030279589019951228D4E94A7003DA
:1078DC0002773D90001B1225B56406704712820793
:1078EC00901998EEF0A3EFF0648F7002EEF4603410
:1078FC00901998E0FEA3E0FFC3EE648094805006DC
:10790C00BEFF11BFFA0E9019951228D490001F12C9
:10791C0025B570109019951228D490001C1225B51D
:10792C00FF12B4029019951228D4E94A7003027719
:10793C003D90001B1225B56411600302773D12893E
:0F794C002B901998EEF0A3EFF002773DE4FEFFC9
:01795B002209
:10C8560090CC32E493600FA2AFE433901B4FF0C24A
:10C86600AFAE854385409019291228D4EF1225E2F0
:10C8760090192AE475F00112265B90CC32E493609D
:0BC886000A8E85901B4FE024FF92AF4C
:01C891002284
:05B40200901AF1EFF0CB
:10B40700C364809480401990CC33E493FF901AF181
:10B41700E0FD3395E0FCC3ED9F7480F86C98400520
:10B427007EFF7F8522900C4B75F03DED122CD7ECFB
:10B4370075F03DA42583F583E020E0057EFF7F8638
:10B4470022901AF1E0FF3395E0FE7C007D3D122546
:10B45700F4742D2FF9740C3EFA7B01A31228F49093
:10B46700001B1225B5B40609901AF21228D412C28D
:10B47700AC901AF1E0FF3395E0FE900C4B75F03D70
:10B48700EF122CD7EE75F03DA42583F583E4F090F9
:0EB497001AF21228D4E4F5F0122CABE4FEFFFA
:01B4A5002284
:05AE9A00901AF5EFF035
:10AE9F00C364809480401990CC33E493FF901AF5EB
:10AEAF00E0FD3395E0FCC3ED9F7480F86C9840058E
:10AEBF007EFF7F8522900C4B75F03DED122CD7EC69
:10AECF0075F03DA42583F583E020E0057EFF7F86A6
:10AEDF0022900DF0E0700D901AF5E0FF12B4027E93
:10AEEF00FF7F9D22901AF5E0FF3395E0FE7C007DF9
