:10371B008F4B8D4C8B4DE54B5403FF25E0F54B1236
:10372B003B63E54B44A0FF123B1B120052AF4C1204
:10373B003B1B120052AF4D123B1B120052120016D4
:10374B007DFF7F57123BD17DFF7F57123BD17DFF12
:05375B007F57023BD185
:0437A4008F4A8D4B70
:1037A800E4F54CE54A5403FF25E0F54A123B63E58E
:1037B8004A44A0FF123B1B120052AF4B123B1B1294
:1037C8000052123B637FA1123B1B120052123AA215
:0E37D8008F4C1200167DFF7F57123BD1AF4C75
:0137E60022C0
:10341A00426F6F742E2E2E20202000536574757013
:10342A002E2E2E202000475053206661696C2020E2
:10343A0000556E6C6F636B65642020004C6F636B84
:10344A00696E672E2E2E004C6F636B6564202020F8
:10345A002000475053206C6F73742020004669780F
:10346A00656420202020200025386C692000253042
:10347A0033692C253033692000253032692C2531F7
:0D348A00692C2531692C2530336900142D83
:1035F100013500C10FC10E02270000013200022B6C
:103601000000012E00012A004B03510000000000C0
:0D36110000000000000042031F0000C11077
:10382A0090031FE0FEA3C3E0FF9428EE6480948017
:10383A00227B007A00792A22EF94D8EE6480947F62
:10384A0022121999FFAE057401A8060822A3E0F511
:10385A00548E538D528C5122D3E528942CE527940B
:02386A00012239
:0300030002007088
:03007000D20F327A
:03001300023C4369
:033C4300D20E326C
:1037E700754AFF7E007F047D007B007A00792312F3
:1037F7001C1FE4FFE4FE74232FF8E6FD74392EF84E
:10380700E6FCD39D400DEC954A5008E6FD74232F46
:10381700F8A6050EBE10DF74232FF8E6F54A0FBF92
:0238270004D2C9
:01382900227C
:100B2A00E4F54912002690000A121BC800000000D2
:100B3A009000067401F0A37422F07513FFE4F529FE
:100B4A00C20CF531752D01903495E4936535600931
:100B5A007F20123B348F3580EEE52D65317003021C
:100B6A000CF8E531B409004003020CF0900B7DF853
:100B7A00282873020B98020C16020C2A020C4B024C
:100B8A000C72020C90020CAA020CD4020CDC753412
:100B9A00FF754EFF754F3475501A120FC3E4F52FC7
:100BAA00F530F537F538D2A2F527F528E52824C817
:100BBA00FDE4FF1237A474512528F582E43403F5C5
:100BCA0083EFF00528E52870020527C3940BE52773
:100BDA00940040D8122F1BE4FDFF1237A4EF5401F2
:100BEA00F52AAD307F15123B9CAD2F7F16123B9C28
:100BFA00752F47753054852F3785303812383B7D2D
:100C0A000212000612383B7D03020CEDE4F534753E
:100C1A004EFF754F34755025120FC3C2A2020CF055
:100C2A007534FF7BFF7A057936122FE1754EFF7511
:100C3A004F34755030120FDFE4F531752D01020C77
:100C4A00F0753433754EFF754F3475503B120FDF14
:100C5A00C210AD387F15123B9CAD377F16123B9CF4
:100C6A0012383B7D04020CED753401754EFF754F49
:100C7A0034755046120FCD7D02123BF112383B7D7E
:100C8A00031200068010E4F534120FB0D2101238A5
:100C9A003B7D03123BF112383B7D04123BF1804647
:100CAA00753405754EFF754F3475505C7B017A03B8
:100CBA00795C121CB7AD387F15123B9CAD377F1695
:100CCA00123B9C12383B7D048019753415120FB003
:100CDA0080147534FF754EFF754F34755067120FC7
:100CEA00CD7D04120006E4F527F52885312DE52D82
:100CFA00B409004003020DD3900D09F828287302A5
:100D0A000D24020D2A020DCE020D41020D55020DCF
:100D1A007D020D99020DA8020DC6753101020DD68C
:100D2A00D3E5289405E52794005003020DD6122D29
:100D3A0074EF701A020DCE309031D3E5289403E592
:100D4A002794005003020DD6020DC9209006753172
:100D5A0003020DD612382A5012123842400DD3E53A
:100D6A0028941EE52794004063803DE4F527F52882
:100D7A00020DD6209002803890031FE0FEA3D31202
:100D8A0038315006C31238425042753107803D301F
:100D9A00900280141238624033753108802E12385E
:100DAA002A500A1238424005753105801F209005E5
:100DBA0075310680171238624012800330900D7523
:100DCA00310480087531028003E4F5317B007A0032
:100DDA00792EE4FD1200067B007A00792E7D01301F
:100DEA0010051200068003123BF11228A412358066
:100DFA00A29092A530A603433301E53325E0F533EB
:100E0A00B4F0077D027F0B123BE1301405121FB7C5
:100E1A00C214300B05122305C20B052CE52CAE2B90
:100E2A007002052B14FFBE0323BFFF20E4F52BF548
:100E3A002C0536533607AF36E534A807088002C3B7
:100E4A0033D8FC30E704C2A08002D2A0200F0302EC
:100E5A000F9A7F24123B34EF7F00FEC006C0077F43
:100E6A0023123B34EFFDD0E02DFED0E03400900396
:100E7A001FF0A3CEF0AD2A7F14123B9CE52DB405DA
:100E8A00417F21123B348F307F22123B348F2FE572
:100E9A0037C4F854F0C868FEE538C4540F48FFC395
:100EAA00E5389FF538E5379EF537E52FC4F854F055
:100EBA00C868FEE530C4540F482538F538EE353792
:100ECA00F5371238E6122A380528E5287002052770
:100EDA00053278147C037D017B017A03795C7E00FC
:100EEA007F0B121951754EFF754F3475507290026F
:100EFA00D9E0FCA3E0FDA3E0FE1238577A03794655
:100F0A00120FE9754F3475507290000FE0FCA3E0A0
:100F1A00FDA3E0FE1238577A037921120FE9754FC3
:100F2A00347550789002B2E0F551A3E0F552900181
:100F3A0051E0F553A3E0F5547B017A03793B121C87
:100F4A00B7754EFF754F34755083755100852D5214
:100F5A00A290E433755300F554A210E4337555009A
:100F6A00F556900006E0F557A3E0F5587B017A03A1
:100F7A00792C121CB7C2A1D3E51364809480400473
:100F8A001513800AE51370067513FF1226EAC20FBD
:100F9A00200E03020B63120FF21236611237E7D2E8
:060FAA00A1C20E020B6360
:100FB000754EFF754F347550517B017A03795C1281
:100FC0001CB7227B017A03795C121CB7227B017A61
:100FD00003795C121CB7C2107B007A00792A227B4D
:100FE000017A03795C121CB7227B01121CB7754E83
:020FF000FF22DE
:0D00060012384B8002C333D8FC4F0219DFC3
:0E3BF10012384B8002C333D8FCF45F0219DF98
:073C2D00E4F531752D0122C1
:103BC000123B8AD292123B8AC29222123B1B020003
:013BD00052A2
:103BD1005388CF8D8A8F8C438810E58830E5FB228E
:103B8A005388CF758AE8758CFF438810E58830E53D
:023B9A00FB220C
:103B6300D292123B8AC291123B8AC292123B8AD2F0
:043B730091023B8AF6
:0C001600C291D292123B8AD291023B8A26
:103B1B00E4FEEF339291123BC0EF25E0FF123B8A9C
:093B2B000EBE08EED291023B8AA5
:103AA200E4FFFEEF25E0FFD292123B8AA291E433BB
:103AB2004207C292123B8A0EBE08E8D291123B8A9A
:013AC20022E1
:10003E00AD07E4FC123B637FF0123B1B120052AF84
:04004E0005123B1B41
:10005200E4FF7E01D291EE600CA291E433FE0FBF69
:0D006200FFF47F0022123BC3123B8A7F0196
:01006F00226E
:0A3BFF00C292C291123BC0023B8A41
:103B340012003E123B637FF1123BCB123AA2AC0758
:083B4400120052120016AF043A
:013B4C002256
:103B9C00AC07123B637FF0123BCBAF041200470221
:023BAC00001601
:063A0F008B4B8A4C894D2F
:103A150012003EECC3954E5015AB4BAA4CA94D8CEC
:103A2500827583001219B2FF123BCB0C80E50200B0
:013A3500167A
:02361E00C114D5
:083C1D00900379E0FF04F0229E
:03007300023C0943
:0A3C090053C17F43C18053917F3205
:03003B0002322767
:10322700C0E0C0F0C083C082C0D075D000C000C06D
:1032370001C002C003C004C005C006C00720C27A8F
:10324700E5C054F0603324F0605E24D0607224F04F
:10325700605C2430705CC2C5E5C254FEFFBFA41594
:10326700E5C230E007122C918FC28005900378E405
:10327700F0D2C1804BC2C1804785C212900378E06B
:10328700FF04F074682FF582E43403F583E512F048
:10329700900378E0B4010DE512C394644006A3E4FB
:1032A700F01232E4D2C18018D214C2C48012C2C450
:1032B700800E53C17F43C1808000C2C5C2C4C2C152
:1032C700C2C0D007D006D005D004D003D002D001A9
:0D32D700D000D0D0D082D083D0F0D0E03233
:102C9100900367E0249B7003022D5C147003022DE6
:102CA100642466B40D004003022D73902CB3F82800
:102CB1002873022CDA022CEC022CFA022D73022D5D
:102CC10073022D07022D0B022D12022D19022D2840
:102CD100022D35022D42022D4F900379E0FE04F0C2
:102CE10074E52EF582E43402022D6F123C1D74F25C
:102CF1002FF582E43402022D6F123C1D74142FF55E
:102D010082E434038068AF2E80689002D8E0FF80AF
:102D110061900312E0FF805AE4FF3011010F30127D
:102D21005174102FFF804B123C1D74462FF582E425
:102D31003403803A123C1D74212FF582E434038060
:102D41002D123C1D743B2FF582E434038020123C8C
:102D51001D742C2FF582E434038013903496E49390
:102D6100FF800F123C1D74512FF582E43403F5836B
:022D7100E0FF81
:012D7300223D
:103AE300256320253032643A253032643A2530325A
:0E3AF30064001F1C1F1E1F1E1F1F1E1F1E1FF4
:10362000C1934102C90041028B0041029000410355
:10363000130041030000C111C1124102D800410230
:10364000DD0044028C0000000044029100000000F4
:08365000410312004102BA001F
:10144000EE3395E0FDFCE0F8A3E0F9A3E0FAA3E0B9
:101450002FFBEA3EFAE93DF9E83CF8AF52EF33954D
:10146000E0FEFDFCEB2FF55AEA3EF559E93DF55853
:10147000E83CF5577B807A5179017800AF5AAE5934
:10148000AD58FC121B19E47B207A0AF9F8121A8E67
:101490008E4E8F4F7B807A5179017800AF5AAE59CA
:1014A000AD58AC57121B197B807A51790178001224
:1014B0001A8EA804A905AA06C3E55A9FF55AE5594C
:1014C0009AF559E55899F558E55798F557E47B1082
:1014D0007A0EF9F8AF5AAE59AD58AC57121B19E451
:1014E0007B6CFAF9F8121A8EEF254FF54FEE354E58
:1014F000F54EE47B107A0EF9F8AF5AAE59AD58AC00
:1015000057121B19E47B107A0EF9F8121A8EA804F0
:10151000A905AA06C3E55A9FF55AE5599AF559E572
:101520005899F558E55798F557E47B3CFAF9F8AF28
:101530005AAE59AD58AC57121B19E47B02FAF9F8B0
:10154000121A8EEF254FF54FEE354EF54EE47B58CF
:101550007A02F9F8AF5AAE59AD58AC57121B19E4DC
:101560007B02FAF9F8121A8EC3E54F9FF54FE54E4C
:101570009EF54EE47B3CFAF9F8AF5AAE59AD58AC43
:1015800057121B19E47B3CFAF9F8121A8EA804A929
:1015900005AA06C3E55A9FF55AE5599AF559E55843
:1015A00099F558E55798F5577402254FF54FE435EE
:1015B0004EF54EFEAF4F3395E0FDFC7BE07AA5790A
:1015C000017800123760EF2550F550AE4EAF4FEE68
:1015D0003395E0FDFC7BE07AA57901780012376055
:1015E0007BE07AA579017800121A8EC3E54F9FF54A
:1015F0004FE54E9EF54EFEAF4F7C077D08121A5800
:10160000EF2551F5517C077D081219F1C3E54F9F75
:10161000F54FE54E9EF54EFEAF4F7C007D1E121A33
:1016200058EF2552F5527C007D1E1219F1C3E54F8B
:101630009FF54FE54E9EF54E229002B2E0FEA3E0EC
:10164000FF7C007D8F121A03AE04AF05E4FCFD7B26
:10165000807A3A7909F8121A8E8F4D8E4C8D4B8C08
:101660004A9002D9E0FCA3E0FDA3E0FEA3E0227EC5
:10167000007F077D007B01121C1F7E0022AE09AF98
:101680000AFCFD7B147A447902F8121A8EE50F2FBA
:10169000F50FE50E3EF50EE50D3DF50DE50C3CF5BF
:1016A0000C7F207EEE7DD97C08AB0FAA0EA90DA879
:1016B0000C227D007E00785B7C007B017A0279DE63
:1016C0007F070219517F077D007B01021C1F7E00EE
:1016D0007F047D007B01021C1FAF6AEF3395E0FEA3
:1016E00074F42FF582743A3EF583E493229002DE7F
:1016F000E0FEA3E0FF7C007D04121A58ED4C22E0CE
:10170000FF3395E0F5528F53A3E0FF3395E0F55496
:101710008F55A3E0FF3395E022FF121B19AC00ADFB
:1017200001AE02AF03227E007F0B7D007B01021C15
:101730001F0552E50F2420F50FE50E34EEF50EE5FA
:101740000D34D9F50DE50C3408F50C22E50F943471
:10175000F50FE50E9432F50EE50D94DCF50DE50C74
:101760009408F50C1552227B017A0279D822FF12D7
:101770001B19E47B3CFAF9F8121B19C3E5529BF5DF
:1017800052900313E0222401FFE43EFEE43DFDE419
:101790003C22FF121B19C3E5519FF551E47BE97A06
:1017A00003F9F8227562017563027564BB855065A3
:1017B00085516622254DF54DEE354CF54CED354BFA
:1017C000F54BEC354AF54A2278507C007D007B01D0
:1017D0007E007F03021951E4F54EF54FAF51EF3310
:1017E00095E0FE7C007D3C0219F1E50FF0A3E50ECB
:1017F000F0A3E50DF0A3E50CF0900313E0227F07C2
:101800007B01021C1FE0FCA3E0FDA3E0FEA3E0F5CA
:101810000F8E0E8D0D8C0C223395E0FCD3ED9F7452
:1018200080F86C98227F347E327DDC22754EFF7505
:101830004F3A7550E3854A51227E007F037D007B3D
:1018400001021C1F74FFF50FF50EF50DF50C22902B
:1018500002BFE0FF9002FFE0229002C0E0FF900391
:1018600002E0227562017563027564C2229002C6AD
:10187000E0FF900301E0229002C7E0FF900303E045
:011880002245
:103BAE00EF75F00A84AEF0EF75F00A84C454F04E4F
:013BBE00FF07
:013BBF0022E3
:10350E009002E4E004F0E0643C7066F09002E3E0C8
:10351E0004F0E0643C705AF09002E2E004F0E064E3
:10352E0018704EF09002E1E004F01216ED700EA34A
:10353E00E0B40209A3E0641E701F0480159002E03F
:10354E00E0FF1216DCFF9002E1E0FD1218184009B0
:10355E007401F09002E0E004F09002E0E0B40D118E
:10356E007401F09002DFE004F070069002DEE004D9
:02357E00F02239
:102B750078687C007D007B007A00795B7E007F07AA
:102B8500121951E567256EF56EC364809480500A6D
:102B9500156D743C256EF56E8016D3E56E648094D4
:102BA500BB400D056DE56E75F03C12197785F06E2D
:102BB500E566256DF56DC364809480500A156C74C7
:102BC5003C256DF56D8016D3E56D648094BB400D95
:102BD500056CE56D75F03C12197785F06DE5652599
:102BE5006CF56CC364809480500A156B7418256C61
:102BF500F56C8016D3E56C64809497400D056BE504
:102C05006C75F01812197785F06CC3E56B648094C8
:102C150081502C156A1216ED700AE56AB402057525
:102C25006B1D80051216D9F56BC3E56A6480948126
:102C35005033E569156970021568756A0C802612AE
:102C450016ED7010E56AB4020BD3E56B6480949DB4
:102C55004013800C1216D9FFAD6BED121818400504
:102C6500056A756B01D3E56A6480948C400B056930
:102C7500E56970020568756A01A864AC63AD627B9D
:0C2C8500007A0079687E007F0702195178
:100FF200E4F54EF54FF556F555F554F553209003AB
:10100200300D2E7B017A0279DE1230A590000FE0BE
:10101200FCA3E0FDA3E0FEA3E0FF9002D9121BBCFB
:10102200900151E0FFA3E09002B2CFF0A3EFF08075
:101032003F121661121786FC7B807A3A7909780092
:1010420012171A9002D9121BBCE4FFFEFDFC90029B
:10105200D9E0F8A3E0F9A3E0FAA3E0FBC3121BABCB
:10106200700E9002B3E004F070069002B2E004F059
:1010720090028C121664121786FC90028C121BBC12
:10108200900291121664121786FC900291121BBCF8
:1010920012350E900015E0FCA3E0FDA3E0FEEC3358
:1010A2009000155014A3A3A3E02478FFEE34ECFEC5
:1010B200ED34FFFDEC34FF800C1216642488FFEE41
:1010C200341312178BFCE47B107A27F9F81237607D
:1010D2009002C9EFF01216391217B4E54D5403F518
:1010E2004DE4F54CF54BF54AFFFEFDFCAB4DAA4C29
:1010F200A94BA84AC3121BAB700CFB7A00792A7D5C
:1011020001120006800B7B007A00792A7D01123BD6
:10111200F11216391217B4AF4DAE4CAD4BFC12178B
:101122009C12171A8F4D8E4C8D4B8C4A8E098F0A4A
:101132007A0279B41217C83011020550900313E0F5
:1011420054036402703A90028BF07B9C7AEAF9F8BD
:10115200A312166412179290028C12166412176E62
:1011620030E2241217D790028C121440C364809488
:10117200805005E4F54EF54F90028BE54FF0800765
:10118200E4F55290028BF09002AA1218059002AA7E
:10119200E0FCEC335003121731900313E054036464
:1011A20002702812167DD3121BAB401012182512A2
:1011B20016A7121BAB5005121844800F12182512E5
:1011C20016A7C3121BAB400312174C90028BE0040C
:1011D200F0E0C3941E500B1216B21217A485526788
:1011E2008012E490028BF0FDFE1216B61217A4E5EF
:1011F2005204F567122B7590029C1217EA5403648D
:101202000270559002DDE0540F6401701A9002C121
:10121200E0704512184F6F703F1218596F7039FD08
:101222001214307D01802E9002DDE0540F640270B2
:10123200279002C1E0702112184FB5071B121859EE
:10124200B5071590028C121BC8000000007B017AC2
:10125200037912E4FD1200069002BFE0FF123BAEDA
:10126200900283EFF09002C0E0FF123BAE90028446
:10127200EFF09002C1E0FF123BAE900285EFF090DA
:10128200028BE0FF123BAE900286EFF07A0279B752
:101292001217C83012020550900313E05430642034
:1012A200703A900290F07B9C7AEAF9F8A3121664E5
:1012B20012179290029112166412176E30E62412DF
:1012C20017D7900291121440C3648094805005E4B1
:1012D200F54EF54F900290E54FF08007E4F55290FD
:1012E2000290F09002AE1218059002AEE0FCEC33D0
:1012F2005003121731900313E05430642070281207
:10130200167DD3121BAB40101218251216A7121B02
:10131200AB5005121844800F1218251216A7C312DB
:101322001BAB400312174C900290E004F0E0C39410
:101332001E500E1216B21218631217AD8552678034
:1013420021E4900290F0785B7C00FD7B017A0279C7
:10135200DEFE7F071219511218631217ADE552040F
:10136200F567122B759002A41217EA5430642070AC
:10137200569002DDE054F06410701B9002C8E070D9
:101382004612186D6F70401218776F703A7D041212
:1013920014307D05802E9002DDE054F06420702729
:1013A2009002C8E0702112186DB5071B121877B5AC
:1013B2000715900291121BC8000000007B017A03FE
:1013C20079127D041200069002C6E0FF123BAE9035
:1013D2000287EFF09002C7E0FF123BAE900288EF67
:1013E200F09002C8E0FF123BAE900289EFF090024B
:1013F20090E0FF123BAE90028AEFF090014FE0B412
:10140200072B301328E47B587A02F9F8121661127E
:10141200171990028C121BBCE47B587A02F9F8125D
:0D1422001661121719900291121BBCC21323
:10142F00227B017A0379121200067B017A0379126B
:01143F00228A
:102A38009002C0E06003022AD0A3E06003022AD01B
:102A4800900306E0FF9002BDE06F7035900307E049
:102A5800FF9002BEE06F7029900308E0FF9002BF6C
:102A6800E06F701D900300E0540324FE600A0470B8
:102A780057121767E4FD803FD211121767E4FD80F3
:102A8800449002CCE0FF9002BDE06F703B9002CD15
:102A9800E0FF9002BEE06F702F9002CEE0FF900240
:102AA800BFE06F7023900300E0540324FE600F041E
:102AB80070161217677D01122B6B7D028007C211F9
:102AC8001217677D011200069002C7E06003022B0F
:102AD8006AA3E06003022B6A90030DE0FF9002C432
:102AE800E06F703690030EE0FF9002C5E06F702A29
:102AF80090030FE0FF9002C6E06F701E900300E0A5
:102B0800543024E0600B241070581217677D04803D
:102B180040D2121217677D0480459002D3E0FF90DF
:102B280002C4E06F703C9002D4E0FF9002C5E06FF1
:102B380070309002D5E0FF9002C6E06F70249003D9
:102B480000E0543024E06010241070161217677DDE
:102B580005122B6B7D068007C2121217677D0512BE
:0D2B68000006221200067B017A0279D822B5
:103580009002BAE0FD30E01A9002D8E0FE30E0048C
:10359000D2118006EE30E102C211EE54F89002D84A
:1035A000800E9002BAE0FD30E10E9002D8E054F8AF
:1035B000F0ED54FC9002BAF09002BAE0FD30E41A4B
:1035C0009002D8E0FE30E404D2128006EE30E5022C
:1035D000C212EE548F9002D8800E9002BAE0FD30F5
:1035E000E50E9002D8E0548FF0ED54CF9002BAF07F
:0135F00022B8
:1038E600309005754A208003754A2A12182C9002DA
:1038F600BF1216FFF5568F577B017A0279E5121C27
:10390600B712182C9002C61216FFF5568F577B0178
:073916007A0279F2021CB7EE
:103661009002C9E0900295F0A3E50AF0A3E509F004
:10367100900283E0900298F0900284E0900299F029
:10368100900285E090029AF0900286E090029BF011
:10369100900287E09002A0F0900288E09002A1F0F1
:1036A100900289E09002A2F090028AE09002A3F0D9
:1036B100900313E09002A8F0A3E52AF07B017A02BF
:0A36C1007995754E15E4FF023A0FEB
:102F1B00E49002C9F090028C121BC80000000090D4
:102F2B000291121BC800000000E49002D8F090033D
:102F3B0012F09002BAF0900313F0FEFD7A0279DEE4
:102F4B001217FE7A0279BB12166F7A0279C2121629
:102F5B00C57A0279831216CE7A0279871216CE7A47
:102F6B000279E51217267A0279F2121726C211C2DC
:102F7B0012E490028BF0900290F09002D9121BC8D1
:102F8B0000000000E49002B2F0A3F0FE7F07FD7B8F
:102F9B00017A037904121C1F7A0279CA12166F7D0B
:102FAB00007A03790B1217FE7E007A0279D1121682
:102FBB00C57A0279B41218397A0279B71218399096
:102FCB0002AA121BC8000000009002AE121BC80020
:062FDB0000000002252F9A
:10391D00E47B587A02F9F89002D9E0FCA3E0FDA30C
:10392D00E0FEA3E0FF121B19AC00AD01AE02AF0328
:10393D0022E054F0FFF0900369E022900369E07BF0
:06394D00017A0279BA22A2
:101FB700E4F54A900368E0FFC394074009EFD39420
:101FC7003E500375131EEF121BF9205600207E07A3
:101FD70020870820900920990A20A20B20E30C20D3
:101FE700EC0D20F50E20FE0F2107102110112119ED
:101FF70012212313212C14213515213F16214817AF
:1020070021511B215A1C21631D216C1E21751F2183
:10201700B92021CB2121D42221DD2321E62421EF60
:1020270025220126220B27221428221D2922272AAE
:1020370022302B223932224633225434225C352275
:10204700653622843722A43822C43E000022FA9043
:102057000369E07B007A00792AB40507E4FD1200E2
:10206700068005E4FD123BF1AD2A7F14123B9CABC1
:102077002AE4FDFF02371B900369E09002ADF022CE
:10208700900369E09002ACF022900369E09002AB04
:10209700F022900369E09002AAF022900313E05423
:1020A700F0F0900369E014601314601814601D14B5
:1020B7006022240460030222FA022193900313E0B2
:1020C7004401F022900313E04406F022900313E04A
:1020D7004402F022900313E04403F0229002DD1241
:1020E700393E0221C5900369E09002FFF022900378
:1020F70069E0900302F022900369E09002B4F022B5
:10210700900369E09002B5F02290030012393E0275
:1021170021FB900369E004900306F022900369E035
:10212700900307F022900369E0900308F0229003E0
:1021370069E0049002CCF022900369E09002CDF0B0
:1021470022900369E09002CEF022900369E09002AA
:10215700B1F022900369E09002B0F022900369E0A9
:102167009002AFF022900369E09002AEF022900354
:1021770013E0540FF0900369E014601614601B1409
:102187006020146025240460030222FA900313E000
:10219700F022900313E04410F022900313E0446010
:1021A700F022900313E04420F022900313E0443020
:1021B700F0229002DDE0540F123941C454F04F90E1
:1021C70002DDF022900369E0900301F02290036999
:1021D700E0900303F022900369E09002B7F02290A9
:1021E7000369E09002B8F022900300E0540F12391F
:1021F70041C454F04F900300F022900369E004902B
:10220700030DF022900369E090030EF0229003691A
:10221700E090030FF022900369E0049002D3F022CC
:10222700900369E09002D4F022900369E09002D510
:10223700F0221239486004E4FD800F7D01800B1203
:10224700394860047D0480027D0502000612391DAD
:1022570090028C800612391D900291021BBC9003DC
:1022670069E0B4010912391D90028C121BBC7B0175
:102277007A037912E4FD1222FB7D01801D90036928
:10228700E0B4010912391D900291121BBC7B017A3F
:102297000379127D041222FB7D05023BF19003694D
:1022A700E0FF30E004D2118006EF30E102C211EF07
:1022B70030E403D21222EF30E539C2122278517C82
:1022C700037D017B017A0379697E007F0B12195127
:1022D700E4F54AE54A24C8FD7451254AF582E434F9
:1022E70003F583E0FBE4FF12371B054AE54AC39475
:0322F7000B40E0B9
:0B22FA0022123BF17B017A03791222D3
:1032E400900368E0243770030233801470030233C0
:1032F400872466B40D00400302338D90330D75F0BE
:1033040003A4C58325F0C5837302333402333A0220
:10331400334102338D02338D02334802334F02337B
:103324005602335D02336402336B02337202337923
:10333400E4900367F0229003677401F0229003671E
:103344007402F0229003677405F0229003677406F8
:10335400F0229003677407F0229003677408F02248
:103364009003677409F022900367740AF0229003B3
:1033740067740BF022900367740CF0229003677457
:0A33840065F0229003677466F022E2
:1026EA009002AD7D401228749002AC7D411228748C
:1026FA009002AB7D421228849002AA7D431228845C
:10270A007D4412281B7D451228269002FF7D461221
:10271A00283C9003027D4712283C9002B47D48125F
:10272A0028449002B57D491228447D4A12283190E6
:10273A0003067D4B12284C9003077D4C12284C90BF
:10274A0003087D4D1228549002CC7D4E12285490D5
:10275A0002CD7D4F12285C9002CE7D5012285C90EB
:10276A0002B17D541228949002B07D55122894909B
:10277A0002AFE0FB7D56E4FF12371B9002AEE0FB8E
:10278A007D57E4FF12371B7D5812281B7D591228EA
:10279A00269003017D5A1228649003037D5B122858
:1027AA00649002B77D5C12286C9002B87D5D122895
:1027BA006C7D5E12283190030D7D5F12287C900398
:1027CA000E7D6012287C90030F7D6112288C900286
:1027DA00D37D6212288C9002D47D6312289C9002C9
:1027EA00D57D6412289C12280E12280EA211E433F9
:1027FA00FB7D66E4FF12371BA212E433FB7D67E41C
:10280A00FF02371B9002BAE0FB7D65E4FF12371B1B
:10281A0022900313E0FBE4FF12371B229002DDE053
:10282A00FBE4FF12371B22900300E0FBE4FF1237A0
:10283A001B22E0FBE4FF12371B22E0FBE4FF123706
:10284A001B22E0FBE4FF12371B22E0FBE4FF1237F6
:10285A001B22E0FBE4FF12371B22E0FBE4FF1237E6
:10286A001B22E0FBE4FF12371B22E0FBE4FF1237D6
:10287A001B22E0FBE4FF12371B22E0FBE4FF1237C6
:10288A001B22E0FBE4FF12371B22E0FBE4FF1237B6
:0A289A001B22E0FBE4FF12371B22B3
:10252F007D40E4FF1237A49002ADEFF07D41E4FF50
:10253F001237A49002ACEFF07D42E4FF1237A49063
:10254F0002ABEFF07D43E4FF1237A49002AAEFF045
:10255F007D441226C97D451226D47D46E4FF1237ED
:10256F00A49002FFEFF07D47E4FF1237A49003021F
:10257F00EFF07D48E4FF1237A49002B4EFF07D49ED
:10258F00E4FF1237A49002B5EFF07D4A1226DF7DEB
:10259F004BE4FF1237A4900306EFF07D4CE4FF12DB
:1025AF0037A4900307EFF07D4DE4FF1237A490039B
:1025BF0008EFF07D4EE4FF1237A49002CCEFF07DD0
:1025CF004FE4FF1237A49002CDEFF07D50E4FF12DD
:1025DF0037A49002CEEFF07D54E4FF1237A490029F
:1025EF00B1EFF07D55E4FF1237A49002B0EFF07D0C
:1025FF0056E4FF1237A49002AFEFF07D57E4FF12BD
:10260F0037A49002AEEFF07D581226C97D591226DD
:10261F00D47D5AE4FF1237A4900301EFF07D5BE401
:10262F00FF1237A4900303EFF07D5CE4FF1237A491
:10263F009002B7EFF07D5DE4FF1237A49002B8EF80
:10264F00F07D5E1226DF7D5FE4FF1237A490030D4D
:10265F00EFF07D60E4FF1237A490030EEFF07D6181
:10266F00E4FF1237A490030FEFF07D62E4FF1237FF
:10267F00A49002D3EFF07D63E4FF1237A49002D44D
:10268F00EFF07D64E4FF1237A49002D51226BC123E
:10269F0026BCEFF07D66E4FF1237A4EF24FF921102
:1026AF007D67E4FF1237A4EF24FF921222EFF07D33
:1026BF0065E4FF1237A49002BA22E4FF1237A49008
:1026CF000313EFF022E4FF1237A49002DDEFF022A4
:0B26DF00E4FF1237A4900300EFF0228C
:0636580001100001110049
:083C25008F993099FDC299222C
:030023000239B6E9
:1039B600C0E0C083C082C0D030981A747A2510F552
:1039C60082E43403F583E599F0C2980510E510B456
:0E39D6000803751000D0D0D082D083D0E0322C
:10398500E4FFE510B5110A0FBFFFF7E41219DFFFD9
:1039950022C2AC747A2511F582E43403F583E01272
:1039A50019DF0511E511B40803E4F511D2AC7F0167
:0139B50022EF
:10007600061D1C000100000000000000000000003A
:100086000000000010270000201C000090D0030094
:10009600000000000000000000000000000000005A
:1000A600000000000000000000000000000000004A
:1000B600000000000000000000000000000000003A
:1000C600000000000000000000000000000000002A
:1000D600000000000000000000000000000000001A
:1000E600000000000000000000000000000000000A
:1000F60000000000000000000000000000000000FA
:1001060000000000000000000000000000000000E9
:1001160000000000000000000000000000000000D9
:1001260000000000000000000000000000000000C9
:1001360000000000000000000000000000000000B9
:1001460000000000000000000000000000000000A9
:100156000000000000000000000000000000000099
:100166000000000000000000000000000000000089
:100176000000000000000000000000000000000079
:100186000000000000000000000000000000000069
:100196000000000000000000000000000000000059
:1001A6000600140001000000D008000080250000B1
:1001B6000100010000000000000000000000000037
:1001C6000000000000000000000000000000000029
:1001D6000000000000000000000000000000000019
:1001E6000000000000000000000000000000000009
:1001F60000000000000000000000000000000000F9
:1002060000000000000000000000000000000000E8
:1002160000000000000000000000000000000000D8
:1002260000000000000000000000000000000000C8
:1002360000000000000000000000000000000000B8
:1002460000000000000000000000000000000000A8
:100256000000000000000000000000000000000098
:100266000000000000000000000000000000000088
:100276000000000000000000000000000000000078
:100286000000000000000000000000000000000068
:100296000000000000000000000000000000000058
:1002A6000000000000000000000000000000000048
:1002B6000000000000000000000000000000000038
:1002C6000000000000000000000000000000000028
:1002D60006090D0000000000FFFF000000000000FE
:1002E6000300000000000000000000000000000005
:1002F60000000000000000000000000000000000F8
:1003060000000000000000000000000000000000E7
:1003160000000000000000000000000000000000D7
:1003260000000000000000000000000000000000C7
:1003360000000000000000000000000000000000B7
:1003460000000000000000000000000000000000A7
:100356000000000000000000000000000000000097
:100366000000000000000000000000000000000087
:100376000000000000000000000000000000000077
:100386000000000000000000000000000000000067
:100396000000000000000000000000000000000057
:1003A6000000000000000000000000000000000047
:1003B6000000000000000000000000000000000037
:1003C6000000000000000000000000000000000027
:1003D6000000000000000000000000000000000017
:1003E6000000000000000000000000000000000007
:1003F60000000000000000000000000000000000F7
:1004060006090D00FFFF000000000000FFFF0000CE
:10041600031B9A000000000000000000000000001E
:1004260000000000000000000000000000000000C6
:1004360000000000000000000000000000000000B6
:1004460000000000000000000000000000000000A6
:100456000000000000000000000000000000000096
:100466000000000000000000000000000000000086
:100476000000000000000000000000000000000076
:100486000000000000000000000000000000000066
:100496000000000000000000000000000000000056
:1004A6000000000000000000000000000000000046
:1004B6000000000000000000000000000000000036
:1004C6000000000000000000000000000000000026
:1004D6000000000000000000000000000000000016
:1004E6000000000000000000000000000000000006
:1004F60000000000000000000000000000000000F6
:1005060000000000000000000000000000000000E5
:1005160000000000000000000000000000000000D5
:1005260000000000000000000000000000000000C5
:1005360006040400000000000000000000000000A7
:1005460000000000000000000000000000000000A5
:100556000000000000000000000000000000000095
:100566000000000000000000000000000000000085
:100576000000000000000000000000000000000075
:100586000000000000000000000000000000000065
:100596000000000000000000000000000000000055
:1005A6000000000000000000000000000000000045
:1005B6000000000000000000000000000000000035
:1005C6000000000000000000000000000000000025
:1005D6000000000000000000000000000000000015
:1005E6000000000000000000000000000000000005
:1005F60000000000000000000000000000000000F5
:1006060000000000000000000000000000000000E4
:1006160000000000000000000000000000000000D4
:1006260000000000000000000000000000000000C4
:1006360000000000000000000000000000000000B4
:1006460000000000000000000000000000000000A4
:100656000000000000000000000000000000000094
:10066600061A2800010000000103100250C3000012
:100676000F0A053C00010000FA00FA0064002C0194
:100686000000000000000000000000000000000064
:100696000000000000000000000000000000000054
:1006A6000000000000000000000000000000000044
:1006B6000000000000000000000000000000000034
:1006C6000000000000000000000000000000000024
:1006D6000000000000000000000000000000000014
:1006E6000000000000000000000000000000000004
:1006F60000000000000000000000000000000000F4
:1007060000000000000000000000000000000000E3
:1007160000000000000000000000000000000000D3
:1007260000000000000000000000000000000000C3
:1007360000000000000000000000000000000000B3
:1007460000000000000000000000000000000000A3
:100756000000000000000000000000000000000093
:100766000000000000000000000000000000000083
:100776000000000000000000000000000000000073
:100786000000000000000000000000000000000063
:1007960006242400FFFF02030000000010270000CB
:1007A6000500FA00FA0064002C01003C00001F005E
:1007B6000000000000000000000000000000000033
:1007C6000000000000000000000000000000000023
:1007D6000000000000000000000000000000000013
:1007E6000000000000000000000000000000000003
:1007F60000000000000000000000000000000000F3
:1008060000000000000000000000000000000000E2
:1008160000000000000000000000000000000000D2
:1008260000000000000000000000000000000000C2
:1008360000000000000000000000000000000000B2
:1008460000000000000000000000000000000000A2
:100856000000000000000000000000000000000092
:100866000000000000000000000000000000000082
:100876000000000000000000000000000000000072
:100886000000000000000000000000000000000062
:100896000000000000000000000000000000000052
:1008A6000000000000000000000000000000000042
:1008B6000000000000000000000000000000000032
:1008C6000607140040420F00A08601000101000047
:1008D6003403000090FDFFFF000000000000000050
:1008E6000000000000000000000000000000000002
:1008F60000000000000000000000000000000000F2
:1009060000000000000000000000000000000000E1
:1009160000000000000000000000000000000000D1
:1009260000000000000000000000000000000000C1
:1009360000000000000000000000000000000000B1
:1009460000000000000000000000000000000000A1
:100956000000000000000000000000000000000091
:100966000000000000000000000000000000000081
:100976000000000000000000000000000000000071
:100986000000000000000000000000000000000061
:100996000000000000000000000000000000000051
:1009A6000000000000000000000000000000000041
:1009B6000000000000000000000000000000000031
:1009C6000000000000000000000000000000000021
:1009D6000000000000000000000000000000000011
:1009E6000000000000000000000000000000000001
:1009F6000631200000000000000000000100000099
:100A060001000000A08601000000000000001F0099
:100A16000000FB00000000000000000000000000D5
:100A260000000000000000000000000000000000C0
:100A360000000000000000000000000000000000B0
:100A460000000000000000000000000000000000A0
:100A56000000000000000000000000000000000090
:100A66000000000000000000000000000000000080
:100A76000000000000000000000000000000000070
:100A86000000000000000000000000000000000060
:100A96000000000000000000000000000000000050
:100AA6000000000000000000000000000000000040
:100AB6000000000000000000000000000000000030
:100AC6000000000000000000000000000000000020
:100AD6000000000000000000000000000000000010
:100AE6000000000000000000000000000000000000
:100AF60000000000000000000000000000000000F0
:100B060000000000000000000000000000000000DF
:100B160000000000000000000000000000000000CF
:040B2600B562244749
:02365E00C10D9C
:10316700AB4FAA50A9511219B2FF900002E02FF0FD
:10317700E0FFA3E02FF022FFEA3EFEE93DFDE83C39
:10318700FC900015121BBC900015E0F8A3E0F9A312
:10319700E0FAA3E0FB22F0A3F0900004F0A3F022F2
:1031A70090000AE0FCA3E0FDA3E0FEA3E02290006C
:1031B70013E0FEA3E02420F582740022900005E0CE
:1031C70004F022900004E004F022900014E004F0E0
:1031D70022900013E004F022FEE07C002400FFECC4
:1031E7003E22900000E0FEA3E022EFF0EDA3F0E422
:1031F700A3F0A322900002F0A3F022AB4FE55124E5
:1032070004F9E43550FA22E0FCA3E0FDA3E0FEA3B5
:10321700E022900013F0A3F022E0F5823395E0223C
:1028A400D3900014E0942C900013E094014006E4CB
:1028B400F51412319D900013E0FEA3E02420F97476
:1028C400003EFA7B01123985EF7003022A37E514C2
:1028D4007077900005E0FF900B2693FE900013E0C4
:1028E400FC1231BA3CF583E0FDB5060A1231C3701F
:1028F400221231CA801DEF900B2893B5050F300CBE
:102904000C1231C370031231CAD2098006E41231A9
:10291400A0C2091231D170031231D8900004E070C2
:1029240004A3E064026003022A373009090529F58B
:1029340014C20C023C2DE41231A012321975140198
:102944001231FB9000000229D5E5146401703D1298
:1029540031C370031231CA1231B53EF583E012312E
:1029640070A3E07004A3E064047018900023E09066
:1029740000221231DF900000F0A3EFF0751402E49E
:102984001231A01231D170031231D822E51464023D
:1029940070431231C370031231CA1231B53EF5834C
:1029A400E01231701231E9FF900004E0FCA3E0FD75
:1029B400B50707ECB506037514031231D170031281
:1029C40031D8ED642C7003EC64017067F514900049
:1029D40013F0A3F022E514640370581231C370039A
:1029E4001231CA1231E9FF2402FDE43EFC900004D6
:1029F400E06C7003A3E06D70321231A0123219F54D
:102A04001474242FF58274003EF583E0FF900002D5
:102A1400E0B507171231E92425F58274003EF583E9
:102A2400E0FF900003E0B50702D20B1231D170032E
:032A34001231D884
:012A3700227C
:102305007B017A017953123A5D900153E0146052D2
:1023150024FC700302248124F87003022490240312
:10232500600302252B900154E024F7600302252E5B
:10233500900168E09001671231DFFE900008F0A37C
:10234500EFF0C390014DE09F90014CE09E400302E9
:10235500252E900008E0FFA3E090014CCFF0A3EFFD
:10236500F022900154E024DF700302241924F17057
:102375000302245E2410600302252E900161E09083
:102385000150F0900157E0900012F0900158E09054
:102395000011F0900159E0900010F090015AE09082
:1023A500000FF012320E24F4FFEE3401FEE43DFD81
:1023B500E43CFCE47BE87A03F9F8121B1990000F62
:1023C500121BBC90000F12320EFFC007900150E0A7
:1023D500FB3395E0FAF9F8D007C3EF9BFFEE9AFEC1
:1023E500ED99FDEC98FC90000F121BBC90015FE08D
:1023F500FF900151E4F0A3EFF0900160E0FE900141
:1024050052E02400F0900151E03EF0900162E0902E
:10241500014EF022900164E0FE9001631231E090DC
:102425000019F0A3EFF0900165E090001BF090011A
:1024350066E090001CF0900167E090001DF09001AF
:1024450068E090001EF0900169E090001FF0900197
:102455006AE090014FF0D20D2275520CE4FF7457DB
:102465002552F582E43401F583E0FE74392FF8A690
:1024750006740C2552F5520FBF10E322900154E06B
:102485006006147003D20A22C20A22900154E02485
:10249500FC70030225222403600302252E90015FB0
:1024A500E0FFE4FCFDFE123188900160E07F00FE54
:1024B5003395E0FDFCEF2B12317EC000C001C00258
:1024C500C003900161E07E007810C333CE33CED8CF
:1024D500F9FFEE3395E0FDFCD003D002D001D0002A
:1024E500EB2F12317EC000C001C002C00390016213
:1024F500E07E007818C333CE33CED8F9FFEE33959E
:10250500E0FDFCD003D002D001D000EB2FFFEA3E66
:10251500FEE93DFDE83CFC900015021BBC90016FF7
:09252500E090000EF022E4F552F2
:01252E00228A
:103BE1009001531231F1F07B017A017953022FE1F7
:102FE1008B4F8A508951E41231FB9000021219B2C1
:102FF100FF900000E4F0A3EFF07FB5123C257F6263
:10300100123C25AB4FAA50A95112199912309A12AC
:1030110019991231FB9000011219B2FF123C25904F
:1030210000011231679000021219B2FF123C259083
:1030310000021231679000031219B212309A900007
:103041000312316DE41232191231E9FF900013E0DD
:10305100FCA3E0FDC39FEC9E502F123202E92DF933
:10306100EA3CFA121999FF123C2512320290001320
:10307100E0FEA3E029F9EA3EFA1219991231701221
:1030810031D170031231D880BF900002E0FF123CB1
:1030910025900003E0FF023C25FF123C25AB4FAA1F
:0430A10050A95122BF
:0639E4008B4A8A4B894C5E
:1039EA00E4F54DC20AAB4AAA4BA94C122FE1123890
:1039FA00AA8F4EE54E64016009054DE54DC3940555
:043A0A0040E1AF4E9A
:013A0E002295
:103A5D008B538A548955900001E02404FF90000097
:103A6D00E03400FEA801AC02AD037B017A007920A1
:033A7D00021951DA
:103A80009001537406F0A37401F074061231F4121D
:103A900031F1EBF0E4A3F0A3F07B017A017953025A
:023AA0002FE114
:0630A5008B5B8A5C895D73
:1030AB00900153121BC800000000900019E0FEA312
:1030BB00E0FFA3E0FDA3E0FB3395E0FAA31232207F
:1030CB00F56385826490001E123220F56585826659
:1030DB0090001F123220F567858268E4F569F56A66
:1030EB001236CB900153121BBC1231A7FF90015328
:1030FB00123191C3121BAB401E1231A7240AFFE4FD
:10310B003EFEE43DFDE43CFC900153E0F8A3A3A399
:10311B00E0C3121BAB400FC3900007E0942C900050
:10312B0006E094014027E4900006F0A3F0900153D1
:10313B001231AAFF90000A121BBCA85DAC5CAD5B00
:10314B007B017A0079197E007F07021951900007E5
:0B315B00E004F07006900006E004F0B5
:013166002246
:102D7400900015121BC800000000E490000EF0A3A0
:102D8400121BC800000000E4900151F0A3F0900170
:102D94004EF0900150F090014FF01231FB9000136F
:102DA40012319D900000F0A3F0C20B7E017F2CFD38
:102DB4007B017A007920121C1F90000A121BC800A4
:102DC4000000007BFF7A0179A61239E47BFF7A00C8
:102DD40079761239E47BFF7A0879C61239E47BFFED
:102DE4007A0779961239E4C20A7B017D01122E4AD0
:102DF4007002FF22C20A7D20122E3E7002FF22C200
:102E04000A7D21122E3E7002FF22C20A7B0B7D3006
:102E14007F01123A801238AAEF7002FF22C20A7BA5
:102E24000A7D04122E4A7002FF227BFF7A0279D6B1
:102E34001239E4C20AD20C7F01227B017F01123ACB
:102E4400801238AAEF227F0D123A801238AAEF229C
:1038AA00E4F54FF550F551200A2CE551C394055023
:1038BA0025200B19E55064E87004E54F6403600D98
:1038CA000550E5507002054F1228A480E412230522
:0B38DA00C20B055180D1A20AE433FFAD
:0138E50022C0
:073C340053D9BFE4F5D922CA
:103B7700758845758920758D957591047592AF7512
:033B8700933C224A
:043C3B007598102246
:043C3F0075C18922A0
:103B4D0075F1F375A45075A5F975A6BF75D40C75EF
:063B5D00E10575E24022C3
:103AC300E4FFFE75B9800FBF00010EEF64144E7062
:0F3AD300F543B9C0E5B930E5FB75A90275B283BB
:013AE20022C1
:0A3C130075E60175E47F75A895229F
:10002600123C34123B77123C3B123C3F123B4D12C2
:050036003AC3023C1377
:103B01001F1C1F1E1F1E1F1F1E1F1E1F1F1D1F1ECE
:0A3B11001F1E1F1F1E1F1E1F955CC4
:10386C003CFC900157121BBC900157E0FCA3E0FDFF
:10387C00A3E0FEA3E022FDFCE0F8A3E0F9A3E0FA4C
:10388C00A3E022FAAE6BAF6C021A58EE3395E0FD52
:0E389C00FC021BBC2FFFEA3EFEE93DFDE822C8
:10395300AB07AA067C007D04121A58ED4C7020FCBC
:103963007D64AF03AE02121A58ED4C700FAE02AF76
:10397300037C017D90121A58ED4C70037F01227F66
:02398300002220
:0A2E54008E6B8F6C8A6D8B6EA905E2
:102E5E00E490015BF0E914FF90015BE0FEC3EF64C8
:102E6E0080F8EE648098503FAF6CAE6B123953BF52
:102E7E00010FE0FF3395E0FE740D2FF582743B8059
:102E8E001090015BE0FF3395E0FE74012FF5827424
:102E9E003B3EF583E493256EF56EE4356DF56D904E
:102EAE00015BE004F080AEE56C156C7002156BAE44
:102EBE006BAF6C7C007D04121A58AA06AB07AE6B82
:102ECE00AF6C7C017D6D1219F1EF2BFBEE3A1C7D80
:102EDE006412388FC3EB9FFBEA9E7C017D90123803
:102EEE008FEF2BFFEE3ACF256ECF356DFE903B194F
:102EFE00E493FC740193FDC3EF9DFFEE9C90015C87
:0C2F0E00F0A3EFF090015CE0FEA3E0FFF8
:012F1A002294
:043497008C6B8D6C41
:10349B00EF3395E0FEFDFC90015F121BBCAE6BAFF2
:1034AB006C900163123897AE02AF0390016712382C
:1034BB0097E47F3CFE900163123882FB121A8EC098
:1034CB0004C005C006C007E47F107E0E90015F129A
:1034DB003882FB121A8ED003D002D001D000EF2B12
:1034EB00FFEE3AFEED39FDEC38FC900167123884A3
:1034FB001238A03CFC90015B121BBC90015B123894
:02350B0077FF48
:01350D00229B
:1036CB00122E54E4FCFD7B807A517901F8121A8E8C
:1036DB00900157121BBC900157123884FBC000C0DD
:1036EB0001C002C003AF64AB68AA67AD66AC6512DC
:1036FB003497D003D002D001D000EB1238A012388F
:0F370B006C2401FFE43EFEE43DFDE412386CFF48
:01371A00228C
:0300000002338E3A
:0C338E00787FE4F6D8FD75816E0233D51F
:10188100E709F608DFFA8046E709F208DFFA803E49
:1018910088828C83E709F0A3DFFA8032E309F60836
:1018A100DFFA8078E309F208DFFA807088828C839E
:1018B100E309F0A3DFFA806489828A83E0A3F60852
:1018C100DFFA805889828A83E0A3F208DFFA804C2C
:1018D10080D280FA80C680D4806980F28033801003
:1018E10080A680EA809A80A880DA80E280CA80336C
:1018F10089828A83ECFAE493A3C8C582C8CCC583E4
:10190100CCF0A3C8C582C8CCC583CCDFE9DEE780B3
:101911000D89828A83E493A3F608DFF9ECFAA9F032
:10192100EDFB2289828A83ECFAE0A3C8C582C8CC88
:10193100C583CCF0A3C8C582C8CCC583CCDFEADEA1
:10194100E880DB89828A83E493A3F208DFF980CC03
:1019510088F0EF60010E4E60C388F0ED2402B404FC
:101961000050B9F582EB2402B4040050AF232345A3
:0619710082239018D173DF
:10197700C2D530F707B2D563F0FF05F030E70CB2F8
:10198700D5F4048463F0FF05F080018430D502F4B8
:02199700042228
:10199900BB010689828A83E0225002E722BBFE024C
:0919A900E32289828A83E493227F
:1019B200BB010CE58229F582E5833AF583E02250EA
:1019C20006E92582F8E622BBFE06E92582F8E22234
:0D19D200E58229F582E5833AF583E493224E
:1019DF00BB010689828A83F0225002F722BBFE01E7
:0219EF00F322E1
:1019F100EF8DF0A4A8F0CF8CF0A428CE8DF0A42E0A
:021A0100FE22C3
:101A0300BC000BBE0029EF8DF084FFADF022E4CCC7
:101A1300F875F008EF2FFFEE33FEEC33FCEE9DEC90
:101A2300984005FCEE9DFE0FD5F0E9E4CEFD22EDD6
:101A3300F8F5F0EE8420D21CFEADF075F008EF2F20
:101A4300FFED33FD4007985006D5F0F222C398FD11
:051A53000FD5F0EA22AE
:101A5800C2D5EC30E709B2D5E4C39DFDE49CFCEEA9
:101A680030E715B2D5E4C39FFFE49EFE121A03C304
:101A7800E49DFDE49CFC8003121A0330D507C3E4FF
:061A88009FFFE49EFE2218
:101A8E00E88FF0A4CC8BF0A42CFCE98EF0A42CFCF7
:101A9E008AF0EDA42CFCEA8EF0A4CDA8F08BF0A475
:101AAE002DCC3825F0FDE98FF0A42CCD35F0FCEBD4
:101ABE008EF0A4FEA9F0EB8FF0A4CFC5F02ECD3999
:0F1ACE00FEE43CFCEAA42DCE35F0FDE43CFC2206
:101ADD0075F008758200EF2FFFEE33FECD33CDCCC0
:101AED0033CCC58233C5829BED9AEC99E582984043
:101AFD000CF582EE9BFEED9AFDEC99FC0FD5F0D620
:101B0D00E4CEFBE4CDFAE4CCF9A88222B800C1B949
:101B1D000059BA002DEC8BF084CFCECDFCE5F0CB87
:101B2D00F97818EF2FFFEE33FEED33FDEC33FCEBC0
:101B3D0033FB10D703994004EB99FB0FD8E5E4F97B
:101B4D00FA227818EF2FFFEE33FEED33FDEC33FC68
:101B5D00C933C910D7059BE99A4007EC9BFCE99A5C
:101B6D00F90FD8E0E4C9FAE4CCFB2275F010EF2FA1
:101B7D00FFEE33FEED33FDCC33CCC833C810D707A1
:101B8D009BEC9AE899400AED9BFDEC9AFCE899F8DC
:0E1B9D000FD5F0DAE4CDFBE4CCFAE4C8F9226F
:10376000C2D5E830E70FB2D5E4C39BFBE49AFAE494
:1037700099F9E498F8EC30E717B2D5123796121B96
:1037800019E4C39BFBE49AFAE499F9E498F88003FE
:10379000121B1930D50DE4C39FFFE49EFEE49DFD8E
:0437A000E49CFC2287
:101BAB00EB9FF5F0EA9E42F0E99D42F0E89C45F090
:011BBB002207
:0C1BBC00ECF0A3EDF0A3EEF0A3EFF0229C
:101BC800A8828583F0D083D082121BDF121BDF121C
:101BD8001BDF121BDFE473E493A3C583C5F0C58341
:101BE800C8C582C8F0A3C583C5F0C583C8C582C867
:011BF80022CA
:101BF900D083D082F8E4937012740193700DA3A37B
:101C090093F8740193F5828883E47374029368608E
:061C1900EFA3A3A380DF8E
:101C5B00E55A244EF8E6055A22784B300702784EA7
:101C6B00E475F001121C4B0219992000EB7F2ED268
:101C7B00008018EF540F2490D43440D4FF30040B61
:101C8B00EF24BFB41A0050032461FFE55B6002151B
:101C9B005B055EE55E7002055D30070D784BE47504
:101CAB00F001121C4BEF0219DF023A367403D20714
:101CBB008003E4C207F55A8B4B8A4C894DE4F55BE4
:101CCB00F55DF55EE55B60077F20121C9680F57570
:101CDB005CFFC201C200C202C203C205C206C20837
:101CEB00121C64FF700D3007057F00121CA7AF5E3E
:101CFB00AE5D22B4255FC2D5C204121C64FF24D092
:101D0B00B40A00501A75F00A785B30D50508B6FF97
:101D1B000106C6A426F620D5047002D20380D9246E
:101D2B00CFB41A00EF5004C2E5D204021EA7D201B1
:101D3B0080C6D20080C0D20280BCD2D580BAD20578
:101D4B0080B47F20121C962002077401B55B004003
:101D5B00F1121C5BFF121C96021CCFD208D206801C
:101D6B0095121C5BFB121C5BFA121C5BF94A4B7045
:101D7B000679787A1F7BFF20022EE55B602A7E00B6
:101D8B008E827583001219B260060EEE655C70F0E0
:101D9B00C2D5EBC0E0EAC0E0E9C0E0EE121EEED027
:101DAB00E0F9D0E0FAD0E0FB121999FF60AAEBC082
:101DBB00E0EAC0E0E9C0E0121C96D0E02401F9D0C3
:101DCB00E03400FAD0E0FBE55C0460DCD55CD98044
:101DDB00877BFF7A1E79EAD202809C791080027988
:101DEB0008C206C2088008D2D5790A8004790AC2D3
:101DFB00D5E55C047002F55CE4FAFDFEFF121C5B9A
:101E0B00FC7B08200113121C5BFD7B1030000A12B7
:101E1B001C5BFE121C5BFF7B20EC3382D592D550F2
:101E2B0013C3E43000069FFFE49EFEE42001039DF4
:101E3B00FDE49CFCE4CBF8C201EC700CCFCECDCC16
:101E4B00E824F8F870F38017C3EF33FFEE33FEEDA1
:101E5B0033FDEC33FCEB33FB994002FB0FD8E9EB82
:101E6B00300105F8D0E0C448B201C0E00AEC4D4E99
:101E7B004F78207B0070C2EAB55C0040BCC0E0121A
:101E8B001EF0D0F0D0E0200104C4C0E0C4B201C009
:101E9B00F0121C7FD0F0D5F0EB021CCF121BF91DFA
:101EAB006C531DE6581D3D4C1D39421DEA4F1DF26A
:0F1EBB00441DF2491D52431DF8551DDC461DDC28
:101ECA00451DDC471F98501D412D1D452E1D682BB1
:101EDA001D49231D66201F812A1D014800001D601F
:101EEA003F3F3F00790AA2D5200314300509B910F3
:101EFA00020404B9080104A2D520060250010420F4
:101F0A0002689202B55B005034C0E07F20300319AA
:101F1A007F30A20272067205500F121F47C202C218
:101F2A0006C205C2087F30800F300503E9C0E012FF
:101F3A001C96300503D0E0F9D0E0B55BCC3005172C
:101F4A007F30B9100C121C967F583004077F7880B6
:101F5A0003B90803121C963002057F2D021C967FD6
:101F6A00202008F87F2B2006F322920280CF286EC9
:101F7A00756C6C2900D201121C5B3001F8C2017821
:101F8A005B30D50108F6021D012D50434958121C39
:101F9A005B2403B405004001E4901F9393121C874D
:0D1FAA00743A121C87D203755B04021DE619
:101C1F00EF4E6012EF60010EEDBB010B89828A83DC
:101C2F00F0A3DFFCDEFA2289F05007F709DFFCA9E9
:0C1C3F00F022BBFEFCF309DFFCA9F02240
:10339A00020B2AE493A3F8E493A34003F68001F214
:1033AA0008DFF48029E493A3F85407240CC8C33334
:1033BA00C4540F4420C8834004F456800146F6DF03
:1033CA00E4800B01020408102040809035F1E47E6D
:1033DA00019360BCA3FF543F30E509541FFEE493F8
:1033EA00A360010ECF54C025E060A840B8E493A3BF
:1033FA00FAE493A3F8E493A3C8C582C8CAC583CAEA
:10340A00F0A3C8C582C8CAC583CADFE9DEE780BEA1
:013660000069
:101C4B00FAE6FB0808E6F925F0F618E6CA3AF6229A
:103A3600EFB40A07740D123A41740A309811A89926
:103A4600B8130CC2983098FDA899C298B811F630F0
:073A560099FDC299F59922C8
:00000001FF
