:101BA700E4F584758840758920758E02758D96F5E4
:101BB7008475C80475C90275CA7F75CB60758402C0
:0D1BC70075C80475C90875CACB75CBFF221F
:0A1D7700E4F58475985075910F2271
:0A1D8100E4F58475C04075CFB4226C
:101BD400AF8475840F75A40175A54175A6FF75A71B
:101BE4000F759CDF759DFF759EFF759FFF75E1273F
:081BF40075E21475E3448F84CF
:011BFC0022C6
:101AFF00E4FFFE75840F758A8353A1DFF58475B7F4
:101B0F00B075840F43A120438901758D01758F0135
:101B1F00758E040FBF00010EEF640F4E70F54389F1
:091B2F0002E58930E4FB75970220
:011B3800228A
:0A1D8B0075A8B075E60275F6022295
:101D1D00AF84E4F58475A3FB75A1FF75A2208F84B4
:011D2D002293
:101CDF00121D1D121BA7121D77121D81121BD4126C
:051CEF001AFF021D8B2D
:101CAF0050543836343320426F6F746C6F616465F3
:0A1CBF007220762E25642E256400A5
:1012380042027C0001420286000041028202420210
:101248008800004102830042028A000041028400B3
:1012580042028C00004102850041028E0041027A60
:101268000041027B0041027601017000017100011A
:101278007200017300C10E420280000042027E002B
:011288000065
:100EAA0075FFDE75FFAD75EF02E4F52F121CDF1238
:100EBA001D95E4900279F07F9212169C75840F209A
:100ECA00CD0FD390027DE0946490027CE0940040C0
:100EDA00EE1217FD1218CEC20312178E900280EE80
:100EEA00F0A3EFF0D20312178E90027EEEF0A3EF7A
:100EFA00F0121929E4F584E5EFB4100A90027C7423
:100F0A0013F0A37488F0D390027DE094B890027C29
:100F1A00E0940B400CE4F0A3F07F0512169C121427
:100F2A00D3121AFFD3900205E09400900204E094D1
:100F3A000040D3121A209002D5EFF0900279E0B463
:100F4A00010A9002D5E0FF12075A80BA9002D5E052
:100F5A00FFB44005E4900277F0900277E02474F839
:100F6A00A607E004F0E0D394084002E4F09002D52A
:100F7A00E0640D7091900277E0FF640770887473E3
:100F8A002FF8E4F678747C00FD7BFF7A10796F12F3
:100F9A0006B8EF6003020F1090027CF0A3F09002F3
:100FAA00827403F0E4900277F07BFF7A0F79EFFD09
:100FBA001218687BFF7A0F79D4E4FD121868121DA3
:0A0FCA009F9002797401F0020F10ED
:03002B000211823D
:10118200C0E0C0F0C083C082C0D075D000C000C033
:1011920001C002C003C004C005C006C007E52F702D
:0111A20077D5
:1011A3009002CFE584F0C2CF900287E004F070068E
:1011B300900286E004F0900289E004F07006900249
:1011C30088E004F090028BE004F0700690028AE05D
:1011D30004F090028DE004F0700690028CE004F0BD
:1011E3007F01120D487F02120D487F03120D487FC5
:1011F30004120D48D390027DE0940090027CE094A9
:1012030000400CA3E004F0700690027CE004F09030
:0512130002CFE0F584AC
:10121800800312242BD007D006D005D004D003D0E9
:1012280002D001D000D0D0D082D083D0F0D0E0322C
:050D48009002D0EFF065
:100D4D0075840FEF24FE602714604114605B24034B
:100D5D007072900282E09002D1F0900286E0FFA3C3
:100D6D00E09002D2CFF0A3EFF0A2A49200805590B4
:100D7D000283E09002D1F0900288E0FFA3E09002A0
:100D8D00D2CFF0A3EFF0A2A592008038900284E0BC
:100D9D009002D1F090028AE0FFA3E09002D2CFF052
:100DAD00A3EFF0A2A69200801B900285E09002D1E5
:100DBD00F090028CE0FFA3E09002D2CFF0A3EFF011
:100DCD00A2A792009002D1E0146011146013146078
:100DDD002114603224047063D2008002C200E480CA
:100DED0054C39002D3E094649002D2E09400404B3F
:100DFD00800FC39002D3E094149002D2E09400408F
:100E0D003AB200E480329002D2E0FEA3E0FF4E70D1
:100E1D0004C2008008EF640A4E7002D200EF641E17
:100E2D004E7002C200EF64284E7002D200EF64C80B
:100E3D004E700874FF9002D2F0A3F09002D0E0241F
:100E4D00FE601E14602F1460402403704F9002D278
:100E5D00E0FFA3E0900286CFF0A3EFF0A20092A4F2
:100E6D00229002D2E0FFA3E0900288CFF0A3EFF032
:100E7D00A20092A5229002D2E0FFA3E090028ACFB9
:100E8D00F0A3EFF0A20092A6229002D2E0FFA3E021
:0C0E9D0090028CCFF0A3EFF0A20092A70F
:010EA9002226
:0300230002171BA6
:10171B00C0E0C0F0C083C082C0D075D000C000C094
:10172B0001C002C003C004C005C006C007E52F708E
:01173B003479
:10173C009002D4E584F0758400309807C298AF9974
:10174C001219D0309916C299D3900207E0940090E8
:10175C000206E094004005121A6F8F999002D4E0B3
:02176C00F58402
:10176E008003122423D007D006D005D004D003D096
:10177E0002D001D000D0D0D082D083D0F0D0E032D1
:101D3F00AE057401A806088002C333D8FC4FFF22FA
:101D2E00AE057401A806088002C333D8FCF45FFF29
:011D3E002282
:1014D300E49002D6F0A3F0A3F0A3F0A3F07FFA7E8A
:1014E300FF121D6B9002D8EFF07FFB7EFF121D6B86
:1014F3009002D9E4F0A3EFF0E0F8E4F0E89002D929
:10150300F07FFC7EFF121D6B9002DAE02FF0900259
:10151300D9E03400F0D20312178E9002D8E0FDB464
:10152300010AA3E06E7003A3E06F6005ED64A2708F
:101533002A7F0512169C75840F758AC0E4F597758A
:10154300A1E6F58475B78075840FF589758D0175EE
:101553008F31758E01752F0102240090028274026F
:10156300F0A3F0E4900286F0A3F0A3F0A37464F078
:011573002255
:1017FD00A2AF9201C2AFD2CD9002D67420F0A374E5
:10180D0068F09002D6E0FEA3E0F5828E8374FAF0C4
:10181D009002D67420F0A37469F09002D6E0FEA376
:10182D00E0F5828E83741FF09002D604F0A3740548
:10183D00F0121C91E4FF9002D6E0FCA3E0F5828C3F
:10184D0083E0FE74682FF582E43402F583EEF00F29
:0A185D00EFB406E2C2CDA20192AF83
:01186700225E
:1018CE007FFD7E23121D6B9002D6E4F0A3EFF07F16
:1018DE00FE7E23121D6B7E009002EB74FFF0A3744C
:1018EE001CF0A374AFF09002D6E0FDA3E09002EEE0
:1018FE00CDF0A3EDF0A3EEF0A3EFF07B017A027929
:10190E004812010BEFC39420501074482FF582E457
:0A191E003402F5837420F00F80EA14
:01192800229C
:101C9100E4FFFEE4FDFC000DBD00010CBC08F7BD36
:0D1CA10098F40FBF00010EEF64284E70E6AE
:011CAE002213
:0F1D4F00E4FFFE000FBF00010EBE01F7BF22F43C
:011D5E002262
:101D0900D2B1121D4FC2B0121D4FC2B1121D4FD216
:041D1900B0021D4FA8
:0C1D5F00C2B0D2B1121D4FD2B0021D4F15
:021C4C00AD07E2
:101C4E00E4FBED3392B0121D4FD2B1121D4FC2B153
:101C5E00ED25E0FD121D4F0BEBB408E6D2B0021DD0
:011C6E004F26
:051BFD00E0FF121C4C8A
:101C0200E4FF7E01D2B0EE600DA2B0E433FE0FEF2E
:101C1200B4FFF37F0022D2B1121D4FC2B1121D4F89
:021C22007F0140
:011C2400229D
:05169C009002DBEFF0FD
:1016A100E4A3F0A3F0EF24FB601424DD60182468A8
:1016B100601C242E701E9002DC7407F080169002CC
:1016C100DC7402F0800E9002DC7401F0800690025E
:1016D100DC7404F0121D097F68121C4C121C02906C
:1016E10002DDEFF07002FF227FC0121C4C121C02BF
:1016F1009002DDEFF07002FF229002DC121BFDA3CD
:10170100EFF07002FF229002DB121BFD9002DDEF71
:09171100F0121D5F121C91E0FFB3
:01171A0022AC
:101929007E017F0090020AEEF0A3EFF0900202EE32
:10193900F0A3EFF07E007F00900208EEF0A3EFF035
:10194900900200EEF0A3EFF0E4900206F0A3F0900D
:101959000204F0A3F0C20DD20C7E017F00900000BA
:10196900E4F0A3DFFCDEFA7E017F00900100E4F0E1
:05197900A3DFFCDEFA13
:01197E002246
:101A2000900208E0FEA3E0F5828E83E0FF900208BA
:101A3000E0B40011A3E0B4FF0C9002087400F0A31E
:101A40007400F0800E900209E004F0700690020825
:101A5000E004F0900205E024FFF0900204E034FF7F
:0E1A6000F0E07002A3E06003D38001C3920C9B
:011A6E002255
:10197F00900202E0FCA3E0FDF5828C83EFF0EDB462
:10198F00FF10ECB4010C9002027401F0A37400F08C
:10199F00800E900203E004F07006900202E004F063
:1019AF00900207E004F07006900206E004F0900247
:1019BF0006E064017002A3E06003D38001C3920DBF
:0119CF0022F5
:1019D000D3900201E094FF900200E094004007746D
:1019E00000F0A37400F0900200E0FCA3E0F5828C0C
:1019F00083EFF0900201E004F07006900200E00432
:101A0000F0900205E004F07006900204E004F0900B
:101A10000204E07002A3E06003D38001C3920C22B1
:101A6F0090020AE0FEA3E0F5828E83E0FF90020A67
:101A7F00E0B40111A3E0B4FF0C90020A7401F0A3CB
:101A8F007400F0800E90020BE004F0700690020AD2
:101A9F00E004F0900207E024FFF0900206E034FF2C
:0E1AAF00F0E07002A3E06003D38001C3920D4B
:011ABD002206
:061D9F00E4F584D2992254
:0E1868009002E8EBF0A3EAF0A3E9F0A3EDF0A4
:1018760070149002E8E0FBA3E0FAA3E0F9121CF46E
:101886009002ECEE80079002EBE0FFA3E4F0A3EFFA
:10189600F09002ECE07002A3E0602C9002E8E0FB1E
:1018A600A3E0FAA3E0F9120501FF12197F9002E9FD
:1018B600E475F00112051A9002EDE024FFF09002A3
:0718C600ECE034FFF080CAE2
:0118CD0022F8
:100FD4000A0D000D0050543836343320426F6F74BC
:100FE4006C6F6164657220562E20004F4B004E6F6B
:100FF40074204F4B00453530302043616E206E6FB6
:1010040074206465636F6465204845582066696C84
:10101400652E004535303120492F4F20466C6173D1
:1010240068206E6F74206572617365642E004535A7
:10103400303220492F4F20435243204572726F7241
:101044002E004535303320492F4F204164647265AA
:101054007373204572726F722E002A0040415454FB
:1010640045535400404154564552004041542B2BA3
:101074002B004041542D2D2D004041544572617385
:1010840065004041545072670040415452554E002F
:10109400404154535441540040415441726D466C94
:0F10A40061736800404154526573746172740047
:0323FD00000601D6
:0223FB00ADF142
:061DA50025642E256400F8
:10075A00EFB44005E4900277F0900277E0FE24744B
:10076A00F8A607EED394204002E4F0900277E00462
:10077A00F0EF640D6003020A64E0D394004003E0E2
:10078A0014F0900277E02474F8E4F678747C00FDA3
:10079A007BFF7A1079681206B8EF70577BFF7A0FE1
:1007AA0079D9FD1218687FFD7E23121D6B9002D63F
:1007BA00E4F0A3EFF07FFE7E23121D6B7E00900211
:1007CA00EB74FFF0A3741DF0A374A5F09002D6E0B9
:1007DA00FDA3E09002EECDF0A3EDF0A3EEF0A3EFBF
:1007EA00F07B007A00797412010B7B007A0079742D
:1007FA0002090478747C007D007BFF7A10799412D8
:10080A0006B8EF60030208E97874762008F67FFDDF
:10081A007E23121D6B7876A6077FFE7E23121D6B40
:10082A007877A6077FFF7E23121D6B7878A6077F4D
:10083A00FD7EFF121D6B7879A6077FFE7EFF121DD3
:10084A006B787AA60774FFFFFE121D6B787BA607EA
:10085A00900268E008F6A3E008F6A3E008F6A3E031
:10086A0008F6A3E008F6A3E008F67FFB7E23121D34
:10087A006B7882A6077FFC7E23121D6B7883A607FE
:10088A00900280E008F6A3E008F67FFB7EFF121DC7
:10089A006B7886A6077FFC7EFF121D6B7887A607FA
:1008AA0090027EE008F6A3E008F6E408F608F608E7
:1008BA00F608F608F608F608F608F608F608F6FF47
:1008CA0074742FF8E6789326F60FEFB41FF2789334
:1008DA00E66455F67B007A0079747D20020A4F7827
:1008EA00747C007D007BFF7A10797D1206B8EF7068
:1008FA000E1210B37BFF7A0F79EFE4FD020A4F78EC
:10090A00747C007D007BFF7A10799C1206B8EF7028
:10091A006EC3900205E09408900204E0940040F14E
:10092A00121A20C007121A20EFFD7C00D007121BF2
:10093A00837870A607121A20C007121A20EFFD7CCE
:10094A0000D007121B837871A607121A20C007125B
:10095A001A20EFFD7C00D007121B837872A60712BB
:10096A001A20C007121A20EFFD7C00D007121B8341
:10097A007873A6077BFF7A0F79EFE4FD020A4F78B6
:10098A00747C007D007BFF7A1079861206B8EF70BE
:10099A002E7BFF7A0F79EFFD1218687BFF7A0F79A9
:1009AA00D4E4FD121868121D9F9002797402F012A5
:1009BA000A6590027C7409F0A374C4F0020A607894
:1009CA00747C007D007BFF7A1079A81206B8EF705C
:1009DA001D7BFF7A0F79EFFD1218687BFF7A0F797A
:1009EA00D4E4FD121868121D9F75EFFF80687874B1
:1009FA007C007D007BFF7A1079761206B8EF7025AD
:100A0A007BFF7A0F79EFFD1218687BFF7A0F79D492
:100A1A00E4FD121868121D9F9002827402F0E4909D
:100A2A000279F0803178747C007D007BFF7A10793E
:100A3A006F1206B8EF7BFF70067A0F79EF80057A9E
:100A4A000F79F2E4FD1218687BFF7A0F79D4E4FD7E
:0A0A5A00121868121D9FE47874F66C
:010A6400226F
:101B39004164647265737320307825780043524399
:101B4900633A202D2D2D2D20435243723A202D2DFD
:101B59002D2D204F4B0D0A003031323334353637B5
:081B690038394142434445466E
:0B1D6B008E0C8F0D8F828E83E493FF9F
:011D7600224A
:1010B300750824750900A2AF92019002DAE584F065
:1010C300C2AFE4F5849002D8F0A3F07870E66444EC
:1010D300703B7871E6B4850BE4FDAFB7121D3F8F0B
:1010E300B780037587027872E6B4020B7D01AF8F78
:1010F300121D3F8F8F80037587027873E6B4550BFB
:10110300E4FDAF8F121D3F8F8F800B800675840F18
:10111300E4F5A0758702850982850883E4F0250933
:10112300F50974043508F508E4FDAFB7121D2E8FD9
:10113300B77D01AF8F121D2E8F8FE4FDAF8F121D70
:101143002E8F8F9002D9E004F070069002D8E0044D
:10115300F0C39002D9E094379002D8E06480948081
:1011630050030210CEE47870F67871F67872F67850
:0E11730073F6D20E9002DAE0F584A20192AF7C
:01118100224B
:101B71009002D8E09002DAF0FE9002D9E0FFEEFD8B
:021B81007C00E6
:081B83009002E6ECF0A3EDF086
:101B8B00121C6FEFC454F09002E8F09002E7E0FFF4
:0B1B9B00121C6F9002E8E02FF0E0FF4A
:011BA600221C
:051431009002E6EFF05F
:10143600AE04AF058E0C8F0DA2AF9203A3E584F028
:10144600C2AFE4F5847870E6644470317871E6B42E
:10145600850BE4FDAFB7121D3F8FB780037587027A
:101466007872E6640260037587027873E6B4550BFA
:10147600E4FDAF8F121D3F8F8F800B800675840FA2
:10148600E4F5A0758702C3E50C9424500975840F12
:10149600E4F5A07587029002E6E0850D82850C834F
:1014A600F0E4FDAFB7121D2E8FB7E4FDAF8F121D0E
:1014B6002E8F8F7D01AF8F121D2E8F8F75840F207B
:0C14C60088FD9002E7E0F584A20392AFDD
:0114D20022F7
:10178E0020030AE4F513F51475102380097513244C
:10179E007514007510DB7511F5E4F50EF50FF50CEB
:1017AE00F50DC3E50D9511E50C9510503D0514E5AD
:1017BE0014AE137002051314F5828E83E493FEEEBD
:1017CE00620EE4F512E50F25E0F50FE50E33F50E8A
:1017DE0030E706630F21630E100512E512B408E51B
:0E17EE00050DE50D70BC050C80B8AE0EAF0FFA
:0117FC0022CA
:100A6500E49002DCF0A3F0C201C202900279E064D6
:100A7500026003020D479002D8F0121ABE9002D808
:100A8500E0640D60E6121CC99002D8EFF0BF3A0889
:100A95009002DB7401F080E59002DBE0FFB4010217
:100AA5008023EFB40217121B717E009002DEEEF078
:100AB500A3EFF09002E4EEF0A3EF020B5A9002DBF5
:100AC500E0FFB403089002D8E0A3020B5AEF6404D8
:100AD5007076121B719002E1E4F0A3EFF0E07F0065
:100AE500FE9002E1F0A3EFF0D39400EE940040668F
:100AF5009002E1E09424505E7BFF7A107946E4FD94
:100B05001218687BFF7A0F79D4E4FD1218689002F9
:100B1500EB74FFF0A3741BF0A37439F09002E1E0CD
:100B2500FFA3E09002EECFF0A3EFF07B007A00790F
:100B35007412010B7BFF7A0F79D4E4FD1218687BE0
:100B4500007A007974020CF09002DBE0FFB405092D
:100B55009002D8E0A3F0020C4DEF6406701C121B46
:100B6500719002E1E0FEA3E04FFF9002E1EEF0FE9E
:100B7500A3EFF08E08F509020C4D9002DBE0FFB4FF
:100B850007099002D8E0A3F0020C4DEF6408704EFF
:100B9500121B719002E0EFF0602AE0640160257B92
:100BA500FF7A0F79F9E4FD1218687BFF7A0F79D483
:100BB500E4FD121868121D9FE49002DBF0900279A3
:100BC50004020CFD9002DBE004F09002E0E0640119
:100BD5006003020A829002DB740AF0020A82900224
:100BE500DBE0640970549002E4E0FEA3E0FF4E6090
:100BF5000D20010AD2019002D8E0A3F0802BEF4E20
:100C05006027300124C201121B719002E5E024FF28
:100C1500F09002E4E034FFF0C20EAD09AC08121406
:100C2500310509E509700205089002E4E07002A3A8
:100C3500E06003020A82C201800E9002DBE0FFB48D
:100C45000A0F9002D8E0A3F09002DBE004F0020A5C
:100C550082EF640B6003020A82121B71AD07E490F8
:100C650002DBF09002E1E0FEA3E08E0AF50BE4A3BF
:100C7500F0FFFED39002DFE09F9002DEE09E401F72
:100C8500050BE50BAA0A7002050A14F5828A83E4AE
:100C950093FC9002E3E02CF00FBF00010E80D4908E
:100CA50002DFE0FF9002E3E02FF09002E1E0FF9029
:100CB50002E3E02FF09002E2E0FFA3E02FF09002C4
:100CC500E0E0FF9002E3E02FF0E02DF0E0602D7B07
:100CD500FF7A107932E4FD1218687BFF7A0F79D418
:100CE500E4FD1218687BFF7A0F79D4E4FD121868C9
:100CF500121D9F9002797401F07F00229002E3E0BB
:100D050070249002E0E0B4011DE47870F67871F685
:100D15007872F67873F690027904F0E49002DBF0CD
:100D25001212E37F01227BFF7A0F79EFE4FD12189F
:100D3500687BFF7A0F79D4E4FD121868121D9F02B3
:020D45000A8220
:010D47002289
:101ABE00E4FFEF640D6034D3900205E094009002D1
:101ACE0004E0940040EC121A20EFB43A09E49003BB
:101ADE0011F0900310F0900311E02430F8A607E007
:101AEE0004F0E0D3943F40CA7FFF22900311E0FF41
:011AFE0022C5
:101CC900900310E0FF2430F8E6FEEFC3943F500381
:051CD900E004F0AF067D
:011CDE0022E3
:1012E3009002EB74FFF0A3741BF0A37446F07B0031
:1012F3007A00797412010BD20312178E9002E6EE74
:10130300F0A3EFF07FFB7EFF121D6BAD07ED7D00B9
:10131300FC7FFC121D6BED2FFDE43CFC9002E7E02B
:10132300FB9002E6E0FFC4540F901B6193787AF6BA
:10133300EF540F9308F6EBC4540F9308F6EB540FD6
:101343009308F6AB05ECFFC4540F937885F6EF547E
:101353000F9308F6EBC4540F9308F6AF03EF540F43
:101363009308F6AE04AF059002E6E06E7003A3E0C7
:101373006F6007788A762D08762D7B007A00797462
:08138300E4FD121868021D9F31
:0300000002160DD8
:03000300022403D1
:03000B0002240BC1
:03001300022413B1
:03001B0002241BA1
:0300330002243371
:0300430002244351
:03004B0002244B41
:0300530002245331
:03005B0002245B21
:0300630002246311
:03006B0002246B01
:03007300022473F1
:03007B0002247BE1
:03008300022483D1
:03008B0002248BC1
:03009300022493B1
:03009B0002249BA1
:0300A3000224A391
:0F160D0075D900787FE4F6D8FD758193021657E2
:061DAB004E6F6E652E0074
:1012890041026E00602002242020202020202020FE
:101299002020202020202020202020202020202045
:1012A900202020202020202041026F0046026800D3
:1012B90000000000004402100000000044020C007D
:1012C90000000044027200000000440244000000D3
:0912D900004102710141027000A4
:0A1D9500E4F58475C3A643C00422E0
:03003B0002138B22
:10138B00C0E0C0F0C083C082C0D075D000C000C028
:10139B0001C002C003C004C005C006C007E52F7022
:1013AB0067AFC1EF2480601724E0605424F8603AE3
:1013BB0024F060362458704B90026EE4F080449019
:1013CB00026EE0FF04F074142FF582E43402F5830F
:1013DB00E5C2F090026EE064017028E5C230E723AD
:1013EB00E5C2543FFF121574801990026FE0FF04A1
:1013FB00F074242FF582E43402F583E0F5C2800308
:10140B0012000653C0F7800312243BD007D006D03E
:10141B0005D004D003D002D001D000D0D0D082D0E0
:06142B0083D0F0D0E03296
:0100060022D7
:10157400E490026FF0EF14602214603114604014A0
:10158400604F14605E2405706C78247C027D017BBE
:10159400FF7A1D79AB7E007F05806A78247C027D0A
:1015A400017B017A0279687E007F06805878247C6A
:1015B400027D017B017A0279107E007F04804678E7
:1015C400247C027D017B017A02790C7E007F0480F9
:1015D4003478247C027D017B017A0279727E007F5B
:1015E40004802278247C027D017B017A0279447E86
:1015F400007F04801078247C027D017B017A0279CB
:09160400487E007F201204DB2265
:10161C00020EAAE493A3F8E493A34003F68001F22C
:10162C0008DFF48029E493A3F85407240CC8C333CF
:10163C00C4540F4420C8834004F456800146F6DF9E
:10164C00E4800B0102040810204080901238E47EE4
:10165C00019360BCA3FF543F30E509541FFEE49393
:10166C00A360010ECF54C025E060A840B8E493A35A
:10167C00FAE493A3F8E493A3C8C582C8CAC583CA85
:10168C00F0A3C8C582C8CAC583CADFE9DEE780BE3D
:0112E200000B
:10040B00E709F608DFFA8046E709F208DFFA803ED3
:10041B0088828C83E709F0A3DFFA8032E309F608C0
:10042B00DFFA8078E309F208DFFA807088828C8328
:10043B00E309F0A3DFFA806489828A83E0A3F608DC
:10044B00DFFA805889828A83E0A3F208DFFA804CB6
:10045B0080D280FA80C680D4806980F2803380108D
:10046B0080A680EA809A80A880DA80E280CA8033F6
:10047B0089828A83ECFAE493A3C8C582C8CCC5836E
:10048B00CCF0A3C8C582C8CCC583CCDFE9DEE7803E
:10049B000D89828A83E493A3F608DFF9ECFAA9F0BD
:1004AB00EDFB2289828A83ECFAE0A3C8C582C8CC13
:1004BB00C583CCF0A3C8C582C8CCC583CCDFEADE2C
:1004CB00E880DB89828A83E493A3F208DFF980CC8E
:1004DB0088F0EF60010E4E60C388F0ED2402B40487
:1004EB000050B9F582EB2402B4040050AF2323452E
:0604FB00822390045B73F4
:10050100BB010689828A83E0225002E722BBFE02F8
:09051100E32289828A83E493222B
:10051A00C5F0F8A3E028F0C5F0F8E582158270026C
:06052A001583E038F02209
:1000A600E50C24EBF582E43402F583E0050C22909E
:1000B60002E8300A039002EBE475F001120714021D
:1000C60005012003E97F2ED2038018EF540F2490F8
:1000D600D43440D4FF30070BEF24BFB41A005003CA
:1000E6002461FFE50D6002150D0510E5107002058F
:1000F6000F300A0E9002E8E475F001120714EF02C1
:100106000702021C257403D20A8003E4C20AF50C16
:100116009002E812072BE4F50DF50FF510E50D60DA
:10012600077F201200E980F5750EFFC204C203C2E4
:1001360005C206C208C209C20B1200B5FF700D3017
:100146000A057F001200FAAF10AE0F22B4255FC277
:10015600D5C2071200B5FF24D0B40A00501A75F0B4
:100166000A780D30D50508B6FF0106C6A426F62086
:10017600D5047002D20680D924CFB41A00EF5004F9
:10018600C2E5D2070202FBD20480C6D20380C0D2E7
:100196000580BCD2D580BAD20880B47F201200E98F
:1001A6002005077401B50D0040F11200A6FF1200EC
:1001B600E9020123D20BD20980951200A6FB120098
:1001C600A6FA1200A6F94A4B700679CC7A037BFF91
:1001D60020052EE50D602A7E008E827583001206AC
:1001E600D560060EEE650E70F0C2D5EBC0E0EAC033
:1001F600E0E9C0E0EE120342D0E0F9D0E0FAD0E048
:10020600FB120501FF60AAEBC0E0EAC0E0E9C0E02E
:100216001200E9D0E02401F9D0E03400FAD0E0FB86
:10022600E50E0460DCD50ED980877BFF7A03793E24
:10023600D205809C791080027908C209C20B800819
:10024600D2D5790A8004790AC2D5E50E047002F582
:100256000EE4FAFDFEFF1200A6FC7B082004131232
:1002660000A6FD7B1030030A1200A6FE1200A6FFB0
:100276007B20EC3382D592D55013C3E43003069F1E
:10028600FFE49EFEE42004039DFDE49CFCE4CBF821
:10029600C204EC700CCFCECDCCE824F8F870F38015
:1002A60017C3EF33FFEE33FEED33FDEC33FCEB33D8
:1002B600FB994002FB0FD8E9EB300405F8D0E0C407
:1002C60048B204C0E00AEC4D4E4F78207B0070C265
:1002D600EAB50E0040BCC0E0120344D0F0D0E020E6
:1002E6000404C4C0E0C4B204C0F01200D2D0F0D5F9
:1002F600F0EB02012312073401C053023A58019170
:100306004C018D42023E4F02464402464901A64335
:08031600024C55023046023092
:10031E004502304703EC5001952D01992E01BC2B5F
:10032E00019D2301BA2003D52A015548000001B4CE
:10033E003F3F3F00790AA2D5200614300809B910B4
:10034E00020404B9080104A2D520090250010420B8
:10035E0005689205B50D005034C0E07F20300619B7
:10036E007F30A20572097208500F12039BC205C29C
:10037E0009C208C20B7F30800F300803E9C0E012BB
:10038E0000E9300803D0E0F9D0E0B50DCC30081705
:10039E007F30B9100C1200E97F583007077F788044
:1003AE0003B908031200E93005057F2D0200E97F2D
:1003BE0020200BF87F2B2009F322920580CF286E88
:1003CE00756C6C2900D2041200A63004F8C20478B1
:1003DE000D30D50108F60201552D50434958120033
:1003EE00A62403B405004001E49003E7931200DA5B
:0D03FE00743A1200DAD206750D0402023ABC
:101C6F00EF7E0024D0B40A00401624F9B40A0040D5
:101C7F000CB41000400A24E0B41000400374FFFEBF
:021C8F00FF2232
:10053000E3F5F009E208B5F06D606B80F3E3F5F0E8
:1005400009E608B5F060605E80F387F009E608B55B
:10055000F054605280F487F009E208B5F048604634
:1005600080F488828C8387F009E0A3B5F038603688
:1005700080F488828C8387F009E493A3B5F0276028
:100580002580F388828C83E3F5F009E0A3B5F016AB
:10059000601480F388828C83E3F5F009E493A3B5BB
:1005A000F004600280F202065B808580E7808E8026
:1005B000D2803C8015806C807E809B80B5808B8053
:1005C000A1804F8070803A02067189828A83ECFA9A
:1005D000E493F5F0A3C8C582C8CCC583CCE493A34B
:1005E000C8C582C8CCC583CCB5F070606E80E18987
:1005F000828A83E493F5F0A3E208B5F05E605C8044
:10060000F289828A83E0F5F0A3E608B5F04D604BED
:1006100080F389828A83E0F5F0A3E208B5F03C60BC
:100620003A80F389828A83E493F5F0A3E608B5F073
:100630002A602880F2805D89828A83ECFAE493F54F
:10064000F0A3C8C582C8CCC583CCE0A3C8C582C806
:10065000CCC583CCB5F004600280E27F00F845F0A1
:10066000600EE863F0806480D395F01F40027F0144
:100670002289828A83ECFAE0F5F0A3C8C582C8CC4F
:10068000C583CCE0A3C8C582C8CCC583CCB5F0CBAC
:1006900060C980E389828A83ECFAE0F5F0A3C8C5DB
:1006A00082C8CCC583CCE493A3C8C582C8CCC5831B
:1006B000CCB5F0A760A580E288F0ED2402B4040078
:1006C0005099F582EB2402B40400508F2323458215
:0506D000239005A97351
:101CF400E4FFFE120501600C0FEF70010E09E9709C
:051D0400F20A80EF224D
:1006D500BB010CE58229F582E5833AF583E02250DA
:1006E50006E92582F8E622BBFE06E92582F8E22224
:0D06F500E58229F582E5833AF583E493223E
:10070200BB010689828A83F0225002F722BBFE01D6
:02071200F322D0
:10071400F8E0FBA3A3E0F925F0F0E582158270026E
:070724001583E0FA38F02212
:09072B00EBF0A3EAF0A3E9F022CF
:10073400D083D082F8E4937012740193700DA3A354
:1007440093F8740193F5828883E473740293686068
:06075400EFA3A3A380DF68
:101C2500EFB40A07740D121C30740A309811A89984
:101C3500B8130CC2983098FDA899C298B811F6301F
:071C450099FDC299F59922F7
:00000001FF
