:0324000002BA77A6
:0FBA770075D900787FE4F6D8FD75812F02BAC12A
:10CD9100AF8475840F75A40175A54175A6FF75A7AC
:10CDA1000F759CDF759DFF759EFF759FFF75E127D0
:08CDB10075E21475E3448F8460
:01CDB9002257
:10D17900AF84E4F58475A3FB75A1FF75A2208F84A4
:01D189002283
:10CA9100E4FFFEAD8475840F758A8353A1DFF584AD
:10CAA10075B7B075840F43A120438901758D017558
:10CAB1008F01758E040FBF00010EEF640F4E70F5EC
:0FCAC100438902E58930E4FB759702AF058F8446
:01CAD0002243
:10CBC000AF84E4F584758844758921758E02758D6E
:10CBD00096F58475C80475C90875CA8275CBFD754C
:10CBE000840275C80475C90275CA4075CB5E8F840E
:01CBF0002222
:10D12B00AF84E4F5847598507591057584017598F5
:03D13B00508F848E
:01D13E0022CE
:10D19B0075A890E4F5B875E60275E70475F74022BB
:0FD1AB00E4F58475C04075CFB4901A95E0F58413
:01D1BA002252
:10D0EC0012CD9112CA9112D17912CBC012D12B123E
:05D0FC00D1AB02D19B45
:1098AD004216AF00CCC1145016C2000000000000DB
:1098BD00000000000000000000005016B200000083
:1098CD0000000000000000000000000000602016F5
:1098DD008C2020202020202020202020202020200F
:1098ED00202020202020202020202020202020206B
:0E98FD00204116D2FD4216AC00014116B1FF0B
:1069C100E490196FF0A3F074FFA3F0A3F0A3F0A378
:1069D100F075FFDE75FFADE4F5A8F5B8F5E6F5E76E
:1069E100F584F588F589F58E12D0EC752F0112C466
:1069F1004CE4901670F0A3F0A3F0A3F0A3F0A3F081
:106A0100A3F0901669F0A3F0A3F0A3F0A3F0A3F014
:106A1100A3F0C2A4C2A5901975F0A3F012CF94906F
:106A21001976E004F07006901975E004F0C390192E
:106A310076E09464901975E0940040E075840FC28B
:106A4100CD12D1CBD2CD20CD1F901970E004F070C2
:106A51000690196FE004F0C3901970E094649019E6
:106A61006FE06480948040DE12C26412D21EE49012
:106A71001668F053E7BF127BC7C3EE648094804071
:106A8100F512CF3290196FEEF0A3EFF090196F74F9
:106A91001CF0A3E4F0FF7E1C12D1EAEF6402600354
:106AA10012A30090196F741CF0A37401F0E4901903
:106AB1006EF090196FE0FEA3E0FF12D1EA90196E1B
:106AC100E0248CF582E43416F583EFF0901970E040
:106AD10004F0700690196FE004F090196EE004F074
:106AE100E0C3942040CC43E74090196F741CF0A39D
:106AF100744EF0FF7E1C12D1EAEF9011C5F0A3E4B1
:106B0100F0901970E02401FF90196FE03400FE123B
:106B1100D1EA9011C5E0F0A3E04FF0D2AA7F507EF8
:106B21001C12D1EA90163FEFF070089011A2740781
:106B3100F08005E49011A2F07F417E1C12D1EA9011
:106B410015BEEFF060037401F09015BEE060030222
:106B51006BF57F427E1C12D1EA900010EFF07F436B
:106B61007E1C12D1EA900011EFF07F447E1C12D1FD
:106B7100EA900012EFF07F457E1C12D1EA900013DB
:106B8100EFF07F467E1C12D1EA90001AEFF07F47AA
:106B91007E1C12D1EA90001BEFF07F487E1C12D1BF
:106BA100EA90001CEFF07F497E1C12D1EA90001D93
:106BB100EFF07F4A7E1C12D1EA900024EFF07F4B68
:106BC1007E1C12D1EA900025EFF07F4C7E1C12D181
:106BD100EA900026EFF07F4D7E1C12D1EA9000274B
:106BE100EFF09016ACE4F0A304F0900DF1F0900DED
:106BF100F0F0803A7B007A0079007FA07E8C7D00E6
:106C01007C0012CC22D3EF9400EE64809480501E5D
:106C11009016ACE4F0A304F0900DF1F0900DF07437
:106C210009F0E4900010F0A3F0A3F0A304F012C85F
:106C31009C901973EEF0A3EFF012C8E7901971EE72
:106C4100F0A3EFF090163FE0B4010B12C18490194C
:106C51006FEEF0A3EFF0C3901971E064809480406F
:106C610042901973E0648094804038D2B29016AE9D
:106C7100741DF0E4901656F0A3F0A3F0A3F0A3F076
:106C8100A3F0A3F012797790196FEEF0A3EFF090D3
:106C910016B174FFF0201403026A74C2141294BA7C
:0A6CA100026A74D2A5D2A6026A743A
:10CF3200E4FB7D017F0212CCE2BEFF09BFAB0620FB
:10CF42000C03300AFAC3EE6480948040E37E007FD3
:01CF520001DD
:01CF530022BB
:03242B0002D25783
:03D25700C2CF3211
:0324830002A501AE
:0DA50100C0E0C0F0C083C082C0D075D01093
:10A50E00901A46E4F0A3F0A3E584F0758402C2CF5E
:10A51E00C2AA9014FFE0FCA3E0FDA3E0FEA3E0249A
:10A52E0001FFE43EFEE43DFDE43CFC9014FF1235D9
:10A53E0054E47FC8FEFDFC9014FFE0F8A3E0F9A3FD
:10A54E00E0FAA3E0FBC31234F540299014F9E0FCC5
:10A55E00A3E0FDA3E0FEA3E02401FFE43EFEE43D04
:10A56E00FDE43CFC9014F91235549014FF12356042
:10A57E0000000002D2AA9011A2E0FFD39401405C29
:10A58E00EF94075057E4FFFEFDFC90109DE0F8A3FA
:10A59E00E0F9A3E0FAA3E0FB1234F5403F90109DE2
:10A5AE00E0FCA3E0FDA3E0FEA3E09401FFEE940027
:10A5BE00FEED9400FDEC9400FC90109D123554E4D9
:10A5CE00FFFEFDFC90109DE0F8A3E0F9A3E0FAA3D6
:10A5DE00E0FBC31234F570049011A2F0901A48E01B
:02A5EE00F584F2
:0BA5F000D0D0D082D083D0F0D0E03279
:0AD21300AF8475840F53C8DF8F84C9
:01D21D0022EE
:0FD1BB00AF8475840F43C820E5C830E5FB8F842F
:01D1CA002242
:0324130002A4061A
:10A40600C0E0C0F0C083C082C0D075D0109016AE38
:10A41600E0FF700974FFF0C2B2C2A4800ED3EF64ED
:10A4260080948040069016AEE014F0901674E070AA
:10A436000AA3E07006A3E07002C2B2901669E0704B
:10A4460002A3E07024D3901671E09400901670E099
:10A4560064809480401378697C167D017B017A16AE
:10A4660079707E007F0712321D901656E07002A3A7
:10A47600E07024D3901671E09400901670E064802A
:10A486009480401378567C167D017B017A1679708C
:10A496007E007F0712321D53E7FB9014FF123560D2
:10A4A600000000029015B5E0FCA3E0FDA3E0FEA3CA
:10A4B600E0FF9014F912355443E70430B3099015C0
:10A4C60004E4F0D2A6801C20B30E901504E0C394D9
:10A4D6003C5005E004F0800B901504E0C3943C402A
:10A4E60002C2A69016D2E064016003E004F0B2A7AF
:0BA4F600D0D0D082D083D0F0D0E03274
:0B242E008E288F298F828E83E493FF9D
:012439002280
:10C26400A2AF9213C2AFD2CD901A917420F0A374EE
:10C2740068F0901A91E0FEA3E0F5828E8374FAF0E0
:10C28400901A917420F0A37469F0901A91E0FEA3BF
:10C29400E0F5828E83741FF0901A9104F0A3740564
:10C2A400F012CF94E4FF901A91E0FCA3E0F5828CA5
:10C2B40083E0FE741E2FF582E43400F583EEF00F64
:08C2C400EFB406E2A21392AFF1
:01C2CC00224F
:04990B00411A960067
:08D23100E49016B1F07F012228
:109FB700901A49EBF0A3EAF0A3E9F0E49016B1F0A8
:109FC700301508901503E004F0800E9014FEE004AD
:109FD700F070069014FDE004F0901503E0C3948C34
:109FE70050169014FDE0FEA3E0FFE4FCFD7B3E7AF3
:109FF700DFF9F81234DF50189014F8E0FF12B2C0FE
:10A0070012C8E7E4901503F09014FDF0A3F0C21511
:10A01700300E069015BDE004F09015BDE0C3948C9A
:10A0270040129015BAE0FF12B2C012C89CE4901516
:10A03700BDF0C20E900DF0E06401603B900DE8E0CA
:10A04700FCA3E0FDA3E0FEA3E0FF900DE4E0F8A38E
:10A05700E0F9A3E0FAA3E0FBD31234F550197FA08F
:10A067007E8C7D007C0012B1499016ACEEF0A3EF18
:10A07700F0901A96E004F03014037F9A223010060D
:10A0870075878075EF10129D78D39014F4E09400D3
:10A097009014F3E09400400CA3E024FFF09014F335
:10A0A700E034FFF0300D08E49016B1F07F9A2212E9
:10A0B7008ECA901A49E0F9A3E0FAA3E0901A49C9B9
:0AA0C700F0A3EAF0A3E9F07F002205
:07D23900E49016B1F0FF22A2
:10BDA500901A4CEBF0A3EAF0A3E9F0E49016B1F099
:10BDB500901A4CE0FBA3E0FAA3E0F990001C1232C4
:10BDC5005CFF9015B9E0B4000AA3E0B5070512447D
:10BDD500CD804B901A4CE0FBA3E0FAA3E0F990006C
:10BDE5001C12325CFF9014F7E0B40011A3E0B50714
:10BDF5000C9016D2E0B401051280428021901A4CB5
:10BE0500E0FBA3E0FAA3E0F990001C12325CFF907E
:10BE150011C3E0B40008A3E0B507031224A67F0010
:01BE250022FA
:10D00C00E49016B1F0EF3395E0FE9011C3E0B50655
:0AD01C0008A3E0B5070312D1DB22E0
:06D24700E49016B1F02294
:10CEEC0007000505EA05EA006400051770060258FC
:10CEFC0004000300008CA040010020020000640C20
:03CF0C00013EB033
:10990F00440DBBFFFFFFFF440010000000014600A5
:10991F001E000B3C000000460014FFFFFFFFFFFF7F
:0E992F00440024FFFFFFFF44001AFFFFFF006B
:10CC53005054353330300048442D534420566172CC
:10CC63006974696D652053796E632047656E6572DB
:10CC730061746F7200557074696D6500555443009B
:10993D004215B9FFFFC10EC10F4115BE0141163FC2
:0A994D00014215BB00004115BD00EA
:10C89C00E4901894F0A3F0A37402F0A37411F0E4E4
:10C8AC00A3F07B01A304F0A37415F0A374BFF0A351
:10C8BC00E4F0A37480F07A0C79297DE07C0B12B93A
:10C8CC0048EF3395E0FEC3648094805001229015AC
:0AC8DC00B9EEF0A3EFF07E007F013B
:01C8E600222F
:1044CD0090197A7401F0A37415F0A374BFF09015D0
:1044DD00B9E0FEA3E0FF7C007D3D12329B742D2FD1
:1044ED00F9740C3EFA7B01901977EBF0A3EAF0A377
:1044FD00E9F09000131235BAC003C002C001901943
:10450D007AE0FBA3E0FAA3E0F9D082D083D0E06B90
:10451D007008E965827003EA658360109015BAE052
:10452D00FF12B2C012C89C7EFF7FFF22901977E068
:10453D00FBA3E0FAA3E0F99000191233436404459C
:10454D00F060030247599015BFE060030247599090
:10455D0015BBE0FCA3E0FDECFF9015C1E0FBEFB552
:10456D000318AF05A3E0FDEFB5050FE49015BAE014
:10457D00FF12B2C012C89C02491F9015C1E07F0006
:10458D00FE9015BBF0A3EFF09015C2E0FDEDFF908E
:10459D0015BBEEF0A3EFF09015BF7401F0900DF187
:1045AD00E0B401089015C07401F08005E49015C0C9
:1045BD00F0E49015C3F0A3F0A3F0A3F0A3F0A3F0E3
:1045CD00A3F0A3F0A3F0A3F090001EE09015CDF0A2
:1045DD0090001FE09015CEF0900020E09015CFF0E8
:1045ED00900021E09015D0F0900022E09015D1F0D0
:1045FD00900023E09015D2F0900010E09015D3F0CC
:10460D00900011E09015D4F0900012E09015D5F0C7
:10461D00900013E09015D6F090001AE09015D7F0A9
:10462D0090001BE09015D8F090001CE09015D9F08B
:10463D0090001DE09015DAF0900024E09015DBF06D
:10464D00900025E09015DCF0900026E09015DDF04F
:10465D00900027E09015DEF09011A2E09015DFF0AC
:10466D00E4A3F0A3F0A3F0A3F090197E741CF0A3C3
:10467D007441F0FF7E1C12D1EA9015E4EFF0901911
:10468D007E741CF0A3744EF0FF7E1C12D1EA9015BF
:10469D00E5EFF090197FE02401FF90197EE03400E2
:1046AD00FE12D1EA9015E6EFF0E4A3F0A3F0A3F02B
:1046BD00A3F0A3F078EC7C157D017BFF7ACC7953C8
:1046CD001238B478F37C157D017BFF7ACC795A12C0
:1046DD0038B490197E741CF0A37401F0E490197D28
:1046ED00F090197EE0FEA3E0FF12D1EA90197DE073
:1046FD002411F582E43416F583EFF090197FE00470
:10470D00F0700690197EE004F090197DE004F0E061
:10471D00C3942040CC7B017A1579BFC003C002C081
:10472D0001901977E0FBA3E0FAA3E0F990000E12D7
:10473D0035EA901977E0FBA3E0FAA3E0F9900011B8
:10474D00E475F08012337BD20E02491F901977E089
:10475D00FBA3E0FAA3E0F990001912334364794505
:10476D00F0600302490F9015BFE064306003024909
:10477D000F12C331EF640160030248D09011A2E023
:10478D00FF64026013EF6403600EEF64046009EFD1
:10479D0064056004EFB406099015C97403F002486E
:1047AD00D512C01FEF640160030248C8901609E0DE
:1047BD00703590197DF090197DE0FFC3941050274E
:1047CD00EF2421FFE4341CFEA3F0A3EFF012D1EA95
:1047DD0090197DE02409F582E43416F583EFF0900D
:1047ED00197DE004F080CF901619E0703590197D99
:1047FD00F090197DE0FFC394105030EF2431FFE4A9
:10480D00341CFEA3F0A3EFF012D1EA90197DE02441
:10481D0019F582E43416F583EFF090197DE004F07C
:10482D0080CF901619E0B40102E4F090197E741C4B
:10483D00F0A3E4F0FF7E1C12CE80200BFD90197EBC
:10484D00741CF0A37401F0E490197DF090197DE0D3
:10485D00FDC3944F502EA3E0FEA3E0FF74E92DF5A8
:10486D0082E43415F583E0FD12CE0A200BFD90197C
:10487D007FE004F0700690197EE004F090197DE061
:10488D0004F080C890197E741CF0A37450F090163B
:10489D003FE0FD7F507E1C12CE0A200BFD90197E4D
:1048AD00741CF0A3E4F07D02FF7E1C12CE0A200BD7
:1048BD00FD9015C97401F0D210800D9015C97402C8
:1048CD00F08005E49015C9F09015BF7431F07B01AF
:1048DD007A1579BFC003C002C001901977E0FBA320
:1048ED00E0FAA3E0F990000E1235EA901977E0FB9B
:1048FD00A3E0FAA3E0F9900011E475F00B12337BFD
:10490D0080109015BAE0FF12B2C012C89C7EFF7FD6
:06491D00FC227E007F0178
:014923002271
:10A30000E4901A4FF0901A4FE0FFC3947950147400
:10A31000BF2FF582E43415F583E4F0901A4FE00482
:10A32000F080E29015BF7455F0A3746EF0A3F0A313
:10A330007461F0A3746DF0A37465F0A314F0A374BA
:10A340002EF09015DF7441F0A37464F0A3746DF0E7
:10A35000A37469F0A3746EF0E4A3F09015EF743267
:10A36000F0A37437F0A37433F0A37430F09015FFAA
:10A370007401F0A374FFF0A3F0A3F0A3F0A3F0A383
:10A38000F0A3F0A3F0A3F0A3F0A3F0A3F0E4A3F0F4
:10A39000A37417F0A37401F0901A50741CF0A3E496
:10A3A000F0FF7E1C12CE80200BFD901A50741CF022
:10A3B000A37401F0E4901A4FF0901A4FE0FDC3949B
:10A3C00050502EA3E0FEA3E0FF74BF2DF582E434CD
:10A3D00015F583E0FD12CE0A200BFD901A51E00422
:10A3E000F07006901A50E004F0901A4FE004F080EC
:10A3F000C8901A50741CF0A3E4F07D02FF7E1C127A
:05A40000CE0A200BFD57
:01A405002234
:10C33100901A977401F09015BBE0FCA3E0FDECFFAF
:10C341009015C1E0FBEFB50318AF05A3E0FDEFB514
:10C35100050FE49015BAE0FF12B2C012C89C7F002D
:10C3610022E4FF741E2FF582E43400F583E0FE74AD
:10C37100C32FF582E43415F583E0FDEE6D6005E42D
:0EC38100901A97F00FEFB406DA901A97E0FFCB
:01C38F00228B
:10C01F00901A2D7401F09015BBE0FCA3E0FDECFF2E
:10C02F009015C1E0FBEFB50318AF05A3E0FDEFB529
:10C03F00050FE49015BAE0FF12B2C012C89C7F0042
:10C04F0022901A2A741CF0A37421F0E4A3F0901A22
:10C05F002CE0FFC39420502E901A2BE02FFF901A44
:10C06F002AE03400FE12D1EA901A2CE024C9F5829E
:10C07F00E43415F583E06F6005E4901A2DF0901A03
:0BC08F002CE004F080C8901A2DE0FFA8
:01C09A002283
:1094BA00E4901A52F0901A52E0FFC3947F502AA304
:1094CA00741CF0A37401F0EF2401FFE4341CFE12B3
:1094DA00D1EA901A52E024BFF582E43415F583EFFD
:1094EA00F0901A52E004F080CC300F30C20F901581
:1094FA00DF7441F0A37464F0A3746DF0A37469F08F
:10950A00A3746EF0E4A3F09015EF7432F0A37437ED
:10951A00F0A37433F0A37430F0E4A3F09015BEE026
:10952A009015FFF0900010E0901600F0900011E006
:10953A00901601F0900012E0901602F0900013E0ED
:10954A00901603F090001AE0901604F090001BE0C9
:10955A00901605F090001CE0901606F090001DE0B1
:10956A00901607F0900024E0901608F0900025E08D
:10957A00901609F0900026E090160AF0900027E075
:10958A0090160BF09011C5E090160CF09011C6E001
:10959A0090160DF090163FE090160EF0200BFD90FD
:1095AA001A53741CF0A3E4F0FF7E1C12CE80200B29
:1095BA00FD901A53741CF0A37401F0E4901A52F04F
:1095CA00901A52E0FDC39450502EA3E0FEA3E0FF90
:1095DA0074BF2DF582E43415F583E0FD12CE0A201E
:1095EA000BFD901A54E004F07006901A53E004F050
:1095FA00901A52E004F080C8901A53741CF0A3E445
:0C960A00F07D02FF7E1C12CE0A200BFD3A
:019616002231
:109957004214F7FFFF4214FD000041150300C11533
:109967004414F9000000004415B500000000441439
:09997700FF00000000411504008E
:10C8E700E4901894F0A3F0A37402F0A37411F0E499
:10C8F700A3F07B01A304F0A37415F0A37405F0A3C0
:10C90700E4F0A37480F07A0C79297D7B7C0012B95E
:10C9170048EF3395E0FEC364809480500122901461
:0AC92700F7EEF0A3EFF07E007F01B1
:01C9310022E3
:108042009019C47401F0A37415F0A37405F0901490
:10805200F7E0FEA3E0FF7C007D3D12329B742D2FE2
:10806200F9740C3EFA7B019019C1EBF0A3EAF0A37C
:10807200E9F09000131235BAC003C002C001901992
:10808200C4E0FBA3E0FAA3E0F9D082D083D0E06B96
:108092007008E965827003EA658360109014F8E065
:1080A200FF12B2C012C8E77EFF7FFF229019C1E023
:1080B200FBA3E0FAA3E0F9900019123343643045C0
:1080C200F0600302824C900019123343FFAEF07845
:1080D200857C157D017B017A15790512321D90147C
:1080E200F9E0FCA3E0FDA3E0FEA3E0FF9015A512DA
:1080F20035547F157EAE7D477C019014FFE0F8A3D6
:10810200E0F9A3E0FAA3E0FB1233B59015A912350A
:10811200549015891235600000000090158D1235BB
:10812200600000000090158874ECF09015A5E0FC4A
:10813200A3E0FDA3E0FEA3E0FF9015951235549055
:1081420015A9E0FCA3E0FDA3E0FEA3E0FF901599D2
:108152001235549015857424F0901504E0C3943CB4
:108162004009901585E044C0F08024901668E0FD37
:10817200C394014009901585E04440F08011EDD38D
:1081820094FF7480947F5007901585E04480F090AE
:1081920015867401F09015ADE0FCA3E0FDA3E0FEAE
:1081A200A3E0FF90159D1235549015B1E0FCA3E0B9
:1081B200FDA3E0FEA3E0FF9015A1123554901591A6
:1081C2007447F0A37450F0A37453F0E4A3F0901436
:1081D200F9E0FCA3E0FDA3E0FEA3E0FF9015AD12E1
:1081E20035547F157EAE7D477C019014FFE0F8A3E5
:1081F200E0F9A3E0FAA3E0FB1233B59015B1123512
:108202005478057C157D017B017A1579857E007F86
:108212003012321D7B017A157905C003C002C001FC
:108222009019C1E0FBA3E0FAA3E0F990000E123529
:10823200EA9019C1E0FBA3E0FAA3E0F9900011E48F
:1082420075F03012337BD21580109014F8E0FF12D3
:0E825200B2C012C8E77EFF7FFC227E007F01D3
:0182600022FB
:08998000411A5500411A56007E
:10D18A00AE847584018F993099FDC299AF068F8458
:01D19A002272
:0324A30002CA4F1B
:0BCA4F00C0E0C083C082C0D075D018CA
:10CA5A00AF84758401309824C298901A55E0243026
:10CA6A00F582E4341DF583E599F0901A55E004F057
:0ECA7A00E0FD7C00BC0105BD2C02E4F08F84C1
:09CA8800D0D0D082D083D0E0327E
:10C93200E4FF901645E0B4FF08E4901A55F0A3F026
:10C9420022901A56E0FE901A55E0B5060B0FEFB48E
:10C95200FFEFE4123289FF2274302EF582E4341D97
:10C96200F583E0123289901A56E004F0E0FF7E006F
:0AC97200BE0105BF2C02E4F07F01B6
:01C97C002298
:10C44C007E147F6F90142DEEF0A3EFF09014F1EEAC
:10C45C00F0A3EFF07E147F2F90142BEEF0A3EFF0EF
:10C46C009014EFEEF0A3EFF0E4901429F0A3F09009
:10C47C001427F0A3F09014F5F0A3F09014F3F0A3AC
:10C48C0004F0E4FF7E4090142FE4F0A3DEFCE4FF04
:0AC49C007E8090146FE4F0A3DEFC34
:01C4A6002273
:10C7B10090142BE0FEA3E0F5828E83E0FF90142B12
:10C7C100E0B41411A3E0B46E0C90142B7414F0A314
:10C7D100742FF0800E90142CE004F0700690142B4E
:10C7E100E004F0D3901428E09400901427E0940022
:0EC7F100400CA3E024FFF0901427E034FFF08A
:01C7FF002217
:10C4A7009014F1E0FCA3E0FDF5828C83EFF0EDB48E
:10C4B700EE10ECB4140C9014F17414F0A3746FF034
:10C4C700800E9014F2E004F070069014F1E004F08E
:10C4D70090142AE004F07006901429E004F09014F8
:10C4E70029E07004A3E064807E0060047F0180027D
:0BC4F7007F009014F5EEF0A3EFF022A0
:10C6B600D39014F0E0946E9014EFE0941440077455
:10C6C60014F0A3742FF09014EFE0FCA3E0F5828C35
:10C6D60083EFF09014F0E004F070069014EFE0049D
:10C6E600F0901428E004F07006901427E004F0900F
:10C6F60014F37413F0A37488F0EFB40A07E49014EB
:05C70600F3F0A3F02296
:10C5020090142DE0FEA3E0F5828E83E0FF90142DBF
:10C51200E0B41411A3E0B4EE0C90142D7414F0A343
:10C52200746FF0800E90142EE004F0700690142DBB
:10C53200E004F090142AE024FFF0901429E034FF84
:10C54200F0E07002A3E07C0060047D0180027D00C7
:08C552009014F5ECF0A3EDF0EC
:01C55A0022BE
:06D24D00E4F584D29922F1
:0EC111009019C7EBF0A3EAF0A3E9F0A3EDF05C
:10C11F0070149019C7E0FBA3E0FAA3E0F912D1164F
:10C12F009019CBEE80079019CAE0FFA3E4F0A3EFBC
:10C13F00F09019CBE07002A3E0602C9019C7E0FBE0
:10C14F00A3E0FAA3E0F9123243FF12C4A79019C873
:10C15F00E475F0011233029019CCE024FFF090192E
:10C16F00CBE034FFF080CA12D24D901429E0700258
:04C17F00A3E070F6D3
:01C183002299
:0324230002C70BE2
:10C70B00C0E0C083C082C0D075D000C003C004C0DD
:05C71B0005C006C00787
:10C72000AB84758400309807C298AF9912C6B630B2
:10C730009916C299D390142AE09400901429E09499
:0CC7400000400512C5028F99AF038F84E2
:10C74C00D007D006D005D004D003D0D0D082D0836F
:03C75C00D0E032F8
:1074B500061D1C0001000000000000000000000087
:1074C5000000000010270000201C000090D00300E1
:1074D50000000000000000000000000000000000A7
:1074E5000000000000000000000000000000000097
:1074F5000000000000000000000000000000000087
:107505000000000000000000000000000000000076
:107515000000000000000000000000000000000066
:107525000000000000000000000000000000000056
:107535000000000000000000000000000000000046
:107545000000000000000000000000000000000036
:107555000000000000000000000000000000000026
:107565000000000000000000000000000000000016
:107575000000000000000000000000000000000006
:1075850000000000000000000000000000000000F6
:1075950000000000000000000000000000000000E6
:1075A50000000000000000000000000000000000D6
:1075B50000000000000000000000000000000000C6
:1075C50000000000000000000000000000000000B6
:1075D50000000000000000000000000000000000A6
:1075E5000600140001000000D008080080250000F6
:1075F500070001000000000000000000000000007E
:107605000000000000000000000000000000000075
:107615000000000000000000000000000000000065
:107625000000000000000000000000000000000055
:107635000000000000000000000000000000000045
:107645000000000000000000000000000000000035
:107655000000000000000000000000000000000025
:107665000000000000000000000000000000000015
:107675000000000000000000000000000000000005
:1076850000000000000000000000000000000000F5
:1076950000000000000000000000000000000000E5
:1076A50000000000000000000000000000000000D5
:1076B50000000000000000000000000000000000C5
:1076C50000000000000000000000000000000000B5
:1076D50000000000000000000000000000000000A5
:1076E5000000000000000000000000000000000095
:1076F5000000000000000000000000000000000085
:107705000000000000000000000000000000000074
:02771500B5625B
:04998800411646003E
:108ECA00901651E0D3942C74809481400DE490164E
:108EDA0046F0901651F0901644F0901651E07E003C
:108EEA002400F9EE341CFA7B0112C932EF70030236
:108EFA00905F901646E0FF7052901651E02400F5FC
:108F0A0082E4341CF583E0FE901644E090771593D2
:108F1A00FDEEB50508901644E004F08005E49016CD
:108F2A0044F0901651E004F0901644E064026003A5
:108F3A0002905FF0901651F090164604F0E49016F5
:108F4A0042F0A3F0901640F0A3F022EF64017059AA
:108F5A00901644E004F0901651E02400F582E434BF
:108F6A001CF583E0FF901642E02FF0E0FFA3E02F0C
:108F7A00F0A3E0B40431901C03E0FE901C02E07CF4
:108F8A00002400FFEC3EFE901640F0A3EFF090168E
:108F9A00467402F0E4901644F0C3EF942CEE940168
:108FAA004046E4901646F0803F901646E0FF640281
:108FBA00703D901644E004F0901651E02400F582CA
:108FCA00E4341CF583E0FE901642E02EF0E0FEA3A6
:108FDA00E02EF0A3E0FD901640E0B4000BA3E0B54C
:108FEA0005069016467403F0901651E004F022EF3D
:108FFA0064037061901644E004F0901640E0FEA30A
:10900A00E0FF2402FDE43EFC901644E06D7001ECA2
:10901A007035F0901651F0901646F074042FF582D0
:10902A00741C3EF583E0FF901642E0B507199016CE
:10903A0040A3E02405F582741C3EF583E0FF9016F8
:10904A0043E0B50702D212901651E004F03012053F
:06905A00124924C212229B
:104924007B017A1179C712CBF19011C7E024FB7097
:1049340003024ADC24FA7003024BCD24FE70030206
:104944004AEB240C6003024D799011C8E024DF7017
:1049540003024A0D24F17003024A9D2410600302ED
:104964004D799011D5E0901689F09011CBE0901616
:104974004BF09011CCE090164AF09011CDE09016D7
:1049840049F09011CEE0901648F0E0FCA3E0FDA3BE
:10499400E0FEA3E024F4FFEE3401FEE43DFDE43C3C
:1049A400FCE47BE87A03F9F8123440901648123597
:1049B40054901648E0FCA3E0FDA3E0FEA3E0FFC092
:1049C40007901689E0FB3395E0FAF9F8D007C3EFB6
:1049D4009BFFEE9AFEED99FDEC98FC90164812357B
:1049E400549011D3E0FF90168AE4F0A3EFF09011F5
:1049F400D4E0FE90168BE02400F090168AE03EF09E
:104A04009011D6E0901677F0229011D8E0FE901124
:104A1400D7E07C002400FFEC3E901670F0A3EFF08A
:104A24009011D9E0901672F09011DAE0901673F0BC
:104A34009011DBE0901674F09011DCE0901675F0A4
:104A44009011DDE0F9901676F09011DEE090168872
:104A5400F0901672E0FDA3E0FB3395E0FAA3E0FECC
:104A64003395E090182FF0A3CEF0901675E0FE3346
:104A740095E0901831F0A3CEF0E9FE3395E0A3F071
:104A8400A3CEF0E4A3F0A3F0901670E0FEA3E0FF41
:104A940012BB909015B5024BC17F0BE4FE74CB2F73
:104AA400F582E43411F583E0FD74C22EF582E4341A
:104AB40016F583EDF00F74CB2FF582E43411F583F2
:104AC400E0FD74B22EF582E43416F583EDF0740B38
:104AD4002FFF0EEEB410C6229011C8E060061470C9
:104AE40003D21122C211229011C8E024FC700302E7
:104AF4004BC424036003024D799011D3E0FFE4FC1E
:104B0400FDFE901652123554901652E0F8A3E0F9C7
:104B1400A3E0FAA3E0FB9011D4E07F00FE3395E01C
:104B2400FDFCEF2BFFEA3EFEE93DFDE83CFC901660
:104B340052123554901652E0F8A3E0F9A3E0FAA318
:104B4400E0FBC000C001C002C0039011D5E07E00AC
:104B54007810C333CE33CED8F9FFEE3395E0FDFCA5
:104B6400D003D002D001D000EB2FFFEA3EFEE93D96
:104B7400FDE83CFC901652123554901652E0F8A30E
:104B8400E0F9A3E0FAA3E0FBC000C001C002C00347
:104B94009011D6E07E007818C333CE33CED8F9FF17
:104BA400EE3395E0FDFCD003D002D001D000EB2F12
:104BB400FFEA3EFEE93DFDE83CFC90165202355406
:104BC4009011E3E0901647F022D2B2D2A49011C81B
:104BD400E024FE6003024D799011DFE090164FF05F
:104BE4009011E0E090164EF09011E1E090164DF037
:104BF4009011E2E090164CF09011E4E0FE9011E385
:104C0400E07C002400FFEC3E90165DF0A3EFF090F2
:104C140011E6E0FE9011E5E02400FFEC3E90165F03
:104C2400F0A3EFF09011E8E0FE9011E7E02400FF1C
:104C3400EC3E901661F0A3EFF09011EAE0FE9011C3
:104C4400E9E02400FFEC3E901663F0A3EFF090112E
:104C5400ECE0FE9011EBE02400FFEC3E901665F0D2
:104C6400A3EFF07F007EE97D0790164CE0F8A3E007
:104C7400F9A3E0FAA3E0FBC31234F54009901667E8
:104C84007407F0024D427F807E977D067C0090166B
:104C94004CE0F8A3E0F9A3E0FAA3E0FBC31234F577
:104CA40040099016677406F0024D427F007E467DEF
:104CB400057C0090164CE0F8A3E0F9A3E0FAA3E029
:104CC400FBC31234F540089016677405F0806F7FBB
:104CD400B87EF37D037C0090164CE0F8A3E0F9A3C2
:104CE400E0FAA3E0FBC31234F5400890166774049D
:104CF400F0804B7F007EA37D027C0090164CE0F890
:104D0400A3E0F9A3E0FAA3E0FBC31234F540089052
:104D140016677403F080277F807E517D017C0090AC
:104D2400164CE0F8A3E0F9A3E0FAA3E0FBC31234C5
:104D3400F590166740057402F080037401F0901634
:104D44005DE0FEA3E0FF901661E0B50623A3E0B5A5
:104D5400071E901667E0FF901663E0B40012A3E00C
:104D6400B5070D901660E0FF901666E0C39F8001C2
:054D7400E4901668F058
:014D79002217
:10961700901A58EBF0A3EAF0A3E9F0E4901642F0B1
:10962700A3F0901A58E0FBA3E0FAA3E0F990000238
:1096370012325CFF901640E4F0A3EFF07FB512D131
:109647008A7F6212D18A901A58E0FBA3E0FAA3E05E
:10965700F9123243FF12D18A901A58E0FBA3E0FABD
:10966700A3E0F9123243901642F0A3F090000112E2
:10967700325CFF12D18A901A58E0FBA3E0FAA3E00C
:10968700F990000112325CFF901642E02FF0E0FFE4
:10969700A3E02FF090000212325CFF12D18A901AD9
:1096A70058E0FBA3E0FAA3E0F990000212325CFF56
:1096B700901642E02FF0E0FFA3E02FF09000031296
:1096C700325CFF12D18A901A58E0FBA3E0FAA3E0BC
:1096D700F990000312325CFF901642E02FF0E0FF92
:1096E700A3E02FF0E4901651F0901651E0FF7E00B2
:1096F700D3901641E09F901640E09E4050901A5834
:10970700E0FBA3E0FAA3E02404F9E43AFAE92FF92D
:10971700EE3AFA123243FF12D18A901A58E0FBA3AD
:10972700E0FAA3E02404F9E43AFA901651E07E0047
:1097370029F9EE3AFA123243FF901642E02FF0E091
:10974700FFA3E02FF0901651E004F0809C901642A2
:0D975700E0FF12D18A901643E0FF02D18A94
:10CBF100901A5BEBF0A3EAF0A3E9F0901641E02470
:10CC010004FF901640E03400FE901A5BE0FBA3E0C5
:10CC1100FAA3E0F8AC02AD037B017A1C7900023281
:01CC21001DF5
:10ABA200E4901A60F090165212356000000000E442
:10ABB200901647F0A312356000000000E490168A58
:10ABC200F0A3F0901677F0901689F0901688F09026
:10ABD2001642F0A3F0901651F0901644F0901640F1
:10ABE200F0A3F0C212C2117E017F2CFD7B017A1C00
:10ABF20079001238D120114A901A60E0C3940550AE
:10AC020041E4901A5EF0A3F07BFF7A7579E5129623
:10AC120017201221901A5EE064037004A3E064E836
:10AC22006013901A5FE004F07006901A5EE004F080
:10AC3200128ECA80DC901A60E004F0124924C2121B
:10AC420080B3901A60E0B405037F0022C2117BFF3B
:10AC52007A7479B51296177B017D017F0D12CD3B77
:10AC62007B017D207F0112CD3B7B017D217F011283
:0DAC7200CD3B7B0A7D047F0D12CD3B7F01A1
:01AC7F0022B2
:10CD3B009012F77406F0A37401F0A37406F0E4A349
:10CD4B00F0A3EFF0A3EDF0E4A3F0A3EBF0E4A3F07A
:0BCD5B00A3F07B017A1279F702961713
:10CE3200901A61EBF0A3EAF0A3E9F0901A61E0FB2B
:10CE4200A3E0FAA3E0F8AC02AD037B017A16797095
:07CE52007E007F0702321D84
:10D026001F1C1F1E1F1E1F1F1E1F1E1F1F1D1F1E14
:0AD036001F1E1F1F1E1F1E1F955C0A
:10CDBA00AB07AA06EB5403701CFC7D641232ADED7E
:10CDCA004C700FAE02AF037C017D901232ADED4C78
:08CDDA0070037F01227F00229B
:10B087009019FDEEF0A3EFF0A3EDF0A3EAF0A3EB28
:01B09700F0C8
:10B09800E4F99019FFE014FFE9C39F50299019FDC6
:10B0A800E0FEA3E0FF12CDBAE9BF010590D03280DF
:10B0B8000390D02693FF901A01E02FF0901A00E039
:10B0C8003400F00980CC9019FEE024FFF09019FDBF
:10B0D800E034FFF0E0FAA3E0FB7C017D6DFFAE02F7
:10B0E80012329BAC06AD07EBAE027802CEC313CE8C
:10B0F80013D8F92DFBEC3EFA9019FDE0FEA3E0FF12
:10B108007C007D641232ADC3EB9FFBEA9EFA901976
:10B11800FDE0FEA3E0FF7C017D901232ADEF2BFF36
:10B12800EE3AFE901A01E02FFF901A00E03EFE90E2
:10B13800D03EE493FC740193FDC3EF9DFFEE9CFEAB
:01B1480022E4
:08B8AD009018AFECF0A3EDF0E0
:10B8B500EF3395E0FEFDFCA31235549018AFE0FE82
:10B8C500A3E0FFEE3395E0FDFC9018B5123554AEBC
:10B8D50002AF03EE3395E0FDFC9018B9123554E440
:10B8E5007F3CFEFDFC9018B5E0F8A3E0F9A3E0FA73
:10B8F500A3E0FB1233B5C004C005C006C007E47F52
:10B90500107E0EFDFC9018B1E0F8A3E0F9A3E0FA73
:10B91500A3E0FB1233B5D003D002D001D000EF2B4A
:10B92500FFEE3AFEED39FDEC38FC9018B9E0F8A3CE
:10B93500E0F9A3E0FAA3E02FFFEA3EFEE93DFDE8CA
:02B945003CFCC8
:01B9470022DD
:10BB900012B087E4FCFD7B807A517901F81233B54D
:10BBA000901837123554901837E0F8A3E0F9A3E065
:10BBB000FAA3E0FBC000C001C002C003901830E04F
:10BBC000FFA3E0FCA3E0FDA3E0FAA3E0FB12B8AD05
:10BBD000D003D002D001D000EB2FFFEA3EFEE93DBA
:10BBE000FDE83CFC901837123554901837E0FCA360
:10BBF000E0FDA3E0FEA3E02401FFE43EFEE43DFD02
:10BC0000E43CFC901837123554901837E0FCA3E060
:07BC1000FDA3E0FEA3E0FF2D
:01BC1700220A
:1051A9004C6F67696E3A200050617373776F726450
:1051B9003A20256325632563256325632563002537
:1051C90063256325632563256325630A0D57656C8C
:1051D900636F6D6520746F20746865205054353392
:1051E90030302054656C6E657420696E7465726622
:1051F9006163652E0A0D556E6974204E616D652EC9
:105209003A20004041542B2B2B004F4B0A0D0040F4
:1052190041542D2D2D005354415455530025642ECE
:1052290025642E25642C25642E25642E25642C25C1
:105239003032582D253032582D253032582D253011
:1052490032582D253032582D253032582C25640AF4
:105259000D00475053535441545553000A0D4750BC
:1052690053204368616E6E656C204E756D62657280
:105279003A2030312C30322C30332C30342C30352C
:105289002C30362C30372C30382C30392C31302C0E
:1052990031312C31322C31332C31342C31352C3104
:1052A900360A0D5369676E616C205175616C6974BA
:1052B90079202020203A20253032692C2530326986
:1052C9002C253032692C253032692C253032692C55
:1052D900253032692C253032692C253032692C254C
:1052E9003032692C253032692C253032692C253031
:1052F90032692C253032692C253032692C2530321F
:10530900692C253032690A0D005369676E616C207A
:10531900537472656E6774682020203A20253032F4
:10532900752C253032752C253032752C2530327587
:105339002C253032752C253032752C253032752CC0
:10534900253032752C253032752C253032752C25B7
:105359003032752C253032752C253032752C25309C
:1053690032752C253032752C253032750A0D0044E2
:10537900484350000A0D44484350204C6561736509
:1053890020203A20256C750A0D00444843502045D9
:105399007870697265203A20256C750A0D004448B9
:1053A900435020543120202020203A20256C750AB2
:1053B9000D004448435020543220202020203A2018
:1053C900256C750A0D004448435020537461746577
:1053D90020203A2025750A0D004448435020536582
:1053E90072766572203A2025752E25752E25752E23
:1053F90025750A0D00444843502052656E65772093
:10540900203A2025690A0D004448435020436F750E
:105419006E7420203A2025750A0D005359535445BE
:105429004D54494D45000A0D43757272656E7420DD
:1054390054696D65203A20253034752D2530327533
:105449002D2530327520253032753A253032753A9E
:1054590025303275205554430A0D0053797374650C
:105469006D20424F4F5420203A20253034752D2588
:105479003032752D2530327520253032753A253078
:1054890032753A25303275205554430A0D0053655B
:1054990072766572205374617274203A2025303413
:1054A900752D253032752D25303275202530327510
:1054B9003A253032753A25303275205554430A0D54
:1054C900004750534C4F434B000A0D475053204C53
:1054D9006F636B205468726573686F6C64203A203F
:1054E90025750A0D00475053204C6F636B20436F9D
:1054F900756E7420202020203A2025750A0D004859
:10550900454C500068656C70000A0D436F6D6D6104
:105519006E64732E0A0D5354415455532020202094
:105529003A2053686F7720736F66747761726520CC
:1055390076657273696F6E732E0A0D475053535413
:1055490041545553203A2053686F772047505320D0
:10555900496E666F726D6174696F6E2E0A0D4750E0
:10556900534C4F434B2020203A2053686F772047F4
:105579005053204C6F636B207374617475732E0ADA
:105589000D444843502020202020203A2053686FA2
:10559900772044484350207374617475732E0A0D43
:0F55A9000045584954004E6F74204F4B0A0D00B7
:10998C004211C500174211C3FFFF4111A200C116BD
:07999C0044109D00000000D3
:10C18400E4FF7E8090101DE4F0A3DEFC90109D126D
:10C19400356000005DC09011C5E0FCA3E0FDE490B3
:10C1A4001894F0A3F0A37402F0A37406F0E4A3F0CF
:10C1B4007B01A304F0A37410F0A3741DF0A3E4F0B6
:10C1C400A37480F07A0C792912B948EF3395E0FE14
:10C1D400C3648094805008E49011A2F0FEFF229082
:10C1E40011C3EEF0A3EFF09011A27401F0D2A57E7A
:02C1F40000FF4A
:01C1F6002226
:1024A600E4901817F09011C3E0FEA3E0FF7C007DD6
:1024B6003D12329B742D2FF9740C3EFA9018147449
:1024C60001F0A3EAF0A3E9F053E7FB90109D123563
:1024D6006000005DC043E7049011A2E06401705CF7
:1024E6009010A1F09011A27403F0E4901808F0A3E4
:1024F600F0901809E024A3F582E43411F583E4F0A2
:10250600901809E004F07006901808E004F090189E
:1025160008E07004A3E0642070D790170C74FFF0F5
:10252600A37451F0A374A9F07B017A1079A2125D0D
:102536002090101BEEF0A3EFF0D216229011A2E02D
:1025460064036003022651901806F0A3F090181455
:10255600E0FBA3E0FAA3E0F9900019123343FFC3AE
:10256600901807E09F901806E095F0400302314C62
:10257600A3E0241DF582E43410F583E0FFB4FF09DF
:102586009018177402F0022640901817E0D39400B2
:102596004002803AEFC39420401A901807E0241DA9
:1025A600F582E43410F583E0FFD3947E500612CF13
:1025B60054022640901807E0241DF582E43410F5F5
:1025C60083E0B4080E9010A1E0D394004005E01417
:1025D600F08067901807E0241DF582E43410F58337
:1025E600E0640D70459010A17410F09011A274046F
:1025F600F090170C74FFF0A37451F0A374B1F0A31C
:1026060074FFF0A374FBF0A37401F0A374FFF0A3AE
:1026160014F0A37401F0FB7A1079A2125D209010D9
:102626001BEEF0A3EFF0D21680109011A2E0B403D7
:10263600099010A1E0B41002E4F0901807E004F04D
:102646007006901806E004F00225539011A2E0648B
:10265600046003022820901806F0A3F0901814E0F6
:10266600FBA3E0FAA3E0F9900019123343FFC390ED
:102676001807E09F901806E095F0400302314C9051
:1026860010A1E0942040037410F0901807E0241D78
:10269600F582E43410F583E0FFC39420400CEFD3B9
:1026A600947E500612CF5402280F901807E0241D7E
:1026B600F582E43410F583E0B4080F9010A1E0D35E
:1026C60094004006E014F002280F901807E0241D3D
:1026D600F582E43410F583E0640D600302280F9060
:1026E6001808F0A3F0901808E0FEA3E0FFC3941FBB
:1026F600EE648094805034EF2421FFEE341CFE12E9
:10270600D1EA901809E024A3F582E43411F583E0B8
:102716006F60089011C4E0FF02B2C0901809E0048F
:10272600F070C2901808E004F080BAE49010A1F0AE
:102736009011A27402F090170C74FFF0A37451F07C
:10274600A374C8F0A374FFF0A374FCF0A37401F0A3
:10275600A37440F0A3F0A3F07B017A1079A2125D76
:102766002090101BEEF0A3EFF0E4901808F0A3F011
:10277600901808E0FEA3E0FFC39420EE64809480E6
:102786005054EF2401FFEE341CFE12D1EA90101CC7
:10279600E0FE901809E02EFE24A2F582E43410F53E
:1027A60083EFF074A22EF582E43410F583E0701600
:1027B600901808E0FEA3E0FF90101CE02FF09010A8
:1027C6001BE03EF08010901809E004F070A290180B
:1027D60008E004F0809A90101CE0FF24A2F582E441
:1027E6003410F583740AF074A32FF582E43410F5DF
:1027F60083740DF090101CE02402F090101BE0345E
:1028060000F0D2167F2812BE26901807E004F0705A
:1028160006901806E004F00226629011A2E0640217
:1028260060030228EE901806F0A3F0901814E0FB5F
:10283600A3E0FAA3E0F9900019123343FFC39018FE
:1028460007E09F901806E095F040030228E8A3E011
:10285600241DF582E43410F583E0FFC39420400B79
:10286600EFD3947E500512CF548054901807E0247D
:102876001DF582E43410F583E0640D7042FF12CF3B
:1028860054E49010A1F078A37C117D017BFF7A526D
:10289600790C1237CBEF70279011A27405F09017C0
:1028A6000C74FFF0A37452F0A37413F07B017A103A
:1028B60079A2125D2090101BEEF0A3EFF0D21690D5
:1028C6001807E0241DF582E43410F583E0FF12C4F6
:1028D600A7901807E004F07006901806E004F002CE
:1028E600283112D24DB2A5229011A2E064056003F0
:1028F60002314C901806F0A3F0901814E0FBA3E008
:10290600FAA3E0F9900019123343FFC3901807E0C9
:102916009F901806E095F0400302314CA3E0241D79
:10292600F582E43410F583E0FFC39420400CEFD326
:10293600947E500612CF5402313B901807E0241DB6
:10294600F582E43410F583E0640D6003023125FF5F
:1029560012CF54E49010A1F078A37C117D017BFF87
:102966007A5279181237CBEF70169011A27402F0D2
:1029760090170C74FFF0A37452F0A374130230DBAB
:1029860078A37C117D017BFF7A52791F1237CBEF3A
:102996006003022AAB7FFD7E2312242E90180AE4E0
:1029A600F0A3EFF07FFE7E2312242E90180CE4F0A5
:1029B600A3EFF07FFF7E2312242E90180EE4F0A3DF
:1029C600EFF07FFD7EFF12242E901810E4F0A3EFA7
:1029D600F07FFE7EFF12242E901812E4F0A3EFF093
:1029E60074FFFFFE12242E7E0090170C74FFF0A3D6
:1029F6007452F0A37426F090180AE0FDA3E0901735
:102A06000FCDF0A3EDF090180CE0FDA3E0901711A8
:102A1600CDF0A3EDF090180EE0FDA3E0901713CDD6
:102A2600F0A3EDF0901810E0FDA3E0901715CDF09F
:102A3600A3EDF0901812E0FDA3E0901717CDF0A3D8
:102A4600EDF0A3EEF0A3EFF090001EE0FF90171B51
:102A5600EEF0A3EFF090001FE0FF90171DEEF0A33D
:102A6600EFF0900020E0FF90171FEEF0A3EFF0903C
:102A76000021E0FF901721EEF0A3EFF0900022E096
:102A8600FF901723EEF0A3EFF0900023E0FF9017DE
:102A960025EEF0A3EFF09016D2E0FF901727EEF0A8
:102AA600A3EF0230DB78A37C117D017BFF7A52799C
:102AB6005B1237CBEF6003022CBF90170C74FFF04C
:102AC600A37452F0A37465F09016C2E0FE3395E04D
:102AD60090170FF0A3CEF09016C3E0FE3395E0906A
:102AE6001711F0A3CEF09016C4E0FE3395E09017D0
:102AF60013F0A3CEF09016C5E0FE3395E0901715BF
:102B0600F0A3CEF09016C6E0FE3395E0901717F0CE
:102B1600A3CEF09016C7E0FE3395E0901719F0A308
:102B2600CEF09016C8E0FE3395E090171BF0A3CECA
:102B3600F09016C9E0FE3395E090171DF0A3CEF095
:102B46009016CAE0FE3395E090171FF0A3CEF090E2
:102B560016CBE0FE3395E0901721F0A3CEF0901649
:102B6600CCE0FE3395E0901723F0A3CEF09016CD7F
:102B7600E0FE3395E0901725F0A3CEF09016CEE058
:102B8600FE3395E0901727F0A3CEF09016CFE0FE27
:102B96003395E0901729F0A3CEF09016D0E0FE33DF
:102BA60095E090172BF0A3CEF09016D1E0FE33956A
:102BB600E090172DF0A3CEF07B017A1079A2125D7A
:102BC6002090101BEEF0A3EFF0E024A2F9E43410FD
:102BD600FA7B01C003C002C00190170C74FFF0A37A
:102BE6007453F0A37412F09016B2E0FF90170FE43E
:102BF600F0A3EFF09016B3E0FF901711E4F0A3EF07
:102C0600F09016B4E0FF901713E4F0A3EFF09016DF
:102C1600B5E0FF901715E4F0A3EFF09016B6E0FFCD
:102C2600901717E4F0A3EFF09016B7E0FF9017198E
:102C3600E4F0A3EFF09016B8E0FF90171BE4F0A3C2
:102C4600EFF09016B9E0FF90171DE4F0A3EFF090B7
:102C560016BAE0FF90171FE4F0A3EFF09016BBE062
:102C6600FF901721E4F0A3EFF09016BCE0FF901759
:102C760023E4F0A3EFF09016BDE0FF901725E4F0F3
:102C8600A3EFF09016BEE0FF901727E4F0A3EFF055
:102C96009016BFE0FF901729E4F0A3EFF09016C05E
:102CA600E0FF90172BE4F0A3EFF09016C1E0FF9041
:102CB600172DE4F0A3EF02303478A37C117D017B5D
:102CC600FF7A5379781237CBEF6003022EA1901763
:102CD6000C74FFF0A37453F0A3747DF0900DE0E044
:102CE600FCA3E0FDA3E0FEA3E0FF90170F1235540E
:102CF6007B017A1079A2125D2090101BEEF0A3EFF3
:102D0600F0E024A2F9E43410FA7B0190170C74FF6A
:102D1600F0A37453F0A37493F0900DE4E0FCA3E0E9
:102D2600FDA3E0FEA3E0FF90170F123554125D20BD
:102D360090101CE02FF090101BE03EF0A3E024A2C0
:102D4600F9E43410FA7B0190170C74FFF0A3745366
:102D5600F0A374A7F0900DE8E0FCA3E0FDA3E0FE6D
:102D6600A3E0FF90170F123554125D2090101CE05F
:102D76002FF090101BE03EF0A3E024A2F9E43410FB
:102D8600FA7B0190170C74FFF0A37453F0A374BB85
:102D9600F0900DECE0FCA3E0FDA3E0FEA3E0FF90C5
:102DA600170F123554125D2090101CE02FF0901072
:102DB6001BE03EF0A3E024A2F9E43410FA7B019074
:102DC600170C74FFF0A37453F0A374CFF0900DF0BA
:102DD600E0FF90170FE4F0A3EFF0125D2090101CB7
:102DE600E02FF090101BE03EF0A3E024A2F9E434BB
:102DF60010FA7B0190170C74FFF0A37453F0A374C0
:102E0600E2F0900DF2E0FF90170FE4F0A3EFF090E0
:102E16000DF3E0FF901711E4F0A3EFF0900DF4E04E
:102E2600FF901713E4F0A3EFF0900DF5E0FF901775
:102E360015E4F0A3EFF0125D2090101CE02FF09047
:102E4600101BE03EF0A3E024A2F9E43410FA7B0163
:102E560090170C74FFF0A37453F0A374FEF0901651
:102E6600ACE0FFA3E090170FCFF0A3EFF0125D20C8
:102E760090101CE02FF090101BE03EF0A3E024A27F
:102E8600F9E43410FA7B0190170C74FFF0A3745424
:102E9600F0A37411F0901A9602309078A37C117DFD
:102EA600017BFF7A5479241237CBEF600302303D61
:102EB60090170C74FFF0A37454F0A3742FF09016BF
:102EC60070E0FFA3E090170FCFF0A3EFF09016721B
:102ED600E0FE3395E0901711F0A3CEF0901673E064
:102EE600FE3395E0901713F0A3CEF0901674E0FE33
:102EF6003395E0901715F0A3CEF0901675E0FE33EB
:102F060095E0901717F0A3CEF0901676E0FE339575
:102F1600E0901719F0A3CEF07B017A1079A2125D2A
:102F26002090101BEEF0A3EFF0E024A2F9E4341099
:102F3600FA7B01C003C002C00190170C74FFF0A316
:102F46007454F0A37464F0901669E0FFA3E0901740
:102F56000FCFF0A3EFF090166BE0FE3395E09017DD
:102F660011F0A3CEF090166CE0FE3395E0901713A7
:102F7600F0A3CEF090166DE0FE3395E0901715F0B5
:102F8600A3CEF090166EE0FE3395E0901717F0A3EF
:102F9600CEF090166FE0FE3395E0901719F0A3CEB1
:102FA600F0D001D002D003125D2090101CE02FF06B
:102FB60090101BE03EF0A3E024A2F9E43410FA7B63
:102FC60001C003C002C00190170C74FFF0A3745433
:102FD600F0A37497F0901656E0FFA3E090170FCF7A
:102FE600F0A3EFF0901658E0FE3395E0901711F03D
:102FF600A3CEF0901659E0FE3395E0901713F0A398
:10300600CEF090165AE0FE3395E0901715F0A3CE59
:10301600F090165BE0FE3395E0901717F0A3CEF024
:1030260090165CE0FE3395E0901719F0A3CEF0D031
:1030360001D002D003805D78A37C117D017BFF7AED
:103046005479CA1237CBEF705B90170C74FFF0A35C
:103056007454F0A374D2F0A3E4F0A3743CF07B01A3
:103066007A1079A2125D2090101BEEF0A3EFF0E02B
:1030760024A2F9E43410FA7B0190170C74FFF0A334
:103086007454F0A374EEF0901504E0FF90170FE46B
:10309600F0A3EFF0125D2090101CE02FF090101BB3
:1030A600E03E807678A37C117D017BFF7A55790816
:1030B6001237CBEF601278A37C117D017BFF7A5526
:1030C600790D1237CBEF702090170C74FFF0A374B4
:1030D60055F0A37412F07B017A1079A2125D20904C
:1030E600101BEEF0A3EF803278A37C117D017BFFED
:1030F6007A5579AA1237CBEF7002803590170C7487
:10310600FFF0A37455F0A374AFF07B017A1079A297
:10311600125D2090101BEEF0A3EFF0D216801690F1
:103126001807E0241DF582E43410F583E0B4180591
:10313600E49011A2F0901807E004F07006901806CB
:06314600E004F00228FF86
:01314C002260
:109D7800E49019CFF09011C3E0FEA3E0FF7C007DD2
:109D88003D12329B742D2FF9740C3EFA9019D07441
:109D980001F0A3EAF0A3E9F09011A2E06402707167
:109DA8009014F3E0FEA3E0FF4E7066901427E0FCE9
:109DB800A3E0FDD39400EC94004056EF4E7052D3CC
:109DC800ED9400EC94004049E49019CDF0A3F0D351
:109DD800901428E09400901427E09400402212C7C1
:109DE800B19019CEE024A2F582E43410F583EFF0A7
:109DF8009019CEE004F070D79019CDE004F080CF30
:109E08009019CDE0FFA3E090101BCFF0A3EFF0D2A4
:109E1800169011A2E0FF6402600EEF64036009EF80
:109E280064046004EFB40546301643C2167B017A19
:109E38001079A2C003C002C0019019D0E0FBA3E0D2
:109E4800FAA3E0F990000E1235EA90101BE0FEA389
:109E5800E0FF9019D0E0FBA3E0FAA3E0F99000112D
:109E6800EE8FF012337B9019CF748EF08011901121
:109E7800A2E0700B9011C4E0FF12B2C012C184902E
:109E880011A2E0B407089011C4E0FF12B2C0901903
:039E9800CFE0FF19
:019E9B0022A4
:0FD1DB009011A2E064076002E4F07F0502BE2617
:10CF54009010A1E0C394204002E4F09010A1E024DA
:10CF6400A3F582E43411F583EFF09010A1E004F00E
:01CF7400229A
:08B20600901A02EEF0A3EFF034
:10B20E009011C3E0FEA3E0FF7C007D3D12329B74E3
:10B21E002D2FF9740C3EFA901A047401F0A3EAF083
:10B22E00A3E9F053E7FB90109D12356000005DC05E
:10B23E0043E704901A02E0FEA3E0FFA3E0FBA3E0C5
:10B24E00FAA3E0F9900011EE8FF012337B7B017AB6
:10B25E0014792FC003C002C001901A04E0FBA3E0D2
:10B26E00FAA3E0F990000E1235EAE4901427F0A349
:10B27E00F09011C4E0FF901A04E0FBA3E0FAA3E003
:10B28E00F990000E1235BAC003C002C001901A0424
:10B29E00E0FBA3E0FAA3E0F9900011123343FD9016
:10B2AE0018EAE5F0F0A3EDF0D001D002D003128D34
:01B2BE00305F
:01B2BF00226C
:10CF9400E4FFFEE4FDFC000DBD00010CBC08F7BD80
:0DCFA40098F40FBF00010EEF64284E70E6F8
:01CFB100225D
:0FD1CB00E4FFFE000FBF00010EBE01F7BF22F40C
:01D1DA002232
:10D13F00D2B112D1CBC2B012D1CBC2B112D1CBD29C
:04D14F00B002D1CB8E
:0CD20700C2B0D2B112D1CBD2B002D1CB58
:02CF0F00AD076C
:10CF1100E4FBED3392B012D1CBD2B112D1CBC2B17D
:10CF2100ED25E0FD12D1CB0BEBB408E6D2B002D176
:01CF3100CB34
:05CDE200E0FF12CF0F7D
:10CDE700E4FF7E01D2B0EE600DA2B0E433FE0FEF98
:10CDF700B4FFF37F0022D2B112D1CBC2B112D1CB93
:02CE07007F01A9
:01CE09002206
:05BE2600901A64EFF02A
:10BE2B00E4A3F0A3F0EF24FB601424DD6018246876
:10BE3B00601C24AE701E901A657407F08016901A61
:10BE4B00657402F0800E901A657401F08006901AEA
:10BE5B00657404F012D13F7F6812CF0F12CDE790BB
:10BE6B001A66EFF07002FF227FC012CF0F12CDE7E0
:10BE7B00901A66EFF07002FF22901A6512CDE2A3C2
:10BE8B00EFF07002FF22901A6412CDE2901A66EF67
:09BE9B00F012D20712CF94E0FF6F
:01BEA400227B
:07D2400025752020202000CD
:1099A30041170700602016E32020202020202020DC
:1099B30020202020202020202020202020202020A4
:1099C30020202020202020204117080044170300D6
:0399D30000000091
:0AD21E00E4F58475C3A643C00422A2
:03243B0002BFA23B
:10BFA200C0E0C0F0C083C082C0D075D008AFC1EF7E
:10BFB2002480601724E0605424F8603A24F060364C
:10BFC2002458704B901707E4F08044901707E0FF65
:10BFD20004F074D32FF582E43416F583E5C2F090B1
:10BFE2001707E064017028E5C230E723E5C2543F39
:10BFF200FF129C528019901708E0FF04F074E32F9F
:10C00200F582E43416F583E0F5C2800312AD5B538A
:0DC01200C0F7D0D0D082D083D0F0D0E03283
:10AD5B009016D3E0B40700400302AE2F90AD6EF80F
:10AD6B0028287302AD8302ADA502ADC602ADE70282
:10AD7B00AE0802AE2002AE2B9016D7E0900010F07A
:10AD8B009016D6E0900011F09016D5E0900012F0DE
:10AD9B009016D4E090001302AE279016D7E09000E7
:10ADAB001AF09016D6E090001BF09016D5E09000AC
:10ADBB001CF09016D4E090001D80619016D7E090A7
:10ADCB000024F09016D6E0900025F09016D5E09078
:10ADDB000026F09016D4E090002780409016D7E024
:10ADEB00901703F09016D6E0901704F09016D5E06C
:10ADFB00901705F09016D4E0901706F0229016D419
:10AE0B00E09015BEF0700B900010F0A3F0A3F0A330
:10AE1B0004F0D214229016D4E090163FF0D21422F4
:05AE2B00D20FD2142239
:109C5200E4901708F0EFB40A004003029D58909C6C
:109C620067F8282873029C85029CAB029CDC029C4C
:109C7200F9029D16029D37029D43029D48029D589E
:109C8200029D5190170C74FFF0A374D2F0A374409C
:109C9200F09011C5E0FFA3E090170FCFF0A3EFF013
:109CA2007B017A1679E3025D2090001EE09016E3B4
:109CB200F090001FE09016E4F0900020E09016E58E
:109CC200F0900021E09016E6F0900022E09016E776
:109CD200F0900023E09016E8F022900013E0901636
:109CE200E3F0900012E09016E4F0900011E090167C
:109CF200E5F0900010803890001DE09016E3F0909F
:109D0200001CE09016E4F090001BE09016E5F09045
:109D1200001A801B900027E09016E3F0900026E0E6
:109D22009016E4F0900025E09016E5F0900024E013
:109D32009016E6F022E49016E3F0A3F0A3F0A3F06D
:109D4200229015BE800390163FE09016E3F0229019
:109D520016E37414F022E4FF748C2FF582E43416B7
:109D6200F583E0FE74E32FF582E43416F583EEF01A
:059D72000FEFB420E337
:019D770022C9
:01FFFA000105
:02FFFB0081C1C2
:03FFFD00020002FD
:0599D600420DDE00005F
:10B58100900DF1E0600302B627900DF0E0C394093D
:10B59100500302B627900DDEE475F00112330290DC
:10B5A1000DDEE07004A3E064647022900DDEF0A370
:10B5B100F0900DE412352CEF24FFFFEE34FFFEED89
:10B5C10034FFFDEC34FFFC900DE4123554900DE88E
:10B5D10012352C900DE4123548D31234F55047E45E
:10B5E100FFFEFDFC900DE4123548C31234F57005E1
:10B5F100900DF0F022900DEC12352C900DE41235E7
:10B6010048D31234F55007900DF0740BF022900DD1
:10B61100E812352C900DE4123548D31234F550065A
:06B62100900DF0740AF028
:01B627002200
:0C55B8009017541235B19017571235545B
:1055C400E490175BF0A3F0A3F0A3F090176AF0A3A4
:1055D400F0900DF0E07003025939E064076004E0D4
:1055E400B40A087B017A0D79F280067B017A177977
:1055F400E790176C1235B190181DE4F0A37443F0D2
:10560400A37411F0E4A3F07B017A0D79F7A31235AA
:10561400B19018247402F0A37424F090176C12351E
:10562400917D447C0012722890175FEFF0C3648070
:105634009480500302592AE0FF3395E0FE7C007DFC
:105644003D12329B742D2FF9740C3EFA7B01901796
:10565400611235B190175BE07002A3E06003025958
:105664001A901760F090CEFEE493FF901760E0C3A9
:105674009F40030258FD901754123591901757120A
:10568400352C12602090176412355490176AE090FC
:105694000DFFF090176BE0900E00F090176C123530
:1056A4009174019017E76B7008E965827003EA65ED
:1056B400837007900DF604F08005E4900DF6F07BFE
:1056C400017A0D79F7C003C002C001901761123549
:1056D4009190000E1235EA901761123591900011E5
:1056E400740275F02412337B128B9690175DEEF0E2
:1056F400A3EFF0900DF0E0B4070B90175BE4F0A378
:1057040004F00258FD901760E02401FFE433FEEF3B
:105714007802C333CE33CED8F9FF901768EEF0A3E6
:10572400EFF0C390175DE064809480501590176883
:10573400E0FEA3E0FF7C007D6412329B12D04002A5
:1057440058F4900DF67401F07B017A0D79F79017F7
:10575400BA7402F0A37424F0901768E0FEA3E0FF8B
:105764007C007D6412329B9017BCEEF0A3EFF090A6
:10577400175FE0FF1289D390175DEEF0A3EFF0D32B
:105784009400EE6480948050030258DB900DFEE098
:10579400FFE4FCFDFE7808123519A804A905AA0641
:1057A400AB07900DFDE0FFE4FCFDFE1234D2780857
:1057B400123519A804A905AA06AB07900DFCE0FF51
:1057C400E4FCFDFE1234D27808123519A804A905A8
:1057D400AA06AB07900DFBE0FFE4FCFDFE1234D2F9
:1057E400901764123548C31234F560030258DB90F5
:1057F4000DF7E0640260030258DB900DF0E024FD35
:10580400602624F9602214601F240A60030258CF22
:1058140012D101BF020F900DF07403F012CFB21237
:10582400CFEE0258EA0258CF12D101EF64056003AB
:105834000258C278107C007D017B017A0E7907FE44
:105844007F0412321D12CFD012248612CFEE12A87A
:10585400D8900DE4123554900DE412352C900DE0DF
:1058640012355412CFB274FFFFFEFDFC900DE4120A
:105874003548C31234F57007900DF104F0802FE41D
:105884007B02FAF9F8900DE412352C123440900D95
:10589400E8123554E47B08FAF9F8900DE412352C3B
:1058A400123440900DEC123554E4900DF1F0900D4B
:1058B400F07409F090175BE4F0A304F0802812D18F
:1058C40001EF6402700302574C800090175B74FF71
:1058D400F0A3749CF0800F901768E0FEA3E0FFA390
:1058E400EE8FF012330290175BE07002A3E07009B0
:1058F400901760E004F002566990175DE0FEA3E0A3
:10590400FFD39400EE6480948040030256589017AD
:105914005BEEF0A3EFF0900DF674FFF090175FE0EC
:10592400FF12B6CF800F90175FE0FE3395E090171B
:0D5934005BF0A3CEF090175BE0FEA3E0FF58
:015941002243
:0C6020009018BD1235B19018C012355414
:10602C00900DF0E024FD70030260C824FC60142481
:10603C00FD70030260C81470030260C8240A600378
:10604C00026148122416EF2401FFE43EFEE433FD06
:10605C00E433FC7810123519C004C005C006C00723
:10606C00122416EF2401FFE43EFEE4FCFDD003D025
:10607C0002D001D0001234D29018C41235549018AA
:10608C00C412352C900DFBEFF09018C412352C78FF
:10609C0008123506900DFCEFF09018C412352C78D0
:1060AC0010123506900DFDEFF09018C412352C78B7
:1060BC0018123506900DFEEFF0026152900DFEE0C5
:1060CC00FFE4FCFDFE9018C41235549018C4123530
:1060DC002C7808123519A804A905AA06AB07900D4F
:1060EC00FDE0FFE4FCFDFE1234D29018C4123554CE
:1060FC009018C412352C7808123519A804A905AAD1
:10610C0006AB07900DFCE0FFE4FCFDFE1234D290D0
:10611C0018C41235549018C412352C78081235193D
:10612C00A804A905AA06AB07900DFBE0FFE4FCFD53
:10613C00FE1234D29018C4123554800A9018C4122E
:10614C00356000000000900DF77401F0A3F0A3740B
:10615C0006F07E007F047D007B017A0E790B1238ED
:10616C00D17E007F047D007B017A0E790F1238D12D
:10617C0078137C0E7D017B017A00791E7E007F06F0
:10618C0012321D9018BD123591E94A601178637C6A
:10619C000E7D019018BD1235911238B48005E49033
:1061AC000E63F07B017A0E79E39018C81235B1902A
:1061BC0018C8E475F00112359A746312328990187C
:1061CC00C8E475F00112359A74821232899018C89D
:1061DC00E475F00112359A74531232899018C8E4A0
:1061EC0075F00112359A74631232899018C8E475EF
:1061FC00F00112359A74351232899018C8E475F092
:10620C000112359A7401123289900DF0E024FD6070
:10621C004E24FC700302633D24FD70030262FB14E8
:10622C0070030262FB240A6003026367900E017420
:10623C0080F07E007F047D007B017A0E7907123896
:10624C00D17E007F047D007B017A0E79031238D158
:10625C009018C8E475F00112359A740102632C9001
:10626C000E017480F07E007F047D007B017A0E7934
:10627C00031238D19018C8E475F00112359A7403E2
:10628C0012C2CD12C75F9018C81235B19018C8E46D
:10629C0075F00112359A74321232899018C8E4756F
:1062AC00F00112359A7404123289E4FF74072FF549
:1062BC0082E4340EF583E0FE9018C8E475F0011208
:1062CC00359AEE1232890FEFB404E19018C81235EA
:1062DC009112B37712C3909018C81235B17E007F1B
:1062EC00047D007B017A0E79071238D1026367E4D2
:1062FC00900E01F0FE7F04FD7B017A0E79071238B7
:10630C00D178037C0E7D017B017A0079107E007FB1
:10631C000412321D9018C8E475F00112359A7403FA
:10632C0012C2CD9018C81235B112B37712C3908037
:10633C0024E4900E01F0FE7F04FD7B017A0E7907B8
:10634C001238D19018C8E475F00112359A740712FE
:10635C00C2CD12C75F9018C81235B19018C812354B
:0C636C009174FF1232899018C412352C75
:016378002202
:10B811007B017A0E79E79019D31235B1E92437F912
:10B82100EA3401FA9019D61235B19019D312359133
:10B83100123243FE6F606EEEF460219019D612351C
:10B8410091C003C002C0019019D3123591D3D082A7
:10B85100D083D0E0E99582EA9583400E7B007A009F
:10B8610079009019D31235B1803BEE70179019D43D
:10B87100E475F0011233029019D31235911232435B
:10B8810060EB80A69019D4E475F00112330290198F
:10B89100D312359112324304FEFD9019D4E48DF098
:0BB8A10012330280859019D3123591FC
:01B8AC002279
:10D10100E4FC7F3512B811E94A600790000212323F
:04D111005CFCAF040F
:01D1150022F7
:10A8D8009019AC123560000000007F3312B8119057
:10A8E80019B01235B1E94A700302A9C29019B1E44E
:10A8F80075F0021233029019B0123591123243FFEB
:10A90800E4FCFDFE78181235199019AC12355490F4
:10A9180019B1E475F0011233029019AC123548C030
:10A9280000C001C002C0039019B012359112324321
:10A93800FFE4FCFDFE7810123519D003D002D001D7
:10A94800D0001233A89019AC1235549019B1E4759F
:10A95800F0011233029019AC123548C000C001C092
:10A9680002C0039019B0123591123243FFE4FCFD86
:10A97800FE7808123519D003D002D001D000123366
:10A98800A89019AC1235549019B1E475F00112333E
:10A99800029019AC123548C001C002C0039019B02A
:10A9A800123591123243FFE4FCFDFED003D002D0F1
:10A9B800011233A89019AC1235549019AC12352CE9
:01A9C800226C
:10CFB2007F3612B811E94A6014740229F9E43AFA88
:0DCFC20078F27C0D7D017E007F0412321D8F
:01CFCF00223F
:09C2CD001232899018C812359153
:06C2D600901A671235B159
:10C2DC00901A67E475F00112359A743D1232899008
:10C2EC001A67E475F00112359A7407123289901AA4
:10C2FC0067E475F00112359A7401123289E4FF7407
:10C30C001E2FF582E43400F583E0FE901A67E47585
:10C31C00F00112359AEE1232890FEFB406E1901A41
:04C32C0067123591CE
:01C3300022EA
:06C75F009018C81235B16C
:06C76500901A6A1235B1C2
:10C76B00901A6AE475F00112359A74361232899078
:10C77B001A6AE475F00112359A7404123289E4FFD7
:10C78B0074F22FF582E4340DF583E0FE901A6AE41F
:10C79B0075F00112359AEE1232890FEFB404E19065
:05C7AB001A6A1235912D
:01C7B0002266
:06B377009018C012352CF5
:10B37D009019B31235B19019B6123554E4FFFEFD94
:10B38D00FC9019B6123548C31234F5700C90CEFFEF
:10B39D001235389019B61235549019B3E475F00181
:10B3AD0012359A74331232899019B3E475F0011283
:10B3BD00359A74041232899019B612352C781812F8
:10B3CD0035069019B3E475F00112359AEF123289F2
:10B3DD009019B612352C78101235069019B3E47504
:10B3ED00F00112359AEF1232899019B612352C7878
:10B3FD00081235069019B3E475F00112359AEF1263
:10B40D0032899019B9E0FF9019B3E475F001123546
:0CB41D009AEF1232899019B31235912277
:06C390009018C81235B13F
:10C39600901A6D1235B1901A6DE475F00112359A46
:10C3A6007437123289901A6DE475F00112359A7459
:10C3B60003123289901A6DE475F00112359A7401F0
:10C3C600123289901A6DE475F00112359A740312CF
:10C3D6003289901A6DE475F00112359A740612329C
:08C3E60089901A6D12359122B5
:10CFD0007F0112B811E94A6014740229F9E43AFA9F
:0DCFE000781A7C007D017E007F0412321D56
:01CFED002221
:102486007F0312B811E94A6013740229F9E43AFA93
:0C24960078247C007D017E000F12321DB6
:0124A2002217
:10CFEE007F0612B811E94A6014740229F9E43AFA7C
:0DCFFE00782E7C1A7D017E007F0412321D0A
:01D00B002202
:06B149009019D9123554E3
:10B14F00900DF1E0600302B1F5900DF0E0C39409AA
:10B15F00500302B1F57B007A0079009019D91235AE
:10B16F002C1255B89019DDEEF0A3EFF064014E608C
:10B17F006D900DF0E0B40A2FE47B02FAF9F8900D10
:10B18F00E012352C123440900DE8123548C31234BA
:10B19F00F57014900DE812352CE47B02FAF9F812D1
:10B1AF003440900DE88034900DF0E0B40B30E47B28
:10B1BF0008FAF9F8900DE012352C123440900DEC8E
:10B1CF00123548C31234F57015900DEC12352CE47E
:10B1DF007B02FAF9F8123440900DEC123554900DB1
:10B1EF00F07409F080089019DDE4F0A304F09019D1
:06B1FF00DDE0FEA3E0FF0D
:01B205002226
:0CCC22009019BA1235B19019BD123554AA
:10CC2E007E007F047D007B017A0079101238D1904E
:10CC3E000DF07401F09019BA1235919019BD12359C
:04CC4E002C1255B897
:01CC520022BF
:068B960090187F1235B1BA
:108B9C00E94A70057EFF7F852290187F123591126D
:108BAC00CEA4901882EEF0A3EFF04E7003FEFF22DD
:108BBC0090187F12359190000E1235BA90188612CB
:108BCC0035B1901883E02408FF901882E03400FE41
:108BDC00901884F0FCA3EFF0FD90187F12359112E1
:108BEC003318FBAAF0C002C00390187F1235919085
:108BFC000002123343FF901862E5F0F0A3EFF07B14
:108C0C00017A007910A31235B190187F123591E9D1
:108C1C002404F9E43AFA9018671235B1D003D00263
:108C2C007F1112935A901889123554901886123568
:108C3C0091901882E0FFA3E0901914CFF0A3EFF00D
:108C4C0090188912352C12AFC29018891235549095
:108C5C00188912352C12C8009018891235549018A6
:108C6C008BE0FFA3E0A3CFF0A3EFF090187F1235B9
:108C7C009190001B12325CFD901884E0FFA3E090F1
:108C8C00183FCFF0A3EFF090187F1235911282614C
:108C9C00EF64016002807790187F123591123318BF
:108CAC00E5F0FF12CB1190187F123591123318FF9B
:108CBC0012CB1190187F123591900002123343E5BC
:108CCC00F0FF12CB1190187F1235919000021233E5
:108CDC0043FF12CB11901884E0FF12CB1190188532
:108CEC00E0FF12CB1190188DE0FF12CB1190188E73
:108CFC00E0FF12CB1190187F123591901882E0FC96
:108D0C00A3E0FD12C84FD3EF648094805006EF337C
:108D1C0095E0FE2290187F1235919000111233438A
:038D2C00FFAEF0A7
:018D2F002221
:10CCE200901A70EFF0A3EDF0A3EBF012A1EBEF4E70
:10CCF20070057EFF7F8B22C2AF12D1F9D2AF901A9C
:0DCD020070E0FFA3E0FDA3E0FB129B2722E1
:0599DB004217E000004E
:10C09B0012A1EBEF4E70057EFF7FFF22E49017E2BB
:10C0AB00F0A3F0FBFAF9A31235B17E007F047D00FB
:10C0BB000B7A1779EF1238D17E007F047D007B015C
:10C0CB007A1779EB1238D17E007F047D007B017AE1
:10C0DB000C79291238D190CF057401932409FFE410
:10C0EB00933400FE7D007B017A0D795E1238D1907E
:10C0FB0017EA74FFF09017E9F09017E8F09017E744
:06C10B00F07E007F01221E
:10CD660012A0D1901A98EFF030E210129060C3EF43
:10CD760064809480400F12A5FB800A901A98E030D8
:0ACD8600E60312AEFA901A98E0FFDF
:01CD90002280
:10A0D100E49017E2F0A3F012D167D3EF9400EE649D
:10A0E10080948050037F002212C3EEEF9019E0F0BC
:10A0F100A3E4F012C3EE9019E0EE8FF01233029058
:10A1010019E0E0FEA3E0FFD394EEEE94055004EFD6
:10A111004E700612D1537F0022901877123591901C
:10A1210019E0E0FEA3E029F9EA3EFAA31235B19065
:10A13100CEF1E493FE740193FF2411F974063EFA03
:10A141007B01C003C002C0019019E2123591D3D046
:10A1510082D083D0E0E99582EA958350089019E294
:10A16100123591802E90187712359174112FF58246
:10A1710074063EFEC3E58299FFEE9AFEC39019E193
:10A18100E09FFF9019E0E09EFE7B0174112FF974AE
:10A19100063EFA9017E41235B112BB06EF146009BE
:10A1A1000470037F20227F00221277179019DFEFBE
:10A1B100F06004E030E30512AEFA802890CEFDE4B1
:10A1C1009360219019DFE0FF20E00620E10330E2F7
:10A1D100137B017A0079149019831235B17A1779BA
:09A1E100EF12AE409019DFE0FF1F
:01A1EA002252
:0B82610090183EEDF090183B1235B174
:10826C00E94A70037F8522900DF6E0FEF4601290CF
:10827C00183B123591123318644445F060037FA407
:10828C0022EE6401601D78107C007D017B017A0C6C
:10829C0079297E007F04123B7CEF3395E04F70030D
:1082AC007F852290183FE475F0141233029017E08A
:1082BC00E475F0011233029017E0E0FFA3E0901890
:1082CC0047CFF0A3EFF090183B12359190001D12A0
:1082DC00325C30E40590CF04800390CF03E493FE2E
:1082EC0090183EE0FDEDFF901849EEF0A3EFF090F2
:1082FC00183FE0FCA3E0FDE4901775F0A3F0901894
:10830C0049E0FFA3E0901777CFF0A3EFF07B017A61
:10831C00007910A31235B190183B123591E9240461
:10832C00F9E43AFA90177C1235B1E490177FF0908B
:10833C001847E0FAA3E0FB7F007E4512880E9018E8
:10834C004112355490184112352C7808123506908C
:10835C001845EFF090184112352C901846EFF0901C
:10836C00183EE0B40107E490184BF08012900DF623
:10837C00E0B401047F0180027F0090184BEFF09075
:10838C00183B12359190184BE090194BF07D007C06
:10839C00081299EBEF64016001227F4512CB11E4C6
:1083AC00FF12CB1190183FE0FF12CB11901840E058
:1083BC00FF12CB11901847E0FF12CB11901848E038
:1083CC00FF12CB11E4FF12CB11E4FF12CB1190186A
:1083DC003B12359190001D12325C30E40590CF04B5
:1083EC00800390CF03E493FF12CB1190183EE0FF73
:1083FC0012CB11901845E0FF12CB11901846E0FFFC
:10840C0012CB11900010E0FF12CB11900011E0FF85
:10841C0012CB11900012E0FF12CB11900013E0FF71
:10842C0012CB1190183B12359190000412325CFF64
:10843C0012CB1190183B12359190000512325CFF53
:10844C0012CB1190183B12359190000612325CFF42
:10845C0012CB1190183B12359190000712325CFF31
:05846C0012CB117F019D
:0184710022E8
:10AEFA009017E4123591C003C002C001901877126E
:10AF0A003591D082D083D0E06B7008E965827003F6
:10AF1A00EA6583700302AFC19017E4123591C0034A
:10AF2A00C002C001901877123591C3D082D083D065
:10AF3A00E0E99582EA95835017901877123591AE19
:10AF4A0002AF019017E4123591C3E99FFFEA80220C
:10AF5A009017E4123591AE02AF019018771235912D
:10AF6A00C3E99FFFEA9EFEC390CEF17401939FFF4F
:10AF7A00E4939E901A93F0A3EFF090187CE0FEA35E
:10AF8A00E0FFD3901A94E09F901A93E09E40030248
:10AF9A00D153C2AF901A93E0FEA3E0FFC390187D8D
:10AFAA00E09FF090187CE09EF09017E412359190A3
:07AFBA0018771235B1D2AF88
:01AFC100226D
:10771700E4901854F012C3EE901851EFF0E0FE54C5
:107727000FA3F0EEC4540F64046003027974E0FF02
:10773700C394055003027974EF25E025E0F024ECAB
:10774700A3F012C3EE90184CEFF012C3EEEF9017B0
:10775700E2F0A3E4F012C3EE9017E2EE8FF01233DB
:1077670002C39017E3E094149017E2E094005003EB
:107777007F002212C3EEEF901855F0A3E4F012C376
:10778700EE901855EE8FF012330212C3EEEF9018F9
:1077970057F0A3E4F012C3EE901857EE8FF01233B0
:1077A70002901858E030E507901854E04410F012A2
:1077B700C3EE90184DEFF012C3EE90184EEFF01491
:1077C700601D14602324F1600D240B70249018545D
:1077D700E04401F08022901854E04402F0801990B0
:1077E7001854E04404F08010901854E04440F080AE
:1077F70007901854E04408F012C3EE90184FEFF0CA
:1078070012C3EE901850EFF012C3EE9017EFEFF09F
:1078170012C3EE9017F0EFF012C3EE9017F1EFF0EE
:1078270012C3EE9017F2EFF09017EFE0FFC394E06A
:107837004009EFD394EF50037F002212C3EE901755
:10784700EBEFF012C3EE9017ECEFF012C3EE9017C8
:10785700EDEFF012C3EE9017EEEFF0900010E0702E
:107867001A901854E030E21378107C007D017B01F8
:107877007A1779EB7E007F0412321D12D25AEF700D
:1078870047900010E0FF9017EBE0FE6F6004EEF406
:107897007033900011E0FF9017ECE0FE6F6004EE8C
:1078A700B4FF22900012E0FF9017EDE0FE6F600436
:1078B700EEB4FF11900013E0FF9017EEE0FE6F604B
:1078C70007EEF460037F0022901851E0FE90184CF9
:1078D700E0FDEDFFC006C0079017E2E0FCA3E0FD66
:1078E700901857E0FFA3E0901775CFF0A3EFF09043
:1078F700184DE0FEA3E0FBEBFF901777EEF0A3EF48
:10790700F07B017A1779EBA31235B17A1779EF90EB
:10791700177C1235B1901853E090177FF0901855E7
:10792700E0FAA3E0FBD007D00612880E9018591290
:10793700355490185912352C780812350690184F7F
:10794700E0B5070D90185912352C901850E06F606C
:10795700037F0022901852E0FFC39017E3E09FF0E7
:0F7967009017E2E09400F0901854E0FF227F00A8
:0179760022EE
:02D25A00E4FFEF
:01D25C0022AF
:0E880E00901771ECF0A3EDF0A3EAF0A3EBF0ED
:10881C00E4FCFD901780123554901780123548C037
:10882C0000C001C002C0039017791235919000016D
:10883C0012325CFD123243FEEDFFE4FCFDD003D09E
:10884C0002D001D0001233A8901780123554901723
:10885C0080123548C000C001C002C00390177912C5
:10886C00359190000212325CFE90000312325CFDD6
:10887C00EDFFE4FCFDD003D002D001D0001233A8F0
:10888C00901780123554901780123548901771E06C
:10889C00FEA3E0FFE4FCFD1233A8901780123554C0
:1088AC00901780123548901773E0FEA3E0FFE4FCAC
:1088BC00FD1233A89017801235549017801235484A
:1088CC00901775E0FEA3E0FFE4FCFD1233A89017AF
:1088DC0080123554901780123548901777E0FEA31C
:1088EC00E0FFE4FCFD1233A890178012355490176A
:1088FC0080123548C000C001C002C00390177C1222
:10890C00359190000112325CFD123243FEEDFFE412
:10891C00FCFDD003D002D001D0001233A8901780F8
:10892C00123554901780123548C000C001C002C0E7
:10893C000390177C12359190000212325CFE90006D
:10894C000312325CFDEDFFE4FCFDD003D002D0013C
:10895C00D0001233A890178012355490177FE0FF87
:10896C00604F20E04CE4901786F090177FE0FF906A
:10897C001786E0C39F503A12C3EEEF901784F0A312
:10898C00E4F012C3EE901784EE8FF01233029017BE
:10899C0080123548901784E0FEA3E0FFE4FCFD1242
:1089AC0033A8901780123554901786E02402F0807B
:1089BC00B990178012352C12C800901780123554BC
:0689CC0090178012352C0B
:0189D2002282
:1090600090193D74FFF012C3EE90193CEFF06408C4
:1090700060030291E490CF0504932408FFE4933445
:1090800000FE9017E2E0FCA3E0FDD39FEC9E4003BE
:109090000291E4C3ED9404EC940050030291E4E4E3
:1090A00090181DF0A3F0A304F0E4A3F0FBFAF9A3D9
:1090B0001235B1E4901824F0A3F00B7A1779EFFD84
:1090C000FC12722890193DEFF0C364809480500325
:1090D0000291E412C3EE90193CEFF09017E3E02404
:1090E000FEFE9017E2E034FF90193FF0A3CEF0901F
:1090F000193DE0900D5EF090193FE0900D5FF0900B
:109100001940E0900D60F090193F74FF75F0FE1269
:10911000330212C3EE90193EEFF012C3EE90193EE7
:10912000E02408F0C3940850010F90193EE0900D20
:1091300061F0A3EFF07B017A0D796390194112354C
:10914000B190187712359190CEF1E493FC740193AD
:109150002411F58274063CFCC3E58299FFEC9ACF9A
:109160002401CF3400901944F0FCA3EFF0FD9019D6
:109170003FE0FEA3E0FFD39DEE9C5012A312359179
:10918000A801AC02AD039018771235918053901965
:1091900044E0FEA3E0FF901941123591A801AC0212
:1091A000AD0390187712359112321D901944E0FEEC
:1091B000A3E0FFC3901940E09FF090193FE09EF0BC
:1091C000E0FCA3E0FDC004C005A3123591E92FF92E
:1091D000EA3EA801FCAD037B017A067912D007D0E4
:0C91E0000612321D12AEFA90193DE0FF9D
:0191EC002260
:10A5FB00900D5EE09019E7F0C364809480500302E5
:10A60B00A6F0E0FFFD3395E0FC900C4B75F03DEDB3
:10A61B00123994EC75F03DA42583F583E020E0031B
:10A62B0002A6F0EF3395E0FE7C007D3D12329B7469
:10A63B002D2FF9740C3EFA7B019019E81235B1906D
:10A64B00001B12325C6401600302A6F0900D5FE008
:10A65B009019E5F0A3E4F0900D60E0FF9019E5E4AC
:10A66B008FF012330290CF057401932406FFE4930D
:10A67B003400FED39019E6E09F9019E5E09E505D03
:10A68B007A0D7961C003C002C0019019E8123591AF
:10A69B0090000E1235EA9019E5E0FEA3E0FF901949
:10A6AB00E8123591900011EE8FF012337BEF2402FC
:10A6BB00FFE43E90183FF0A3EFF07D01128261EFB3
:10A6CB00601BE4FF12CB11E4FF12CB119019E812BF
:10A6DB0035919019E5E0FCA3E0FD12C84F9019E706
:05A6EB00E0FF12B6CFF4
:01A6F0002247
:10D15300C2AF12D05A7B017A0679129017E41235C6
:04D16300B1D2AF2274
:10935A0090185DEFF0A3ECF0A3EDF0A3EAF0A3EB15
:01936A00F012
:10936B0090186412359190000112325CFD12324359
:10937B00FEEDFFE4FCFD90186A12355490186A124A
:10938B003548C000C001C002C0039018641235916B
:10939B0090000212325CFE90000312325CFDEDFF76
:1093AB00E4FCFDD003D002D001D0001233A89018FA
:1093BB006A12355490186A123548C000C001C002B9
:1093CB00C00390186712359190000112325CFD12A8
:1093DB003243FEEDFFE4FCFDD003D002D001D00000
:1093EB001233A890186A12355490186A123548C077
:1093FB0000C001C002C003901867123591900002A3
:10940B0012325CFE90000312325CFDEDFFE4FCFDBA
:10941B00D003D002D001D0001233A890186A1235B5
:10942B005490186A12354890185DE0FFE4FCFDFE7D
:10943B001233A890186A12355490186A1235489056
:10944B00185EE0FEA3E0FFE4FCFD1233A890186A5F
:10945B0012355490186A123548901860E0FEA3E05C
:10946B00FFE4FCFD1233A890186A12355490186A69
:10947B00123548901862E0FEA3E0FFE4FCFD1233C6
:10948B00A890186A12355490185DE0B4111A901810
:10949B006A12354890185EE0FEA3E0FFE4FCFD1273
:0E94AB0033A890186A12355490186A12352CA6
:0194B9002290
:0CAFC20090190D1235549019111235B180
:10AFCE00901914E0FCA3E0FD4C700302B080E05435
:10AFDE0001901918F0ECC313FFED13901914CFF074
:10AFEE00A3EFF090191474FFF5F012395245F0608A
:10AFFE0046901911E475F00112359A1232439019E8
:10B00E0016F0A3E4F090191175F00112359A123270
:10B01E0043FF901916E48FF012330290190D12357A
:10B02E0048901916E0FEA3E0FFE4FCFD1233A89051
:10B03E00190D12355480AC901918E0603590191125
:10B04E001235911232437F00FE901916F0A3EFF0E5
:10B05E00901916EEF0A3EFF090190D1235489019D5
:10B06E0016E0FEA3E0FFE4FCFD1233A890190D12CA
:08B07E00355490190D12352C18
:01B0860022A7
:10C800008038901A3212352C7810123506EC4D4EC5
:10C810004F602F901A3212352CE4FDFCC004C00585
:10C82000C006C007901A3212352C7810123506D087
:10C8300003D002D001D0001233A8901A321235541E
:0FC8400080C0901A3212352C123987E4FDFC2289
:0C241600C2AF90187AE0FEA3E0FFD2AF46
:012422002297
:10D040007B017A1A7907AD07AC0612BCA07B017A86
:09D050001A790712C60AEF60F418
:01D0590022B4
:107977007B017A0C792D9018DA1235B1E49018DD75
:10798700F0A3F0A3F0A3F0A3F0A3F090CEEE9375CD
:10799700F03DA4242DF9740C35F0FA9018E3123554
:1079A700B1900DF0E0FF70057EFF7F9D22EF640A26
:1079B7006004EFB40B09900DE012352C12B1491297
:1079C700CD669018D9EFF030E003027A969018D977
:1079D700E030E103027A969018E4E475F03D123343
:1079E7000290CEEEE49375F03DA4242DF9740C3586
:1079F700F0FA7B01C003C002C0019018E312359171
:107A0700C3D082D083D0E0E99582EA9583400C7B8E
:107A1700017A0C792D9018E31235B19018E31235DD
:107A27009190001B12325C64067031E92438F9E446
:107A37003AFA12C60AEF60249018E31235919000C3
:107A47001112334345F0700B90001F12325CC39440
:107A57000540099018DA1235B1027B3D7B017A188F
:107A670079DA122406EF3395E0FE9018E1F0A3EFE0
:107A7700F0648E7002EEF47003027B3D9018E1E033
