:03000000020026D5
:0100030032CA
:01000B0032C2
:0100130032BA
:01001B0032B2
:030023000200ECEC
:1000260075816FE47908F709B970FBF590F5A0E5DD
:10003600805460B42005758DFA800BB44005758D2B
:10004600FD8003758DF44387807598D87589217571
:1000560088557553FAD22EC22F7558067A01743D0B
:10006600792C1204FE755D00E52CC39410402C75A6
:100076005D0194104025755D029418401E755D0360
:100086007A017428792C1204FE852C8DE52C94FABD
:100096006009E52C94FD6003758DF475A8907A02CD
:1000A6007436792C1204FE852C5A852D5BD22D7A56
:1000B600027426792C1204FEE52C552DB4FF02C2DB
:1000C6002D7A12746779301204FE7A01745F792CE6
:1000D6001204FED232E52CB40002C232D21FD23351
:1000E600D21902010732C230209803C29932C2984F
:1000F60053903F75160075816F1200EBAA99120690
:1001060079C224C22BB2822027F753903CE589544A
:10011600F7F589758C24758A00C28DD28C308DFDD9
:10012600439080758A00758C90C28D308DFDC28C8F
:10013600C28DC231201D06E524540E7002C2205322
:1001460024F1532238432240755242120257532259
:1001560038432241755247120257532238432242EE
:1001660075524C120257E524540E70C62020C33037
:100176001E0502057280BB2019033018F8C218D27A
:100186002BD228751A42203106201F1702021E2084
:100196003303120B8075453F754480E4F543F54201
:1001A60002021E75182E751942120202120F5B7595
:1001B6001947120202120BBE120F5B75194C12027E
:1001C60002120BBE120F5B75073E75064C7505CC09
:1001D6007504CC120CC9120F5B7C00AD53E4120DF2
:1001E600C1120D411209BAE51A2405F51AC394473E
:1001F6006002C22BE51AB451AD020138A8180808EE
:1002060088188604088605E504120DC1120F5BA93D
:100216001912066D120CC922A91A12066D120F5B6D
:100226007507427506C8E4F505F504120CC91209EE
:10023600BAE51A2405F51AB44C08201F0320320229
:10024600C22BB451D3201F063032031207EE02012F
:01025600386F
:10025700D083D0827553FA301C0385545330200362
:10026700755319852290E55375F0C8A49400F4F5E9
:100277008AF55FE5F09401F4F58CF55EE58954F7AE
:10028700F589C28DD28CE522540375F00CA4F55183
:10029700E5522404F9E7A21D721E5002E5552325F5
:1002A70051F5512020472479755600791D7A02129D
:1002B70004F6E51EA2E7922CC2E7FCAD1DE4120D81
:1002C700C1120F5B75073B75060375051275049719
:1002D700120CC9120F5BE55375F002A4F50585F002
:1002E70004E4120DC1120CC9792C120661308DFD80
:1002F700E58A2429F413500100F9D9FEA2B2920F1E
:10030700C28C855F8A855E8CE5894408F5894390B0
:10031700C0D28CC28D208D14B28220B2F8C28CC399
:10032700E58A955FF58AE58C955EF58CC28CA952B6
:10033700A78A858A1909A78C858C18A28D922450C3
:1003470002D23153903FE58954F7F589E55375F0AB
:1003570028A4F4F58AE5F0F4F58CC28DD28C308DA3
:10036700FD439080C28CC28DE55375F0A0A4F4F5CF
:100377008AE5F0F4F58CD28C090909E55375F0A8E4
:10038700A485F01AF51BE55375F01CA485F01CF540
:100397001DC3E51B9519E51A9518E77224400EC38E
:1003A700E51D9519E51C9518E74001040454072439
:1003B7004C83301D02E555C7540767603EE522545C
:1003C70003B400115322C3E546C403543842224301
:1003D7002403020402B401125321F8E54B540742E7
:1003E700218521A04324050204025321C7E550C4F7
:1003F70003543842218521A043240902040E00003A
:1004070001020304050505302403020465A9528788
:1004170005098704E4120DC1A21A721B721E40213E
:10042700120F5B792C12066DA20FB3202C3C5006DD
:10043700120BBE020481120BBAE50720E720020463
:1004470081301E0CE507A20FB392E7F5070204817E
:10045700201A2C792C12066D020486120F7AE4F505
:1004670007F506F505F504020481822C50ED120B01
:10047700BAE50730E7E8C2E7F507792C120661A26B
:100487001A721B721E4058755600E55124027A02F3
:10049700791D1204F6851D05851E04E4120DC1128F
:1004A7000F5B750737750680E4F505F504120CC96F
:1004B700E5522404F9E7F518601AC3940160151290
:1004C7000F5BC374409518F507750680E4F505F5CD
:1004D70004120CC9120F5B792C12066D120CC9A9F4
:0F04E70052120661308DFDC28CC28DB282E47359
:1004F600D22E8002C22EC22FF518202E15302D12B4
:10050600E556955B6002500AE518C3955A6002509D
:100516000122E518F5F07D14C280120B61DDF9E5C4
:100526005623555844A0120B2540EBE5F0120B2B31
:10053600202E07E7120B2B02055D120B61E55655BF
:100546005844A0120B1F120B57302F0AC0F0120B83
:1005560098D0F002055DF7120B6109E5F02401F56C
:10056600F050060556E5585256DAB422053CE53CED
:10057600B42A030205B0C3940A5003020138753E3B
:1005860030753D42A93D12066D0909893D120F5B82
:10059600A93E12066D120BBEA93E12066109893EDE
:1005A600E53EC3943C70DD020138752F42752E007E
:1005B600E4F52DF52CE555232479F519751B0379FA
:1005C60030753D4212066D09893EE507A2E7922C79
:1005D600C2E7F507120F5B792C12066D120D411258
:1005E6000DF9120F5BEEFCEFFDEC120DC1A22C50C3
:1005F60010120F5B750747E4F506F505F504120BB7
:10060600BEA93D120661E53D2405F53D120F7A852A
:10061600071DE506A22C92E7F51E755600C22E7A36
:1006260002791DE5191204FEE519240CF519A93EF7
:10063600AA3DD51B8FE55504F555B40612C21EC258
:100646001DD22E7A12746779301204FE0201837964
:10065600107830760008D9FB020183A70409A705A4
:1006660009A70609A7072287040987050987060936
:03067600870722D1
:10067900BA4100400D5302DFEA945B502A7401022B
:1006890006B3EAC3940D6020940E601994116018A2
:10069900940F6014940460E5EAC394304009940A05
:1006A9007402400622C22722740830272220262EEF
:1006B90030254420E33520E028E52B75F00AA48590
:1006C900F02CCA540F2AF52B7400352CF52C222056
:1006D900E30B30E00C8A2AD227C225C2262220E366
:1006E9000A752A00D227D225D22622C22790072CA2
:1006F900E52A75F005A47320E3AB30E0E4752B001F
:10070900752C00D22590072A790009E975F005A40E
:100719009360CEB52AF4E975F005A40493B502EA0D
:10072900892A2202079E4D530207A54D43020799C4
:10073900544D02079F463F0207EE534D0207B3523D
:100749004D0207BA4D410207AB4647020804493F2B
:1007590002081E4D4F020833534F02086A535402D0
:1007690008734E5202084E524E0208AE534902080F
:100779007C58590208A04D580208635752020900D3
:100789004D420208A7435302094653420209810018
:10079900D219E4F55C22D218C21980F6C219755C27
:1007A9000122852B57852C5980E8C22EAF2B0207D1
:1007B900BCD22E7A01E55785595679071204FCE512
:1007C9005724015007F55705590207D7F557302E19
:1007D90012E4F504F505F506F55CC228C229C22A1A
:1007E9000209BA80ADAF53D229C22AC22BC228E46A
:1007F900F506F505F504F55C0209BAC3E52B94067F
:10080900400BC3E52B94FF7002C21D8085852B55D3
:10081900D21D02079BD22ED22F7A1D755600743E27
:100829001204FE120B857F2280BDD21ED21DC21971
:10083900C21F79107830E4F608D9FCF53CF55575F6
:1008490053FA02079BC21AC21BC21CC21DC21ED286
:100859002E7A12746779301204FEC21FC23302075E
:100869009BD21BC21AC21F02079BC21BC21FD21AEC
:1008790002079BE55DB40203020887B40316C3E5CA
:100889002B9419400FC3E52B94FB5008D21C852BE0
:1008990054852B5302079BD21FC23302079BD21FD9
:1008A900D23302079BD22EC22B751A00852B1BE56A
:1008B9001B7002051B7A01E5578559567907120401
:1008C900FCE5572401500FF5570559C3E558135551
:1008D90059F5590208E1F557E507120B98251AF55C
:1008E9001AC3E51B9401F51B70CBE51A120B98741A
:1008F9000D120B9802079BE52B602FB44F09E55C9D
:10090900B40124755C0222B4661DE55CB402047569
:100919005C0322B40311C22D74FFF52CF52D7A0264
:10092900792C74261204FA02079BC22DE4F52CF5E2
:100939002D7A02792C74261204FAD22D22E4F518A4
:10094900F519F51AF51B851B82851A83E493251978
:10095900F519E43518F518051BE51B7002051AE4AD
:10096900B51BE3E51AB410DEE518120B98E5191268
:100979000B98120B7602079BE55DB40333E52BB4A4
:100989003006752CF40209A0B46006752CFA020928
:10099900A0B4C01C752CFD852C8DE4A22D13F52D5A
:1009A900C22D7A01792C74281204FAE52D33922D7F
:0109B900221B
:1009BA00302803120DF9E4F52CF52DF52EF52F78D4
:1009CA0020EF33FFEE33FEED33FDEC33FCE52F353C
:1009DA002FD4F52FE52E352ED4F52EE52D352DD431
:1009EA00F52DE52C352CD4F52CD8D6202803020B6E
:1009FA0001C229C22A203303020AAFE51AB44212FD
:100A0A007452120B987447120B987442120B981274
:100A1A000B8A203112E52D54F0252C700AE52D544D
:100A2A000F9405500280087400F52DF52EF52FD28B
:100A3A002AE52D540F7024240A422DC22AE52E5489
:100A4A00F0701824A0422EE52E540F700E240A428C
:100A5A002EE52F54F0700424A0422F302A07E52DEA
:100A6A00540F120B8FE52EC4540F120B8F302A032A
:100A7A00120B7BE52E540F120B8FE52FC4540F1265
:100A8A000B8F202A0CE52F540F120B8F7420120B98
:100A9A0098202B0E120B8A120B76740A120B9802EC
:100AAA000B76020B8AE52C540F6006120B8F020A92
:100ABA00BDD229E52DC4540F700A302907C229D2A4
:100ACA002A020AD1120B8FE52D120B8FE52EC412C2
:100ADA000B8FE52E120B8FA229722A5011120B7B53
:100AEA00E52FC4120B8F302A05E52F120B8F302BFE
:100AFA0003020B85020B76E52E120B8F302A0312A6
:100B0A000B7BE52FC4120B8F302903120B7BE52FC9
:100B1A00120B8F80D9C281D2E08004C281C2E0C2A6
:100B2A0080C2D57D083320D5029281D2803080FDE3
:100B3A0030D502A28133C280DDEC20D501D3928167
:100B4A0000D2803080FDA281C280D28122D3D2D548
:100B5A0080D1C3D2D580CCC281D2803080FD00D270
:100B6A008122E7120B9809DBF9202B0F740D020B77
:100B7A0098742E020B98742D020B98742C020B9801
:100B8A00742A020B98540F2430B43A02742020308D
:060B9A00FDD230F59922A6
:100BA000DA0CD902800BD906300701B35005020ECA
:100BB000AE9207020E9AD9F680F9D2068002C206DA
:100BC000120EDF300606C86002B207C89206DAD0FD
:100BD000D9E4B8000A120F26A2069207020E83601B
:100BE000FBB50E00400F120F26A20692F7A2079245
:100BF00006A2F79207C398F40424E740DF2419AD56
:100C00000AAC09AB087A00C394084008CDCCCBFAF3
:100C1000E4CD80F424086010F9C3ED13FDEC13FC5F
:100C2000EB13FBEA13FAD9F1A206300701B3403007
:100C30008A12E50B2BF513E50C3CF514E50D3DF59B
:100C400015501A13F515E51413F514E51313F513E0
:100C5000E51213F512050EE50E7002050F020E39AE
:100C6000E4C39AF512E50B9BF513E50C9CF514E52E
:100C70000D9DF515500DB207C378127F04E496F66A
:100C800008DFFA7A047019E50EC39408F50E5002D5
:100C9000150FE4C512C513C514F515DAE8020EDA0E
:100CA00020E7BAE50E7002150F150E7812C37F0407
:080CB000E633F608DFFA80E8E4
:100CB800DA03B80003020EAED9028002D9F7020E99
:100CC8009A120EDF300701B392077004D9E7800546
:100CD800DADEB80003020EDAD9E2C3947E500215B8
:100CE8000F250EF50E5002050F7810760008B8167D
:100CF800FA78087910E608FAE8FC780B8AF0E60832
:100D0800A427F709E5F037F7500989F00907E760E4
:100D1800FBA9F0B80EE61919ECF8B80BD8020E3991
:100D2800020EC5B8FFFA020EAED9FB020E9ADAF629
:100D3800B800F0020EDA120F3C120EDF300701B3D2
:100D480092077007D9E3B800E280DBDAE1B8000265
:100D580080E1D9D5C8C3985002150F247F500205E9
:100D68000FF50E781576007A1A7B80C3E50B950887
:100D7800E50C9509E50D950A4016C3E50B9508F5B0
:100D88000BE50C9509F50CE50D950AF50DE64BF606
:100D9800DA03020E39EB03FB30E703187600C3E5EC
:100DA8000B33F50BE50C33F50CE50D33F50D40CAA7
:050DB80030E7DD80B60C
:100DBD007920800C7910800479087D007E007F00F9
:100DCD003392D530D503120F4DEC33400FEF33FF77
:100DDD00EE33FEED33FDEC33FCD9EE22EECCF5F027
:0C0DED00747E29A2D513FF92F7AEF0220D
:100DF900EF8EF0A2F7D2F73392D5C3947F5006E471
:100E0900FFFEFDFC229420400474FF80F304CCFE15
:100E1900E4FFFAE5F0CC6012C3CC13CCCD13CDCEF0
:100E290013CECF13CF0450EEDAEC30D5D7020F4DE5
:100E3900E51520E7137812C37F04E633F608DFFAD5
:100E4900E50E7002150F150EE5123378137F03E6D0
:100E59003400F6500E08DFF7751580050EE50E70A3
:100E690002050FE50F20E7547027E50E604E046078
:100E79002085150D85140C85130B5320F0AC0BAD93
:100E89000CA207E50E13FFE50D92E7FEA80E020F6F
:100E990082E4F50DF50CF50BF50F750EFF5320F0F7
:100EA90043200580D874FFF50DF50CF50B750F007F
:100EB900F50ED2075320F043200980C15320F04397
:100EC9002003E4F50DF50CF50BF50FF50EC20780BF
:060ED900AC5320F080EC98
:100EDF0079017A01850DF0E50EA2F7339207750FB0
:100EEF0000F50E6002D2F785F00DA80EB8FF0809C5
:100EFF00E50DC2E76001098C088D098EF0A2F7EFAE
:100F0F003304700A0AC2F705F00AD5F0011A14600B
:070F1F0002D2F785F00A225F
:100F2600C8880EC50DC50AC50DC50CC509C50CC5B5
:060F36000BC508C50B22EB
:100F3C00CFC50ECFCEC50DCECDC50CCDCCC50BCCF3
:010F4C002282
:0E0F4D00C3E49FFFE49EFEE49DFDE49CFC22B5
:100F5B00E51605166010D0F0D0E0C00BC00CC00D2C
:100F6B00C00EC0E0C0F08F0E8E0D8D0C8C0B22AF1F
:100F7B000EAE0DAD0CAC0BE516146010D0F0D0E03E
:0F0F8B00D00ED00DD00CD00BC0E0C0F015162248
:00000001FF
